{
    "tests/shanghai/eip4895_withdrawals/test_withdrawals.py::test_balance_within_block[fork_Shanghai-blockchain_test_hive]": {
        "network": "Shanghai",
        "genesisBlockHeader": {
            "parentHash": "0x0000000000000000000000000000000000000000000000000000000000000000",
            "uncleHash": "0x1dcc4de8dec75d7aab85b567b6ccd41ad312451b948a7413f0a142fd40d49347",
            "coinbase": "0x0000000000000000000000000000000000000000",
            "stateRoot": "0x07843e40fc93e340ea5a9d49f0d9e330b6d1f693762a82f4d042c2435b3a944b",
            "transactionsTrie": "0x56e81f171bcc55a6ff8345e692c0f86e5b48e01b996cadc001622fb5e363b421",
            "receiptTrie": "0x56e81f171bcc55a6ff8345e692c0f86e5b48e01b996cadc001622fb5e363b421",
            "bloom": "0x00000000000000000000000000000000000000000000000000000000000000000000000000000000000000000000000000000000000000000000000000000000000000000000000000000000000000000000000000000000000000000000000000000000000000000000000000000000000000000000000000000000000000000000000000000000000000000000000000000000000000000000000000000000000000000000000000000000000000000000000000000000000000000000000000000000000000000000000000000000000000000000000000000000000000000000000000000000000000000000000000000000000000000000000000000000",
            "difficulty": "0x00",
            "number": "0x00",
            "gasLimit": "0x016345785d8a0000",
            "gasUsed": "0x00",
            "timestamp": "0x00",
            "extraData": "0x00",
            "mixHash": "0x0000000000000000000000000000000000000000000000000000000000000000",
            "nonce": "0x0000000000000000",
            "baseFeePerGas": "0x07",
            "withdrawalsRoot": "0x56e81f171bcc55a6ff8345e692c0f86e5b48e01b996cadc001622fb5e363b421",
            "hash": "0x8d3afacb065d2a280162817c3cb1f89f3f52006c226f6eaad96fe92d97e651cd"
        },
        "pre": {
            "0xa94f5374fce5edbc8e2a8697c15331677e6ebf0b": {
                "nonce": "0x00",
                "balance": "0x3635c9adc5dea00000",
                "code": "0x",
                "storage": {}
            },
            "0x0000000000000000000000000000000000001000": {
                "nonce": "0x00",
                "balance": "0x00",
                "code": "0x600035314355",
                "storage": {}
            },
            "0x0000000000000000000000000000000000002000": {
                "nonce": "0x00",
                "balance": "0x3b9aca00",
                "code": "0x",
                "storage": {}
            }
        },
        "postState": {
            "0x0000000000000000000000000000000000001000": {
                "nonce": "0x00",
                "balance": "0x00",
                "code": "0x600035314355",
                "storage": {
                    "0x01": "0x3b9aca00",
                    "0x02": "0x77359400"
                }
            },
            "0x0000000000000000000000000000000000002000": {
                "nonce": "0x00",
                "balance": "0x77359400",
                "code": "0x",
                "storage": {}
            },
            "0x2adc25665018aa1fe0e6bc666dac8fc2697ff9ba": {
                "nonce": "0x00",
                "balance": "0x043290",
                "code": "0x",
                "storage": {}
            },
            "0xa94f5374fce5edbc8e2a8697c15331677e6ebf0b": {
                "nonce": "0x02",
                "balance": "0x3635c9adc5de920220",
                "code": "0x",
                "storage": {}
            }
        },
        "engineNewPayloads": [
            {
                "executionPayload": {
                    "parentHash": "0x8d3afacb065d2a280162817c3cb1f89f3f52006c226f6eaad96fe92d97e651cd",
                    "feeRecipient": "0x2adc25665018aa1fe0e6bc666dac8fc2697ff9ba",
                    "stateRoot": "0x2249526ffb0392621d957efabddf93e3c1af818cad9b4f732a1379dadf7e8c19",
                    "receiptsRoot": "0x073d14bc6015a5a6d55707b94062609b98ccdd5a29733dbf2c9204ab9c65a9e5",
                    "logsBloom": "0x00000000000000000000000000000000000000000000000000000000000000000000000000000000000000000000000000000000000000000000000000000000000000000000000000000000000000000000000000000000000000000000000000000000000000000000000000000000000000000000000000000000000000000000000000000000000000000000000000000000000000000000000000000000000000000000000000000000000000000000000000000000000000000000000000000000000000000000000000000000000000000000000000000000000000000000000000000000000000000000000000000000000000000000000000000000",
                    "blockNumber": "0x1",
                    "gasLimit": "0x16345785d8a0000",
                    "gasUsed": "0xb318",
                    "timestamp": "0xc",
                    "extraData": "0x",
                    "prevRandao": "0x0000000000000000000000000000000000000000000000000000000000000000",
                    "baseFeePerGas": "0x7",
                    "blockHash": "0x9408d8cb1e1ae27b63b698f7fdf0fec33aead7a94310aa69a885ee7dcf04437b",
                    "transactions": [
                        "0xf880800a830186a094000000000000000000000000000000000000100080a0000000000000000000000000000000000000000000000000000000000000200026a0a2dd34f226d85453f9d21fa4631b0a165e0eb787967a4f21916f89fe2b1ae20ea010033c732359d59087c923858a0d8d233ff162155a3abefed63c630156201123"
                    ],
                    "withdrawals": [
                        {
                            "index": "0x0",
                            "validatorIndex": "0x0",
                            "address": "0x0000000000000000000000000000000000002000",
                            "amount": "0x1"
                        }
                    ]
                },
                "version": "2"
            },
            {
                "executionPayload": {
                    "parentHash": "0x9408d8cb1e1ae27b63b698f7fdf0fec33aead7a94310aa69a885ee7dcf04437b",
                    "feeRecipient": "0x2adc25665018aa1fe0e6bc666dac8fc2697ff9ba",
                    "stateRoot": "0x6a65198da4f3af3e1e2810ccad4cb235a90ffaf635e941a431efecf31a87db3f",
                    "receiptsRoot": "0x073d14bc6015a5a6d55707b94062609b98ccdd5a29733dbf2c9204ab9c65a9e5",
                    "logsBloom": "0x00000000000000000000000000000000000000000000000000000000000000000000000000000000000000000000000000000000000000000000000000000000000000000000000000000000000000000000000000000000000000000000000000000000000000000000000000000000000000000000000000000000000000000000000000000000000000000000000000000000000000000000000000000000000000000000000000000000000000000000000000000000000000000000000000000000000000000000000000000000000000000000000000000000000000000000000000000000000000000000000000000000000000000000000000000000",
                    "blockNumber": "0x2",
                    "gasLimit": "0x16345785d8a0000",
                    "gasUsed": "0xb318",
                    "timestamp": "0x18",
                    "extraData": "0x",
                    "prevRandao": "0x0000000000000000000000000000000000000000000000000000000000000000",
                    "baseFeePerGas": "0x7",
                    "blockHash": "0xb40bd19361c030eaff4f3e8c07d7bc58c4c256a2c73c451291460ec859fa5a7b",
                    "transactions": [
                        "0xf880010a830186a094000000000000000000000000000000000000100080a0000000000000000000000000000000000000000000000000000000000000200026a02b47920fdd303cb84f49d9c8ab9d852f4050c75c171bddcba1a0d2635ffbb297a010434cbcc7653efff16c4d9737495880c82ebc627d50d9e9d4ccc3642ba534a5"
                    ],
                    "withdrawals": []
                },
                "version": "2"
            }
        ],
        "engineFcuVersion": "2",
        "_info": {
            "hash": "0x83d7e747f75c1bdf2975a641d7165a554d8061671c6194e8c9050a35a21288c8",
            "comment": "`execution-spec-tests` generated test",
            "filling-transition-tool": "evm version 1.14.4-unstable-44a50c9f-20240510",
            "reference-spec": "https://github.com/ethereum/EIPs/blob/master/EIPS/eip-4895.md",
            "reference-spec-version": "81af3b60b632bc9c03513d1d137f25410e3f4d34"
        }
    },
    "tests/shanghai/eip4895_withdrawals/test_withdrawals.py::test_balance_within_block[fork_Cancun-blockchain_test_hive]": {
        "network": "Cancun",
        "genesisBlockHeader": {
            "parentHash": "0x0000000000000000000000000000000000000000000000000000000000000000",
            "uncleHash": "0x1dcc4de8dec75d7aab85b567b6ccd41ad312451b948a7413f0a142fd40d49347",
            "coinbase": "0x0000000000000000000000000000000000000000",
            "stateRoot": "0x3592689d0effc1bb3219298414d16a72d052e860da26f3b329bd45d0572a0920",
            "transactionsTrie": "0x56e81f171bcc55a6ff8345e692c0f86e5b48e01b996cadc001622fb5e363b421",
            "receiptTrie": "0x56e81f171bcc55a6ff8345e692c0f86e5b48e01b996cadc001622fb5e363b421",
            "bloom": "0x00000000000000000000000000000000000000000000000000000000000000000000000000000000000000000000000000000000000000000000000000000000000000000000000000000000000000000000000000000000000000000000000000000000000000000000000000000000000000000000000000000000000000000000000000000000000000000000000000000000000000000000000000000000000000000000000000000000000000000000000000000000000000000000000000000000000000000000000000000000000000000000000000000000000000000000000000000000000000000000000000000000000000000000000000000000",
            "difficulty": "0x00",
            "number": "0x00",
            "gasLimit": "0x016345785d8a0000",
            "gasUsed": "0x00",
            "timestamp": "0x00",
            "extraData": "0x00",
            "mixHash": "0x0000000000000000000000000000000000000000000000000000000000000000",
            "nonce": "0x0000000000000000",
            "baseFeePerGas": "0x07",
            "withdrawalsRoot": "0x56e81f171bcc55a6ff8345e692c0f86e5b48e01b996cadc001622fb5e363b421",
            "blobGasUsed": "0x00",
            "excessBlobGas": "0x00",
            "parentBeaconBlockRoot": "0x0000000000000000000000000000000000000000000000000000000000000000",
            "hash": "0xa2ce60a50cedb6289bd9fb180763001d812a78fe36c61f529e44acae0b7e8208"
        },
        "pre": {
            "0x000f3df6d732807ef1319fb7b8bb8522d0beac02": {
                "nonce": "0x01",
                "balance": "0x00",
                "code": "0x3373fffffffffffffffffffffffffffffffffffffffe14604d57602036146024575f5ffd5b5f35801560495762001fff810690815414603c575f5ffd5b62001fff01545f5260205ff35b5f5ffd5b62001fff42064281555f359062001fff015500",
                "storage": {}
            },
            "0xa94f5374fce5edbc8e2a8697c15331677e6ebf0b": {
                "nonce": "0x00",
                "balance": "0x3635c9adc5dea00000",
                "code": "0x",
                "storage": {}
            },
            "0x0000000000000000000000000000000000001000": {
                "nonce": "0x00",
                "balance": "0x00",
                "code": "0x600035314355",
                "storage": {}
            },
            "0x0000000000000000000000000000000000002000": {
                "nonce": "0x00",
                "balance": "0x3b9aca00",
                "code": "0x",
                "storage": {}
            }
        },
        "postState": {
            "0x0000000000000000000000000000000000001000": {
                "nonce": "0x00",
                "balance": "0x00",
                "code": "0x600035314355",
                "storage": {
                    "0x01": "0x3b9aca00",
                    "0x02": "0x77359400"
                }
            },
            "0x0000000000000000000000000000000000002000": {
                "nonce": "0x00",
                "balance": "0x77359400",
                "code": "0x",
                "storage": {}
            },
            "0x000f3df6d732807ef1319fb7b8bb8522d0beac02": {
                "nonce": "0x01",
                "balance": "0x00",
                "code": "0x3373fffffffffffffffffffffffffffffffffffffffe14604d57602036146024575f5ffd5b5f35801560495762001fff810690815414603c575f5ffd5b62001fff01545f5260205ff35b5f5ffd5b62001fff42064281555f359062001fff015500",
                "storage": {
                    "0x0c": "0x0c",
                    "0x18": "0x18"
                }
            },
            "0x2adc25665018aa1fe0e6bc666dac8fc2697ff9ba": {
                "nonce": "0x00",
                "balance": "0x043290",
                "code": "0x",
                "storage": {}
            },
            "0xa94f5374fce5edbc8e2a8697c15331677e6ebf0b": {
                "nonce": "0x02",
                "balance": "0x3635c9adc5de920220",
                "code": "0x",
                "storage": {}
            }
        },
        "engineNewPayloads": [
            {
                "executionPayload": {
                    "parentHash": "0xa2ce60a50cedb6289bd9fb180763001d812a78fe36c61f529e44acae0b7e8208",
                    "feeRecipient": "0x2adc25665018aa1fe0e6bc666dac8fc2697ff9ba",
                    "stateRoot": "0x8694347218cb4114e77f667ac63aefc60c16b81ada0e8d46021425c713a1e90d",
                    "receiptsRoot": "0x073d14bc6015a5a6d55707b94062609b98ccdd5a29733dbf2c9204ab9c65a9e5",
                    "logsBloom": "0x00000000000000000000000000000000000000000000000000000000000000000000000000000000000000000000000000000000000000000000000000000000000000000000000000000000000000000000000000000000000000000000000000000000000000000000000000000000000000000000000000000000000000000000000000000000000000000000000000000000000000000000000000000000000000000000000000000000000000000000000000000000000000000000000000000000000000000000000000000000000000000000000000000000000000000000000000000000000000000000000000000000000000000000000000000000",
                    "blockNumber": "0x1",
                    "gasLimit": "0x16345785d8a0000",
                    "gasUsed": "0xb318",
                    "timestamp": "0xc",
                    "extraData": "0x",
                    "prevRandao": "0x0000000000000000000000000000000000000000000000000000000000000000",
                    "baseFeePerGas": "0x7",
                    "blobGasUsed": "0x0",
                    "excessBlobGas": "0x0",
                    "blockHash": "0x420f2892884ac1fa96081ab04b791e29770ea61e558d2ca99433cde75e1773df",
                    "transactions": [
                        "0xf880800a830186a094000000000000000000000000000000000000100080a0000000000000000000000000000000000000000000000000000000000000200026a0a2dd34f226d85453f9d21fa4631b0a165e0eb787967a4f21916f89fe2b1ae20ea010033c732359d59087c923858a0d8d233ff162155a3abefed63c630156201123"
                    ],
                    "withdrawals": [
                        {
                            "index": "0x0",
                            "validatorIndex": "0x0",
                            "address": "0x0000000000000000000000000000000000002000",
                            "amount": "0x1"
                        }
                    ]
                },
                "version": "3",
                "expectedBlobVersionedHashes": [],
                "parentBeaconBlockRoot": "0x0000000000000000000000000000000000000000000000000000000000000000"
            },
            {
                "executionPayload": {
                    "parentHash": "0x420f2892884ac1fa96081ab04b791e29770ea61e558d2ca99433cde75e1773df",
                    "feeRecipient": "0x2adc25665018aa1fe0e6bc666dac8fc2697ff9ba",
                    "stateRoot": "0x6fce02400e506c052fbec0064db441d0cb0ea3f19af6d7357e63d633d95488f8",
                    "receiptsRoot": "0x073d14bc6015a5a6d55707b94062609b98ccdd5a29733dbf2c9204ab9c65a9e5",
                    "logsBloom": "0x00000000000000000000000000000000000000000000000000000000000000000000000000000000000000000000000000000000000000000000000000000000000000000000000000000000000000000000000000000000000000000000000000000000000000000000000000000000000000000000000000000000000000000000000000000000000000000000000000000000000000000000000000000000000000000000000000000000000000000000000000000000000000000000000000000000000000000000000000000000000000000000000000000000000000000000000000000000000000000000000000000000000000000000000000000000",
                    "blockNumber": "0x2",
                    "gasLimit": "0x16345785d8a0000",
                    "gasUsed": "0xb318",
                    "timestamp": "0x18",
                    "extraData": "0x",
                    "prevRandao": "0x0000000000000000000000000000000000000000000000000000000000000000",
                    "baseFeePerGas": "0x7",
                    "blobGasUsed": "0x0",
                    "excessBlobGas": "0x0",
                    "blockHash": "0x98ab45c522c2906ad0b20a46c8e94c821f807a566a5b6febe91e6afeb69a6b41",
                    "transactions": [
                        "0xf880010a830186a094000000000000000000000000000000000000100080a0000000000000000000000000000000000000000000000000000000000000200026a02b47920fdd303cb84f49d9c8ab9d852f4050c75c171bddcba1a0d2635ffbb297a010434cbcc7653efff16c4d9737495880c82ebc627d50d9e9d4ccc3642ba534a5"
                    ],
                    "withdrawals": []
                },
                "version": "3",
                "expectedBlobVersionedHashes": [],
                "parentBeaconBlockRoot": "0x0000000000000000000000000000000000000000000000000000000000000000"
            }
        ],
        "engineFcuVersion": "3",
        "_info": {
            "hash": "0xc27c66389ed6c5f40cfd85ed442054bee93996863acb0bb5c1355cbdf21a5843",
            "comment": "`execution-spec-tests` generated test",
            "filling-transition-tool": "evm version 1.14.4-unstable-44a50c9f-20240510",
            "reference-spec": "https://github.com/ethereum/EIPs/blob/master/EIPS/eip-4895.md",
            "reference-spec-version": "81af3b60b632bc9c03513d1d137f25410e3f4d34"
        }
    }
}