{
    "tests/shanghai/eip4895_withdrawals/test_withdrawals.py::test_no_evm_execution[fork_Shanghai-blockchain_test_hive]": {
        "network": "Shanghai",
        "genesisBlockHeader": {
            "parentHash": "0x0000000000000000000000000000000000000000000000000000000000000000",
            "uncleHash": "0x1dcc4de8dec75d7aab85b567b6ccd41ad312451b948a7413f0a142fd40d49347",
            "coinbase": "0x0000000000000000000000000000000000000000",
            "stateRoot": "0xe5aeca3d242eeb8d07f1d0cae43de29158499c1fe61e7ac50263d416de0ce0b9",
            "transactionsTrie": "0x56e81f171bcc55a6ff8345e692c0f86e5b48e01b996cadc001622fb5e363b421",
            "receiptTrie": "0x56e81f171bcc55a6ff8345e692c0f86e5b48e01b996cadc001622fb5e363b421",
            "bloom": "0x00000000000000000000000000000000000000000000000000000000000000000000000000000000000000000000000000000000000000000000000000000000000000000000000000000000000000000000000000000000000000000000000000000000000000000000000000000000000000000000000000000000000000000000000000000000000000000000000000000000000000000000000000000000000000000000000000000000000000000000000000000000000000000000000000000000000000000000000000000000000000000000000000000000000000000000000000000000000000000000000000000000000000000000000000000000",
            "difficulty": "0x00",
            "number": "0x00",
            "gasLimit": "0x016345785d8a0000",
            "gasUsed": "0x00",
            "timestamp": "0x00",
            "extraData": "0x00",
            "mixHash": "0x0000000000000000000000000000000000000000000000000000000000000000",
            "nonce": "0x0000000000000000",
            "baseFeePerGas": "0x07",
            "withdrawalsRoot": "0x56e81f171bcc55a6ff8345e692c0f86e5b48e01b996cadc001622fb5e363b421",
            "hash": "0xe1b16b4d445b817ce6ba6ac961cafa472202bf2b8ba31855d6632faf55319730"
        },
        "pre": {
            "0xa94f5374fce5edbc8e2a8697c15331677e6ebf0b": {
                "nonce": "0x00",
                "balance": "0x3635c9adc5dea00000",
                "code": "0x",
                "storage": {}
            },
            "0x0000000000000000000000000000000000001000": {
                "nonce": "0x00",
                "balance": "0x00",
                "code": "0x60014355",
                "storage": {}
            },
            "0x0000000000000000000000000000000000002000": {
                "nonce": "0x00",
                "balance": "0x00",
                "code": "0x60014355",
                "storage": {}
            },
            "0x0000000000000000000000000000000000003000": {
                "nonce": "0x00",
                "balance": "0x00",
                "code": "0x60014355",
                "storage": {}
            },
            "0x0000000000000000000000000000000000004000": {
                "nonce": "0x00",
                "balance": "0x00",
                "code": "0x60014355",
                "storage": {}
            }
        },
        "postState": {
            "0x0000000000000000000000000000000000001000": {
                "nonce": "0x00",
                "balance": "0x3b9aca00",
                "code": "0x60014355",
                "storage": {
                    "0x02": "0x01"
                }
            },
            "0x0000000000000000000000000000000000002000": {
                "nonce": "0x00",
                "balance": "0x3b9aca00",
                "code": "0x60014355",
                "storage": {
                    "0x02": "0x01"
                }
            },
            "0x0000000000000000000000000000000000003000": {
                "nonce": "0x00",
                "balance": "0x3b9aca00",
                "code": "0x60014355",
                "storage": {
                    "0x01": "0x01"
                }
            },
            "0x0000000000000000000000000000000000004000": {
                "nonce": "0x00",
                "balance": "0x3b9aca00",
                "code": "0x60014355",
                "storage": {
                    "0x01": "0x01"
                }
            },
            "0x2adc25665018aa1fe0e6bc666dac8fc2697ff9ba": {
                "nonce": "0x00",
                "balance": "0x07e48c",
                "code": "0x",
                "storage": {}
            },
            "0xa94f5374fce5edbc8e2a8697c15331677e6ebf0b": {
                "nonce": "0x04",
                "balance": "0x3635c9adc5de85b0d8",
                "code": "0x",
                "storage": {}
            }
        },
        "engineNewPayloads": [
            {
                "executionPayload": {
                    "parentHash": "0xe1b16b4d445b817ce6ba6ac961cafa472202bf2b8ba31855d6632faf55319730",
                    "feeRecipient": "0x2adc25665018aa1fe0e6bc666dac8fc2697ff9ba",
                    "stateRoot": "0xf33d22ef0134837dc002f60e9bf0dd891ea5e45f1dda331b4f4fbfd61c2e9cc6",
                    "receiptsRoot": "0x565dbae32920fdc51f307a7eae972eed4f68bf2fa895f24169f0623ef1b6d66c",
                    "logsBloom": "0x00000000000000000000000000000000000000000000000000000000000000000000000000000000000000000000000000000000000000000000000000000000000000000000000000000000000000000000000000000000000000000000000000000000000000000000000000000000000000000000000000000000000000000000000000000000000000000000000000000000000000000000000000000000000000000000000000000000000000000000000000000000000000000000000000000000000000000000000000000000000000000000000000000000000000000000000000000000000000000000000000000000000000000000000000000000",
                    "blockNumber": "0x1",
                    "gasLimit": "0x16345785d8a0000",
                    "gasUsed": "0x150c2",
                    "timestamp": "0xc",
                    "extraData": "0x",
                    "prevRandao": "0x0000000000000000000000000000000000000000000000000000000000000000",
                    "baseFeePerGas": "0x7",
                    "blockHash": "0xd2b40971191ea55b9dde584a5d88c84e08af9976bada057cecdabc7c207495a1",
                    "transactions": [
                        "0xf860800a830186a0940000000000000000000000000000000000003000808025a008fa639ad915eb1d9c2d3e5957304921a91b9b099de6307ec8c95d121d3034d3a0213eae4b7b0b378c6002580ef781e5bdc57229df9a326447750bc6725ee7ed31",
                        "0xf860010a830186a0940000000000000000000000000000000000004000808026a0f1ed67cec897c5ad20a32f1a6afda57626b01cc969ed60af337639e05baefc11a018cdfac4e51cf7b16950fd3cb540a07c5a7c965c9f0b41d66645fc8c889560f0"
                    ],
                    "withdrawals": [
                        {
                            "index": "0x0",
                            "validatorIndex": "0x0",
                            "address": "0x0000000000000000000000000000000000001000",
                            "amount": "0x1"
                        },
                        {
                            "index": "0x1",
                            "validatorIndex": "0x1",
                            "address": "0x0000000000000000000000000000000000002000",
                            "amount": "0x1"
                        }
                    ]
                },
                "version": "2"
            },
            {
                "executionPayload": {
                    "parentHash": "0xd2b40971191ea55b9dde584a5d88c84e08af9976bada057cecdabc7c207495a1",
                    "feeRecipient": "0x2adc25665018aa1fe0e6bc666dac8fc2697ff9ba",
                    "stateRoot": "0xd3deb3fb48afc1d825dfe5a602db08b8477da78827e4c2ff48b7ed115d6715e8",
                    "receiptsRoot": "0x565dbae32920fdc51f307a7eae972eed4f68bf2fa895f24169f0623ef1b6d66c",
                    "logsBloom": "0x00000000000000000000000000000000000000000000000000000000000000000000000000000000000000000000000000000000000000000000000000000000000000000000000000000000000000000000000000000000000000000000000000000000000000000000000000000000000000000000000000000000000000000000000000000000000000000000000000000000000000000000000000000000000000000000000000000000000000000000000000000000000000000000000000000000000000000000000000000000000000000000000000000000000000000000000000000000000000000000000000000000000000000000000000000000",
                    "blockNumber": "0x2",
                    "gasLimit": "0x16345785d8a0000",
                    "gasUsed": "0x150c2",
                    "timestamp": "0x18",
                    "extraData": "0x",
                    "prevRandao": "0x0000000000000000000000000000000000000000000000000000000000000000",
                    "baseFeePerGas": "0x7",
                    "blockHash": "0x480255539f3a81103e287bfeaad7472983ea90b3605f3377b3cbdd544d815b2e",
                    "transactions": [
                        "0xf860020a830186a0940000000000000000000000000000000000001000808026a0a39f9b7a2a616f9f6c5f42b9f2652e3284bd9856529634790758642b85ba4b97a076af8d4918c7eda5823a88f64a8e4eebfc94aa2a4c4fe185e8439f2ff7ca47e9",
                        "0xf860030a830186a0940000000000000000000000000000000000002000808025a0a982fe832eadc8d762f1da179c83fd9ee43825327a206a1ec276395d6516c050a035b63483ad767311033b6bd4e4d0e1f4025dfa57590212c36c5d1d575dd5e53e"
                    ],
                    "withdrawals": [
                        {
                            "index": "0x0",
                            "validatorIndex": "0x0",
                            "address": "0x0000000000000000000000000000000000003000",
                            "amount": "0x1"
                        },
                        {
                            "index": "0x1",
                            "validatorIndex": "0x1",
                            "address": "0x0000000000000000000000000000000000004000",
                            "amount": "0x1"
                        }
                    ]
                },
                "version": "2"
            }
        ],
        "engineFcuVersion": "2",
        "_info": {
            "hash": "0x72960e55542eacb87a70b3b3243d4ddafa87bf5a2810abf54dbed3e84452bcea",
            "comment": "`execution-spec-tests` generated test",
            "filling-transition-tool": "evm version 1.14.4-unstable-44a50c9f-20240510",
            "reference-spec": "https://github.com/ethereum/EIPs/blob/master/EIPS/eip-4895.md",
            "reference-spec-version": "81af3b60b632bc9c03513d1d137f25410e3f4d34"
        }
    },
    "tests/shanghai/eip4895_withdrawals/test_withdrawals.py::test_no_evm_execution[fork_Cancun-blockchain_test_hive]": {
        "network": "Cancun",
        "genesisBlockHeader": {
            "parentHash": "0x0000000000000000000000000000000000000000000000000000000000000000",
            "uncleHash": "0x1dcc4de8dec75d7aab85b567b6ccd41ad312451b948a7413f0a142fd40d49347",
            "coinbase": "0x0000000000000000000000000000000000000000",
            "stateRoot": "0xf2a76a80fdf48009203c01aec73f76e20beb81783f94db5c88aa296ed189d1c1",
            "transactionsTrie": "0x56e81f171bcc55a6ff8345e692c0f86e5b48e01b996cadc001622fb5e363b421",
            "receiptTrie": "0x56e81f171bcc55a6ff8345e692c0f86e5b48e01b996cadc001622fb5e363b421",
            "bloom": "0x00000000000000000000000000000000000000000000000000000000000000000000000000000000000000000000000000000000000000000000000000000000000000000000000000000000000000000000000000000000000000000000000000000000000000000000000000000000000000000000000000000000000000000000000000000000000000000000000000000000000000000000000000000000000000000000000000000000000000000000000000000000000000000000000000000000000000000000000000000000000000000000000000000000000000000000000000000000000000000000000000000000000000000000000000000000",
            "difficulty": "0x00",
            "number": "0x00",
            "gasLimit": "0x016345785d8a0000",
            "gasUsed": "0x00",
            "timestamp": "0x00",
            "extraData": "0x00",
            "mixHash": "0x0000000000000000000000000000000000000000000000000000000000000000",
            "nonce": "0x0000000000000000",
            "baseFeePerGas": "0x07",
            "withdrawalsRoot": "0x56e81f171bcc55a6ff8345e692c0f86e5b48e01b996cadc001622fb5e363b421",
            "blobGasUsed": "0x00",
            "excessBlobGas": "0x00",
            "parentBeaconBlockRoot": "0x0000000000000000000000000000000000000000000000000000000000000000",
            "hash": "0x4d0b399f9828d099a3971431d11e3d4946d43741cbdcab1a9f36efc2ba24054a"
        },
        "pre": {
            "0x000f3df6d732807ef1319fb7b8bb8522d0beac02": {
                "nonce": "0x01",
                "balance": "0x00",
                "code": "0x3373fffffffffffffffffffffffffffffffffffffffe14604d57602036146024575f5ffd5b5f35801560495762001fff810690815414603c575f5ffd5b62001fff01545f5260205ff35b5f5ffd5b62001fff42064281555f359062001fff015500",
                "storage": {}
            },
            "0xa94f5374fce5edbc8e2a8697c15331677e6ebf0b": {
                "nonce": "0x00",
                "balance": "0x3635c9adc5dea00000",
                "code": "0x",
                "storage": {}
            },
            "0x0000000000000000000000000000000000001000": {
                "nonce": "0x00",
                "balance": "0x00",
                "code": "0x60014355",
                "storage": {}
            },
            "0x0000000000000000000000000000000000002000": {
                "nonce": "0x00",
                "balance": "0x00",
                "code": "0x60014355",
                "storage": {}
            },
            "0x0000000000000000000000000000000000003000": {
                "nonce": "0x00",
                "balance": "0x00",
                "code": "0x60014355",
                "storage": {}
            },
            "0x0000000000000000000000000000000000004000": {
                "nonce": "0x00",
                "balance": "0x00",
                "code": "0x60014355",
                "storage": {}
            }
        },
        "postState": {
            "0x0000000000000000000000000000000000001000": {
                "nonce": "0x00",
                "balance": "0x3b9aca00",
                "code": "0x60014355",
                "storage": {
                    "0x02": "0x01"
                }
            },
            "0x0000000000000000000000000000000000002000": {
                "nonce": "0x00",
                "balance": "0x3b9aca00",
                "code": "0x60014355",
                "storage": {
                    "0x02": "0x01"
                }
            },
            "0x0000000000000000000000000000000000003000": {
                "nonce": "0x00",
                "balance": "0x3b9aca00",
                "code": "0x60014355",
                "storage": {
                    "0x01": "0x01"
                }
            },
            "0x0000000000000000000000000000000000004000": {
                "nonce": "0x00",
                "balance": "0x3b9aca00",
                "code": "0x60014355",
                "storage": {
                    "0x01": "0x01"
                }
            },
            "0x000f3df6d732807ef1319fb7b8bb8522d0beac02": {
                "nonce": "0x01",
                "balance": "0x00",
                "code": "0x3373fffffffffffffffffffffffffffffffffffffffe14604d57602036146024575f5ffd5b5f35801560495762001fff810690815414603c575f5ffd5b62001fff01545f5260205ff35b5f5ffd5b62001fff42064281555f359062001fff015500",
                "storage": {
                    "0x0c": "0x0c",
                    "0x18": "0x18"
                }
            },
            "0x2adc25665018aa1fe0e6bc666dac8fc2697ff9ba": {
                "nonce": "0x00",
                "balance": "0x07e48c",
                "code": "0x",
                "storage": {}
            },
            "0xa94f5374fce5edbc8e2a8697c15331677e6ebf0b": {
                "nonce": "0x04",
                "balance": "0x3635c9adc5de85b0d8",
                "code": "0x",
                "storage": {}
            }
        },
        "engineNewPayloads": [
            {
                "executionPayload": {
                    "parentHash": "0x4d0b399f9828d099a3971431d11e3d4946d43741cbdcab1a9f36efc2ba24054a",
                    "feeRecipient": "0x2adc25665018aa1fe0e6bc666dac8fc2697ff9ba",
                    "stateRoot": "0x4dec8ddd4a013f3676a975d22cd6524651e12e474cb087abea280fe611a91cfe",
                    "receiptsRoot": "0x565dbae32920fdc51f307a7eae972eed4f68bf2fa895f24169f0623ef1b6d66c",
                    "logsBloom": "0x00000000000000000000000000000000000000000000000000000000000000000000000000000000000000000000000000000000000000000000000000000000000000000000000000000000000000000000000000000000000000000000000000000000000000000000000000000000000000000000000000000000000000000000000000000000000000000000000000000000000000000000000000000000000000000000000000000000000000000000000000000000000000000000000000000000000000000000000000000000000000000000000000000000000000000000000000000000000000000000000000000000000000000000000000000000",
                    "blockNumber": "0x1",
                    "gasLimit": "0x16345785d8a0000",
                    "gasUsed": "0x150c2",
                    "timestamp": "0xc",
                    "extraData": "0x",
                    "prevRandao": "0x0000000000000000000000000000000000000000000000000000000000000000",
                    "baseFeePerGas": "0x7",
                    "blobGasUsed": "0x0",
                    "excessBlobGas": "0x0",
                    "blockHash": "0x011dd1408b75442d08fe15329f2548b3e0869d4e20bf8eba7fac0dfcdf08dd91",
                    "transactions": [
                        "0xf860800a830186a0940000000000000000000000000000000000003000808025a008fa639ad915eb1d9c2d3e5957304921a91b9b099de6307ec8c95d121d3034d3a0213eae4b7b0b378c6002580ef781e5bdc57229df9a326447750bc6725ee7ed31",
                        "0xf860010a830186a0940000000000000000000000000000000000004000808026a0f1ed67cec897c5ad20a32f1a6afda57626b01cc969ed60af337639e05baefc11a018cdfac4e51cf7b16950fd3cb540a07c5a7c965c9f0b41d66645fc8c889560f0"
                    ],
                    "withdrawals": [
                        {
                            "index": "0x0",
                            "validatorIndex": "0x0",
                            "address": "0x0000000000000000000000000000000000001000",
                            "amount": "0x1"
                        },
                        {
                            "index": "0x1",
                            "validatorIndex": "0x1",
                            "address": "0x0000000000000000000000000000000000002000",
                            "amount": "0x1"
                        }
                    ]
                },
                "version": "3",
                "expectedBlobVersionedHashes": [],
                "parentBeaconBlockRoot": "0x0000000000000000000000000000000000000000000000000000000000000000"
            },
            {
                "executionPayload": {
                    "parentHash": "0x011dd1408b75442d08fe15329f2548b3e0869d4e20bf8eba7fac0dfcdf08dd91",
                    "feeRecipient": "0x2adc25665018aa1fe0e6bc666dac8fc2697ff9ba",
                    "stateRoot": "0xad55555ceb84d7c4f7c87b599b83a5df1cb21548147f5b06e9f9eb0b3167f451",
                    "receiptsRoot": "0x565dbae32920fdc51f307a7eae972eed4f68bf2fa895f24169f0623ef1b6d66c",
                    "logsBloom": "0x00000000000000000000000000000000000000000000000000000000000000000000000000000000000000000000000000000000000000000000000000000000000000000000000000000000000000000000000000000000000000000000000000000000000000000000000000000000000000000000000000000000000000000000000000000000000000000000000000000000000000000000000000000000000000000000000000000000000000000000000000000000000000000000000000000000000000000000000000000000000000000000000000000000000000000000000000000000000000000000000000000000000000000000000000000000",
                    "blockNumber": "0x2",
                    "gasLimit": "0x16345785d8a0000",
                    "gasUsed": "0x150c2",
                    "timestamp": "0x18",
                    "extraData": "0x",
                    "prevRandao": "0x0000000000000000000000000000000000000000000000000000000000000000",
                    "baseFeePerGas": "0x7",
                    "blobGasUsed": "0x0",
                    "excessBlobGas": "0x0",
                    "blockHash": "0x86036433689aabbc759fe67658768065ba216fb3f28825939bcfdd6a1ae423b7",
                    "transactions": [
                        "0xf860020a830186a0940000000000000000000000000000000000001000808026a0a39f9b7a2a616f9f6c5f42b9f2652e3284bd9856529634790758642b85ba4b97a076af8d4918c7eda5823a88f64a8e4eebfc94aa2a4c4fe185e8439f2ff7ca47e9",
                        "0xf860030a830186a0940000000000000000000000000000000000002000808025a0a982fe832eadc8d762f1da179c83fd9ee43825327a206a1ec276395d6516c050a035b63483ad767311033b6bd4e4d0e1f4025dfa57590212c36c5d1d575dd5e53e"
                    ],
                    "withdrawals": [
                        {
                            "index": "0x0",
                            "validatorIndex": "0x0",
                            "address": "0x0000000000000000000000000000000000003000",
                            "amount": "0x1"
                        },
                        {
                            "index": "0x1",
                            "validatorIndex": "0x1",
                            "address": "0x0000000000000000000000000000000000004000",
                            "amount": "0x1"
                        }
                    ]
                },
                "version": "3",
                "expectedBlobVersionedHashes": [],
                "parentBeaconBlockRoot": "0x0000000000000000000000000000000000000000000000000000000000000000"
            }
        ],
        "engineFcuVersion": "3",
        "_info": {
            "hash": "0x01f2610be60e6e9284720235e0f89f429915ce740d0d282195fe7a9e98ed8ce7",
            "comment": "`execution-spec-tests` generated test",
            "filling-transition-tool": "evm version 1.14.4-unstable-44a50c9f-20240510",
            "reference-spec": "https://github.com/ethereum/EIPs/blob/master/EIPS/eip-4895.md",
            "reference-spec-version": "81af3b60b632bc9c03513d1d137f25410e3f4d34"
        }
    }
}