{
    "tests/homestead/yul/test_yul_example.py::test_yul[fork_Homestead-state_test]": {
        "env": {
            "currentCoinbase": "0x2adc25665018aa1fe0e6bc666dac8fc2697ff9ba",
            "currentGasLimit": "0x016345785d8a0000",
            "currentNumber": "0x01",
            "currentTimestamp": "0x03e8",
            "currentDifficulty": "0x020000"
        },
        "pre": {
            "0x1000000000000000000000000000000000000000": {
                "nonce": "0x00",
                "balance": "0x0ba1a9ce0ba1a9ce",
                "code": "0x6009600260016012565b60005560206000f35b600082820190509291505056",
                "storage": {}
            },
            "0xa94f5374fce5edbc8e2a8697c15331677e6ebf0b": {
                "nonce": "0x00",
                "balance": "0x0ba1a9ce0ba1a9ce",
                "code": "0x",
                "storage": {}
            }
        },
        "transaction": {
            "nonce": "0x00",
            "gasPrice": "0x0a",
            "gasLimit": [
                "0x07a120"
            ],
            "to": "0x1000000000000000000000000000000000000000",
            "value": [
                "0x00"
            ],
            "data": [
                "0x"
            ],
            "sender": "0xa94f5374fce5edbc8e2a8697c15331677e6ebf0b",
            "secretKey": "0x45a915e4d060149eb4365960e6a7a45f334393093061116b197e3240065ff2d8"
        },
        "post": {
            "Homestead": [
                {
                    "hash": "0x13e22302a048cb785ea61a0b7e708d3e780d39b33855911852b46d3ff1e37937",
                    "logs": "0x1dcc4de8dec75d7aab85b567b6ccd41ad312451b948a7413f0a142fd40d49347",
                    "txbytes": "0xf860800a8307a12094100000000000000000000000000000000000000080801ca091df80a63242846dcf1cc16c35e6ba39212cde92aad946f9c286fa0029782b54a0446170c2fb714c717885485ea7d93bf9277f3fb3d89ffd73e9b7f5f8eda3997b",
                    "indexes": {
                        "data": 0,
                        "gas": 0,
                        "value": 0
                    }
                }
            ]
        },
        "_info": {
            "hash": "0xb63b56075973b55aa0b1f7dd602a5c01e79e2b077e3c096e40c64de68ed9537e",
            "comment": "`execution-spec-tests` generated test",
            "filling-transition-tool": "evm version 1.13.14-stable"
        }
    },
    "tests/homestead/yul/test_yul_example.py::test_yul[fork_Byzantium-state_test]": {
        "env": {
            "currentCoinbase": "0x2adc25665018aa1fe0e6bc666dac8fc2697ff9ba",
            "currentGasLimit": "0x016345785d8a0000",
            "currentNumber": "0x01",
            "currentTimestamp": "0x03e8",
            "currentDifficulty": "0x020000"
        },
        "pre": {
            "0x1000000000000000000000000000000000000000": {
                "nonce": "0x00",
                "balance": "0x0ba1a9ce0ba1a9ce",
                "code": "0x6009600260016012565b60005560206000f35b019056",
                "storage": {}
            },
            "0xa94f5374fce5edbc8e2a8697c15331677e6ebf0b": {
                "nonce": "0x00",
                "balance": "0x0ba1a9ce0ba1a9ce",
                "code": "0x",
                "storage": {}
            }
        },
        "transaction": {
            "nonce": "0x00",
            "gasPrice": "0x0a",
            "gasLimit": [
                "0x07a120"
            ],
            "to": "0x1000000000000000000000000000000000000000",
            "value": [
                "0x00"
            ],
            "data": [
                "0x"
            ],
            "sender": "0xa94f5374fce5edbc8e2a8697c15331677e6ebf0b",
            "secretKey": "0x45a915e4d060149eb4365960e6a7a45f334393093061116b197e3240065ff2d8"
        },
        "post": {
            "Byzantium": [
                {
                    "hash": "0x7d54a014d632631467f05da09f6460a89a724476dd562909b099bc9af41559ba",
                    "logs": "0x1dcc4de8dec75d7aab85b567b6ccd41ad312451b948a7413f0a142fd40d49347",
                    "txbytes": "0xf860800a8307a120941000000000000000000000000000000000000000808025a0ece173d61bbf4c5032d3449f4f25dae2a537ff7c4ee7efa8e880ea06a7cb44c9a003c364834033b6c357805642a89eade50fcc75999b2255cc2300409c7b0e3bb6",
                    "indexes": {
                        "data": 0,
                        "gas": 0,
                        "value": 0
                    }
                }
            ]
        },
        "_info": {
            "hash": "0xb732e477cf26bfe542982198896492b3ab3b876704379c3947addb1aab867c70",
            "comment": "`execution-spec-tests` generated test",
            "filling-transition-tool": "evm version 1.13.14-stable"
        }
    },
    "tests/homestead/yul/test_yul_example.py::test_yul[fork_Constantinople-state_test]": {
        "env": {
            "currentCoinbase": "0x2adc25665018aa1fe0e6bc666dac8fc2697ff9ba",
            "currentGasLimit": "0x016345785d8a0000",
            "currentNumber": "0x01",
            "currentTimestamp": "0x03e8",
            "currentDifficulty": "0x020000"
        },
        "pre": {
            "0x1000000000000000000000000000000000000000": {
                "nonce": "0x00",
                "balance": "0x0ba1a9ce0ba1a9ce",
                "code": "0x6009600260016012565b60005560206000f35b019056",
                "storage": {}
            },
            "0xa94f5374fce5edbc8e2a8697c15331677e6ebf0b": {
                "nonce": "0x00",
                "balance": "0x0ba1a9ce0ba1a9ce",
                "code": "0x",
                "storage": {}
            }
        },
        "transaction": {
            "nonce": "0x00",
            "gasPrice": "0x0a",
            "gasLimit": [
                "0x07a120"
            ],
            "to": "0x1000000000000000000000000000000000000000",
            "value": [
                "0x00"
            ],
            "data": [
                "0x"
            ],
            "sender": "0xa94f5374fce5edbc8e2a8697c15331677e6ebf0b",
            "secretKey": "0x45a915e4d060149eb4365960e6a7a45f334393093061116b197e3240065ff2d8"
        },
        "post": {
            "Constantinople": [
                {
                    "hash": "0x7d54a014d632631467f05da09f6460a89a724476dd562909b099bc9af41559ba",
                    "logs": "0x1dcc4de8dec75d7aab85b567b6ccd41ad312451b948a7413f0a142fd40d49347",
                    "txbytes": "0xf860800a8307a120941000000000000000000000000000000000000000808025a0ece173d61bbf4c5032d3449f4f25dae2a537ff7c4ee7efa8e880ea06a7cb44c9a003c364834033b6c357805642a89eade50fcc75999b2255cc2300409c7b0e3bb6",
                    "indexes": {
                        "data": 0,
                        "gas": 0,
                        "value": 0
                    }
                }
            ]
        },
        "_info": {
            "hash": "0x746beed8c932ee24216421d521eda64fa8f717c6666ced681463b49db6341ccf",
            "comment": "`execution-spec-tests` generated test",
            "filling-transition-tool": "evm version 1.13.14-stable"
        }
    },
    "tests/homestead/yul/test_yul_example.py::test_yul[fork_ConstantinopleFix-state_test]": {
        "env": {
            "currentCoinbase": "0x2adc25665018aa1fe0e6bc666dac8fc2697ff9ba",
            "currentGasLimit": "0x016345785d8a0000",
            "currentNumber": "0x01",
            "currentTimestamp": "0x03e8",
            "currentDifficulty": "0x020000"
        },
        "pre": {
            "0x1000000000000000000000000000000000000000": {
                "nonce": "0x00",
                "balance": "0x0ba1a9ce0ba1a9ce",
                "code": "0x6009600260016012565b60005560206000f35b019056",
                "storage": {}
            },
            "0xa94f5374fce5edbc8e2a8697c15331677e6ebf0b": {
                "nonce": "0x00",
                "balance": "0x0ba1a9ce0ba1a9ce",
                "code": "0x",
                "storage": {}
            }
        },
        "transaction": {
            "nonce": "0x00",
            "gasPrice": "0x0a",
            "gasLimit": [
                "0x07a120"
            ],
            "to": "0x1000000000000000000000000000000000000000",
            "value": [
                "0x00"
            ],
            "data": [
                "0x"
            ],
            "sender": "0xa94f5374fce5edbc8e2a8697c15331677e6ebf0b",
            "secretKey": "0x45a915e4d060149eb4365960e6a7a45f334393093061116b197e3240065ff2d8"
        },
        "post": {
            "ConstantinopleFix": [
                {
                    "hash": "0x7d54a014d632631467f05da09f6460a89a724476dd562909b099bc9af41559ba",
                    "logs": "0x1dcc4de8dec75d7aab85b567b6ccd41ad312451b948a7413f0a142fd40d49347",
                    "txbytes": "0xf860800a8307a120941000000000000000000000000000000000000000808025a0ece173d61bbf4c5032d3449f4f25dae2a537ff7c4ee7efa8e880ea06a7cb44c9a003c364834033b6c357805642a89eade50fcc75999b2255cc2300409c7b0e3bb6",
                    "indexes": {
                        "data": 0,
                        "gas": 0,
                        "value": 0
                    }
                }
            ]
        },
        "_info": {
            "hash": "0xa75fb4cfd5f5cbab5fc7dbaa2d25536902d97409407d5c9ef62a002cebd06ddf",
            "comment": "`execution-spec-tests` generated test",
            "filling-transition-tool": "evm version 1.13.14-stable"
        }
    },
    "tests/homestead/yul/test_yul_example.py::test_yul[fork_Istanbul-state_test]": {
        "env": {
            "currentCoinbase": "0x2adc25665018aa1fe0e6bc666dac8fc2697ff9ba",
            "currentGasLimit": "0x016345785d8a0000",
            "currentNumber": "0x01",
            "currentTimestamp": "0x03e8",
            "currentDifficulty": "0x020000"
        },
        "pre": {
            "0x1000000000000000000000000000000000000000": {
                "nonce": "0x00",
                "balance": "0x0ba1a9ce0ba1a9ce",
                "code": "0x6009600260016012565b60005560206000f35b019056",
                "storage": {}
            },
            "0xa94f5374fce5edbc8e2a8697c15331677e6ebf0b": {
                "nonce": "0x00",
                "balance": "0x0ba1a9ce0ba1a9ce",
                "code": "0x",
                "storage": {}
            }
        },
        "transaction": {
            "nonce": "0x00",
            "gasPrice": "0x0a",
            "gasLimit": [
                "0x07a120"
            ],
            "to": "0x1000000000000000000000000000000000000000",
            "value": [
                "0x00"
            ],
            "data": [
                "0x"
            ],
            "sender": "0xa94f5374fce5edbc8e2a8697c15331677e6ebf0b",
            "secretKey": "0x45a915e4d060149eb4365960e6a7a45f334393093061116b197e3240065ff2d8"
        },
        "post": {
            "Istanbul": [
                {
                    "hash": "0x7d54a014d632631467f05da09f6460a89a724476dd562909b099bc9af41559ba",
                    "logs": "0x1dcc4de8dec75d7aab85b567b6ccd41ad312451b948a7413f0a142fd40d49347",
                    "txbytes": "0xf860800a8307a120941000000000000000000000000000000000000000808025a0ece173d61bbf4c5032d3449f4f25dae2a537ff7c4ee7efa8e880ea06a7cb44c9a003c364834033b6c357805642a89eade50fcc75999b2255cc2300409c7b0e3bb6",
                    "indexes": {
                        "data": 0,
                        "gas": 0,
                        "value": 0
                    }
                }
            ]
        },
        "_info": {
            "hash": "0x62aaac9e99c6960c965b89ea144329aa5535750d9212bfcaefebc97df943c06a",
            "comment": "`execution-spec-tests` generated test",
            "filling-transition-tool": "evm version 1.13.14-stable"
        }
    },
    "tests/homestead/yul/test_yul_example.py::test_yul[fork_Berlin-state_test]": {
        "env": {
            "currentCoinbase": "0x2adc25665018aa1fe0e6bc666dac8fc2697ff9ba",
            "currentGasLimit": "0x016345785d8a0000",
            "currentNumber": "0x01",
            "currentTimestamp": "0x03e8",
            "currentDifficulty": "0x020000"
        },
        "pre": {
            "0x1000000000000000000000000000000000000000": {
                "nonce": "0x00",
                "balance": "0x0ba1a9ce0ba1a9ce",
                "code": "0x6009600260016012565b60005560206000f35b019056",
                "storage": {}
            },
            "0xa94f5374fce5edbc8e2a8697c15331677e6ebf0b": {
                "nonce": "0x00",
                "balance": "0x0ba1a9ce0ba1a9ce",
                "code": "0x",
                "storage": {}
            }
        },
        "transaction": {
            "nonce": "0x00",
            "gasPrice": "0x0a",
            "gasLimit": [
                "0x07a120"
            ],
            "to": "0x1000000000000000000000000000000000000000",
            "value": [
                "0x00"
            ],
            "data": [
                "0x"
            ],
            "sender": "0xa94f5374fce5edbc8e2a8697c15331677e6ebf0b",
            "secretKey": "0x45a915e4d060149eb4365960e6a7a45f334393093061116b197e3240065ff2d8"
        },
        "post": {
            "Berlin": [
                {
                    "hash": "0x6763fbcb0ba7a3a5fee30365e0996621e4003b119a121a9fdc12473155737144",
                    "logs": "0x1dcc4de8dec75d7aab85b567b6ccd41ad312451b948a7413f0a142fd40d49347",
                    "txbytes": "0xf860800a8307a120941000000000000000000000000000000000000000808025a0ece173d61bbf4c5032d3449f4f25dae2a537ff7c4ee7efa8e880ea06a7cb44c9a003c364834033b6c357805642a89eade50fcc75999b2255cc2300409c7b0e3bb6",
                    "indexes": {
                        "data": 0,
                        "gas": 0,
                        "value": 0
                    }
                }
            ]
        },
        "_info": {
            "hash": "0xc3a659a5a8ed576a922a41e9632463decac229dc10584f662c33694e722368d2",
            "comment": "`execution-spec-tests` generated test",
            "filling-transition-tool": "evm version 1.13.14-stable"
        }
    },
    "tests/homestead/yul/test_yul_example.py::test_yul[fork_London-state_test]": {
        "env": {
            "currentCoinbase": "0x2adc25665018aa1fe0e6bc666dac8fc2697ff9ba",
            "currentGasLimit": "0x016345785d8a0000",
            "currentNumber": "0x01",
            "currentTimestamp": "0x03e8",
            "currentDifficulty": "0x020000",
            "currentBaseFee": "0x07"
        },
        "pre": {
            "0x1000000000000000000000000000000000000000": {
                "nonce": "0x00",
                "balance": "0x0ba1a9ce0ba1a9ce",
                "code": "0x6009600260016012565b60005560206000f35b019056",
                "storage": {}
            },
            "0xa94f5374fce5edbc8e2a8697c15331677e6ebf0b": {
                "nonce": "0x00",
                "balance": "0x0ba1a9ce0ba1a9ce",
                "code": "0x",
                "storage": {}
            }
        },
        "transaction": {
            "nonce": "0x00",
            "gasPrice": "0x0a",
            "gasLimit": [
                "0x07a120"
            ],
            "to": "0x1000000000000000000000000000000000000000",
            "value": [
                "0x00"
            ],
            "data": [
                "0x"
            ],
            "sender": "0xa94f5374fce5edbc8e2a8697c15331677e6ebf0b",
            "secretKey": "0x45a915e4d060149eb4365960e6a7a45f334393093061116b197e3240065ff2d8"
        },
        "post": {
            "London": [
                {
                    "hash": "0x524dce33e406a01e48790f0fee7e47e544ed95c74127f12ed6f79a01de8dbf08",
                    "logs": "0x1dcc4de8dec75d7aab85b567b6ccd41ad312451b948a7413f0a142fd40d49347",
                    "txbytes": "0xf860800a8307a120941000000000000000000000000000000000000000808025a0ece173d61bbf4c5032d3449f4f25dae2a537ff7c4ee7efa8e880ea06a7cb44c9a003c364834033b6c357805642a89eade50fcc75999b2255cc2300409c7b0e3bb6",
                    "indexes": {
                        "data": 0,
                        "gas": 0,
                        "value": 0
                    }
                }
            ]
        },
        "_info": {
            "hash": "0xcdb8e14ff2cd53e08d299316f108d30f1fb91b2492e5458f3bef97f2c184ea03",
            "comment": "`execution-spec-tests` generated test",
            "filling-transition-tool": "evm version 1.13.14-stable"
        }
    },
    "tests/homestead/yul/test_yul_example.py::test_yul[fork_Paris-state_test]": {
        "env": {
            "currentCoinbase": "0x2adc25665018aa1fe0e6bc666dac8fc2697ff9ba",
            "currentGasLimit": "0x016345785d8a0000",
            "currentNumber": "0x01",
            "currentTimestamp": "0x03e8",
            "currentRandom": "0x0000000000000000000000000000000000000000000000000000000000000000",
            "currentDifficulty": "0x00",
            "currentBaseFee": "0x07"
        },
        "pre": {
            "0x1000000000000000000000000000000000000000": {
                "nonce": "0x00",
                "balance": "0x0ba1a9ce0ba1a9ce",
                "code": "0x6009600260016012565b60005560206000f35b019056",
                "storage": {}
            },
            "0xa94f5374fce5edbc8e2a8697c15331677e6ebf0b": {
                "nonce": "0x00",
                "balance": "0x0ba1a9ce0ba1a9ce",
                "code": "0x",
                "storage": {}
            }
        },
        "transaction": {
            "nonce": "0x00",
            "gasPrice": "0x0a",
            "gasLimit": [
                "0x07a120"
            ],
            "to": "0x1000000000000000000000000000000000000000",
            "value": [
                "0x00"
            ],
            "data": [
                "0x"
            ],
            "sender": "0xa94f5374fce5edbc8e2a8697c15331677e6ebf0b",
            "secretKey": "0x45a915e4d060149eb4365960e6a7a45f334393093061116b197e3240065ff2d8"
        },
        "post": {
            "Paris": [
                {
                    "hash": "0x524dce33e406a01e48790f0fee7e47e544ed95c74127f12ed6f79a01de8dbf08",
                    "logs": "0x1dcc4de8dec75d7aab85b567b6ccd41ad312451b948a7413f0a142fd40d49347",
                    "txbytes": "0xf860800a8307a120941000000000000000000000000000000000000000808025a0ece173d61bbf4c5032d3449f4f25dae2a537ff7c4ee7efa8e880ea06a7cb44c9a003c364834033b6c357805642a89eade50fcc75999b2255cc2300409c7b0e3bb6",
                    "indexes": {
                        "data": 0,
                        "gas": 0,
                        "value": 0
                    }
                }
            ]
        },
        "_info": {
            "hash": "0x20e5d5fb80e267867f5cbcbb4c55cc205508ef985ec115a7ea7e5b47f319ac1b",
            "comment": "`execution-spec-tests` generated test",
            "filling-transition-tool": "evm version 1.13.14-stable"
        }
    },
    "tests/homestead/yul/test_yul_example.py::test_yul[fork_Shanghai-state_test]": {
        "env": {
            "currentCoinbase": "0x2adc25665018aa1fe0e6bc666dac8fc2697ff9ba",
            "currentGasLimit": "0x016345785d8a0000",
            "currentNumber": "0x01",
            "currentTimestamp": "0x03e8",
            "currentRandom": "0x0000000000000000000000000000000000000000000000000000000000000000",
            "currentDifficulty": "0x00",
            "currentBaseFee": "0x07"
        },
        "pre": {
            "0x1000000000000000000000000000000000000000": {
                "nonce": "0x00",
                "balance": "0x0ba1a9ce0ba1a9ce",
                "code": "0x6009600260016010565b5f5560205ff35b019056",
                "storage": {}
            },
            "0xa94f5374fce5edbc8e2a8697c15331677e6ebf0b": {
                "nonce": "0x00",
                "balance": "0x0ba1a9ce0ba1a9ce",
                "code": "0x",
                "storage": {}
            }
        },
        "transaction": {
            "nonce": "0x00",
            "gasPrice": "0x0a",
            "gasLimit": [
                "0x07a120"
            ],
            "to": "0x1000000000000000000000000000000000000000",
            "value": [
                "0x00"
            ],
            "data": [
                "0x"
            ],
            "sender": "0xa94f5374fce5edbc8e2a8697c15331677e6ebf0b",
            "secretKey": "0x45a915e4d060149eb4365960e6a7a45f334393093061116b197e3240065ff2d8"
        },
        "post": {
            "Shanghai": [
                {
                    "hash": "0x6495117efea530548b67d49605efcbd28a332ebb28290dc0109751c704e7d95c",
                    "logs": "0x1dcc4de8dec75d7aab85b567b6ccd41ad312451b948a7413f0a142fd40d49347",
                    "txbytes": "0xf860800a8307a120941000000000000000000000000000000000000000808025a0ece173d61bbf4c5032d3449f4f25dae2a537ff7c4ee7efa8e880ea06a7cb44c9a003c364834033b6c357805642a89eade50fcc75999b2255cc2300409c7b0e3bb6",
                    "indexes": {
                        "data": 0,
                        "gas": 0,
                        "value": 0
                    }
                }
            ]
        },
        "_info": {
            "hash": "0xe9608614447d0087b8279294914b08736d7755ae99bcf8377139306e3678f850",
            "comment": "`execution-spec-tests` generated test",
            "filling-transition-tool": "evm version 1.13.14-stable"
        }
    },
    "tests/homestead/yul/test_yul_example.py::test_yul[fork_Cancun-state_test]": {
        "env": {
            "currentCoinbase": "0x2adc25665018aa1fe0e6bc666dac8fc2697ff9ba",
            "currentGasLimit": "0x016345785d8a0000",
            "currentNumber": "0x01",
            "currentTimestamp": "0x03e8",
            "currentRandom": "0x0000000000000000000000000000000000000000000000000000000000000000",
            "currentDifficulty": "0x00",
            "currentBaseFee": "0x07",
            "currentExcessBlobGas": "0x00"
        },
        "pre": {
            "0x1000000000000000000000000000000000000000": {
                "nonce": "0x00",
                "balance": "0x0ba1a9ce0ba1a9ce",
                "code": "0x6009600260016010565b5f5560205ff35b019056",
                "storage": {}
            },
            "0xa94f5374fce5edbc8e2a8697c15331677e6ebf0b": {
                "nonce": "0x00",
                "balance": "0x0ba1a9ce0ba1a9ce",
                "code": "0x",
                "storage": {}
            }
        },
        "transaction": {
            "nonce": "0x00",
            "gasPrice": "0x0a",
            "gasLimit": [
                "0x07a120"
            ],
            "to": "0x1000000000000000000000000000000000000000",
            "value": [
                "0x00"
            ],
            "data": [
                "0x"
            ],
            "sender": "0xa94f5374fce5edbc8e2a8697c15331677e6ebf0b",
            "secretKey": "0x45a915e4d060149eb4365960e6a7a45f334393093061116b197e3240065ff2d8"
        },
        "post": {
            "Cancun": [
                {
                    "hash": "0x6495117efea530548b67d49605efcbd28a332ebb28290dc0109751c704e7d95c",
                    "logs": "0x1dcc4de8dec75d7aab85b567b6ccd41ad312451b948a7413f0a142fd40d49347",
                    "txbytes": "0xf860800a8307a120941000000000000000000000000000000000000000808025a0ece173d61bbf4c5032d3449f4f25dae2a537ff7c4ee7efa8e880ea06a7cb44c9a003c364834033b6c357805642a89eade50fcc75999b2255cc2300409c7b0e3bb6",
                    "indexes": {
                        "data": 0,
                        "gas": 0,
                        "value": 0
                    }
                }
            ]
        },
        "_info": {
            "hash": "0xea8f860c316ad70ff0544668096491d6d98b9cd77919a25b5a18263ecd75c84c",
            "comment": "`execution-spec-tests` generated test",
            "filling-transition-tool": "evm version 1.13.14-stable"
        }
    }
}