{
    "src/GeneralStateTestsFiller/Pyspecs/cancun/eip5656_mcopy/test_mcopy_contexts.py::test_no_memory_corruption_on_upper_call_stack_levels[fork_Cancun-call_opcode_CALL-evm_code_type_LEGACY-state_test]" : {
        "_info" : {
            "comment" : "`execution-spec-tests` generated test",
            "description" : "Test function documentation:\n\n    Perform a subcall with any of the following opcodes, which uses MCOPY during its execution,\n    and verify that the caller's memory is unaffected",
            "filling-rpc-server" : "evm version 1.14.12-unstable-65e5ca7d-20241004",
            "filling-tool-version" : "retesteth-0.3.2-legacy+commit.be61b546.Linux.g++",
            "filling-transition-tool" : "evm version 1.14.12-unstable-65e5ca7d-20241004",
            "generatedTestHash" : "80c234e7031959d042459d1ff7a22bf24183574f738d4704b7e30737520fa6be",
            "hash" : "0x7e0cfc7dfd67bd3b1671cde2f56e1c1db0805d3d24605408f3d4261d60bd7232",
            "lllcversion" : "Version: 0.5.14-develop.2024.11.5+commit.b2b86751.mod.Linux.g++",
            "solidity" : "Version: 0.8.24+commit.e11b9ed9.Linux.g++",
            "source" : "src/GeneralStateTestsFiller/Pyspecs/cancun/eip5656_mcopy/test_mcopy_contexts.py",
            "sourceHash" : "7dee106f99b30e1f1f15ec6352108fa7c70cca69b0b997b88fc1cd6992957031",
            "url" : "https://github.com/ethereum/execution-spec-tests/blob/f89d09ba99a3dc680dd9410f0b8a7f8d8fc36714/tests/tmp/tmptest_f13146c0_1642_4633_9b68_0b49237fcced/test_mcopy_contexts.py#L157"
        },
        "env" : {
            "currentBaseFee" : "0x07",
            "currentCoinbase" : "0x2adc25665018aa1fe0e6bc666dac8fc2697ff9ba",
            "currentDifficulty" : "0x00",
            "currentExcessBlobGas" : "0x00",
            "currentGasLimit" : "0x016345785d8a0000",
            "currentNumber" : "0x01",
            "currentRandom" : "0x0000000000000000000000000000000000000000000000000000000000000000",
            "currentTimestamp" : "0x03e8"
        },
        "post" : {
            "Cancun" : [
                {
                    "hash" : "0xa6d62273b6647b263296b791464646175b3b4c4d92dfd01a102cc687dd95ace9",
                    "indexes" : {
                        "data" : 0,
                        "gas" : 0,
                        "value" : 0
                    },
                    "logs" : "0x1dcc4de8dec75d7aab85b567b6ccd41ad312451b948a7413f0a142fd40d49347",
                    "txbytes" : "0xf860800a830f4240940000000000000000000000000000000000001100808025a0ae470d7da8404176546d3a7697b2e3ae957efde6c03d33075dcf9c70bd5f6685a038c93673ba928426221e7e315a75dd0be0e2ea74b5a0a91d7482dbfdb339b362"
                }
            ]
        },
        "pre" : {
            "0x0000000000000000000000000000000000001000" : {
                "balance" : "0x00",
                "code" : "0x6001600160005e6001600060015e6020600060015e61040061040060005e600161080060005e600160006108005e600162030d405560006000f3",
                "nonce" : "0x01",
                "storage" : {
                }
            },
            "0x0000000000000000000000000000000000001100" : {
                "balance" : "0x00",
                "code" : "0x7f0102030405060708090a0b0c0d0e0f101112131415161718191a1b1c1d1e1f206000527f2122232425262728292a2b2c2d2e2f303132333435363738393a3b3c3d3e3f406020527f4142434445464748494a4b4c4d4e4f505152535455565758595a5b5c5d5e5f606040527f6162636465666768696a6b6c6d6e6f707172737475767778797a7b7c7d7e7f806060527f8182838485868788898a8b8c8d8e8f909192939495969798999a9b9c9d9e9fa06080527fa1a2a3a4a5a6a7a8a9aaabacadaeafb0b1b2b3b4b5b6b7b8b9babbbcbdbebfc060a0527fc1c2c3c4c5c6c7c8c9cacbcccdcecfd0d1d2d3d4d5d6d7d8d9dadbdcdddedfe060c0527fe1e2e3e4e5e6e7e8e9eaebecedeeeff0f1f2f3f4f5f6f7f8f9fafbfcfdfeff0160e0527f02030405060708090a0b0c0d0e0f101112131415161718191a1b1c1d1e1f2021610100527f22232425262728292a2b2c2d2e2f303132333435363738393a3b3c3d3e3f4041610120527f42434445464748494a4b4c4d4e4f505152535455565758595a5b5c5d5e5f6061610140527f62636465666768696a6b6c6d6e6f707172737475767778797a7b7c7d7e7f8081610160527f82838485868788898a8b8c8d8e8f909192939495969798999a9b9c9d9e9fa0a1610180527fa2a3a4a5a6a7a8a9aaabacadaeafb0b1b2b3b4b5b6b7b8b9babbbcbdbebfc0c16101a0527fc2c3c4c5c6c7c8c9cacbcccdcecfd0d1d2d3d4d5d6d7d8d9dadbdcdddedfe0e16101c0527fe2e3e4e5e6e7e8e9eaebecedeeeff0f1f2f3f4f5f6f7f8f9fafbfcfdfeff01026101e0527f030405060708090a0b0c0d0e0f101112131415161718191a1b1c1d1e1f202122610200527f232425262728292a2b2c2d2e2f303132333435363738393a3b3c3d3e3f404142610220527f434445464748494a4b4c4d4e4f505152535455565758595a5b5c5d5e5f606162610240527f636465666768696a6b6c6d6e6f707172737475767778797a7b7c7d7e7f808182610260527f838485868788898a8b8c8d8e8f909192939495969798999a9b9c9d9e9fa0a1a2610280527fa3a4a5a6a7a8a9aaabacadaeafb0b1b2b3b4b5b6b7b8b9babbbcbdbebfc0c1c26102a0527fc3c4c5c6c7c8c9cacbcccdcecfd0d1d2d3d4d5d6d7d8d9dadbdcdddedfe0e1e26102c0527fe3e4e5e6e7e8e9eaebecedeeeff0f1f2f3f4f5f6f7f8f9fafbfcfdfeff0102036102e0527f0405060708090a0b0c0d0e0f101112131415161718191a1b1c1d1e1f20212223610300527f2425262728292a2b2c2d2e2f303132333435363738393a3b3c3d3e3f40414243610320527f4445464748494a4b4c4d4e4f505152535455565758595a5b5c5d5e5f60616263610340527f6465666768696a6b6c6d6e6f707172737475767778797a7b7c7d7e7f80818283610360527f8485868788898a8b8c8d8e8f909192939495969798999a9b9c9d9e9fa0a1a2a3610380527fa4a5a6a7a8a9aaabacadaeafb0b1b2b3b4b5b6b7b8b9babbbcbdbebfc0c1c2c36103a0527fc4c5c6c7c8c9cacbcccdcecfd0d1d2d3d4d5d6d7d8d9dadbdcdddedfe0e1e2e36103c0527fe4e5e6e7e8e9eaebecedeeeff0f1f2f3f4f5f6f7f8f9fafbfcfdfeff010203046103e052600060006000600060006110005af159620186a05560005160005560205160015560405160025560605160035560805160045560a05160055560c05160065560e051600755610100516008556101205160095561014051600a5561016051600b5561018051600c556101a051600d556101c051600e556101e051600f5561020051601055610220516011556102405160125561026051601355610280516014556102a0516015556102c0516016556102e051601755610300516018556103205160195561034051601a5561036051601b5561038051601c556103a051601d556103c051601e556103e051601f55",
                "nonce" : "0x01",
                "storage" : {
                }
            },
            "0xa94f5374fce5edbc8e2a8697c15331677e6ebf0b" : {
                "balance" : "0x3635c9adc5dea00000",
                "code" : "0x",
                "nonce" : "0x00",
                "storage" : {
                }
            }
        },
        "transaction" : {
            "data" : [
                "0x"
            ],
            "gasLimit" : [
                "0x0f4240"
            ],
            "gasPrice" : "0x0a",
            "nonce" : "0x00",
            "secretKey" : "0x45a915e4d060149eb4365960e6a7a45f334393093061116b197e3240065ff2d8",
            "sender" : "0xa94f5374fce5edbc8e2a8697c15331677e6ebf0b",
            "to" : "0x0000000000000000000000000000000000001100",
            "value" : [
                "0x00"
            ]
        }
    },
    "src/GeneralStateTestsFiller/Pyspecs/cancun/eip5656_mcopy/test_mcopy_contexts.py::test_no_memory_corruption_on_upper_call_stack_levels[fork_Cancun-call_opcode_CALLCODE-evm_code_type_LEGACY-state_test]" : {
        "_info" : {
            "comment" : "`execution-spec-tests` generated test",
            "description" : "Test function documentation:\n\n    Perform a subcall with any of the following opcodes, which uses MCOPY during its execution,\n    and verify that the caller's memory is unaffected",
            "filling-rpc-server" : "evm version 1.14.12-unstable-65e5ca7d-20241004",
            "filling-tool-version" : "retesteth-0.3.2-legacy+commit.be61b546.Linux.g++",
            "filling-transition-tool" : "evm version 1.14.12-unstable-65e5ca7d-20241004",
            "generatedTestHash" : "7d29dc27e598bd60a87f6952224623d79b0d24674772c4dcb5de42c019156e27",
            "hash" : "0x51e8a6eb3444b3b06e70927bcc680cc723b43f12260df396e4a7badf09a52cc2",
            "lllcversion" : "Version: 0.5.14-develop.2024.11.5+commit.b2b86751.mod.Linux.g++",
            "solidity" : "Version: 0.8.24+commit.e11b9ed9.Linux.g++",
            "source" : "src/GeneralStateTestsFiller/Pyspecs/cancun/eip5656_mcopy/test_mcopy_contexts.py",
            "sourceHash" : "7dee106f99b30e1f1f15ec6352108fa7c70cca69b0b997b88fc1cd6992957031",
            "url" : "https://github.com/ethereum/execution-spec-tests/blob/f89d09ba99a3dc680dd9410f0b8a7f8d8fc36714/tests/tmp/tmptest_f13146c0_1642_4633_9b68_0b49237fcced/test_mcopy_contexts.py#L157"
        },
        "env" : {
            "currentBaseFee" : "0x07",
            "currentCoinbase" : "0x2adc25665018aa1fe0e6bc666dac8fc2697ff9ba",
            "currentDifficulty" : "0x00",
            "currentExcessBlobGas" : "0x00",
            "currentGasLimit" : "0x016345785d8a0000",
            "currentNumber" : "0x01",
            "currentRandom" : "0x0000000000000000000000000000000000000000000000000000000000000000",
            "currentTimestamp" : "0x03e8"
        },
        "post" : {
            "Cancun" : [
                {
                    "hash" : "0xe164170b437df702ecd754cd234049bb4092c454794e74ee7ea074bf7a1ce7f8",
                    "indexes" : {
                        "data" : 0,
                        "gas" : 0,
                        "value" : 0
                    },
                    "logs" : "0x1dcc4de8dec75d7aab85b567b6ccd41ad312451b948a7413f0a142fd40d49347",
                    "txbytes" : "0xf860800a830f4240940000000000000000000000000000000000001100808025a0ae470d7da8404176546d3a7697b2e3ae957efde6c03d33075dcf9c70bd5f6685a038c93673ba928426221e7e315a75dd0be0e2ea74b5a0a91d7482dbfdb339b362"
                }
            ]
        },
        "pre" : {
            "0x0000000000000000000000000000000000001000" : {
                "balance" : "0x00",
                "code" : "0x6001600160005e6001600060015e6020600060015e61040061040060005e600161080060005e600160006108005e600162030d405560006000f3",
                "nonce" : "0x01",
                "storage" : {
                }
            },
            "0x0000000000000000000000000000000000001100" : {
                "balance" : "0x00",
                "code" : "0x7f0102030405060708090a0b0c0d0e0f101112131415161718191a1b1c1d1e1f206000527f2122232425262728292a2b2c2d2e2f303132333435363738393a3b3c3d3e3f406020527f4142434445464748494a4b4c4d4e4f505152535455565758595a5b5c5d5e5f606040527f6162636465666768696a6b6c6d6e6f707172737475767778797a7b7c7d7e7f806060527f8182838485868788898a8b8c8d8e8f909192939495969798999a9b9c9d9e9fa06080527fa1a2a3a4a5a6a7a8a9aaabacadaeafb0b1b2b3b4b5b6b7b8b9babbbcbdbebfc060a0527fc1c2c3c4c5c6c7c8c9cacbcccdcecfd0d1d2d3d4d5d6d7d8d9dadbdcdddedfe060c0527fe1e2e3e4e5e6e7e8e9eaebecedeeeff0f1f2f3f4f5f6f7f8f9fafbfcfdfeff0160e0527f02030405060708090a0b0c0d0e0f101112131415161718191a1b1c1d1e1f2021610100527f22232425262728292a2b2c2d2e2f303132333435363738393a3b3c3d3e3f4041610120527f42434445464748494a4b4c4d4e4f505152535455565758595a5b5c5d5e5f6061610140527f62636465666768696a6b6c6d6e6f707172737475767778797a7b7c7d7e7f8081610160527f82838485868788898a8b8c8d8e8f909192939495969798999a9b9c9d9e9fa0a1610180527fa2a3a4a5a6a7a8a9aaabacadaeafb0b1b2b3b4b5b6b7b8b9babbbcbdbebfc0c16101a0527fc2c3c4c5c6c7c8c9cacbcccdcecfd0d1d2d3d4d5d6d7d8d9dadbdcdddedfe0e16101c0527fe2e3e4e5e6e7e8e9eaebecedeeeff0f1f2f3f4f5f6f7f8f9fafbfcfdfeff01026101e0527f030405060708090a0b0c0d0e0f101112131415161718191a1b1c1d1e1f202122610200527f232425262728292a2b2c2d2e2f303132333435363738393a3b3c3d3e3f404142610220527f434445464748494a4b4c4d4e4f505152535455565758595a5b5c5d5e5f606162610240527f636465666768696a6b6c6d6e6f707172737475767778797a7b7c7d7e7f808182610260527f838485868788898a8b8c8d8e8f909192939495969798999a9b9c9d9e9fa0a1a2610280527fa3a4a5a6a7a8a9aaabacadaeafb0b1b2b3b4b5b6b7b8b9babbbcbdbebfc0c1c26102a0527fc3c4c5c6c7c8c9cacbcccdcecfd0d1d2d3d4d5d6d7d8d9dadbdcdddedfe0e1e26102c0527fe3e4e5e6e7e8e9eaebecedeeeff0f1f2f3f4f5f6f7f8f9fafbfcfdfeff0102036102e0527f0405060708090a0b0c0d0e0f101112131415161718191a1b1c1d1e1f20212223610300527f2425262728292a2b2c2d2e2f303132333435363738393a3b3c3d3e3f40414243610320527f4445464748494a4b4c4d4e4f505152535455565758595a5b5c5d5e5f60616263610340527f6465666768696a6b6c6d6e6f707172737475767778797a7b7c7d7e7f80818283610360527f8485868788898a8b8c8d8e8f909192939495969798999a9b9c9d9e9fa0a1a2a3610380527fa4a5a6a7a8a9aaabacadaeafb0b1b2b3b4b5b6b7b8b9babbbcbdbebfc0c1c2c36103a0527fc4c5c6c7c8c9cacbcccdcecfd0d1d2d3d4d5d6d7d8d9dadbdcdddedfe0e1e2e36103c0527fe4e5e6e7e8e9eaebecedeeeff0f1f2f3f4f5f6f7f8f9fafbfcfdfeff010203046103e052600060006000600060006110005af259620186a05560005160005560205160015560405160025560605160035560805160045560a05160055560c05160065560e051600755610100516008556101205160095561014051600a5561016051600b5561018051600c556101a051600d556101c051600e556101e051600f5561020051601055610220516011556102405160125561026051601355610280516014556102a0516015556102c0516016556102e051601755610300516018556103205160195561034051601a5561036051601b5561038051601c556103a051601d556103c051601e556103e051601f55",
                "nonce" : "0x01",
                "storage" : {
                }
            },
            "0xa94f5374fce5edbc8e2a8697c15331677e6ebf0b" : {
                "balance" : "0x3635c9adc5dea00000",
                "code" : "0x",
                "nonce" : "0x00",
                "storage" : {
                }
            }
        },
        "transaction" : {
            "data" : [
                "0x"
            ],
            "gasLimit" : [
                "0x0f4240"
            ],
            "gasPrice" : "0x0a",
            "nonce" : "0x00",
            "secretKey" : "0x45a915e4d060149eb4365960e6a7a45f334393093061116b197e3240065ff2d8",
            "sender" : "0xa94f5374fce5edbc8e2a8697c15331677e6ebf0b",
            "to" : "0x0000000000000000000000000000000000001100",
            "value" : [
                "0x00"
            ]
        }
    },
    "src/GeneralStateTestsFiller/Pyspecs/cancun/eip5656_mcopy/test_mcopy_contexts.py::test_no_memory_corruption_on_upper_call_stack_levels[fork_Cancun-call_opcode_DELEGATECALL-evm_code_type_LEGACY-state_test]" : {
        "_info" : {
            "comment" : "`execution-spec-tests` generated test",
            "description" : "Test function documentation:\n\n    Perform a subcall with any of the following opcodes, which uses MCOPY during its execution,\n    and verify that the caller's memory is unaffected",
            "filling-rpc-server" : "evm version 1.14.12-unstable-65e5ca7d-20241004",
            "filling-tool-version" : "retesteth-0.3.2-legacy+commit.be61b546.Linux.g++",
            "filling-transition-tool" : "evm version 1.14.12-unstable-65e5ca7d-20241004",
            "generatedTestHash" : "c7490d513f09456be9a22e769b57dc6f64ce7a02906a1127cfbf61c384f4477c",
            "hash" : "0xf7933e91eaae7751f40811d7cf4f0f153bf9560b94f4f5fc99434c7e579b5441",
            "lllcversion" : "Version: 0.5.14-develop.2024.11.5+commit.b2b86751.mod.Linux.g++",
            "solidity" : "Version: 0.8.24+commit.e11b9ed9.Linux.g++",
            "source" : "src/GeneralStateTestsFiller/Pyspecs/cancun/eip5656_mcopy/test_mcopy_contexts.py",
            "sourceHash" : "7dee106f99b30e1f1f15ec6352108fa7c70cca69b0b997b88fc1cd6992957031",
            "url" : "https://github.com/ethereum/execution-spec-tests/blob/f89d09ba99a3dc680dd9410f0b8a7f8d8fc36714/tests/tmp/tmptest_f13146c0_1642_4633_9b68_0b49237fcced/test_mcopy_contexts.py#L157"
        },
        "env" : {
            "currentBaseFee" : "0x07",
            "currentCoinbase" : "0x2adc25665018aa1fe0e6bc666dac8fc2697ff9ba",
            "currentDifficulty" : "0x00",
            "currentExcessBlobGas" : "0x00",
            "currentGasLimit" : "0x016345785d8a0000",
            "currentNumber" : "0x01",
            "currentRandom" : "0x0000000000000000000000000000000000000000000000000000000000000000",
            "currentTimestamp" : "0x03e8"
        },
        "post" : {
            "Cancun" : [
                {
                    "hash" : "0x1946a71bbd88cb1563bb78dad6a24a2211d3d8a811dd09631ff3887ab0071411",
                    "indexes" : {
                        "data" : 0,
                        "gas" : 0,
                        "value" : 0
                    },
                    "logs" : "0x1dcc4de8dec75d7aab85b567b6ccd41ad312451b948a7413f0a142fd40d49347",
                    "txbytes" : "0xf860800a830f4240940000000000000000000000000000000000001100808025a0ae470d7da8404176546d3a7697b2e3ae957efde6c03d33075dcf9c70bd5f6685a038c93673ba928426221e7e315a75dd0be0e2ea74b5a0a91d7482dbfdb339b362"
                }
            ]
        },
        "pre" : {
            "0x0000000000000000000000000000000000001000" : {
                "balance" : "0x00",
                "code" : "0x6001600160005e6001600060015e6020600060015e61040061040060005e600161080060005e600160006108005e600162030d405560006000f3",
                "nonce" : "0x01",
                "storage" : {
                }
            },
            "0x0000000000000000000000000000000000001100" : {
                "balance" : "0x00",
                "code" : "0x7f0102030405060708090a0b0c0d0e0f101112131415161718191a1b1c1d1e1f206000527f2122232425262728292a2b2c2d2e2f303132333435363738393a3b3c3d3e3f406020527f4142434445464748494a4b4c4d4e4f505152535455565758595a5b5c5d5e5f606040527f6162636465666768696a6b6c6d6e6f707172737475767778797a7b7c7d7e7f806060527f8182838485868788898a8b8c8d8e8f909192939495969798999a9b9c9d9e9fa06080527fa1a2a3a4a5a6a7a8a9aaabacadaeafb0b1b2b3b4b5b6b7b8b9babbbcbdbebfc060a0527fc1c2c3c4c5c6c7c8c9cacbcccdcecfd0d1d2d3d4d5d6d7d8d9dadbdcdddedfe060c0527fe1e2e3e4e5e6e7e8e9eaebecedeeeff0f1f2f3f4f5f6f7f8f9fafbfcfdfeff0160e0527f02030405060708090a0b0c0d0e0f101112131415161718191a1b1c1d1e1f2021610100527f22232425262728292a2b2c2d2e2f303132333435363738393a3b3c3d3e3f4041610120527f42434445464748494a4b4c4d4e4f505152535455565758595a5b5c5d5e5f6061610140527f62636465666768696a6b6c6d6e6f707172737475767778797a7b7c7d7e7f8081610160527f82838485868788898a8b8c8d8e8f909192939495969798999a9b9c9d9e9fa0a1610180527fa2a3a4a5a6a7a8a9aaabacadaeafb0b1b2b3b4b5b6b7b8b9babbbcbdbebfc0c16101a0527fc2c3c4c5c6c7c8c9cacbcccdcecfd0d1d2d3d4d5d6d7d8d9dadbdcdddedfe0e16101c0527fe2e3e4e5e6e7e8e9eaebecedeeeff0f1f2f3f4f5f6f7f8f9fafbfcfdfeff01026101e0527f030405060708090a0b0c0d0e0f101112131415161718191a1b1c1d1e1f202122610200527f232425262728292a2b2c2d2e2f303132333435363738393a3b3c3d3e3f404142610220527f434445464748494a4b4c4d4e4f505152535455565758595a5b5c5d5e5f606162610240527f636465666768696a6b6c6d6e6f707172737475767778797a7b7c7d7e7f808182610260527f838485868788898a8b8c8d8e8f909192939495969798999a9b9c9d9e9fa0a1a2610280527fa3a4a5a6a7a8a9aaabacadaeafb0b1b2b3b4b5b6b7b8b9babbbcbdbebfc0c1c26102a0527fc3c4c5c6c7c8c9cacbcccdcecfd0d1d2d3d4d5d6d7d8d9dadbdcdddedfe0e1e26102c0527fe3e4e5e6e7e8e9eaebecedeeeff0f1f2f3f4f5f6f7f8f9fafbfcfdfeff0102036102e0527f0405060708090a0b0c0d0e0f101112131415161718191a1b1c1d1e1f20212223610300527f2425262728292a2b2c2d2e2f303132333435363738393a3b3c3d3e3f40414243610320527f4445464748494a4b4c4d4e4f505152535455565758595a5b5c5d5e5f60616263610340527f6465666768696a6b6c6d6e6f707172737475767778797a7b7c7d7e7f80818283610360527f8485868788898a8b8c8d8e8f909192939495969798999a9b9c9d9e9fa0a1a2a3610380527fa4a5a6a7a8a9aaabacadaeafb0b1b2b3b4b5b6b7b8b9babbbcbdbebfc0c1c2c36103a0527fc4c5c6c7c8c9cacbcccdcecfd0d1d2d3d4d5d6d7d8d9dadbdcdddedfe0e1e2e36103c0527fe4e5e6e7e8e9eaebecedeeeff0f1f2f3f4f5f6f7f8f9fafbfcfdfeff010203046103e05260006000600060006110005af459620186a05560005160005560205160015560405160025560605160035560805160045560a05160055560c05160065560e051600755610100516008556101205160095561014051600a5561016051600b5561018051600c556101a051600d556101c051600e556101e051600f5561020051601055610220516011556102405160125561026051601355610280516014556102a0516015556102c0516016556102e051601755610300516018556103205160195561034051601a5561036051601b5561038051601c556103a051601d556103c051601e556103e051601f55",
                "nonce" : "0x01",
                "storage" : {
                }
            },
            "0xa94f5374fce5edbc8e2a8697c15331677e6ebf0b" : {
                "balance" : "0x3635c9adc5dea00000",
                "code" : "0x",
                "nonce" : "0x00",
                "storage" : {
                }
            }
        },
        "transaction" : {
            "data" : [
                "0x"
            ],
            "gasLimit" : [
                "0x0f4240"
            ],
            "gasPrice" : "0x0a",
            "nonce" : "0x00",
            "secretKey" : "0x45a915e4d060149eb4365960e6a7a45f334393093061116b197e3240065ff2d8",
            "sender" : "0xa94f5374fce5edbc8e2a8697c15331677e6ebf0b",
            "to" : "0x0000000000000000000000000000000000001100",
            "value" : [
                "0x00"
            ]
        }
    },
    "src/GeneralStateTestsFiller/Pyspecs/cancun/eip5656_mcopy/test_mcopy_contexts.py::test_no_memory_corruption_on_upper_call_stack_levels[fork_Cancun-call_opcode_STATICCALL-evm_code_type_LEGACY-state_test]" : {
        "_info" : {
            "comment" : "`execution-spec-tests` generated test",
            "description" : "Test function documentation:\n\n    Perform a subcall with any of the following opcodes, which uses MCOPY during its execution,\n    and verify that the caller's memory is unaffected",
            "filling-rpc-server" : "evm version 1.14.12-unstable-65e5ca7d-20241004",
            "filling-tool-version" : "retesteth-0.3.2-legacy+commit.be61b546.Linux.g++",
            "filling-transition-tool" : "evm version 1.14.12-unstable-65e5ca7d-20241004",
            "generatedTestHash" : "0bc23bd2e7e326a4e343dfdfe10ca85908bd2c4185156b1eac291cfca6e11d97",
            "hash" : "0x326d2cb8ac0839c2e5791954d49eb65f9ff8faee25371729dacc6586a63adcb5",
            "lllcversion" : "Version: 0.5.14-develop.2024.11.5+commit.b2b86751.mod.Linux.g++",
            "solidity" : "Version: 0.8.24+commit.e11b9ed9.Linux.g++",
            "source" : "src/GeneralStateTestsFiller/Pyspecs/cancun/eip5656_mcopy/test_mcopy_contexts.py",
            "sourceHash" : "7dee106f99b30e1f1f15ec6352108fa7c70cca69b0b997b88fc1cd6992957031",
            "url" : "https://github.com/ethereum/execution-spec-tests/blob/f89d09ba99a3dc680dd9410f0b8a7f8d8fc36714/tests/tmp/tmptest_f13146c0_1642_4633_9b68_0b49237fcced/test_mcopy_contexts.py#L157"
        },
        "env" : {
            "currentBaseFee" : "0x07",
            "currentCoinbase" : "0x2adc25665018aa1fe0e6bc666dac8fc2697ff9ba",
            "currentDifficulty" : "0x00",
            "currentExcessBlobGas" : "0x00",
            "currentGasLimit" : "0x016345785d8a0000",
            "currentNumber" : "0x01",
            "currentRandom" : "0x0000000000000000000000000000000000000000000000000000000000000000",
            "currentTimestamp" : "0x03e8"
        },
        "post" : {
            "Cancun" : [
                {
                    "hash" : "0x70a340f7ec85446fa1a0c913cdac0fc40db75d1168db9484af35ae3c1dfb8192",
                    "indexes" : {
                        "data" : 0,
                        "gas" : 0,
                        "value" : 0
                    },
                    "logs" : "0x1dcc4de8dec75d7aab85b567b6ccd41ad312451b948a7413f0a142fd40d49347",
                    "txbytes" : "0xf860800a830f4240940000000000000000000000000000000000001100808025a0ae470d7da8404176546d3a7697b2e3ae957efde6c03d33075dcf9c70bd5f6685a038c93673ba928426221e7e315a75dd0be0e2ea74b5a0a91d7482dbfdb339b362"
                }
            ]
        },
        "pre" : {
            "0x0000000000000000000000000000000000001000" : {
                "balance" : "0x00",
                "code" : "0x6001600160005e6001600060015e6020600060015e61040061040060005e600161080060005e600160006108005e60006000f3",
                "nonce" : "0x01",
                "storage" : {
                }
            },
            "0x0000000000000000000000000000000000001100" : {
                "balance" : "0x00",
                "code" : "0x7f0102030405060708090a0b0c0d0e0f101112131415161718191a1b1c1d1e1f206000527f2122232425262728292a2b2c2d2e2f303132333435363738393a3b3c3d3e3f406020527f4142434445464748494a4b4c4d4e4f505152535455565758595a5b5c5d5e5f606040527f6162636465666768696a6b6c6d6e6f707172737475767778797a7b7c7d7e7f806060527f8182838485868788898a8b8c8d8e8f909192939495969798999a9b9c9d9e9fa06080527fa1a2a3a4a5a6a7a8a9aaabacadaeafb0b1b2b3b4b5b6b7b8b9babbbcbdbebfc060a0527fc1c2c3c4c5c6c7c8c9cacbcccdcecfd0d1d2d3d4d5d6d7d8d9dadbdcdddedfe060c0527fe1e2e3e4e5e6e7e8e9eaebecedeeeff0f1f2f3f4f5f6f7f8f9fafbfcfdfeff0160e0527f02030405060708090a0b0c0d0e0f101112131415161718191a1b1c1d1e1f2021610100527f22232425262728292a2b2c2d2e2f303132333435363738393a3b3c3d3e3f4041610120527f42434445464748494a4b4c4d4e4f505152535455565758595a5b5c5d5e5f6061610140527f62636465666768696a6b6c6d6e6f707172737475767778797a7b7c7d7e7f8081610160527f82838485868788898a8b8c8d8e8f909192939495969798999a9b9c9d9e9fa0a1610180527fa2a3a4a5a6a7a8a9aaabacadaeafb0b1b2b3b4b5b6b7b8b9babbbcbdbebfc0c16101a0527fc2c3c4c5c6c7c8c9cacbcccdcecfd0d1d2d3d4d5d6d7d8d9dadbdcdddedfe0e16101c0527fe2e3e4e5e6e7e8e9eaebecedeeeff0f1f2f3f4f5f6f7f8f9fafbfcfdfeff01026101e0527f030405060708090a0b0c0d0e0f101112131415161718191a1b1c1d1e1f202122610200527f232425262728292a2b2c2d2e2f303132333435363738393a3b3c3d3e3f404142610220527f434445464748494a4b4c4d4e4f505152535455565758595a5b5c5d5e5f606162610240527f636465666768696a6b6c6d6e6f707172737475767778797a7b7c7d7e7f808182610260527f838485868788898a8b8c8d8e8f909192939495969798999a9b9c9d9e9fa0a1a2610280527fa3a4a5a6a7a8a9aaabacadaeafb0b1b2b3b4b5b6b7b8b9babbbcbdbebfc0c1c26102a0527fc3c4c5c6c7c8c9cacbcccdcecfd0d1d2d3d4d5d6d7d8d9dadbdcdddedfe0e1e26102c0527fe3e4e5e6e7e8e9eaebecedeeeff0f1f2f3f4f5f6f7f8f9fafbfcfdfeff0102036102e0527f0405060708090a0b0c0d0e0f101112131415161718191a1b1c1d1e1f20212223610300527f2425262728292a2b2c2d2e2f303132333435363738393a3b3c3d3e3f40414243610320527f4445464748494a4b4c4d4e4f505152535455565758595a5b5c5d5e5f60616263610340527f6465666768696a6b6c6d6e6f707172737475767778797a7b7c7d7e7f80818283610360527f8485868788898a8b8c8d8e8f909192939495969798999a9b9c9d9e9fa0a1a2a3610380527fa4a5a6a7a8a9aaabacadaeafb0b1b2b3b4b5b6b7b8b9babbbcbdbebfc0c1c2c36103a0527fc4c5c6c7c8c9cacbcccdcecfd0d1d2d3d4d5d6d7d8d9dadbdcdddedfe0e1e2e36103c0527fe4e5e6e7e8e9eaebecedeeeff0f1f2f3f4f5f6f7f8f9fafbfcfdfeff010203046103e05260006000600060006110005afa59620186a05560005160005560205160015560405160025560605160035560805160045560a05160055560c05160065560e051600755610100516008556101205160095561014051600a5561016051600b5561018051600c556101a051600d556101c051600e556101e051600f5561020051601055610220516011556102405160125561026051601355610280516014556102a0516015556102c0516016556102e051601755610300516018556103205160195561034051601a5561036051601b5561038051601c556103a051601d556103c051601e556103e051601f55",
                "nonce" : "0x01",
                "storage" : {
                }
            },
            "0xa94f5374fce5edbc8e2a8697c15331677e6ebf0b" : {
                "balance" : "0x3635c9adc5dea00000",
                "code" : "0x",
                "nonce" : "0x00",
                "storage" : {
                }
            }
        },
        "transaction" : {
            "data" : [
                "0x"
            ],
            "gasLimit" : [
                "0x0f4240"
            ],
            "gasPrice" : "0x0a",
            "nonce" : "0x00",
            "secretKey" : "0x45a915e4d060149eb4365960e6a7a45f334393093061116b197e3240065ff2d8",
            "sender" : "0xa94f5374fce5edbc8e2a8697c15331677e6ebf0b",
            "to" : "0x0000000000000000000000000000000000001100",
            "value" : [
                "0x00"
            ]
        }
    }
}