{
    "tests/cancun/eip4844_blobs/test_point_evaluation_precompile.py::test_point_evaluation_precompile_before_fork[fork_ShanghaiToCancunAtTime15k-state_test-correct_proof]": {
        "env": {
            "currentCoinbase": "0x2adc25665018aa1fe0e6bc666dac8fc2697ff9ba",
            "currentGasLimit": "0x016345785d8a0000",
            "currentNumber": "0x01",
            "currentTimestamp": "0x1d4c",
            "currentRandom": "0x0000000000000000000000000000000000000000000000000000000000000000",
            "currentDifficulty": "0x00",
            "currentBaseFee": "0x07"
        },
        "pre": {
            "0xa94f5374fce5edbc8e2a8697c15331677e6ebf0b": {
                "nonce": "0x00",
                "balance": "0x01000000000000000000",
                "code": "0x",
                "storage": {}
            },
            "0x0000000000000000000000000000000000001000": {
                "nonce": "0x00",
                "balance": "0x01000000000000000000",
                "code": "0x60006000600060006001600a5af14355",
                "storage": {}
            }
        },
        "transaction": {
            "nonce": "0x00",
            "maxPriorityFeePerGas": "0x00",
            "maxFeePerGas": "0x07",
            "gasLimit": [
                "0x0f4240"
            ],
            "to": "0x0000000000000000000000000000000000001000",
            "value": [
                "0x00"
            ],
            "data": [
                "0x010657f37554c781402a22917dee2f75def7ab966d7b770905398eba3c444014623ce31cf9759a5c8daf3a357992f9f3dd7f9339d8998bc8e68373e54f00b75e0000000000000000000000000000000000000000000000000000000000000000c00000000000000000000000000000000000000000000000000000000000000000000000000000000000000000000000c00000000000000000000000000000000000000000000000000000000000000000000000000000000000000000000000"
            ],
            "accessLists": [
                []
            ],
            "sender": "0xa94f5374fce5edbc8e2a8697c15331677e6ebf0b",
            "secretKey": "0x45a915e4d060149eb4365960e6a7a45f334393093061116b197e3240065ff2d8"
        },
        "post": {
            "Shanghai": [
                {
                    "hash": "0x72b833c40f59e00cc07e5eaf58b0e4793f1821338c45530786c104f556bc23e2",
                    "logs": "0x1dcc4de8dec75d7aab85b567b6ccd41ad312451b948a7413f0a142fd40d49347",
                    "txbytes": "0x02f9012401808007830f424094000000000000000000000000000000000000100080b8c0010657f37554c781402a22917dee2f75def7ab966d7b770905398eba3c444014623ce31cf9759a5c8daf3a357992f9f3dd7f9339d8998bc8e68373e54f00b75e0000000000000000000000000000000000000000000000000000000000000000c00000000000000000000000000000000000000000000000000000000000000000000000000000000000000000000000c00000000000000000000000000000000000000000000000000000000000000000000000000000000000000000000000c001a0387d679262ecaa202b540f8bf515e00eaee7134d81f5d389ce92e633ec90d8afa04d48f7a0d02f7ea2cc65a7ce8d8288c37cd836d15b830891c0735aa6773a0216",
                    "indexes": {
                        "data": 0,
                        "gas": 0,
                        "value": 0
                    }
                }
            ]
        },
        "_info": {
            "hash": "0xd12d21bf7da5c33dafe5536f7c562f94a6c7e9f3b5741722bce0918619d3ee23",
            "comment": "`execution-spec-tests` generated test",
            "filling-transition-tool": "evm version 1.13.14-stable",
            "reference-spec": "https://github.com/ethereum/EIPs/blob/master/EIPS/eip-4844.md",
            "reference-spec-version": "f0eb6a364aaf5ccb43516fa2c269a54fb881ecfd"
        }
    }
}