{
    "src/GeneralStateTestsFiller/Pyspecs/cancun/eip1153_tstore/test_tload_calls.py::test_tload_calls[fork_Cancun-blockchain_test-call_type_CALLCODE]" : {
        "_info" : {
            "comment" : "`execution-spec-tests` generated test",
            "description" : "Test function documentation:\n\n    Ported .json vectors:\n\n    (04_tloadAfterCallFiller.yml)\n    Loading a slot after a call to another contract is 0.\n\n    (12_tloadDelegateCallFiller.yml)\n    delegatecall reads transient storage in the context of the current address",
            "filling-rpc-server" : "evm version 1.14.12-unstable-65e5ca7d-20241004",
            "filling-tool-version" : "retesteth-0.3.2-legacy+commit.600ac001.Linux.g++",
            "filling-transition-tool" : "evm version 1.14.12-unstable-65e5ca7d-20241004",
            "generatedTestHash" : "cdb3aa826f128f4c073f6395b19933102769b84c2182bb11b6ae9b9445357543",
            "hash" : "0xfd35f77181dd1bfd3e35549976b57c4c4ae437289e22de9c9e1d2dea9e78eedc",
            "lllcversion" : "Version: 0.5.14-develop.2024.11.5+commit.b2b86751.mod.Linux.g++",
            "solidity" : "Version: 0.8.24+commit.e11b9ed9.Linux.g++",
            "source" : "src/GeneralStateTestsFiller/Pyspecs/cancun/eip1153_tstore/test_tload_calls.py",
            "sourceHash" : "1f1aa2dd2567799cedf3ec0bc1fc3e2dca60287b03a07b5da8e64b1d0b404dd4",
            "url" : "https://github.com/ethereum/execution-spec-tests/blob/f89d09ba99a3dc680dd9410f0b8a7f8d8fc36714/tests/tmp/tmptest_08f95c00_681f_4b8a_aee5_80bf7d4bb4dd/test_tload_calls.py#L16"
        },
        "blocks" : [
            {
                "blockHeader" : {
                    "baseFeePerGas" : "0x07",
                    "blobGasUsed" : "0x00",
                    "bloom" : "0x00000000000000000000000000000000000000000000000000000000000000000000000000000000000000000000000000000000000000000000000000000000000000000000000000000000000000000000000000000000000000000000000000000000000000000000000000000000000000000000000000000000000000000000000000000000000000000000000000000000000000000000000000000000000000000000000000000000000000000000000000000000000000000000000000000000000000000000000000000000000000000000000000000000000000000000000000000000000000000000000000000000000000000000000000000000",
                    "coinbase" : "0x2adc25665018aa1fe0e6bc666dac8fc2697ff9ba",
                    "difficulty" : "0x00",
                    "excessBlobGas" : "0x00",
                    "extraData" : "0x00",
                    "gasLimit" : "0x016345785d8a0000",
                    "gasUsed" : "0x013216",
                    "hash" : "0x15efe926a45a73fc55f92b69d2e279e95fb40a8349188cda136afba778eac353",
                    "mixHash" : "0x0000000000000000000000000000000000000000000000000000000000000000",
                    "nonce" : "0x0000000000000000",
                    "number" : "0x01",
                    "parentBeaconBlockRoot" : "0x0000000000000000000000000000000000000000000000000000000000000000",
                    "parentHash" : "0x4bab2fb8ece510d6794a6eef3123b61a8e57d2f28e5359cbedc5d751feb17a11",
                    "receiptTrie" : "0xeda0b1ce3be21584e80105732751356504ee43e58d33f65fd363f7c2d939ab23",
                    "stateRoot" : "0xed24b8dec8f56f662e495243e7e6fc8d9e41b383198fcd11ccda42c4fbce0424",
                    "timestamp" : "0x03e8",
                    "transactionsTrie" : "0xf1b98e164da8ff8502cb142ba7aaff2e48d936452f2b9ba86dcd9564e090c286",
                    "uncleHash" : "0x1dcc4de8dec75d7aab85b567b6ccd41ad312451b948a7413f0a142fd40d49347",
                    "withdrawalsRoot" : "0x56e81f171bcc55a6ff8345e692c0f86e5b48e01b996cadc001622fb5e363b421"
                },
                "blocknumber" : "1",
                "rlp" : "0xf902a8f9023fa04bab2fb8ece510d6794a6eef3123b61a8e57d2f28e5359cbedc5d751feb17a11a01dcc4de8dec75d7aab85b567b6ccd41ad312451b948a7413f0a142fd40d49347942adc25665018aa1fe0e6bc666dac8fc2697ff9baa0ed24b8dec8f56f662e495243e7e6fc8d9e41b383198fcd11ccda42c4fbce0424a0f1b98e164da8ff8502cb142ba7aaff2e48d936452f2b9ba86dcd9564e090c286a0eda0b1ce3be21584e80105732751356504ee43e58d33f65fd363f7c2d939ab23b9010000000000000000000000000000000000000000000000000000000000000000000000000000000000000000000000000000000000000000000000000000000000000000000000000000000000000000000000000000000000000000000000000000000000000000000000000000000000000000000000000000000000000000000000000000000000000000000000000000000000000000000000000000000000000000000000000000000000000000000000000000000000000000000000000000000000000000000000000000000000000000000000000000000000000000000000000000000000000000000000000000000000000000000000000000000000800188016345785d8a0000830132168203e800a0000000000000000000000000000000000000000000000000000000000000000088000000000000000007a056e81f171bcc55a6ff8345e692c0f86e5b48e01b996cadc001622fb5e363b4218080a00000000000000000000000000000000000000000000000000000000000000000f862f860800a834c4b40940000000000000000000000000000000000001100808026a0bcf2fd7caa0e764b107b1bd87b8df4dff4aff50e6e50e16c74e0f5a3fca6a3efa00b54e10cb435246498842926bc4d5fc26ac752d0c21999bb7027da6c580425ddc0c0",
                "transactions" : [
                    {
                        "chainId" : "0x01",
                        "data" : "0x",
                        "gasLimit" : "0x4c4b40",
                        "gasPrice" : "0x0a",
                        "nonce" : "0x00",
                        "r" : "0xbcf2fd7caa0e764b107b1bd87b8df4dff4aff50e6e50e16c74e0f5a3fca6a3ef",
                        "s" : "0x0b54e10cb435246498842926bc4d5fc26ac752d0c21999bb7027da6c580425dd",
                        "sender" : "0xa94f5374fce5edbc8e2a8697c15331677e6ebf0b",
                        "to" : "0x0000000000000000000000000000000000001100",
                        "type" : "0x00",
                        "v" : "0x26",
                        "value" : "0x00"
                    }
                ],
                "uncleHeaders" : [
                ],
                "withdrawals" : [
                ]
            }
        ],
        "genesisBlockHeader" : {
            "baseFeePerGas" : "0x07",
            "blobGasUsed" : "0x00",
            "bloom" : "0x00000000000000000000000000000000000000000000000000000000000000000000000000000000000000000000000000000000000000000000000000000000000000000000000000000000000000000000000000000000000000000000000000000000000000000000000000000000000000000000000000000000000000000000000000000000000000000000000000000000000000000000000000000000000000000000000000000000000000000000000000000000000000000000000000000000000000000000000000000000000000000000000000000000000000000000000000000000000000000000000000000000000000000000000000000000",
            "coinbase" : "0x0000000000000000000000000000000000000000",
            "difficulty" : "0x00",
            "excessBlobGas" : "0x00",
            "extraData" : "0x00",
            "gasLimit" : "0x016345785d8a0000",
            "gasUsed" : "0x00",
            "hash" : "0x4bab2fb8ece510d6794a6eef3123b61a8e57d2f28e5359cbedc5d751feb17a11",
            "mixHash" : "0x0000000000000000000000000000000000000000000000000000000000000000",
            "nonce" : "0x0000000000000000",
            "number" : "0x00",
            "parentBeaconBlockRoot" : "0x0000000000000000000000000000000000000000000000000000000000000000",
            "parentHash" : "0x0000000000000000000000000000000000000000000000000000000000000000",
            "receiptTrie" : "0x56e81f171bcc55a6ff8345e692c0f86e5b48e01b996cadc001622fb5e363b421",
            "stateRoot" : "0x36ed1c0e09db6cb4829cb61709665ff72ff351d25e7cb0ea015253ce38e5fbce",
            "timestamp" : "0x00",
            "transactionsTrie" : "0x56e81f171bcc55a6ff8345e692c0f86e5b48e01b996cadc001622fb5e363b421",
            "uncleHash" : "0x1dcc4de8dec75d7aab85b567b6ccd41ad312451b948a7413f0a142fd40d49347",
            "withdrawalsRoot" : "0x56e81f171bcc55a6ff8345e692c0f86e5b48e01b996cadc001622fb5e363b421"
        },
        "genesisRLP" : "0xf90240f9023aa00000000000000000000000000000000000000000000000000000000000000000a01dcc4de8dec75d7aab85b567b6ccd41ad312451b948a7413f0a142fd40d49347940000000000000000000000000000000000000000a036ed1c0e09db6cb4829cb61709665ff72ff351d25e7cb0ea015253ce38e5fbcea056e81f171bcc55a6ff8345e692c0f86e5b48e01b996cadc001622fb5e363b421a056e81f171bcc55a6ff8345e692c0f86e5b48e01b996cadc001622fb5e363b421b9010000000000000000000000000000000000000000000000000000000000000000000000000000000000000000000000000000000000000000000000000000000000000000000000000000000000000000000000000000000000000000000000000000000000000000000000000000000000000000000000000000000000000000000000000000000000000000000000000000000000000000000000000000000000000000000000000000000000000000000000000000000000000000000000000000000000000000000000000000000000000000000000000000000000000000000000000000000000000000000000000000000000000000000000000000000000808088016345785d8a0000808000a0000000000000000000000000000000000000000000000000000000000000000088000000000000000007a056e81f171bcc55a6ff8345e692c0f86e5b48e01b996cadc001622fb5e363b4218080a00000000000000000000000000000000000000000000000000000000000000000c0c0c0",
        "lastblockhash" : "0x15efe926a45a73fc55f92b69d2e279e95fb40a8349188cda136afba778eac353",
        "network" : "Cancun",
        "postState" : {
            "0x0000000000000000000000000000000000001000" : {
                "balance" : "0x0de0b6b3a7640000",
                "code" : "0x5b60005c600255601460005d60005c600355",
                "nonce" : "0x01",
                "storage" : {
                    "0x02" : "0xff",
                    "0x03" : "0xff"
                }
            },
            "0x0000000000000000000000000000000000001100" : {
                "balance" : "0x0de0b6b3a7640000",
                "code" : "0x5b600a60005d600060006020600060006110005af260015560005c600055",
                "nonce" : "0x01",
                "storage" : {
                    "0x00" : "0x14",
                    "0x01" : "0x01",
                    "0x02" : "0x0a",
                    "0x03" : "0x14"
                }
            },
            "0x000f3df6d732807ef1319fb7b8bb8522d0beac02" : {
                "balance" : "0x00",
                "code" : "0x3373fffffffffffffffffffffffffffffffffffffffe14604d57602036146024575f5ffd5b5f35801560495762001fff810690815414603c575f5ffd5b62001fff01545f5260205ff35b5f5ffd5b62001fff42064281555f359062001fff015500",
                "nonce" : "0x01",
                "storage" : {
                    "0x03e8" : "0x03e8"
                }
            },
            "0x2adc25665018aa1fe0e6bc666dac8fc2697ff9ba" : {
                "balance" : "0x039642",
                "code" : "0x",
                "nonce" : "0x00",
                "storage" : {
                }
            },
            "0xa94f5374fce5edbc8e2a8697c15331677e6ebf0b" : {
                "balance" : "0x6124fee993b00b24",
                "code" : "0x",
                "nonce" : "0x01",
                "storage" : {
                }
            }
        },
        "pre" : {
            "0x0000000000000000000000000000000000001000" : {
                "balance" : "0x0de0b6b3a7640000",
                "code" : "0x5b60005c600255601460005d60005c600355",
                "nonce" : "0x01",
                "storage" : {
                    "0x02" : "0xff",
                    "0x03" : "0xff"
                }
            },
            "0x0000000000000000000000000000000000001100" : {
                "balance" : "0x0de0b6b3a7640000",
                "code" : "0x5b600a60005d600060006020600060006110005af260015560005c600055",
                "nonce" : "0x01",
                "storage" : {
                    "0x00" : "0xff",
                    "0x01" : "0xff"
                }
            },
            "0x000f3df6d732807ef1319fb7b8bb8522d0beac02" : {
                "balance" : "0x00",
                "code" : "0x3373fffffffffffffffffffffffffffffffffffffffe14604d57602036146024575f5ffd5b5f35801560495762001fff810690815414603c575f5ffd5b62001fff01545f5260205ff35b5f5ffd5b62001fff42064281555f359062001fff015500",
                "nonce" : "0x01",
                "storage" : {
                }
            },
            "0xa94f5374fce5edbc8e2a8697c15331677e6ebf0b" : {
                "balance" : "0x6124fee993bc0000",
                "code" : "0x",
                "nonce" : "0x00",
                "storage" : {
                }
            }
        },
        "sealEngine" : "NoProof"
    },
    "src/GeneralStateTestsFiller/Pyspecs/cancun/eip1153_tstore/test_tload_calls.py::test_tload_calls[fork_Cancun-blockchain_test-call_type_CALL]" : {
        "_info" : {
            "comment" : "`execution-spec-tests` generated test",
            "description" : "Test function documentation:\n\n    Ported .json vectors:\n\n    (04_tloadAfterCallFiller.yml)\n    Loading a slot after a call to another contract is 0.\n\n    (12_tloadDelegateCallFiller.yml)\n    delegatecall reads transient storage in the context of the current address",
            "filling-rpc-server" : "evm version 1.14.12-unstable-65e5ca7d-20241004",
            "filling-tool-version" : "retesteth-0.3.2-legacy+commit.600ac001.Linux.g++",
            "filling-transition-tool" : "evm version 1.14.12-unstable-65e5ca7d-20241004",
            "generatedTestHash" : "cb86689b66c9d79da0b82e983b20f1ba3be4387e6f205170938726aec29affbe",
            "hash" : "0x47c4c72c774c990160ee70e4ec9196dd5783d074626b2d2c5312c74aad69d0bd",
            "lllcversion" : "Version: 0.5.14-develop.2024.11.5+commit.b2b86751.mod.Linux.g++",
            "solidity" : "Version: 0.8.24+commit.e11b9ed9.Linux.g++",
            "source" : "src/GeneralStateTestsFiller/Pyspecs/cancun/eip1153_tstore/test_tload_calls.py",
            "sourceHash" : "1f1aa2dd2567799cedf3ec0bc1fc3e2dca60287b03a07b5da8e64b1d0b404dd4",
            "url" : "https://github.com/ethereum/execution-spec-tests/blob/f89d09ba99a3dc680dd9410f0b8a7f8d8fc36714/tests/tmp/tmptest_08f95c00_681f_4b8a_aee5_80bf7d4bb4dd/test_tload_calls.py#L16"
        },
        "blocks" : [
            {
                "blockHeader" : {
                    "baseFeePerGas" : "0x07",
                    "blobGasUsed" : "0x00",
                    "bloom" : "0x00000000000000000000000000000000000000000000000000000000000000000000000000000000000000000000000000000000000000000000000000000000000000000000000000000000000000000000000000000000000000000000000000000000000000000000000000000000000000000000000000000000000000000000000000000000000000000000000000000000000000000000000000000000000000000000000000000000000000000000000000000000000000000000000000000000000000000000000000000000000000000000000000000000000000000000000000000000000000000000000000000000000000000000000000000000",
                    "coinbase" : "0x2adc25665018aa1fe0e6bc666dac8fc2697ff9ba",
                    "difficulty" : "0x00",
                    "excessBlobGas" : "0x00",
                    "extraData" : "0x00",
                    "gasLimit" : "0x016345785d8a0000",
                    "gasUsed" : "0x99be",
                    "hash" : "0xc4e1586a81ab18cf5ba699f158151df2ce84f0b7450a1133b0081c4344408d41",
                    "mixHash" : "0x0000000000000000000000000000000000000000000000000000000000000000",
                    "nonce" : "0x0000000000000000",
                    "number" : "0x01",
                    "parentBeaconBlockRoot" : "0x0000000000000000000000000000000000000000000000000000000000000000",
                    "parentHash" : "0xd2b1db928dae806de3c1b77a988464ab1ba7346e7e18f62e3244499154e89420",
                    "receiptTrie" : "0x0cb1e9e0b3c47a50b1bf5ab36873bfac35ca013056b8ded10eb8b4a5ba452f72",
                    "stateRoot" : "0x7abb465e5a29020af9d6e7427cd7d445ec8588df6fbf6e5396f4ecc2c954e368",
                    "timestamp" : "0x03e8",
                    "transactionsTrie" : "0xf1b98e164da8ff8502cb142ba7aaff2e48d936452f2b9ba86dcd9564e090c286",
                    "uncleHash" : "0x1dcc4de8dec75d7aab85b567b6ccd41ad312451b948a7413f0a142fd40d49347",
                    "withdrawalsRoot" : "0x56e81f171bcc55a6ff8345e692c0f86e5b48e01b996cadc001622fb5e363b421"
                },
                "blocknumber" : "1",
                "rlp" : "0xf902a7f9023ea0d2b1db928dae806de3c1b77a988464ab1ba7346e7e18f62e3244499154e89420a01dcc4de8dec75d7aab85b567b6ccd41ad312451b948a7413f0a142fd40d49347942adc25665018aa1fe0e6bc666dac8fc2697ff9baa07abb465e5a29020af9d6e7427cd7d445ec8588df6fbf6e5396f4ecc2c954e368a0f1b98e164da8ff8502cb142ba7aaff2e48d936452f2b9ba86dcd9564e090c286a00cb1e9e0b3c47a50b1bf5ab36873bfac35ca013056b8ded10eb8b4a5ba452f72b9010000000000000000000000000000000000000000000000000000000000000000000000000000000000000000000000000000000000000000000000000000000000000000000000000000000000000000000000000000000000000000000000000000000000000000000000000000000000000000000000000000000000000000000000000000000000000000000000000000000000000000000000000000000000000000000000000000000000000000000000000000000000000000000000000000000000000000000000000000000000000000000000000000000000000000000000000000000000000000000000000000000000000000000000000000000000800188016345785d8a00008299be8203e800a0000000000000000000000000000000000000000000000000000000000000000088000000000000000007a056e81f171bcc55a6ff8345e692c0f86e5b48e01b996cadc001622fb5e363b4218080a00000000000000000000000000000000000000000000000000000000000000000f862f860800a834c4b40940000000000000000000000000000000000001100808026a0bcf2fd7caa0e764b107b1bd87b8df4dff4aff50e6e50e16c74e0f5a3fca6a3efa00b54e10cb435246498842926bc4d5fc26ac752d0c21999bb7027da6c580425ddc0c0",
                "transactions" : [
                    {
                        "chainId" : "0x01",
                        "data" : "0x",
                        "gasLimit" : "0x4c4b40",
                        "gasPrice" : "0x0a",
                        "nonce" : "0x00",
                        "r" : "0xbcf2fd7caa0e764b107b1bd87b8df4dff4aff50e6e50e16c74e0f5a3fca6a3ef",
                        "s" : "0x0b54e10cb435246498842926bc4d5fc26ac752d0c21999bb7027da6c580425dd",
                        "sender" : "0xa94f5374fce5edbc8e2a8697c15331677e6ebf0b",
                        "to" : "0x0000000000000000000000000000000000001100",
                        "type" : "0x00",
                        "v" : "0x26",
                        "value" : "0x00"
                    }
                ],
                "uncleHeaders" : [
                ],
                "withdrawals" : [
                ]
            }
        ],
        "genesisBlockHeader" : {
            "baseFeePerGas" : "0x07",
            "blobGasUsed" : "0x00",
            "bloom" : "0x00000000000000000000000000000000000000000000000000000000000000000000000000000000000000000000000000000000000000000000000000000000000000000000000000000000000000000000000000000000000000000000000000000000000000000000000000000000000000000000000000000000000000000000000000000000000000000000000000000000000000000000000000000000000000000000000000000000000000000000000000000000000000000000000000000000000000000000000000000000000000000000000000000000000000000000000000000000000000000000000000000000000000000000000000000000",
            "coinbase" : "0x0000000000000000000000000000000000000000",
            "difficulty" : "0x00",
            "excessBlobGas" : "0x00",
            "extraData" : "0x00",
            "gasLimit" : "0x016345785d8a0000",
            "gasUsed" : "0x00",
            "hash" : "0xd2b1db928dae806de3c1b77a988464ab1ba7346e7e18f62e3244499154e89420",
            "mixHash" : "0x0000000000000000000000000000000000000000000000000000000000000000",
            "nonce" : "0x0000000000000000",
            "number" : "0x00",
            "parentBeaconBlockRoot" : "0x0000000000000000000000000000000000000000000000000000000000000000",
            "parentHash" : "0x0000000000000000000000000000000000000000000000000000000000000000",
            "receiptTrie" : "0x56e81f171bcc55a6ff8345e692c0f86e5b48e01b996cadc001622fb5e363b421",
            "stateRoot" : "0xcbb092b489a478ae9914b3bf2cfb3bb1aa00038189598012b44e2c5c7fb1b129",
            "timestamp" : "0x00",
            "transactionsTrie" : "0x56e81f171bcc55a6ff8345e692c0f86e5b48e01b996cadc001622fb5e363b421",
            "uncleHash" : "0x1dcc4de8dec75d7aab85b567b6ccd41ad312451b948a7413f0a142fd40d49347",
            "withdrawalsRoot" : "0x56e81f171bcc55a6ff8345e692c0f86e5b48e01b996cadc001622fb5e363b421"
        },
        "genesisRLP" : "0xf90240f9023aa00000000000000000000000000000000000000000000000000000000000000000a01dcc4de8dec75d7aab85b567b6ccd41ad312451b948a7413f0a142fd40d49347940000000000000000000000000000000000000000a0cbb092b489a478ae9914b3bf2cfb3bb1aa00038189598012b44e2c5c7fb1b129a056e81f171bcc55a6ff8345e692c0f86e5b48e01b996cadc001622fb5e363b421a056e81f171bcc55a6ff8345e692c0f86e5b48e01b996cadc001622fb5e363b421b9010000000000000000000000000000000000000000000000000000000000000000000000000000000000000000000000000000000000000000000000000000000000000000000000000000000000000000000000000000000000000000000000000000000000000000000000000000000000000000000000000000000000000000000000000000000000000000000000000000000000000000000000000000000000000000000000000000000000000000000000000000000000000000000000000000000000000000000000000000000000000000000000000000000000000000000000000000000000000000000000000000000000000000000000000000000000808088016345785d8a0000808000a0000000000000000000000000000000000000000000000000000000000000000088000000000000000007a056e81f171bcc55a6ff8345e692c0f86e5b48e01b996cadc001622fb5e363b4218080a00000000000000000000000000000000000000000000000000000000000000000c0c0c0",
        "lastblockhash" : "0xc4e1586a81ab18cf5ba699f158151df2ce84f0b7450a1133b0081c4344408d41",
        "network" : "Cancun",
        "postState" : {
            "0x0000000000000000000000000000000000001000" : {
                "balance" : "0x0de0b6b3a7640000",
                "code" : "0x5b60005c600255601460005d60005c600355",
                "nonce" : "0x01",
                "storage" : {
                    "0x03" : "0x14"
                }
            },
            "0x0000000000000000000000000000000000001100" : {
                "balance" : "0x0de0b6b3a7640000",
                "code" : "0x5b600a60005d600060006020600060006110005af160015560005c600055",
                "nonce" : "0x01",
                "storage" : {
                    "0x00" : "0x0a",
                    "0x01" : "0x01"
                }
            },
            "0x000f3df6d732807ef1319fb7b8bb8522d0beac02" : {
                "balance" : "0x00",
                "code" : "0x3373fffffffffffffffffffffffffffffffffffffffe14604d57602036146024575f5ffd5b5f35801560495762001fff810690815414603c575f5ffd5b62001fff01545f5260205ff35b5f5ffd5b62001fff42064281555f359062001fff015500",
                "nonce" : "0x01",
                "storage" : {
                    "0x03e8" : "0x03e8"
                }
            },
            "0x2adc25665018aa1fe0e6bc666dac8fc2697ff9ba" : {
                "balance" : "0x01cd3a",
                "code" : "0x",
                "nonce" : "0x00",
                "storage" : {
                }
            },
            "0xa94f5374fce5edbc8e2a8697c15331677e6ebf0b" : {
                "balance" : "0x6124fee993b5fe94",
                "code" : "0x",
                "nonce" : "0x01",
                "storage" : {
                }
            }
        },
        "pre" : {
            "0x0000000000000000000000000000000000001000" : {
                "balance" : "0x0de0b6b3a7640000",
                "code" : "0x5b60005c600255601460005d60005c600355",
                "nonce" : "0x01",
                "storage" : {
                    "0x02" : "0xff",
                    "0x03" : "0xff"
                }
            },
            "0x0000000000000000000000000000000000001100" : {
                "balance" : "0x0de0b6b3a7640000",
                "code" : "0x5b600a60005d600060006020600060006110005af160015560005c600055",
                "nonce" : "0x01",
                "storage" : {
                    "0x00" : "0xff",
                    "0x01" : "0xff"
                }
            },
            "0x000f3df6d732807ef1319fb7b8bb8522d0beac02" : {
                "balance" : "0x00",
                "code" : "0x3373fffffffffffffffffffffffffffffffffffffffe14604d57602036146024575f5ffd5b5f35801560495762001fff810690815414603c575f5ffd5b62001fff01545f5260205ff35b5f5ffd5b62001fff42064281555f359062001fff015500",
                "nonce" : "0x01",
                "storage" : {
                }
            },
            "0xa94f5374fce5edbc8e2a8697c15331677e6ebf0b" : {
                "balance" : "0x6124fee993bc0000",
                "code" : "0x",
                "nonce" : "0x00",
                "storage" : {
                }
            }
        },
        "sealEngine" : "NoProof"
    },
    "src/GeneralStateTestsFiller/Pyspecs/cancun/eip1153_tstore/test_tload_calls.py::test_tload_calls[fork_Cancun-blockchain_test-call_type_DELEGATECALL]" : {
        "_info" : {
            "comment" : "`execution-spec-tests` generated test",
            "description" : "Test function documentation:\n\n    Ported .json vectors:\n\n    (04_tloadAfterCallFiller.yml)\n    Loading a slot after a call to another contract is 0.\n\n    (12_tloadDelegateCallFiller.yml)\n    delegatecall reads transient storage in the context of the current address",
            "filling-rpc-server" : "evm version 1.14.12-unstable-65e5ca7d-20241004",
            "filling-tool-version" : "retesteth-0.3.2-legacy+commit.600ac001.Linux.g++",
            "filling-transition-tool" : "evm version 1.14.12-unstable-65e5ca7d-20241004",
            "generatedTestHash" : "eba0694829ffcc02fe534dfa827261cf4620b9467193a9fb7613d3704589885b",
            "hash" : "0xb5cde03084bb0af1778a8b1aa01df295b8a36521ee710abadd0f8b077497db0c",
            "lllcversion" : "Version: 0.5.14-develop.2024.11.5+commit.b2b86751.mod.Linux.g++",
            "solidity" : "Version: 0.8.24+commit.e11b9ed9.Linux.g++",
            "source" : "src/GeneralStateTestsFiller/Pyspecs/cancun/eip1153_tstore/test_tload_calls.py",
            "sourceHash" : "1f1aa2dd2567799cedf3ec0bc1fc3e2dca60287b03a07b5da8e64b1d0b404dd4",
            "url" : "https://github.com/ethereum/execution-spec-tests/blob/f89d09ba99a3dc680dd9410f0b8a7f8d8fc36714/tests/tmp/tmptest_08f95c00_681f_4b8a_aee5_80bf7d4bb4dd/test_tload_calls.py#L16"
        },
        "blocks" : [
            {
                "blockHeader" : {
                    "baseFeePerGas" : "0x07",
                    "blobGasUsed" : "0x00",
                    "bloom" : "0x00000000000000000000000000000000000000000000000000000000000000000000000000000000000000000000000000000000000000000000000000000000000000000000000000000000000000000000000000000000000000000000000000000000000000000000000000000000000000000000000000000000000000000000000000000000000000000000000000000000000000000000000000000000000000000000000000000000000000000000000000000000000000000000000000000000000000000000000000000000000000000000000000000000000000000000000000000000000000000000000000000000000000000000000000000000",
                    "coinbase" : "0x2adc25665018aa1fe0e6bc666dac8fc2697ff9ba",
                    "difficulty" : "0x00",
                    "excessBlobGas" : "0x00",
                    "extraData" : "0x00",
                    "gasLimit" : "0x016345785d8a0000",
                    "gasUsed" : "0x013213",
                    "hash" : "0x3d20b43f3a3296c7c0003caddecba801a2c1aeace090c5082c1c8cbbcfa64d39",
                    "mixHash" : "0x0000000000000000000000000000000000000000000000000000000000000000",
                    "nonce" : "0x0000000000000000",
                    "number" : "0x01",
                    "parentBeaconBlockRoot" : "0x0000000000000000000000000000000000000000000000000000000000000000",
                    "parentHash" : "0xe995d23964a71a840320ac21a4e6fc52153e106c2cf552e4e6a295174796befe",
                    "receiptTrie" : "0xd02039b9fa96a008ef654ca2ce334d7d2614f0fa9571c7774adab433856dcf60",
                    "stateRoot" : "0x4b3b895ce1790bf36c1c30903ede48114f59da4536b5bc5781ae9c0f6894fa39",
                    "timestamp" : "0x03e8",
                    "transactionsTrie" : "0xf1b98e164da8ff8502cb142ba7aaff2e48d936452f2b9ba86dcd9564e090c286",
                    "uncleHash" : "0x1dcc4de8dec75d7aab85b567b6ccd41ad312451b948a7413f0a142fd40d49347",
                    "withdrawalsRoot" : "0x56e81f171bcc55a6ff8345e692c0f86e5b48e01b996cadc001622fb5e363b421"
                },
                "blocknumber" : "1",
                "rlp" : "0xf902a8f9023fa0e995d23964a71a840320ac21a4e6fc52153e106c2cf552e4e6a295174796befea01dcc4de8dec75d7aab85b567b6ccd41ad312451b948a7413f0a142fd40d49347942adc25665018aa1fe0e6bc666dac8fc2697ff9baa04b3b895ce1790bf36c1c30903ede48114f59da4536b5bc5781ae9c0f6894fa39a0f1b98e164da8ff8502cb142ba7aaff2e48d936452f2b9ba86dcd9564e090c286a0d02039b9fa96a008ef654ca2ce334d7d2614f0fa9571c7774adab433856dcf60b9010000000000000000000000000000000000000000000000000000000000000000000000000000000000000000000000000000000000000000000000000000000000000000000000000000000000000000000000000000000000000000000000000000000000000000000000000000000000000000000000000000000000000000000000000000000000000000000000000000000000000000000000000000000000000000000000000000000000000000000000000000000000000000000000000000000000000000000000000000000000000000000000000000000000000000000000000000000000000000000000000000000000000000000000000000000000800188016345785d8a0000830132138203e800a0000000000000000000000000000000000000000000000000000000000000000088000000000000000007a056e81f171bcc55a6ff8345e692c0f86e5b48e01b996cadc001622fb5e363b4218080a00000000000000000000000000000000000000000000000000000000000000000f862f860800a834c4b40940000000000000000000000000000000000001100808026a0bcf2fd7caa0e764b107b1bd87b8df4dff4aff50e6e50e16c74e0f5a3fca6a3efa00b54e10cb435246498842926bc4d5fc26ac752d0c21999bb7027da6c580425ddc0c0",
                "transactions" : [
                    {
                        "chainId" : "0x01",
                        "data" : "0x",
                        "gasLimit" : "0x4c4b40",
                        "gasPrice" : "0x0a",
                        "nonce" : "0x00",
                        "r" : "0xbcf2fd7caa0e764b107b1bd87b8df4dff4aff50e6e50e16c74e0f5a3fca6a3ef",
                        "s" : "0x0b54e10cb435246498842926bc4d5fc26ac752d0c21999bb7027da6c580425dd",
                        "sender" : "0xa94f5374fce5edbc8e2a8697c15331677e6ebf0b",
                        "to" : "0x0000000000000000000000000000000000001100",
                        "type" : "0x00",
                        "v" : "0x26",
                        "value" : "0x00"
                    }
                ],
                "uncleHeaders" : [
                ],
                "withdrawals" : [
                ]
            }
        ],
        "genesisBlockHeader" : {
            "baseFeePerGas" : "0x07",
            "blobGasUsed" : "0x00",
            "bloom" : "0x00000000000000000000000000000000000000000000000000000000000000000000000000000000000000000000000000000000000000000000000000000000000000000000000000000000000000000000000000000000000000000000000000000000000000000000000000000000000000000000000000000000000000000000000000000000000000000000000000000000000000000000000000000000000000000000000000000000000000000000000000000000000000000000000000000000000000000000000000000000000000000000000000000000000000000000000000000000000000000000000000000000000000000000000000000000",
            "coinbase" : "0x0000000000000000000000000000000000000000",
            "difficulty" : "0x00",
            "excessBlobGas" : "0x00",
            "extraData" : "0x00",
            "gasLimit" : "0x016345785d8a0000",
            "gasUsed" : "0x00",
            "hash" : "0xe995d23964a71a840320ac21a4e6fc52153e106c2cf552e4e6a295174796befe",
            "mixHash" : "0x0000000000000000000000000000000000000000000000000000000000000000",
            "nonce" : "0x0000000000000000",
            "number" : "0x00",
            "parentBeaconBlockRoot" : "0x0000000000000000000000000000000000000000000000000000000000000000",
            "parentHash" : "0x0000000000000000000000000000000000000000000000000000000000000000",
            "receiptTrie" : "0x56e81f171bcc55a6ff8345e692c0f86e5b48e01b996cadc001622fb5e363b421",
            "stateRoot" : "0x2d41971a40b2fd5fa31e2721d4f02b7c98cc839f1da1765b71046a42b9baad4c",
            "timestamp" : "0x00",
            "transactionsTrie" : "0x56e81f171bcc55a6ff8345e692c0f86e5b48e01b996cadc001622fb5e363b421",
            "uncleHash" : "0x1dcc4de8dec75d7aab85b567b6ccd41ad312451b948a7413f0a142fd40d49347",
            "withdrawalsRoot" : "0x56e81f171bcc55a6ff8345e692c0f86e5b48e01b996cadc001622fb5e363b421"
        },
        "genesisRLP" : "0xf90240f9023aa00000000000000000000000000000000000000000000000000000000000000000a01dcc4de8dec75d7aab85b567b6ccd41ad312451b948a7413f0a142fd40d49347940000000000000000000000000000000000000000a02d41971a40b2fd5fa31e2721d4f02b7c98cc839f1da1765b71046a42b9baad4ca056e81f171bcc55a6ff8345e692c0f86e5b48e01b996cadc001622fb5e363b421a056e81f171bcc55a6ff8345e692c0f86e5b48e01b996cadc001622fb5e363b421b9010000000000000000000000000000000000000000000000000000000000000000000000000000000000000000000000000000000000000000000000000000000000000000000000000000000000000000000000000000000000000000000000000000000000000000000000000000000000000000000000000000000000000000000000000000000000000000000000000000000000000000000000000000000000000000000000000000000000000000000000000000000000000000000000000000000000000000000000000000000000000000000000000000000000000000000000000000000000000000000000000000000000000000000000000000000000808088016345785d8a0000808000a0000000000000000000000000000000000000000000000000000000000000000088000000000000000007a056e81f171bcc55a6ff8345e692c0f86e5b48e01b996cadc001622fb5e363b4218080a00000000000000000000000000000000000000000000000000000000000000000c0c0c0",
        "lastblockhash" : "0x3d20b43f3a3296c7c0003caddecba801a2c1aeace090c5082c1c8cbbcfa64d39",
        "network" : "Cancun",
        "postState" : {
            "0x0000000000000000000000000000000000001000" : {
                "balance" : "0x0de0b6b3a7640000",
                "code" : "0x5b60005c600255601460005d60005c600355",
                "nonce" : "0x01",
                "storage" : {
                    "0x02" : "0xff",
                    "0x03" : "0xff"
                }
            },
            "0x0000000000000000000000000000000000001100" : {
                "balance" : "0x0de0b6b3a7640000",
                "code" : "0x5b600a60005d60006000602060006110005af460015560005c600055",
                "nonce" : "0x01",
                "storage" : {
                    "0x00" : "0x14",
                    "0x01" : "0x01",
                    "0x02" : "0x0a",
                    "0x03" : "0x14"
                }
            },
            "0x000f3df6d732807ef1319fb7b8bb8522d0beac02" : {
                "balance" : "0x00",
                "code" : "0x3373fffffffffffffffffffffffffffffffffffffffe14604d57602036146024575f5ffd5b5f35801560495762001fff810690815414603c575f5ffd5b62001fff01545f5260205ff35b5f5ffd5b62001fff42064281555f359062001fff015500",
                "nonce" : "0x01",
                "storage" : {
                    "0x03e8" : "0x03e8"
                }
            },
            "0x2adc25665018aa1fe0e6bc666dac8fc2697ff9ba" : {
                "balance" : "0x039639",
                "code" : "0x",
                "nonce" : "0x00",
                "storage" : {
                }
            },
            "0xa94f5374fce5edbc8e2a8697c15331677e6ebf0b" : {
                "balance" : "0x6124fee993b00b42",
                "code" : "0x",
                "nonce" : "0x01",
                "storage" : {
                }
            }
        },
        "pre" : {
            "0x0000000000000000000000000000000000001000" : {
                "balance" : "0x0de0b6b3a7640000",
                "code" : "0x5b60005c600255601460005d60005c600355",
                "nonce" : "0x01",
                "storage" : {
                    "0x02" : "0xff",
                    "0x03" : "0xff"
                }
            },
            "0x0000000000000000000000000000000000001100" : {
                "balance" : "0x0de0b6b3a7640000",
                "code" : "0x5b600a60005d60006000602060006110005af460015560005c600055",
                "nonce" : "0x01",
                "storage" : {
                    "0x00" : "0xff",
                    "0x01" : "0xff"
                }
            },
            "0x000f3df6d732807ef1319fb7b8bb8522d0beac02" : {
                "balance" : "0x00",
                "code" : "0x3373fffffffffffffffffffffffffffffffffffffffe14604d57602036146024575f5ffd5b5f35801560495762001fff810690815414603c575f5ffd5b62001fff01545f5260205ff35b5f5ffd5b62001fff42064281555f359062001fff015500",
                "nonce" : "0x01",
                "storage" : {
                }
            },
            "0xa94f5374fce5edbc8e2a8697c15331677e6ebf0b" : {
                "balance" : "0x6124fee993bc0000",
                "code" : "0x",
                "nonce" : "0x00",
                "storage" : {
                }
            }
        },
        "sealEngine" : "NoProof"
    }
}