{
    "tests/cancun/eip1153_tstore/test_tstorage.py::test_run_until_out_of_gas[fork_Cancun-state_test-tstore]": {
        "env": {
            "currentCoinbase": "0x2adc25665018aa1fe0e6bc666dac8fc2697ff9ba",
            "currentGasLimit": "0x016345785d8a0000",
            "currentNumber": "0x01",
            "currentTimestamp": "0x03e8",
            "currentRandom": "0x0000000000000000000000000000000000000000000000000000000000000000",
            "currentDifficulty": "0x00",
            "currentBaseFee": "0x07",
            "currentExcessBlobGas": "0x00"
        },
        "pre": {
            "0xa94f5374fce5edbc8e2a8697c15331677e6ebf0b": {
                "nonce": "0x00",
                "balance": "0x09184e72a000",
                "code": "0x",
                "storage": {}
            },
            "0x000000000000000000000000000000000000c0de": {
                "nonce": "0x00",
                "balance": "0x00",
                "code": "0x5b5a5a5d5a5a5d5a5a5d5a5a5d5a5a5d5a5a5d5a5a5d5a5a5d5a5a5d5a5a5d5a5a5d5a5a5d5a5a5d5a5a5d5a5a5d5a5a5d5a5a5d5a5a5d5a5a5d5a5a5d5a5a5d5a5a5d5a5a5d5a5a5d5a5a5d5a5a5d5a5a5d5a5a5d5a5a5d5a5a5d5a5a5d5a5a5d5a5a5d5a5a5d5a5a5d5a5a5d5a5a5d5a5a5d5a5a5d5a5a5d5a5a5d5a5a5d5a5a5d5a5a5d5a5a5d5a5a5d5a5a5d5a5a5d5a5a5d5a5a5d5a5a5d5a5a5d5a5a5d5a5a5d5a5a5d5a5a5d5a5a5d5a5a5d5a5a5d5a5a5d5a5a5d5a5a5d5a5a5d5a5a5d5a5a5d5a5a5d5a5a5d5a5a5d5a5a5d5a5a5d5a5a5d5a5a5d5a5a5d5a5a5d5a5a5d5a5a5d5a5a5d5a5a5d5a5a5d5a5a5d5a5a5d5a5a5d5a5a5d5a5a5d5a5a5d5a5a5d5a5a5d5a5a5d5a5a5d5a5a5d5a5a5d5a5a5d5a5a5d5a5a5d5a5a5d5a5a5d5a5a5d5a5a5d5a5a5d5a5a5d5a5a5d5a5a5d5a5a5d5a5a5d5a5a5d5a5a5d5a5a5d5a5a5d5a5a5d5a5a5d5a5a5d5a5a5d5a5a5d5a5a5d5a5a5d5a5a5d5a5a5d5a5a5d5a5a5d5a5a5d5a5a5d5a5a5d5a5a5d5a5a5d5a5a5d5a5a5d5a5a5d5a5a5d5a5a5d5a5a5d5a5a5d5a5a5d5a5a5d5a5a5d5a5a5d5a5a5d5a5a5d5a5a5d5a5a5d5a5a5d5a5a5d5a5a5d5a5a5d5a5a5d5a5a5d5a5a5d5a5a5d5a5a5d5a5a5d5a5a5d5a5a5d5a5a5d5a5a5d5a5a5d5a5a5d5a5a5d5a5a5d5a5a5d5a5a5d5a5a5d5a5a5d5a5a5d5a5a5d5a5a5d5a5a5d5a5a5d5a5a5d5a5a5d5a5a5d5a5a5d5a5a5d5a5a5d5a5a5d5a5a5d5a5a5d5a5a5d5a5a5d5a5a5d5a5a5d5a5a5d5a5a5d5a5a5d5a5a5d5a5a5d5a5a5d5a5a5d5a5a5d5a5a5d5a5a5d5a5a5d5a5a5d5a5a5d5a5a5d5a5a5d5a5a5d5a5a5d5a5a5d5a5a5d5a5a5d5a5a5d5a5a5d5a5a5d5a5a5d5a5a5d5a5a5d5a5a5d5a5a5d5a5a5d5a5a5d5a5a5d5a5a5d5a5a5d5a5a5d5a5a5d5a5a5d5a5a5d5a5a5d5a5a5d5a5a5d5a5a5d5a5a5d5a5a5d5a5a5d5a5a5d5a5a5d5a5a5d5a5a5d5a5a5d5a5a5d5a5a5d5a5a5d5a5a5d5a5a5d5a5a5d5a5a5d5a5a5d5a5a5d5a5a5d5a5a5d5a5a5d5a5a5d5a5a5d5a5a5d5a5a5d5a5a5d5a5a5d5a5a5d5a5a5d5a5a5d5a5a5d5a5a5d5a5a5d5a5a5d5a5a5d5a5a5d5a5a5d5a5a5d5a5a5d5a5a5d5a5a5d5a5a5d5a5a5d5a5a5d5a5a5d5a5a5d5a5a5d5a5a5d5a5a5d5a5a5d5a5a5d5a5a5d5a5a5d5a5a5d5a5a5d5a5a5d5a5a5d5a5a5d5a5a5d5a5a5d5a5a5d5a5a5d5a5a5d5a5a5d5a5a5d5a5a5d5a5a5d5a5a5d5a5a5d5a5a5d5a5a5d5a5a5d5a5a5d5a5a5d5a5a5d5a5a5d5a5a5d5a5a5d5a5a5d5a5a5d5a5a5d5a5a5d5a5a5d5a5a5d5a5a5d5a5a5d5a5a5d5a5a5d5a5a5d5a5a5d5a5a5d5a5a5d5a5a5d5a5a5d5a5a5d5a5a5d5a5a5d5a5a5d5a5a5d5a5a5d5a5a5d5a5a5d5a5a5d5a5a5d5a5a5d5a5a5d5a5a5d5a5a5d5a5a5d5a5a5d5a5a5d5a5a5d5a5a5d5a5a5d5a5a5d5a5a5d5a5a5d5a5a5d5a5a5d5a5a5d5a5a5d5a5a5d5a5a5d5a5a5d5a5a5d5a5a5d5a5a5d5a5a5d5a5a5d5a5a5d5a5a5d5a5a5d5a5a5d5a5a5d5a5a5d5a5a5d5a5a5d5a5a5d5a5a5d5a5a5d5a5a5d5a5a5d5a5a5d5a5a5d5a5a5d5a5a5d5a5a5d5a5a5d5a5a5d5a5a5d5a5a5d5a5a5d5a5a5d5a5a5d5a5a5d5a5a5d5a5a5d5a5a5d5a5a5d5a5a5d5a5a5d5a5a5d5a5a5d5a5a5d5a5a5d5a5a5d5a5a5d5a5a5d5a5a5d5a5a5d5a5a5d5a5a5d5a5a5d5a5a5d5a5a5d5a5a5d5a5a5d5a5a5d5a5a5d5a5a5d5a5a5d5a5a5d5a5a5d5a5a5d5a5a5d5a5a5d5a5a5d5a5a5d5a5a5d5a5a5d5a5a5d5a5a5d5a5a5d5a5a5d5a5a5d5a5a5d5a5a5d5a5a5d5a5a5d5a5a5d5a5a5d5a5a5d5a5a5d5a5a5d5a5a5d5a5a5d5a5a5d5a5a5d5a5a5d5a5a5d5a5a5d5a5a5d5a5a5d5a5a5d5a5a5d5a5a5d5a5a5d5a5a5d5a5a5d5a5a5d5a5a5d5a5a5d5a5a5d5a5a5d5a5a5d5a5a5d5a5a5d5a5a5d5a5a5d5a5a5d5a5a5d5a5a5d5a5a5d5a5a5d5a5a5d5a5a5d5a5a5d5a5a5d5a5a5d5a5a5d5a5a5d5a5a5d5a5a5d5a5a5d5a5a5d5a5a5d5a5a5d5a5a5d5a5a5d5a5a5d5a5a5d5a5a5d5a5a5d5a5a5d5a5a5d5a5a5d5a5a5d5a5a5d5a5a5d5a5a5d5a5a5d5a5a5d5a5a5d5a5a5d5a5a5d5a5a5d5a5a5d5a5a5d5a5a5d5a5a5d5a5a5d5a5a5d5a5a5d5a5a5d5a5a5d5a5a5d5a5a5d5a5a5d5a5a5d5a5a5d5a5a5d5a5a5d5a5a5d5a5a5d5a5a5d5a5a5d5a5a5d5a5a5d5a5a5d5a5a5d5a5a5d5a5a5d5a5a5d5a5a5d5a5a5d5a5a5d5a5a5d5a5a5d5a5a5d5a5a5d5a5a5d5a5a5d5a5a5d5a5a5d5a5a5d5a5a5d5a5a5d5a5a5d5a5a5d5a5a5d5a5a5d5a5a5d5a5a5d5a5a5d5a5a5d5a5a5d5a5a5d5a5a5d5a5a5d5a5a5d5a5a5d5a5a5d5a5a5d5a5a5d5a5a5d5a5a5d5a5a5d5a5a5d5a5a5d5a5a5d5a5a5d5a5a5d5a5a5d5a5a5d5a5a5d5a5a5d5a5a5d5a5a5d5a5a5d5a5a5d5a5a5d5a5a5d5a5a5d5a5a5d5a5a5d5a5a5d5a5a5d5a5a5d5a5a5d5a5a5d5a5a5d5a5a5d5a5a5d5a5a5d5a5a5d5a5a5d5a5a5d5a5a5d5a5a5d5a5a5d5a5a5d5a5a5d5a5a5d5a5a5d5a5a5d5a5a5d5a5a5d5a5a5d5a5a5d5a5a5d5a5a5d5a5a5d5a5a5d5a5a5d5a5a5d5a5a5d5a5a5d5a5a5d5a5a5d5a5a5d5a5a5d5a5a5d5a5a5d5a5a5d5a5a5d5a5a5d5a5a5d5a5a5d5a5a5d5a5a5d5a5a5d5a5a5d5a5a5d5a5a5d5a5a5d5a5a5d5a5a5d5a5a5d5a5a5d5a5a5d5a5a5d5a5a5d5a5a5d5a5a5d5a5a5d5a5a5d5a5a5d5a5a5d5a5a5d5a5a5d5a5a5d5a5a5d5a5a5d5a5a5d5a5a5d5a5a5d5a5a5d5a5a5d5a5a5d5a5a5d5a5a5d5a5a5d5a5a5d5a5a5d5a5a5d5a5a5d5a5a5d5a5a5d5a5a5d5a5a5d5a5a5d5a5a5d5a5a5d5a5a5d5a5a5d5a5a5d5a5a5d5a5a5d5a5a5d5a5a5d5a5a5d5a5a5d5a5a5d5a5a5d5a5a5d5a5a5d5a5a5d5a5a5d5a5a5d5a5a5d5a5a5d5a5a5d5a5a5d5a5a5d5a5a5d5a5a5d5a5a5d5a5a5d5a5a5d5a5a5d5a5a5d5a5a5d5a5a5d5a5a5d5a5a5d5a5a5d5a5a5d5a5a5d5a5a5d5a5a5d5a5a5d5a5a5d5a5a5d5a5a5d5a5a5d5a5a5d5a5a5d5a5a5d5a5a5d5a5a5d5a5a5d5a5a5d5a5a5d5a5a5d5a5a5d5a5a5d5a5a5d5a5a5d5a5a5d5a5a5d5a5a5d5a5a5d5a5a5d5a5a5d5a5a5d5a5a5d5a5a5d5a5a5d5a5a5d5a5a5d5a5a5d5a5a5d5a5a5d5a5a5d5a5a5d5a5a5d5a5a5d5a5a5d5a5a5d5a5a5d5a5a5d5a5a5d5a5a5d5a5a5d5a5a5d5a5a5d5a5a5d5a5a5d5a5a5d5a5a5d5a5a5d5a5a5d5a5a5d5a5a5d5a5a5d5a5a5d5a5a5d5a5a5d5a5a5d5a5a5d5a5a5d5a5a5d5a5a5d5a5a5d5a5a5d5a5a5d5a5a5d5a5a5d5a5a5d5a5a5d5a5a5d5a5a5d5a5a5d5a5a5d5a5a5d5a5a5d5a5a5d5a5a5d5a5a5d5a5a5d5a5a5d5a5a5d5a5a5d5a5a5d5a5a5d5a5a5d5a5a5d5a5a5d5a5a5d5a5a5d5a5a5d5a5a5d5a5a5d5a5a5d5a5a5d5a5a5d5a5a5d5a5a5d5a5a5d5a5a5d5a5a5d5a5a5d5a5a5d5a5a5d5a5a5d5a5a5d5a5a5d5a5a5d5a5a5d5a5a5d5a5a5d5a5a5d5a5a5d5a5a5d5a5a5d5a5a5d5a5a5d5a5a5d5a5a5d5a5a5d5a5a5d5a5a5d5a5a5d5a5a5d5a5a5d5a5a5d5a5a5d5a5a5d5a5a5d5a5a5d5a5a5d5a5a5d5a5a5d5a5a5d5a5a5d5a5a5d5a5a5d5a5a5d5a5a5d5a5a5d5a5a5d5a5a5d5a5a5d5a5a5d5a5a5d5a5a5d5a5a5d5a5a5d5a5a5d5a5a5d5a5a5d5a5a5d5a5a5d5a5a5d5a5a5d5a5a5d5a5a5d5a5a5d5a5a5d5a5a5d5a5a5d5a5a5d5a5a5d5a5a5d5a5a5d5a5a5d5a5a5d5a5a5d5a5a5d5a5a5d5a5a5d5a5a5d5a5a5d5a5a5d5a5a5d5a5a5d5a5a5d5a5a5d5a5a5d5a5a5d5a5a5d5a5a5d5a5a5d5a5a5d5a5a5d5a5a5d5a5a5d5a5a5d5a5a5d5a5a5d5a5a5d5a5a5d5a5a5d5a5a5d5a5a5d5a5a5d5a5a5d5a5a5d5a5a5d5a5a5d5a5a5d5a5a5d5a5a5d5a5a5d5a5a5d5a5a5d5a5a5d5a5a5d5a5a5d5a5a5d5a5a5d5a5a5d5a5a5d5a5a5d5a5a5d5a5a5d5a5a5d5a5a5d5a5a5d5a5a5d5a5a5d5a5a5d5a5a5d5a5a5d5a5a5d5a5a5d5a5a5d5a5a5d5a5a5d5a5a5d5a5a5d5a5a5d5a5a5d5a5a5d5a5a5d5a5a5d5a5a5d5a5a5d5a5a5d5a5a5d5a5a5d5a5a5d5a5a5d5a5a5d5a5a5d5a5a5d5a5a5d5a5a5d5a5a5d5a5a5d5a5a5d5a5a5d5a5a5d5a5a5d5a5a5d5a5a5d5a5a5d5a5a5d5a5a5d5a5a5d5a5a5d5a5a5d5a5a5d5a5a5d5a5a5d5a5a5d5a5a5d5a5a5d5a5a5d5a5a5d5a5a5d5a5a5d5a5a5d5a5a5d5a5a5d5a5a5d5a5a5d5a5a5d5a5a5d5a5a5d5a5a5d5a5a5d5a5a5d5a5a5d5a5a5d5a5a5d5a5a5d5a5a5d5a5a5d5a5a5d5a5a5d5a5a5d5a5a5d5a5a5d5a5a5d5a5a5d5a5a5d5a5a5d5a5a5d5a5a5d5a5a5d5a5a5d5a5a5d5a5a5d5a5a5d5a5a5d5a5a5d5a5a5d5a5a5d5a5a5d5a5a5d5f56",
                "storage": {}
            }
        },
        "transaction": {
            "nonce": "0x00",
            "gasPrice": "0x0a",
            "gasLimit": [
                "0x01c9c380"
            ],
            "to": "0x000000000000000000000000000000000000c0de",
            "value": [
                "0x00"
            ],
            "data": [
                "0x"
            ],
            "sender": "0xa94f5374fce5edbc8e2a8697c15331677e6ebf0b",
            "secretKey": "0x45a915e4d060149eb4365960e6a7a45f334393093061116b197e3240065ff2d8"
        },
        "post": {
            "Cancun": [
                {
                    "hash": "0x4197e9f57d08b2d3e69083caa65d46177dd9c0711c1f0c72eddb97afb3f827ff",
                    "logs": "0x1dcc4de8dec75d7aab85b567b6ccd41ad312451b948a7413f0a142fd40d49347",
                    "txbytes": "0xf860800a8401c9c38094000000000000000000000000000000000000c0de8080269ff8c6eafae37baa5d6dc3fe4a12f1c7db9708a5c90b0db6dadf823d88b0ef7ea0263baf508bebb30c00169dcbae803a5cebf601ae1a2e1d3e558bb3b59b5d435e",
                    "indexes": {
                        "data": 0,
                        "gas": 0,
                        "value": 0
                    }
                }
            ]
        },
        "_info": {
            "hash": "0x8b3ab4dd540526958f474024073af6332b6ab71a5a17ab1bfacd2c108ffc614f",
            "comment": "`execution-spec-tests` generated test",
            "filling-transition-tool": "evm version 1.13.14-stable",
            "reference-spec": "https://github.com/ethereum/EIPs/blob/master/EIPS/eip-1153.md",
            "reference-spec-version": "6f0be621c76a05a7b3aaf0e9297afd425c26e9d0"
        }
    },
    "tests/cancun/eip1153_tstore/test_tstorage.py::test_run_until_out_of_gas[fork_Cancun-state_test-tstore_wide_address_space]": {
        "env": {
            "currentCoinbase": "0x2adc25665018aa1fe0e6bc666dac8fc2697ff9ba",
            "currentGasLimit": "0x016345785d8a0000",
            "currentNumber": "0x01",
            "currentTimestamp": "0x03e8",
            "currentRandom": "0x0000000000000000000000000000000000000000000000000000000000000000",
            "currentDifficulty": "0x00",
            "currentBaseFee": "0x07",
            "currentExcessBlobGas": "0x00"
        },
        "pre": {
            "0xa94f5374fce5edbc8e2a8697c15331677e6ebf0b": {
                "nonce": "0x00",
                "balance": "0x09184e72a000",
                "code": "0x",
                "storage": {}
            },
            "0x000000000000000000000000000000000000c0de": {
                "nonce": "0x00",
                "balance": "0x00",
                "code": "0x5b5a5a6001581b015d5a5a6001581b015d5a5a6001581b015d5a5a6001581b015d5a5a6001581b015d5a5a6001581b015d5a5a6001581b015d5a5a6001581b015d5a5a6001581b015d5a5a6001581b015d5a5a6001581b015d5a5a6001581b015d5a5a6001581b015d5a5a6001581b015d5a5a6001581b015d5a5a6001581b015d5a5a6001581b015d5a5a6001581b015d5a5a6001581b015d5a5a6001581b015d5a5a6001581b015d5a5a6001581b015d5a5a6001581b015d5a5a6001581b015d5a5a6001581b015d5a5a6001581b015d5a5a6001581b015d5a5a6001581b015d5a5a6001581b015d5a5a6001581b015d5a5a6001581b015d5a5a6001581b015d5f56",
                "storage": {}
            }
        },
        "transaction": {
            "nonce": "0x00",
            "gasPrice": "0x0a",
            "gasLimit": [
                "0x01c9c380"
            ],
            "to": "0x000000000000000000000000000000000000c0de",
            "value": [
                "0x00"
            ],
            "data": [
                "0x"
            ],
            "sender": "0xa94f5374fce5edbc8e2a8697c15331677e6ebf0b",
            "secretKey": "0x45a915e4d060149eb4365960e6a7a45f334393093061116b197e3240065ff2d8"
        },
        "post": {
            "Cancun": [
                {
                    "hash": "0x3a1f6f876234027c89391e39d7e86847bb460fed00d1cd446f57124f9d095b91",
                    "logs": "0x1dcc4de8dec75d7aab85b567b6ccd41ad312451b948a7413f0a142fd40d49347",
                    "txbytes": "0xf860800a8401c9c38094000000000000000000000000000000000000c0de8080269ff8c6eafae37baa5d6dc3fe4a12f1c7db9708a5c90b0db6dadf823d88b0ef7ea0263baf508bebb30c00169dcbae803a5cebf601ae1a2e1d3e558bb3b59b5d435e",
                    "indexes": {
                        "data": 0,
                        "gas": 0,
                        "value": 0
                    }
                }
            ]
        },
        "_info": {
            "hash": "0x395bd236dd305b3cbbe70e68f519554324a6d9fa9cd22c77b4f39c205269d54a",
            "comment": "`execution-spec-tests` generated test",
            "filling-transition-tool": "evm version 1.13.14-stable",
            "reference-spec": "https://github.com/ethereum/EIPs/blob/master/EIPS/eip-1153.md",
            "reference-spec-version": "6f0be621c76a05a7b3aaf0e9297afd425c26e9d0"
        }
    },
    "tests/cancun/eip1153_tstore/test_tstorage.py::test_run_until_out_of_gas[fork_Cancun-state_test-tstore_tload]": {
        "env": {
            "currentCoinbase": "0x2adc25665018aa1fe0e6bc666dac8fc2697ff9ba",
            "currentGasLimit": "0x016345785d8a0000",
            "currentNumber": "0x01",
            "currentTimestamp": "0x03e8",
            "currentRandom": "0x0000000000000000000000000000000000000000000000000000000000000000",
            "currentDifficulty": "0x00",
            "currentBaseFee": "0x07",
            "currentExcessBlobGas": "0x00"
        },
        "pre": {
            "0xa94f5374fce5edbc8e2a8697c15331677e6ebf0b": {
                "nonce": "0x00",
                "balance": "0x09184e72a000",
                "code": "0x",
                "storage": {}
            },
            "0x000000000000000000000000000000000000c0de": {
                "nonce": "0x00",
                "balance": "0x00",
                "code": "0x5b5a80805d5c505a80805d5c505a80805d5c505a80805d5c505a80805d5c505a80805d5c505a80805d5c505a80805d5c505a80805d5c505a80805d5c505a80805d5c505a80805d5c505a80805d5c505a80805d5c505a80805d5c505a80805d5c505a80805d5c505a80805d5c505a80805d5c505a80805d5c505a80805d5c505a80805d5c505a80805d5c505a80805d5c505a80805d5c505a80805d5c505a80805d5c505a80805d5c505a80805d5c505a80805d5c505a80805d5c505a80805d5c505a80805d5c505a80805d5c505a80805d5c505a80805d5c505a80805d5c505a80805d5c505a80805d5c505a80805d5c505a80805d5c505a80805d5c505a80805d5c505a80805d5c505a80805d5c505a80805d5c505a80805d5c505a80805d5c505a80805d5c505a80805d5c505a80805d5c505a80805d5c505a80805d5c505a80805d5c505a80805d5c505a80805d5c505a80805d5c505a80805d5c505a80805d5c505a80805d5c505a80805d5c505a80805d5c505a80805d5c505a80805d5c505a80805d5c505a80805d5c505a80805d5c505a80805d5c505a80805d5c505a80805d5c505a80805d5c505a80805d5c505a80805d5c505a80805d5c505a80805d5c505a80805d5c505a80805d5c505a80805d5c505a80805d5c505a80805d5c505a80805d5c505a80805d5c505a80805d5c505a80805d5c505a80805d5c505a80805d5c505a80805d5c505a80805d5c505a80805d5c505a80805d5c505a80805d5c505a80805d5c505a80805d5c505a80805d5c505a80805d5c505a80805d5c505a80805d5c505a80805d5c505a80805d5c505a80805d5c505a80805d5c505a80805d5c505a80805d5c505a80805d5c505a80805d5c505a80805d5c505a80805d5c505a80805d5c505a80805d5c505a80805d5c505a80805d5c505a80805d5c505a80805d5c505a80805d5c505a80805d5c505a80805d5c505a80805d5c505a80805d5c505a80805d5c505a80805d5c505a80805d5c505a80805d5c505a80805d5c505a80805d5c505a80805d5c505a80805d5c505a80805d5c505a80805d5c505a80805d5c505a80805d5c505a80805d5c505a80805d5c505a80805d5c505a80805d5c505a80805d5c505a80805d5c505a80805d5c505a80805d5c505a80805d5c505a80805d5c505a80805d5c505a80805d5c505a80805d5c505a80805d5c505a80805d5c505a80805d5c505a80805d5c505a80805d5c505a80805d5c505a80805d5c505a80805d5c505a80805d5c505a80805d5c505a80805d5c505a80805d5c505a80805d5c505a80805d5c505a80805d5c505a80805d5c505a80805d5c505a80805d5c505a80805d5c505a80805d5c505a80805d5c505a80805d5c505a80805d5c505a80805d5c505a80805d5c505a80805d5c505a80805d5c505a80805d5c505a80805d5c505a80805d5c505a80805d5c505a80805d5c505a80805d5c505a80805d5c505a80805d5c505a80805d5c505a80805d5c505a80805d5c505a80805d5c505a80805d5c505a80805d5c505a80805d5c505a80805d5c505a80805d5c505a80805d5c505a80805d5c505a80805d5c505a80805d5c505a80805d5c505a80805d5c505a80805d5c505a80805d5c505a80805d5c505a80805d5c505a80805d5c505a80805d5c505a80805d5c505a80805d5c505a80805d5c505a80805d5c505a80805d5c505a80805d5c505a80805d5c505a80805d5c505a80805d5c505a80805d5c505a80805d5c505a80805d5c505a80805d5c505a80805d5c505a80805d5c505a80805d5c505a80805d5c505a80805d5c505a80805d5c505a80805d5c505a80805d5c505a80805d5c505a80805d5c505a80805d5c505a80805d5c505a80805d5c505a80805d5c505a80805d5c505a80805d5c505a80805d5c505a80805d5c505a80805d5c505a80805d5c505a80805d5c505a80805d5c505a80805d5c505a80805d5c505a80805d5c505a80805d5c505a80805d5c505a80805d5c505a80805d5c505a80805d5c505a80805d5c505a80805d5c505a80805d5c505a80805d5c505a80805d5c505a80805d5c505a80805d5c505a80805d5c505a80805d5c505a80805d5c505a80805d5c505a80805d5c505a80805d5c505a80805d5c505a80805d5c505a80805d5c505a80805d5c505a80805d5c505a80805d5c505a80805d5c505a80805d5c505a80805d5c505a80805d5c505a80805d5c505a80805d5c505a80805d5c505a80805d5c505a80805d5c505a80805d5c505a80805d5c505a80805d5c505a80805d5c505a80805d5c505a80805d5c505a80805d5c505a80805d5c505a80805d5c505a80805d5c505a80805d5c505a80805d5c505a80805d5c505a80805d5c505a80805d5c505a80805d5c505a80805d5c505a80805d5c505a80805d5c505a80805d5c505a80805d5c505a80805d5c505a80805d5c505a80805d5c505a80805d5c505a80805d5c505a80805d5c505a80805d5c505a80805d5c505a80805d5c505a80805d5c505a80805d5c505a80805d5c505a80805d5c505a80805d5c505a80805d5c505a80805d5c505a80805d5c505a80805d5c505a80805d5c505a80805d5c505a80805d5c505a80805d5c505a80805d5c505a80805d5c505a80805d5c505a80805d5c505a80805d5c505a80805d5c505a80805d5c505a80805d5c505a80805d5c505a80805d5c505a80805d5c505a80805d5c505a80805d5c505a80805d5c505a80805d5c505a80805d5c505a80805d5c505a80805d5c505a80805d5c505a80805d5c505a80805d5c505a80805d5c505a80805d5c505a80805d5c505a80805d5c505a80805d5c505a80805d5c505a80805d5c505a80805d5c505a80805d5c505a80805d5c505a80805d5c505a80805d5c505a80805d5c505a80805d5c505a80805d5c505a80805d5c505a80805d5c505a80805d5c505a80805d5c505a80805d5c505a80805d5c505a80805d5c505a80805d5c505a80805d5c505a80805d5c505a80805d5c505a80805d5c505a80805d5c505a80805d5c505a80805d5c505a80805d5c505a80805d5c505a80805d5c505a80805d5c505a80805d5c505a80805d5c505a80805d5c505a80805d5c505a80805d5c505a80805d5c505a80805d5c505a80805d5c505a80805d5c505a80805d5c505a80805d5c505a80805d5c505a80805d5c505a80805d5c505a80805d5c505a80805d5c505a80805d5c505a80805d5c505a80805d5c505a80805d5c505a80805d5c505a80805d5c505a80805d5c505a80805d5c505a80805d5c505a80805d5c505a80805d5c505a80805d5c505a80805d5c505a80805d5c505a80805d5c505a80805d5c505a80805d5c505a80805d5c505a80805d5c505a80805d5c505a80805d5c505a80805d5c505a80805d5c505a80805d5c505a80805d5c505a80805d5c505a80805d5c505a80805d5c505a80805d5c505a80805d5c505a80805d5c505a80805d5c505a80805d5c505a80805d5c505a80805d5c505a80805d5c505a80805d5c505a80805d5c505a80805d5c505a80805d5c505a80805d5c505a80805d5c505a80805d5c505a80805d5c505a80805d5c505a80805d5c505a80805d5c505a80805d5c505a80805d5c505a80805d5c505a80805d5c505a80805d5c505a80805d5c505a80805d5c505a80805d5c505a80805d5c505a80805d5c505a80805d5c505a80805d5c505a80805d5c505a80805d5c505a80805d5c505a80805d5c505a80805d5c505a80805d5c505a80805d5c505a80805d5c505a80805d5c505a80805d5c505a80805d5c505a80805d5c505a80805d5c505a80805d5c505a80805d5c505a80805d5c505a80805d5c505a80805d5c505a80805d5c505a80805d5c505a80805d5c505a80805d5c505a80805d5c505a80805d5c505a80805d5c505a80805d5c505a80805d5c505a80805d5c505a80805d5c505a80805d5c505a80805d5c505a80805d5c505a80805d5c505a80805d5c505a80805d5c505a80805d5c505a80805d5c505a80805d5c505a80805d5c505a80805d5c505a80805d5c505a80805d5c505a80805d5c505a80805d5c505a80805d5c505a80805d5c505a80805d5c505a80805d5c505a80805d5c505a80805d5c505a80805d5c505a80805d5c505a80805d5c505a80805d5c505a80805d5c505a80805d5c505a80805d5c505a80805d5c505a80805d5c505a80805d5c505a80805d5c505a80805d5c505a80805d5c505a80805d5c505a80805d5c505a80805d5c505a80805d5c505a80805d5c505a80805d5c505a80805d5c505a80805d5c505a80805d5c505a80805d5c505a80805d5c505a80805d5c505a80805d5c505a80805d5c505a80805d5c505a80805d5c505a80805d5c505a80805d5c505a80805d5c505a80805d5c505a80805d5c505a80805d5c505a80805d5c505a80805d5c505a80805d5c505a80805d5c505a80805d5c505a80805d5c505a80805d5c505a80805d5c505a80805d5c505a80805d5c505a80805d5c505a80805d5c505a80805d5c505a80805d5c505a80805d5c505a80805d5c505a80805d5c505a80805d5c505a80805d5c505a80805d5c505a80805d5c505a80805d5c505a80805d5c505a80805d5c505a80805d5c505a80805d5c505a80805d5c505a80805d5c505a80805d5c505a80805d5c505a80805d5c505a80805d5c505a80805d5c505a80805d5c505a80805d5c505a80805d5c505a80805d5c505a80805d5c505a80805d5c505a80805d5c505a80805d5c505a80805d5c505a80805d5c505a80805d5c505a80805d5c505a80805d5c505a80805d5c505a80805d5c505a80805d5c505a80805d5c505a80805d5c505a80805d5c505a80805d5c505a80805d5c505a80805d5c505a80805d5c505a80805d5c505a80805d5c505a80805d5c505a80805d5c505a80805d5c505a80805d5c505a80805d5c505a80805d5c505a80805d5c505a80805d5c505a80805d5c505a80805d5c505a80805d5c505a80805d5c505a80805d5c505a80805d5c505a80805d5c505a80805d5c505a80805d5c505a80805d5c505a80805d5c505a80805d5c505a80805d5c505a80805d5c505a80805d5c505a80805d5c505a80805d5c505a80805d5c505a80805d5c505a80805d5c505a80805d5c505a80805d5c505a80805d5c505a80805d5c505a80805d5c505a80805d5c505a80805d5c505a80805d5c505a80805d5c505a80805d5c505a80805d5c505a80805d5c505a80805d5c505a80805d5c505a80805d5c505a80805d5c505a80805d5c505a80805d5c505a80805d5c505a80805d5c505a80805d5c505a80805d5c505a80805d5c505a80805d5c505a80805d5c505a80805d5c505a80805d5c505a80805d5c505a80805d5c505a80805d5c505a80805d5c505a80805d5c505a80805d5c505a80805d5c505a80805d5c505a80805d5c505a80805d5c505a80805d5c505a80805d5c505a80805d5c505a80805d5c505a80805d5c505a80805d5c505a80805d5c505a80805d5c505a80805d5c505a80805d5c505a80805d5c505a80805d5c505a80805d5c505a80805d5c505a80805d5c505a80805d5c505a80805d5c505a80805d5c505a80805d5c505a80805d5c505a80805d5c505a80805d5c505a80805d5c505a80805d5c505a80805d5c505a80805d5c505a80805d5c505a80805d5c505a80805d5c505a80805d5c505a80805d5c505a80805d5c505a80805d5c505a80805d5c505a80805d5c505a80805d5c505a80805d5c505a80805d5c505a80805d5c505a80805d5c505a80805d5c505a80805d5c505a80805d5c505a80805d5c505a80805d5c505a80805d5c505a80805d5c505a80805d5c505a80805d5c505a80805d5c505a80805d5c505a80805d5c505a80805d5c505a80805d5c505a80805d5c505a80805d5c505a80805d5c505a80805d5c505a80805d5c505a80805d5c505a80805d5c505a80805d5c505a80805d5c505a80805d5c505a80805d5c505a80805d5c505a80805d5c505a80805d5c505a80805d5c505a80805d5c505a80805d5c505a80805d5c505a80805d5c505a80805d5c505a80805d5c505a80805d5c505a80805d5c505a80805d5c505a80805d5c505a80805d5c505a80805d5c505a80805d5c505a80805d5c505a80805d5c505a80805d5c505a80805d5c505a80805d5c505a80805d5c505a80805d5c505a80805d5c505a80805d5c505a80805d5c505a80805d5c505a80805d5c505a80805d5c505a80805d5c505a80805d5c505a80805d5c505a80805d5c505a80805d5c505a80805d5c505a80805d5c505a80805d5c505a80805d5c505a80805d5c505a80805d5c505a80805d5c505a80805d5c505a80805d5c505a80805d5c505a80805d5c505a80805d5c505a80805d5c505a80805d5c505a80805d5c505a80805d5c505a80805d5c505a80805d5c505a80805d5c505a80805d5c505a80805d5c505a80805d5c505a80805d5c505a80805d5c505a80805d5c505a80805d5c505a80805d5c505a80805d5c505a80805d5c505a80805d5c505a80805d5c505a80805d5c505a80805d5c505a80805d5c505a80805d5c505a80805d5c505a80805d5c505a80805d5c505a80805d5c505a80805d5c505a80805d5c505a80805d5c505a80805d5c505a80805d5c505a80805d5c505a80805d5c505a80805d5c505a80805d5c505a80805d5c505a80805d5c505a80805d5c505a80805d5c505a80805d5c505a80805d5c505a80805d5c505a80805d5c505a80805d5c505a80805d5c505a80805d5c505a80805d5c505a80805d5c505a80805d5c505a80805d5c505a80805d5c505a80805d5c505a80805d5c505a80805d5c505a80805d5c505a80805d5c505a80805d5c505a80805d5c505a80805d5c505a80805d5c505a80805d5c505a80805d5c505a80805d5c505a80805d5c505a80805d5c505a80805d5c505a80805d5c505a80805d5c505a80805d5c505a80805d5c505a80805d5c505a80805d5c505a80805d5c505a80805d5c505a80805d5c505a80805d5c505a80805d5c505a80805d5c505a80805d5c505a80805d5c505a80805d5c505a80805d5c505a80805d5c505a80805d5c505a80805d5c505a80805d5c505a80805d5c505a80805d5c505a80805d5c505a80805d5c505a80805d5c505a80805d5c505a80805d5c505a80805d5c505a80805d5c505a80805d5c505a80805d5c505a80805d5c505a80805d5c505a80805d5c505a80805d5c505a80805d5c505a80805d5c505a80805d5c505a80805d5c505a80805d5c505a80805d5c505a80805d5c505a80805d5c505a80805d5c505a80805d5c505a80805d5c505a80805d5c505a80805d5c505a80805d5c505a80805d5c505a80805d5c505a80805d5c505a80805d5c505a80805d5c505a80805d5c505a80805d5c505a80805d5c505a80805d5c505a80805d5c505a80805d5c505a80805d5c505a80805d5c505a80805d5c505a80805d5c505a80805d5c505a80805d5c505a80805d5c505a80805d5c505a80805d5c505a80805d5c505a80805d5c505a80805d5c505a80805d5c505a80805d5c505a80805d5c505a80805d5c505a80805d5c505a80805d5c505a80805d5c505a80805d5c505a80805d5c505a80805d5c505a80805d5c505a80805d5c505a80805d5c505a80805d5c505a80805d5c505a80805d5c505a80805d5c505a80805d5c505a80805d5c505a80805d5c505a80805d5c505a80805d5c505a80805d5c505a80805d5c505a80805d5c505a80805d5c505a80805d5c505a80805d5c505a80805d5c505a80805d5c505a80805d5c505a80805d5c505a80805d5c505a80805d5c505a80805d5c505a80805d5c505a80805d5c505a80805d5c505a80805d5c505a80805d5c505a80805d5c505a80805d5c505a80805d5c505a80805d5c505a80805d5c505a80805d5c505a80805d5c505a80805d5c505a80805d5c505a80805d5c505a80805d5c505a80805d5c505a80805d5c505a80805d5c505a80805d5c505a80805d5c505a80805d5c505a80805d5c505a80805d5c505a80805d5c505a80805d5c505a80805d5c505a80805d5c505a80805d5c505a80805d5c505a80805d5c505a80805d5c505a80805d5c505a80805d5c505a80805d5c505a80805d5c505a80805d5c505a80805d5c505a80805d5c505a80805d5c505a80805d5c505a80805d5c505a80805d5c505a80805d5c505a80805d5c505a80805d5c505a80805d5c505a80805d5c505a80805d5c505a80805d5c505a80805d5c505a80805d5c505a80805d5c505a80805d5c505a80805d5c505a80805d5c505a80805d5c505a80805d5c505a80805d5c505a80805d5c505a80805d5c505a80805d5c505a80805d5c505f56",
                "storage": {}
            }
        },
        "transaction": {
            "nonce": "0x00",
            "gasPrice": "0x0a",
            "gasLimit": [
                "0x01c9c380"
            ],
            "to": "0x000000000000000000000000000000000000c0de",
            "value": [
                "0x00"
            ],
            "data": [
                "0x"
            ],
            "sender": "0xa94f5374fce5edbc8e2a8697c15331677e6ebf0b",
            "secretKey": "0x45a915e4d060149eb4365960e6a7a45f334393093061116b197e3240065ff2d8"
        },
        "post": {
            "Cancun": [
                {
                    "hash": "0xb6b0d83dd12b7c1765f4a71fc1c9e5ea6494563d39b760d6a2db84df5f08cab0",
                    "logs": "0x1dcc4de8dec75d7aab85b567b6ccd41ad312451b948a7413f0a142fd40d49347",
                    "txbytes": "0xf860800a8401c9c38094000000000000000000000000000000000000c0de8080269ff8c6eafae37baa5d6dc3fe4a12f1c7db9708a5c90b0db6dadf823d88b0ef7ea0263baf508bebb30c00169dcbae803a5cebf601ae1a2e1d3e558bb3b59b5d435e",
                    "indexes": {
                        "data": 0,
                        "gas": 0,
                        "value": 0
                    }
                }
            ]
        },
        "_info": {
            "hash": "0xd6f0fb07c60a690cdf232178aea1dbc54505760a847e6707737da834b1e22882",
            "comment": "`execution-spec-tests` generated test",
            "filling-transition-tool": "evm version 1.13.14-stable",
            "reference-spec": "https://github.com/ethereum/EIPs/blob/master/EIPS/eip-1153.md",
            "reference-spec-version": "6f0be621c76a05a7b3aaf0e9297afd425c26e9d0"
        }
    }
}