{
    "tests/shanghai/eip4895_withdrawals/test_withdrawals.py::test_no_evm_execution[fork_Shanghai-blockchain_test]": {
        "network": "Shanghai",
        "genesisBlockHeader": {
            "parentHash": "0x0000000000000000000000000000000000000000000000000000000000000000",
            "uncleHash": "0x1dcc4de8dec75d7aab85b567b6ccd41ad312451b948a7413f0a142fd40d49347",
            "coinbase": "0x0000000000000000000000000000000000000000",
            "stateRoot": "0xe5aeca3d242eeb8d07f1d0cae43de29158499c1fe61e7ac50263d416de0ce0b9",
            "transactionsTrie": "0x56e81f171bcc55a6ff8345e692c0f86e5b48e01b996cadc001622fb5e363b421",
            "receiptTrie": "0x56e81f171bcc55a6ff8345e692c0f86e5b48e01b996cadc001622fb5e363b421",
            "bloom": "0x00000000000000000000000000000000000000000000000000000000000000000000000000000000000000000000000000000000000000000000000000000000000000000000000000000000000000000000000000000000000000000000000000000000000000000000000000000000000000000000000000000000000000000000000000000000000000000000000000000000000000000000000000000000000000000000000000000000000000000000000000000000000000000000000000000000000000000000000000000000000000000000000000000000000000000000000000000000000000000000000000000000000000000000000000000000",
            "difficulty": "0x00",
            "number": "0x00",
            "gasLimit": "0x016345785d8a0000",
            "gasUsed": "0x00",
            "timestamp": "0x00",
            "extraData": "0x00",
            "mixHash": "0x0000000000000000000000000000000000000000000000000000000000000000",
            "nonce": "0x0000000000000000",
            "baseFeePerGas": "0x07",
            "withdrawalsRoot": "0x56e81f171bcc55a6ff8345e692c0f86e5b48e01b996cadc001622fb5e363b421",
            "hash": "0xe1b16b4d445b817ce6ba6ac961cafa472202bf2b8ba31855d6632faf55319730"
        },
        "pre": {
            "0xa94f5374fce5edbc8e2a8697c15331677e6ebf0b": {
                "nonce": "0x00",
                "balance": "0x3635c9adc5dea00000",
                "code": "0x",
                "storage": {}
            },
            "0x0000000000000000000000000000000000001000": {
                "nonce": "0x00",
                "balance": "0x00",
                "code": "0x60014355",
                "storage": {}
            },
            "0x0000000000000000000000000000000000002000": {
                "nonce": "0x00",
                "balance": "0x00",
                "code": "0x60014355",
                "storage": {}
            },
            "0x0000000000000000000000000000000000003000": {
                "nonce": "0x00",
                "balance": "0x00",
                "code": "0x60014355",
                "storage": {}
            },
            "0x0000000000000000000000000000000000004000": {
                "nonce": "0x00",
                "balance": "0x00",
                "code": "0x60014355",
                "storage": {}
            }
        },
        "postState": {
            "0x0000000000000000000000000000000000001000": {
                "nonce": "0x00",
                "balance": "0x3b9aca00",
                "code": "0x60014355",
                "storage": {
                    "0x02": "0x01"
                }
            },
            "0x0000000000000000000000000000000000002000": {
                "nonce": "0x00",
                "balance": "0x3b9aca00",
                "code": "0x60014355",
                "storage": {
                    "0x02": "0x01"
                }
            },
            "0x0000000000000000000000000000000000003000": {
                "nonce": "0x00",
                "balance": "0x3b9aca00",
                "code": "0x60014355",
                "storage": {
                    "0x01": "0x01"
                }
            },
            "0x0000000000000000000000000000000000004000": {
                "nonce": "0x00",
                "balance": "0x3b9aca00",
                "code": "0x60014355",
                "storage": {
                    "0x01": "0x01"
                }
            },
            "0x2adc25665018aa1fe0e6bc666dac8fc2697ff9ba": {
                "nonce": "0x00",
                "balance": "0x07e48c",
                "code": "0x",
                "storage": {}
            },
            "0xa94f5374fce5edbc8e2a8697c15331677e6ebf0b": {
                "nonce": "0x04",
                "balance": "0x3635c9adc5de85b0d8",
                "code": "0x",
                "storage": {}
            }
        },
        "genesisRLP": "0xf9021df90217a00000000000000000000000000000000000000000000000000000000000000000a01dcc4de8dec75d7aab85b567b6ccd41ad312451b948a7413f0a142fd40d49347940000000000000000000000000000000000000000a0e5aeca3d242eeb8d07f1d0cae43de29158499c1fe61e7ac50263d416de0ce0b9a056e81f171bcc55a6ff8345e692c0f86e5b48e01b996cadc001622fb5e363b421a056e81f171bcc55a6ff8345e692c0f86e5b48e01b996cadc001622fb5e363b421b9010000000000000000000000000000000000000000000000000000000000000000000000000000000000000000000000000000000000000000000000000000000000000000000000000000000000000000000000000000000000000000000000000000000000000000000000000000000000000000000000000000000000000000000000000000000000000000000000000000000000000000000000000000000000000000000000000000000000000000000000000000000000000000000000000000000000000000000000000000000000000000000000000000000000000000000000000000000000000000000000000000000000000000000000000000000000808088016345785d8a0000808000a0000000000000000000000000000000000000000000000000000000000000000088000000000000000007a056e81f171bcc55a6ff8345e692c0f86e5b48e01b996cadc001622fb5e363b421c0c0c0",
        "blocks": [
            {
                "blockHeader": {
                    "parentHash": "0xe1b16b4d445b817ce6ba6ac961cafa472202bf2b8ba31855d6632faf55319730",
                    "uncleHash": "0x1dcc4de8dec75d7aab85b567b6ccd41ad312451b948a7413f0a142fd40d49347",
                    "coinbase": "0x2adc25665018aa1fe0e6bc666dac8fc2697ff9ba",
                    "stateRoot": "0xf33d22ef0134837dc002f60e9bf0dd891ea5e45f1dda331b4f4fbfd61c2e9cc6",
                    "transactionsTrie": "0x221c94aadd730613b74ad39ef48364c28922f89b3ef926825aa6120a51c9964b",
                    "receiptTrie": "0x565dbae32920fdc51f307a7eae972eed4f68bf2fa895f24169f0623ef1b6d66c",
                    "bloom": "0x00000000000000000000000000000000000000000000000000000000000000000000000000000000000000000000000000000000000000000000000000000000000000000000000000000000000000000000000000000000000000000000000000000000000000000000000000000000000000000000000000000000000000000000000000000000000000000000000000000000000000000000000000000000000000000000000000000000000000000000000000000000000000000000000000000000000000000000000000000000000000000000000000000000000000000000000000000000000000000000000000000000000000000000000000000000",
                    "difficulty": "0x00",
                    "number": "0x01",
                    "gasLimit": "0x016345785d8a0000",
                    "gasUsed": "0x0150c2",
                    "timestamp": "0x0c",
                    "extraData": "0x",
                    "mixHash": "0x0000000000000000000000000000000000000000000000000000000000000000",
                    "nonce": "0x0000000000000000",
                    "baseFeePerGas": "0x07",
                    "withdrawalsRoot": "0x80871c440d5d9ad05a7e2a4e133f451920f9495e95ecf19c0f43c6528380fb80",
                    "hash": "0xd2b40971191ea55b9dde584a5d88c84e08af9976bada057cecdabc7c207495a1"
                },
                "transactions": [
                    {
                        "type": "0x00",
                        "chainId": "0x01",
                        "nonce": "0x00",
                        "gasPrice": "0x0a",
                        "gasLimit": "0x0186a0",
                        "to": "0x0000000000000000000000000000000000003000",
                        "value": "0x00",
                        "data": "0x",
                        "v": "0x25",
                        "r": "0x08fa639ad915eb1d9c2d3e5957304921a91b9b099de6307ec8c95d121d3034d3",
                        "s": "0x213eae4b7b0b378c6002580ef781e5bdc57229df9a326447750bc6725ee7ed31",
                        "sender": "0xa94f5374fce5edbc8e2a8697c15331677e6ebf0b"
                    },
                    {
                        "type": "0x00",
                        "chainId": "0x01",
                        "nonce": "0x01",
                        "gasPrice": "0x0a",
                        "gasLimit": "0x0186a0",
                        "to": "0x0000000000000000000000000000000000004000",
                        "value": "0x00",
                        "data": "0x",
                        "v": "0x26",
                        "r": "0xf1ed67cec897c5ad20a32f1a6afda57626b01cc969ed60af337639e05baefc11",
                        "s": "0x18cdfac4e51cf7b16950fd3cb540a07c5a7c965c9f0b41d66645fc8c889560f0",
                        "sender": "0xa94f5374fce5edbc8e2a8697c15331677e6ebf0b"
                    }
                ],
                "uncleHeaders": [],
                "withdrawals": [
                    {
                        "index": "0x00",
                        "validatorIndex": "0x00",
                        "address": "0x0000000000000000000000000000000000001000",
                        "amount": "0x01"
                    },
                    {
                        "index": "0x01",
                        "validatorIndex": "0x01",
                        "address": "0x0000000000000000000000000000000000002000",
                        "amount": "0x01"
                    }
                ],
                "rlp": "0xf90317f9021aa0e1b16b4d445b817ce6ba6ac961cafa472202bf2b8ba31855d6632faf55319730a01dcc4de8dec75d7aab85b567b6ccd41ad312451b948a7413f0a142fd40d49347942adc25665018aa1fe0e6bc666dac8fc2697ff9baa0f33d22ef0134837dc002f60e9bf0dd891ea5e45f1dda331b4f4fbfd61c2e9cc6a0221c94aadd730613b74ad39ef48364c28922f89b3ef926825aa6120a51c9964ba0565dbae32920fdc51f307a7eae972eed4f68bf2fa895f24169f0623ef1b6d66cb9010000000000000000000000000000000000000000000000000000000000000000000000000000000000000000000000000000000000000000000000000000000000000000000000000000000000000000000000000000000000000000000000000000000000000000000000000000000000000000000000000000000000000000000000000000000000000000000000000000000000000000000000000000000000000000000000000000000000000000000000000000000000000000000000000000000000000000000000000000000000000000000000000000000000000000000000000000000000000000000000000000000000000000000000000000000000800188016345785d8a0000830150c20c80a0000000000000000000000000000000000000000000000000000000000000000088000000000000000007a080871c440d5d9ad05a7e2a4e133f451920f9495e95ecf19c0f43c6528380fb80f8c4f860800a830186a0940000000000000000000000000000000000003000808025a008fa639ad915eb1d9c2d3e5957304921a91b9b099de6307ec8c95d121d3034d3a0213eae4b7b0b378c6002580ef781e5bdc57229df9a326447750bc6725ee7ed31f860010a830186a0940000000000000000000000000000000000004000808026a0f1ed67cec897c5ad20a32f1a6afda57626b01cc969ed60af337639e05baefc11a018cdfac4e51cf7b16950fd3cb540a07c5a7c965c9f0b41d66645fc8c889560f0c0f2d8808094000000000000000000000000000000000000100001d8010194000000000000000000000000000000000000200001",
                "blocknumber": "1"
            },
            {
                "blockHeader": {
                    "parentHash": "0xd2b40971191ea55b9dde584a5d88c84e08af9976bada057cecdabc7c207495a1",
                    "uncleHash": "0x1dcc4de8dec75d7aab85b567b6ccd41ad312451b948a7413f0a142fd40d49347",
                    "coinbase": "0x2adc25665018aa1fe0e6bc666dac8fc2697ff9ba",
                    "stateRoot": "0xd3deb3fb48afc1d825dfe5a602db08b8477da78827e4c2ff48b7ed115d6715e8",
                    "transactionsTrie": "0xbc71a303c3c7a206e55db57a0b908faf07a17cfdaa249a6fc9560bb73189c72a",
                    "receiptTrie": "0x565dbae32920fdc51f307a7eae972eed4f68bf2fa895f24169f0623ef1b6d66c",
                    "bloom": "0x00000000000000000000000000000000000000000000000000000000000000000000000000000000000000000000000000000000000000000000000000000000000000000000000000000000000000000000000000000000000000000000000000000000000000000000000000000000000000000000000000000000000000000000000000000000000000000000000000000000000000000000000000000000000000000000000000000000000000000000000000000000000000000000000000000000000000000000000000000000000000000000000000000000000000000000000000000000000000000000000000000000000000000000000000000000",
                    "difficulty": "0x00",
                    "number": "0x02",
                    "gasLimit": "0x016345785d8a0000",
                    "gasUsed": "0x0150c2",
                    "timestamp": "0x18",
                    "extraData": "0x",
                    "mixHash": "0x0000000000000000000000000000000000000000000000000000000000000000",
                    "nonce": "0x0000000000000000",
                    "baseFeePerGas": "0x07",
                    "withdrawalsRoot": "0xd94f23bfeb02c4b83bf44e4a938966a680401b756144f2684e6a4bb1975e5162",
                    "hash": "0x480255539f3a81103e287bfeaad7472983ea90b3605f3377b3cbdd544d815b2e"
                },
                "transactions": [
                    {
                        "type": "0x00",
                        "chainId": "0x01",
                        "nonce": "0x02",
                        "gasPrice": "0x0a",
                        "gasLimit": "0x0186a0",
                        "to": "0x0000000000000000000000000000000000001000",
                        "value": "0x00",
                        "data": "0x",
                        "v": "0x26",
                        "r": "0xa39f9b7a2a616f9f6c5f42b9f2652e3284bd9856529634790758642b85ba4b97",
                        "s": "0x76af8d4918c7eda5823a88f64a8e4eebfc94aa2a4c4fe185e8439f2ff7ca47e9",
                        "sender": "0xa94f5374fce5edbc8e2a8697c15331677e6ebf0b"
                    },
                    {
                        "type": "0x00",
                        "chainId": "0x01",
                        "nonce": "0x03",
                        "gasPrice": "0x0a",
                        "gasLimit": "0x0186a0",
                        "to": "0x0000000000000000000000000000000000002000",
                        "value": "0x00",
                        "data": "0x",
                        "v": "0x25",
                        "r": "0xa982fe832eadc8d762f1da179c83fd9ee43825327a206a1ec276395d6516c050",
                        "s": "0x35b63483ad767311033b6bd4e4d0e1f4025dfa57590212c36c5d1d575dd5e53e",
                        "sender": "0xa94f5374fce5edbc8e2a8697c15331677e6ebf0b"
                    }
                ],
                "uncleHeaders": [],
                "withdrawals": [
                    {
                        "index": "0x00",
                        "validatorIndex": "0x00",
                        "address": "0x0000000000000000000000000000000000003000",
                        "amount": "0x01"
                    },
                    {
                        "index": "0x01",
                        "validatorIndex": "0x01",
                        "address": "0x0000000000000000000000000000000000004000",
                        "amount": "0x01"
                    }
                ],
                "rlp": "0xf90317f9021aa0d2b40971191ea55b9dde584a5d88c84e08af9976bada057cecdabc7c207495a1a01dcc4de8dec75d7aab85b567b6ccd41ad312451b948a7413f0a142fd40d49347942adc25665018aa1fe0e6bc666dac8fc2697ff9baa0d3deb3fb48afc1d825dfe5a602db08b8477da78827e4c2ff48b7ed115d6715e8a0bc71a303c3c7a206e55db57a0b908faf07a17cfdaa249a6fc9560bb73189c72aa0565dbae32920fdc51f307a7eae972eed4f68bf2fa895f24169f0623ef1b6d66cb9010000000000000000000000000000000000000000000000000000000000000000000000000000000000000000000000000000000000000000000000000000000000000000000000000000000000000000000000000000000000000000000000000000000000000000000000000000000000000000000000000000000000000000000000000000000000000000000000000000000000000000000000000000000000000000000000000000000000000000000000000000000000000000000000000000000000000000000000000000000000000000000000000000000000000000000000000000000000000000000000000000000000000000000000000000000000800288016345785d8a0000830150c21880a0000000000000000000000000000000000000000000000000000000000000000088000000000000000007a0d94f23bfeb02c4b83bf44e4a938966a680401b756144f2684e6a4bb1975e5162f8c4f860020a830186a0940000000000000000000000000000000000001000808026a0a39f9b7a2a616f9f6c5f42b9f2652e3284bd9856529634790758642b85ba4b97a076af8d4918c7eda5823a88f64a8e4eebfc94aa2a4c4fe185e8439f2ff7ca47e9f860030a830186a0940000000000000000000000000000000000002000808025a0a982fe832eadc8d762f1da179c83fd9ee43825327a206a1ec276395d6516c050a035b63483ad767311033b6bd4e4d0e1f4025dfa57590212c36c5d1d575dd5e53ec0f2d8808094000000000000000000000000000000000000300001d8010194000000000000000000000000000000000000400001",
                "blocknumber": "2"
            }
        ],
        "lastblockhash": "0x480255539f3a81103e287bfeaad7472983ea90b3605f3377b3cbdd544d815b2e",
        "sealEngine": "NoProof",
        "_info": {
            "hash": "0xce3f57d7e977a0482aa52dc2132f0d85437f88ff69de2da6025795f638e14720",
            "comment": "`execution-spec-tests` generated test",
            "filling-transition-tool": "evm version 1.13.14-stable",
            "reference-spec": "https://github.com/ethereum/EIPs/blob/master/EIPS/eip-4895.md",
            "reference-spec-version": "81af3b60b632bc9c03513d1d137f25410e3f4d34"
        }
    },
    "tests/shanghai/eip4895_withdrawals/test_withdrawals.py::test_no_evm_execution[fork_Cancun-blockchain_test]": {
        "network": "Cancun",
        "genesisBlockHeader": {
            "parentHash": "0x0000000000000000000000000000000000000000000000000000000000000000",
            "uncleHash": "0x1dcc4de8dec75d7aab85b567b6ccd41ad312451b948a7413f0a142fd40d49347",
            "coinbase": "0x0000000000000000000000000000000000000000",
            "stateRoot": "0xf2a76a80fdf48009203c01aec73f76e20beb81783f94db5c88aa296ed189d1c1",
            "transactionsTrie": "0x56e81f171bcc55a6ff8345e692c0f86e5b48e01b996cadc001622fb5e363b421",
            "receiptTrie": "0x56e81f171bcc55a6ff8345e692c0f86e5b48e01b996cadc001622fb5e363b421",
            "bloom": "0x00000000000000000000000000000000000000000000000000000000000000000000000000000000000000000000000000000000000000000000000000000000000000000000000000000000000000000000000000000000000000000000000000000000000000000000000000000000000000000000000000000000000000000000000000000000000000000000000000000000000000000000000000000000000000000000000000000000000000000000000000000000000000000000000000000000000000000000000000000000000000000000000000000000000000000000000000000000000000000000000000000000000000000000000000000000",
            "difficulty": "0x00",
            "number": "0x00",
            "gasLimit": "0x016345785d8a0000",
            "gasUsed": "0x00",
            "timestamp": "0x00",
            "extraData": "0x00",
            "mixHash": "0x0000000000000000000000000000000000000000000000000000000000000000",
            "nonce": "0x0000000000000000",
            "baseFeePerGas": "0x07",
            "withdrawalsRoot": "0x56e81f171bcc55a6ff8345e692c0f86e5b48e01b996cadc001622fb5e363b421",
            "blobGasUsed": "0x00",
            "excessBlobGas": "0x00",
            "parentBeaconBlockRoot": "0x0000000000000000000000000000000000000000000000000000000000000000",
            "hash": "0x4d0b399f9828d099a3971431d11e3d4946d43741cbdcab1a9f36efc2ba24054a"
        },
        "pre": {
            "0x000f3df6d732807ef1319fb7b8bb8522d0beac02": {
                "nonce": "0x01",
                "balance": "0x00",
                "code": "0x3373fffffffffffffffffffffffffffffffffffffffe14604d57602036146024575f5ffd5b5f35801560495762001fff810690815414603c575f5ffd5b62001fff01545f5260205ff35b5f5ffd5b62001fff42064281555f359062001fff015500",
                "storage": {}
            },
            "0xa94f5374fce5edbc8e2a8697c15331677e6ebf0b": {
                "nonce": "0x00",
                "balance": "0x3635c9adc5dea00000",
                "code": "0x",
                "storage": {}
            },
            "0x0000000000000000000000000000000000001000": {
                "nonce": "0x00",
                "balance": "0x00",
                "code": "0x60014355",
                "storage": {}
            },
            "0x0000000000000000000000000000000000002000": {
                "nonce": "0x00",
                "balance": "0x00",
                "code": "0x60014355",
                "storage": {}
            },
            "0x0000000000000000000000000000000000003000": {
                "nonce": "0x00",
                "balance": "0x00",
                "code": "0x60014355",
                "storage": {}
            },
            "0x0000000000000000000000000000000000004000": {
                "nonce": "0x00",
                "balance": "0x00",
                "code": "0x60014355",
                "storage": {}
            }
        },
        "postState": {
            "0x0000000000000000000000000000000000001000": {
                "nonce": "0x00",
                "balance": "0x3b9aca00",
                "code": "0x60014355",
                "storage": {
                    "0x02": "0x01"
                }
            },
            "0x0000000000000000000000000000000000002000": {
                "nonce": "0x00",
                "balance": "0x3b9aca00",
                "code": "0x60014355",
                "storage": {
                    "0x02": "0x01"
                }
            },
            "0x0000000000000000000000000000000000003000": {
                "nonce": "0x00",
                "balance": "0x3b9aca00",
                "code": "0x60014355",
                "storage": {
                    "0x01": "0x01"
                }
            },
            "0x0000000000000000000000000000000000004000": {
                "nonce": "0x00",
                "balance": "0x3b9aca00",
                "code": "0x60014355",
                "storage": {
                    "0x01": "0x01"
                }
            },
            "0x000f3df6d732807ef1319fb7b8bb8522d0beac02": {
                "nonce": "0x01",
                "balance": "0x00",
                "code": "0x3373fffffffffffffffffffffffffffffffffffffffe14604d57602036146024575f5ffd5b5f35801560495762001fff810690815414603c575f5ffd5b62001fff01545f5260205ff35b5f5ffd5b62001fff42064281555f359062001fff015500",
                "storage": {
                    "0x0c": "0x0c",
                    "0x18": "0x18"
                }
            },
            "0x2adc25665018aa1fe0e6bc666dac8fc2697ff9ba": {
                "nonce": "0x00",
                "balance": "0x07e48c",
                "code": "0x",
                "storage": {}
            },
            "0xa94f5374fce5edbc8e2a8697c15331677e6ebf0b": {
                "nonce": "0x04",
                "balance": "0x3635c9adc5de85b0d8",
                "code": "0x",
                "storage": {}
            }
        },
        "genesisRLP": "0xf90240f9023aa00000000000000000000000000000000000000000000000000000000000000000a01dcc4de8dec75d7aab85b567b6ccd41ad312451b948a7413f0a142fd40d49347940000000000000000000000000000000000000000a0f2a76a80fdf48009203c01aec73f76e20beb81783f94db5c88aa296ed189d1c1a056e81f171bcc55a6ff8345e692c0f86e5b48e01b996cadc001622fb5e363b421a056e81f171bcc55a6ff8345e692c0f86e5b48e01b996cadc001622fb5e363b421b9010000000000000000000000000000000000000000000000000000000000000000000000000000000000000000000000000000000000000000000000000000000000000000000000000000000000000000000000000000000000000000000000000000000000000000000000000000000000000000000000000000000000000000000000000000000000000000000000000000000000000000000000000000000000000000000000000000000000000000000000000000000000000000000000000000000000000000000000000000000000000000000000000000000000000000000000000000000000000000000000000000000000000000000000000000000000808088016345785d8a0000808000a0000000000000000000000000000000000000000000000000000000000000000088000000000000000007a056e81f171bcc55a6ff8345e692c0f86e5b48e01b996cadc001622fb5e363b4218080a00000000000000000000000000000000000000000000000000000000000000000c0c0c0",
        "blocks": [
            {
                "blockHeader": {
                    "parentHash": "0x4d0b399f9828d099a3971431d11e3d4946d43741cbdcab1a9f36efc2ba24054a",
                    "uncleHash": "0x1dcc4de8dec75d7aab85b567b6ccd41ad312451b948a7413f0a142fd40d49347",
                    "coinbase": "0x2adc25665018aa1fe0e6bc666dac8fc2697ff9ba",
                    "stateRoot": "0x4dec8ddd4a013f3676a975d22cd6524651e12e474cb087abea280fe611a91cfe",
                    "transactionsTrie": "0x221c94aadd730613b74ad39ef48364c28922f89b3ef926825aa6120a51c9964b",
                    "receiptTrie": "0x565dbae32920fdc51f307a7eae972eed4f68bf2fa895f24169f0623ef1b6d66c",
                    "bloom": "0x00000000000000000000000000000000000000000000000000000000000000000000000000000000000000000000000000000000000000000000000000000000000000000000000000000000000000000000000000000000000000000000000000000000000000000000000000000000000000000000000000000000000000000000000000000000000000000000000000000000000000000000000000000000000000000000000000000000000000000000000000000000000000000000000000000000000000000000000000000000000000000000000000000000000000000000000000000000000000000000000000000000000000000000000000000000",
                    "difficulty": "0x00",
                    "number": "0x01",
                    "gasLimit": "0x016345785d8a0000",
                    "gasUsed": "0x0150c2",
                    "timestamp": "0x0c",
                    "extraData": "0x",
                    "mixHash": "0x0000000000000000000000000000000000000000000000000000000000000000",
                    "nonce": "0x0000000000000000",
                    "baseFeePerGas": "0x07",
                    "withdrawalsRoot": "0x80871c440d5d9ad05a7e2a4e133f451920f9495e95ecf19c0f43c6528380fb80",
                    "blobGasUsed": "0x00",
                    "excessBlobGas": "0x00",
                    "parentBeaconBlockRoot": "0x0000000000000000000000000000000000000000000000000000000000000000",
                    "hash": "0x011dd1408b75442d08fe15329f2548b3e0869d4e20bf8eba7fac0dfcdf08dd91"
                },
                "transactions": [
                    {
                        "type": "0x00",
                        "chainId": "0x01",
                        "nonce": "0x00",
                        "gasPrice": "0x0a",
                        "gasLimit": "0x0186a0",
                        "to": "0x0000000000000000000000000000000000003000",
                        "value": "0x00",
                        "data": "0x",
                        "v": "0x25",
                        "r": "0x08fa639ad915eb1d9c2d3e5957304921a91b9b099de6307ec8c95d121d3034d3",
                        "s": "0x213eae4b7b0b378c6002580ef781e5bdc57229df9a326447750bc6725ee7ed31",
                        "sender": "0xa94f5374fce5edbc8e2a8697c15331677e6ebf0b"
                    },
                    {
                        "type": "0x00",
                        "chainId": "0x01",
                        "nonce": "0x01",
                        "gasPrice": "0x0a",
                        "gasLimit": "0x0186a0",
                        "to": "0x0000000000000000000000000000000000004000",
                        "value": "0x00",
                        "data": "0x",
                        "v": "0x26",
                        "r": "0xf1ed67cec897c5ad20a32f1a6afda57626b01cc969ed60af337639e05baefc11",
                        "s": "0x18cdfac4e51cf7b16950fd3cb540a07c5a7c965c9f0b41d66645fc8c889560f0",
                        "sender": "0xa94f5374fce5edbc8e2a8697c15331677e6ebf0b"
                    }
                ],
                "uncleHeaders": [],
                "withdrawals": [
                    {
                        "index": "0x00",
                        "validatorIndex": "0x00",
                        "address": "0x0000000000000000000000000000000000001000",
                        "amount": "0x01"
                    },
                    {
                        "index": "0x01",
                        "validatorIndex": "0x01",
                        "address": "0x0000000000000000000000000000000000002000",
                        "amount": "0x01"
                    }
                ],
                "rlp": "0xf9033af9023da04d0b399f9828d099a3971431d11e3d4946d43741cbdcab1a9f36efc2ba24054aa01dcc4de8dec75d7aab85b567b6ccd41ad312451b948a7413f0a142fd40d49347942adc25665018aa1fe0e6bc666dac8fc2697ff9baa04dec8ddd4a013f3676a975d22cd6524651e12e474cb087abea280fe611a91cfea0221c94aadd730613b74ad39ef48364c28922f89b3ef926825aa6120a51c9964ba0565dbae32920fdc51f307a7eae972eed4f68bf2fa895f24169f0623ef1b6d66cb9010000000000000000000000000000000000000000000000000000000000000000000000000000000000000000000000000000000000000000000000000000000000000000000000000000000000000000000000000000000000000000000000000000000000000000000000000000000000000000000000000000000000000000000000000000000000000000000000000000000000000000000000000000000000000000000000000000000000000000000000000000000000000000000000000000000000000000000000000000000000000000000000000000000000000000000000000000000000000000000000000000000000000000000000000000000000800188016345785d8a0000830150c20c80a0000000000000000000000000000000000000000000000000000000000000000088000000000000000007a080871c440d5d9ad05a7e2a4e133f451920f9495e95ecf19c0f43c6528380fb808080a00000000000000000000000000000000000000000000000000000000000000000f8c4f860800a830186a0940000000000000000000000000000000000003000808025a008fa639ad915eb1d9c2d3e5957304921a91b9b099de6307ec8c95d121d3034d3a0213eae4b7b0b378c6002580ef781e5bdc57229df9a326447750bc6725ee7ed31f860010a830186a0940000000000000000000000000000000000004000808026a0f1ed67cec897c5ad20a32f1a6afda57626b01cc969ed60af337639e05baefc11a018cdfac4e51cf7b16950fd3cb540a07c5a7c965c9f0b41d66645fc8c889560f0c0f2d8808094000000000000000000000000000000000000100001d8010194000000000000000000000000000000000000200001",
                "blocknumber": "1"
            },
            {
                "blockHeader": {
                    "parentHash": "0x011dd1408b75442d08fe15329f2548b3e0869d4e20bf8eba7fac0dfcdf08dd91",
                    "uncleHash": "0x1dcc4de8dec75d7aab85b567b6ccd41ad312451b948a7413f0a142fd40d49347",
                    "coinbase": "0x2adc25665018aa1fe0e6bc666dac8fc2697ff9ba",
                    "stateRoot": "0xad55555ceb84d7c4f7c87b599b83a5df1cb21548147f5b06e9f9eb0b3167f451",
                    "transactionsTrie": "0xbc71a303c3c7a206e55db57a0b908faf07a17cfdaa249a6fc9560bb73189c72a",
                    "receiptTrie": "0x565dbae32920fdc51f307a7eae972eed4f68bf2fa895f24169f0623ef1b6d66c",
                    "bloom": "0x00000000000000000000000000000000000000000000000000000000000000000000000000000000000000000000000000000000000000000000000000000000000000000000000000000000000000000000000000000000000000000000000000000000000000000000000000000000000000000000000000000000000000000000000000000000000000000000000000000000000000000000000000000000000000000000000000000000000000000000000000000000000000000000000000000000000000000000000000000000000000000000000000000000000000000000000000000000000000000000000000000000000000000000000000000000",
                    "difficulty": "0x00",
                    "number": "0x02",
                    "gasLimit": "0x016345785d8a0000",
                    "gasUsed": "0x0150c2",
                    "timestamp": "0x18",
                    "extraData": "0x",
                    "mixHash": "0x0000000000000000000000000000000000000000000000000000000000000000",
                    "nonce": "0x0000000000000000",
                    "baseFeePerGas": "0x07",
                    "withdrawalsRoot": "0xd94f23bfeb02c4b83bf44e4a938966a680401b756144f2684e6a4bb1975e5162",
                    "blobGasUsed": "0x00",
                    "excessBlobGas": "0x00",
                    "parentBeaconBlockRoot": "0x0000000000000000000000000000000000000000000000000000000000000000",
                    "hash": "0x86036433689aabbc759fe67658768065ba216fb3f28825939bcfdd6a1ae423b7"
                },
                "transactions": [
                    {
                        "type": "0x00",
                        "chainId": "0x01",
                        "nonce": "0x02",
                        "gasPrice": "0x0a",
                        "gasLimit": "0x0186a0",
                        "to": "0x0000000000000000000000000000000000001000",
                        "value": "0x00",
                        "data": "0x",
                        "v": "0x26",
                        "r": "0xa39f9b7a2a616f9f6c5f42b9f2652e3284bd9856529634790758642b85ba4b97",
                        "s": "0x76af8d4918c7eda5823a88f64a8e4eebfc94aa2a4c4fe185e8439f2ff7ca47e9",
                        "sender": "0xa94f5374fce5edbc8e2a8697c15331677e6ebf0b"
                    },
                    {
                        "type": "0x00",
                        "chainId": "0x01",
                        "nonce": "0x03",
                        "gasPrice": "0x0a",
                        "gasLimit": "0x0186a0",
                        "to": "0x0000000000000000000000000000000000002000",
                        "value": "0x00",
                        "data": "0x",
                        "v": "0x25",
                        "r": "0xa982fe832eadc8d762f1da179c83fd9ee43825327a206a1ec276395d6516c050",
                        "s": "0x35b63483ad767311033b6bd4e4d0e1f4025dfa57590212c36c5d1d575dd5e53e",
                        "sender": "0xa94f5374fce5edbc8e2a8697c15331677e6ebf0b"
                    }
                ],
                "uncleHeaders": [],
                "withdrawals": [
                    {
                        "index": "0x00",
                        "validatorIndex": "0x00",
                        "address": "0x0000000000000000000000000000000000003000",
                        "amount": "0x01"
                    },
                    {
                        "index": "0x01",
                        "validatorIndex": "0x01",
                        "address": "0x0000000000000000000000000000000000004000",
                        "amount": "0x01"
                    }
                ],
                "rlp": "0xf9033af9023da0011dd1408b75442d08fe15329f2548b3e0869d4e20bf8eba7fac0dfcdf08dd91a01dcc4de8dec75d7aab85b567b6ccd41ad312451b948a7413f0a142fd40d49347942adc25665018aa1fe0e6bc666dac8fc2697ff9baa0ad55555ceb84d7c4f7c87b599b83a5df1cb21548147f5b06e9f9eb0b3167f451a0bc71a303c3c7a206e55db57a0b908faf07a17cfdaa249a6fc9560bb73189c72aa0565dbae32920fdc51f307a7eae972eed4f68bf2fa895f24169f0623ef1b6d66cb9010000000000000000000000000000000000000000000000000000000000000000000000000000000000000000000000000000000000000000000000000000000000000000000000000000000000000000000000000000000000000000000000000000000000000000000000000000000000000000000000000000000000000000000000000000000000000000000000000000000000000000000000000000000000000000000000000000000000000000000000000000000000000000000000000000000000000000000000000000000000000000000000000000000000000000000000000000000000000000000000000000000000000000000000000000000000800288016345785d8a0000830150c21880a0000000000000000000000000000000000000000000000000000000000000000088000000000000000007a0d94f23bfeb02c4b83bf44e4a938966a680401b756144f2684e6a4bb1975e51628080a00000000000000000000000000000000000000000000000000000000000000000f8c4f860020a830186a0940000000000000000000000000000000000001000808026a0a39f9b7a2a616f9f6c5f42b9f2652e3284bd9856529634790758642b85ba4b97a076af8d4918c7eda5823a88f64a8e4eebfc94aa2a4c4fe185e8439f2ff7ca47e9f860030a830186a0940000000000000000000000000000000000002000808025a0a982fe832eadc8d762f1da179c83fd9ee43825327a206a1ec276395d6516c050a035b63483ad767311033b6bd4e4d0e1f4025dfa57590212c36c5d1d575dd5e53ec0f2d8808094000000000000000000000000000000000000300001d8010194000000000000000000000000000000000000400001",
                "blocknumber": "2"
            }
        ],
        "lastblockhash": "0x86036433689aabbc759fe67658768065ba216fb3f28825939bcfdd6a1ae423b7",
        "sealEngine": "NoProof",
        "_info": {
            "hash": "0xafa4684bff8688b6f9e72f84fbc710b22d719bac9e40c7bcc4f726726d3e1fc7",
            "comment": "`execution-spec-tests` generated test",
            "filling-transition-tool": "evm version 1.13.14-stable",
            "reference-spec": "https://github.com/ethereum/EIPs/blob/master/EIPS/eip-4895.md",
            "reference-spec-version": "81af3b60b632bc9c03513d1d137f25410e3f4d34"
        }
    }
}