{
    "src/GeneralStateTestsFiller/Pyspecs/cancun/eip4844_blobs/test_blob_txs.py::test_blob_tx_attribute_gasprice_opcode[fork_Cancun-blockchain_test-tx_gas_500000-opcode_GASPRICE-tx_max_fee_per_gas_100-tx_max_fee_per_blob_gas_1-tx_max_priority_fee_per_gas_0]" : {
        "_info" : {
            "comment" : "`execution-spec-tests` generated test",
            "description" : "Test function documentation:\n\n    Test GASPRICE opcode to sanity check that the blob gas fee does not affect\n    its calculation:\n\n    - No priority fee\n    - Priority fee below data fee\n    - Priority fee above data fee",
            "filling-rpc-server" : "evm version 1.14.12-unstable-65e5ca7d-20241004",
            "filling-tool-version" : "retesteth-0.3.2-legacy+commit.600ac001.Linux.g++",
            "filling-transition-tool" : "evm version 1.14.12-unstable-65e5ca7d-20241004",
            "generatedTestHash" : "9092ac6af614d6add9e8acb8874e909c64763f3943ddbfc28f5dd9c9a9b14cb2",
            "hash" : "0x17c7bb461edbf8459ec7f4902f9988d30a3f67aa14ff19482e412462347c0cd3",
            "lllcversion" : "Version: 0.5.14-develop.2024.11.5+commit.b2b86751.mod.Linux.g++",
            "solidity" : "Version: 0.8.24+commit.e11b9ed9.Linux.g++",
            "source" : "src/GeneralStateTestsFiller/Pyspecs/cancun/eip4844_blobs/test_blob_txs.py",
            "sourceHash" : "b4fd7ee5ea7b85dd3c709298b39c76968743e96f74aeb05df14ed2876ae53d9f",
            "url" : "https://github.com/ethereum/execution-spec-tests/blob/f89d09ba99a3dc680dd9410f0b8a7f8d8fc36714/tests/tmp/tmptest_f838169f_4cb8_4391_aa6a_f1a0dd521074/test_blob_txs.py#L1417"
        },
        "blocks" : [
            {
                "blockHeader" : {
                    "baseFeePerGas" : "0x07",
                    "blobGasUsed" : "0x020000",
                    "bloom" : "0x00000000000000000000000000000000000000000000000000000000000000000000000000000000000000000000000000000000000000000000000000000000000000000000000000000000000000000000000000000000000000000000000000000000000000000000000000000000000000000000000000000000000000000000000000000000000000000000000000000000000000000000000000000000000000000000000000000000000000000000000000000000000000000000000000000000000000000000000000000000000000000000000000000000000000000000000000000000000000000000000000000000000000000000000000000000",
                    "coinbase" : "0x2adc25665018aa1fe0e6bc666dac8fc2697ff9ba",
                    "difficulty" : "0x00",
                    "excessBlobGas" : "0x0e0000",
                    "extraData" : "0x00",
                    "gasLimit" : "0x016345785d8a0000",
                    "gasUsed" : "0xa861",
                    "hash" : "0x5968b63be441ff259504442cf509c74edc31aff225e8df62feb03ac7a5e23a3c",
                    "mixHash" : "0x0000000000000000000000000000000000000000000000000000000000000000",
                    "nonce" : "0x0000000000000000",
                    "number" : "0x01",
                    "parentBeaconBlockRoot" : "0x0000000000000000000000000000000000000000000000000000000000000000",
                    "parentHash" : "0xfb8e4f7adab27acfd95502f10bfe1817fc1e653af1e1db2afa97d73c438b6855",
                    "receiptTrie" : "0xc117ad0158b04d4277c8a0d1b440360bf3f011ad7caccf8740df472c96e8f5cc",
                    "stateRoot" : "0x83a19954d355b04d017b987d5687cbda58ec853d33e09887a3a535e9398ed1b6",
                    "timestamp" : "0x03e8",
                    "transactionsTrie" : "0x2e70dedc5adeed586ad4b1ef2cb273d5a50036d26841360a744ac7f1d3bb72bb",
                    "uncleHash" : "0x1dcc4de8dec75d7aab85b567b6ccd41ad312451b948a7413f0a142fd40d49347",
                    "withdrawalsRoot" : "0x56e81f171bcc55a6ff8345e692c0f86e5b48e01b996cadc001622fb5e363b421"
                },
                "blocknumber" : "1",
                "rlp" : "0xf902d6f90244a0fb8e4f7adab27acfd95502f10bfe1817fc1e653af1e1db2afa97d73c438b6855a01dcc4de8dec75d7aab85b567b6ccd41ad312451b948a7413f0a142fd40d49347942adc25665018aa1fe0e6bc666dac8fc2697ff9baa083a19954d355b04d017b987d5687cbda58ec853d33e09887a3a535e9398ed1b6a02e70dedc5adeed586ad4b1ef2cb273d5a50036d26841360a744ac7f1d3bb72bba0c117ad0158b04d4277c8a0d1b440360bf3f011ad7caccf8740df472c96e8f5ccb9010000000000000000000000000000000000000000000000000000000000000000000000000000000000000000000000000000000000000000000000000000000000000000000000000000000000000000000000000000000000000000000000000000000000000000000000000000000000000000000000000000000000000000000000000000000000000000000000000000000000000000000000000000000000000000000000000000000000000000000000000000000000000000000000000000000000000000000000000000000000000000000000000000000000000000000000000000000000000000000000000000000000000000000000000000000000800188016345785d8a000082a8618203e800a0000000000000000000000000000000000000000000000000000000000000000088000000000000000007a056e81f171bcc55a6ff8345e692c0f86e5b48e01b996cadc001622fb5e363b42183020000830e0000a00000000000000000000000000000000000000000000000000000000000000000f88bb88903f886018080648307a1209400000000000000000000000000000000000010000180c001e1a0010000000000000000000000000000000000000000000000000000000000000001a01b115378bb9110dfe43b793d1ab294871cbe61353c5919875baf05ce80a24673a0467045b9f673e18ed5c7034faed60dd26537727fed42e584c8f7c8266a7ad525c0c0",
                "transactions" : [
                    {
                        "accessList" : [
                        ],
                        "blobVersionedHashes" : [
                            "0x0100000000000000000000000000000000000000000000000000000000000000"
                        ],
                        "chainId" : "0x01",
                        "data" : "0x",
                        "gasLimit" : "0x07a120",
                        "maxFeePerBlobGas" : "0x01",
                        "maxFeePerGas" : "0x64",
                        "maxPriorityFeePerGas" : "0x00",
                        "nonce" : "0x00",
                        "r" : "0x1b115378bb9110dfe43b793d1ab294871cbe61353c5919875baf05ce80a24673",
                        "s" : "0x467045b9f673e18ed5c7034faed60dd26537727fed42e584c8f7c8266a7ad525",
                        "sender" : "0xa94f5374fce5edbc8e2a8697c15331677e6ebf0b",
                        "to" : "0x0000000000000000000000000000000000001000",
                        "type" : "0x03",
                        "v" : "0x01",
                        "value" : "0x01"
                    }
                ],
                "uncleHeaders" : [
                ],
                "withdrawals" : [
                ]
            }
        ],
        "genesisBlockHeader" : {
            "baseFeePerGas" : "0x07",
            "blobGasUsed" : "0x00",
            "bloom" : "0x00000000000000000000000000000000000000000000000000000000000000000000000000000000000000000000000000000000000000000000000000000000000000000000000000000000000000000000000000000000000000000000000000000000000000000000000000000000000000000000000000000000000000000000000000000000000000000000000000000000000000000000000000000000000000000000000000000000000000000000000000000000000000000000000000000000000000000000000000000000000000000000000000000000000000000000000000000000000000000000000000000000000000000000000000000000",
            "coinbase" : "0x0000000000000000000000000000000000000000",
            "difficulty" : "0x00",
            "excessBlobGas" : "0x140000",
            "extraData" : "0x00",
            "gasLimit" : "0x016345785d8a0000",
            "gasUsed" : "0x00",
            "hash" : "0xfb8e4f7adab27acfd95502f10bfe1817fc1e653af1e1db2afa97d73c438b6855",
            "mixHash" : "0x0000000000000000000000000000000000000000000000000000000000000000",
            "nonce" : "0x0000000000000000",
            "number" : "0x00",
            "parentBeaconBlockRoot" : "0x0000000000000000000000000000000000000000000000000000000000000000",
            "parentHash" : "0x0000000000000000000000000000000000000000000000000000000000000000",
            "receiptTrie" : "0x56e81f171bcc55a6ff8345e692c0f86e5b48e01b996cadc001622fb5e363b421",
            "stateRoot" : "0xb2a5aa275ac1552cf23267857e2dcea771ea96c19da4c50af007669cfc0b7ac6",
            "timestamp" : "0x00",
            "transactionsTrie" : "0x56e81f171bcc55a6ff8345e692c0f86e5b48e01b996cadc001622fb5e363b421",
            "uncleHash" : "0x1dcc4de8dec75d7aab85b567b6ccd41ad312451b948a7413f0a142fd40d49347",
            "withdrawalsRoot" : "0x56e81f171bcc55a6ff8345e692c0f86e5b48e01b996cadc001622fb5e363b421"
        },
        "genesisRLP" : "0xf90243f9023da00000000000000000000000000000000000000000000000000000000000000000a01dcc4de8dec75d7aab85b567b6ccd41ad312451b948a7413f0a142fd40d49347940000000000000000000000000000000000000000a0b2a5aa275ac1552cf23267857e2dcea771ea96c19da4c50af007669cfc0b7ac6a056e81f171bcc55a6ff8345e692c0f86e5b48e01b996cadc001622fb5e363b421a056e81f171bcc55a6ff8345e692c0f86e5b48e01b996cadc001622fb5e363b421b9010000000000000000000000000000000000000000000000000000000000000000000000000000000000000000000000000000000000000000000000000000000000000000000000000000000000000000000000000000000000000000000000000000000000000000000000000000000000000000000000000000000000000000000000000000000000000000000000000000000000000000000000000000000000000000000000000000000000000000000000000000000000000000000000000000000000000000000000000000000000000000000000000000000000000000000000000000000000000000000000000000000000000000000000000000000000808088016345785d8a0000808000a0000000000000000000000000000000000000000000000000000000000000000088000000000000000007a056e81f171bcc55a6ff8345e692c0f86e5b48e01b996cadc001622fb5e363b4218083140000a00000000000000000000000000000000000000000000000000000000000000000c0c0c0",
        "lastblockhash" : "0x5968b63be441ff259504442cf509c74edc31aff225e8df62feb03ac7a5e23a3c",
        "network" : "Cancun",
        "postState" : {
            "0x0000000000000000000000000000000000001000" : {
                "balance" : "0x01",
                "code" : "0x3a600055",
                "nonce" : "0x01",
                "storage" : {
                    "0x00" : "0x07"
                }
            },
            "0x000f3df6d732807ef1319fb7b8bb8522d0beac02" : {
                "balance" : "0x00",
                "code" : "0x3373fffffffffffffffffffffffffffffffffffffffe14604d57602036146024575f5ffd5b5f35801560495762001fff810690815414603c575f5ffd5b62001fff01545f5260205ff35b5f5ffd5b62001fff42064281555f359062001fff015500",
                "nonce" : "0x01",
                "storage" : {
                    "0x03e8" : "0x03e8"
                }
            },
            "0xa94f5374fce5edbc8e2a8697c15331677e6ebf0b" : {
                "balance" : "0x02f655d9",
                "code" : "0x",
                "nonce" : "0x01",
                "storage" : {
                }
            }
        },
        "pre" : {
            "0x0000000000000000000000000000000000001000" : {
                "balance" : "0x00",
                "code" : "0x3a600055",
                "nonce" : "0x01",
                "storage" : {
                }
            },
            "0x000f3df6d732807ef1319fb7b8bb8522d0beac02" : {
                "balance" : "0x00",
                "code" : "0x3373fffffffffffffffffffffffffffffffffffffffe14604d57602036146024575f5ffd5b5f35801560495762001fff810690815414603c575f5ffd5b62001fff01545f5260205ff35b5f5ffd5b62001fff42064281555f359062001fff015500",
                "nonce" : "0x01",
                "storage" : {
                }
            },
            "0xa94f5374fce5edbc8e2a8697c15331677e6ebf0b" : {
                "balance" : "0x02fcf081",
                "code" : "0x",
                "nonce" : "0x00",
                "storage" : {
                }
            }
        },
        "sealEngine" : "NoProof"
    },
    "src/GeneralStateTestsFiller/Pyspecs/cancun/eip4844_blobs/test_blob_txs.py::test_blob_tx_attribute_gasprice_opcode[fork_Cancun-blockchain_test-tx_gas_500000-opcode_GASPRICE-tx_max_fee_per_gas_100-tx_max_fee_per_blob_gas_1-tx_max_priority_fee_per_gas_2]" : {
        "_info" : {
            "comment" : "`execution-spec-tests` generated test",
            "description" : "Test function documentation:\n\n    Test GASPRICE opcode to sanity check that the blob gas fee does not affect\n    its calculation:\n\n    - No priority fee\n    - Priority fee below data fee\n    - Priority fee above data fee",
            "filling-rpc-server" : "evm version 1.14.12-unstable-65e5ca7d-20241004",
            "filling-tool-version" : "retesteth-0.3.2-legacy+commit.600ac001.Linux.g++",
            "filling-transition-tool" : "evm version 1.14.12-unstable-65e5ca7d-20241004",
            "generatedTestHash" : "e918b9dde5100f969e3e8f7e814ab64e7199ba7f662938f604b57c6f5b60866d",
            "hash" : "0x0005bffbeaa7b493e0ffdf0dfff9671332f0fe086e42452bad9c772f4434d64b",
            "lllcversion" : "Version: 0.5.14-develop.2024.11.5+commit.b2b86751.mod.Linux.g++",
            "solidity" : "Version: 0.8.24+commit.e11b9ed9.Linux.g++",
            "source" : "src/GeneralStateTestsFiller/Pyspecs/cancun/eip4844_blobs/test_blob_txs.py",
            "sourceHash" : "b4fd7ee5ea7b85dd3c709298b39c76968743e96f74aeb05df14ed2876ae53d9f",
            "url" : "https://github.com/ethereum/execution-spec-tests/blob/f89d09ba99a3dc680dd9410f0b8a7f8d8fc36714/tests/tmp/tmptest_f838169f_4cb8_4391_aa6a_f1a0dd521074/test_blob_txs.py#L1417"
        },
        "blocks" : [
            {
                "blockHeader" : {
                    "baseFeePerGas" : "0x07",
                    "blobGasUsed" : "0x020000",
                    "bloom" : "0x00000000000000000000000000000000000000000000000000000000000000000000000000000000000000000000000000000000000000000000000000000000000000000000000000000000000000000000000000000000000000000000000000000000000000000000000000000000000000000000000000000000000000000000000000000000000000000000000000000000000000000000000000000000000000000000000000000000000000000000000000000000000000000000000000000000000000000000000000000000000000000000000000000000000000000000000000000000000000000000000000000000000000000000000000000000",
                    "coinbase" : "0x2adc25665018aa1fe0e6bc666dac8fc2697ff9ba",
                    "difficulty" : "0x00",
                    "excessBlobGas" : "0x0e0000",
                    "extraData" : "0x00",
                    "gasLimit" : "0x016345785d8a0000",
                    "gasUsed" : "0xa861",
                    "hash" : "0x5263fb3d8349c84865ec2dd0966393eff7077b70fc6e3f0213914b6828a1eb70",
                    "mixHash" : "0x0000000000000000000000000000000000000000000000000000000000000000",
                    "nonce" : "0x0000000000000000",
                    "number" : "0x01",
                    "parentBeaconBlockRoot" : "0x0000000000000000000000000000000000000000000000000000000000000000",
                    "parentHash" : "0xfb8e4f7adab27acfd95502f10bfe1817fc1e653af1e1db2afa97d73c438b6855",
                    "receiptTrie" : "0xc117ad0158b04d4277c8a0d1b440360bf3f011ad7caccf8740df472c96e8f5cc",
                    "stateRoot" : "0x409da77f29251e61b0b088ae563ac734849133ac9b4427aeee143a798285adb0",
                    "timestamp" : "0x03e8",
                    "transactionsTrie" : "0xe185e85d5e842c83905d1eee1445ea4ae7ea8a92701c23e09cb7b8b571f37600",
                    "uncleHash" : "0x1dcc4de8dec75d7aab85b567b6ccd41ad312451b948a7413f0a142fd40d49347",
                    "withdrawalsRoot" : "0x56e81f171bcc55a6ff8345e692c0f86e5b48e01b996cadc001622fb5e363b421"
                },
                "blocknumber" : "1",
                "rlp" : "0xf902d6f90244a0fb8e4f7adab27acfd95502f10bfe1817fc1e653af1e1db2afa97d73c438b6855a01dcc4de8dec75d7aab85b567b6ccd41ad312451b948a7413f0a142fd40d49347942adc25665018aa1fe0e6bc666dac8fc2697ff9baa0409da77f29251e61b0b088ae563ac734849133ac9b4427aeee143a798285adb0a0e185e85d5e842c83905d1eee1445ea4ae7ea8a92701c23e09cb7b8b571f37600a0c117ad0158b04d4277c8a0d1b440360bf3f011ad7caccf8740df472c96e8f5ccb9010000000000000000000000000000000000000000000000000000000000000000000000000000000000000000000000000000000000000000000000000000000000000000000000000000000000000000000000000000000000000000000000000000000000000000000000000000000000000000000000000000000000000000000000000000000000000000000000000000000000000000000000000000000000000000000000000000000000000000000000000000000000000000000000000000000000000000000000000000000000000000000000000000000000000000000000000000000000000000000000000000000000000000000000000000000000800188016345785d8a000082a8618203e800a0000000000000000000000000000000000000000000000000000000000000000088000000000000000007a056e81f171bcc55a6ff8345e692c0f86e5b48e01b996cadc001622fb5e363b42183020000830e0000a00000000000000000000000000000000000000000000000000000000000000000f88bb88903f886018002648307a1209400000000000000000000000000000000000010000180c001e1a0010000000000000000000000000000000000000000000000000000000000000080a06e3dbe9f326ae4a3d6c3dcd494b98febdab0f61e9dfa5de0d10e36321bd9c8f8a0567701baf0eb5fcf781f37e37715af959450f7e1b07cedb75a2c733a73630bb6c0c0",
                "transactions" : [
                    {
                        "accessList" : [
                        ],
                        "blobVersionedHashes" : [
                            "0x0100000000000000000000000000000000000000000000000000000000000000"
                        ],
                        "chainId" : "0x01",
                        "data" : "0x",
                        "gasLimit" : "0x07a120",
                        "maxFeePerBlobGas" : "0x01",
                        "maxFeePerGas" : "0x64",
                        "maxPriorityFeePerGas" : "0x02",
                        "nonce" : "0x00",
                        "r" : "0x6e3dbe9f326ae4a3d6c3dcd494b98febdab0f61e9dfa5de0d10e36321bd9c8f8",
                        "s" : "0x567701baf0eb5fcf781f37e37715af959450f7e1b07cedb75a2c733a73630bb6",
                        "sender" : "0xa94f5374fce5edbc8e2a8697c15331677e6ebf0b",
                        "to" : "0x0000000000000000000000000000000000001000",
                        "type" : "0x03",
                        "v" : "0x00",
                        "value" : "0x01"
                    }
                ],
                "uncleHeaders" : [
                ],
                "withdrawals" : [
                ]
            }
        ],
        "genesisBlockHeader" : {
            "baseFeePerGas" : "0x07",
            "blobGasUsed" : "0x00",
            "bloom" : "0x00000000000000000000000000000000000000000000000000000000000000000000000000000000000000000000000000000000000000000000000000000000000000000000000000000000000000000000000000000000000000000000000000000000000000000000000000000000000000000000000000000000000000000000000000000000000000000000000000000000000000000000000000000000000000000000000000000000000000000000000000000000000000000000000000000000000000000000000000000000000000000000000000000000000000000000000000000000000000000000000000000000000000000000000000000000",
            "coinbase" : "0x0000000000000000000000000000000000000000",
            "difficulty" : "0x00",
            "excessBlobGas" : "0x140000",
            "extraData" : "0x00",
            "gasLimit" : "0x016345785d8a0000",
            "gasUsed" : "0x00",
            "hash" : "0xfb8e4f7adab27acfd95502f10bfe1817fc1e653af1e1db2afa97d73c438b6855",
            "mixHash" : "0x0000000000000000000000000000000000000000000000000000000000000000",
            "nonce" : "0x0000000000000000",
            "number" : "0x00",
            "parentBeaconBlockRoot" : "0x0000000000000000000000000000000000000000000000000000000000000000",
            "parentHash" : "0x0000000000000000000000000000000000000000000000000000000000000000",
            "receiptTrie" : "0x56e81f171bcc55a6ff8345e692c0f86e5b48e01b996cadc001622fb5e363b421",
            "stateRoot" : "0xb2a5aa275ac1552cf23267857e2dcea771ea96c19da4c50af007669cfc0b7ac6",
            "timestamp" : "0x00",
            "transactionsTrie" : "0x56e81f171bcc55a6ff8345e692c0f86e5b48e01b996cadc001622fb5e363b421",
            "uncleHash" : "0x1dcc4de8dec75d7aab85b567b6ccd41ad312451b948a7413f0a142fd40d49347",
            "withdrawalsRoot" : "0x56e81f171bcc55a6ff8345e692c0f86e5b48e01b996cadc001622fb5e363b421"
        },
        "genesisRLP" : "0xf90243f9023da00000000000000000000000000000000000000000000000000000000000000000a01dcc4de8dec75d7aab85b567b6ccd41ad312451b948a7413f0a142fd40d49347940000000000000000000000000000000000000000a0b2a5aa275ac1552cf23267857e2dcea771ea96c19da4c50af007669cfc0b7ac6a056e81f171bcc55a6ff8345e692c0f86e5b48e01b996cadc001622fb5e363b421a056e81f171bcc55a6ff8345e692c0f86e5b48e01b996cadc001622fb5e363b421b9010000000000000000000000000000000000000000000000000000000000000000000000000000000000000000000000000000000000000000000000000000000000000000000000000000000000000000000000000000000000000000000000000000000000000000000000000000000000000000000000000000000000000000000000000000000000000000000000000000000000000000000000000000000000000000000000000000000000000000000000000000000000000000000000000000000000000000000000000000000000000000000000000000000000000000000000000000000000000000000000000000000000000000000000000000000000808088016345785d8a0000808000a0000000000000000000000000000000000000000000000000000000000000000088000000000000000007a056e81f171bcc55a6ff8345e692c0f86e5b48e01b996cadc001622fb5e363b4218083140000a00000000000000000000000000000000000000000000000000000000000000000c0c0c0",
        "lastblockhash" : "0x5263fb3d8349c84865ec2dd0966393eff7077b70fc6e3f0213914b6828a1eb70",
        "network" : "Cancun",
        "postState" : {
            "0x0000000000000000000000000000000000001000" : {
                "balance" : "0x01",
                "code" : "0x3a600055",
                "nonce" : "0x01",
                "storage" : {
                    "0x00" : "0x09"
                }
            },
            "0x000f3df6d732807ef1319fb7b8bb8522d0beac02" : {
                "balance" : "0x00",
                "code" : "0x3373fffffffffffffffffffffffffffffffffffffffe14604d57602036146024575f5ffd5b5f35801560495762001fff810690815414603c575f5ffd5b62001fff01545f5260205ff35b5f5ffd5b62001fff42064281555f359062001fff015500",
                "nonce" : "0x01",
                "storage" : {
                    "0x03e8" : "0x03e8"
                }
            },
            "0x2adc25665018aa1fe0e6bc666dac8fc2697ff9ba" : {
                "balance" : "0x0150c2",
                "code" : "0x",
                "nonce" : "0x00",
                "storage" : {
                }
            },
            "0xa94f5374fce5edbc8e2a8697c15331677e6ebf0b" : {
                "balance" : "0x02f50517",
                "code" : "0x",
                "nonce" : "0x01",
                "storage" : {
                }
            }
        },
        "pre" : {
            "0x0000000000000000000000000000000000001000" : {
                "balance" : "0x00",
                "code" : "0x3a600055",
                "nonce" : "0x01",
                "storage" : {
                }
            },
            "0x000f3df6d732807ef1319fb7b8bb8522d0beac02" : {
                "balance" : "0x00",
                "code" : "0x3373fffffffffffffffffffffffffffffffffffffffe14604d57602036146024575f5ffd5b5f35801560495762001fff810690815414603c575f5ffd5b62001fff01545f5260205ff35b5f5ffd5b62001fff42064281555f359062001fff015500",
                "nonce" : "0x01",
                "storage" : {
                }
            },
            "0xa94f5374fce5edbc8e2a8697c15331677e6ebf0b" : {
                "balance" : "0x02fcf081",
                "code" : "0x",
                "nonce" : "0x00",
                "storage" : {
                }
            }
        },
        "sealEngine" : "NoProof"
    },
    "src/GeneralStateTestsFiller/Pyspecs/cancun/eip4844_blobs/test_blob_txs.py::test_blob_tx_attribute_gasprice_opcode[fork_Cancun-blockchain_test-tx_gas_500000-opcode_GASPRICE-tx_max_fee_per_gas_100-tx_max_fee_per_blob_gas_3-tx_max_priority_fee_per_gas_0]" : {
        "_info" : {
            "comment" : "`execution-spec-tests` generated test",
            "description" : "Test function documentation:\n\n    Test GASPRICE opcode to sanity check that the blob gas fee does not affect\n    its calculation:\n\n    - No priority fee\n    - Priority fee below data fee\n    - Priority fee above data fee",
            "filling-rpc-server" : "evm version 1.14.12-unstable-65e5ca7d-20241004",
            "filling-tool-version" : "retesteth-0.3.2-legacy+commit.600ac001.Linux.g++",
            "filling-transition-tool" : "evm version 1.14.12-unstable-65e5ca7d-20241004",
            "generatedTestHash" : "30af426dd14bfbeee1de7ab1106def77daac406b6b9567c517a398575cd7e0e6",
            "hash" : "0xa3e972e21acd4e20946328aa12da4bfbbddef5e3f1e7104fca0d05cf6e4e551d",
            "lllcversion" : "Version: 0.5.14-develop.2024.11.5+commit.b2b86751.mod.Linux.g++",
            "solidity" : "Version: 0.8.24+commit.e11b9ed9.Linux.g++",
            "source" : "src/GeneralStateTestsFiller/Pyspecs/cancun/eip4844_blobs/test_blob_txs.py",
            "sourceHash" : "b4fd7ee5ea7b85dd3c709298b39c76968743e96f74aeb05df14ed2876ae53d9f",
            "url" : "https://github.com/ethereum/execution-spec-tests/blob/f89d09ba99a3dc680dd9410f0b8a7f8d8fc36714/tests/tmp/tmptest_f838169f_4cb8_4391_aa6a_f1a0dd521074/test_blob_txs.py#L1417"
        },
        "blocks" : [
            {
                "blockHeader" : {
                    "baseFeePerGas" : "0x07",
                    "blobGasUsed" : "0x020000",
                    "bloom" : "0x00000000000000000000000000000000000000000000000000000000000000000000000000000000000000000000000000000000000000000000000000000000000000000000000000000000000000000000000000000000000000000000000000000000000000000000000000000000000000000000000000000000000000000000000000000000000000000000000000000000000000000000000000000000000000000000000000000000000000000000000000000000000000000000000000000000000000000000000000000000000000000000000000000000000000000000000000000000000000000000000000000000000000000000000000000000",
                    "coinbase" : "0x2adc25665018aa1fe0e6bc666dac8fc2697ff9ba",
                    "difficulty" : "0x00",
                    "excessBlobGas" : "0x0e0000",
                    "extraData" : "0x00",
                    "gasLimit" : "0x016345785d8a0000",
                    "gasUsed" : "0xa861",
                    "hash" : "0x11285487ac1897628957f70f0734c437d70e4c076c46787137fb92557a15ac59",
                    "mixHash" : "0x0000000000000000000000000000000000000000000000000000000000000000",
                    "nonce" : "0x0000000000000000",
                    "number" : "0x01",
                    "parentBeaconBlockRoot" : "0x0000000000000000000000000000000000000000000000000000000000000000",
                    "parentHash" : "0x6019bdc43081becdca766cf021e159c59afa0fe8ccb0d23aa1e2645a8fe163ea",
                    "receiptTrie" : "0xc117ad0158b04d4277c8a0d1b440360bf3f011ad7caccf8740df472c96e8f5cc",
                    "stateRoot" : "0x7bad23f7828eaead8144cf5390d7970702fe37055617601b8a6c48d46779fd49",
                    "timestamp" : "0x03e8",
                    "transactionsTrie" : "0x2eff2c8607edcd8f2d087ca46d7d651a8a746472934d913f1f68875e86187895",
                    "uncleHash" : "0x1dcc4de8dec75d7aab85b567b6ccd41ad312451b948a7413f0a142fd40d49347",
                    "withdrawalsRoot" : "0x56e81f171bcc55a6ff8345e692c0f86e5b48e01b996cadc001622fb5e363b421"
                },
                "blocknumber" : "1",
                "rlp" : "0xf902d6f90244a06019bdc43081becdca766cf021e159c59afa0fe8ccb0d23aa1e2645a8fe163eaa01dcc4de8dec75d7aab85b567b6ccd41ad312451b948a7413f0a142fd40d49347942adc25665018aa1fe0e6bc666dac8fc2697ff9baa07bad23f7828eaead8144cf5390d7970702fe37055617601b8a6c48d46779fd49a02eff2c8607edcd8f2d087ca46d7d651a8a746472934d913f1f68875e86187895a0c117ad0158b04d4277c8a0d1b440360bf3f011ad7caccf8740df472c96e8f5ccb9010000000000000000000000000000000000000000000000000000000000000000000000000000000000000000000000000000000000000000000000000000000000000000000000000000000000000000000000000000000000000000000000000000000000000000000000000000000000000000000000000000000000000000000000000000000000000000000000000000000000000000000000000000000000000000000000000000000000000000000000000000000000000000000000000000000000000000000000000000000000000000000000000000000000000000000000000000000000000000000000000000000000000000000000000000000000800188016345785d8a000082a8618203e800a0000000000000000000000000000000000000000000000000000000000000000088000000000000000007a056e81f171bcc55a6ff8345e692c0f86e5b48e01b996cadc001622fb5e363b42183020000830e0000a00000000000000000000000000000000000000000000000000000000000000000f88bb88903f886018080648307a1209400000000000000000000000000000000000010000180c003e1a0010000000000000000000000000000000000000000000000000000000000000001a0fed9d2c9778ae4d088b097b1c9c8bcf3cac90c92bf0ff0e15369ff854ec7a142a03dcc1ee432d1ebef46b299ab284daaaf494f41b30f330a10b7754f0433e3ddbbc0c0",
                "transactions" : [
                    {
                        "accessList" : [
                        ],
                        "blobVersionedHashes" : [
                            "0x0100000000000000000000000000000000000000000000000000000000000000"
                        ],
                        "chainId" : "0x01",
                        "data" : "0x",
                        "gasLimit" : "0x07a120",
                        "maxFeePerBlobGas" : "0x03",
                        "maxFeePerGas" : "0x64",
                        "maxPriorityFeePerGas" : "0x00",
                        "nonce" : "0x00",
                        "r" : "0xfed9d2c9778ae4d088b097b1c9c8bcf3cac90c92bf0ff0e15369ff854ec7a142",
                        "s" : "0x3dcc1ee432d1ebef46b299ab284daaaf494f41b30f330a10b7754f0433e3ddbb",
                        "sender" : "0xa94f5374fce5edbc8e2a8697c15331677e6ebf0b",
                        "to" : "0x0000000000000000000000000000000000001000",
                        "type" : "0x03",
                        "v" : "0x01",
                        "value" : "0x01"
                    }
                ],
                "uncleHeaders" : [
                ],
                "withdrawals" : [
                ]
            }
        ],
        "genesisBlockHeader" : {
            "baseFeePerGas" : "0x07",
            "blobGasUsed" : "0x00",
            "bloom" : "0x00000000000000000000000000000000000000000000000000000000000000000000000000000000000000000000000000000000000000000000000000000000000000000000000000000000000000000000000000000000000000000000000000000000000000000000000000000000000000000000000000000000000000000000000000000000000000000000000000000000000000000000000000000000000000000000000000000000000000000000000000000000000000000000000000000000000000000000000000000000000000000000000000000000000000000000000000000000000000000000000000000000000000000000000000000000",
            "coinbase" : "0x0000000000000000000000000000000000000000",
            "difficulty" : "0x00",
            "excessBlobGas" : "0x140000",
            "extraData" : "0x00",
            "gasLimit" : "0x016345785d8a0000",
            "gasUsed" : "0x00",
            "hash" : "0x6019bdc43081becdca766cf021e159c59afa0fe8ccb0d23aa1e2645a8fe163ea",
            "mixHash" : "0x0000000000000000000000000000000000000000000000000000000000000000",
            "nonce" : "0x0000000000000000",
            "number" : "0x00",
            "parentBeaconBlockRoot" : "0x0000000000000000000000000000000000000000000000000000000000000000",
            "parentHash" : "0x0000000000000000000000000000000000000000000000000000000000000000",
            "receiptTrie" : "0x56e81f171bcc55a6ff8345e692c0f86e5b48e01b996cadc001622fb5e363b421",
            "stateRoot" : "0xb1077c2f71855b565d0416c12691c186d2482fa88df5eb55bcccd20f5534cd21",
            "timestamp" : "0x00",
            "transactionsTrie" : "0x56e81f171bcc55a6ff8345e692c0f86e5b48e01b996cadc001622fb5e363b421",
            "uncleHash" : "0x1dcc4de8dec75d7aab85b567b6ccd41ad312451b948a7413f0a142fd40d49347",
            "withdrawalsRoot" : "0x56e81f171bcc55a6ff8345e692c0f86e5b48e01b996cadc001622fb5e363b421"
        },
        "genesisRLP" : "0xf90243f9023da00000000000000000000000000000000000000000000000000000000000000000a01dcc4de8dec75d7aab85b567b6ccd41ad312451b948a7413f0a142fd40d49347940000000000000000000000000000000000000000a0b1077c2f71855b565d0416c12691c186d2482fa88df5eb55bcccd20f5534cd21a056e81f171bcc55a6ff8345e692c0f86e5b48e01b996cadc001622fb5e363b421a056e81f171bcc55a6ff8345e692c0f86e5b48e01b996cadc001622fb5e363b421b9010000000000000000000000000000000000000000000000000000000000000000000000000000000000000000000000000000000000000000000000000000000000000000000000000000000000000000000000000000000000000000000000000000000000000000000000000000000000000000000000000000000000000000000000000000000000000000000000000000000000000000000000000000000000000000000000000000000000000000000000000000000000000000000000000000000000000000000000000000000000000000000000000000000000000000000000000000000000000000000000000000000000000000000000000000000000808088016345785d8a0000808000a0000000000000000000000000000000000000000000000000000000000000000088000000000000000007a056e81f171bcc55a6ff8345e692c0f86e5b48e01b996cadc001622fb5e363b4218083140000a00000000000000000000000000000000000000000000000000000000000000000c0c0c0",
        "lastblockhash" : "0x11285487ac1897628957f70f0734c437d70e4c076c46787137fb92557a15ac59",
        "network" : "Cancun",
        "postState" : {
            "0x0000000000000000000000000000000000001000" : {
                "balance" : "0x01",
                "code" : "0x3a600055",
                "nonce" : "0x01",
                "storage" : {
                    "0x00" : "0x07"
                }
            },
            "0x000f3df6d732807ef1319fb7b8bb8522d0beac02" : {
                "balance" : "0x00",
                "code" : "0x3373fffffffffffffffffffffffffffffffffffffffe14604d57602036146024575f5ffd5b5f35801560495762001fff810690815414603c575f5ffd5b62001fff01545f5260205ff35b5f5ffd5b62001fff42064281555f359062001fff015500",
                "nonce" : "0x01",
                "storage" : {
                    "0x03e8" : "0x03e8"
                }
            },
            "0xa94f5374fce5edbc8e2a8697c15331677e6ebf0b" : {
                "balance" : "0x02fa55d9",
                "code" : "0x",
                "nonce" : "0x01",
                "storage" : {
                }
            }
        },
        "pre" : {
            "0x0000000000000000000000000000000000001000" : {
                "balance" : "0x00",
                "code" : "0x3a600055",
                "nonce" : "0x01",
                "storage" : {
                }
            },
            "0x000f3df6d732807ef1319fb7b8bb8522d0beac02" : {
                "balance" : "0x00",
                "code" : "0x3373fffffffffffffffffffffffffffffffffffffffe14604d57602036146024575f5ffd5b5f35801560495762001fff810690815414603c575f5ffd5b62001fff01545f5260205ff35b5f5ffd5b62001fff42064281555f359062001fff015500",
                "nonce" : "0x01",
                "storage" : {
                }
            },
            "0xa94f5374fce5edbc8e2a8697c15331677e6ebf0b" : {
                "balance" : "0x0300f081",
                "code" : "0x",
                "nonce" : "0x00",
                "storage" : {
                }
            }
        },
        "sealEngine" : "NoProof"
    },
    "src/GeneralStateTestsFiller/Pyspecs/cancun/eip4844_blobs/test_blob_txs.py::test_blob_tx_attribute_gasprice_opcode[fork_Cancun-blockchain_test-tx_gas_500000-opcode_GASPRICE-tx_max_fee_per_gas_100-tx_max_fee_per_blob_gas_3-tx_max_priority_fee_per_gas_2]" : {
        "_info" : {
            "comment" : "`execution-spec-tests` generated test",
            "description" : "Test function documentation:\n\n    Test GASPRICE opcode to sanity check that the blob gas fee does not affect\n    its calculation:\n\n    - No priority fee\n    - Priority fee below data fee\n    - Priority fee above data fee",
            "filling-rpc-server" : "evm version 1.14.12-unstable-65e5ca7d-20241004",
            "filling-tool-version" : "retesteth-0.3.2-legacy+commit.600ac001.Linux.g++",
            "filling-transition-tool" : "evm version 1.14.12-unstable-65e5ca7d-20241004",
            "generatedTestHash" : "0e47ba70cdfed4eb64b290147aaba4c2cf5f16e6fe8452851cab857869bbc1fc",
            "hash" : "0x58a9aacc00c5085ecb193208989ee5cec686833a281ae546bc3c4a200f8795e3",
            "lllcversion" : "Version: 0.5.14-develop.2024.11.5+commit.b2b86751.mod.Linux.g++",
            "solidity" : "Version: 0.8.24+commit.e11b9ed9.Linux.g++",
            "source" : "src/GeneralStateTestsFiller/Pyspecs/cancun/eip4844_blobs/test_blob_txs.py",
            "sourceHash" : "b4fd7ee5ea7b85dd3c709298b39c76968743e96f74aeb05df14ed2876ae53d9f",
            "url" : "https://github.com/ethereum/execution-spec-tests/blob/f89d09ba99a3dc680dd9410f0b8a7f8d8fc36714/tests/tmp/tmptest_f838169f_4cb8_4391_aa6a_f1a0dd521074/test_blob_txs.py#L1417"
        },
        "blocks" : [
            {
                "blockHeader" : {
                    "baseFeePerGas" : "0x07",
                    "blobGasUsed" : "0x020000",
                    "bloom" : "0x00000000000000000000000000000000000000000000000000000000000000000000000000000000000000000000000000000000000000000000000000000000000000000000000000000000000000000000000000000000000000000000000000000000000000000000000000000000000000000000000000000000000000000000000000000000000000000000000000000000000000000000000000000000000000000000000000000000000000000000000000000000000000000000000000000000000000000000000000000000000000000000000000000000000000000000000000000000000000000000000000000000000000000000000000000000",
                    "coinbase" : "0x2adc25665018aa1fe0e6bc666dac8fc2697ff9ba",
                    "difficulty" : "0x00",
                    "excessBlobGas" : "0x0e0000",
                    "extraData" : "0x00",
                    "gasLimit" : "0x016345785d8a0000",
                    "gasUsed" : "0xa861",
                    "hash" : "0xc211f6af235977c567dade4efe1f8f0a144a46fe7f3d7f574576e633998ce8a6",
                    "mixHash" : "0x0000000000000000000000000000000000000000000000000000000000000000",
                    "nonce" : "0x0000000000000000",
                    "number" : "0x01",
                    "parentBeaconBlockRoot" : "0x0000000000000000000000000000000000000000000000000000000000000000",
                    "parentHash" : "0x6019bdc43081becdca766cf021e159c59afa0fe8ccb0d23aa1e2645a8fe163ea",
                    "receiptTrie" : "0xc117ad0158b04d4277c8a0d1b440360bf3f011ad7caccf8740df472c96e8f5cc",
                    "stateRoot" : "0xd19429feeb6d88859fc1a2bf3debe75c3ce782fd954405d7008676a3d5d579a4",
                    "timestamp" : "0x03e8",
                    "transactionsTrie" : "0xc1e1215103b9022b7b722d8a3721f7e94ca4f9f17086675c7b3554cebc392858",
                    "uncleHash" : "0x1dcc4de8dec75d7aab85b567b6ccd41ad312451b948a7413f0a142fd40d49347",
                    "withdrawalsRoot" : "0x56e81f171bcc55a6ff8345e692c0f86e5b48e01b996cadc001622fb5e363b421"
                },
                "blocknumber" : "1",
                "rlp" : "0xf902d6f90244a06019bdc43081becdca766cf021e159c59afa0fe8ccb0d23aa1e2645a8fe163eaa01dcc4de8dec75d7aab85b567b6ccd41ad312451b948a7413f0a142fd40d49347942adc25665018aa1fe0e6bc666dac8fc2697ff9baa0d19429feeb6d88859fc1a2bf3debe75c3ce782fd954405d7008676a3d5d579a4a0c1e1215103b9022b7b722d8a3721f7e94ca4f9f17086675c7b3554cebc392858a0c117ad0158b04d4277c8a0d1b440360bf3f011ad7caccf8740df472c96e8f5ccb9010000000000000000000000000000000000000000000000000000000000000000000000000000000000000000000000000000000000000000000000000000000000000000000000000000000000000000000000000000000000000000000000000000000000000000000000000000000000000000000000000000000000000000000000000000000000000000000000000000000000000000000000000000000000000000000000000000000000000000000000000000000000000000000000000000000000000000000000000000000000000000000000000000000000000000000000000000000000000000000000000000000000000000000000000000000000800188016345785d8a000082a8618203e800a0000000000000000000000000000000000000000000000000000000000000000088000000000000000007a056e81f171bcc55a6ff8345e692c0f86e5b48e01b996cadc001622fb5e363b42183020000830e0000a00000000000000000000000000000000000000000000000000000000000000000f88bb88903f886018002648307a1209400000000000000000000000000000000000010000180c003e1a0010000000000000000000000000000000000000000000000000000000000000080a097ff93cbba63c07ac04f421a8b28154bac307573929ae3e3371d386fe8596db4a06de7894aefa73a78005007d8eb9481aac521bc9d7e849cd55ab53f45a2697ed2c0c0",
                "transactions" : [
                    {
                        "accessList" : [
                        ],
                        "blobVersionedHashes" : [
                            "0x0100000000000000000000000000000000000000000000000000000000000000"
                        ],
                        "chainId" : "0x01",
                        "data" : "0x",
                        "gasLimit" : "0x07a120",
                        "maxFeePerBlobGas" : "0x03",
                        "maxFeePerGas" : "0x64",
                        "maxPriorityFeePerGas" : "0x02",
                        "nonce" : "0x00",
                        "r" : "0x97ff93cbba63c07ac04f421a8b28154bac307573929ae3e3371d386fe8596db4",
                        "s" : "0x6de7894aefa73a78005007d8eb9481aac521bc9d7e849cd55ab53f45a2697ed2",
                        "sender" : "0xa94f5374fce5edbc8e2a8697c15331677e6ebf0b",
                        "to" : "0x0000000000000000000000000000000000001000",
                        "type" : "0x03",
                        "v" : "0x00",
                        "value" : "0x01"
                    }
                ],
                "uncleHeaders" : [
                ],
                "withdrawals" : [
                ]
            }
        ],
        "genesisBlockHeader" : {
            "baseFeePerGas" : "0x07",
            "blobGasUsed" : "0x00",
            "bloom" : "0x00000000000000000000000000000000000000000000000000000000000000000000000000000000000000000000000000000000000000000000000000000000000000000000000000000000000000000000000000000000000000000000000000000000000000000000000000000000000000000000000000000000000000000000000000000000000000000000000000000000000000000000000000000000000000000000000000000000000000000000000000000000000000000000000000000000000000000000000000000000000000000000000000000000000000000000000000000000000000000000000000000000000000000000000000000000",
            "coinbase" : "0x0000000000000000000000000000000000000000",
            "difficulty" : "0x00",
            "excessBlobGas" : "0x140000",
            "extraData" : "0x00",
            "gasLimit" : "0x016345785d8a0000",
            "gasUsed" : "0x00",
            "hash" : "0x6019bdc43081becdca766cf021e159c59afa0fe8ccb0d23aa1e2645a8fe163ea",
            "mixHash" : "0x0000000000000000000000000000000000000000000000000000000000000000",
            "nonce" : "0x0000000000000000",
            "number" : "0x00",
            "parentBeaconBlockRoot" : "0x0000000000000000000000000000000000000000000000000000000000000000",
            "parentHash" : "0x0000000000000000000000000000000000000000000000000000000000000000",
            "receiptTrie" : "0x56e81f171bcc55a6ff8345e692c0f86e5b48e01b996cadc001622fb5e363b421",
            "stateRoot" : "0xb1077c2f71855b565d0416c12691c186d2482fa88df5eb55bcccd20f5534cd21",
            "timestamp" : "0x00",
            "transactionsTrie" : "0x56e81f171bcc55a6ff8345e692c0f86e5b48e01b996cadc001622fb5e363b421",
            "uncleHash" : "0x1dcc4de8dec75d7aab85b567b6ccd41ad312451b948a7413f0a142fd40d49347",
            "withdrawalsRoot" : "0x56e81f171bcc55a6ff8345e692c0f86e5b48e01b996cadc001622fb5e363b421"
        },
        "genesisRLP" : "0xf90243f9023da00000000000000000000000000000000000000000000000000000000000000000a01dcc4de8dec75d7aab85b567b6ccd41ad312451b948a7413f0a142fd40d49347940000000000000000000000000000000000000000a0b1077c2f71855b565d0416c12691c186d2482fa88df5eb55bcccd20f5534cd21a056e81f171bcc55a6ff8345e692c0f86e5b48e01b996cadc001622fb5e363b421a056e81f171bcc55a6ff8345e692c0f86e5b48e01b996cadc001622fb5e363b421b9010000000000000000000000000000000000000000000000000000000000000000000000000000000000000000000000000000000000000000000000000000000000000000000000000000000000000000000000000000000000000000000000000000000000000000000000000000000000000000000000000000000000000000000000000000000000000000000000000000000000000000000000000000000000000000000000000000000000000000000000000000000000000000000000000000000000000000000000000000000000000000000000000000000000000000000000000000000000000000000000000000000000000000000000000000000000808088016345785d8a0000808000a0000000000000000000000000000000000000000000000000000000000000000088000000000000000007a056e81f171bcc55a6ff8345e692c0f86e5b48e01b996cadc001622fb5e363b4218083140000a00000000000000000000000000000000000000000000000000000000000000000c0c0c0",
        "lastblockhash" : "0xc211f6af235977c567dade4efe1f8f0a144a46fe7f3d7f574576e633998ce8a6",
        "network" : "Cancun",
        "postState" : {
            "0x0000000000000000000000000000000000001000" : {
                "balance" : "0x01",
                "code" : "0x3a600055",
                "nonce" : "0x01",
                "storage" : {
                    "0x00" : "0x09"
                }
            },
            "0x000f3df6d732807ef1319fb7b8bb8522d0beac02" : {
                "balance" : "0x00",
                "code" : "0x3373fffffffffffffffffffffffffffffffffffffffe14604d57602036146024575f5ffd5b5f35801560495762001fff810690815414603c575f5ffd5b62001fff01545f5260205ff35b5f5ffd5b62001fff42064281555f359062001fff015500",
                "nonce" : "0x01",
                "storage" : {
                    "0x03e8" : "0x03e8"
                }
            },
            "0x2adc25665018aa1fe0e6bc666dac8fc2697ff9ba" : {
                "balance" : "0x0150c2",
                "code" : "0x",
                "nonce" : "0x00",
                "storage" : {
                }
            },
            "0xa94f5374fce5edbc8e2a8697c15331677e6ebf0b" : {
                "balance" : "0x02f90517",
                "code" : "0x",
                "nonce" : "0x01",
                "storage" : {
                }
            }
        },
        "pre" : {
            "0x0000000000000000000000000000000000001000" : {
                "balance" : "0x00",
                "code" : "0x3a600055",
                "nonce" : "0x01",
                "storage" : {
                }
            },
            "0x000f3df6d732807ef1319fb7b8bb8522d0beac02" : {
                "balance" : "0x00",
                "code" : "0x3373fffffffffffffffffffffffffffffffffffffffe14604d57602036146024575f5ffd5b5f35801560495762001fff810690815414603c575f5ffd5b62001fff01545f5260205ff35b5f5ffd5b62001fff42064281555f359062001fff015500",
                "nonce" : "0x01",
                "storage" : {
                }
            },
            "0xa94f5374fce5edbc8e2a8697c15331677e6ebf0b" : {
                "balance" : "0x0300f081",
                "code" : "0x",
                "nonce" : "0x00",
                "storage" : {
                }
            }
        },
        "sealEngine" : "NoProof"
    }
}