{
    "tests/cancun/eip4844_blobs/test_blobhash_opcode.py::test_blobhash_multiple_txs_in_block[fork_Cancun-blockchain_test]": {
        "network": "Cancun",
        "genesisBlockHeader": {
            "parentHash": "0x0000000000000000000000000000000000000000000000000000000000000000",
            "uncleHash": "0x1dcc4de8dec75d7aab85b567b6ccd41ad312451b948a7413f0a142fd40d49347",
            "coinbase": "0x0000000000000000000000000000000000000000",
            "stateRoot": "0x5b441b7e99fc1b4fde3b23c40da43d7853df6a2fb2ce1270c845c5d615784a0c",
            "transactionsTrie": "0x56e81f171bcc55a6ff8345e692c0f86e5b48e01b996cadc001622fb5e363b421",
            "receiptTrie": "0x56e81f171bcc55a6ff8345e692c0f86e5b48e01b996cadc001622fb5e363b421",
            "bloom": "0x00000000000000000000000000000000000000000000000000000000000000000000000000000000000000000000000000000000000000000000000000000000000000000000000000000000000000000000000000000000000000000000000000000000000000000000000000000000000000000000000000000000000000000000000000000000000000000000000000000000000000000000000000000000000000000000000000000000000000000000000000000000000000000000000000000000000000000000000000000000000000000000000000000000000000000000000000000000000000000000000000000000000000000000000000000000",
            "difficulty": "0x00",
            "number": "0x00",
            "gasLimit": "0x016345785d8a0000",
            "gasUsed": "0x00",
            "timestamp": "0x00",
            "extraData": "0x00",
            "mixHash": "0x0000000000000000000000000000000000000000000000000000000000000000",
            "nonce": "0x0000000000000000",
            "baseFeePerGas": "0x07",
            "withdrawalsRoot": "0x56e81f171bcc55a6ff8345e692c0f86e5b48e01b996cadc001622fb5e363b421",
            "blobGasUsed": "0x00",
            "excessBlobGas": "0x00",
            "parentBeaconBlockRoot": "0x0000000000000000000000000000000000000000000000000000000000000000",
            "hash": "0x0c46174de5fb4b1ee8040583f9bcace862f04ca91941bcfc11d6507c27afbf3f"
        },
        "pre": {
            "0x000f3df6d732807ef1319fb7b8bb8522d0beac02": {
                "nonce": "0x01",
                "balance": "0x00",
                "code": "0x3373fffffffffffffffffffffffffffffffffffffffe14604d57602036146024575f5ffd5b5f35801560495762001fff810690815414603c575f5ffd5b62001fff01545f5260205ff35b5f5ffd5b62001fff42064281555f359062001fff015500",
                "storage": {}
            },
            "0xa94f5374fce5edbc8e2a8697c15331677e6ebf0b": {
                "nonce": "0x00",
                "balance": "0x021e19e0c9bab2400000",
                "code": "0x",
                "storage": {}
            },
            "0x0000000000000000000000000000000000001000": {
                "nonce": "0x00",
                "balance": "0x00",
                "code": "0x600049600055600149600155600249600255600349600355600449600455600549600555",
                "storage": {}
            },
            "0x0000000000000000000000000000000000002000": {
                "nonce": "0x00",
                "balance": "0x00",
                "code": "0x600049600055600149600155600249600255600349600355600449600455600549600555",
                "storage": {}
            },
            "0x0000000000000000000000000000000000003000": {
                "nonce": "0x00",
                "balance": "0x00",
                "code": "0x600049600055600149600155600249600255600349600355600449600455600549600555",
                "storage": {}
            },
            "0x0000000000000000000000000000000000004000": {
                "nonce": "0x00",
                "balance": "0x00",
                "code": "0x600049600055600149600155600249600255600349600355600449600455600549600555",
                "storage": {}
            }
        },
        "postState": {
            "0x0000000000000000000000000000000000001000": {
                "nonce": "0x00",
                "balance": "0x00",
                "code": "0x600049600055600149600155600249600255600349600355600449600455600549600555",
                "storage": {}
            },
            "0x0000000000000000000000000000000000002000": {
                "nonce": "0x00",
                "balance": "0x00",
                "code": "0x600049600055600149600155600249600255600349600355600449600455600549600555",
                "storage": {
                    "0x00": "0x01b8c5b09810b5fc07355d3da42e2c3a3e200c1d9a678491b7e8e256fc50cc4f",
                    "0x01": "0x015b4c8cc4f86aa2d2cf9e9ce97fca704a11a6c20f6b1d6c00a6e15f6d60a6df",
                    "0x02": "0x01878f80eaf10be1a6f618e6f8c071b10a6c14d9b89a3bf2a3f3cf2db6c5681d",
                    "0x03": "0x014eb72b108d562c639faeb6f8c6f366a28b0381c7d30431117ec8c7bb89f834",
                    "0x04": "0x01a9b2a6c3f3f0675b768d49b5f5dc5b5d988f88d55766247ba9e40b125f16bb",
                    "0x05": "0x01a4d4cde4aa01e57fb2c880d1d9c778c33bdf85e48ef4c4d4b4de51abccf4ed"
                }
            },
            "0x0000000000000000000000000000000000003000": {
                "nonce": "0x00",
                "balance": "0x00",
                "code": "0x600049600055600149600155600249600255600349600355600449600455600549600555",
                "storage": {}
            },
            "0x0000000000000000000000000000000000004000": {
                "nonce": "0x00",
                "balance": "0x00",
                "code": "0x600049600055600149600155600249600255600349600355600449600455600549600555",
                "storage": {
                    "0x00": "0x01b8c5b09810b5fc07355d3da42e2c3a3e200c1d9a678491b7e8e256fc50cc4f",
                    "0x01": "0x015b4c8cc4f86aa2d2cf9e9ce97fca704a11a6c20f6b1d6c00a6e15f6d60a6df",
                    "0x02": "0x01878f80eaf10be1a6f618e6f8c071b10a6c14d9b89a3bf2a3f3cf2db6c5681d",
                    "0x03": "0x014eb72b108d562c639faeb6f8c6f366a28b0381c7d30431117ec8c7bb89f834",
                    "0x04": "0x01a9b2a6c3f3f0675b768d49b5f5dc5b5d988f88d55766247ba9e40b125f16bb",
                    "0x05": "0x01a4d4cde4aa01e57fb2c880d1d9c778c33bdf85e48ef4c4d4b4de51abccf4ed"
                }
            },
            "0x000f3df6d732807ef1319fb7b8bb8522d0beac02": {
                "nonce": "0x01",
                "balance": "0x00",
                "code": "0x3373fffffffffffffffffffffffffffffffffffffffe14604d57602036146024575f5ffd5b5f35801560495762001fff810690815414603c575f5ffd5b62001fff01545f5260205ff35b5f5ffd5b62001fff42064281555f359062001fff015500",
                "storage": {
                    "0x0c": "0x0c",
                    "0x18": "0x18",
                    "0x24": "0x24"
                }
            },
            "0x2adc25665018aa1fe0e6bc666dac8fc2697ff9ba": {
                "nonce": "0x00",
                "balance": "0x1a2410",
                "code": "0x",
                "storage": {}
            },
            "0xa94f5374fce5edbc8e2a8697c15331677e6ebf0b": {
                "nonce": "0x06",
                "balance": "0x021e19e0c9bab1c4dd20",
                "code": "0x",
                "storage": {}
            }
        },
        "genesisRLP": "0xf90240f9023aa00000000000000000000000000000000000000000000000000000000000000000a01dcc4de8dec75d7aab85b567b6ccd41ad312451b948a7413f0a142fd40d49347940000000000000000000000000000000000000000a05b441b7e99fc1b4fde3b23c40da43d7853df6a2fb2ce1270c845c5d615784a0ca056e81f171bcc55a6ff8345e692c0f86e5b48e01b996cadc001622fb5e363b421a056e81f171bcc55a6ff8345e692c0f86e5b48e01b996cadc001622fb5e363b421b9010000000000000000000000000000000000000000000000000000000000000000000000000000000000000000000000000000000000000000000000000000000000000000000000000000000000000000000000000000000000000000000000000000000000000000000000000000000000000000000000000000000000000000000000000000000000000000000000000000000000000000000000000000000000000000000000000000000000000000000000000000000000000000000000000000000000000000000000000000000000000000000000000000000000000000000000000000000000000000000000000000000000000000000000000000000000808088016345785d8a0000808000a0000000000000000000000000000000000000000000000000000000000000000088000000000000000007a056e81f171bcc55a6ff8345e692c0f86e5b48e01b996cadc001622fb5e363b4218080a00000000000000000000000000000000000000000000000000000000000000000c0c0c0",
        "blocks": [
            {
                "blockHeader": {
                    "parentHash": "0x0c46174de5fb4b1ee8040583f9bcace862f04ca91941bcfc11d6507c27afbf3f",
                    "uncleHash": "0x1dcc4de8dec75d7aab85b567b6ccd41ad312451b948a7413f0a142fd40d49347",
                    "coinbase": "0x2adc25665018aa1fe0e6bc666dac8fc2697ff9ba",
                    "stateRoot": "0x9b571def723cc49aaaf7707dd5c802ece9906f0133b9fa9bcc1a633c32300149",
                    "transactionsTrie": "0x733895a5856852c711316fdcfb7876fd7bd9a5232338dc51c8d48d09ec4f6941",
                    "receiptTrie": "0xf44b62ca500455002c17e676410100f1a6df14862de0691766cb2a9ed3c59dc8",
                    "bloom": "0x00000000000000000000000000000000000000000000000000000000000000000000000000000000000000000000000000000000000000000000000000000000000000000000000000000000000000000000000000000000000000000000000000000000000000000000000000000000000000000000000000000000000000000000000000000000000000000000000000000000000000000000000000000000000000000000000000000000000000000000000000000000000000000000000000000000000000000000000000000000000000000000000000000000000000000000000000000000000000000000000000000000000000000000000000000000",
                    "difficulty": "0x00",
                    "number": "0x01",
                    "gasLimit": "0x016345785d8a0000",
                    "gasUsed": "0x02f8a8",
                    "timestamp": "0x0c",
                    "extraData": "0x",
                    "mixHash": "0x0000000000000000000000000000000000000000000000000000000000000000",
                    "nonce": "0x0000000000000000",
                    "baseFeePerGas": "0x07",
                    "withdrawalsRoot": "0x56e81f171bcc55a6ff8345e692c0f86e5b48e01b996cadc001622fb5e363b421",
                    "blobGasUsed": "0x0c0000",
                    "excessBlobGas": "0x00",
                    "parentBeaconBlockRoot": "0x0000000000000000000000000000000000000000000000000000000000000000",
                    "hash": "0x3e4490ef0253bc18cb16326cbfeb82fae67b3c2ab89c3c583fc581efcec4ae45"
                },
                "transactions": [
                    {
                        "type": "0x03",
                        "chainId": "0x01",
                        "nonce": "0x00",
                        "maxPriorityFeePerGas": "0x0a",
                        "maxFeePerGas": "0x0a",
                        "gasLimit": "0x2dc6c0",
                        "to": "0x0000000000000000000000000000000000001000",
                        "value": "0x00",
                        "data": "0x0000000000000000000000000000000000000000000000000000000000000000",
                        "accessList": [],
                        "maxFeePerBlobGas": "0x0a",
                        "blobVersionedHashes": [
                            "0x01b8c5b09810b5fc07355d3da42e2c3a3e200c1d9a678491b7e8e256fc50cc4f",
                            "0x015b4c8cc4f86aa2d2cf9e9ce97fca704a11a6c20f6b1d6c00a6e15f6d60a6df",
                            "0x01878f80eaf10be1a6f618e6f8c071b10a6c14d9b89a3bf2a3f3cf2db6c5681d",
                            "0x014eb72b108d562c639faeb6f8c6f366a28b0381c7d30431117ec8c7bb89f834",
                            "0x01a9b2a6c3f3f0675b768d49b5f5dc5b5d988f88d55766247ba9e40b125f16bb",
                            "0x01a4d4cde4aa01e57fb2c880d1d9c778c33bdf85e48ef4c4d4b4de51abccf4ed"
                        ],
                        "v": "0x01",
                        "r": "0xaddbf957e470db7f67029390725b753662dd6c3161d47946caecc30101d8ab59",
                        "s": "0x6b2457115cbf105990dae3ed644f2731cecc343c385cc1592ad20bed8e8c5c95",
                        "sender": "0xa94f5374fce5edbc8e2a8697c15331677e6ebf0b"
                    },
                    {
                        "type": "0x02",
                        "chainId": "0x01",
                        "nonce": "0x01",
                        "maxPriorityFeePerGas": "0x0a",
                        "maxFeePerGas": "0x0a",
                        "gasLimit": "0x2dc6c0",
                        "to": "0x0000000000000000000000000000000000001000",
                        "value": "0x00",
                        "data": "0x0000000000000000000000000000000000000000000000000000000000000000",
                        "accessList": [],
                        "v": "0x00",
                        "r": "0xd19824850ecde2812e7e7ee821e3a558320630a685f2760cdb03023680e2a79a",
                        "s": "0x0d7617ef9986f99d1f9edb4bb5af5b051a13acd634cc6a1cbe3a8ea4ba456c72",
                        "sender": "0xa94f5374fce5edbc8e2a8697c15331677e6ebf0b"
                    }
                ],
                "uncleHeaders": [],
                "withdrawals": [],
                "rlp": "0xf90423f90240a00c46174de5fb4b1ee8040583f9bcace862f04ca91941bcfc11d6507c27afbf3fa01dcc4de8dec75d7aab85b567b6ccd41ad312451b948a7413f0a142fd40d49347942adc25665018aa1fe0e6bc666dac8fc2697ff9baa09b571def723cc49aaaf7707dd5c802ece9906f0133b9fa9bcc1a633c32300149a0733895a5856852c711316fdcfb7876fd7bd9a5232338dc51c8d48d09ec4f6941a0f44b62ca500455002c17e676410100f1a6df14862de0691766cb2a9ed3c59dc8b9010000000000000000000000000000000000000000000000000000000000000000000000000000000000000000000000000000000000000000000000000000000000000000000000000000000000000000000000000000000000000000000000000000000000000000000000000000000000000000000000000000000000000000000000000000000000000000000000000000000000000000000000000000000000000000000000000000000000000000000000000000000000000000000000000000000000000000000000000000000000000000000000000000000000000000000000000000000000000000000000000000000000000000000000000000000000800188016345785d8a00008302f8a80c80a0000000000000000000000000000000000000000000000000000000000000000088000000000000000007a056e81f171bcc55a6ff8345e692c0f86e5b48e01b996cadc001622fb5e363b421830c000080a00000000000000000000000000000000000000000000000000000000000000000f901dbb9015003f9014c01800a0a832dc6c094000000000000000000000000000000000000100080a00000000000000000000000000000000000000000000000000000000000000000c00af8c6a001b8c5b09810b5fc07355d3da42e2c3a3e200c1d9a678491b7e8e256fc50cc4fa0015b4c8cc4f86aa2d2cf9e9ce97fca704a11a6c20f6b1d6c00a6e15f6d60a6dfa001878f80eaf10be1a6f618e6f8c071b10a6c14d9b89a3bf2a3f3cf2db6c5681da0014eb72b108d562c639faeb6f8c6f366a28b0381c7d30431117ec8c7bb89f834a001a9b2a6c3f3f0675b768d49b5f5dc5b5d988f88d55766247ba9e40b125f16bba001a4d4cde4aa01e57fb2c880d1d9c778c33bdf85e48ef4c4d4b4de51abccf4ed01a0addbf957e470db7f67029390725b753662dd6c3161d47946caecc30101d8ab59a06b2457115cbf105990dae3ed644f2731cecc343c385cc1592ad20bed8e8c5c95b88602f88301010a0a832dc6c094000000000000000000000000000000000000100080a00000000000000000000000000000000000000000000000000000000000000000c080a0d19824850ecde2812e7e7ee821e3a558320630a685f2760cdb03023680e2a79aa00d7617ef9986f99d1f9edb4bb5af5b051a13acd634cc6a1cbe3a8ea4ba456c72c0c0",
                "blocknumber": "1"
            },
            {
                "blockHeader": {
                    "parentHash": "0x3e4490ef0253bc18cb16326cbfeb82fae67b3c2ab89c3c583fc581efcec4ae45",
                    "uncleHash": "0x1dcc4de8dec75d7aab85b567b6ccd41ad312451b948a7413f0a142fd40d49347",
                    "coinbase": "0x2adc25665018aa1fe0e6bc666dac8fc2697ff9ba",
                    "stateRoot": "0xd5127fc7a32d2cb7e7b341a7cf6f899c279d2434eb1484a824f99888535fc102",
                    "transactionsTrie": "0x515742b80883a3814c9143d70030825e3114a1caea2032a459c112ba52baabd5",
                    "receiptTrie": "0xda5ac010087a7cb6e374f2cda2f2c54242b12da3fc28ef70fffbdce90d262adf",
                    "bloom": "0x00000000000000000000000000000000000000000000000000000000000000000000000000000000000000000000000000000000000000000000000000000000000000000000000000000000000000000000000000000000000000000000000000000000000000000000000000000000000000000000000000000000000000000000000000000000000000000000000000000000000000000000000000000000000000000000000000000000000000000000000000000000000000000000000000000000000000000000000000000000000000000000000000000000000000000000000000000000000000000000000000000000000000000000000000000000",
                    "difficulty": "0x00",
                    "number": "0x02",
                    "gasLimit": "0x016345785d8a0000",
                    "gasUsed": "0x02df04",
                    "timestamp": "0x18",
                    "extraData": "0x",
                    "mixHash": "0x0000000000000000000000000000000000000000000000000000000000000000",
                    "nonce": "0x0000000000000000",
                    "baseFeePerGas": "0x07",
                    "withdrawalsRoot": "0x56e81f171bcc55a6ff8345e692c0f86e5b48e01b996cadc001622fb5e363b421",
                    "blobGasUsed": "0x0c0000",
                    "excessBlobGas": "0x060000",
                    "parentBeaconBlockRoot": "0x0000000000000000000000000000000000000000000000000000000000000000",
                    "hash": "0xcc4289376e2da3d3abd3e1e04b942f24120d5e7f42d10b0a8935fc0017d5b99e"
                },
                "transactions": [
                    {
                        "type": "0x02",
                        "chainId": "0x01",
                        "nonce": "0x02",
                        "maxPriorityFeePerGas": "0x0a",
                        "maxFeePerGas": "0x0a",
                        "gasLimit": "0x2dc6c0",
                        "to": "0x0000000000000000000000000000000000002000",
                        "value": "0x00",
                        "data": "0x0000000000000000000000000000000000000000000000000000000000000000",
                        "accessList": [],
                        "v": "0x01",
                        "r": "0x4bd548ac269f0b3d84b2579736a68c7f6077b33fd73430d3d1781babc932d1e6",
                        "s": "0x799479bbd39baafdbf9f628214f8b162c3bbe5cea066189ea4784f755a1c2bbc",
                        "sender": "0xa94f5374fce5edbc8e2a8697c15331677e6ebf0b"
                    },
                    {
                        "type": "0x03",
                        "chainId": "0x01",
                        "nonce": "0x03",
                        "maxPriorityFeePerGas": "0x0a",
                        "maxFeePerGas": "0x0a",
                        "gasLimit": "0x2dc6c0",
                        "to": "0x0000000000000000000000000000000000002000",
                        "value": "0x00",
                        "data": "0x0000000000000000000000000000000000000000000000000000000000000000",
                        "accessList": [],
                        "maxFeePerBlobGas": "0x0a",
                        "blobVersionedHashes": [
                            "0x01b8c5b09810b5fc07355d3da42e2c3a3e200c1d9a678491b7e8e256fc50cc4f",
                            "0x015b4c8cc4f86aa2d2cf9e9ce97fca704a11a6c20f6b1d6c00a6e15f6d60a6df",
                            "0x01878f80eaf10be1a6f618e6f8c071b10a6c14d9b89a3bf2a3f3cf2db6c5681d",
                            "0x014eb72b108d562c639faeb6f8c6f366a28b0381c7d30431117ec8c7bb89f834",
                            "0x01a9b2a6c3f3f0675b768d49b5f5dc5b5d988f88d55766247ba9e40b125f16bb",
                            "0x01a4d4cde4aa01e57fb2c880d1d9c778c33bdf85e48ef4c4d4b4de51abccf4ed"
                        ],
                        "v": "0x00",
                        "r": "0x40b79d3d52f5d9cac0017ff6bdcf236f52b9e7b34113e3106be8caf04310f358",
                        "s": "0x1f609055a97cc5d4a68e26501244914a8593d773b0d6afdedd08fb8b33993732",
                        "sender": "0xa94f5374fce5edbc8e2a8697c15331677e6ebf0b"
                    }
                ],
                "uncleHeaders": [],
                "withdrawals": [],
                "rlp": "0xf90426f90243a03e4490ef0253bc18cb16326cbfeb82fae67b3c2ab89c3c583fc581efcec4ae45a01dcc4de8dec75d7aab85b567b6ccd41ad312451b948a7413f0a142fd40d49347942adc25665018aa1fe0e6bc666dac8fc2697ff9baa0d5127fc7a32d2cb7e7b341a7cf6f899c279d2434eb1484a824f99888535fc102a0515742b80883a3814c9143d70030825e3114a1caea2032a459c112ba52baabd5a0da5ac010087a7cb6e374f2cda2f2c54242b12da3fc28ef70fffbdce90d262adfb9010000000000000000000000000000000000000000000000000000000000000000000000000000000000000000000000000000000000000000000000000000000000000000000000000000000000000000000000000000000000000000000000000000000000000000000000000000000000000000000000000000000000000000000000000000000000000000000000000000000000000000000000000000000000000000000000000000000000000000000000000000000000000000000000000000000000000000000000000000000000000000000000000000000000000000000000000000000000000000000000000000000000000000000000000000000000800288016345785d8a00008302df041880a0000000000000000000000000000000000000000000000000000000000000000088000000000000000007a056e81f171bcc55a6ff8345e692c0f86e5b48e01b996cadc001622fb5e363b421830c000083060000a00000000000000000000000000000000000000000000000000000000000000000f901dbb88602f88301020a0a832dc6c094000000000000000000000000000000000000200080a00000000000000000000000000000000000000000000000000000000000000000c001a04bd548ac269f0b3d84b2579736a68c7f6077b33fd73430d3d1781babc932d1e6a0799479bbd39baafdbf9f628214f8b162c3bbe5cea066189ea4784f755a1c2bbcb9015003f9014c01030a0a832dc6c094000000000000000000000000000000000000200080a00000000000000000000000000000000000000000000000000000000000000000c00af8c6a001b8c5b09810b5fc07355d3da42e2c3a3e200c1d9a678491b7e8e256fc50cc4fa0015b4c8cc4f86aa2d2cf9e9ce97fca704a11a6c20f6b1d6c00a6e15f6d60a6dfa001878f80eaf10be1a6f618e6f8c071b10a6c14d9b89a3bf2a3f3cf2db6c5681da0014eb72b108d562c639faeb6f8c6f366a28b0381c7d30431117ec8c7bb89f834a001a9b2a6c3f3f0675b768d49b5f5dc5b5d988f88d55766247ba9e40b125f16bba001a4d4cde4aa01e57fb2c880d1d9c778c33bdf85e48ef4c4d4b4de51abccf4ed80a040b79d3d52f5d9cac0017ff6bdcf236f52b9e7b34113e3106be8caf04310f358a01f609055a97cc5d4a68e26501244914a8593d773b0d6afdedd08fb8b33993732c0c0",
                "blocknumber": "2"
            },
            {
                "blockHeader": {
                    "parentHash": "0xcc4289376e2da3d3abd3e1e04b942f24120d5e7f42d10b0a8935fc0017d5b99e",
                    "uncleHash": "0x1dcc4de8dec75d7aab85b567b6ccd41ad312451b948a7413f0a142fd40d49347",
                    "coinbase": "0x2adc25665018aa1fe0e6bc666dac8fc2697ff9ba",
                    "stateRoot": "0xdc84dce1dd81fe894e1f5ec80a0a6a02f3d24390ebd7cd9a52e02eb233590b1c",
                    "transactionsTrie": "0xc9096f6729b5a04096440ddfe9df0cdba6e1d7ad44b09c4f9a44856a2b141226",
                    "receiptTrie": "0xda5ac010087a7cb6e374f2cda2f2c54242b12da3fc28ef70fffbdce90d262adf",
                    "bloom": "0x00000000000000000000000000000000000000000000000000000000000000000000000000000000000000000000000000000000000000000000000000000000000000000000000000000000000000000000000000000000000000000000000000000000000000000000000000000000000000000000000000000000000000000000000000000000000000000000000000000000000000000000000000000000000000000000000000000000000000000000000000000000000000000000000000000000000000000000000000000000000000000000000000000000000000000000000000000000000000000000000000000000000000000000000000000000",
                    "difficulty": "0x00",
                    "number": "0x03",
                    "gasLimit": "0x016345785d8a0000",
                    "gasUsed": "0x02df04",
                    "timestamp": "0x24",
                    "extraData": "0x",
                    "mixHash": "0x0000000000000000000000000000000000000000000000000000000000000000",
                    "nonce": "0x0000000000000000",
                    "baseFeePerGas": "0x07",
                    "withdrawalsRoot": "0x56e81f171bcc55a6ff8345e692c0f86e5b48e01b996cadc001622fb5e363b421",
                    "blobGasUsed": "0x0c0000",
                    "excessBlobGas": "0x0c0000",
                    "parentBeaconBlockRoot": "0x0000000000000000000000000000000000000000000000000000000000000000",
                    "hash": "0x61a2378bd5a5d3852d7630b3466f1daba349abf64892223ed63ddb9eaf98f820"
                },
                "transactions": [
                    {
                        "type": "0x02",
                        "chainId": "0x01",
                        "nonce": "0x04",
                        "maxPriorityFeePerGas": "0x0a",
                        "maxFeePerGas": "0x0a",
                        "gasLimit": "0x2dc6c0",
                        "to": "0x0000000000000000000000000000000000003000",
                        "value": "0x00",
                        "data": "0x0000000000000000000000000000000000000000000000000000000000000000",
                        "accessList": [],
                        "v": "0x01",
                        "r": "0x88dbb977c2056b0fdb0c1e4ff8afdbca073a548fe538a023c273b4899232a48b",
                        "s": "0x7946d10ac6fdf21c5ae8288d3c2c36f877c84f1595a2ef780094820b8e1aa704",
                        "sender": "0xa94f5374fce5edbc8e2a8697c15331677e6ebf0b"
                    },
                    {
                        "type": "0x03",
                        "chainId": "0x01",
                        "nonce": "0x05",
                        "maxPriorityFeePerGas": "0x0a",
                        "maxFeePerGas": "0x0a",
                        "gasLimit": "0x2dc6c0",
                        "to": "0x0000000000000000000000000000000000004000",
                        "value": "0x00",
                        "data": "0x0000000000000000000000000000000000000000000000000000000000000000",
                        "accessList": [],
                        "maxFeePerBlobGas": "0x0a",
                        "blobVersionedHashes": [
                            "0x01b8c5b09810b5fc07355d3da42e2c3a3e200c1d9a678491b7e8e256fc50cc4f",
                            "0x015b4c8cc4f86aa2d2cf9e9ce97fca704a11a6c20f6b1d6c00a6e15f6d60a6df",
                            "0x01878f80eaf10be1a6f618e6f8c071b10a6c14d9b89a3bf2a3f3cf2db6c5681d",
                            "0x014eb72b108d562c639faeb6f8c6f366a28b0381c7d30431117ec8c7bb89f834",
                            "0x01a9b2a6c3f3f0675b768d49b5f5dc5b5d988f88d55766247ba9e40b125f16bb",
                            "0x01a4d4cde4aa01e57fb2c880d1d9c778c33bdf85e48ef4c4d4b4de51abccf4ed"
                        ],
                        "v": "0x01",
                        "r": "0x51d7576af22640c52967373a36f22038b091841da7719d73571afad9e4539331",
                        "s": "0x4257c14fbca9291f92ff588a94334ab1c040bd819951dad5488224b1e8346edc",
                        "sender": "0xa94f5374fce5edbc8e2a8697c15331677e6ebf0b"
                    }
                ],
                "uncleHeaders": [],
                "withdrawals": [],
                "rlp": "0xf90426f90243a0cc4289376e2da3d3abd3e1e04b942f24120d5e7f42d10b0a8935fc0017d5b99ea01dcc4de8dec75d7aab85b567b6ccd41ad312451b948a7413f0a142fd40d49347942adc25665018aa1fe0e6bc666dac8fc2697ff9baa0dc84dce1dd81fe894e1f5ec80a0a6a02f3d24390ebd7cd9a52e02eb233590b1ca0c9096f6729b5a04096440ddfe9df0cdba6e1d7ad44b09c4f9a44856a2b141226a0da5ac010087a7cb6e374f2cda2f2c54242b12da3fc28ef70fffbdce90d262adfb9010000000000000000000000000000000000000000000000000000000000000000000000000000000000000000000000000000000000000000000000000000000000000000000000000000000000000000000000000000000000000000000000000000000000000000000000000000000000000000000000000000000000000000000000000000000000000000000000000000000000000000000000000000000000000000000000000000000000000000000000000000000000000000000000000000000000000000000000000000000000000000000000000000000000000000000000000000000000000000000000000000000000000000000000000000000000800388016345785d8a00008302df042480a0000000000000000000000000000000000000000000000000000000000000000088000000000000000007a056e81f171bcc55a6ff8345e692c0f86e5b48e01b996cadc001622fb5e363b421830c0000830c0000a00000000000000000000000000000000000000000000000000000000000000000f901dbb88602f88301040a0a832dc6c094000000000000000000000000000000000000300080a00000000000000000000000000000000000000000000000000000000000000000c001a088dbb977c2056b0fdb0c1e4ff8afdbca073a548fe538a023c273b4899232a48ba07946d10ac6fdf21c5ae8288d3c2c36f877c84f1595a2ef780094820b8e1aa704b9015003f9014c01050a0a832dc6c094000000000000000000000000000000000000400080a00000000000000000000000000000000000000000000000000000000000000000c00af8c6a001b8c5b09810b5fc07355d3da42e2c3a3e200c1d9a678491b7e8e256fc50cc4fa0015b4c8cc4f86aa2d2cf9e9ce97fca704a11a6c20f6b1d6c00a6e15f6d60a6dfa001878f80eaf10be1a6f618e6f8c071b10a6c14d9b89a3bf2a3f3cf2db6c5681da0014eb72b108d562c639faeb6f8c6f366a28b0381c7d30431117ec8c7bb89f834a001a9b2a6c3f3f0675b768d49b5f5dc5b5d988f88d55766247ba9e40b125f16bba001a4d4cde4aa01e57fb2c880d1d9c778c33bdf85e48ef4c4d4b4de51abccf4ed01a051d7576af22640c52967373a36f22038b091841da7719d73571afad9e4539331a04257c14fbca9291f92ff588a94334ab1c040bd819951dad5488224b1e8346edcc0c0",
                "blocknumber": "3"
            }
        ],
        "lastblockhash": "0x61a2378bd5a5d3852d7630b3466f1daba349abf64892223ed63ddb9eaf98f820",
        "sealEngine": "NoProof",
        "_info": {
            "hash": "0xf8a216cc44c3ab21c3cf62d959e35aba65c9cc8d0edfdc80b5bdd6a4321099be",
            "comment": "`execution-spec-tests` generated test",
            "filling-transition-tool": "evm version 1.14.4-unstable-44a50c9f-20240510",
            "reference-spec": "https://github.com/ethereum/EIPs/blob/master/EIPS/eip-4844.md",
            "reference-spec-version": "f0eb6a364aaf5ccb43516fa2c269a54fb881ecfd"
        }
    }
}