{
    "tests/cancun/eip1153_tstore/test_tstorage.py::test_run_until_out_of_gas[fork_Cancun-state_test-tstore]": {
        "env": {
            "currentCoinbase": "0x2adc25665018aa1fe0e6bc666dac8fc2697ff9ba",
            "currentGasLimit": "0x016345785d8a0000",
            "currentNumber": "0x01",
            "currentTimestamp": "0x03e8",
            "currentRandom": "0x0000000000000000000000000000000000000000000000000000000000000000",
            "currentDifficulty": "0x00",
            "currentBaseFee": "0x07",
            "currentExcessBlobGas": "0x00"
        },
        "pre": {
            "0xa94f5374fce5edbc8e2a8697c15331677e6ebf0b": {
                "nonce": "0x00",
                "balance": "0x09184e72a000",
                "code": "0x",
                "storage": {}
            },
            "0x0000000000000000000000000000000000000100": {
                "nonce": "0x00",
                "balance": "0x00",
                "code": "0x5b5a5a5d5a5a5d5a5a5d5a5a5d5a5a5d5a5a5d5a5a5d5a5a5d5a5a5d5a5a5d5a5a5d5a5a5d5a5a5d5a5a5d5a5a5d5a5a5d5a5a5d5a5a5d5a5a5d5a5a5d5a5a5d5a5a5d5a5a5d5a5a5d5a5a5d5a5a5d5a5a5d5a5a5d5a5a5d5a5a5d5a5a5d5a5a5d5a5a5d5a5a5d5a5a5d5a5a5d5a5a5d5a5a5d5a5a5d5a5a5d5a5a5d5a5a5d5a5a5d5a5a5d5a5a5d5a5a5d5a5a5d5a5a5d5a5a5d5a5a5d5a5a5d5a5a5d5a5a5d5a5a5d5a5a5d5a5a5d5a5a5d5a5a5d5a5a5d5a5a5d5a5a5d5a5a5d5a5a5d5a5a5d5a5a5d5a5a5d5a5a5d5a5a5d5a5a5d5a5a5d5a5a5d5a5a5d5a5a5d5a5a5d5a5a5d5a5a5d5a5a5d5a5a5d5a5a5d5a5a5d5a5a5d5a5a5d5a5a5d5a5a5d5a5a5d5a5a5d5a5a5d5a5a5d5a5a5d5a5a5d5a5a5d5a5a5d5a5a5d5a5a5d5a5a5d5a5a5d5a5a5d5a5a5d5a5a5d5a5a5d5a5a5d5a5a5d5a5a5d5a5a5d5a5a5d5a5a5d5a5a5d5a5a5d5a5a5d5a5a5d5a5a5d5a5a5d5a5a5d5a5a5d5a5a5d5a5a5d5a5a5d5a5a5d5a5a5d5a5a5d5a5a5d5a5a5d5a5a5d5a5a5d5a5a5d5a5a5d5a5a5d5a5a5d5a5a5d5a5a5d5a5a5d5a5a5d5a5a5d5a5a5d5a5a5d5a5a5d5a5a5d5a5a5d5a5a5d5a5a5d5a5a5d5a5a5d5a5a5d5a5a5d5a5a5d5a5a5d5a5a5d5a5a5d5a5a5d5a5a5d5a5a5d5a5a5d5a5a5d5a5a5d5a5a5d5a5a5d5a5a5d5a5a5d5a5a5d5a5a5d5a5a5d5a5a5d5a5a5d5a5a5d5a5a5d5a5a5d5a5a5d5a5a5d5a5a5d5a5a5d5a5a5d5a5a5d5a5a5d5a5a5d5a5a5d5a5a5d5a5a5d5a5a5d5a5a5d5a5a5d5a5a5d5a5a5d5a5a5d5a5a5d5a5a5d5a5a5d5a5a5d5a5a5d5a5a5d5a5a5d5a5a5d5a5a5d5a5a5d5a5a5d5a5a5d5a5a5d5a5a5d5a5a5d5a5a5d5a5a5d5a5a5d5a5a5d5a5a5d5a5a5d5a5a5d5a5a5d5a5a5d5a5a5d5a5a5d5a5a5d5a5a5d5a5a5d5a5a5d5a5a5d5a5a5d5a5a5d5a5a5d5a5a5d5a5a5d5a5a5d5a5a5d5a5a5d5a5a5d5a5a5d5a5a5d5a5a5d5a5a5d5a5a5d5a5a5d5a5a5d5a5a5d5a5a5d5a5a5d5a5a5d5a5a5d5a5a5d5a5a5d5a5a5d5a5a5d5a5a5d5a5a5d5a5a5d5a5a5d5a5a5d5a5a5d5a5a5d5a5a5d5a5a5d5a5a5d5a5a5d5a5a5d5a5a5d5a5a5d5a5a5d5a5a5d5a5a5d5a5a5d5a5a5d5a5a5d5a5a5d5a5a5d5a5a5d5a5a5d5a5a5d5a5a5d5a5a5d5a5a5d5a5a5d5a5a5d5a5a5d5a5a5d5a5a5d5a5a5d5a5a5d5a5a5d5a5a5d5a5a5d5a5a5d5a5a5d5a5a5d5a5a5d5a5a5d5a5a5d5a5a5d5a5a5d5a5a5d5a5a5d5a5a5d5a5a5d5a5a5d5a5a5d5a5a5d5a5a5d5a5a5d5a5a5d5a5a5d5a5a5d5a5a5d5a5a5d5a5a5d5a5a5d5a5a5d5a5a5d5a5a5d5a5a5d5a5a5d5a5a5d5a5a5d5a5a5d5a5a5d5a5a5d5a5a5d5a5a5d5a5a5d5a5a5d5a5a5d5a5a5d5a5a5d5a5a5d5a5a5d5a5a5d5a5a5d5a5a5d5a5a5d5a5a5d5a5a5d5a5a5d5a5a5d5a5a5d5a5a5d5a5a5d5a5a5d5a5a5d5a5a5d5a5a5d5a5a5d5a5a5d5a5a5d5a5a5d5a5a5d5a5a5d5a5a5d5a5a5d5a5a5d5a5a5d5a5a5d5a5a5d5a5a5d5a5a5d5a5a5d5a5a5d5a5a5d5a5a5d5a5a5d5a5a5d5a5a5d5a5a5d5a5a5d5a5a5d5a5a5d5a5a5d5a5a5d5a5a5d5a5a5d5a5a5d5a5a5d5a5a5d5a5a5d5a5a5d5a5a5d5a5a5d5a5a5d5a5a5d5a5a5d5a5a5d5a5a5d5a5a5d5a5a5d5a5a5d5a5a5d5a5a5d5a5a5d5a5a5d5a5a5d5a5a5d5a5a5d5a5a5d5a5a5d5a5a5d5a5a5d5a5a5d5a5a5d5a5a5d5a5a5d5a5a5d5a5a5d5a5a5d5a5a5d5a5a5d5a5a5d5a5a5d5a5a5d5a5a5d5a5a5d5a5a5d5a5a5d5a5a5d5a5a5d5a5a5d5a5a5d5a5a5d5a5a5d5a5a5d5a5a5d5a5a5d5a5a5d5a5a5d5a5a5d5a5a5d5a5a5d5a5a5d5a5a5d5a5a5d5a5a5d5a5a5d5a5a5d5a5a5d5a5a5d5a5a5d5a5a5d5a5a5d5a5a5d5a5a5d5a5a5d5a5a5d5a5a5d5a5a5d5a5a5d5a5a5d5a5a5d5a5a5d5a5a5d5a5a5d5a5a5d5a5a5d5a5a5d5a5a5d5a5a5d5a5a5d5a5a5d5a5a5d5a5a5d5a5a5d5a5a5d5a5a5d5a5a5d5a5a5d5a5a5d5a5a5d5a5a5d5a5a5d5a5a5d5a5a5d5a5a5d5a5a5d5a5a5d5a5a5d5a5a5d5a5a5d5a5a5d5a5a5d5a5a5d5a5a5d5a5a5d5a5a5d5a5a5d5a5a5d5a5a5d5a5a5d5a5a5d5a5a5d5a5a5d5a5a5d5a5a5d5a5a5d5a5a5d5a5a5d5a5a5d5a5a5d5a5a5d5a5a5d5a5a5d5a5a5d5a5a5d5a5a5d5a5a5d5a5a5d5a5a5d5a5a5d5a5a5d5a5a5d5a5a5d5a5a5d5a5a5d5a5a5d5a5a5d5a5a5d5a5a5d5a5a5d5a5a5d5a5a5d5a5a5d5a5a5d5a5a5d5a5a5d5a5a5d5a5a5d5a5a5d5a5a5d5a5a5d5a5a5d5a5a5d5a5a5d5a5a5d5a5a5d5a5a5d5a5a5d5a5a5d5a5a5d5a5a5d5a5a5d5a5a5d5a5a5d5a5a5d5a5a5d5a5a5d5a5a5d5a5a5d5a5a5d5a5a5d5a5a5d5a5a5d5a5a5d5a5a5d5a5a5d5a5a5d5a5a5d5a5a5d5a5a5d5a5a5d5a5a5d5a5a5d5a5a5d5a5a5d5a5a5d5a5a5d5a5a5d5a5a5d5a5a5d5a5a5d5a5a5d5a5a5d5a5a5d5a5a5d5a5a5d5a5a5d5a5a5d5a5a5d5a5a5d5a5a5d5a5a5d5a5a5d5a5a5d5a5a5d5a5a5d5a5a5d5a5a5d5a5a5d5a5a5d5a5a5d5a5a5d5a5a5d5a5a5d5a5a5d5a5a5d5a5a5d5a5a5d5a5a5d5a5a5d5a5a5d5a5a5d5a5a5d5a5a5d5a5a5d5a5a5d5a5a5d5a5a5d5a5a5d5a5a5d5a5a5d5a5a5d5a5a5d5a5a5d5a5a5d5a5a5d5a5a5d5a5a5d5a5a5d5a5a5d5a5a5d5a5a5d5a5a5d5a5a5d5a5a5d5a5a5d5a5a5d5a5a5d5a5a5d5a5a5d5a5a5d5a5a5d5a5a5d5a5a5d5a5a5d5a5a5d5a5a5d5a5a5d5a5a5d5a5a5d5a5a5d5a5a5d5a5a5d5a5a5d5a5a5d5a5a5d5a5a5d5a5a5d5a5a5d5a5a5d5a5a5d5a5a5d5a5a5d5a5a5d5a5a5d5a5a5d5a5a5d5a5a5d5a5a5d5a5a5d5a5a5d5a5a5d5a5a5d5a5a5d5a5a5d5a5a5d5a5a5d5a5a5d5a5a5d5a5a5d5a5a5d5a5a5d5a5a5d5a5a5d5a5a5d5a5a5d5a5a5d5a5a5d5a5a5d5a5a5d5a5a5d5a5a5d5a5a5d5a5a5d5a5a5d5a5a5d5a5a5d5a5a5d5a5a5d5a5a5d5a5a5d5a5a5d5a5a5d5a5a5d5a5a5d5a5a5d5a5a5d5a5a5d5a5a5d5a5a5d5a5a5d5a5a5d5a5a5d5a5a5d5a5a5d5a5a5d5a5a5d5a5a5d5a5a5d5a5a5d5a5a5d5a5a5d5a5a5d5a5a5d5a5a5d5a5a5d5a5a5d5a5a5d5a5a5d5a5a5d5a5a5d5a5a5d5a5a5d5a5a5d5a5a5d5a5a5d5a5a5d5a5a5d5a5a5d5a5a5d5a5a5d5a5a5d5a5a5d5a5a5d5a5a5d5a5a5d5a5a5d5a5a5d5a5a5d5a5a5d5a5a5d5a5a5d5a5a5d5a5a5d5a5a5d5a5a5d5a5a5d5a5a5d5a5a5d5a5a5d5a5a5d5a5a5d5a5a5d5a5a5d5a5a5d5a5a5d5a5a5d5a5a5d5a5a5d5a5a5d5a5a5d5a5a5d5a5a5d5a5a5d5a5a5d5a5a5d5a5a5d5a5a5d5a5a5d5a5a5d5a5a5d5a5a5d5a5a5d5a5a5d5a5a5d5a5a5d5a5a5d5a5a5d5a5a5d5a5a5d5a5a5d5a5a5d5a5a5d5a5a5d5a5a5d5a5a5d5a5a5d5a5a5d5a5a5d5a5a5d5a5a5d5a5a5d5a5a5d5a5a5d5a5a5d5a5a5d5a5a5d5a5a5d5a5a5d5a5a5d5a5a5d5a5a5d5a5a5d5a5a5d5a5a5d5a5a5d5a5a5d5a5a5d5a5a5d5a5a5d5a5a5d5a5a5d5a5a5d5a5a5d5a5a5d5a5a5d5a5a5d5a5a5d5a5a5d5a5a5d5a5a5d5a5a5d5a5a5d5a5a5d5a5a5d5a5a5d5a5a5d5a5a5d5a5a5d5a5a5d5a5a5d5a5a5d5a5a5d5a5a5d5a5a5d5a5a5d5a5a5d5a5a5d5a5a5d5a5a5d5a5a5d5a5a5d5a5a5d5a5a5d5a5a5d5a5a5d5a5a5d5a5a5d5a5a5d5a5a5d5a5a5d5a5a5d5a5a5d5a5a5d5a5a5d5a5a5d5a5a5d5a5a5d5a5a5d5a5a5d5a5a5d5a5a5d5a5a5d5a5a5d5a5a5d5a5a5d5a5a5d5a5a5d5a5a5d5a5a5d5a5a5d5a5a5d5a5a5d5a5a5d5a5a5d5a5a5d5a5a5d5a5a5d5a5a5d5a5a5d5a5a5d5a5a5d5a5a5d5a5a5d5a5a5d5a5a5d5a5a5d5a5a5d5a5a5d5a5a5d5a5a5d5a5a5d5a5a5d5a5a5d5a5a5d5a5a5d5a5a5d5a5a5d5a5a5d5a5a5d5a5a5d5a5a5d5a5a5d5a5a5d5a5a5d5a5a5d5a5a5d5a5a5d5a5a5d5a5a5d5a5a5d5a5a5d5a5a5d5a5a5d5a5a5d5a5a5d5a5a5d5a5a5d5a5a5d5a5a5d5a5a5d5a5a5d5a5a5d5a5a5d5a5a5d5a5a5d5a5a5d5a5a5d5a5a5d5a5a5d5a5a5d5a5a5d5a5a5d5a5a5d5a5a5d5a5a5d5a5a5d5a5a5d5a5a5d5a5a5d5a5a5d5a5a5d5a5a5d5a5a5d5a5a5d5a5a5d5a5a5d5a5a5d5a5a5d5a5a5d5a5a5d5a5a5d5a5a5d5a5a5d5a5a5d5a5a5d5a5a5d5a5a5d5a5a5d5a5a5d5a5a5d5a5a5d5a5a5d5a5a5d5a5a5d5a5a5d5a5a5d5a5a5d5a5a5d5a5a5d5a5a5d5a5a5d5a5a5d5a5a5d5a5a5d5a5a5d5a5a5d5a5a5d5a5a5d5a5a5d5a5a5d5a5a5d5a5a5d5a5a5d5a5a5d5a5a5d5a5a5d5a5a5d5a5a5d5a5a5d5a5a5d5a5a5d5a5a5d5a5a5d5a5a5d5a5a5d5a5a5d5a5a5d5a5a5d5a5a5d5a5a5d5a5a5d5a5a5d5a5a5d5a5a5d5a5a5d5a5a5d5a5a5d5a5a5d5a5a5d5a5a5d5f56",
                "storage": {}
            }
        },
        "transaction": {
            "nonce": "0x00",
            "gasPrice": "0x0a",
            "gasLimit": [
                "0x01c9c380"
            ],
            "to": "0x0000000000000000000000000000000000000100",
            "value": [
                "0x00"
            ],
            "data": [
                "0x"
            ],
            "sender": "0xa94f5374fce5edbc8e2a8697c15331677e6ebf0b",
            "secretKey": "0x45a915e4d060149eb4365960e6a7a45f334393093061116b197e3240065ff2d8"
        },
        "post": {
            "Cancun": [
                {
                    "hash": "0x34a11f5f5cdf0d3fa31edc5651ebc79716a0daacd91c028f2d0d826ee5545d32",
                    "logs": "0x1dcc4de8dec75d7aab85b567b6ccd41ad312451b948a7413f0a142fd40d49347",
                    "txbytes": "0xf861800a8401c9c380940000000000000000000000000000000000000100808025a0bc0a82d0b39c47b51e047f1b82e29be5437ade2f9f6e459621870eb23bc8b5c7a05ebb6210b5a0d45b0c904b5cb42df1028edeeef50c50286dbed7703cb16ddfa0",
                    "indexes": {
                        "data": 0,
                        "gas": 0,
                        "value": 0
                    }
                }
            ]
        },
        "_info": {
            "hash": "0xe51d938b788161737d9ca82adfddc4ae49efbd8b036d543ad06caa4e8f4ebe98",
            "comment": "`execution-spec-tests` generated test",
            "filling-transition-tool": "evm version 1.14.1-unstable-d6e91e2e-20240507",
            "reference-spec": "https://github.com/ethereum/EIPs/blob/master/EIPS/eip-1153.md",
            "reference-spec-version": "6f0be621c76a05a7b3aaf0e9297afd425c26e9d0"
        }
    },
    "tests/cancun/eip1153_tstore/test_tstorage.py::test_run_until_out_of_gas[fork_Cancun-state_test-tstore_wide_address_space]": {
        "env": {
            "currentCoinbase": "0x2adc25665018aa1fe0e6bc666dac8fc2697ff9ba",
            "currentGasLimit": "0x016345785d8a0000",
            "currentNumber": "0x01",
            "currentTimestamp": "0x03e8",
            "currentRandom": "0x0000000000000000000000000000000000000000000000000000000000000000",
            "currentDifficulty": "0x00",
            "currentBaseFee": "0x07",
            "currentExcessBlobGas": "0x00"
        },
        "pre": {
            "0xa94f5374fce5edbc8e2a8697c15331677e6ebf0b": {
                "nonce": "0x00",
                "balance": "0x09184e72a000",
                "code": "0x",
                "storage": {}
            },
            "0x0000000000000000000000000000000000000100": {
                "nonce": "0x00",
                "balance": "0x00",
                "code": "0x5b5a5a6001581b015d5a5a6001581b015d5a5a6001581b015d5a5a6001581b015d5a5a6001581b015d5a5a6001581b015d5a5a6001581b015d5a5a6001581b015d5a5a6001581b015d5a5a6001581b015d5a5a6001581b015d5a5a6001581b015d5a5a6001581b015d5a5a6001581b015d5a5a6001581b015d5a5a6001581b015d5a5a6001581b015d5a5a6001581b015d5a5a6001581b015d5a5a6001581b015d5a5a6001581b015d5a5a6001581b015d5a5a6001581b015d5a5a6001581b015d5a5a6001581b015d5a5a6001581b015d5a5a6001581b015d5a5a6001581b015d5a5a6001581b015d5a5a6001581b015d5a5a6001581b015d5a5a6001581b015d5f56",
                "storage": {}
            }
        },
        "transaction": {
            "nonce": "0x00",
            "gasPrice": "0x0a",
            "gasLimit": [
                "0x01c9c380"
            ],
            "to": "0x0000000000000000000000000000000000000100",
            "value": [
                "0x00"
            ],
            "data": [
                "0x"
            ],
            "sender": "0xa94f5374fce5edbc8e2a8697c15331677e6ebf0b",
            "secretKey": "0x45a915e4d060149eb4365960e6a7a45f334393093061116b197e3240065ff2d8"
        },
        "post": {
            "Cancun": [
                {
                    "hash": "0x0a195075c77e8bdbbdfd661844aa9514acbf57a5f1799761a46eb6f0f5f746fa",
                    "logs": "0x1dcc4de8dec75d7aab85b567b6ccd41ad312451b948a7413f0a142fd40d49347",
                    "txbytes": "0xf861800a8401c9c380940000000000000000000000000000000000000100808025a0bc0a82d0b39c47b51e047f1b82e29be5437ade2f9f6e459621870eb23bc8b5c7a05ebb6210b5a0d45b0c904b5cb42df1028edeeef50c50286dbed7703cb16ddfa0",
                    "indexes": {
                        "data": 0,
                        "gas": 0,
                        "value": 0
                    }
                }
            ]
        },
        "_info": {
            "hash": "0x783c4c55cb16233cc6b77c1650ec54efbd8f138f48b8df929d3d46177647a4f9",
            "comment": "`execution-spec-tests` generated test",
            "filling-transition-tool": "evm version 1.14.1-unstable-d6e91e2e-20240507",
            "reference-spec": "https://github.com/ethereum/EIPs/blob/master/EIPS/eip-1153.md",
            "reference-spec-version": "6f0be621c76a05a7b3aaf0e9297afd425c26e9d0"
        }
    },
    "tests/cancun/eip1153_tstore/test_tstorage.py::test_run_until_out_of_gas[fork_Cancun-state_test-tstore_tload]": {
        "env": {
            "currentCoinbase": "0x2adc25665018aa1fe0e6bc666dac8fc2697ff9ba",
            "currentGasLimit": "0x016345785d8a0000",
            "currentNumber": "0x01",
            "currentTimestamp": "0x03e8",
            "currentRandom": "0x0000000000000000000000000000000000000000000000000000000000000000",
            "currentDifficulty": "0x00",
            "currentBaseFee": "0x07",
            "currentExcessBlobGas": "0x00"
        },
        "pre": {
            "0xa94f5374fce5edbc8e2a8697c15331677e6ebf0b": {
                "nonce": "0x00",
                "balance": "0x09184e72a000",
                "code": "0x",
                "storage": {}
            },
            "0x0000000000000000000000000000000000000100": {
                "nonce": "0x00",
                "balance": "0x00",
                "code": "0x5b5a80805d5c505a80805d5c505a80805d5c505a80805d5c505a80805d5c505a80805d5c505a80805d5c505a80805d5c505a80805d5c505a80805d5c505a80805d5c505a80805d5c505a80805d5c505a80805d5c505a80805d5c505a80805d5c505a80805d5c505a80805d5c505a80805d5c505a80805d5c505a80805d5c505a80805d5c505a80805d5c505a80805d5c505a80805d5c505a80805d5c505a80805d5c505a80805d5c505a80805d5c505a80805d5c505a80805d5c505a80805d5c505a80805d5c505a80805d5c505a80805d5c505a80805d5c505a80805d5c505a80805d5c505a80805d5c505a80805d5c505a80805d5c505a80805d5c505a80805d5c505a80805d5c505a80805d5c505a80805d5c505a80805d5c505a80805d5c505a80805d5c505a80805d5c505a80805d5c505a80805d5c505a80805d5c505a80805d5c505a80805d5c505a80805d5c505a80805d5c505a80805d5c505a80805d5c505a80805d5c505a80805d5c505a80805d5c505a80805d5c505a80805d5c505a80805d5c505a80805d5c505a80805d5c505a80805d5c505a80805d5c505a80805d5c505a80805d5c505a80805d5c505a80805d5c505a80805d5c505a80805d5c505a80805d5c505a80805d5c505a80805d5c505a80805d5c505a80805d5c505a80805d5c505a80805d5c505a80805d5c505a80805d5c505a80805d5c505a80805d5c505a80805d5c505a80805d5c505a80805d5c505a80805d5c505a80805d5c505a80805d5c505a80805d5c505a80805d5c505a80805d5c505a80805d5c505a80805d5c505a80805d5c505a80805d5c505a80805d5c505a80805d5c505a80805d5c505a80805d5c505a80805d5c505a80805d5c505a80805d5c505a80805d5c505a80805d5c505a80805d5c505a80805d5c505a80805d5c505a80805d5c505a80805d5c505a80805d5c505a80805d5c505a80805d5c505a80805d5c505a80805d5c505a80805d5c505a80805d5c505a80805d5c505a80805d5c505a80805d5c505a80805d5c505a80805d5c505a80805d5c505a80805d5c505a80805d5c505a80805d5c505a80805d5c505a80805d5c505a80805d5c505a80805d5c505a80805d5c505a80805d5c505a80805d5c505a80805d5c505a80805d5c505a80805d5c505a80805d5c505a80805d5c505a80805d5c505a80805d5c505a80805d5c505a80805d5c505a80805d5c505a80805d5c505a80805d5c505a80805d5c505a80805d5c505a80805d5c505a80805d5c505a80805d5c505a80805d5c505a80805d5c505a80805d5c505a80805d5c505a80805d5c505a80805d5c505a80805d5c505a80805d5c505a80805d5c505a80805d5c505a80805d5c505a80805d5c505a80805d5c505a80805d5c505a80805d5c505a80805d5c505a80805d5c505a80805d5c505a80805d5c505a80805d5c505a80805d5c505a80805d5c505a80805d5c505a80805d5c505a80805d5c505a80805d5c505a80805d5c505a80805d5c505a80805d5c505a80805d5c505a80805d5c505a80805d5c505a80805d5c505a80805d5c505a80805d5c505a80805d5c505a80805d5c505a80805d5c505a80805d5c505a80805d5c505a80805d5c505a80805d5c505a80805d5c505a80805d5c505a80805d5c505a80805d5c505a80805d5c505a80805d5c505a80805d5c505a80805d5c505a80805d5c505a80805d5c505a80805d5c505a80805d5c505a80805d5c505a80805d5c505a80805d5c505a80805d5c505a80805d5c505a80805d5c505a80805d5c505a80805d5c505a80805d5c505a80805d5c505a80805d5c505a80805d5c505a80805d5c505a80805d5c505a80805d5c505a80805d5c505a80805d5c505a80805d5c505a80805d5c505a80805d5c505a80805d5c505a80805d5c505a80805d5c505a80805d5c505a80805d5c505a80805d5c505a80805d5c505a80805d5c505a80805d5c505a80805d5c505a80805d5c505a80805d5c505a80805d5c505a80805d5c505a80805d5c505a80805d5c505a80805d5c505a80805d5c505a80805d5c505a80805d5c505a80805d5c505a80805d5c505a80805d5c505a80805d5c505a80805d5c505a80805d5c505a80805d5c505a80805d5c505a80805d5c505a80805d5c505a80805d5c505a80805d5c505a80805d5c505a80805d5c505a80805d5c505a80805d5c505a80805d5c505a80805d5c505a80805d5c505a80805d5c505a80805d5c505a80805d5c505a80805d5c505a80805d5c505a80805d5c505a80805d5c505a80805d5c505a80805d5c505a80805d5c505a80805d5c505a80805d5c505a80805d5c505a80805d5c505a80805d5c505a80805d5c505a80805d5c505a80805d5c505a80805d5c505a80805d5c505a80805d5c505a80805d5c505a80805d5c505a80805d5c505a80805d5c505a80805d5c505a80805d5c505a80805d5c505a80805d5c505a80805d5c505a80805d5c505a80805d5c505a80805d5c505a80805d5c505a80805d5c505a80805d5c505a80805d5c505a80805d5c505a80805d5c505a80805d5c505a80805d5c505a80805d5c505a80805d5c505a80805d5c505a80805d5c505a80805d5c505a80805d5c505a80805d5c505a80805d5c505a80805d5c505a80805d5c505a80805d5c505a80805d5c505a80805d5c505a80805d5c505a80805d5c505a80805d5c505a80805d5c505a80805d5c505a80805d5c505a80805d5c505a80805d5c505a80805d5c505a80805d5c505a80805d5c505a80805d5c505a80805d5c505a80805d5c505a80805d5c505a80805d5c505a80805d5c505a80805d5c505a80805d5c505a80805d5c505a80805d5c505a80805d5c505a80805d5c505a80805d5c505a80805d5c505a80805d5c505a80805d5c505a80805d5c505a80805d5c505a80805d5c505a80805d5c505a80805d5c505a80805d5c505a80805d5c505a80805d5c505a80805d5c505a80805d5c505a80805d5c505a80805d5c505a80805d5c505a80805d5c505a80805d5c505a80805d5c505a80805d5c505a80805d5c505a80805d5c505a80805d5c505a80805d5c505a80805d5c505a80805d5c505a80805d5c505a80805d5c505a80805d5c505a80805d5c505a80805d5c505a80805d5c505a80805d5c505a80805d5c505a80805d5c505a80805d5c505a80805d5c505a80805d5c505a80805d5c505a80805d5c505a80805d5c505a80805d5c505a80805d5c505a80805d5c505a80805d5c505a80805d5c505a80805d5c505a80805d5c505a80805d5c505a80805d5c505a80805d5c505a80805d5c505a80805d5c505a80805d5c505a80805d5c505a80805d5c505a80805d5c505a80805d5c505a80805d5c505a80805d5c505a80805d5c505a80805d5c505a80805d5c505a80805d5c505a80805d5c505a80805d5c505a80805d5c505a80805d5c505a80805d5c505a80805d5c505a80805d5c505a80805d5c505a80805d5c505a80805d5c505a80805d5c505a80805d5c505a80805d5c505a80805d5c505a80805d5c505a80805d5c505a80805d5c505a80805d5c505a80805d5c505a80805d5c505a80805d5c505a80805d5c505a80805d5c505a80805d5c505a80805d5c505a80805d5c505a80805d5c505a80805d5c505a80805d5c505a80805d5c505a80805d5c505a80805d5c505a80805d5c505a80805d5c505a80805d5c505a80805d5c505a80805d5c505a80805d5c505a80805d5c505a80805d5c505a80805d5c505a80805d5c505a80805d5c505a80805d5c505a80805d5c505a80805d5c505a80805d5c505a80805d5c505a80805d5c505a80805d5c505a80805d5c505a80805d5c505a80805d5c505a80805d5c505a80805d5c505a80805d5c505a80805d5c505a80805d5c505a80805d5c505a80805d5c505a80805d5c505a80805d5c505a80805d5c505a80805d5c505a80805d5c505a80805d5c505a80805d5c505a80805d5c505a80805d5c505a80805d5c505a80805d5c505a80805d5c505a80805d5c505a80805d5c505a80805d5c505a80805d5c505a80805d5c505a80805d5c505a80805d5c505a80805d5c505a80805d5c505a80805d5c505a80805d5c505a80805d5c505a80805d5c505a80805d5c505a80805d5c505a80805d5c505a80805d5c505a80805d5c505a80805d5c505a80805d5c505a80805d5c505a80805d5c505a80805d5c505a80805d5c505a80805d5c505a80805d5c505a80805d5c505a80805d5c505a80805d5c505a80805d5c505a80805d5c505a80805d5c505a80805d5c505a80805d5c505a80805d5c505a80805d5c505a80805d5c505a80805d5c505a80805d5c505a80805d5c505a80805d5c505a80805d5c505a80805d5c505a80805d5c505a80805d5c505a80805d5c505a80805d5c505a80805d5c505a80805d5c505a80805d5c505a80805d5c505a80805d5c505a80805d5c505a80805d5c505a80805d5c505a80805d5c505a80805d5c505a80805d5c505a80805d5c505a80805d5c505a80805d5c505a80805d5c505a80805d5c505a80805d5c505a80805d5c505a80805d5c505a80805d5c505a80805d5c505a80805d5c505a80805d5c505a80805d5c505a80805d5c505a80805d5c505a80805d5c505a80805d5c505a80805d5c505a80805d5c505a80805d5c505a80805d5c505a80805d5c505a80805d5c505a80805d5c505a80805d5c505a80805d5c505a80805d5c505a80805d5c505a80805d5c505a80805d5c505a80805d5c505a80805d5c505a80805d5c505a80805d5c505a80805d5c505a80805d5c505a80805d5c505a80805d5c505a80805d5c505a80805d5c505a80805d5c505a80805d5c505a80805d5c505a80805d5c505a80805d5c505a80805d5c505a80805d5c505a80805d5c505a80805d5c505a80805d5c505a80805d5c505a80805d5c505a80805d5c505a80805d5c505a80805d5c505a80805d5c505a80805d5c505a80805d5c505a80805d5c505a80805d5c505a80805d5c505a80805d5c505a80805d5c505a80805d5c505a80805d5c505a80805d5c505a80805d5c505a80805d5c505a80805d5c505a80805d5c505a80805d5c505a80805d5c505a80805d5c505a80805d5c505a80805d5c505a80805d5c505a80805d5c505a80805d5c505a80805d5c505a80805d5c505a80805d5c505a80805d5c505a80805d5c505a80805d5c505a80805d5c505a80805d5c505a80805d5c505a80805d5c505a80805d5c505a80805d5c505a80805d5c505a80805d5c505a80805d5c505a80805d5c505a80805d5c505a80805d5c505a80805d5c505a80805d5c505a80805d5c505a80805d5c505a80805d5c505a80805d5c505a80805d5c505a80805d5c505a80805d5c505a80805d5c505a80805d5c505a80805d5c505a80805d5c505a80805d5c505a80805d5c505a80805d5c505a80805d5c505a80805d5c505a80805d5c505a80805d5c505a80805d5c505a80805d5c505a80805d5c505a80805d5c505a80805d5c505a80805d5c505a80805d5c505a80805d5c505a80805d5c505a80805d5c505a80805d5c505a80805d5c505a80805d5c505a80805d5c505a80805d5c505a80805d5c505a80805d5c505a80805d5c505a80805d5c505a80805d5c505a80805d5c505a80805d5c505a80805d5c505a80805d5c505a80805d5c505a80805d5c505a80805d5c505a80805d5c505a80805d5c505a80805d5c505a80805d5c505a80805d5c505a80805d5c505a80805d5c505a80805d5c505a80805d5c505a80805d5c505a80805d5c505a80805d5c505a80805d5c505a80805d5c505a80805d5c505a80805d5c505a80805d5c505a80805d5c505a80805d5c505a80805d5c505a80805d5c505a80805d5c505a80805d5c505a80805d5c505a80805d5c505a80805d5c505a80805d5c505a80805d5c505a80805d5c505a80805d5c505a80805d5c505a80805d5c505a80805d5c505a80805d5c505a80805d5c505a80805d5c505a80805d5c505a80805d5c505a80805d5c505a80805d5c505a80805d5c505a80805d5c505a80805d5c505a80805d5c505a80805d5c505a80805d5c505a80805d5c505a80805d5c505a80805d5c505a80805d5c505a80805d5c505a80805d5c505a80805d5c505a80805d5c505a80805d5c505a80805d5c505a80805d5c505a80805d5c505a80805d5c505a80805d5c505a80805d5c505a80805d5c505a80805d5c505a80805d5c505a80805d5c505a80805d5c505a80805d5c505a80805d5c505a80805d5c505a80805d5c505a80805d5c505a80805d5c505a80805d5c505a80805d5c505a80805d5c505a80805d5c505a80805d5c505a80805d5c505a80805d5c505a80805d5c505a80805d5c505a80805d5c505a80805d5c505a80805d5c505a80805d5c505a80805d5c505a80805d5c505a80805d5c505a80805d5c505a80805d5c505a80805d5c505a80805d5c505a80805d5c505a80805d5c505a80805d5c505a80805d5c505a80805d5c505a80805d5c505a80805d5c505a80805d5c505a80805d5c505a80805d5c505a80805d5c505a80805d5c505a80805d5c505a80805d5c505a80805d5c505a80805d5c505a80805d5c505a80805d5c505a80805d5c505a80805d5c505a80805d5c505a80805d5c505a80805d5c505a80805d5c505a80805d5c505a80805d5c505a80805d5c505a80805d5c505a80805d5c505a80805d5c505a80805d5c505a80805d5c505a80805d5c505a80805d5c505a80805d5c505a80805d5c505a80805d5c505a80805d5c505a80805d5c505a80805d5c505a80805d5c505a80805d5c505a80805d5c505a80805d5c505a80805d5c505a80805d5c505a80805d5c505a80805d5c505a80805d5c505a80805d5c505a80805d5c505a80805d5c505a80805d5c505a80805d5c505a80805d5c505a80805d5c505a80805d5c505a80805d5c505a80805d5c505a80805d5c505a80805d5c505a80805d5c505a80805d5c505a80805d5c505a80805d5c505a80805d5c505a80805d5c505a80805d5c505a80805d5c505a80805d5c505a80805d5c505a80805d5c505a80805d5c505a80805d5c505a80805d5c505a80805d5c505a80805d5c505a80805d5c505a80805d5c505a80805d5c505a80805d5c505a80805d5c505a80805d5c505a80805d5c505a80805d5c505a80805d5c505a80805d5c505a80805d5c505a80805d5c505a80805d5c505a80805d5c505a80805d5c505a80805d5c505a80805d5c505a80805d5c505a80805d5c505a80805d5c505a80805d5c505a80805d5c505a80805d5c505a80805d5c505a80805d5c505a80805d5c505a80805d5c505a80805d5c505a80805d5c505a80805d5c505a80805d5c505a80805d5c505a80805d5c505a80805d5c505a80805d5c505a80805d5c505a80805d5c505a80805d5c505a80805d5c505a80805d5c505a80805d5c505a80805d5c505a80805d5c505a80805d5c505a80805d5c505a80805d5c505a80805d5c505a80805d5c505a80805d5c505a80805d5c505a80805d5c505a80805d5c505a80805d5c505a80805d5c505a80805d5c505a80805d5c505a80805d5c505a80805d5c505a80805d5c505a80805d5c505a80805d5c505a80805d5c505a80805d5c505a80805d5c505a80805d5c505a80805d5c505a80805d5c505a80805d5c505a80805d5c505a80805d5c505a80805d5c505a80805d5c505a80805d5c505a80805d5c505a80805d5c505a80805d5c505a80805d5c505a80805d5c505a80805d5c505a80805d5c505a80805d5c505a80805d5c505a80805d5c505a80805d5c505a80805d5c505a80805d5c505a80805d5c505a80805d5c505a80805d5c505a80805d5c505a80805d5c505a80805d5c505a80805d5c505a80805d5c505a80805d5c505a80805d5c505a80805d5c505a80805d5c505a80805d5c505a80805d5c505a80805d5c505a80805d5c505a80805d5c505a80805d5c505a80805d5c505a80805d5c505a80805d5c505a80805d5c505a80805d5c505a80805d5c505a80805d5c505a80805d5c505a80805d5c505a80805d5c505a80805d5c505a80805d5c505a80805d5c505a80805d5c505a80805d5c505a80805d5c505a80805d5c505a80805d5c505a80805d5c505a80805d5c505a80805d5c505a80805d5c505a80805d5c505a80805d5c505a80805d5c505a80805d5c505a80805d5c505a80805d5c505a80805d5c505a80805d5c505a80805d5c505a80805d5c505a80805d5c505a80805d5c505a80805d5c505a80805d5c505a80805d5c505a80805d5c505a80805d5c505a80805d5c505a80805d5c505a80805d5c505a80805d5c505a80805d5c505a80805d5c505a80805d5c505f56",
                "storage": {}
            }
        },
        "transaction": {
            "nonce": "0x00",
            "gasPrice": "0x0a",
            "gasLimit": [
                "0x01c9c380"
            ],
            "to": "0x0000000000000000000000000000000000000100",
            "value": [
                "0x00"
            ],
            "data": [
                "0x"
            ],
            "sender": "0xa94f5374fce5edbc8e2a8697c15331677e6ebf0b",
            "secretKey": "0x45a915e4d060149eb4365960e6a7a45f334393093061116b197e3240065ff2d8"
        },
        "post": {
            "Cancun": [
                {
                    "hash": "0x4ec33e84b8c6904431fca1ba5c730392ec5aef634d37f7b6f50016b64d9ea88d",
                    "logs": "0x1dcc4de8dec75d7aab85b567b6ccd41ad312451b948a7413f0a142fd40d49347",
                    "txbytes": "0xf861800a8401c9c380940000000000000000000000000000000000000100808025a0bc0a82d0b39c47b51e047f1b82e29be5437ade2f9f6e459621870eb23bc8b5c7a05ebb6210b5a0d45b0c904b5cb42df1028edeeef50c50286dbed7703cb16ddfa0",
                    "indexes": {
                        "data": 0,
                        "gas": 0,
                        "value": 0
                    }
                }
            ]
        },
        "_info": {
            "hash": "0x297da075f3d922f5305956dfb5fd0091c718969498234892bca646ccc1be0743",
            "comment": "`execution-spec-tests` generated test",
            "filling-transition-tool": "evm version 1.14.1-unstable-d6e91e2e-20240507",
            "reference-spec": "https://github.com/ethereum/EIPs/blob/master/EIPS/eip-1153.md",
            "reference-spec-version": "6f0be621c76a05a7b3aaf0e9297afd425c26e9d0"
        }
    }
}