{
    "src/GeneralStateTestsFiller/Pyspecs/homestead/coverage/test_coverage.py::test_coverage[fork_Berlin-state_test]" : {
        "_info" : {
            "comment" : "`execution-spec-tests` generated test",
            "description" : "Test function documentation:\n\n    This test covers gaps that result from transforming Yul code into\n    `ethereum_test_tools.vm.opcode.Opcodes` bytecode.\n\n    E.g. Yul tends to optimize stack items by using `SWAP1` and `DUP1` opcodes, which are not\n    regularly used in python code.\n\n    Modify this test to cover more Yul code if required in the future.",
            "filling-rpc-server" : "evm version 1.14.12-unstable-65e5ca7d-20241004",
            "filling-tool-version" : "retesteth-0.3.2-legacy+commit.be61b546.Linux.g++",
            "filling-transition-tool" : "evm version 1.14.12-unstable-65e5ca7d-20241004",
            "generatedTestHash" : "f3a8e5e4423257ba66af563d3bffd8bcf162b9e9d31bf351d3cba964c529cf21",
            "hash" : "0x02aabf036be232b58d876b608aff2c8091246ac7a5e2bbad55e6e5972c603571",
            "lllcversion" : "Version: 0.5.14-develop.2024.11.5+commit.b2b86751.mod.Linux.g++",
            "solidity" : "Version: 0.8.24+commit.e11b9ed9.Linux.g++",
            "source" : "src/GeneralStateTestsFiller/Pyspecs/homestead/coverage/test_coverage.py",
            "sourceHash" : "cb2fab3f864cab74bc21bcba0976fae7b9a850713c3c2fc9acdee8ab971e1440",
            "url" : "https://github.com/ethereum/execution-spec-tests/blob/f89d09ba99a3dc680dd9410f0b8a7f8d8fc36714/tests/tmp/tmptest_d9a6b842_04a3_45bc_b1f2_a93a41c6c2e9/test_coverage.py#L15"
        },
        "env" : {
            "currentCoinbase" : "0x2adc25665018aa1fe0e6bc666dac8fc2697ff9ba",
            "currentDifficulty" : "0x020000",
            "currentGasLimit" : "0x016345785d8a0000",
            "currentNumber" : "0x01",
            "currentTimestamp" : "0x03e8"
        },
        "post" : {
            "Berlin" : [
                {
                    "hash" : "0x04e5505151340d9d5ee2adcfc71921551c443af21642675f8520ea6c6bb5d267",
                    "indexes" : {
                        "data" : 0,
                        "gas" : 0,
                        "value" : 0
                    },
                    "logs" : "0x1dcc4de8dec75d7aab85b567b6ccd41ad312451b948a7413f0a142fd40d49347",
                    "txbytes" : "0xf860800a830186a094000000000000000000000000000000000000110080801ca00671a3e9dab47d17669ebe31855e9d6481d6c945fa946dd61fc374eb5420a220a03d6c864c60d6f9c901dcb2ec86286cbaeaa1e86c82c6fa7147cd4417db86bf9f"
                }
            ]
        },
        "pre" : {
            "0x0000000000000000000000000000000000001000" : {
                "balance" : "0x00",
                "code" : "0x600060011b600060011c600a600b600c600d600e9080815f61010262010203630102030460015060046010600039",
                "nonce" : "0x01",
                "storage" : {
                }
            },
            "0x0000000000000000000000000000000000001100" : {
                "balance" : "0x0de0b6b3a7640000",
                "code" : "0x600060006000600060006110005af160005260206000f3",
                "nonce" : "0x01",
                "storage" : {
                }
            },
            "0xa94f5374fce5edbc8e2a8697c15331677e6ebf0b" : {
                "balance" : "0x6124fee993bc0000",
                "code" : "0x",
                "nonce" : "0x00",
                "storage" : {
                }
            }
        },
        "transaction" : {
            "data" : [
                "0x"
            ],
            "gasLimit" : [
                "0x0186a0"
            ],
            "gasPrice" : "0x0a",
            "nonce" : "0x00",
            "secretKey" : "0x45a915e4d060149eb4365960e6a7a45f334393093061116b197e3240065ff2d8",
            "sender" : "0xa94f5374fce5edbc8e2a8697c15331677e6ebf0b",
            "to" : "0x0000000000000000000000000000000000001100",
            "value" : [
                "0x00"
            ]
        }
    },
    "src/GeneralStateTestsFiller/Pyspecs/homestead/coverage/test_coverage.py::test_coverage[fork_Byzantium-state_test]" : {
        "_info" : {
            "comment" : "`execution-spec-tests` generated test",
            "description" : "Test function documentation:\n\n    This test covers gaps that result from transforming Yul code into\n    `ethereum_test_tools.vm.opcode.Opcodes` bytecode.\n\n    E.g. Yul tends to optimize stack items by using `SWAP1` and `DUP1` opcodes, which are not\n    regularly used in python code.\n\n    Modify this test to cover more Yul code if required in the future.",
            "filling-rpc-server" : "evm version 1.14.12-unstable-65e5ca7d-20241004",
            "filling-tool-version" : "retesteth-0.3.2-legacy+commit.be61b546.Linux.g++",
            "filling-transition-tool" : "evm version 1.14.12-unstable-65e5ca7d-20241004",
            "generatedTestHash" : "59c5a10e5b0669eeea0ecf9909143127a80b06139aecf359943419a2e430472b",
            "hash" : "0xfa5c97d4572e8c42f8a56477a8b18d25a9d3cd7a34b1b3de0f180508e49770bf",
            "lllcversion" : "Version: 0.5.14-develop.2024.11.5+commit.b2b86751.mod.Linux.g++",
            "solidity" : "Version: 0.8.24+commit.e11b9ed9.Linux.g++",
            "source" : "src/GeneralStateTestsFiller/Pyspecs/homestead/coverage/test_coverage.py",
            "sourceHash" : "cb2fab3f864cab74bc21bcba0976fae7b9a850713c3c2fc9acdee8ab971e1440",
            "url" : "https://github.com/ethereum/execution-spec-tests/blob/f89d09ba99a3dc680dd9410f0b8a7f8d8fc36714/tests/tmp/tmptest_d9a6b842_04a3_45bc_b1f2_a93a41c6c2e9/test_coverage.py#L15"
        },
        "env" : {
            "currentCoinbase" : "0x2adc25665018aa1fe0e6bc666dac8fc2697ff9ba",
            "currentDifficulty" : "0x020000",
            "currentGasLimit" : "0x016345785d8a0000",
            "currentNumber" : "0x01",
            "currentTimestamp" : "0x03e8"
        },
        "post" : {
            "Byzantium" : [
                {
                    "hash" : "0x3afe4b55f184c3febe3d5c256dd69e7ba055ce2cc62cc82a21027bd9cae7d72d",
                    "indexes" : {
                        "data" : 0,
                        "gas" : 0,
                        "value" : 0
                    },
                    "logs" : "0x1dcc4de8dec75d7aab85b567b6ccd41ad312451b948a7413f0a142fd40d49347",
                    "txbytes" : "0xf860800a830186a094000000000000000000000000000000000000110080801ca00671a3e9dab47d17669ebe31855e9d6481d6c945fa946dd61fc374eb5420a220a03d6c864c60d6f9c901dcb2ec86286cbaeaa1e86c82c6fa7147cd4417db86bf9f"
                }
            ]
        },
        "pre" : {
            "0x0000000000000000000000000000000000001000" : {
                "balance" : "0x00",
                "code" : "0x600060011b600060011c600a600b600c600d600e9080815f61010262010203630102030460015060046010600039",
                "nonce" : "0x01",
                "storage" : {
                }
            },
            "0x0000000000000000000000000000000000001100" : {
                "balance" : "0x0de0b6b3a7640000",
                "code" : "0x600060006000600060006110005af160005260206000f3",
                "nonce" : "0x01",
                "storage" : {
                }
            },
            "0xa94f5374fce5edbc8e2a8697c15331677e6ebf0b" : {
                "balance" : "0x6124fee993bc0000",
                "code" : "0x",
                "nonce" : "0x00",
                "storage" : {
                }
            }
        },
        "transaction" : {
            "data" : [
                "0x"
            ],
            "gasLimit" : [
                "0x0186a0"
            ],
            "gasPrice" : "0x0a",
            "nonce" : "0x00",
            "secretKey" : "0x45a915e4d060149eb4365960e6a7a45f334393093061116b197e3240065ff2d8",
            "sender" : "0xa94f5374fce5edbc8e2a8697c15331677e6ebf0b",
            "to" : "0x0000000000000000000000000000000000001100",
            "value" : [
                "0x00"
            ]
        }
    },
    "src/GeneralStateTestsFiller/Pyspecs/homestead/coverage/test_coverage.py::test_coverage[fork_Cancun-state_test]" : {
        "_info" : {
            "comment" : "`execution-spec-tests` generated test",
            "description" : "Test function documentation:\n\n    This test covers gaps that result from transforming Yul code into\n    `ethereum_test_tools.vm.opcode.Opcodes` bytecode.\n\n    E.g. Yul tends to optimize stack items by using `SWAP1` and `DUP1` opcodes, which are not\n    regularly used in python code.\n\n    Modify this test to cover more Yul code if required in the future.",
            "filling-rpc-server" : "evm version 1.14.12-unstable-65e5ca7d-20241004",
            "filling-tool-version" : "retesteth-0.3.2-legacy+commit.be61b546.Linux.g++",
            "filling-transition-tool" : "evm version 1.14.12-unstable-65e5ca7d-20241004",
            "generatedTestHash" : "cb2336ec36290f0eb1f9860ec7542b39fb76e0db993d6709ad011f6f5ef10fe6",
            "hash" : "0xfe5fae5b102924990f68e54db9c1e59d1f64d1082aef4aa8818233926da0e8c9",
            "lllcversion" : "Version: 0.5.14-develop.2024.11.5+commit.b2b86751.mod.Linux.g++",
            "solidity" : "Version: 0.8.24+commit.e11b9ed9.Linux.g++",
            "source" : "src/GeneralStateTestsFiller/Pyspecs/homestead/coverage/test_coverage.py",
            "sourceHash" : "cb2fab3f864cab74bc21bcba0976fae7b9a850713c3c2fc9acdee8ab971e1440",
            "url" : "https://github.com/ethereum/execution-spec-tests/blob/f89d09ba99a3dc680dd9410f0b8a7f8d8fc36714/tests/tmp/tmptest_d9a6b842_04a3_45bc_b1f2_a93a41c6c2e9/test_coverage.py#L15"
        },
        "env" : {
            "currentBaseFee" : "0x07",
            "currentCoinbase" : "0x2adc25665018aa1fe0e6bc666dac8fc2697ff9ba",
            "currentDifficulty" : "0x00",
            "currentExcessBlobGas" : "0x00",
            "currentGasLimit" : "0x016345785d8a0000",
            "currentNumber" : "0x01",
            "currentRandom" : "0x0000000000000000000000000000000000000000000000000000000000000000",
            "currentTimestamp" : "0x03e8"
        },
        "post" : {
            "Cancun" : [
                {
                    "hash" : "0x8e183b0fe366af1c21333f7be7a1cb5a40e5ddd02780fb388793bcef40f1dac9",
                    "indexes" : {
                        "data" : 0,
                        "gas" : 0,
                        "value" : 0
                    },
                    "logs" : "0x1dcc4de8dec75d7aab85b567b6ccd41ad312451b948a7413f0a142fd40d49347",
                    "txbytes" : "0x02f8630180050a830186a09400000000000000000000000000000000000011008080c080a08f7a97fc84c20df70553febefc9f95ca6e508163e7a2896b7c08f62bd5343cc2a05879b2fb80033d28fa5e112066bacc62d200a299a21e1b93ea1abc759f307b53"
                }
            ]
        },
        "pre" : {
            "0x0000000000000000000000000000000000001000" : {
                "balance" : "0x00",
                "code" : "0x600060011b600060011c600a600b600c600d600e9080815f61010262010203630102030460015060046010600039",
                "nonce" : "0x01",
                "storage" : {
                }
            },
            "0x0000000000000000000000000000000000001100" : {
                "balance" : "0x0de0b6b3a7640000",
                "code" : "0x600060006000600060006110005af160005260206000f3",
                "nonce" : "0x01",
                "storage" : {
                }
            },
            "0xa94f5374fce5edbc8e2a8697c15331677e6ebf0b" : {
                "balance" : "0x6124fee993bc0000",
                "code" : "0x",
                "nonce" : "0x00",
                "storage" : {
                }
            }
        },
        "transaction" : {
            "accessLists" : [
                [
                ]
            ],
            "data" : [
                "0x"
            ],
            "gasLimit" : [
                "0x0186a0"
            ],
            "maxFeePerGas" : "0x0a",
            "maxPriorityFeePerGas" : "0x05",
            "nonce" : "0x00",
            "secretKey" : "0x45a915e4d060149eb4365960e6a7a45f334393093061116b197e3240065ff2d8",
            "sender" : "0xa94f5374fce5edbc8e2a8697c15331677e6ebf0b",
            "to" : "0x0000000000000000000000000000000000001100",
            "value" : [
                "0x00"
            ]
        }
    },
    "src/GeneralStateTestsFiller/Pyspecs/homestead/coverage/test_coverage.py::test_coverage[fork_Constantinople-state_test]" : {
        "_info" : {
            "comment" : "`execution-spec-tests` generated test",
            "description" : "Test function documentation:\n\n    This test covers gaps that result from transforming Yul code into\n    `ethereum_test_tools.vm.opcode.Opcodes` bytecode.\n\n    E.g. Yul tends to optimize stack items by using `SWAP1` and `DUP1` opcodes, which are not\n    regularly used in python code.\n\n    Modify this test to cover more Yul code if required in the future.",
            "filling-rpc-server" : "evm version 1.14.12-unstable-65e5ca7d-20241004",
            "filling-tool-version" : "retesteth-0.3.2-legacy+commit.be61b546.Linux.g++",
            "filling-transition-tool" : "evm version 1.14.12-unstable-65e5ca7d-20241004",
            "generatedTestHash" : "64928c016186289a9264675d9653406bb4de6d946144008e4723c2a989878645",
            "hash" : "0xf23e6323d428990779fe674d3e17baf92dce22c49e217e25b70570e27cc16d59",
            "lllcversion" : "Version: 0.5.14-develop.2024.11.5+commit.b2b86751.mod.Linux.g++",
            "solidity" : "Version: 0.8.24+commit.e11b9ed9.Linux.g++",
            "source" : "src/GeneralStateTestsFiller/Pyspecs/homestead/coverage/test_coverage.py",
            "sourceHash" : "cb2fab3f864cab74bc21bcba0976fae7b9a850713c3c2fc9acdee8ab971e1440",
            "url" : "https://github.com/ethereum/execution-spec-tests/blob/f89d09ba99a3dc680dd9410f0b8a7f8d8fc36714/tests/tmp/tmptest_d9a6b842_04a3_45bc_b1f2_a93a41c6c2e9/test_coverage.py#L15"
        },
        "env" : {
            "currentCoinbase" : "0x2adc25665018aa1fe0e6bc666dac8fc2697ff9ba",
            "currentDifficulty" : "0x020000",
            "currentGasLimit" : "0x016345785d8a0000",
            "currentNumber" : "0x01",
            "currentTimestamp" : "0x03e8"
        },
        "post" : {
            "Constantinople" : [
                {
                    "hash" : "0x3afe4b55f184c3febe3d5c256dd69e7ba055ce2cc62cc82a21027bd9cae7d72d",
                    "indexes" : {
                        "data" : 0,
                        "gas" : 0,
                        "value" : 0
                    },
                    "logs" : "0x1dcc4de8dec75d7aab85b567b6ccd41ad312451b948a7413f0a142fd40d49347",
                    "txbytes" : "0xf860800a830186a094000000000000000000000000000000000000110080801ca00671a3e9dab47d17669ebe31855e9d6481d6c945fa946dd61fc374eb5420a220a03d6c864c60d6f9c901dcb2ec86286cbaeaa1e86c82c6fa7147cd4417db86bf9f"
                }
            ]
        },
        "pre" : {
            "0x0000000000000000000000000000000000001000" : {
                "balance" : "0x00",
                "code" : "0x600060011b600060011c600a600b600c600d600e9080815f61010262010203630102030460015060046010600039",
                "nonce" : "0x01",
                "storage" : {
                }
            },
            "0x0000000000000000000000000000000000001100" : {
                "balance" : "0x0de0b6b3a7640000",
                "code" : "0x600060006000600060006110005af160005260206000f3",
                "nonce" : "0x01",
                "storage" : {
                }
            },
            "0xa94f5374fce5edbc8e2a8697c15331677e6ebf0b" : {
                "balance" : "0x6124fee993bc0000",
                "code" : "0x",
                "nonce" : "0x00",
                "storage" : {
                }
            }
        },
        "transaction" : {
            "data" : [
                "0x"
            ],
            "gasLimit" : [
                "0x0186a0"
            ],
            "gasPrice" : "0x0a",
            "nonce" : "0x00",
            "secretKey" : "0x45a915e4d060149eb4365960e6a7a45f334393093061116b197e3240065ff2d8",
            "sender" : "0xa94f5374fce5edbc8e2a8697c15331677e6ebf0b",
            "to" : "0x0000000000000000000000000000000000001100",
            "value" : [
                "0x00"
            ]
        }
    },
    "src/GeneralStateTestsFiller/Pyspecs/homestead/coverage/test_coverage.py::test_coverage[fork_ConstantinopleFix-state_test]" : {
        "_info" : {
            "comment" : "`execution-spec-tests` generated test",
            "description" : "Test function documentation:\n\n    This test covers gaps that result from transforming Yul code into\n    `ethereum_test_tools.vm.opcode.Opcodes` bytecode.\n\n    E.g. Yul tends to optimize stack items by using `SWAP1` and `DUP1` opcodes, which are not\n    regularly used in python code.\n\n    Modify this test to cover more Yul code if required in the future.",
            "filling-rpc-server" : "evm version 1.14.12-unstable-65e5ca7d-20241004",
            "filling-tool-version" : "retesteth-0.3.2-legacy+commit.be61b546.Linux.g++",
            "filling-transition-tool" : "evm version 1.14.12-unstable-65e5ca7d-20241004",
            "generatedTestHash" : "12b77d204d22b6c275dec97359aefccc6483b195ab316b524484fdbfe7e73e2e",
            "hash" : "0x28275dddee4ba04c950b538edecfa492f53f928cfda9d647ef224f7a49b4c774",
            "lllcversion" : "Version: 0.5.14-develop.2024.11.5+commit.b2b86751.mod.Linux.g++",
            "solidity" : "Version: 0.8.24+commit.e11b9ed9.Linux.g++",
            "source" : "src/GeneralStateTestsFiller/Pyspecs/homestead/coverage/test_coverage.py",
            "sourceHash" : "cb2fab3f864cab74bc21bcba0976fae7b9a850713c3c2fc9acdee8ab971e1440",
            "url" : "https://github.com/ethereum/execution-spec-tests/blob/f89d09ba99a3dc680dd9410f0b8a7f8d8fc36714/tests/tmp/tmptest_d9a6b842_04a3_45bc_b1f2_a93a41c6c2e9/test_coverage.py#L15"
        },
        "env" : {
            "currentCoinbase" : "0x2adc25665018aa1fe0e6bc666dac8fc2697ff9ba",
            "currentDifficulty" : "0x020000",
            "currentGasLimit" : "0x016345785d8a0000",
            "currentNumber" : "0x01",
            "currentTimestamp" : "0x03e8"
        },
        "post" : {
            "ConstantinopleFix" : [
                {
                    "hash" : "0x3afe4b55f184c3febe3d5c256dd69e7ba055ce2cc62cc82a21027bd9cae7d72d",
                    "indexes" : {
                        "data" : 0,
                        "gas" : 0,
                        "value" : 0
                    },
                    "logs" : "0x1dcc4de8dec75d7aab85b567b6ccd41ad312451b948a7413f0a142fd40d49347",
                    "txbytes" : "0xf860800a830186a094000000000000000000000000000000000000110080801ca00671a3e9dab47d17669ebe31855e9d6481d6c945fa946dd61fc374eb5420a220a03d6c864c60d6f9c901dcb2ec86286cbaeaa1e86c82c6fa7147cd4417db86bf9f"
                }
            ]
        },
        "pre" : {
            "0x0000000000000000000000000000000000001000" : {
                "balance" : "0x00",
                "code" : "0x600060011b600060011c600a600b600c600d600e9080815f61010262010203630102030460015060046010600039",
                "nonce" : "0x01",
                "storage" : {
                }
            },
            "0x0000000000000000000000000000000000001100" : {
                "balance" : "0x0de0b6b3a7640000",
                "code" : "0x600060006000600060006110005af160005260206000f3",
                "nonce" : "0x01",
                "storage" : {
                }
            },
            "0xa94f5374fce5edbc8e2a8697c15331677e6ebf0b" : {
                "balance" : "0x6124fee993bc0000",
                "code" : "0x",
                "nonce" : "0x00",
                "storage" : {
                }
            }
        },
        "transaction" : {
            "data" : [
                "0x"
            ],
            "gasLimit" : [
                "0x0186a0"
            ],
            "gasPrice" : "0x0a",
            "nonce" : "0x00",
            "secretKey" : "0x45a915e4d060149eb4365960e6a7a45f334393093061116b197e3240065ff2d8",
            "sender" : "0xa94f5374fce5edbc8e2a8697c15331677e6ebf0b",
            "to" : "0x0000000000000000000000000000000000001100",
            "value" : [
                "0x00"
            ]
        }
    },
    "src/GeneralStateTestsFiller/Pyspecs/homestead/coverage/test_coverage.py::test_coverage[fork_Homestead-state_test]" : {
        "_info" : {
            "comment" : "`execution-spec-tests` generated test",
            "description" : "Test function documentation:\n\n    This test covers gaps that result from transforming Yul code into\n    `ethereum_test_tools.vm.opcode.Opcodes` bytecode.\n\n    E.g. Yul tends to optimize stack items by using `SWAP1` and `DUP1` opcodes, which are not\n    regularly used in python code.\n\n    Modify this test to cover more Yul code if required in the future.",
            "filling-rpc-server" : "evm version 1.14.12-unstable-65e5ca7d-20241004",
            "filling-tool-version" : "retesteth-0.3.2-legacy+commit.be61b546.Linux.g++",
            "filling-transition-tool" : "evm version 1.14.12-unstable-65e5ca7d-20241004",
            "generatedTestHash" : "553f29ba20e8799795b029ca51392708bbcaceab27f2965c9ba37c2119f315fa",
            "hash" : "0xdf1f1d0a0a82bbc155167ec2a5dc52f78e9426c0ae7214fe94e23eb72cb358c1",
            "lllcversion" : "Version: 0.5.14-develop.2024.11.5+commit.b2b86751.mod.Linux.g++",
            "solidity" : "Version: 0.8.24+commit.e11b9ed9.Linux.g++",
            "source" : "src/GeneralStateTestsFiller/Pyspecs/homestead/coverage/test_coverage.py",
            "sourceHash" : "cb2fab3f864cab74bc21bcba0976fae7b9a850713c3c2fc9acdee8ab971e1440",
            "url" : "https://github.com/ethereum/execution-spec-tests/blob/f89d09ba99a3dc680dd9410f0b8a7f8d8fc36714/tests/tmp/tmptest_d9a6b842_04a3_45bc_b1f2_a93a41c6c2e9/test_coverage.py#L15"
        },
        "env" : {
            "currentCoinbase" : "0x2adc25665018aa1fe0e6bc666dac8fc2697ff9ba",
            "currentDifficulty" : "0x020000",
            "currentGasLimit" : "0x016345785d8a0000",
            "currentNumber" : "0x01",
            "currentTimestamp" : "0x03e8"
        },
        "post" : {
            "Homestead" : [
                {
                    "hash" : "0xa4d29830c2a776c86b40196ecbbeeca2c17fad6355524d339263a0a59701785e",
                    "indexes" : {
                        "data" : 0,
                        "gas" : 0,
                        "value" : 0
                    },
                    "logs" : "0x1dcc4de8dec75d7aab85b567b6ccd41ad312451b948a7413f0a142fd40d49347",
                    "txbytes" : "0xf860800a830186a094000000000000000000000000000000000000110080801ca00671a3e9dab47d17669ebe31855e9d6481d6c945fa946dd61fc374eb5420a220a03d6c864c60d6f9c901dcb2ec86286cbaeaa1e86c82c6fa7147cd4417db86bf9f"
                }
            ]
        },
        "pre" : {
            "0x0000000000000000000000000000000000001000" : {
                "balance" : "0x00",
                "code" : "0x600060011b600060011c600a600b600c600d600e9080815f61010262010203630102030460015060046010600039",
                "nonce" : "0x01",
                "storage" : {
                }
            },
            "0x0000000000000000000000000000000000001100" : {
                "balance" : "0x0de0b6b3a7640000",
                "code" : "0x600060006000600060006110005af160005260206000f3",
                "nonce" : "0x01",
                "storage" : {
                }
            },
            "0xa94f5374fce5edbc8e2a8697c15331677e6ebf0b" : {
                "balance" : "0x6124fee993bc0000",
                "code" : "0x",
                "nonce" : "0x00",
                "storage" : {
                }
            }
        },
        "transaction" : {
            "data" : [
                "0x"
            ],
            "gasLimit" : [
                "0x0186a0"
            ],
            "gasPrice" : "0x0a",
            "nonce" : "0x00",
            "secretKey" : "0x45a915e4d060149eb4365960e6a7a45f334393093061116b197e3240065ff2d8",
            "sender" : "0xa94f5374fce5edbc8e2a8697c15331677e6ebf0b",
            "to" : "0x0000000000000000000000000000000000001100",
            "value" : [
                "0x00"
            ]
        }
    },
    "src/GeneralStateTestsFiller/Pyspecs/homestead/coverage/test_coverage.py::test_coverage[fork_Istanbul-state_test]" : {
        "_info" : {
            "comment" : "`execution-spec-tests` generated test",
            "description" : "Test function documentation:\n\n    This test covers gaps that result from transforming Yul code into\n    `ethereum_test_tools.vm.opcode.Opcodes` bytecode.\n\n    E.g. Yul tends to optimize stack items by using `SWAP1` and `DUP1` opcodes, which are not\n    regularly used in python code.\n\n    Modify this test to cover more Yul code if required in the future.",
            "filling-rpc-server" : "evm version 1.14.12-unstable-65e5ca7d-20241004",
            "filling-tool-version" : "retesteth-0.3.2-legacy+commit.be61b546.Linux.g++",
            "filling-transition-tool" : "evm version 1.14.12-unstable-65e5ca7d-20241004",
            "generatedTestHash" : "0c9c2c61ae867e3b4b9bb611fbc0b5e96ad4197ad1cb2e1c2c18a6000e6f859a",
            "hash" : "0x81baa062c251bf1a0efdd1a89592b07060264a49b4233c45b80471de6771e033",
            "lllcversion" : "Version: 0.5.14-develop.2024.11.5+commit.b2b86751.mod.Linux.g++",
            "solidity" : "Version: 0.8.24+commit.e11b9ed9.Linux.g++",
            "source" : "src/GeneralStateTestsFiller/Pyspecs/homestead/coverage/test_coverage.py",
            "sourceHash" : "cb2fab3f864cab74bc21bcba0976fae7b9a850713c3c2fc9acdee8ab971e1440",
            "url" : "https://github.com/ethereum/execution-spec-tests/blob/f89d09ba99a3dc680dd9410f0b8a7f8d8fc36714/tests/tmp/tmptest_d9a6b842_04a3_45bc_b1f2_a93a41c6c2e9/test_coverage.py#L15"
        },
        "env" : {
            "currentCoinbase" : "0x2adc25665018aa1fe0e6bc666dac8fc2697ff9ba",
            "currentDifficulty" : "0x020000",
            "currentGasLimit" : "0x016345785d8a0000",
            "currentNumber" : "0x01",
            "currentTimestamp" : "0x03e8"
        },
        "post" : {
            "Istanbul" : [
                {
                    "hash" : "0x3afe4b55f184c3febe3d5c256dd69e7ba055ce2cc62cc82a21027bd9cae7d72d",
                    "indexes" : {
                        "data" : 0,
                        "gas" : 0,
                        "value" : 0
                    },
                    "logs" : "0x1dcc4de8dec75d7aab85b567b6ccd41ad312451b948a7413f0a142fd40d49347",
                    "txbytes" : "0xf860800a830186a094000000000000000000000000000000000000110080801ca00671a3e9dab47d17669ebe31855e9d6481d6c945fa946dd61fc374eb5420a220a03d6c864c60d6f9c901dcb2ec86286cbaeaa1e86c82c6fa7147cd4417db86bf9f"
                }
            ]
        },
        "pre" : {
            "0x0000000000000000000000000000000000001000" : {
                "balance" : "0x00",
                "code" : "0x600060011b600060011c600a600b600c600d600e9080815f61010262010203630102030460015060046010600039",
                "nonce" : "0x01",
                "storage" : {
                }
            },
            "0x0000000000000000000000000000000000001100" : {
                "balance" : "0x0de0b6b3a7640000",
                "code" : "0x600060006000600060006110005af160005260206000f3",
                "nonce" : "0x01",
                "storage" : {
                }
            },
            "0xa94f5374fce5edbc8e2a8697c15331677e6ebf0b" : {
                "balance" : "0x6124fee993bc0000",
                "code" : "0x",
                "nonce" : "0x00",
                "storage" : {
                }
            }
        },
        "transaction" : {
            "data" : [
                "0x"
            ],
            "gasLimit" : [
                "0x0186a0"
            ],
            "gasPrice" : "0x0a",
            "nonce" : "0x00",
            "secretKey" : "0x45a915e4d060149eb4365960e6a7a45f334393093061116b197e3240065ff2d8",
            "sender" : "0xa94f5374fce5edbc8e2a8697c15331677e6ebf0b",
            "to" : "0x0000000000000000000000000000000000001100",
            "value" : [
                "0x00"
            ]
        }
    },
    "src/GeneralStateTestsFiller/Pyspecs/homestead/coverage/test_coverage.py::test_coverage[fork_London-state_test]" : {
        "_info" : {
            "comment" : "`execution-spec-tests` generated test",
            "description" : "Test function documentation:\n\n    This test covers gaps that result from transforming Yul code into\n    `ethereum_test_tools.vm.opcode.Opcodes` bytecode.\n\n    E.g. Yul tends to optimize stack items by using `SWAP1` and `DUP1` opcodes, which are not\n    regularly used in python code.\n\n    Modify this test to cover more Yul code if required in the future.",
            "filling-rpc-server" : "evm version 1.14.12-unstable-65e5ca7d-20241004",
            "filling-tool-version" : "retesteth-0.3.2-legacy+commit.be61b546.Linux.g++",
            "filling-transition-tool" : "evm version 1.14.12-unstable-65e5ca7d-20241004",
            "generatedTestHash" : "4a19f77722b3279b1f42b26d8062abb64c058191cad1c272ce58e831dedd87c9",
            "hash" : "0x55351c4f019012b89cd74d7db97977bd5a019fb7d530db76aa86d13549c5605f",
            "lllcversion" : "Version: 0.5.14-develop.2024.11.5+commit.b2b86751.mod.Linux.g++",
            "solidity" : "Version: 0.8.24+commit.e11b9ed9.Linux.g++",
            "source" : "src/GeneralStateTestsFiller/Pyspecs/homestead/coverage/test_coverage.py",
            "sourceHash" : "cb2fab3f864cab74bc21bcba0976fae7b9a850713c3c2fc9acdee8ab971e1440",
            "url" : "https://github.com/ethereum/execution-spec-tests/blob/f89d09ba99a3dc680dd9410f0b8a7f8d8fc36714/tests/tmp/tmptest_d9a6b842_04a3_45bc_b1f2_a93a41c6c2e9/test_coverage.py#L15"
        },
        "env" : {
            "currentBaseFee" : "0x07",
            "currentCoinbase" : "0x2adc25665018aa1fe0e6bc666dac8fc2697ff9ba",
            "currentDifficulty" : "0x020000",
            "currentGasLimit" : "0x016345785d8a0000",
            "currentNumber" : "0x01",
            "currentTimestamp" : "0x03e8"
        },
        "post" : {
            "London" : [
                {
                    "hash" : "0x8071c8868cfd69b471abe18ef635ae1b5394127f5645d1b12c6e8b0de59b9705",
                    "indexes" : {
                        "data" : 0,
                        "gas" : 0,
                        "value" : 0
                    },
                    "logs" : "0x1dcc4de8dec75d7aab85b567b6ccd41ad312451b948a7413f0a142fd40d49347",
                    "txbytes" : "0xf860800a830186a094000000000000000000000000000000000000110080801ca00671a3e9dab47d17669ebe31855e9d6481d6c945fa946dd61fc374eb5420a220a03d6c864c60d6f9c901dcb2ec86286cbaeaa1e86c82c6fa7147cd4417db86bf9f"
                }
            ]
        },
        "pre" : {
            "0x0000000000000000000000000000000000001000" : {
                "balance" : "0x00",
                "code" : "0x600060011b600060011c600a600b600c600d600e9080815f61010262010203630102030460015060046010600039",
                "nonce" : "0x01",
                "storage" : {
                }
            },
            "0x0000000000000000000000000000000000001100" : {
                "balance" : "0x0de0b6b3a7640000",
                "code" : "0x600060006000600060006110005af160005260206000f3",
                "nonce" : "0x01",
                "storage" : {
                }
            },
            "0xa94f5374fce5edbc8e2a8697c15331677e6ebf0b" : {
                "balance" : "0x6124fee993bc0000",
                "code" : "0x",
                "nonce" : "0x00",
                "storage" : {
                }
            }
        },
        "transaction" : {
            "data" : [
                "0x"
            ],
            "gasLimit" : [
                "0x0186a0"
            ],
            "gasPrice" : "0x0a",
            "nonce" : "0x00",
            "secretKey" : "0x45a915e4d060149eb4365960e6a7a45f334393093061116b197e3240065ff2d8",
            "sender" : "0xa94f5374fce5edbc8e2a8697c15331677e6ebf0b",
            "to" : "0x0000000000000000000000000000000000001100",
            "value" : [
                "0x00"
            ]
        }
    },
    "src/GeneralStateTestsFiller/Pyspecs/homestead/coverage/test_coverage.py::test_coverage[fork_Paris-state_test]" : {
        "_info" : {
            "comment" : "`execution-spec-tests` generated test",
            "description" : "Test function documentation:\n\n    This test covers gaps that result from transforming Yul code into\n    `ethereum_test_tools.vm.opcode.Opcodes` bytecode.\n\n    E.g. Yul tends to optimize stack items by using `SWAP1` and `DUP1` opcodes, which are not\n    regularly used in python code.\n\n    Modify this test to cover more Yul code if required in the future.",
            "filling-rpc-server" : "evm version 1.14.12-unstable-65e5ca7d-20241004",
            "filling-tool-version" : "retesteth-0.3.2-legacy+commit.be61b546.Linux.g++",
            "filling-transition-tool" : "evm version 1.14.12-unstable-65e5ca7d-20241004",
            "generatedTestHash" : "2e6e64bbedc0af403b5bde1d0cebc213c8af910ea65becd68750a968f8846501",
            "hash" : "0x2a3660ace6568c2c5ba8b5f8a1ea46d74524f3d464e1936d043b54448fde6b89",
            "lllcversion" : "Version: 0.5.14-develop.2024.11.5+commit.b2b86751.mod.Linux.g++",
            "solidity" : "Version: 0.8.24+commit.e11b9ed9.Linux.g++",
            "source" : "src/GeneralStateTestsFiller/Pyspecs/homestead/coverage/test_coverage.py",
            "sourceHash" : "cb2fab3f864cab74bc21bcba0976fae7b9a850713c3c2fc9acdee8ab971e1440",
            "url" : "https://github.com/ethereum/execution-spec-tests/blob/f89d09ba99a3dc680dd9410f0b8a7f8d8fc36714/tests/tmp/tmptest_d9a6b842_04a3_45bc_b1f2_a93a41c6c2e9/test_coverage.py#L15"
        },
        "env" : {
            "currentBaseFee" : "0x07",
            "currentCoinbase" : "0x2adc25665018aa1fe0e6bc666dac8fc2697ff9ba",
            "currentDifficulty" : "0x00",
            "currentGasLimit" : "0x016345785d8a0000",
            "currentNumber" : "0x01",
            "currentRandom" : "0x0000000000000000000000000000000000000000000000000000000000000000",
            "currentTimestamp" : "0x03e8"
        },
        "post" : {
            "Paris" : [
                {
                    "hash" : "0x8071c8868cfd69b471abe18ef635ae1b5394127f5645d1b12c6e8b0de59b9705",
                    "indexes" : {
                        "data" : 0,
                        "gas" : 0,
                        "value" : 0
                    },
                    "logs" : "0x1dcc4de8dec75d7aab85b567b6ccd41ad312451b948a7413f0a142fd40d49347",
                    "txbytes" : "0xf860800a830186a094000000000000000000000000000000000000110080801ca00671a3e9dab47d17669ebe31855e9d6481d6c945fa946dd61fc374eb5420a220a03d6c864c60d6f9c901dcb2ec86286cbaeaa1e86c82c6fa7147cd4417db86bf9f"
                }
            ]
        },
        "pre" : {
            "0x0000000000000000000000000000000000001000" : {
                "balance" : "0x00",
                "code" : "0x600060011b600060011c600a600b600c600d600e9080815f61010262010203630102030460015060046010600039",
                "nonce" : "0x01",
                "storage" : {
                }
            },
            "0x0000000000000000000000000000000000001100" : {
                "balance" : "0x0de0b6b3a7640000",
                "code" : "0x600060006000600060006110005af160005260206000f3",
                "nonce" : "0x01",
                "storage" : {
                }
            },
            "0xa94f5374fce5edbc8e2a8697c15331677e6ebf0b" : {
                "balance" : "0x6124fee993bc0000",
                "code" : "0x",
                "nonce" : "0x00",
                "storage" : {
                }
            }
        },
        "transaction" : {
            "data" : [
                "0x"
            ],
            "gasLimit" : [
                "0x0186a0"
            ],
            "gasPrice" : "0x0a",
            "nonce" : "0x00",
            "secretKey" : "0x45a915e4d060149eb4365960e6a7a45f334393093061116b197e3240065ff2d8",
            "sender" : "0xa94f5374fce5edbc8e2a8697c15331677e6ebf0b",
            "to" : "0x0000000000000000000000000000000000001100",
            "value" : [
                "0x00"
            ]
        }
    },
    "src/GeneralStateTestsFiller/Pyspecs/homestead/coverage/test_coverage.py::test_coverage[fork_Shanghai-state_test]" : {
        "_info" : {
            "comment" : "`execution-spec-tests` generated test",
            "description" : "Test function documentation:\n\n    This test covers gaps that result from transforming Yul code into\n    `ethereum_test_tools.vm.opcode.Opcodes` bytecode.\n\n    E.g. Yul tends to optimize stack items by using `SWAP1` and `DUP1` opcodes, which are not\n    regularly used in python code.\n\n    Modify this test to cover more Yul code if required in the future.",
            "filling-rpc-server" : "evm version 1.14.12-unstable-65e5ca7d-20241004",
            "filling-tool-version" : "retesteth-0.3.2-legacy+commit.be61b546.Linux.g++",
            "filling-transition-tool" : "evm version 1.14.12-unstable-65e5ca7d-20241004",
            "generatedTestHash" : "5dbc0a760fbd91a5d78c8d26a42d4b40581584d761c2555033a39afc2a8ee417",
            "hash" : "0xc14398d946011794697ac5b6cbb38beca536b539846672771e259c89078533a1",
            "lllcversion" : "Version: 0.5.14-develop.2024.11.5+commit.b2b86751.mod.Linux.g++",
            "solidity" : "Version: 0.8.24+commit.e11b9ed9.Linux.g++",
            "source" : "src/GeneralStateTestsFiller/Pyspecs/homestead/coverage/test_coverage.py",
            "sourceHash" : "cb2fab3f864cab74bc21bcba0976fae7b9a850713c3c2fc9acdee8ab971e1440",
            "url" : "https://github.com/ethereum/execution-spec-tests/blob/f89d09ba99a3dc680dd9410f0b8a7f8d8fc36714/tests/tmp/tmptest_d9a6b842_04a3_45bc_b1f2_a93a41c6c2e9/test_coverage.py#L15"
        },
        "env" : {
            "currentBaseFee" : "0x07",
            "currentCoinbase" : "0x2adc25665018aa1fe0e6bc666dac8fc2697ff9ba",
            "currentDifficulty" : "0x00",
            "currentGasLimit" : "0x016345785d8a0000",
            "currentNumber" : "0x01",
            "currentRandom" : "0x0000000000000000000000000000000000000000000000000000000000000000",
            "currentTimestamp" : "0x03e8"
        },
        "post" : {
            "Shanghai" : [
                {
                    "hash" : "0x8e183b0fe366af1c21333f7be7a1cb5a40e5ddd02780fb388793bcef40f1dac9",
                    "indexes" : {
                        "data" : 0,
                        "gas" : 0,
                        "value" : 0
                    },
                    "logs" : "0x1dcc4de8dec75d7aab85b567b6ccd41ad312451b948a7413f0a142fd40d49347",
                    "txbytes" : "0xf860800a830186a094000000000000000000000000000000000000110080801ca00671a3e9dab47d17669ebe31855e9d6481d6c945fa946dd61fc374eb5420a220a03d6c864c60d6f9c901dcb2ec86286cbaeaa1e86c82c6fa7147cd4417db86bf9f"
                }
            ]
        },
        "pre" : {
            "0x0000000000000000000000000000000000001000" : {
                "balance" : "0x00",
                "code" : "0x600060011b600060011c600a600b600c600d600e9080815f61010262010203630102030460015060046010600039",
                "nonce" : "0x01",
                "storage" : {
                }
            },
            "0x0000000000000000000000000000000000001100" : {
                "balance" : "0x0de0b6b3a7640000",
                "code" : "0x600060006000600060006110005af160005260206000f3",
                "nonce" : "0x01",
                "storage" : {
                }
            },
            "0xa94f5374fce5edbc8e2a8697c15331677e6ebf0b" : {
                "balance" : "0x6124fee993bc0000",
                "code" : "0x",
                "nonce" : "0x00",
                "storage" : {
                }
            }
        },
        "transaction" : {
            "data" : [
                "0x"
            ],
            "gasLimit" : [
                "0x0186a0"
            ],
            "gasPrice" : "0x0a",
            "nonce" : "0x00",
            "secretKey" : "0x45a915e4d060149eb4365960e6a7a45f334393093061116b197e3240065ff2d8",
            "sender" : "0xa94f5374fce5edbc8e2a8697c15331677e6ebf0b",
            "to" : "0x0000000000000000000000000000000000001100",
            "value" : [
                "0x00"
            ]
        }
    }
}