{
    "tests/cancun/eip1153_tstore/test_tstorage.py::test_tload_after_tstore_is_zero[fork_Cancun-blockchain_test_hive]": {
        "network": "Cancun",
        "genesisBlockHeader": {
            "parentHash": "0x0000000000000000000000000000000000000000000000000000000000000000",
            "uncleHash": "0x1dcc4de8dec75d7aab85b567b6ccd41ad312451b948a7413f0a142fd40d49347",
            "coinbase": "0x0000000000000000000000000000000000000000",
            "stateRoot": "0xac3616d7458c159be9f5663fb4921b3aa713dfd941f53473bef8dc1eab18ace0",
            "transactionsTrie": "0x56e81f171bcc55a6ff8345e692c0f86e5b48e01b996cadc001622fb5e363b421",
            "receiptTrie": "0x56e81f171bcc55a6ff8345e692c0f86e5b48e01b996cadc001622fb5e363b421",
            "bloom": "0x00000000000000000000000000000000000000000000000000000000000000000000000000000000000000000000000000000000000000000000000000000000000000000000000000000000000000000000000000000000000000000000000000000000000000000000000000000000000000000000000000000000000000000000000000000000000000000000000000000000000000000000000000000000000000000000000000000000000000000000000000000000000000000000000000000000000000000000000000000000000000000000000000000000000000000000000000000000000000000000000000000000000000000000000000000000",
            "difficulty": "0x00",
            "number": "0x00",
            "gasLimit": "0x016345785d8a0000",
            "gasUsed": "0x00",
            "timestamp": "0x00",
            "extraData": "0x00",
            "mixHash": "0x0000000000000000000000000000000000000000000000000000000000000000",
            "nonce": "0x0000000000000000",
            "baseFeePerGas": "0x07",
            "withdrawalsRoot": "0x56e81f171bcc55a6ff8345e692c0f86e5b48e01b996cadc001622fb5e363b421",
            "blobGasUsed": "0x00",
            "excessBlobGas": "0x00",
            "parentBeaconBlockRoot": "0x0000000000000000000000000000000000000000000000000000000000000000",
            "hash": "0xc95fbed71cef11c97a95cf13725dbeeffd77b0b210148d82ff52834920918e3d"
        },
        "pre": {
            "0x000f3df6d732807ef1319fb7b8bb8522d0beac02": {
                "nonce": "0x01",
                "balance": "0x00",
                "code": "0x3373fffffffffffffffffffffffffffffffffffffffe14604d57602036146024575f5ffd5b5f35801560495762001fff810690815414603c575f5ffd5b62001fff01545f5260205ff35b5f5ffd5b62001fff42064281555f359062001fff015500",
                "storage": {}
            },
            "0xa94f5374fce5edbc8e2a8697c15331677e6ebf0b": {
                "nonce": "0x00",
                "balance": "0x989680",
                "code": "0x",
                "storage": {}
            },
            "0x000000000000000000000000000000000000c0de": {
                "nonce": "0x00",
                "balance": "0x00",
                "code": "0x6104d260015d6104d260045d6104d27001000000000000000000000000000000005d6104d27ffffffffffffffffffffffffffffffffffffffffffffffffffffffffffffffffe5d60005c60005560035c6003556fffffffffffffffffffffffffffffffff5c6fffffffffffffffffffffffffffffffff557ffffffffffffffffffffffffffffffffffffffffffffffffffffffffffffffffd5c7ffffffffffffffffffffffffffffffffffffffffffffffffffffffffffffffffd5560025c60025560055c6005557001000000000000000000000000000000015c700100000000000000000000000000000001557fffffffffffffffffffffffffffffffffffffffffffffffffffffffffffffffff5c7fffffffffffffffffffffffffffffffffffffffffffffffffffffffffffffffff55",
                "storage": {
                    "0x01": "0xffff",
                    "0x04": "0xffff",
                    "0x0100000000000000000000000000000000": "0xffff",
                    "0xfffffffffffffffffffffffffffffffffffffffffffffffffffffffffffffffe": "0xffff",
                    "0x00": "0xffff",
                    "0x03": "0xffff",
                    "0xffffffffffffffffffffffffffffffff": "0xffff",
                    "0xfffffffffffffffffffffffffffffffffffffffffffffffffffffffffffffffd": "0xffff",
                    "0x02": "0xffff",
                    "0x05": "0xffff",
                    "0x0100000000000000000000000000000001": "0xffff",
                    "0xffffffffffffffffffffffffffffffffffffffffffffffffffffffffffffffff": "0xffff"
                }
            }
        },
        "postState": {
            "0x000000000000000000000000000000000000c0de": {
                "nonce": "0x00",
                "balance": "0x00",
                "code": "0x6104d260015d6104d260045d6104d27001000000000000000000000000000000005d6104d27ffffffffffffffffffffffffffffffffffffffffffffffffffffffffffffffffe5d60005c60005560035c6003556fffffffffffffffffffffffffffffffff5c6fffffffffffffffffffffffffffffffff557ffffffffffffffffffffffffffffffffffffffffffffffffffffffffffffffffd5c7ffffffffffffffffffffffffffffffffffffffffffffffffffffffffffffffffd5560025c60025560055c6005557001000000000000000000000000000000015c700100000000000000000000000000000001557fffffffffffffffffffffffffffffffffffffffffffffffffffffffffffffffff5c7fffffffffffffffffffffffffffffffffffffffffffffffffffffffffffffffff55",
                "storage": {
                    "0x01": "0xffff",
                    "0x04": "0xffff",
                    "0x0100000000000000000000000000000000": "0xffff",
                    "0xfffffffffffffffffffffffffffffffffffffffffffffffffffffffffffffffe": "0xffff"
                }
            },
            "0x000f3df6d732807ef1319fb7b8bb8522d0beac02": {
                "nonce": "0x01",
                "balance": "0x00",
                "code": "0x3373fffffffffffffffffffffffffffffffffffffffe14604d57602036146024575f5ffd5b5f35801560495762001fff810690815414603c575f5ffd5b62001fff01545f5260205ff35b5f5ffd5b62001fff42064281555f359062001fff015500",
                "storage": {
                    "0x03e8": "0x03e8"
                }
            },
            "0x2adc25665018aa1fe0e6bc666dac8fc2697ff9ba": {
                "nonce": "0x00",
                "balance": "0x0247ce",
                "code": "0x",
                "storage": {}
            },
            "0xa94f5374fce5edbc8e2a8697c15331677e6ebf0b": {
                "nonce": "0x01",
                "balance": "0x90fc7c",
                "code": "0x",
                "storage": {}
            }
        },
        "engineNewPayloads": [
            {
                "executionPayload": {
                    "parentHash": "0xc95fbed71cef11c97a95cf13725dbeeffd77b0b210148d82ff52834920918e3d",
                    "feeRecipient": "0x2adc25665018aa1fe0e6bc666dac8fc2697ff9ba",
                    "stateRoot": "0x4876f035274bde215783455d0b75b8f39683af96a911581e868326caf8887342",
                    "receiptsRoot": "0x77e65041c9f39e32cbc3c7313c8a3470959f7a66b7d07ea289d94db481a1e916",
                    "logsBloom": "0x00000000000000000000000000000000000000000000000000000000000000000000000000000000000000000000000000000000000000000000000000000000000000000000000000000000000000000000000000000000000000000000000000000000000000000000000000000000000000000000000000000000000000000000000000000000000000000000000000000000000000000000000000000000000000000000000000000000000000000000000000000000000000000000000000000000000000000000000000000000000000000000000000000000000000000000000000000000000000000000000000000000000000000000000000000000",
                    "blockNumber": "0x1",
                    "gasLimit": "0x16345785d8a0000",
                    "gasUsed": "0xc29a",
                    "timestamp": "0x3e8",
                    "extraData": "0x00",
                    "prevRandao": "0x0000000000000000000000000000000000000000000000000000000000000000",
                    "baseFeePerGas": "0x7",
                    "blobGasUsed": "0x0",
                    "excessBlobGas": "0x0",
                    "blockHash": "0x549dbe61bd8b562f37c21947de4bf290abf691cb07556050f897a537299f0087",
                    "transactions": [
                        "0xf860800a830f424094000000000000000000000000000000000000c0de808025a09471c67c3fdafae9925fbb844f6f99385b1a2475b49afde5d9f802c18d3fdd1ba0592ca63af60f3e7296dda99a2a86405e253e07b7daadb0a052c1ed430debd4d0"
                    ],
                    "withdrawals": []
                },
                "version": "3",
                "expectedBlobVersionedHashes": [],
                "parentBeaconBlockRoot": "0x0000000000000000000000000000000000000000000000000000000000000000"
            }
        ],
        "engineFcuVersion": "3",
        "_info": {
            "hash": "0xbc893887ed65045ff7351044b3aed02e73cfc870cfe7c234dfbd05e6b8be35da",
            "comment": "`execution-spec-tests` generated test",
            "filling-transition-tool": "evm version 1.14.4-unstable-44a50c9f-20240510",
            "reference-spec": "https://github.com/ethereum/EIPs/blob/master/EIPS/eip-1153.md",
            "reference-spec-version": "6f0be621c76a05a7b3aaf0e9297afd425c26e9d0"
        }
    }
}