{
    "tests/cancun/eip4844_blobs/test_blob_txs.py::test_invalid_normal_gas[fork_Cancun-blockchain_test-insufficient_max_fee_per_gas]": {
        "network": "Cancun",
        "genesisBlockHeader": {
            "parentHash": "0x0000000000000000000000000000000000000000000000000000000000000000",
            "uncleHash": "0x1dcc4de8dec75d7aab85b567b6ccd41ad312451b948a7413f0a142fd40d49347",
            "coinbase": "0x0000000000000000000000000000000000000000",
            "stateRoot": "0xad72395ae5a95170203b0641cce2d8505fc69f18ecce4a71f8581d71176e205c",
            "transactionsTrie": "0x56e81f171bcc55a6ff8345e692c0f86e5b48e01b996cadc001622fb5e363b421",
            "receiptTrie": "0x56e81f171bcc55a6ff8345e692c0f86e5b48e01b996cadc001622fb5e363b421",
            "bloom": "0x00000000000000000000000000000000000000000000000000000000000000000000000000000000000000000000000000000000000000000000000000000000000000000000000000000000000000000000000000000000000000000000000000000000000000000000000000000000000000000000000000000000000000000000000000000000000000000000000000000000000000000000000000000000000000000000000000000000000000000000000000000000000000000000000000000000000000000000000000000000000000000000000000000000000000000000000000000000000000000000000000000000000000000000000000000000",
            "difficulty": "0x00",
            "number": "0x00",
            "gasLimit": "0x016345785d8a0000",
            "gasUsed": "0x00",
            "timestamp": "0x00",
            "extraData": "0x00",
            "mixHash": "0x0000000000000000000000000000000000000000000000000000000000000000",
            "nonce": "0x0000000000000000",
            "baseFeePerGas": "0x07",
            "withdrawalsRoot": "0x56e81f171bcc55a6ff8345e692c0f86e5b48e01b996cadc001622fb5e363b421",
            "blobGasUsed": "0x00",
            "excessBlobGas": "0x140000",
            "parentBeaconBlockRoot": "0x0000000000000000000000000000000000000000000000000000000000000000",
            "hash": "0x4348268a740c77b36e84b3bc28e502a753a517d1a3ccd4bbf00efbee2b494047"
        },
        "pre": {
            "0x000f3df6d732807ef1319fb7b8bb8522d0beac02": {
                "nonce": "0x01",
                "balance": "0x00",
                "code": "0x3373fffffffffffffffffffffffffffffffffffffffe14604d57602036146024575f5ffd5b5f35801560495762001fff810690815414603c575f5ffd5b62001fff01545f5260205ff35b5f5ffd5b62001fff42064281555f359062001fff015500",
                "storage": {}
            },
            "0xa94f5374fce5edbc8e2a8697c15331677e6ebf0b": {
                "nonce": "0x00",
                "balance": "0x03ec31",
                "code": "0x",
                "storage": {}
            }
        },
        "postState": {
            "0x000f3df6d732807ef1319fb7b8bb8522d0beac02": {
                "nonce": "0x01",
                "balance": "0x00",
                "code": "0x3373fffffffffffffffffffffffffffffffffffffffe14604d57602036146024575f5ffd5b5f35801560495762001fff810690815414603c575f5ffd5b62001fff01545f5260205ff35b5f5ffd5b62001fff42064281555f359062001fff015500",
                "storage": {}
            },
            "0xa94f5374fce5edbc8e2a8697c15331677e6ebf0b": {
                "nonce": "0x00",
                "balance": "0x03ec31",
                "code": "0x",
                "storage": {}
            }
        },
        "genesisRLP": "0xf90243f9023da00000000000000000000000000000000000000000000000000000000000000000a01dcc4de8dec75d7aab85b567b6ccd41ad312451b948a7413f0a142fd40d49347940000000000000000000000000000000000000000a0ad72395ae5a95170203b0641cce2d8505fc69f18ecce4a71f8581d71176e205ca056e81f171bcc55a6ff8345e692c0f86e5b48e01b996cadc001622fb5e363b421a056e81f171bcc55a6ff8345e692c0f86e5b48e01b996cadc001622fb5e363b421b9010000000000000000000000000000000000000000000000000000000000000000000000000000000000000000000000000000000000000000000000000000000000000000000000000000000000000000000000000000000000000000000000000000000000000000000000000000000000000000000000000000000000000000000000000000000000000000000000000000000000000000000000000000000000000000000000000000000000000000000000000000000000000000000000000000000000000000000000000000000000000000000000000000000000000000000000000000000000000000000000000000000000000000000000000000000000808088016345785d8a0000808000a0000000000000000000000000000000000000000000000000000000000000000088000000000000000007a056e81f171bcc55a6ff8345e692c0f86e5b48e01b996cadc001622fb5e363b4218083140000a00000000000000000000000000000000000000000000000000000000000000000c0c0c0",
        "blocks": [
            {
                "rlp": "0xf902d3f90242a04348268a740c77b36e84b3bc28e502a753a517d1a3ccd4bbf00efbee2b494047a01dcc4de8dec75d7aab85b567b6ccd41ad312451b948a7413f0a142fd40d49347942adc25665018aa1fe0e6bc666dac8fc2697ff9baa0207cfdd9441cac27a6942ce79a0cdfbbc598a6e3687da39e238e9094c67bc250a08108b06d6923dffc336aad261c38ed26775c08aab10b73a296be7f59e66d5085a056e81f171bcc55a6ff8345e692c0f86e5b48e01b996cadc001622fb5e363b421b9010000000000000000000000000000000000000000000000000000000000000000000000000000000000000000000000000000000000000000000000000000000000000000000000000000000000000000000000000000000000000000000000000000000000000000000000000000000000000000000000000000000000000000000000000000000000000000000000000000000000000000000000000000000000000000000000000000000000000000000000000000000000000000000000000000000000000000000000000000000000000000000000000000000000000000000000000000000000000000000000000000000000000000000000000000000000800188016345785d8a0000808203e800a0000000000000000000000000000000000000000000000000000000000000000088000000000000000007a056e81f171bcc55a6ff8345e692c0f86e5b48e01b996cadc001622fb5e363b42183020000830e0000a00000000000000000000000000000000000000000000000000000000000000000f88ab88803f885018080068252089400000000000000000000000000000000000010000180c001e1a0010000000000000000000000000000000000000000000000000000000000000080a0f64e227f4861b0a103ec42c455b4aa9079b4f626b2e87ce64c797f984c8e8610a07fc8b097799d8f290875c7fe7772a0a00a580891a25d29eb4ca57c3d15ca78a1c0c0",
                "expectException": "TransactionException.INSUFFICIENT_MAX_FEE_PER_GAS",
                "rlp_decoded": {
                    "blockHeader": {
                        "parentHash": "0x4348268a740c77b36e84b3bc28e502a753a517d1a3ccd4bbf00efbee2b494047",
                        "uncleHash": "0x1dcc4de8dec75d7aab85b567b6ccd41ad312451b948a7413f0a142fd40d49347",
                        "coinbase": "0x2adc25665018aa1fe0e6bc666dac8fc2697ff9ba",
                        "stateRoot": "0x207cfdd9441cac27a6942ce79a0cdfbbc598a6e3687da39e238e9094c67bc250",
                        "transactionsTrie": "0x8108b06d6923dffc336aad261c38ed26775c08aab10b73a296be7f59e66d5085",
                        "receiptTrie": "0x56e81f171bcc55a6ff8345e692c0f86e5b48e01b996cadc001622fb5e363b421",
                        "bloom": "0x00000000000000000000000000000000000000000000000000000000000000000000000000000000000000000000000000000000000000000000000000000000000000000000000000000000000000000000000000000000000000000000000000000000000000000000000000000000000000000000000000000000000000000000000000000000000000000000000000000000000000000000000000000000000000000000000000000000000000000000000000000000000000000000000000000000000000000000000000000000000000000000000000000000000000000000000000000000000000000000000000000000000000000000000000000000",
                        "difficulty": "0x00",
                        "number": "0x01",
                        "gasLimit": "0x016345785d8a0000",
                        "gasUsed": "0x00",
                        "timestamp": "0x03e8",
                        "extraData": "0x00",
                        "mixHash": "0x0000000000000000000000000000000000000000000000000000000000000000",
                        "nonce": "0x0000000000000000",
                        "baseFeePerGas": "0x07",
                        "withdrawalsRoot": "0x56e81f171bcc55a6ff8345e692c0f86e5b48e01b996cadc001622fb5e363b421",
                        "blobGasUsed": "0x020000",
                        "excessBlobGas": "0x0e0000",
                        "parentBeaconBlockRoot": "0x0000000000000000000000000000000000000000000000000000000000000000",
                        "hash": "0xe1acbde4f06973a47b83aefd004c5bafe4fb3f05b5338f7c29b49b11b516e745"
                    },
                    "transactions": [
                        {
                            "type": "0x03",
                            "chainId": "0x01",
                            "nonce": "0x00",
                            "maxPriorityFeePerGas": "0x00",
                            "maxFeePerGas": "0x06",
                            "gasLimit": "0x5208",
                            "to": "0x0000000000000000000000000000000000001000",
                            "value": "0x01",
                            "data": "0x",
                            "accessList": [],
                            "maxFeePerBlobGas": "0x01",
                            "blobVersionedHashes": [
                                "0x0100000000000000000000000000000000000000000000000000000000000000"
                            ],
                            "v": "0x00",
                            "r": "0xf64e227f4861b0a103ec42c455b4aa9079b4f626b2e87ce64c797f984c8e8610",
                            "s": "0x7fc8b097799d8f290875c7fe7772a0a00a580891a25d29eb4ca57c3d15ca78a1",
                            "sender": "0xa94f5374fce5edbc8e2a8697c15331677e6ebf0b"
                        }
                    ],
                    "uncleHeaders": [],
                    "withdrawals": [],
                    "blocknumber": "1"
                }
            }
        ],
        "lastblockhash": "0x4348268a740c77b36e84b3bc28e502a753a517d1a3ccd4bbf00efbee2b494047",
        "sealEngine": "NoProof",
        "_info": {
            "hash": "0x83065a96ff270ee0e419bbf87898277b368bbf4b784b9c1cc005178e7e112ae5",
            "comment": "`execution-spec-tests` generated test",
            "filling-transition-tool": "evm version 1.14.4-unstable-44a50c9f-20240510",
            "reference-spec": "https://github.com/ethereum/EIPs/blob/master/EIPS/eip-4844.md",
            "reference-spec-version": "f0eb6a364aaf5ccb43516fa2c269a54fb881ecfd"
        }
    }
}