{
    "tests/istanbul/eip1344_chainid/test_chainid.py::test_chainid[fork_Istanbul-state_test]": {
        "env": {
            "currentCoinbase": "0x2adc25665018aa1fe0e6bc666dac8fc2697ff9ba",
            "currentGasLimit": "0x02540be400",
            "currentNumber": "0x01",
            "currentTimestamp": "0x03e8",
            "currentDifficulty": "0x020000"
        },
        "pre": {
            "0x0000000000000000000000000000000000000100": {
                "nonce": "0x00",
                "balance": "0x00",
                "code": "0x4660015500",
                "storage": {}
            },
            "0xa94f5374fce5edbc8e2a8697c15331677e6ebf0b": {
                "nonce": "0x00",
                "balance": "0x3635c9adc5dea00000",
                "code": "0x",
                "storage": {}
            }
        },
        "transaction": {
            "nonce": "0x00",
            "gasPrice": "0x0a",
            "gasLimit": [
                "0x05f5e100"
            ],
            "to": "0x0000000000000000000000000000000000000100",
            "value": [
                "0x00"
            ],
            "data": [
                "0x"
            ],
            "sender": "0xa94f5374fce5edbc8e2a8697c15331677e6ebf0b",
            "secretKey": "0x45a915e4d060149eb4365960e6a7a45f334393093061116b197e3240065ff2d8"
        },
        "post": {
            "Istanbul": [
                {
                    "hash": "0x00e9e20da947f086b45f49bcc599793240962a23b6e8da96834c7c4acf25ec7b",
                    "logs": "0x1dcc4de8dec75d7aab85b567b6ccd41ad312451b948a7413f0a142fd40d49347",
                    "txbytes": "0xf861800a8405f5e100940000000000000000000000000000000000000100808026a069c5ea620c5d1ec174f47e00ce9a062e1c537078c9c5d71e393b92b158dcb878a031d897c1764a17355aba977f5b1c59f127647c8cbebf42b3f089ba0ddf3bb34a",
                    "indexes": {
                        "data": 0,
                        "gas": 0,
                        "value": 0
                    }
                }
            ]
        },
        "_info": {
            "hash": "0x420a1175e59c18d7de91b33f3be336de49ab121176fdf83ab6af387fbaccc50e",
            "comment": "`execution-spec-tests` generated test",
            "filling-transition-tool": "evm version 1.14.1-unstable-d6e91e2e-20240507",
            "reference-spec": "https://github.com/ethereum/EIPs/blob/master/EIPS/eip-1344.md",
            "reference-spec-version": "02e46aebc80e6e5006ab4d2daa41876139f9a9e2"
        }
    },
    "tests/istanbul/eip1344_chainid/test_chainid.py::test_chainid[fork_Berlin-state_test]": {
        "env": {
            "currentCoinbase": "0x2adc25665018aa1fe0e6bc666dac8fc2697ff9ba",
            "currentGasLimit": "0x02540be400",
            "currentNumber": "0x01",
            "currentTimestamp": "0x03e8",
            "currentDifficulty": "0x020000"
        },
        "pre": {
            "0x0000000000000000000000000000000000000100": {
                "nonce": "0x00",
                "balance": "0x00",
                "code": "0x4660015500",
                "storage": {}
            },
            "0xa94f5374fce5edbc8e2a8697c15331677e6ebf0b": {
                "nonce": "0x00",
                "balance": "0x3635c9adc5dea00000",
                "code": "0x",
                "storage": {}
            }
        },
        "transaction": {
            "nonce": "0x00",
            "gasPrice": "0x0a",
            "gasLimit": [
                "0x05f5e100"
            ],
            "to": "0x0000000000000000000000000000000000000100",
            "value": [
                "0x00"
            ],
            "data": [
                "0x"
            ],
            "sender": "0xa94f5374fce5edbc8e2a8697c15331677e6ebf0b",
            "secretKey": "0x45a915e4d060149eb4365960e6a7a45f334393093061116b197e3240065ff2d8"
        },
        "post": {
            "Berlin": [
                {
                    "hash": "0x949956cf545c17ea8b12efecd629f960a932fa6ccba6bbd38d32c01eb6fb01d2",
                    "logs": "0x1dcc4de8dec75d7aab85b567b6ccd41ad312451b948a7413f0a142fd40d49347",
                    "txbytes": "0xf861800a8405f5e100940000000000000000000000000000000000000100808026a069c5ea620c5d1ec174f47e00ce9a062e1c537078c9c5d71e393b92b158dcb878a031d897c1764a17355aba977f5b1c59f127647c8cbebf42b3f089ba0ddf3bb34a",
                    "indexes": {
                        "data": 0,
                        "gas": 0,
                        "value": 0
                    }
                }
            ]
        },
        "_info": {
            "hash": "0x421116f45898e31e9a18f94d5958d127bd90fce46eb4d6841dd4d9237250ec86",
            "comment": "`execution-spec-tests` generated test",
            "filling-transition-tool": "evm version 1.14.1-unstable-d6e91e2e-20240507",
            "reference-spec": "https://github.com/ethereum/EIPs/blob/master/EIPS/eip-1344.md",
            "reference-spec-version": "02e46aebc80e6e5006ab4d2daa41876139f9a9e2"
        }
    },
    "tests/istanbul/eip1344_chainid/test_chainid.py::test_chainid[fork_London-state_test]": {
        "env": {
            "currentCoinbase": "0x2adc25665018aa1fe0e6bc666dac8fc2697ff9ba",
            "currentGasLimit": "0x02540be400",
            "currentNumber": "0x01",
            "currentTimestamp": "0x03e8",
            "currentDifficulty": "0x020000",
            "currentBaseFee": "0x07"
        },
        "pre": {
            "0x0000000000000000000000000000000000000100": {
                "nonce": "0x00",
                "balance": "0x00",
                "code": "0x4660015500",
                "storage": {}
            },
            "0xa94f5374fce5edbc8e2a8697c15331677e6ebf0b": {
                "nonce": "0x00",
                "balance": "0x3635c9adc5dea00000",
                "code": "0x",
                "storage": {}
            }
        },
        "transaction": {
            "nonce": "0x00",
            "gasPrice": "0x0a",
            "gasLimit": [
                "0x05f5e100"
            ],
            "to": "0x0000000000000000000000000000000000000100",
            "value": [
                "0x00"
            ],
            "data": [
                "0x"
            ],
            "sender": "0xa94f5374fce5edbc8e2a8697c15331677e6ebf0b",
            "secretKey": "0x45a915e4d060149eb4365960e6a7a45f334393093061116b197e3240065ff2d8"
        },
        "post": {
            "London": [
                {
                    "hash": "0x3a007474d1cb3e51a108af776c5b74157d74663829b0d6e1b4102faa9202842a",
                    "logs": "0x1dcc4de8dec75d7aab85b567b6ccd41ad312451b948a7413f0a142fd40d49347",
                    "txbytes": "0xf861800a8405f5e100940000000000000000000000000000000000000100808026a069c5ea620c5d1ec174f47e00ce9a062e1c537078c9c5d71e393b92b158dcb878a031d897c1764a17355aba977f5b1c59f127647c8cbebf42b3f089ba0ddf3bb34a",
                    "indexes": {
                        "data": 0,
                        "gas": 0,
                        "value": 0
                    }
                }
            ]
        },
        "_info": {
            "hash": "0xafb283de368fa1df9a073b7d3293cd9074041c28f00c7695aea6046da850eb5b",
            "comment": "`execution-spec-tests` generated test",
            "filling-transition-tool": "evm version 1.14.1-unstable-d6e91e2e-20240507",
            "reference-spec": "https://github.com/ethereum/EIPs/blob/master/EIPS/eip-1344.md",
            "reference-spec-version": "02e46aebc80e6e5006ab4d2daa41876139f9a9e2"
        }
    },
    "tests/istanbul/eip1344_chainid/test_chainid.py::test_chainid[fork_Paris-state_test]": {
        "env": {
            "currentCoinbase": "0x2adc25665018aa1fe0e6bc666dac8fc2697ff9ba",
            "currentGasLimit": "0x02540be400",
            "currentNumber": "0x01",
            "currentTimestamp": "0x03e8",
            "currentRandom": "0x0000000000000000000000000000000000000000000000000000000000000000",
            "currentDifficulty": "0x00",
            "currentBaseFee": "0x07"
        },
        "pre": {
            "0x0000000000000000000000000000000000000100": {
                "nonce": "0x00",
                "balance": "0x00",
                "code": "0x4660015500",
                "storage": {}
            },
            "0xa94f5374fce5edbc8e2a8697c15331677e6ebf0b": {
                "nonce": "0x00",
                "balance": "0x3635c9adc5dea00000",
                "code": "0x",
                "storage": {}
            }
        },
        "transaction": {
            "nonce": "0x00",
            "gasPrice": "0x0a",
            "gasLimit": [
                "0x05f5e100"
            ],
            "to": "0x0000000000000000000000000000000000000100",
            "value": [
                "0x00"
            ],
            "data": [
                "0x"
            ],
            "sender": "0xa94f5374fce5edbc8e2a8697c15331677e6ebf0b",
            "secretKey": "0x45a915e4d060149eb4365960e6a7a45f334393093061116b197e3240065ff2d8"
        },
        "post": {
            "Paris": [
                {
                    "hash": "0x3a007474d1cb3e51a108af776c5b74157d74663829b0d6e1b4102faa9202842a",
                    "logs": "0x1dcc4de8dec75d7aab85b567b6ccd41ad312451b948a7413f0a142fd40d49347",
                    "txbytes": "0xf861800a8405f5e100940000000000000000000000000000000000000100808026a069c5ea620c5d1ec174f47e00ce9a062e1c537078c9c5d71e393b92b158dcb878a031d897c1764a17355aba977f5b1c59f127647c8cbebf42b3f089ba0ddf3bb34a",
                    "indexes": {
                        "data": 0,
                        "gas": 0,
                        "value": 0
                    }
                }
            ]
        },
        "_info": {
            "hash": "0xccb3f9e7c5e4a48b99f5f1271d195f29f7de5aa88aa7e9b6987c07f05a76956d",
            "comment": "`execution-spec-tests` generated test",
            "filling-transition-tool": "evm version 1.14.1-unstable-d6e91e2e-20240507",
            "reference-spec": "https://github.com/ethereum/EIPs/blob/master/EIPS/eip-1344.md",
            "reference-spec-version": "02e46aebc80e6e5006ab4d2daa41876139f9a9e2"
        }
    },
    "tests/istanbul/eip1344_chainid/test_chainid.py::test_chainid[fork_Shanghai-state_test]": {
        "env": {
            "currentCoinbase": "0x2adc25665018aa1fe0e6bc666dac8fc2697ff9ba",
            "currentGasLimit": "0x02540be400",
            "currentNumber": "0x01",
            "currentTimestamp": "0x03e8",
            "currentRandom": "0x0000000000000000000000000000000000000000000000000000000000000000",
            "currentDifficulty": "0x00",
            "currentBaseFee": "0x07"
        },
        "pre": {
            "0x0000000000000000000000000000000000000100": {
                "nonce": "0x00",
                "balance": "0x00",
                "code": "0x4660015500",
                "storage": {}
            },
            "0xa94f5374fce5edbc8e2a8697c15331677e6ebf0b": {
                "nonce": "0x00",
                "balance": "0x3635c9adc5dea00000",
                "code": "0x",
                "storage": {}
            }
        },
        "transaction": {
            "nonce": "0x00",
            "gasPrice": "0x0a",
            "gasLimit": [
                "0x05f5e100"
            ],
            "to": "0x0000000000000000000000000000000000000100",
            "value": [
                "0x00"
            ],
            "data": [
                "0x"
            ],
            "sender": "0xa94f5374fce5edbc8e2a8697c15331677e6ebf0b",
            "secretKey": "0x45a915e4d060149eb4365960e6a7a45f334393093061116b197e3240065ff2d8"
        },
        "post": {
            "Shanghai": [
                {
                    "hash": "0x3a007474d1cb3e51a108af776c5b74157d74663829b0d6e1b4102faa9202842a",
                    "logs": "0x1dcc4de8dec75d7aab85b567b6ccd41ad312451b948a7413f0a142fd40d49347",
                    "txbytes": "0xf861800a8405f5e100940000000000000000000000000000000000000100808026a069c5ea620c5d1ec174f47e00ce9a062e1c537078c9c5d71e393b92b158dcb878a031d897c1764a17355aba977f5b1c59f127647c8cbebf42b3f089ba0ddf3bb34a",
                    "indexes": {
                        "data": 0,
                        "gas": 0,
                        "value": 0
                    }
                }
            ]
        },
        "_info": {
            "hash": "0x63c843b78c641dfdb141399766de8769a7dcb69f6792510b95b0ffc95a4e8690",
            "comment": "`execution-spec-tests` generated test",
            "filling-transition-tool": "evm version 1.14.1-unstable-d6e91e2e-20240507",
            "reference-spec": "https://github.com/ethereum/EIPs/blob/master/EIPS/eip-1344.md",
            "reference-spec-version": "02e46aebc80e6e5006ab4d2daa41876139f9a9e2"
        }
    },
    "tests/istanbul/eip1344_chainid/test_chainid.py::test_chainid[fork_Cancun-state_test]": {
        "env": {
            "currentCoinbase": "0x2adc25665018aa1fe0e6bc666dac8fc2697ff9ba",
            "currentGasLimit": "0x02540be400",
            "currentNumber": "0x01",
            "currentTimestamp": "0x03e8",
            "currentRandom": "0x0000000000000000000000000000000000000000000000000000000000000000",
            "currentDifficulty": "0x00",
            "currentBaseFee": "0x07",
            "currentExcessBlobGas": "0x00"
        },
        "pre": {
            "0x0000000000000000000000000000000000000100": {
                "nonce": "0x00",
                "balance": "0x00",
                "code": "0x4660015500",
                "storage": {}
            },
            "0xa94f5374fce5edbc8e2a8697c15331677e6ebf0b": {
                "nonce": "0x00",
                "balance": "0x3635c9adc5dea00000",
                "code": "0x",
                "storage": {}
            }
        },
        "transaction": {
            "nonce": "0x00",
            "gasPrice": "0x0a",
            "gasLimit": [
                "0x05f5e100"
            ],
            "to": "0x0000000000000000000000000000000000000100",
            "value": [
                "0x00"
            ],
            "data": [
                "0x"
            ],
            "sender": "0xa94f5374fce5edbc8e2a8697c15331677e6ebf0b",
            "secretKey": "0x45a915e4d060149eb4365960e6a7a45f334393093061116b197e3240065ff2d8"
        },
        "post": {
            "Cancun": [
                {
                    "hash": "0x3a007474d1cb3e51a108af776c5b74157d74663829b0d6e1b4102faa9202842a",
                    "logs": "0x1dcc4de8dec75d7aab85b567b6ccd41ad312451b948a7413f0a142fd40d49347",
                    "txbytes": "0xf861800a8405f5e100940000000000000000000000000000000000000100808026a069c5ea620c5d1ec174f47e00ce9a062e1c537078c9c5d71e393b92b158dcb878a031d897c1764a17355aba977f5b1c59f127647c8cbebf42b3f089ba0ddf3bb34a",
                    "indexes": {
                        "data": 0,
                        "gas": 0,
                        "value": 0
                    }
                }
            ]
        },
        "_info": {
            "hash": "0xc108bf296260447516538dceb24f2c114d5dd11d394ea020d263d073951f9db1",
            "comment": "`execution-spec-tests` generated test",
            "filling-transition-tool": "evm version 1.14.1-unstable-d6e91e2e-20240507",
            "reference-spec": "https://github.com/ethereum/EIPs/blob/master/EIPS/eip-1344.md",
            "reference-spec-version": "02e46aebc80e6e5006ab4d2daa41876139f9a9e2"
        }
    }
}