{
    "src/GeneralStateTestsFiller/Pyspecs/cancun/eip1153_tstore/test_tstorage_create_contexts.py::TestTransientStorageInContractCreation::test_contract_creation[fork_Cancun-state_test-across_constructor_and_deployed_code_v0-create2]" : {
        "_info" : {
            "comment" : "`execution-spec-tests` generated test",
            "description" : "Test class documentation:\n\n    Test transient storage in contract creation contexts:\n\n    - TSTORE/TLOAD in initcode should not be able to access the creator's transient storage.\n    - TSTORE/TLOAD in initcode should be able to access the created contract's transient\n        storage.\n    - TSTORE/TLOAD in creator contract should be able to use its own transient storage.\n    \n\nTest function documentation:\n\n        Test transient storage in contract creation contexts.",
            "filling-rpc-server" : "evm version 1.14.12-unstable-65e5ca7d-20241004",
            "filling-tool-version" : "retesteth-0.3.2-legacy+commit.be61b546.Linux.g++",
            "filling-transition-tool" : "evm version 1.14.12-unstable-65e5ca7d-20241004",
            "generatedTestHash" : "50509e6ba248e672ed918b51e4b84b9dbbf96b6f60e235e2e205024c412bf606",
            "hash" : "0x072c7015b9c6e99859001bcb8f7a0bd0324fb9a943989c41674f98fd551d18c7",
            "lllcversion" : "Version: 0.5.14-develop.2024.11.5+commit.b2b86751.mod.Linux.g++",
            "solidity" : "Version: 0.8.24+commit.e11b9ed9.Linux.g++",
            "source" : "src/GeneralStateTestsFiller/Pyspecs/cancun/eip1153_tstore/test_tstorage_create_contexts.py",
            "sourceHash" : "c2f0f03ac754f90e19467269b492082dbb52539cf11e8cf11cf40e3509a4d541",
            "url" : "https://github.com/ethereum/execution-spec-tests/blob/f89d09ba99a3dc680dd9410f0b8a7f8d8fc36714/tests/tmp/tmptest_92132895_6c7a_4d2c_9622_0935947052dc/test_tstorage_create_contexts.py#L179"
        },
        "env" : {
            "currentBaseFee" : "0x07",
            "currentCoinbase" : "0x2adc25665018aa1fe0e6bc666dac8fc2697ff9ba",
            "currentDifficulty" : "0x00",
            "currentExcessBlobGas" : "0x00",
            "currentGasLimit" : "0x016345785d8a0000",
            "currentNumber" : "0x01",
            "currentRandom" : "0x0000000000000000000000000000000000000000000000000000000000000000",
            "currentTimestamp" : "0x03e8"
        },
        "post" : {
            "Cancun" : [
                {
                    "hash" : "0xc4a90ce7e60a4c5d2e52328d5e5e8f069cfa41141dce707f58652a42b92a76cc",
                    "indexes" : {
                        "data" : 0,
                        "gas" : 0,
                        "value" : 0
                    },
                    "logs" : "0x1dcc4de8dec75d7aab85b567b6ccd41ad312451b948a7413f0a142fd40d49347",
                    "txbytes" : "0xf887800a830f424094000000000000000000000000000000000000100080a7600160015d61001760008160108239f360005c60005560015c600155600160025d60025c60025526a09d207178868692e3896f70242cf642010b56838d1b46b94c67b6b6386875c198a03a9a2096a362ac68ef4723cb7d88135f5c396b0e4bda544a99a17d798a5978f2"
                }
            ]
        },
        "pre" : {
            "0x0000000000000000000000000000000000001000" : {
                "balance" : "0x00",
                "code" : "0x61010060005d61020060015d61030060025d3660006000376000600060006000600063deadbeef3660006000f55af160045560005c60005560015c60015560025c600255",
                "nonce" : "0x01",
                "storage" : {
                }
            },
            "0xa94f5374fce5edbc8e2a8697c15331677e6ebf0b" : {
                "balance" : "0x3635c9adc5dea00000",
                "code" : "0x",
                "nonce" : "0x00",
                "storage" : {
                }
            }
        },
        "transaction" : {
            "data" : [
                "0x600160015d61001760008160108239f360005c60005560015c600155600160025d60025c600255"
            ],
            "gasLimit" : [
                "0x0f4240"
            ],
            "gasPrice" : "0x0a",
            "nonce" : "0x00",
            "secretKey" : "0x45a915e4d060149eb4365960e6a7a45f334393093061116b197e3240065ff2d8",
            "sender" : "0xa94f5374fce5edbc8e2a8697c15331677e6ebf0b",
            "to" : "0x0000000000000000000000000000000000001000",
            "value" : [
                "0x00"
            ]
        }
    },
    "src/GeneralStateTestsFiller/Pyspecs/cancun/eip1153_tstore/test_tstorage_create_contexts.py::TestTransientStorageInContractCreation::test_contract_creation[fork_Cancun-state_test-across_constructor_and_deployed_code_v0-create]" : {
        "_info" : {
            "comment" : "`execution-spec-tests` generated test",
            "description" : "Test class documentation:\n\n    Test transient storage in contract creation contexts:\n\n    - TSTORE/TLOAD in initcode should not be able to access the creator's transient storage.\n    - TSTORE/TLOAD in initcode should be able to access the created contract's transient\n        storage.\n    - TSTORE/TLOAD in creator contract should be able to use its own transient storage.\n    \n\nTest function documentation:\n\n        Test transient storage in contract creation contexts.",
            "filling-rpc-server" : "evm version 1.14.12-unstable-65e5ca7d-20241004",
            "filling-tool-version" : "retesteth-0.3.2-legacy+commit.be61b546.Linux.g++",
            "filling-transition-tool" : "evm version 1.14.12-unstable-65e5ca7d-20241004",
            "generatedTestHash" : "c4ee0a517ff8d6d779fdc7174f827ab3953e88dca5d464777b10d2478599255a",
            "hash" : "0x327254068628a857a767c3d16d6e9568647bb85bc28f9dfcdbb44c8e10f34954",
            "lllcversion" : "Version: 0.5.14-develop.2024.11.5+commit.b2b86751.mod.Linux.g++",
            "solidity" : "Version: 0.8.24+commit.e11b9ed9.Linux.g++",
            "source" : "src/GeneralStateTestsFiller/Pyspecs/cancun/eip1153_tstore/test_tstorage_create_contexts.py",
            "sourceHash" : "c2f0f03ac754f90e19467269b492082dbb52539cf11e8cf11cf40e3509a4d541",
            "url" : "https://github.com/ethereum/execution-spec-tests/blob/f89d09ba99a3dc680dd9410f0b8a7f8d8fc36714/tests/tmp/tmptest_92132895_6c7a_4d2c_9622_0935947052dc/test_tstorage_create_contexts.py#L179"
        },
        "env" : {
            "currentBaseFee" : "0x07",
            "currentCoinbase" : "0x2adc25665018aa1fe0e6bc666dac8fc2697ff9ba",
            "currentDifficulty" : "0x00",
            "currentExcessBlobGas" : "0x00",
            "currentGasLimit" : "0x016345785d8a0000",
            "currentNumber" : "0x01",
            "currentRandom" : "0x0000000000000000000000000000000000000000000000000000000000000000",
            "currentTimestamp" : "0x03e8"
        },
        "post" : {
            "Cancun" : [
                {
                    "hash" : "0xbc40290ea68e96568d3505bfb3efde4b47a54aa4c23f2c5597fca865480a0576",
                    "indexes" : {
                        "data" : 0,
                        "gas" : 0,
                        "value" : 0
                    },
                    "logs" : "0x1dcc4de8dec75d7aab85b567b6ccd41ad312451b948a7413f0a142fd40d49347",
                    "txbytes" : "0xf887800a830f424094000000000000000000000000000000000000100080a7600160015d61001760008160108239f360005c60005560015c600155600160025d60025c60025526a09d207178868692e3896f70242cf642010b56838d1b46b94c67b6b6386875c198a03a9a2096a362ac68ef4723cb7d88135f5c396b0e4bda544a99a17d798a5978f2"
                }
            ]
        },
        "pre" : {
            "0x0000000000000000000000000000000000001000" : {
                "balance" : "0x00",
                "code" : "0x61010060005d61020060015d61030060025d366000600037600060006000600060003660006000f05af160045560005c60005560015c60015560025c600255",
                "nonce" : "0x01",
                "storage" : {
                }
            },
            "0xa94f5374fce5edbc8e2a8697c15331677e6ebf0b" : {
                "balance" : "0x3635c9adc5dea00000",
                "code" : "0x",
                "nonce" : "0x00",
                "storage" : {
                }
            }
        },
        "transaction" : {
            "data" : [
                "0x600160015d61001760008160108239f360005c60005560015c600155600160025d60025c600255"
            ],
            "gasLimit" : [
                "0x0f4240"
            ],
            "gasPrice" : "0x0a",
            "nonce" : "0x00",
            "secretKey" : "0x45a915e4d060149eb4365960e6a7a45f334393093061116b197e3240065ff2d8",
            "sender" : "0xa94f5374fce5edbc8e2a8697c15331677e6ebf0b",
            "to" : "0x0000000000000000000000000000000000001000",
            "value" : [
                "0x00"
            ]
        }
    },
    "src/GeneralStateTestsFiller/Pyspecs/cancun/eip1153_tstore/test_tstorage_create_contexts.py::TestTransientStorageInContractCreation::test_contract_creation[fork_Cancun-state_test-across_constructor_and_deployed_code_v1-create2]" : {
        "_info" : {
            "comment" : "`execution-spec-tests` generated test",
            "description" : "Test class documentation:\n\n    Test transient storage in contract creation contexts:\n\n    - TSTORE/TLOAD in initcode should not be able to access the creator's transient storage.\n    - TSTORE/TLOAD in initcode should be able to access the created contract's transient\n        storage.\n    - TSTORE/TLOAD in creator contract should be able to use its own transient storage.\n    \n\nTest function documentation:\n\n        Test transient storage in contract creation contexts.",
            "filling-rpc-server" : "evm version 1.14.12-unstable-65e5ca7d-20241004",
            "filling-tool-version" : "retesteth-0.3.2-legacy+commit.be61b546.Linux.g++",
            "filling-transition-tool" : "evm version 1.14.12-unstable-65e5ca7d-20241004",
            "generatedTestHash" : "a7354c622add746d4b04dde06ae47b7cb7fbef5733550cfda5b70af19e88c652",
            "hash" : "0x688d23d358c4bc157a001ba44c089f2ce349c734caa961c8d190ec948c76e4aa",
            "lllcversion" : "Version: 0.5.14-develop.2024.11.5+commit.b2b86751.mod.Linux.g++",
            "solidity" : "Version: 0.8.24+commit.e11b9ed9.Linux.g++",
            "source" : "src/GeneralStateTestsFiller/Pyspecs/cancun/eip1153_tstore/test_tstorage_create_contexts.py",
            "sourceHash" : "c2f0f03ac754f90e19467269b492082dbb52539cf11e8cf11cf40e3509a4d541",
            "url" : "https://github.com/ethereum/execution-spec-tests/blob/f89d09ba99a3dc680dd9410f0b8a7f8d8fc36714/tests/tmp/tmptest_92132895_6c7a_4d2c_9622_0935947052dc/test_tstorage_create_contexts.py#L179"
        },
        "env" : {
            "currentBaseFee" : "0x07",
            "currentCoinbase" : "0x2adc25665018aa1fe0e6bc666dac8fc2697ff9ba",
            "currentDifficulty" : "0x00",
            "currentExcessBlobGas" : "0x00",
            "currentGasLimit" : "0x016345785d8a0000",
            "currentNumber" : "0x01",
            "currentRandom" : "0x0000000000000000000000000000000000000000000000000000000000000000",
            "currentTimestamp" : "0x03e8"
        },
        "post" : {
            "Cancun" : [
                {
                    "hash" : "0x33436b11fc9cdb820d51023b7ce563a86064e54dd76acd24cb831757200c3274",
                    "indexes" : {
                        "data" : 0,
                        "gas" : 0,
                        "value" : 0
                    },
                    "logs" : "0x1dcc4de8dec75d7aab85b567b6ccd41ad312451b948a7413f0a142fd40d49347",
                    "txbytes" : "0xf893800a830f424094000000000000000000000000000000000000100080b360005c600055600160015d60015c600155610017600081601c8239f360005c60025560015c600355600160025d60025c60045525a0d4edf50f1663d61d7151d2fdb6c99c235a806bd03061692886d437d5ca8010fba058c4530781ab690510e0d7ea971e3566fa79f9ec9eac51497ce69f9b9507d40c"
                }
            ]
        },
        "pre" : {
            "0x0000000000000000000000000000000000001000" : {
                "balance" : "0x00",
                "code" : "0x61010060005d61020060015d61030060025d3660006000376000600060006000600063deadbeef3660006000f55af160045560005c60005560015c60015560025c600255",
                "nonce" : "0x01",
                "storage" : {
                }
            },
            "0xa94f5374fce5edbc8e2a8697c15331677e6ebf0b" : {
                "balance" : "0x3635c9adc5dea00000",
                "code" : "0x",
                "nonce" : "0x00",
                "storage" : {
                }
            }
        },
        "transaction" : {
            "data" : [
                "0x60005c600055600160015d60015c600155610017600081601c8239f360005c60025560015c600355600160025d60025c600455"
            ],
            "gasLimit" : [
                "0x0f4240"
            ],
            "gasPrice" : "0x0a",
            "nonce" : "0x00",
            "secretKey" : "0x45a915e4d060149eb4365960e6a7a45f334393093061116b197e3240065ff2d8",
            "sender" : "0xa94f5374fce5edbc8e2a8697c15331677e6ebf0b",
            "to" : "0x0000000000000000000000000000000000001000",
            "value" : [
                "0x00"
            ]
        }
    },
    "src/GeneralStateTestsFiller/Pyspecs/cancun/eip1153_tstore/test_tstorage_create_contexts.py::TestTransientStorageInContractCreation::test_contract_creation[fork_Cancun-state_test-across_constructor_and_deployed_code_v1-create]" : {
        "_info" : {
            "comment" : "`execution-spec-tests` generated test",
            "description" : "Test class documentation:\n\n    Test transient storage in contract creation contexts:\n\n    - TSTORE/TLOAD in initcode should not be able to access the creator's transient storage.\n    - TSTORE/TLOAD in initcode should be able to access the created contract's transient\n        storage.\n    - TSTORE/TLOAD in creator contract should be able to use its own transient storage.\n    \n\nTest function documentation:\n\n        Test transient storage in contract creation contexts.",
            "filling-rpc-server" : "evm version 1.14.12-unstable-65e5ca7d-20241004",
            "filling-tool-version" : "retesteth-0.3.2-legacy+commit.be61b546.Linux.g++",
            "filling-transition-tool" : "evm version 1.14.12-unstable-65e5ca7d-20241004",
            "generatedTestHash" : "d997e3de427b1532dd96ba562f7c8eee7509067b0977d4320c74816ee70434ff",
            "hash" : "0xf5f21ce5fc675e2498111d05916b4d71fd13eddb406b4bbf402d65870ed00d82",
            "lllcversion" : "Version: 0.5.14-develop.2024.11.5+commit.b2b86751.mod.Linux.g++",
            "solidity" : "Version: 0.8.24+commit.e11b9ed9.Linux.g++",
            "source" : "src/GeneralStateTestsFiller/Pyspecs/cancun/eip1153_tstore/test_tstorage_create_contexts.py",
            "sourceHash" : "c2f0f03ac754f90e19467269b492082dbb52539cf11e8cf11cf40e3509a4d541",
            "url" : "https://github.com/ethereum/execution-spec-tests/blob/f89d09ba99a3dc680dd9410f0b8a7f8d8fc36714/tests/tmp/tmptest_92132895_6c7a_4d2c_9622_0935947052dc/test_tstorage_create_contexts.py#L179"
        },
        "env" : {
            "currentBaseFee" : "0x07",
            "currentCoinbase" : "0x2adc25665018aa1fe0e6bc666dac8fc2697ff9ba",
            "currentDifficulty" : "0x00",
            "currentExcessBlobGas" : "0x00",
            "currentGasLimit" : "0x016345785d8a0000",
            "currentNumber" : "0x01",
            "currentRandom" : "0x0000000000000000000000000000000000000000000000000000000000000000",
            "currentTimestamp" : "0x03e8"
        },
        "post" : {
            "Cancun" : [
                {
                    "hash" : "0x1e07ddf55b1faadda44f037bed287a05511d9cc206b4de1898c3b0b24f97c459",
                    "indexes" : {
                        "data" : 0,
                        "gas" : 0,
                        "value" : 0
                    },
                    "logs" : "0x1dcc4de8dec75d7aab85b567b6ccd41ad312451b948a7413f0a142fd40d49347",
                    "txbytes" : "0xf893800a830f424094000000000000000000000000000000000000100080b360005c600055600160015d60015c600155610017600081601c8239f360005c60025560015c600355600160025d60025c60045525a0d4edf50f1663d61d7151d2fdb6c99c235a806bd03061692886d437d5ca8010fba058c4530781ab690510e0d7ea971e3566fa79f9ec9eac51497ce69f9b9507d40c"
                }
            ]
        },
        "pre" : {
            "0x0000000000000000000000000000000000001000" : {
                "balance" : "0x00",
                "code" : "0x61010060005d61020060015d61030060025d366000600037600060006000600060003660006000f05af160045560005c60005560015c60015560025c600255",
                "nonce" : "0x01",
                "storage" : {
                }
            },
            "0xa94f5374fce5edbc8e2a8697c15331677e6ebf0b" : {
                "balance" : "0x3635c9adc5dea00000",
                "code" : "0x",
                "nonce" : "0x00",
                "storage" : {
                }
            }
        },
        "transaction" : {
            "data" : [
                "0x60005c600055600160015d60015c600155610017600081601c8239f360005c60025560015c600355600160025d60025c600455"
            ],
            "gasLimit" : [
                "0x0f4240"
            ],
            "gasPrice" : "0x0a",
            "nonce" : "0x00",
            "secretKey" : "0x45a915e4d060149eb4365960e6a7a45f334393093061116b197e3240065ff2d8",
            "sender" : "0xa94f5374fce5edbc8e2a8697c15331677e6ebf0b",
            "to" : "0x0000000000000000000000000000000000001000",
            "value" : [
                "0x00"
            ]
        }
    },
    "src/GeneralStateTestsFiller/Pyspecs/cancun/eip1153_tstore/test_tstorage_create_contexts.py::TestTransientStorageInContractCreation::test_contract_creation[fork_Cancun-state_test-in_constructor_and_deployed_code-create2]" : {
        "_info" : {
            "comment" : "`execution-spec-tests` generated test",
            "description" : "Test class documentation:\n\n    Test transient storage in contract creation contexts:\n\n    - TSTORE/TLOAD in initcode should not be able to access the creator's transient storage.\n    - TSTORE/TLOAD in initcode should be able to access the created contract's transient\n        storage.\n    - TSTORE/TLOAD in creator contract should be able to use its own transient storage.\n    \n\nTest function documentation:\n\n        Test transient storage in contract creation contexts.",
            "filling-rpc-server" : "evm version 1.14.12-unstable-65e5ca7d-20241004",
            "filling-tool-version" : "retesteth-0.3.2-legacy+commit.be61b546.Linux.g++",
            "filling-transition-tool" : "evm version 1.14.12-unstable-65e5ca7d-20241004",
            "generatedTestHash" : "a78ae97f642261a76daefcddc17f46f2566ff4c1fdc25172d3ef1994f2704285",
            "hash" : "0x3bda2a8d16e17c5ed7065a014db648dfbd532f9d9875977b5861033ef77a0f4f",
            "lllcversion" : "Version: 0.5.14-develop.2024.11.5+commit.b2b86751.mod.Linux.g++",
            "solidity" : "Version: 0.8.24+commit.e11b9ed9.Linux.g++",
            "source" : "src/GeneralStateTestsFiller/Pyspecs/cancun/eip1153_tstore/test_tstorage_create_contexts.py",
            "sourceHash" : "c2f0f03ac754f90e19467269b492082dbb52539cf11e8cf11cf40e3509a4d541",
            "url" : "https://github.com/ethereum/execution-spec-tests/blob/f89d09ba99a3dc680dd9410f0b8a7f8d8fc36714/tests/tmp/tmptest_92132895_6c7a_4d2c_9622_0935947052dc/test_tstorage_create_contexts.py#L179"
        },
        "env" : {
            "currentBaseFee" : "0x07",
            "currentCoinbase" : "0x2adc25665018aa1fe0e6bc666dac8fc2697ff9ba",
            "currentDifficulty" : "0x00",
            "currentExcessBlobGas" : "0x00",
            "currentGasLimit" : "0x016345785d8a0000",
            "currentNumber" : "0x01",
            "currentRandom" : "0x0000000000000000000000000000000000000000000000000000000000000000",
            "currentTimestamp" : "0x03e8"
        },
        "post" : {
            "Cancun" : [
                {
                    "hash" : "0x74351a9b968a8552caa01b3f46da7c5797ad022122d73cbb7c3a69a98db76797",
                    "indexes" : {
                        "data" : 0,
                        "gas" : 0,
                        "value" : 0
                    },
                    "logs" : "0x1dcc4de8dec75d7aab85b567b6ccd41ad312451b948a7413f0a142fd40d49347",
                    "txbytes" : "0xf882800a830f424094000000000000000000000000000000000000100080a260005c60005561001160008160118239f360005c600155600160015d60015c60025526a00d932d9f3e7ce25b1a8f0750f650e29cd2667e039523976ccb35b8ee2671e77aa01c2a28b887b9eb3b130bb60cc2dd59d816335a40fb1111ab073b849931211ae1"
                }
            ]
        },
        "pre" : {
            "0x0000000000000000000000000000000000001000" : {
                "balance" : "0x00",
                "code" : "0x61010060005d61020060015d61030060025d3660006000376000600060006000600063deadbeef3660006000f55af160045560005c60005560015c60015560025c600255",
                "nonce" : "0x01",
                "storage" : {
                }
            },
            "0xa94f5374fce5edbc8e2a8697c15331677e6ebf0b" : {
                "balance" : "0x3635c9adc5dea00000",
                "code" : "0x",
                "nonce" : "0x00",
                "storage" : {
                }
            }
        },
        "transaction" : {
            "data" : [
                "0x60005c60005561001160008160118239f360005c600155600160015d60015c600255"
            ],
            "gasLimit" : [
                "0x0f4240"
            ],
            "gasPrice" : "0x0a",
            "nonce" : "0x00",
            "secretKey" : "0x45a915e4d060149eb4365960e6a7a45f334393093061116b197e3240065ff2d8",
            "sender" : "0xa94f5374fce5edbc8e2a8697c15331677e6ebf0b",
            "to" : "0x0000000000000000000000000000000000001000",
            "value" : [
                "0x00"
            ]
        }
    },
    "src/GeneralStateTestsFiller/Pyspecs/cancun/eip1153_tstore/test_tstorage_create_contexts.py::TestTransientStorageInContractCreation::test_contract_creation[fork_Cancun-state_test-in_constructor_and_deployed_code-create]" : {
        "_info" : {
            "comment" : "`execution-spec-tests` generated test",
            "description" : "Test class documentation:\n\n    Test transient storage in contract creation contexts:\n\n    - TSTORE/TLOAD in initcode should not be able to access the creator's transient storage.\n    - TSTORE/TLOAD in initcode should be able to access the created contract's transient\n        storage.\n    - TSTORE/TLOAD in creator contract should be able to use its own transient storage.\n    \n\nTest function documentation:\n\n        Test transient storage in contract creation contexts.",
            "filling-rpc-server" : "evm version 1.14.12-unstable-65e5ca7d-20241004",
            "filling-tool-version" : "retesteth-0.3.2-legacy+commit.be61b546.Linux.g++",
            "filling-transition-tool" : "evm version 1.14.12-unstable-65e5ca7d-20241004",
            "generatedTestHash" : "58e38f0c94f66764bfd6460445f24caee056825ef58978294370eabe54146d9f",
            "hash" : "0x8ff44acc8f86e55b4b743e7f64c312a2c95632b337d957c467f0c4e5eee20267",
            "lllcversion" : "Version: 0.5.14-develop.2024.11.5+commit.b2b86751.mod.Linux.g++",
            "solidity" : "Version: 0.8.24+commit.e11b9ed9.Linux.g++",
            "source" : "src/GeneralStateTestsFiller/Pyspecs/cancun/eip1153_tstore/test_tstorage_create_contexts.py",
            "sourceHash" : "c2f0f03ac754f90e19467269b492082dbb52539cf11e8cf11cf40e3509a4d541",
            "url" : "https://github.com/ethereum/execution-spec-tests/blob/f89d09ba99a3dc680dd9410f0b8a7f8d8fc36714/tests/tmp/tmptest_92132895_6c7a_4d2c_9622_0935947052dc/test_tstorage_create_contexts.py#L179"
        },
        "env" : {
            "currentBaseFee" : "0x07",
            "currentCoinbase" : "0x2adc25665018aa1fe0e6bc666dac8fc2697ff9ba",
            "currentDifficulty" : "0x00",
            "currentExcessBlobGas" : "0x00",
            "currentGasLimit" : "0x016345785d8a0000",
            "currentNumber" : "0x01",
            "currentRandom" : "0x0000000000000000000000000000000000000000000000000000000000000000",
            "currentTimestamp" : "0x03e8"
        },
        "post" : {
            "Cancun" : [
                {
                    "hash" : "0x15ba1f7b294e0bb80c7884e9cc76d67db14c2d704d7aa609dea16a8e9f1e9d7a",
                    "indexes" : {
                        "data" : 0,
                        "gas" : 0,
                        "value" : 0
                    },
                    "logs" : "0x1dcc4de8dec75d7aab85b567b6ccd41ad312451b948a7413f0a142fd40d49347",
                    "txbytes" : "0xf882800a830f424094000000000000000000000000000000000000100080a260005c60005561001160008160118239f360005c600155600160015d60015c60025526a00d932d9f3e7ce25b1a8f0750f650e29cd2667e039523976ccb35b8ee2671e77aa01c2a28b887b9eb3b130bb60cc2dd59d816335a40fb1111ab073b849931211ae1"
                }
            ]
        },
        "pre" : {
            "0x0000000000000000000000000000000000001000" : {
                "balance" : "0x00",
                "code" : "0x61010060005d61020060015d61030060025d366000600037600060006000600060003660006000f05af160045560005c60005560015c60015560025c600255",
                "nonce" : "0x01",
                "storage" : {
                }
            },
            "0xa94f5374fce5edbc8e2a8697c15331677e6ebf0b" : {
                "balance" : "0x3635c9adc5dea00000",
                "code" : "0x",
                "nonce" : "0x00",
                "storage" : {
                }
            }
        },
        "transaction" : {
            "data" : [
                "0x60005c60005561001160008160118239f360005c600155600160015d60015c600255"
            ],
            "gasLimit" : [
                "0x0f4240"
            ],
            "gasPrice" : "0x0a",
            "nonce" : "0x00",
            "secretKey" : "0x45a915e4d060149eb4365960e6a7a45f334393093061116b197e3240065ff2d8",
            "sender" : "0xa94f5374fce5edbc8e2a8697c15331677e6ebf0b",
            "to" : "0x0000000000000000000000000000000000001000",
            "value" : [
                "0x00"
            ]
        }
    },
    "src/GeneralStateTestsFiller/Pyspecs/cancun/eip1153_tstore/test_tstorage_create_contexts.py::TestTransientStorageInContractCreation::test_contract_creation[fork_Cancun-state_test-no_constructor_code-create2]" : {
        "_info" : {
            "comment" : "`execution-spec-tests` generated test",
            "description" : "Test class documentation:\n\n    Test transient storage in contract creation contexts:\n\n    - TSTORE/TLOAD in initcode should not be able to access the creator's transient storage.\n    - TSTORE/TLOAD in initcode should be able to access the created contract's transient\n        storage.\n    - TSTORE/TLOAD in creator contract should be able to use its own transient storage.\n    \n\nTest function documentation:\n\n        Test transient storage in contract creation contexts.",
            "filling-rpc-server" : "evm version 1.14.12-unstable-65e5ca7d-20241004",
            "filling-tool-version" : "retesteth-0.3.2-legacy+commit.be61b546.Linux.g++",
            "filling-transition-tool" : "evm version 1.14.12-unstable-65e5ca7d-20241004",
            "generatedTestHash" : "256fd9226ffbff09938e79e689340e7a27cf228c56624e19f9c4f37010182a5b",
            "hash" : "0x52763efbffe4d80424db28cae86966941ba196406b864d57e3a0d0949a34b591",
            "lllcversion" : "Version: 0.5.14-develop.2024.11.5+commit.b2b86751.mod.Linux.g++",
            "solidity" : "Version: 0.8.24+commit.e11b9ed9.Linux.g++",
            "source" : "src/GeneralStateTestsFiller/Pyspecs/cancun/eip1153_tstore/test_tstorage_create_contexts.py",
            "sourceHash" : "c2f0f03ac754f90e19467269b492082dbb52539cf11e8cf11cf40e3509a4d541",
            "url" : "https://github.com/ethereum/execution-spec-tests/blob/f89d09ba99a3dc680dd9410f0b8a7f8d8fc36714/tests/tmp/tmptest_92132895_6c7a_4d2c_9622_0935947052dc/test_tstorage_create_contexts.py#L179"
        },
        "env" : {
            "currentBaseFee" : "0x07",
            "currentCoinbase" : "0x2adc25665018aa1fe0e6bc666dac8fc2697ff9ba",
            "currentDifficulty" : "0x00",
            "currentExcessBlobGas" : "0x00",
            "currentGasLimit" : "0x016345785d8a0000",
            "currentNumber" : "0x01",
            "currentRandom" : "0x0000000000000000000000000000000000000000000000000000000000000000",
            "currentTimestamp" : "0x03e8"
        },
        "post" : {
            "Cancun" : [
                {
                    "hash" : "0x234721f5dbac71cf717279d0c9a95e2206f94fa8a18acc48567351a9f37206ea",
                    "indexes" : {
                        "data" : 0,
                        "gas" : 0,
                        "value" : 0
                    },
                    "logs" : "0x1dcc4de8dec75d7aab85b567b6ccd41ad312451b948a7413f0a142fd40d49347",
                    "txbytes" : "0xf87c800a830f4240940000000000000000000000000000000000001000809c610011600081600b8239f360005c600055600160005d60005c60015525a06804d2eaf90e83bf6342b8dedb3f8493afd7b669d0da1b9d43adda2f3235b33ca02b6f2aec2225cf9f7adbb5d742512e09cb0ac9583e2a983aefe5a5fdc83f7d1d"
                }
            ]
        },
        "pre" : {
            "0x0000000000000000000000000000000000001000" : {
                "balance" : "0x00",
                "code" : "0x61010060005d61020060015d61030060025d3660006000376000600060006000600063deadbeef3660006000f55af160045560005c60005560015c60015560025c600255",
                "nonce" : "0x01",
                "storage" : {
                }
            },
            "0xa94f5374fce5edbc8e2a8697c15331677e6ebf0b" : {
                "balance" : "0x3635c9adc5dea00000",
                "code" : "0x",
                "nonce" : "0x00",
                "storage" : {
                }
            }
        },
        "transaction" : {
            "data" : [
                "0x610011600081600b8239f360005c600055600160005d60005c600155"
            ],
            "gasLimit" : [
                "0x0f4240"
            ],
            "gasPrice" : "0x0a",
            "nonce" : "0x00",
            "secretKey" : "0x45a915e4d060149eb4365960e6a7a45f334393093061116b197e3240065ff2d8",
            "sender" : "0xa94f5374fce5edbc8e2a8697c15331677e6ebf0b",
            "to" : "0x0000000000000000000000000000000000001000",
            "value" : [
                "0x00"
            ]
        }
    },
    "src/GeneralStateTestsFiller/Pyspecs/cancun/eip1153_tstore/test_tstorage_create_contexts.py::TestTransientStorageInContractCreation::test_contract_creation[fork_Cancun-state_test-no_constructor_code-create]" : {
        "_info" : {
            "comment" : "`execution-spec-tests` generated test",
            "description" : "Test class documentation:\n\n    Test transient storage in contract creation contexts:\n\n    - TSTORE/TLOAD in initcode should not be able to access the creator's transient storage.\n    - TSTORE/TLOAD in initcode should be able to access the created contract's transient\n        storage.\n    - TSTORE/TLOAD in creator contract should be able to use its own transient storage.\n    \n\nTest function documentation:\n\n        Test transient storage in contract creation contexts.",
            "filling-rpc-server" : "evm version 1.14.12-unstable-65e5ca7d-20241004",
            "filling-tool-version" : "retesteth-0.3.2-legacy+commit.be61b546.Linux.g++",
            "filling-transition-tool" : "evm version 1.14.12-unstable-65e5ca7d-20241004",
            "generatedTestHash" : "0db2607fa59572807d26d819e34c6b7f5d1cd5a2307429fae0306621a0fe3f5f",
            "hash" : "0xb064a2fd80fbb0a708ba56e6132cb2aaf8e735023f715369de82df9f1c581aa0",
            "lllcversion" : "Version: 0.5.14-develop.2024.11.5+commit.b2b86751.mod.Linux.g++",
            "solidity" : "Version: 0.8.24+commit.e11b9ed9.Linux.g++",
            "source" : "src/GeneralStateTestsFiller/Pyspecs/cancun/eip1153_tstore/test_tstorage_create_contexts.py",
            "sourceHash" : "c2f0f03ac754f90e19467269b492082dbb52539cf11e8cf11cf40e3509a4d541",
            "url" : "https://github.com/ethereum/execution-spec-tests/blob/f89d09ba99a3dc680dd9410f0b8a7f8d8fc36714/tests/tmp/tmptest_92132895_6c7a_4d2c_9622_0935947052dc/test_tstorage_create_contexts.py#L179"
        },
        "env" : {
            "currentBaseFee" : "0x07",
            "currentCoinbase" : "0x2adc25665018aa1fe0e6bc666dac8fc2697ff9ba",
            "currentDifficulty" : "0x00",
            "currentExcessBlobGas" : "0x00",
            "currentGasLimit" : "0x016345785d8a0000",
            "currentNumber" : "0x01",
            "currentRandom" : "0x0000000000000000000000000000000000000000000000000000000000000000",
            "currentTimestamp" : "0x03e8"
        },
        "post" : {
            "Cancun" : [
                {
                    "hash" : "0x21c5d4cf9452b840b92f15151dbc961216de01cbad80dc8e123a3d0598db89f7",
                    "indexes" : {
                        "data" : 0,
                        "gas" : 0,
                        "value" : 0
                    },
                    "logs" : "0x1dcc4de8dec75d7aab85b567b6ccd41ad312451b948a7413f0a142fd40d49347",
                    "txbytes" : "0xf87c800a830f4240940000000000000000000000000000000000001000809c610011600081600b8239f360005c600055600160005d60005c60015525a06804d2eaf90e83bf6342b8dedb3f8493afd7b669d0da1b9d43adda2f3235b33ca02b6f2aec2225cf9f7adbb5d742512e09cb0ac9583e2a983aefe5a5fdc83f7d1d"
                }
            ]
        },
        "pre" : {
            "0x0000000000000000000000000000000000001000" : {
                "balance" : "0x00",
                "code" : "0x61010060005d61020060015d61030060025d366000600037600060006000600060003660006000f05af160045560005c60005560015c60015560025c600255",
                "nonce" : "0x01",
                "storage" : {
                }
            },
            "0xa94f5374fce5edbc8e2a8697c15331677e6ebf0b" : {
                "balance" : "0x3635c9adc5dea00000",
                "code" : "0x",
                "nonce" : "0x00",
                "storage" : {
                }
            }
        },
        "transaction" : {
            "data" : [
                "0x610011600081600b8239f360005c600055600160005d60005c600155"
            ],
            "gasLimit" : [
                "0x0f4240"
            ],
            "gasPrice" : "0x0a",
            "nonce" : "0x00",
            "secretKey" : "0x45a915e4d060149eb4365960e6a7a45f334393093061116b197e3240065ff2d8",
            "sender" : "0xa94f5374fce5edbc8e2a8697c15331677e6ebf0b",
            "to" : "0x0000000000000000000000000000000000001000",
            "value" : [
                "0x00"
            ]
        }
    },
    "src/GeneralStateTestsFiller/Pyspecs/cancun/eip1153_tstore/test_tstorage_create_contexts.py::TestTransientStorageInContractCreation::test_contract_creation[fork_Cancun-state_test-only_constructor_code-create2]" : {
        "_info" : {
            "comment" : "`execution-spec-tests` generated test",
            "description" : "Test class documentation:\n\n    Test transient storage in contract creation contexts:\n\n    - TSTORE/TLOAD in initcode should not be able to access the creator's transient storage.\n    - TSTORE/TLOAD in initcode should be able to access the created contract's transient\n        storage.\n    - TSTORE/TLOAD in creator contract should be able to use its own transient storage.\n    \n\nTest function documentation:\n\n        Test transient storage in contract creation contexts.",
            "filling-rpc-server" : "evm version 1.14.12-unstable-65e5ca7d-20241004",
            "filling-tool-version" : "retesteth-0.3.2-legacy+commit.be61b546.Linux.g++",
            "filling-transition-tool" : "evm version 1.14.12-unstable-65e5ca7d-20241004",
            "generatedTestHash" : "e74ff11d1842e7a8755b5503bd4bedc1310c06a832f16f307c6854d389ac91ef",
            "hash" : "0x400d6245d944f33498dfd5f93103e27f294f5e029d198f0e275488707d4d6dec",
            "lllcversion" : "Version: 0.5.14-develop.2024.11.5+commit.b2b86751.mod.Linux.g++",
            "solidity" : "Version: 0.8.24+commit.e11b9ed9.Linux.g++",
            "source" : "src/GeneralStateTestsFiller/Pyspecs/cancun/eip1153_tstore/test_tstorage_create_contexts.py",
            "sourceHash" : "c2f0f03ac754f90e19467269b492082dbb52539cf11e8cf11cf40e3509a4d541",
            "url" : "https://github.com/ethereum/execution-spec-tests/blob/f89d09ba99a3dc680dd9410f0b8a7f8d8fc36714/tests/tmp/tmptest_92132895_6c7a_4d2c_9622_0935947052dc/test_tstorage_create_contexts.py#L179"
        },
        "env" : {
            "currentBaseFee" : "0x07",
            "currentCoinbase" : "0x2adc25665018aa1fe0e6bc666dac8fc2697ff9ba",
            "currentDifficulty" : "0x00",
            "currentExcessBlobGas" : "0x00",
            "currentGasLimit" : "0x016345785d8a0000",
            "currentNumber" : "0x01",
            "currentRandom" : "0x0000000000000000000000000000000000000000000000000000000000000000",
            "currentTimestamp" : "0x03e8"
        },
        "post" : {
            "Cancun" : [
                {
                    "hash" : "0xd1332cf87d1b918fa326b2961c3693ae21f985d844a3963be292c599b222e474",
                    "indexes" : {
                        "data" : 0,
                        "gas" : 0,
                        "value" : 0
                    },
                    "logs" : "0x1dcc4de8dec75d7aab85b567b6ccd41ad312451b948a7413f0a142fd40d49347",
                    "txbytes" : "0xf87c800a830f4240940000000000000000000000000000000000001000809c60005c600055600160005d60005c600155610000600081601c8239f325a0796ec54a30276a8b7b9b226e162ed3f186ed842723b397e612fc44d3fda74e06a025c30a92a75d8cb4a02bce7028575fb2a0aeb27986cb94e68d0543aa36f3b78f"
                }
            ]
        },
        "pre" : {
            "0x0000000000000000000000000000000000001000" : {
                "balance" : "0x00",
                "code" : "0x61010060005d61020060015d61030060025d3660006000376000600060006000600063deadbeef3660006000f55af160045560005c60005560015c60015560025c600255",
                "nonce" : "0x01",
                "storage" : {
                }
            },
            "0xa94f5374fce5edbc8e2a8697c15331677e6ebf0b" : {
                "balance" : "0x3635c9adc5dea00000",
                "code" : "0x",
                "nonce" : "0x00",
                "storage" : {
                }
            }
        },
        "transaction" : {
            "data" : [
                "0x60005c600055600160005d60005c600155610000600081601c8239f3"
            ],
            "gasLimit" : [
                "0x0f4240"
            ],
            "gasPrice" : "0x0a",
            "nonce" : "0x00",
            "secretKey" : "0x45a915e4d060149eb4365960e6a7a45f334393093061116b197e3240065ff2d8",
            "sender" : "0xa94f5374fce5edbc8e2a8697c15331677e6ebf0b",
            "to" : "0x0000000000000000000000000000000000001000",
            "value" : [
                "0x00"
            ]
        }
    },
    "src/GeneralStateTestsFiller/Pyspecs/cancun/eip1153_tstore/test_tstorage_create_contexts.py::TestTransientStorageInContractCreation::test_contract_creation[fork_Cancun-state_test-only_constructor_code-create]" : {
        "_info" : {
            "comment" : "`execution-spec-tests` generated test",
            "description" : "Test class documentation:\n\n    Test transient storage in contract creation contexts:\n\n    - TSTORE/TLOAD in initcode should not be able to access the creator's transient storage.\n    - TSTORE/TLOAD in initcode should be able to access the created contract's transient\n        storage.\n    - TSTORE/TLOAD in creator contract should be able to use its own transient storage.\n    \n\nTest function documentation:\n\n        Test transient storage in contract creation contexts.",
            "filling-rpc-server" : "evm version 1.14.12-unstable-65e5ca7d-20241004",
            "filling-tool-version" : "retesteth-0.3.2-legacy+commit.be61b546.Linux.g++",
            "filling-transition-tool" : "evm version 1.14.12-unstable-65e5ca7d-20241004",
            "generatedTestHash" : "10546adc69d0238ac2e00f16296f4bce679c2e7fa8b773a2bb725e2c2c9f0ced",
            "hash" : "0xe218f2132861b961790e4d645ce52ff49d1c4605a78d7a798032e68a4d087409",
            "lllcversion" : "Version: 0.5.14-develop.2024.11.5+commit.b2b86751.mod.Linux.g++",
            "solidity" : "Version: 0.8.24+commit.e11b9ed9.Linux.g++",
            "source" : "src/GeneralStateTestsFiller/Pyspecs/cancun/eip1153_tstore/test_tstorage_create_contexts.py",
            "sourceHash" : "c2f0f03ac754f90e19467269b492082dbb52539cf11e8cf11cf40e3509a4d541",
            "url" : "https://github.com/ethereum/execution-spec-tests/blob/f89d09ba99a3dc680dd9410f0b8a7f8d8fc36714/tests/tmp/tmptest_92132895_6c7a_4d2c_9622_0935947052dc/test_tstorage_create_contexts.py#L179"
        },
        "env" : {
            "currentBaseFee" : "0x07",
            "currentCoinbase" : "0x2adc25665018aa1fe0e6bc666dac8fc2697ff9ba",
            "currentDifficulty" : "0x00",
            "currentExcessBlobGas" : "0x00",
            "currentGasLimit" : "0x016345785d8a0000",
            "currentNumber" : "0x01",
            "currentRandom" : "0x0000000000000000000000000000000000000000000000000000000000000000",
            "currentTimestamp" : "0x03e8"
        },
        "post" : {
            "Cancun" : [
                {
                    "hash" : "0xd283cf5df9628f107da6a03758e920bcd234bc7532ff697bb4dff279efa6a768",
                    "indexes" : {
                        "data" : 0,
                        "gas" : 0,
                        "value" : 0
                    },
                    "logs" : "0x1dcc4de8dec75d7aab85b567b6ccd41ad312451b948a7413f0a142fd40d49347",
                    "txbytes" : "0xf87c800a830f4240940000000000000000000000000000000000001000809c60005c600055600160005d60005c600155610000600081601c8239f325a0796ec54a30276a8b7b9b226e162ed3f186ed842723b397e612fc44d3fda74e06a025c30a92a75d8cb4a02bce7028575fb2a0aeb27986cb94e68d0543aa36f3b78f"
                }
            ]
        },
        "pre" : {
            "0x0000000000000000000000000000000000001000" : {
                "balance" : "0x00",
                "code" : "0x61010060005d61020060015d61030060025d366000600037600060006000600060003660006000f05af160045560005c60005560015c60015560025c600255",
                "nonce" : "0x01",
                "storage" : {
                }
            },
            "0xa94f5374fce5edbc8e2a8697c15331677e6ebf0b" : {
                "balance" : "0x3635c9adc5dea00000",
                "code" : "0x",
                "nonce" : "0x00",
                "storage" : {
                }
            }
        },
        "transaction" : {
            "data" : [
                "0x60005c600055600160005d60005c600155610000600081601c8239f3"
            ],
            "gasLimit" : [
                "0x0f4240"
            ],
            "gasPrice" : "0x0a",
            "nonce" : "0x00",
            "secretKey" : "0x45a915e4d060149eb4365960e6a7a45f334393093061116b197e3240065ff2d8",
            "sender" : "0xa94f5374fce5edbc8e2a8697c15331677e6ebf0b",
            "to" : "0x0000000000000000000000000000000000001000",
            "value" : [
                "0x00"
            ]
        }
    }
}