{
    "src/GeneralStateTestsFiller/Pyspecs/cancun/eip1153_tstore/test_tstorage_selfdestruct.py::test_reentrant_selfdestructing_call[fork_Cancun-state_test-tload_after_inner_selfdestruct_new_contract]" : {
        "_info" : {
            "comment" : "`execution-spec-tests` generated test",
            "description" : "Test function documentation:\n\n    Test transient storage in different reentrancy contexts after selfdestructing.",
            "filling-rpc-server" : "evm version 1.14.12-unstable-65e5ca7d-20241004",
            "filling-tool-version" : "retesteth-0.3.2-legacy+commit.be61b546.Linux.g++",
            "filling-transition-tool" : "evm version 1.14.12-unstable-65e5ca7d-20241004",
            "generatedTestHash" : "d4eb6b645a654da7260f010c545665b349458e83d110cb8f96292a3db8f07826",
            "hash" : "0x79c481d86f29d5b9300e5e8a69be85bde05841d8ffe480bf36cd119bb9030fba",
            "lllcversion" : "Version: 0.5.14-develop.2024.11.5+commit.b2b86751.mod.Linux.g++",
            "solidity" : "Version: 0.8.24+commit.e11b9ed9.Linux.g++",
            "source" : "src/GeneralStateTestsFiller/Pyspecs/cancun/eip1153_tstore/test_tstorage_selfdestruct.py",
            "sourceHash" : "42d500316275c8c410c094ea203f6510925c782e8aa7a8002da92f29b2ed70f7",
            "url" : "https://github.com/ethereum/execution-spec-tests/blob/f89d09ba99a3dc680dd9410f0b8a7f8d8fc36714/tests/tmp/tmptest_56caaa25_5a7e_4a90_904d_2d5fb174ec77/test_tstorage_selfdestruct.py#L210"
        },
        "env" : {
            "currentBaseFee" : "0x07",
            "currentCoinbase" : "0x2adc25665018aa1fe0e6bc666dac8fc2697ff9ba",
            "currentDifficulty" : "0x00",
            "currentExcessBlobGas" : "0x00",
            "currentGasLimit" : "0x016345785d8a0000",
            "currentNumber" : "0x01",
            "currentRandom" : "0x0000000000000000000000000000000000000000000000000000000000000000",
            "currentTimestamp" : "0x03e8"
        },
        "post" : {
            "Cancun" : [
                {
                    "hash" : "0x6e11ddb906f31cce624a3bae973516d65380d2bd714514c673a84526656bdfdb",
                    "indexes" : {
                        "data" : 0,
                        "gas" : 0,
                        "value" : 0
                    },
                    "logs" : "0x1dcc4de8dec75d7aab85b567b6ccd41ad312451b948a7413f0a142fd40d49347",
                    "txbytes" : "0xf8ba800a830f424094000000000000000000000000000000000000100080b85961004e600081600b8239f3600160003514601c580157600260003514600858015760355801565b6000ff602c5801565b61010060ff5d600260005260206000602060006000305af160ff5c60005260206000f360035801565b26a0808bc0db11a00451af5801730093f5c44fd4b98debac07e90302377001ed2eaca06b6db672ddf115bc33e04f0ae8d4a1093eb9e34db317b63cb472c2d06c6843cc"
                }
            ]
        },
        "pre" : {
            "0x0000000000000000000000000000000000001000" : {
                "balance" : "0x00",
                "code" : "0x3660006000373660006000f06000556001600052602060006020600060006000545af1600155600051600255",
                "nonce" : "0x01",
                "storage" : {
                }
            },
            "0xa94f5374fce5edbc8e2a8697c15331677e6ebf0b" : {
                "balance" : "0x3635c9adc5dea00000",
                "code" : "0x",
                "nonce" : "0x00",
                "storage" : {
                }
            }
        },
        "transaction" : {
            "data" : [
                "0x61004e600081600b8239f3600160003514601c580157600260003514600858015760355801565b6000ff602c5801565b61010060ff5d600260005260206000602060006000305af160ff5c60005260206000f360035801565b"
            ],
            "gasLimit" : [
                "0x0f4240"
            ],
            "gasPrice" : "0x0a",
            "nonce" : "0x00",
            "secretKey" : "0x45a915e4d060149eb4365960e6a7a45f334393093061116b197e3240065ff2d8",
            "sender" : "0xa94f5374fce5edbc8e2a8697c15331677e6ebf0b",
            "to" : "0x0000000000000000000000000000000000001000",
            "value" : [
                "0x00"
            ]
        }
    },
    "src/GeneralStateTestsFiller/Pyspecs/cancun/eip1153_tstore/test_tstorage_selfdestruct.py::test_reentrant_selfdestructing_call[fork_Cancun-state_test-tload_after_inner_selfdestruct_pre_existing_contract]" : {
        "_info" : {
            "comment" : "`execution-spec-tests` generated test",
            "description" : "Test function documentation:\n\n    Test transient storage in different reentrancy contexts after selfdestructing.",
            "filling-rpc-server" : "evm version 1.14.12-unstable-65e5ca7d-20241004",
            "filling-tool-version" : "retesteth-0.3.2-legacy+commit.be61b546.Linux.g++",
            "filling-transition-tool" : "evm version 1.14.12-unstable-65e5ca7d-20241004",
            "generatedTestHash" : "cab865efda03c01c8c18e490c80cbb227cf4516f065852eb050fab4430e901e1",
            "hash" : "0x6a5bf590455969abddef17ac168fdefa65bc35e2a0952e72cad2a7ec4ad259d5",
            "lllcversion" : "Version: 0.5.14-develop.2024.11.5+commit.b2b86751.mod.Linux.g++",
            "solidity" : "Version: 0.8.24+commit.e11b9ed9.Linux.g++",
            "source" : "src/GeneralStateTestsFiller/Pyspecs/cancun/eip1153_tstore/test_tstorage_selfdestruct.py",
            "sourceHash" : "42d500316275c8c410c094ea203f6510925c782e8aa7a8002da92f29b2ed70f7",
            "url" : "https://github.com/ethereum/execution-spec-tests/blob/f89d09ba99a3dc680dd9410f0b8a7f8d8fc36714/tests/tmp/tmptest_56caaa25_5a7e_4a90_904d_2d5fb174ec77/test_tstorage_selfdestruct.py#L210"
        },
        "env" : {
            "currentBaseFee" : "0x07",
            "currentCoinbase" : "0x2adc25665018aa1fe0e6bc666dac8fc2697ff9ba",
            "currentDifficulty" : "0x00",
            "currentExcessBlobGas" : "0x00",
            "currentGasLimit" : "0x016345785d8a0000",
            "currentNumber" : "0x01",
            "currentRandom" : "0x0000000000000000000000000000000000000000000000000000000000000000",
            "currentTimestamp" : "0x03e8"
        },
        "post" : {
            "Cancun" : [
                {
                    "hash" : "0x876310a4488614c4dc0511f89f3e7cc5b69a73abe5aae1ea0e652a106ae5b9d8",
                    "indexes" : {
                        "data" : 0,
                        "gas" : 0,
                        "value" : 0
                    },
                    "logs" : "0x1dcc4de8dec75d7aab85b567b6ccd41ad312451b948a7413f0a142fd40d49347",
                    "txbytes" : "0xf880800a830f424094000000000000000000000000000000000000100080a0000000000000000000000000000000000000000000000000000000000000110025a068c1cad412d7a593c6eb1dba89c6cb8d20e266a6ca601325a087c63112aba4c1a0077cdf143733043b6d25d2779d4ee4ec552ea40eab5651c0e6425e772105911a"
                }
            ]
        },
        "pre" : {
            "0x0000000000000000000000000000000000001000" : {
                "balance" : "0x00",
                "code" : "0x6000356000556001600052602060006020600060006000545af1600155600051600255",
                "nonce" : "0x01",
                "storage" : {
                }
            },
            "0x0000000000000000000000000000000000001100" : {
                "balance" : "0x00",
                "code" : "0x600160003514601c580157600260003514600858015760375801565b6000ff602e5801565b61010060ff5d6002600052602060006020600060006000545af160ff5c60005260206000f360035801565b",
                "nonce" : "0x01",
                "storage" : {
                }
            },
            "0xa94f5374fce5edbc8e2a8697c15331677e6ebf0b" : {
                "balance" : "0x3635c9adc5dea00000",
                "code" : "0x",
                "nonce" : "0x00",
                "storage" : {
                }
            }
        },
        "transaction" : {
            "data" : [
                "0x0000000000000000000000000000000000000000000000000000000000001100"
            ],
            "gasLimit" : [
                "0x0f4240"
            ],
            "gasPrice" : "0x0a",
            "nonce" : "0x00",
            "secretKey" : "0x45a915e4d060149eb4365960e6a7a45f334393093061116b197e3240065ff2d8",
            "sender" : "0xa94f5374fce5edbc8e2a8697c15331677e6ebf0b",
            "to" : "0x0000000000000000000000000000000000001000",
            "value" : [
                "0x00"
            ]
        }
    },
    "src/GeneralStateTestsFiller/Pyspecs/cancun/eip1153_tstore/test_tstorage_selfdestruct.py::test_reentrant_selfdestructing_call[fork_Cancun-state_test-tload_after_selfdestruct_new_contract]" : {
        "_info" : {
            "comment" : "`execution-spec-tests` generated test",
            "description" : "Test function documentation:\n\n    Test transient storage in different reentrancy contexts after selfdestructing.",
            "filling-rpc-server" : "evm version 1.14.12-unstable-65e5ca7d-20241004",
            "filling-tool-version" : "retesteth-0.3.2-legacy+commit.be61b546.Linux.g++",
            "filling-transition-tool" : "evm version 1.14.12-unstable-65e5ca7d-20241004",
            "generatedTestHash" : "3f3b98a063528fe960f4063fadcdb467e793448c24c73ef2ed251a53c0bece5c",
            "hash" : "0x3677ba79cba2251ee0bb01d9b77d4ffb0c9d98c524139fb478673fa8892d56da",
            "lllcversion" : "Version: 0.5.14-develop.2024.11.5+commit.b2b86751.mod.Linux.g++",
            "solidity" : "Version: 0.8.24+commit.e11b9ed9.Linux.g++",
            "source" : "src/GeneralStateTestsFiller/Pyspecs/cancun/eip1153_tstore/test_tstorage_selfdestruct.py",
            "sourceHash" : "42d500316275c8c410c094ea203f6510925c782e8aa7a8002da92f29b2ed70f7",
            "url" : "https://github.com/ethereum/execution-spec-tests/blob/f89d09ba99a3dc680dd9410f0b8a7f8d8fc36714/tests/tmp/tmptest_56caaa25_5a7e_4a90_904d_2d5fb174ec77/test_tstorage_selfdestruct.py#L210"
        },
        "env" : {
            "currentBaseFee" : "0x07",
            "currentCoinbase" : "0x2adc25665018aa1fe0e6bc666dac8fc2697ff9ba",
            "currentDifficulty" : "0x00",
            "currentExcessBlobGas" : "0x00",
            "currentGasLimit" : "0x016345785d8a0000",
            "currentNumber" : "0x01",
            "currentRandom" : "0x0000000000000000000000000000000000000000000000000000000000000000",
            "currentTimestamp" : "0x03e8"
        },
        "post" : {
            "Cancun" : [
                {
                    "hash" : "0xe2d0b8cd45326a39abd1af47cd578fb32c3fd39617ff19e8b1e635eac83fa454",
                    "indexes" : {
                        "data" : 0,
                        "gas" : 0,
                        "value" : 0
                    },
                    "logs" : "0x1dcc4de8dec75d7aab85b567b6ccd41ad312451b948a7413f0a142fd40d49347",
                    "txbytes" : "0xf8a8800a830f424094000000000000000000000000000000000000100080b84761003c600081600b8239f36001600035146024580157600260003514600858015760235801565b60ff5c60005260206000f360125801565b61010060ff5d6000ff60035801565b26a0b04988e370667953120597b25fe1f4a264c734013cae2b9a940ce08cb8b13edaa04bceb02bfc3a81f11e6ef8747044c514d445caca22a2e966f6802f2c03943981"
                }
            ]
        },
        "pre" : {
            "0x0000000000000000000000000000000000001000" : {
                "balance" : "0x00",
                "code" : "0x3660006000373660006000f06000556001600052602060006020600060006000545af16001556002600052602060006020600060006000545af1600255600051600355",
                "nonce" : "0x01",
                "storage" : {
                }
            },
            "0xa94f5374fce5edbc8e2a8697c15331677e6ebf0b" : {
                "balance" : "0x3635c9adc5dea00000",
                "code" : "0x",
                "nonce" : "0x00",
                "storage" : {
                }
            }
        },
        "transaction" : {
            "data" : [
                "0x61003c600081600b8239f36001600035146024580157600260003514600858015760235801565b60ff5c60005260206000f360125801565b61010060ff5d6000ff60035801565b"
            ],
            "gasLimit" : [
                "0x0f4240"
            ],
            "gasPrice" : "0x0a",
            "nonce" : "0x00",
            "secretKey" : "0x45a915e4d060149eb4365960e6a7a45f334393093061116b197e3240065ff2d8",
            "sender" : "0xa94f5374fce5edbc8e2a8697c15331677e6ebf0b",
            "to" : "0x0000000000000000000000000000000000001000",
            "value" : [
                "0x00"
            ]
        }
    },
    "src/GeneralStateTestsFiller/Pyspecs/cancun/eip1153_tstore/test_tstorage_selfdestruct.py::test_reentrant_selfdestructing_call[fork_Cancun-state_test-tload_after_selfdestruct_pre_existing_contract]" : {
        "_info" : {
            "comment" : "`execution-spec-tests` generated test",
            "description" : "Test function documentation:\n\n    Test transient storage in different reentrancy contexts after selfdestructing.",
            "filling-rpc-server" : "evm version 1.14.12-unstable-65e5ca7d-20241004",
            "filling-tool-version" : "retesteth-0.3.2-legacy+commit.be61b546.Linux.g++",
            "filling-transition-tool" : "evm version 1.14.12-unstable-65e5ca7d-20241004",
            "generatedTestHash" : "300ff43930ae34aade748623ebbedb9d022b452048a3c7033239fc42017d15ef",
            "hash" : "0xe2d5f99469a0e6a4e2d2a63ae9ebe65e7cc7ded8ebc407d7edced1337141b7d1",
            "lllcversion" : "Version: 0.5.14-develop.2024.11.5+commit.b2b86751.mod.Linux.g++",
            "solidity" : "Version: 0.8.24+commit.e11b9ed9.Linux.g++",
            "source" : "src/GeneralStateTestsFiller/Pyspecs/cancun/eip1153_tstore/test_tstorage_selfdestruct.py",
            "sourceHash" : "42d500316275c8c410c094ea203f6510925c782e8aa7a8002da92f29b2ed70f7",
            "url" : "https://github.com/ethereum/execution-spec-tests/blob/f89d09ba99a3dc680dd9410f0b8a7f8d8fc36714/tests/tmp/tmptest_56caaa25_5a7e_4a90_904d_2d5fb174ec77/test_tstorage_selfdestruct.py#L210"
        },
        "env" : {
            "currentBaseFee" : "0x07",
            "currentCoinbase" : "0x2adc25665018aa1fe0e6bc666dac8fc2697ff9ba",
            "currentDifficulty" : "0x00",
            "currentExcessBlobGas" : "0x00",
            "currentGasLimit" : "0x016345785d8a0000",
            "currentNumber" : "0x01",
            "currentRandom" : "0x0000000000000000000000000000000000000000000000000000000000000000",
            "currentTimestamp" : "0x03e8"
        },
        "post" : {
            "Cancun" : [
                {
                    "hash" : "0x85ceccf2a727617889a3bf8c5378982801ebfa6d0c6764a470ecc277e012ed22",
                    "indexes" : {
                        "data" : 0,
                        "gas" : 0,
                        "value" : 0
                    },
                    "logs" : "0x1dcc4de8dec75d7aab85b567b6ccd41ad312451b948a7413f0a142fd40d49347",
                    "txbytes" : "0xf880800a830f424094000000000000000000000000000000000000100080a0000000000000000000000000000000000000000000000000000000000000110025a068c1cad412d7a593c6eb1dba89c6cb8d20e266a6ca601325a087c63112aba4c1a0077cdf143733043b6d25d2779d4ee4ec552ea40eab5651c0e6425e772105911a"
                }
            ]
        },
        "pre" : {
            "0x0000000000000000000000000000000000001000" : {
                "balance" : "0x00",
                "code" : "0x6000356000556001600052602060006020600060006000545af16001556002600052602060006020600060006000545af1600255600051600355",
                "nonce" : "0x01",
                "storage" : {
                }
            },
            "0x0000000000000000000000000000000000001100" : {
                "balance" : "0x00",
                "code" : "0x6001600035146024580157600260003514600858015760235801565b60ff5c60005260206000f360125801565b61010060ff5d6000ff60035801565b",
                "nonce" : "0x01",
                "storage" : {
                }
            },
            "0xa94f5374fce5edbc8e2a8697c15331677e6ebf0b" : {
                "balance" : "0x3635c9adc5dea00000",
                "code" : "0x",
                "nonce" : "0x00",
                "storage" : {
                }
            }
        },
        "transaction" : {
            "data" : [
                "0x0000000000000000000000000000000000000000000000000000000000001100"
            ],
            "gasLimit" : [
                "0x0f4240"
            ],
            "gasPrice" : "0x0a",
            "nonce" : "0x00",
            "secretKey" : "0x45a915e4d060149eb4365960e6a7a45f334393093061116b197e3240065ff2d8",
            "sender" : "0xa94f5374fce5edbc8e2a8697c15331677e6ebf0b",
            "to" : "0x0000000000000000000000000000000000001000",
            "value" : [
                "0x00"
            ]
        }
    },
    "src/GeneralStateTestsFiller/Pyspecs/cancun/eip1153_tstore/test_tstorage_selfdestruct.py::test_reentrant_selfdestructing_call[fork_Cancun-state_test-tstore_after_selfdestruct_new_contract]" : {
        "_info" : {
            "comment" : "`execution-spec-tests` generated test",
            "description" : "Test function documentation:\n\n    Test transient storage in different reentrancy contexts after selfdestructing.",
            "filling-rpc-server" : "evm version 1.14.12-unstable-65e5ca7d-20241004",
            "filling-tool-version" : "retesteth-0.3.2-legacy+commit.be61b546.Linux.g++",
            "filling-transition-tool" : "evm version 1.14.12-unstable-65e5ca7d-20241004",
            "generatedTestHash" : "b4ad9d0359d62c6a6f167cec7a79c2053ffc94baa3c75fd5a5262fcbdd4580c4",
            "hash" : "0xf40358eb5cf6abb390f708ff4ffcf70cb03ac124bdce6b30bbd526b0f94d39a6",
            "lllcversion" : "Version: 0.5.14-develop.2024.11.5+commit.b2b86751.mod.Linux.g++",
            "solidity" : "Version: 0.8.24+commit.e11b9ed9.Linux.g++",
            "source" : "src/GeneralStateTestsFiller/Pyspecs/cancun/eip1153_tstore/test_tstorage_selfdestruct.py",
            "sourceHash" : "42d500316275c8c410c094ea203f6510925c782e8aa7a8002da92f29b2ed70f7",
            "url" : "https://github.com/ethereum/execution-spec-tests/blob/f89d09ba99a3dc680dd9410f0b8a7f8d8fc36714/tests/tmp/tmptest_56caaa25_5a7e_4a90_904d_2d5fb174ec77/test_tstorage_selfdestruct.py#L210"
        },
        "env" : {
            "currentBaseFee" : "0x07",
            "currentCoinbase" : "0x2adc25665018aa1fe0e6bc666dac8fc2697ff9ba",
            "currentDifficulty" : "0x00",
            "currentExcessBlobGas" : "0x00",
            "currentGasLimit" : "0x016345785d8a0000",
            "currentNumber" : "0x01",
            "currentRandom" : "0x0000000000000000000000000000000000000000000000000000000000000000",
            "currentTimestamp" : "0x03e8"
        },
        "post" : {
            "Cancun" : [
                {
                    "hash" : "0x365ed809e5928afe2d576a2bca98ba2d43ab12a764b3f4494e056aac4c3fd66e",
                    "indexes" : {
                        "data" : 0,
                        "gas" : 0,
                        "value" : 0
                    },
                    "logs" : "0x1dcc4de8dec75d7aab85b567b6ccd41ad312451b948a7413f0a142fd40d49347",
                    "txbytes" : "0xf8b9800a830f424094000000000000000000000000000000000000100080b85861004d600081600b8239f3600160003514603b5801576002600035146024580157600360003514600858015760295801565b60ff5c60005260206000f360185801565b61010060ff5d600c5801565b6000ff60035801565b26a09e58c47052e8085ec473979424ca472c251f2533f9f982bd775b4ba299b68630a06fa92c1bbac3e80d219253e3a4963ca9c4ca40cdf6349962a68b4dd3cbb99bec"
                }
            ]
        },
        "pre" : {
            "0x0000000000000000000000000000000000001000" : {
                "balance" : "0x00",
                "code" : "0x3660006000373660006000f06000556001600052602060006020600060006000545af16001556002600052602060006020600060006000545af16002556003600052602060006020600060006000545af1600355600051600455",
                "nonce" : "0x01",
                "storage" : {
                }
            },
            "0xa94f5374fce5edbc8e2a8697c15331677e6ebf0b" : {
                "balance" : "0x3635c9adc5dea00000",
                "code" : "0x",
                "nonce" : "0x00",
                "storage" : {
                }
            }
        },
        "transaction" : {
            "data" : [
                "0x61004d600081600b8239f3600160003514603b5801576002600035146024580157600360003514600858015760295801565b60ff5c60005260206000f360185801565b61010060ff5d600c5801565b6000ff60035801565b"
            ],
            "gasLimit" : [
                "0x0f4240"
            ],
            "gasPrice" : "0x0a",
            "nonce" : "0x00",
            "secretKey" : "0x45a915e4d060149eb4365960e6a7a45f334393093061116b197e3240065ff2d8",
            "sender" : "0xa94f5374fce5edbc8e2a8697c15331677e6ebf0b",
            "to" : "0x0000000000000000000000000000000000001000",
            "value" : [
                "0x00"
            ]
        }
    },
    "src/GeneralStateTestsFiller/Pyspecs/cancun/eip1153_tstore/test_tstorage_selfdestruct.py::test_reentrant_selfdestructing_call[fork_Cancun-state_test-tstore_after_selfdestruct_pre_existing_contract]" : {
        "_info" : {
            "comment" : "`execution-spec-tests` generated test",
            "description" : "Test function documentation:\n\n    Test transient storage in different reentrancy contexts after selfdestructing.",
            "filling-rpc-server" : "evm version 1.14.12-unstable-65e5ca7d-20241004",
            "filling-tool-version" : "retesteth-0.3.2-legacy+commit.be61b546.Linux.g++",
            "filling-transition-tool" : "evm version 1.14.12-unstable-65e5ca7d-20241004",
            "generatedTestHash" : "b26ebb1f34f45acd95f45aff2bd2293900a5f1c0da876a14a4fea2a5a294bf52",
            "hash" : "0x8834aa9cf93a6311a424bb51733de2b469062c0dd3fd9c9a14a258a10f46c2d8",
            "lllcversion" : "Version: 0.5.14-develop.2024.11.5+commit.b2b86751.mod.Linux.g++",
            "solidity" : "Version: 0.8.24+commit.e11b9ed9.Linux.g++",
            "source" : "src/GeneralStateTestsFiller/Pyspecs/cancun/eip1153_tstore/test_tstorage_selfdestruct.py",
            "sourceHash" : "42d500316275c8c410c094ea203f6510925c782e8aa7a8002da92f29b2ed70f7",
            "url" : "https://github.com/ethereum/execution-spec-tests/blob/f89d09ba99a3dc680dd9410f0b8a7f8d8fc36714/tests/tmp/tmptest_56caaa25_5a7e_4a90_904d_2d5fb174ec77/test_tstorage_selfdestruct.py#L210"
        },
        "env" : {
            "currentBaseFee" : "0x07",
            "currentCoinbase" : "0x2adc25665018aa1fe0e6bc666dac8fc2697ff9ba",
            "currentDifficulty" : "0x00",
            "currentExcessBlobGas" : "0x00",
            "currentGasLimit" : "0x016345785d8a0000",
            "currentNumber" : "0x01",
            "currentRandom" : "0x0000000000000000000000000000000000000000000000000000000000000000",
            "currentTimestamp" : "0x03e8"
        },
        "post" : {
            "Cancun" : [
                {
                    "hash" : "0xd2ee00e2cbfc88a78ef9173ea3f89c3556e05c143af1de145cd4e19d1ab4c891",
                    "indexes" : {
                        "data" : 0,
                        "gas" : 0,
                        "value" : 0
                    },
                    "logs" : "0x1dcc4de8dec75d7aab85b567b6ccd41ad312451b948a7413f0a142fd40d49347",
                    "txbytes" : "0xf880800a830f424094000000000000000000000000000000000000100080a0000000000000000000000000000000000000000000000000000000000000110025a068c1cad412d7a593c6eb1dba89c6cb8d20e266a6ca601325a087c63112aba4c1a0077cdf143733043b6d25d2779d4ee4ec552ea40eab5651c0e6425e772105911a"
                }
            ]
        },
        "pre" : {
            "0x0000000000000000000000000000000000001000" : {
                "balance" : "0x00",
                "code" : "0x6000356000556001600052602060006020600060006000545af16001556002600052602060006020600060006000545af16002556003600052602060006020600060006000545af1600355600051600455",
                "nonce" : "0x01",
                "storage" : {
                }
            },
            "0x0000000000000000000000000000000000001100" : {
                "balance" : "0x00",
                "code" : "0x600160003514603b5801576002600035146024580157600360003514600858015760295801565b60ff5c60005260206000f360185801565b61010060ff5d600c5801565b6000ff60035801565b",
                "nonce" : "0x01",
                "storage" : {
                }
            },
            "0xa94f5374fce5edbc8e2a8697c15331677e6ebf0b" : {
                "balance" : "0x3635c9adc5dea00000",
                "code" : "0x",
                "nonce" : "0x00",
                "storage" : {
                }
            }
        },
        "transaction" : {
            "data" : [
                "0x0000000000000000000000000000000000000000000000000000000000001100"
            ],
            "gasLimit" : [
                "0x0f4240"
            ],
            "gasPrice" : "0x0a",
            "nonce" : "0x00",
            "secretKey" : "0x45a915e4d060149eb4365960e6a7a45f334393093061116b197e3240065ff2d8",
            "sender" : "0xa94f5374fce5edbc8e2a8697c15331677e6ebf0b",
            "to" : "0x0000000000000000000000000000000000001000",
            "value" : [
                "0x00"
            ]
        }
    }
}