{
    "src/GeneralStateTestsFiller/Pyspecs/cancun/eip1153_tstore/test_tstorage.py::test_run_until_out_of_gas[fork_Cancun-state_test-tstore]" : {
        "_info" : {
            "comment" : "`execution-spec-tests` generated test",
            "description" : "Test function documentation:\n\n    Use TSTORE over and over to different keys until we run out of gas.",
            "filling-rpc-server" : "evm version 1.14.12-unstable-65e5ca7d-20241004",
            "filling-tool-version" : "retesteth-0.3.2-legacy+commit.be61b546.Linux.g++",
            "filling-transition-tool" : "evm version 1.14.12-unstable-65e5ca7d-20241004",
            "generatedTestHash" : "225d5fd57b089a24257e32360f5a3fcce4d966a198e5e0363915652aaf2177e3",
            "hash" : "0x237eb8e431f09650d694abc1fa41115f4bc8ae5ec927d6cd3436df5c62e7e539",
            "lllcversion" : "Version: 0.5.14-develop.2024.11.5+commit.b2b86751.mod.Linux.g++",
            "solidity" : "Version: 0.8.24+commit.e11b9ed9.Linux.g++",
            "source" : "src/GeneralStateTestsFiller/Pyspecs/cancun/eip1153_tstore/test_tstorage.py",
            "sourceHash" : "3ee3d4526461910cfc2e6c8271402b57f55cbe80a00aaa9fd105dd130ab9c119",
            "url" : "https://github.com/ethereum/execution-spec-tests/blob/f89d09ba99a3dc680dd9410f0b8a7f8d8fc36714/tests/tmp/tmptest_fc88d09f_67be_4037_92c5_6cf20b97f5b6/test_tstorage.py#L264"
        },
        "env" : {
            "currentBaseFee" : "0x07",
            "currentCoinbase" : "0x2adc25665018aa1fe0e6bc666dac8fc2697ff9ba",
            "currentDifficulty" : "0x00",
            "currentExcessBlobGas" : "0x00",
            "currentGasLimit" : "0x016345785d8a0000",
            "currentNumber" : "0x01",
            "currentRandom" : "0x0000000000000000000000000000000000000000000000000000000000000000",
            "currentTimestamp" : "0x03e8"
        },
        "post" : {
            "Cancun" : [
                {
                    "hash" : "0xe5bc9165ac94b299be92efc2b1b9a666ab906b135ce2dbaa26bbe3744b6be99a",
                    "indexes" : {
                        "data" : 0,
                        "gas" : 0,
                        "value" : 0
                    },
                    "logs" : "0x1dcc4de8dec75d7aab85b567b6ccd41ad312451b948a7413f0a142fd40d49347",
                    "txbytes" : "0xf861800a8401c9c380940000000000000000000000000000000000001000808026a02e059facdd1c63f66b859b63db3d532a94eee43b1355ad8e3bda41d268936fffa02cc93f19011aa79b7490d07a2e5ebda3396a3f7ad48308da4876453c0c82eea3"
                }
            ]
        },
        "pre" : {
            "0x0000000000000000000000000000000000001000" : {
                "balance" : "0x00",
                "code" : "0x5b5a5a5d5a5a5d5a5a5d5a5a5d5a5a5d5a5a5d5a5a5d5a5a5d5a5a5d5a5a5d5a5a5d5a5a5d5a5a5d5a5a5d5a5a5d5a5a5d5a5a5d5a5a5d5a5a5d5a5a5d5a5a5d5a5a5d5a5a5d5a5a5d5a5a5d5a5a5d5a5a5d5a5a5d5a5a5d5a5a5d5a5a5d5a5a5d5a5a5d5a5a5d5a5a5d5a5a5d5a5a5d5a5a5d5a5a5d5a5a5d5a5a5d5a5a5d5a5a5d5a5a5d5a5a5d5a5a5d5a5a5d5a5a5d5a5a5d5a5a5d5a5a5d5a5a5d5a5a5d5a5a5d5a5a5d5a5a5d5a5a5d5a5a5d5a5a5d5a5a5d5a5a5d5a5a5d5a5a5d5a5a5d5a5a5d5a5a5d5a5a5d5a5a5d5a5a5d5a5a5d5a5a5d5a5a5d5a5a5d5a5a5d5a5a5d5a5a5d5a5a5d5a5a5d5a5a5d5a5a5d5a5a5d5a5a5d5a5a5d5a5a5d5a5a5d5a5a5d5a5a5d5a5a5d5a5a5d5a5a5d5a5a5d5a5a5d5a5a5d5a5a5d5a5a5d5a5a5d5a5a5d5a5a5d5a5a5d5a5a5d5a5a5d5a5a5d5a5a5d5a5a5d5a5a5d5a5a5d5a5a5d5a5a5d5a5a5d5a5a5d5a5a5d5a5a5d5a5a5d5a5a5d5a5a5d5a5a5d5a5a5d5a5a5d5a5a5d5a5a5d5a5a5d5a5a5d5a5a5d5a5a5d5a5a5d5a5a5d5a5a5d5a5a5d5a5a5d5a5a5d5a5a5d5a5a5d5a5a5d5a5a5d5a5a5d5a5a5d5a5a5d5a5a5d5a5a5d5a5a5d5a5a5d5a5a5d5a5a5d5a5a5d5a5a5d5a5a5d5a5a5d5a5a5d5a5a5d5a5a5d5a5a5d5a5a5d5a5a5d5a5a5d5a5a5d5a5a5d5a5a5d5a5a5d5a5a5d5a5a5d5a5a5d5a5a5d5a5a5d5a5a5d5a5a5d5a5a5d5a5a5d5a5a5d5a5a5d5a5a5d5a5a5d5a5a5d5a5a5d5a5a5d5a5a5d5a5a5d5a5a5d5a5a5d5a5a5d5a5a5d5a5a5d5a5a5d5a5a5d5a5a5d5a5a5d5a5a5d5a5a5d5a5a5d5a5a5d5a5a5d5a5a5d5a5a5d5a5a5d5a5a5d5a5a5d5a5a5d5a5a5d5a5a5d5a5a5d5a5a5d5a5a5d5a5a5d5a5a5d5a5a5d5a5a5d5a5a5d5a5a5d5a5a5d5a5a5d5a5a5d5a5a5d5a5a5d5a5a5d5a5a5d5a5a5d5a5a5d5a5a5d5a5a5d5a5a5d5a5a5d5a5a5d5a5a5d5a5a5d5a5a5d5a5a5d5a5a5d5a5a5d5a5a5d5a5a5d5a5a5d5a5a5d5a5a5d5a5a5d5a5a5d5a5a5d5a5a5d5a5a5d5a5a5d5a5a5d5a5a5d5a5a5d5a5a5d5a5a5d5a5a5d5a5a5d5a5a5d5a5a5d5a5a5d5a5a5d5a5a5d5a5a5d5a5a5d5a5a5d5a5a5d5a5a5d5a5a5d5a5a5d5a5a5d5a5a5d5a5a5d5a5a5d5a5a5d5a5a5d5a5a5d5a5a5d5a5a5d5a5a5d5a5a5d5a5a5d5a5a5d5a5a5d5a5a5d5a5a5d5a5a5d5a5a5d5a5a5d5a5a5d5a5a5d5a5a5d5a5a5d5a5a5d5a5a5d5a5a5d5a5a5d5a5a5d5a5a5d5a5a5d5a5a5d5a5a5d5a5a5d5a5a5d5a5a5d5a5a5d5a5a5d5a5a5d5a5a5d5a5a5d5a5a5d5a5a5d5a5a5d5a5a5d5a5a5d5a5a5d5a5a5d5a5a5d5a5a5d5a5a5d5a5a5d5a5a5d5a5a5d5a5a5d5a5a5d5a5a5d5a5a5d5a5a5d5a5a5d5a5a5d5a5a5d5a5a5d5a5a5d5a5a5d5a5a5d5a5a5d5a5a5d5a5a5d5a5a5d5a5a5d5a5a5d5a5a5d5a5a5d5a5a5d5a5a5d5a5a5d5a5a5d5a5a5d5a5a5d5a5a5d5a5a5d5a5a5d5a5a5d5a5a5d5a5a5d5a5a5d5a5a5d5a5a5d5a5a5d5a5a5d5a5a5d5a5a5d5a5a5d5a5a5d5a5a5d5a5a5d5a5a5d5a5a5d5a5a5d5a5a5d5a5a5d5a5a5d5a5a5d5a5a5d5a5a5d5a5a5d5a5a5d5a5a5d5a5a5d5a5a5d5a5a5d5a5a5d5a5a5d5a5a5d5a5a5d5a5a5d5a5a5d5a5a5d5a5a5d5a5a5d5a5a5d5a5a5d5a5a5d5a5a5d5a5a5d5a5a5d5a5a5d5a5a5d5a5a5d5a5a5d5a5a5d5a5a5d5a5a5d5a5a5d5a5a5d5a5a5d5a5a5d5a5a5d5a5a5d5a5a5d5a5a5d5a5a5d5a5a5d5a5a5d5a5a5d5a5a5d5a5a5d5a5a5d5a5a5d5a5a5d5a5a5d5a5a5d5a5a5d5a5a5d5a5a5d5a5a5d5a5a5d5a5a5d5a5a5d5a5a5d5a5a5d5a5a5d5a5a5d5a5a5d5a5a5d5a5a5d5a5a5d5a5a5d5a5a5d5a5a5d5a5a5d5a5a5d5a5a5d5a5a5d5a5a5d5a5a5d5a5a5d5a5a5d5a5a5d5a5a5d5a5a5d5a5a5d5a5a5d5a5a5d5a5a5d5a5a5d5a5a5d5a5a5d5a5a5d5a5a5d5a5a5d5a5a5d5a5a5d5a5a5d5a5a5d5a5a5d5a5a5d5a5a5d5a5a5d5a5a5d5a5a5d5a5a5d5a5a5d5a5a5d5a5a5d5a5a5d5a5a5d5a5a5d5a5a5d5a5a5d5a5a5d5a5a5d5a5a5d5a5a5d5a5a5d5a5a5d5a5a5d5a5a5d5a5a5d5a5a5d5a5a5d5a5a5d5a5a5d5a5a5d5a5a5d5a5a5d5a5a5d5a5a5d5a5a5d5a5a5d5a5a5d5a5a5d5a5a5d5a5a5d5a5a5d5a5a5d5a5a5d5a5a5d5a5a5d5a5a5d5a5a5d5a5a5d5a5a5d5a5a5d5a5a5d5a5a5d5a5a5d5a5a5d5a5a5d5a5a5d5a5a5d5a5a5d5a5a5d5a5a5d5a5a5d5a5a5d5a5a5d5a5a5d5a5a5d5a5a5d5a5a5d5a5a5d5a5a5d5a5a5d5a5a5d5a5a5d5a5a5d5a5a5d5a5a5d5a5a5d5a5a5d5a5a5d5a5a5d5a5a5d5a5a5d5a5a5d5a5a5d5a5a5d5a5a5d5a5a5d5a5a5d5a5a5d5a5a5d5a5a5d5a5a5d5a5a5d5a5a5d5a5a5d5a5a5d5a5a5d5a5a5d5a5a5d5a5a5d5a5a5d5a5a5d5a5a5d5a5a5d5a5a5d5a5a5d5a5a5d5a5a5d5a5a5d5a5a5d5a5a5d5a5a5d5a5a5d5a5a5d5a5a5d5a5a5d5a5a5d5a5a5d5a5a5d5a5a5d5a5a5d5a5a5d5a5a5d5a5a5d5a5a5d5a5a5d5a5a5d5a5a5d5a5a5d5a5a5d5a5a5d5a5a5d5a5a5d5a5a5d5a5a5d5a5a5d5a5a5d5a5a5d5a5a5d5a5a5d5a5a5d5a5a5d5a5a5d5a5a5d5a5a5d5a5a5d5a5a5d5a5a5d5a5a5d5a5a5d5a5a5d5a5a5d5a5a5d5a5a5d5a5a5d5a5a5d5a5a5d5a5a5d5a5a5d5a5a5d5a5a5d5a5a5d5a5a5d5a5a5d5a5a5d5a5a5d5a5a5d5a5a5d5a5a5d5a5a5d5a5a5d5a5a5d5a5a5d5a5a5d5a5a5d5a5a5d5a5a5d5a5a5d5a5a5d5a5a5d5a5a5d5a5a5d5a5a5d5a5a5d5a5a5d5a5a5d5a5a5d5a5a5d5a5a5d5a5a5d5a5a5d5a5a5d5a5a5d5a5a5d5a5a5d5a5a5d5a5a5d5a5a5d5a5a5d5a5a5d5a5a5d5a5a5d5a5a5d5a5a5d5a5a5d5a5a5d5a5a5d5a5a5d5a5a5d5a5a5d5a5a5d5a5a5d5a5a5d5a5a5d5a5a5d5a5a5d5a5a5d5a5a5d5a5a5d5a5a5d5a5a5d5a5a5d5a5a5d5a5a5d5a5a5d5a5a5d5a5a5d5a5a5d5a5a5d5a5a5d5a5a5d5a5a5d5a5a5d5a5a5d5a5a5d5a5a5d5a5a5d5a5a5d5a5a5d5a5a5d5a5a5d5a5a5d5a5a5d5a5a5d5a5a5d5a5a5d5a5a5d5a5a5d5a5a5d5a5a5d5a5a5d5a5a5d5a5a5d5a5a5d5a5a5d5a5a5d5a5a5d5a5a5d5a5a5d5a5a5d5a5a5d5a5a5d5a5a5d5a5a5d5a5a5d5a5a5d5a5a5d5a5a5d5a5a5d5a5a5d5a5a5d5a5a5d5a5a5d5a5a5d5a5a5d5a5a5d5a5a5d5a5a5d5a5a5d5a5a5d5a5a5d5a5a5d5a5a5d5a5a5d5a5a5d5a5a5d5a5a5d5a5a5d5a5a5d5a5a5d5a5a5d5a5a5d5a5a5d5a5a5d5a5a5d5a5a5d5a5a5d5a5a5d5a5a5d5a5a5d5a5a5d5a5a5d5a5a5d5a5a5d5a5a5d5a5a5d5a5a5d5a5a5d5a5a5d5a5a5d5a5a5d5a5a5d5a5a5d5a5a5d5a5a5d5a5a5d5a5a5d5a5a5d5a5a5d5a5a5d5a5a5d5a5a5d5a5a5d5a5a5d5a5a5d5a5a5d5a5a5d5a5a5d5a5a5d5a5a5d5a5a5d5a5a5d5a5a5d5a5a5d5a5a5d5a5a5d5a5a5d5a5a5d5a5a5d5a5a5d5a5a5d5a5a5d5a5a5d5a5a5d5a5a5d5a5a5d5a5a5d5a5a5d5a5a5d5a5a5d5a5a5d5a5a5d5a5a5d5a5a5d5a5a5d5a5a5d5a5a5d5a5a5d5a5a5d5a5a5d5a5a5d5a5a5d5a5a5d5a5a5d5a5a5d5a5a5d5a5a5d5a5a5d5a5a5d5a5a5d5a5a5d5a5a5d5a5a5d5a5a5d5a5a5d5a5a5d5a5a5d5a5a5d5a5a5d5a5a5d5a5a5d5a5a5d5a5a5d5a5a5d5a5a5d5a5a5d5a5a5d5a5a5d5a5a5d5a5a5d5a5a5d5a5a5d5a5a5d5a5a5d5a5a5d5a5a5d5a5a5d5a5a5d5a5a5d5a5a5d5a5a5d5a5a5d5a5a5d5a5a5d5a5a5d5a5a5d5a5a5d5a5a5d5a5a5d5a5a5d5a5a5d5a5a5d5a5a5d5a5a5d5a5a5d5a5a5d5a5a5d5a5a5d5a5a5d5a5a5d5a5a5d5a5a5d5a5a5d5a5a5d5a5a5d5a5a5d5a5a5d5a5a5d5a5a5d5a5a5d5a5a5d5a5a5d5a5a5d5a5a5d5a5a5d5a5a5d5a5a5d5a5a5d5a5a5d5a5a5d5a5a5d5a5a5d5a5a5d5a5a5d5a5a5d5a5a5d5a5a5d5a5a5d5a5a5d5a5a5d5a5a5d5a5a5d5a5a5d5a5a5d5a5a5d5a5a5d5a5a5d5a5a5d5a5a5d5a5a5d5a5a5d5a5a5d5a5a5d5a5a5d5a5a5d5a5a5d5a5a5d5a5a5d5a5a5d5a5a5d5a5a5d5a5a5d5a5a5d5a5a5d5a5a5d5a5a5d5a5a5d5a5a5d5a5a5d5a5a5d5a5a5d5a5a5d5a5a5d5a5a5d5a5a5d5a5a5d5a5a5d5a5a5d5a5a5d5a5a5d5a5a5d5a5a5d5a5a5d5a5a5d5a5a5d5a5a5d5a5a5d5a5a5d5a5a5d5a5a5d5a5a5d5a5a5d5a5a5d5a5a5d5a5a5d5a5a5d5a5a5d5a5a5d5a5a5d5a5a5d5a5a5d5a5a5d5a5a5d5a5a5d5a5a5d5a5a5d5a5a5d5a5a5d5a5a5d5a5a5d5a5a5d5a5a5d5a5a5d5a5a5d5a5a5d5a5a5d5a5a5d5a5a5d5a5a5d5a5a5d5a5a5d5a5a5d5a5a5d5a5a5d5a5a5d5a5a5d5a5a5d5a5a5d5a5a5d5a5a5d5a5a5d5a5a5d5a5a5d5a5a5d5a5a5d5a5a5d5a5a5d5a5a5d5a5a5d5a5a5d5f56",
                "nonce" : "0x01",
                "storage" : {
                }
            },
            "0xa94f5374fce5edbc8e2a8697c15331677e6ebf0b" : {
                "balance" : "0x3635c9adc5dea00000",
                "code" : "0x",
                "nonce" : "0x00",
                "storage" : {
                }
            }
        },
        "transaction" : {
            "data" : [
                "0x"
            ],
            "gasLimit" : [
                "0x01c9c380"
            ],
            "gasPrice" : "0x0a",
            "nonce" : "0x00",
            "secretKey" : "0x45a915e4d060149eb4365960e6a7a45f334393093061116b197e3240065ff2d8",
            "sender" : "0xa94f5374fce5edbc8e2a8697c15331677e6ebf0b",
            "to" : "0x0000000000000000000000000000000000001000",
            "value" : [
                "0x00"
            ]
        }
    },
    "src/GeneralStateTestsFiller/Pyspecs/cancun/eip1153_tstore/test_tstorage.py::test_run_until_out_of_gas[fork_Cancun-state_test-tstore_tload]" : {
        "_info" : {
            "comment" : "`execution-spec-tests` generated test",
            "description" : "Test function documentation:\n\n    Use TSTORE over and over to different keys until we run out of gas.",
            "filling-rpc-server" : "evm version 1.14.12-unstable-65e5ca7d-20241004",
            "filling-tool-version" : "retesteth-0.3.2-legacy+commit.be61b546.Linux.g++",
            "filling-transition-tool" : "evm version 1.14.12-unstable-65e5ca7d-20241004",
            "generatedTestHash" : "3da586579181d6d1348d27390897308f1ded263b0a7ae051e228e516569b469a",
            "hash" : "0x9f695ad714501fa470a4a6d087f815ad50ef4294d4185122e9a48dc6ee6112c3",
            "lllcversion" : "Version: 0.5.14-develop.2024.11.5+commit.b2b86751.mod.Linux.g++",
            "solidity" : "Version: 0.8.24+commit.e11b9ed9.Linux.g++",
            "source" : "src/GeneralStateTestsFiller/Pyspecs/cancun/eip1153_tstore/test_tstorage.py",
            "sourceHash" : "3ee3d4526461910cfc2e6c8271402b57f55cbe80a00aaa9fd105dd130ab9c119",
            "url" : "https://github.com/ethereum/execution-spec-tests/blob/f89d09ba99a3dc680dd9410f0b8a7f8d8fc36714/tests/tmp/tmptest_fc88d09f_67be_4037_92c5_6cf20b97f5b6/test_tstorage.py#L264"
        },
        "env" : {
            "currentBaseFee" : "0x07",
            "currentCoinbase" : "0x2adc25665018aa1fe0e6bc666dac8fc2697ff9ba",
            "currentDifficulty" : "0x00",
            "currentExcessBlobGas" : "0x00",
            "currentGasLimit" : "0x016345785d8a0000",
            "currentNumber" : "0x01",
            "currentRandom" : "0x0000000000000000000000000000000000000000000000000000000000000000",
            "currentTimestamp" : "0x03e8"
        },
        "post" : {
            "Cancun" : [
                {
                    "hash" : "0x653eda9cc346a4c7d44292a1b57ba20de3b2733d0fc0866a235ef950b7fb09fd",
                    "indexes" : {
                        "data" : 0,
                        "gas" : 0,
                        "value" : 0
                    },
                    "logs" : "0x1dcc4de8dec75d7aab85b567b6ccd41ad312451b948a7413f0a142fd40d49347",
                    "txbytes" : "0xf861800a8401c9c380940000000000000000000000000000000000001000808026a02e059facdd1c63f66b859b63db3d532a94eee43b1355ad8e3bda41d268936fffa02cc93f19011aa79b7490d07a2e5ebda3396a3f7ad48308da4876453c0c82eea3"
                }
            ]
        },
        "pre" : {
            "0x0000000000000000000000000000000000001000" : {
                "balance" : "0x00",
                "code" : "0x5b5a80805d5c505a80805d5c505a80805d5c505a80805d5c505a80805d5c505a80805d5c505a80805d5c505a80805d5c505a80805d5c505a80805d5c505a80805d5c505a80805d5c505a80805d5c505a80805d5c505a80805d5c505a80805d5c505a80805d5c505a80805d5c505a80805d5c505a80805d5c505a80805d5c505a80805d5c505a80805d5c505a80805d5c505a80805d5c505a80805d5c505a80805d5c505a80805d5c505a80805d5c505a80805d5c505a80805d5c505a80805d5c505a80805d5c505a80805d5c505a80805d5c505a80805d5c505a80805d5c505a80805d5c505a80805d5c505a80805d5c505a80805d5c505a80805d5c505a80805d5c505a80805d5c505a80805d5c505a80805d5c505a80805d5c505a80805d5c505a80805d5c505a80805d5c505a80805d5c505a80805d5c505a80805d5c505a80805d5c505a80805d5c505a80805d5c505a80805d5c505a80805d5c505a80805d5c505a80805d5c505a80805d5c505a80805d5c505a80805d5c505a80805d5c505a80805d5c505a80805d5c505a80805d5c505a80805d5c505a80805d5c505a80805d5c505a80805d5c505a80805d5c505a80805d5c505a80805d5c505a80805d5c505a80805d5c505a80805d5c505a80805d5c505a80805d5c505a80805d5c505a80805d5c505a80805d5c505a80805d5c505a80805d5c505a80805d5c505a80805d5c505a80805d5c505a80805d5c505a80805d5c505a80805d5c505a80805d5c505a80805d5c505a80805d5c505a80805d5c505a80805d5c505a80805d5c505a80805d5c505a80805d5c505a80805d5c505a80805d5c505a80805d5c505a80805d5c505a80805d5c505a80805d5c505a80805d5c505a80805d5c505a80805d5c505a80805d5c505a80805d5c505a80805d5c505a80805d5c505a80805d5c505a80805d5c505a80805d5c505a80805d5c505a80805d5c505a80805d5c505a80805d5c505a80805d5c505a80805d5c505a80805d5c505a80805d5c505a80805d5c505a80805d5c505a80805d5c505a80805d5c505a80805d5c505a80805d5c505a80805d5c505a80805d5c505a80805d5c505a80805d5c505a80805d5c505a80805d5c505a80805d5c505a80805d5c505a80805d5c505a80805d5c505a80805d5c505a80805d5c505a80805d5c505a80805d5c505a80805d5c505a80805d5c505a80805d5c505a80805d5c505a80805d5c505a80805d5c505a80805d5c505a80805d5c505a80805d5c505a80805d5c505a80805d5c505a80805d5c505a80805d5c505a80805d5c505a80805d5c505a80805d5c505a80805d5c505a80805d5c505a80805d5c505a80805d5c505a80805d5c505a80805d5c505a80805d5c505a80805d5c505a80805d5c505a80805d5c505a80805d5c505a80805d5c505a80805d5c505a80805d5c505a80805d5c505a80805d5c505a80805d5c505a80805d5c505a80805d5c505a80805d5c505a80805d5c505a80805d5c505a80805d5c505a80805d5c505a80805d5c505a80805d5c505a80805d5c505a80805d5c505a80805d5c505a80805d5c505a80805d5c505a80805d5c505a80805d5c505a80805d5c505a80805d5c505a80805d5c505a80805d5c505a80805d5c505a80805d5c505a80805d5c505a80805d5c505a80805d5c505a80805d5c505a80805d5c505a80805d5c505a80805d5c505a80805d5c505a80805d5c505a80805d5c505a80805d5c505a80805d5c505a80805d5c505a80805d5c505a80805d5c505a80805d5c505a80805d5c505a80805d5c505a80805d5c505a80805d5c505a80805d5c505a80805d5c505a80805d5c505a80805d5c505a80805d5c505a80805d5c505a80805d5c505a80805d5c505a80805d5c505a80805d5c505a80805d5c505a80805d5c505a80805d5c505a80805d5c505a80805d5c505a80805d5c505a80805d5c505a80805d5c505a80805d5c505a80805d5c505a80805d5c505a80805d5c505a80805d5c505a80805d5c505a80805d5c505a80805d5c505a80805d5c505a80805d5c505a80805d5c505a80805d5c505a80805d5c505a80805d5c505a80805d5c505a80805d5c505a80805d5c505a80805d5c505a80805d5c505a80805d5c505a80805d5c505a80805d5c505a80805d5c505a80805d5c505a80805d5c505a80805d5c505a80805d5c505a80805d5c505a80805d5c505a80805d5c505a80805d5c505a80805d5c505a80805d5c505a80805d5c505a80805d5c505a80805d5c505a80805d5c505a80805d5c505a80805d5c505a80805d5c505a80805d5c505a80805d5c505a80805d5c505a80805d5c505a80805d5c505a80805d5c505a80805d5c505a80805d5c505a80805d5c505a80805d5c505a80805d5c505a80805d5c505a80805d5c505a80805d5c505a80805d5c505a80805d5c505a80805d5c505a80805d5c505a80805d5c505a80805d5c505a80805d5c505a80805d5c505a80805d5c505a80805d5c505a80805d5c505a80805d5c505a80805d5c505a80805d5c505a80805d5c505a80805d5c505a80805d5c505a80805d5c505a80805d5c505a80805d5c505a80805d5c505a80805d5c505a80805d5c505a80805d5c505a80805d5c505a80805d5c505a80805d5c505a80805d5c505a80805d5c505a80805d5c505a80805d5c505a80805d5c505a80805d5c505a80805d5c505a80805d5c505a80805d5c505a80805d5c505a80805d5c505a80805d5c505a80805d5c505a80805d5c505a80805d5c505a80805d5c505a80805d5c505a80805d5c505a80805d5c505a80805d5c505a80805d5c505a80805d5c505a80805d5c505a80805d5c505a80805d5c505a80805d5c505a80805d5c505a80805d5c505a80805d5c505a80805d5c505a80805d5c505a80805d5c505a80805d5c505a80805d5c505a80805d5c505a80805d5c505a80805d5c505a80805d5c505a80805d5c505a80805d5c505a80805d5c505a80805d5c505a80805d5c505a80805d5c505a80805d5c505a80805d5c505a80805d5c505a80805d5c505a80805d5c505a80805d5c505a80805d5c505a80805d5c505a80805d5c505a80805d5c505a80805d5c505a80805d5c505a80805d5c505a80805d5c505a80805d5c505a80805d5c505a80805d5c505a80805d5c505a80805d5c505a80805d5c505a80805d5c505a80805d5c505a80805d5c505a80805d5c505a80805d5c505a80805d5c505a80805d5c505a80805d5c505a80805d5c505a80805d5c505a80805d5c505a80805d5c505a80805d5c505a80805d5c505a80805d5c505a80805d5c505a80805d5c505a80805d5c505a80805d5c505a80805d5c505a80805d5c505a80805d5c505a80805d5c505a80805d5c505a80805d5c505a80805d5c505a80805d5c505a80805d5c505a80805d5c505a80805d5c505a80805d5c505a80805d5c505a80805d5c505a80805d5c505a80805d5c505a80805d5c505a80805d5c505a80805d5c505a80805d5c505a80805d5c505a80805d5c505a80805d5c505a80805d5c505a80805d5c505a80805d5c505a80805d5c505a80805d5c505a80805d5c505a80805d5c505a80805d5c505a80805d5c505a80805d5c505a80805d5c505a80805d5c505a80805d5c505a80805d5c505a80805d5c505a80805d5c505a80805d5c505a80805d5c505a80805d5c505a80805d5c505a80805d5c505a80805d5c505a80805d5c505a80805d5c505a80805d5c505a80805d5c505a80805d5c505a80805d5c505a80805d5c505a80805d5c505a80805d5c505a80805d5c505a80805d5c505a80805d5c505a80805d5c505a80805d5c505a80805d5c505a80805d5c505a80805d5c505a80805d5c505a80805d5c505a80805d5c505a80805d5c505a80805d5c505a80805d5c505a80805d5c505a80805d5c505a80805d5c505a80805d5c505a80805d5c505a80805d5c505a80805d5c505a80805d5c505a80805d5c505a80805d5c505a80805d5c505a80805d5c505a80805d5c505a80805d5c505a80805d5c505a80805d5c505a80805d5c505a80805d5c505a80805d5c505a80805d5c505a80805d5c505a80805d5c505a80805d5c505a80805d5c505a80805d5c505a80805d5c505a80805d5c505a80805d5c505a80805d5c505a80805d5c505a80805d5c505a80805d5c505a80805d5c505a80805d5c505a80805d5c505a80805d5c505a80805d5c505a80805d5c505a80805d5c505a80805d5c505a80805d5c505a80805d5c505a80805d5c505a80805d5c505a80805d5c505a80805d5c505a80805d5c505a80805d5c505a80805d5c505a80805d5c505a80805d5c505a80805d5c505a80805d5c505a80805d5c505a80805d5c505a80805d5c505a80805d5c505a80805d5c505a80805d5c505a80805d5c505a80805d5c505a80805d5c505a80805d5c505a80805d5c505a80805d5c505a80805d5c505a80805d5c505a80805d5c505a80805d5c505a80805d5c505a80805d5c505a80805d5c505a80805d5c505a80805d5c505a80805d5c505a80805d5c505a80805d5c505a80805d5c505a80805d5c505a80805d5c505a80805d5c505a80805d5c505a80805d5c505a80805d5c505a80805d5c505a80805d5c505a80805d5c505a80805d5c505a80805d5c505a80805d5c505a80805d5c505a80805d5c505a80805d5c505a80805d5c505a80805d5c505a80805d5c505a80805d5c505a80805d5c505a80805d5c505a80805d5c505a80805d5c505a80805d5c505a80805d5c505a80805d5c505a80805d5c505a80805d5c505a80805d5c505a80805d5c505a80805d5c505a80805d5c505a80805d5c505a80805d5c505a80805d5c505a80805d5c505a80805d5c505a80805d5c505a80805d5c505a80805d5c505a80805d5c505a80805d5c505a80805d5c505a80805d5c505a80805d5c505a80805d5c505a80805d5c505a80805d5c505a80805d5c505a80805d5c505a80805d5c505a80805d5c505a80805d5c505a80805d5c505a80805d5c505a80805d5c505a80805d5c505a80805d5c505a80805d5c505a80805d5c505a80805d5c505a80805d5c505a80805d5c505a80805d5c505a80805d5c505a80805d5c505a80805d5c505a80805d5c505a80805d5c505a80805d5c505a80805d5c505a80805d5c505a80805d5c505a80805d5c505a80805d5c505a80805d5c505a80805d5c505a80805d5c505a80805d5c505a80805d5c505a80805d5c505a80805d5c505a80805d5c505a80805d5c505a80805d5c505a80805d5c505a80805d5c505a80805d5c505a80805d5c505a80805d5c505a80805d5c505a80805d5c505a80805d5c505a80805d5c505a80805d5c505a80805d5c505a80805d5c505a80805d5c505a80805d5c505a80805d5c505a80805d5c505a80805d5c505a80805d5c505a80805d5c505a80805d5c505a80805d5c505a80805d5c505a80805d5c505a80805d5c505a80805d5c505a80805d5c505a80805d5c505a80805d5c505a80805d5c505a80805d5c505a80805d5c505a80805d5c505a80805d5c505a80805d5c505a80805d5c505a80805d5c505a80805d5c505a80805d5c505a80805d5c505a80805d5c505a80805d5c505a80805d5c505a80805d5c505a80805d5c505a80805d5c505a80805d5c505a80805d5c505a80805d5c505a80805d5c505a80805d5c505a80805d5c505a80805d5c505a80805d5c505a80805d5c505a80805d5c505a80805d5c505a80805d5c505a80805d5c505a80805d5c505a80805d5c505a80805d5c505a80805d5c505a80805d5c505a80805d5c505a80805d5c505a80805d5c505a80805d5c505a80805d5c505a80805d5c505a80805d5c505a80805d5c505a80805d5c505a80805d5c505a80805d5c505a80805d5c505a80805d5c505a80805d5c505a80805d5c505a80805d5c505a80805d5c505a80805d5c505a80805d5c505a80805d5c505a80805d5c505a80805d5c505a80805d5c505a80805d5c505a80805d5c505a80805d5c505a80805d5c505a80805d5c505a80805d5c505a80805d5c505a80805d5c505a80805d5c505a80805d5c505a80805d5c505a80805d5c505a80805d5c505a80805d5c505a80805d5c505a80805d5c505a80805d5c505a80805d5c505a80805d5c505a80805d5c505a80805d5c505a80805d5c505a80805d5c505a80805d5c505a80805d5c505a80805d5c505a80805d5c505a80805d5c505a80805d5c505a80805d5c505a80805d5c505a80805d5c505a80805d5c505a80805d5c505a80805d5c505a80805d5c505a80805d5c505a80805d5c505a80805d5c505a80805d5c505a80805d5c505a80805d5c505a80805d5c505a80805d5c505a80805d5c505a80805d5c505a80805d5c505a80805d5c505a80805d5c505a80805d5c505a80805d5c505a80805d5c505a80805d5c505a80805d5c505a80805d5c505a80805d5c505a80805d5c505a80805d5c505a80805d5c505a80805d5c505a80805d5c505a80805d5c505a80805d5c505a80805d5c505a80805d5c505a80805d5c505a80805d5c505a80805d5c505a80805d5c505a80805d5c505a80805d5c505a80805d5c505a80805d5c505a80805d5c505a80805d5c505a80805d5c505a80805d5c505a80805d5c505a80805d5c505a80805d5c505a80805d5c505a80805d5c505a80805d5c505a80805d5c505a80805d5c505a80805d5c505a80805d5c505a80805d5c505a80805d5c505a80805d5c505a80805d5c505a80805d5c505a80805d5c505a80805d5c505a80805d5c505a80805d5c505a80805d5c505a80805d5c505a80805d5c505a80805d5c505a80805d5c505a80805d5c505a80805d5c505a80805d5c505a80805d5c505a80805d5c505a80805d5c505a80805d5c505a80805d5c505a80805d5c505a80805d5c505a80805d5c505a80805d5c505a80805d5c505a80805d5c505a80805d5c505a80805d5c505a80805d5c505a80805d5c505a80805d5c505a80805d5c505a80805d5c505a80805d5c505a80805d5c505a80805d5c505a80805d5c505a80805d5c505a80805d5c505a80805d5c505a80805d5c505a80805d5c505a80805d5c505a80805d5c505a80805d5c505a80805d5c505a80805d5c505a80805d5c505a80805d5c505a80805d5c505a80805d5c505a80805d5c505a80805d5c505a80805d5c505a80805d5c505a80805d5c505a80805d5c505a80805d5c505a80805d5c505a80805d5c505a80805d5c505a80805d5c505a80805d5c505a80805d5c505a80805d5c505a80805d5c505a80805d5c505a80805d5c505a80805d5c505a80805d5c505a80805d5c505a80805d5c505a80805d5c505a80805d5c505a80805d5c505a80805d5c505a80805d5c505a80805d5c505a80805d5c505a80805d5c505a80805d5c505a80805d5c505a80805d5c505a80805d5c505a80805d5c505a80805d5c505a80805d5c505a80805d5c505a80805d5c505a80805d5c505a80805d5c505a80805d5c505a80805d5c505a80805d5c505a80805d5c505a80805d5c505a80805d5c505a80805d5c505a80805d5c505a80805d5c505a80805d5c505a80805d5c505a80805d5c505a80805d5c505a80805d5c505a80805d5c505a80805d5c505a80805d5c505a80805d5c505a80805d5c505a80805d5c505a80805d5c505a80805d5c505a80805d5c505a80805d5c505a80805d5c505a80805d5c505a80805d5c505a80805d5c505a80805d5c505a80805d5c505a80805d5c505a80805d5c505a80805d5c505a80805d5c505a80805d5c505a80805d5c505a80805d5c505a80805d5c505a80805d5c505a80805d5c505a80805d5c505a80805d5c505a80805d5c505a80805d5c505a80805d5c505a80805d5c505a80805d5c505a80805d5c505a80805d5c505a80805d5c505a80805d5c505a80805d5c505a80805d5c505a80805d5c505a80805d5c505a80805d5c505a80805d5c505a80805d5c505a80805d5c505a80805d5c505a80805d5c505a80805d5c505a80805d5c505a80805d5c505a80805d5c505a80805d5c505a80805d5c505a80805d5c505a80805d5c505a80805d5c505a80805d5c505a80805d5c505a80805d5c505a80805d5c505a80805d5c505a80805d5c505a80805d5c505a80805d5c505a80805d5c505a80805d5c505a80805d5c505a80805d5c505a80805d5c505a80805d5c505a80805d5c505a80805d5c505a80805d5c505a80805d5c505a80805d5c505a80805d5c505a80805d5c505a80805d5c505a80805d5c505a80805d5c505a80805d5c505a80805d5c505a80805d5c505a80805d5c505a80805d5c505a80805d5c505a80805d5c505a80805d5c505a80805d5c505a80805d5c505f56",
                "nonce" : "0x01",
                "storage" : {
                }
            },
            "0xa94f5374fce5edbc8e2a8697c15331677e6ebf0b" : {
                "balance" : "0x3635c9adc5dea00000",
                "code" : "0x",
                "nonce" : "0x00",
                "storage" : {
                }
            }
        },
        "transaction" : {
            "data" : [
                "0x"
            ],
            "gasLimit" : [
                "0x01c9c380"
            ],
            "gasPrice" : "0x0a",
            "nonce" : "0x00",
            "secretKey" : "0x45a915e4d060149eb4365960e6a7a45f334393093061116b197e3240065ff2d8",
            "sender" : "0xa94f5374fce5edbc8e2a8697c15331677e6ebf0b",
            "to" : "0x0000000000000000000000000000000000001000",
            "value" : [
                "0x00"
            ]
        }
    },
    "src/GeneralStateTestsFiller/Pyspecs/cancun/eip1153_tstore/test_tstorage.py::test_run_until_out_of_gas[fork_Cancun-state_test-tstore_wide_address_space]" : {
        "_info" : {
            "comment" : "`execution-spec-tests` generated test",
            "description" : "Test function documentation:\n\n    Use TSTORE over and over to different keys until we run out of gas.",
            "filling-rpc-server" : "evm version 1.14.12-unstable-65e5ca7d-20241004",
            "filling-tool-version" : "retesteth-0.3.2-legacy+commit.be61b546.Linux.g++",
            "filling-transition-tool" : "evm version 1.14.12-unstable-65e5ca7d-20241004",
            "generatedTestHash" : "c35a1f0627df936beb0b4f74127595461468b1ca30eb31a6b8393937df1b8d1a",
            "hash" : "0x4ba3a447eafd3c1ef332fa1e87b875656bf8dc71ee306cad34bc83594e043689",
            "lllcversion" : "Version: 0.5.14-develop.2024.11.5+commit.b2b86751.mod.Linux.g++",
            "solidity" : "Version: 0.8.24+commit.e11b9ed9.Linux.g++",
            "source" : "src/GeneralStateTestsFiller/Pyspecs/cancun/eip1153_tstore/test_tstorage.py",
            "sourceHash" : "3ee3d4526461910cfc2e6c8271402b57f55cbe80a00aaa9fd105dd130ab9c119",
            "url" : "https://github.com/ethereum/execution-spec-tests/blob/f89d09ba99a3dc680dd9410f0b8a7f8d8fc36714/tests/tmp/tmptest_fc88d09f_67be_4037_92c5_6cf20b97f5b6/test_tstorage.py#L264"
        },
        "env" : {
            "currentBaseFee" : "0x07",
            "currentCoinbase" : "0x2adc25665018aa1fe0e6bc666dac8fc2697ff9ba",
            "currentDifficulty" : "0x00",
            "currentExcessBlobGas" : "0x00",
            "currentGasLimit" : "0x016345785d8a0000",
            "currentNumber" : "0x01",
            "currentRandom" : "0x0000000000000000000000000000000000000000000000000000000000000000",
            "currentTimestamp" : "0x03e8"
        },
        "post" : {
            "Cancun" : [
                {
                    "hash" : "0x64366d09550d1ef1dca93c10b4a9569e10cef0b6e28f30efd6b4d1042ef3a48e",
                    "indexes" : {
                        "data" : 0,
                        "gas" : 0,
                        "value" : 0
                    },
                    "logs" : "0x1dcc4de8dec75d7aab85b567b6ccd41ad312451b948a7413f0a142fd40d49347",
                    "txbytes" : "0xf861800a8401c9c380940000000000000000000000000000000000001000808026a02e059facdd1c63f66b859b63db3d532a94eee43b1355ad8e3bda41d268936fffa02cc93f19011aa79b7490d07a2e5ebda3396a3f7ad48308da4876453c0c82eea3"
                }
            ]
        },
        "pre" : {
            "0x0000000000000000000000000000000000001000" : {
                "balance" : "0x00",
                "code" : "0x5b5a5a6001581b015d5a5a6001581b015d5a5a6001581b015d5a5a6001581b015d5a5a6001581b015d5a5a6001581b015d5a5a6001581b015d5a5a6001581b015d5a5a6001581b015d5a5a6001581b015d5a5a6001581b015d5a5a6001581b015d5a5a6001581b015d5a5a6001581b015d5a5a6001581b015d5a5a6001581b015d5a5a6001581b015d5a5a6001581b015d5a5a6001581b015d5a5a6001581b015d5a5a6001581b015d5a5a6001581b015d5a5a6001581b015d5a5a6001581b015d5a5a6001581b015d5a5a6001581b015d5a5a6001581b015d5a5a6001581b015d5a5a6001581b015d5a5a6001581b015d5a5a6001581b015d5a5a6001581b015d5f56",
                "nonce" : "0x01",
                "storage" : {
                }
            },
            "0xa94f5374fce5edbc8e2a8697c15331677e6ebf0b" : {
                "balance" : "0x3635c9adc5dea00000",
                "code" : "0x",
                "nonce" : "0x00",
                "storage" : {
                }
            }
        },
        "transaction" : {
            "data" : [
                "0x"
            ],
            "gasLimit" : [
                "0x01c9c380"
            ],
            "gasPrice" : "0x0a",
            "nonce" : "0x00",
            "secretKey" : "0x45a915e4d060149eb4365960e6a7a45f334393093061116b197e3240065ff2d8",
            "sender" : "0xa94f5374fce5edbc8e2a8697c15331677e6ebf0b",
            "to" : "0x0000000000000000000000000000000000001000",
            "value" : [
                "0x00"
            ]
        }
    }
}