{
    "src/GeneralStateTestsFiller/Pyspecs/cancun/eip1153_tstore/test_tstorage.py::test_transient_storage_unset_values[fork_Cancun-state_test]" : {
        "_info" : {
            "comment" : "`execution-spec-tests` generated test",
            "description" : "Test function documentation:\n\n    Test that tload returns zero for unset values. Loading an arbitrary value is\n    0 at beginning of transaction: TLOAD(x) is 0.\n\n    Based on [ethereum/tests/.../01_tloadBeginningTxnFiller.yml](https://github.com/ethereum/tests/blob/9b00b68593f5869eb51a6659e1cc983e875e616b/src/EIPTestsFiller/StateTests/stEIP1153-transientStorage/01_tloadBeginningTxnFiller.yml)\",  # noqa: E501",
            "filling-rpc-server" : "evm version 1.14.12-unstable-65e5ca7d-20241004",
            "filling-tool-version" : "retesteth-0.3.2-legacy+commit.be61b546.Linux.g++",
            "filling-transition-tool" : "evm version 1.14.12-unstable-65e5ca7d-20241004",
            "generatedTestHash" : "e42edb88c568846db5cab8d918faf521831f5f31c3fbe83260395b15c00c3129",
            "hash" : "0x9da7e1267cc21492d3dbe7033ef8cea02c99db848081fcd3054641d4ba1069e8",
            "lllcversion" : "Version: 0.5.14-develop.2024.11.5+commit.b2b86751.mod.Linux.g++",
            "solidity" : "Version: 0.8.24+commit.e11b9ed9.Linux.g++",
            "source" : "src/GeneralStateTestsFiller/Pyspecs/cancun/eip1153_tstore/test_tstorage.py",
            "sourceHash" : "3ee3d4526461910cfc2e6c8271402b57f55cbe80a00aaa9fd105dd130ab9c119",
            "url" : "https://github.com/ethereum/execution-spec-tests/blob/f89d09ba99a3dc680dd9410f0b8a7f8d8fc36714/tests/tmp/tmptest_fc88d09f_67be_4037_92c5_6cf20b97f5b6/test_tstorage.py#L27"
        },
        "env" : {
            "currentBaseFee" : "0x07",
            "currentCoinbase" : "0x2adc25665018aa1fe0e6bc666dac8fc2697ff9ba",
            "currentDifficulty" : "0x00",
            "currentExcessBlobGas" : "0x00",
            "currentGasLimit" : "0x016345785d8a0000",
            "currentNumber" : "0x01",
            "currentRandom" : "0x0000000000000000000000000000000000000000000000000000000000000000",
            "currentTimestamp" : "0x03e8"
        },
        "post" : {
            "Cancun" : [
                {
                    "hash" : "0x279e3bf2d03c837e9a61ab1ca23bd938ec83dd5e29bcd171e7ee2b44bd95fd97",
                    "indexes" : {
                        "data" : 0,
                        "gas" : 0,
                        "value" : 0
                    },
                    "logs" : "0x1dcc4de8dec75d7aab85b567b6ccd41ad312451b948a7413f0a142fd40d49347",
                    "txbytes" : "0xf860800a830f4240940000000000000000000000000000000000001000808026a07b0cbd2d85800843e73b1a917828915aaaf49021e4c7896ecc4fcc460e070cf5a071bda31b1d867df266f75bd3fb2efd3ac4aef1b574d092593346940024f69c9a"
                }
            ]
        },
        "pre" : {
            "0x0000000000000000000000000000000000001000" : {
                "balance" : "0x00",
                "code" : "0x60005c60005560015c60015560025c6002557001000000000000000000000000000000005c700100000000000000000000000000000000557fffffffffffffffffffffffffffffffffffffffffffffffffffffffffffffffff5c7fffffffffffffffffffffffffffffffffffffffffffffffffffffffffffffffff55",
                "nonce" : "0x01",
                "storage" : {
                    "0x00" : "0x01",
                    "0x01" : "0x01",
                    "0x0100000000000000000000000000000000" : "0x01",
                    "0x02" : "0x01",
                    "0xffffffffffffffffffffffffffffffffffffffffffffffffffffffffffffffff" : "0x01"
                }
            },
            "0xa94f5374fce5edbc8e2a8697c15331677e6ebf0b" : {
                "balance" : "0x3635c9adc5dea00000",
                "code" : "0x",
                "nonce" : "0x00",
                "storage" : {
                }
            }
        },
        "transaction" : {
            "data" : [
                "0x"
            ],
            "gasLimit" : [
                "0x0f4240"
            ],
            "gasPrice" : "0x0a",
            "nonce" : "0x00",
            "secretKey" : "0x45a915e4d060149eb4365960e6a7a45f334393093061116b197e3240065ff2d8",
            "sender" : "0xa94f5374fce5edbc8e2a8697c15331677e6ebf0b",
            "to" : "0x0000000000000000000000000000000000001000",
            "value" : [
                "0x00"
            ]
        }
    }
}