{
    "src/GeneralStateTestsFiller/Pyspecs/cancun/eip4844_blobs/test_blob_txs.py::test_blob_tx_attribute_calldata_opcodes[fork_Cancun-state_test-tx_gas_500000-empty-opcode_CALLDATACOPY]" : {
        "_info" : {
            "comment" : "`execution-spec-tests` generated test",
            "description" : "Test function documentation:\n\n    Test calldata related opcodes to verify their behavior is not affected by blobs:\n\n    - CALLDATALOAD\n    - CALLDATASIZE\n    - CALLDATACOPY",
            "filling-rpc-server" : "evm version 1.14.12-unstable-65e5ca7d-20241004",
            "filling-tool-version" : "retesteth-0.3.2-legacy+commit.be61b546.Linux.g++",
            "filling-transition-tool" : "evm version 1.14.12-unstable-65e5ca7d-20241004",
            "generatedTestHash" : "19e583df9fcf5c8a870b061e1acf6c872813c70c8031822f9b52b91ae9ec5306",
            "hash" : "0xf14ac6a2513c8668c99663abc011155336fec9119ba6a77012eb300df6bd608b",
            "lllcversion" : "Version: 0.5.14-develop.2024.11.5+commit.b2b86751.mod.Linux.g++",
            "solidity" : "Version: 0.8.24+commit.e11b9ed9.Linux.g++",
            "source" : "src/GeneralStateTestsFiller/Pyspecs/cancun/eip4844_blobs/test_blob_txs.py",
            "sourceHash" : "b4fd7ee5ea7b85dd3c709298b39c76968743e96f74aeb05df14ed2876ae53d9f",
            "url" : "https://github.com/ethereum/execution-spec-tests/blob/f89d09ba99a3dc680dd9410f0b8a7f8d8fc36714/tests/tmp/tmptest_c493badb_1b5c_468b_a731_d86750ed6063/test_blob_txs.py#L1347"
        },
        "env" : {
            "currentBaseFee" : "0x07",
            "currentCoinbase" : "0x2adc25665018aa1fe0e6bc666dac8fc2697ff9ba",
            "currentDifficulty" : "0x00",
            "currentExcessBlobGas" : "0x0e0000",
            "currentGasLimit" : "0x016345785d8a0000",
            "currentNumber" : "0x01",
            "currentRandom" : "0x0000000000000000000000000000000000000000000000000000000000000000",
            "currentTimestamp" : "0x03e8"
        },
        "post" : {
            "Cancun" : [
                {
                    "hash" : "0x2ce59ee657e70175349652b8cb2c01f137cf0cef0b549b7fadb890bebd8c7311",
                    "indexes" : {
                        "data" : 0,
                        "gas" : 0,
                        "value" : 0
                    },
                    "logs" : "0x1dcc4de8dec75d7aab85b567b6ccd41ad312451b948a7413f0a142fd40d49347",
                    "txbytes" : "0x03f886018080078307a1209400000000000000000000000000000000000010000180c001e1a0010000000000000000000000000000000000000000000000000000000000000001a05d260164f6c88b0679ed6f202155cac9cb5172df71ea31f31e0167b726b6f117a04f08a2e56842fe684e36ef8a173d2f80dc98d98699ad1531a8ab09936b01d678"
                }
            ]
        },
        "pre" : {
            "0x0000000000000000000000000000000000001000" : {
                "balance" : "0x00",
                "code" : "0x366000600037600051600055",
                "nonce" : "0x01",
                "storage" : {
                }
            },
            "0xa94f5374fce5edbc8e2a8697c15331677e6ebf0b" : {
                "balance" : "0x3767e1",
                "code" : "0x",
                "nonce" : "0x00",
                "storage" : {
                }
            }
        },
        "transaction" : {
            "accessLists" : [
                [
                ]
            ],
            "blobVersionedHashes" : [
                "0x0100000000000000000000000000000000000000000000000000000000000000"
            ],
            "data" : [
                "0x"
            ],
            "gasLimit" : [
                "0x07a120"
            ],
            "maxFeePerBlobGas" : "0x01",
            "maxFeePerGas" : "0x07",
            "maxPriorityFeePerGas" : "0x00",
            "nonce" : "0x00",
            "secretKey" : "0x45a915e4d060149eb4365960e6a7a45f334393093061116b197e3240065ff2d8",
            "sender" : "0xa94f5374fce5edbc8e2a8697c15331677e6ebf0b",
            "to" : "0x0000000000000000000000000000000000001000",
            "value" : [
                "0x01"
            ]
        }
    },
    "src/GeneralStateTestsFiller/Pyspecs/cancun/eip4844_blobs/test_blob_txs.py::test_blob_tx_attribute_calldata_opcodes[fork_Cancun-state_test-tx_gas_500000-empty-opcode_CALLDATALOAD]" : {
        "_info" : {
            "comment" : "`execution-spec-tests` generated test",
            "description" : "Test function documentation:\n\n    Test calldata related opcodes to verify their behavior is not affected by blobs:\n\n    - CALLDATALOAD\n    - CALLDATASIZE\n    - CALLDATACOPY",
            "filling-rpc-server" : "evm version 1.14.12-unstable-65e5ca7d-20241004",
            "filling-tool-version" : "retesteth-0.3.2-legacy+commit.be61b546.Linux.g++",
            "filling-transition-tool" : "evm version 1.14.12-unstable-65e5ca7d-20241004",
            "generatedTestHash" : "b9560048a84e1315f3421f1a2f657dd25ac5856f2f7769474890c50e20244616",
            "hash" : "0x8132ecdd5f039a36e69733549d6d8d4e608b10c274af461f09a20044bced93d7",
            "lllcversion" : "Version: 0.5.14-develop.2024.11.5+commit.b2b86751.mod.Linux.g++",
            "solidity" : "Version: 0.8.24+commit.e11b9ed9.Linux.g++",
            "source" : "src/GeneralStateTestsFiller/Pyspecs/cancun/eip4844_blobs/test_blob_txs.py",
            "sourceHash" : "b4fd7ee5ea7b85dd3c709298b39c76968743e96f74aeb05df14ed2876ae53d9f",
            "url" : "https://github.com/ethereum/execution-spec-tests/blob/f89d09ba99a3dc680dd9410f0b8a7f8d8fc36714/tests/tmp/tmptest_c493badb_1b5c_468b_a731_d86750ed6063/test_blob_txs.py#L1347"
        },
        "env" : {
            "currentBaseFee" : "0x07",
            "currentCoinbase" : "0x2adc25665018aa1fe0e6bc666dac8fc2697ff9ba",
            "currentDifficulty" : "0x00",
            "currentExcessBlobGas" : "0x0e0000",
            "currentGasLimit" : "0x016345785d8a0000",
            "currentNumber" : "0x01",
            "currentRandom" : "0x0000000000000000000000000000000000000000000000000000000000000000",
            "currentTimestamp" : "0x03e8"
        },
        "post" : {
            "Cancun" : [
                {
                    "hash" : "0x5e3e35e539074f04a3f2a8b22f7536e319103b38b12e5b46263d73a2f40cd1a0",
                    "indexes" : {
                        "data" : 0,
                        "gas" : 0,
                        "value" : 0
                    },
                    "logs" : "0x1dcc4de8dec75d7aab85b567b6ccd41ad312451b948a7413f0a142fd40d49347",
                    "txbytes" : "0x03f886018080078307a1209400000000000000000000000000000000000010000180c001e1a0010000000000000000000000000000000000000000000000000000000000000001a05d260164f6c88b0679ed6f202155cac9cb5172df71ea31f31e0167b726b6f117a04f08a2e56842fe684e36ef8a173d2f80dc98d98699ad1531a8ab09936b01d678"
                }
            ]
        },
        "pre" : {
            "0x0000000000000000000000000000000000001000" : {
                "balance" : "0x00",
                "code" : "0x600035600055",
                "nonce" : "0x01",
                "storage" : {
                }
            },
            "0xa94f5374fce5edbc8e2a8697c15331677e6ebf0b" : {
                "balance" : "0x3767e1",
                "code" : "0x",
                "nonce" : "0x00",
                "storage" : {
                }
            }
        },
        "transaction" : {
            "accessLists" : [
                [
                ]
            ],
            "blobVersionedHashes" : [
                "0x0100000000000000000000000000000000000000000000000000000000000000"
            ],
            "data" : [
                "0x"
            ],
            "gasLimit" : [
                "0x07a120"
            ],
            "maxFeePerBlobGas" : "0x01",
            "maxFeePerGas" : "0x07",
            "maxPriorityFeePerGas" : "0x00",
            "nonce" : "0x00",
            "secretKey" : "0x45a915e4d060149eb4365960e6a7a45f334393093061116b197e3240065ff2d8",
            "sender" : "0xa94f5374fce5edbc8e2a8697c15331677e6ebf0b",
            "to" : "0x0000000000000000000000000000000000001000",
            "value" : [
                "0x01"
            ]
        }
    },
    "src/GeneralStateTestsFiller/Pyspecs/cancun/eip4844_blobs/test_blob_txs.py::test_blob_tx_attribute_calldata_opcodes[fork_Cancun-state_test-tx_gas_500000-empty-opcode_CALLDATASIZE]" : {
        "_info" : {
            "comment" : "`execution-spec-tests` generated test",
            "description" : "Test function documentation:\n\n    Test calldata related opcodes to verify their behavior is not affected by blobs:\n\n    - CALLDATALOAD\n    - CALLDATASIZE\n    - CALLDATACOPY",
            "filling-rpc-server" : "evm version 1.14.12-unstable-65e5ca7d-20241004",
            "filling-tool-version" : "retesteth-0.3.2-legacy+commit.be61b546.Linux.g++",
            "filling-transition-tool" : "evm version 1.14.12-unstable-65e5ca7d-20241004",
            "generatedTestHash" : "f7ba96dd255cf4f94f0aa0c96295f99c2f5b96451965f376a9ec843fb0a39f50",
            "hash" : "0x034f47ea5959e91a2d84a78c8895eee7fd400d67dc61e1371457bf2b25aa6eb2",
            "lllcversion" : "Version: 0.5.14-develop.2024.11.5+commit.b2b86751.mod.Linux.g++",
            "solidity" : "Version: 0.8.24+commit.e11b9ed9.Linux.g++",
            "source" : "src/GeneralStateTestsFiller/Pyspecs/cancun/eip4844_blobs/test_blob_txs.py",
            "sourceHash" : "b4fd7ee5ea7b85dd3c709298b39c76968743e96f74aeb05df14ed2876ae53d9f",
            "url" : "https://github.com/ethereum/execution-spec-tests/blob/f89d09ba99a3dc680dd9410f0b8a7f8d8fc36714/tests/tmp/tmptest_c493badb_1b5c_468b_a731_d86750ed6063/test_blob_txs.py#L1347"
        },
        "env" : {
            "currentBaseFee" : "0x07",
            "currentCoinbase" : "0x2adc25665018aa1fe0e6bc666dac8fc2697ff9ba",
            "currentDifficulty" : "0x00",
            "currentExcessBlobGas" : "0x0e0000",
            "currentGasLimit" : "0x016345785d8a0000",
            "currentNumber" : "0x01",
            "currentRandom" : "0x0000000000000000000000000000000000000000000000000000000000000000",
            "currentTimestamp" : "0x03e8"
        },
        "post" : {
            "Cancun" : [
                {
                    "hash" : "0x6887f2180da132659b43eb6985b37b5764976411711036705ea3e5d21ee5b47a",
                    "indexes" : {
                        "data" : 0,
                        "gas" : 0,
                        "value" : 0
                    },
                    "logs" : "0x1dcc4de8dec75d7aab85b567b6ccd41ad312451b948a7413f0a142fd40d49347",
                    "txbytes" : "0x03f886018080078307a1209400000000000000000000000000000000000010000180c001e1a0010000000000000000000000000000000000000000000000000000000000000001a05d260164f6c88b0679ed6f202155cac9cb5172df71ea31f31e0167b726b6f117a04f08a2e56842fe684e36ef8a173d2f80dc98d98699ad1531a8ab09936b01d678"
                }
            ]
        },
        "pre" : {
            "0x0000000000000000000000000000000000001000" : {
                "balance" : "0x00",
                "code" : "0x36600055",
                "nonce" : "0x01",
                "storage" : {
                }
            },
            "0xa94f5374fce5edbc8e2a8697c15331677e6ebf0b" : {
                "balance" : "0x3767e1",
                "code" : "0x",
                "nonce" : "0x00",
                "storage" : {
                }
            }
        },
        "transaction" : {
            "accessLists" : [
                [
                ]
            ],
            "blobVersionedHashes" : [
                "0x0100000000000000000000000000000000000000000000000000000000000000"
            ],
            "data" : [
                "0x"
            ],
            "gasLimit" : [
                "0x07a120"
            ],
            "maxFeePerBlobGas" : "0x01",
            "maxFeePerGas" : "0x07",
            "maxPriorityFeePerGas" : "0x00",
            "nonce" : "0x00",
            "secretKey" : "0x45a915e4d060149eb4365960e6a7a45f334393093061116b197e3240065ff2d8",
            "sender" : "0xa94f5374fce5edbc8e2a8697c15331677e6ebf0b",
            "to" : "0x0000000000000000000000000000000000001000",
            "value" : [
                "0x01"
            ]
        }
    },
    "src/GeneralStateTestsFiller/Pyspecs/cancun/eip4844_blobs/test_blob_txs.py::test_blob_tx_attribute_calldata_opcodes[fork_Cancun-state_test-tx_gas_500000-single_byte-opcode_CALLDATACOPY]" : {
        "_info" : {
            "comment" : "`execution-spec-tests` generated test",
            "description" : "Test function documentation:\n\n    Test calldata related opcodes to verify their behavior is not affected by blobs:\n\n    - CALLDATALOAD\n    - CALLDATASIZE\n    - CALLDATACOPY",
            "filling-rpc-server" : "evm version 1.14.12-unstable-65e5ca7d-20241004",
            "filling-tool-version" : "retesteth-0.3.2-legacy+commit.be61b546.Linux.g++",
            "filling-transition-tool" : "evm version 1.14.12-unstable-65e5ca7d-20241004",
            "generatedTestHash" : "17dbddee24e654b98caa74ec74742ef5ca08fc373e0ff20e931d49f493ab8f60",
            "hash" : "0x06fde5cb5cf067da44226af2b7f4abefcba0f035a808e69b09c2a7d6b1df5529",
            "lllcversion" : "Version: 0.5.14-develop.2024.11.5+commit.b2b86751.mod.Linux.g++",
            "solidity" : "Version: 0.8.24+commit.e11b9ed9.Linux.g++",
            "source" : "src/GeneralStateTestsFiller/Pyspecs/cancun/eip4844_blobs/test_blob_txs.py",
            "sourceHash" : "b4fd7ee5ea7b85dd3c709298b39c76968743e96f74aeb05df14ed2876ae53d9f",
            "url" : "https://github.com/ethereum/execution-spec-tests/blob/f89d09ba99a3dc680dd9410f0b8a7f8d8fc36714/tests/tmp/tmptest_c493badb_1b5c_468b_a731_d86750ed6063/test_blob_txs.py#L1347"
        },
        "env" : {
            "currentBaseFee" : "0x07",
            "currentCoinbase" : "0x2adc25665018aa1fe0e6bc666dac8fc2697ff9ba",
            "currentDifficulty" : "0x00",
            "currentExcessBlobGas" : "0x0e0000",
            "currentGasLimit" : "0x016345785d8a0000",
            "currentNumber" : "0x01",
            "currentRandom" : "0x0000000000000000000000000000000000000000000000000000000000000000",
            "currentTimestamp" : "0x03e8"
        },
        "post" : {
            "Cancun" : [
                {
                    "hash" : "0xd02da9c2dc31ce9b1bb753d72c6f8157093a18ba51c9b95b505104611f6bd645",
                    "indexes" : {
                        "data" : 0,
                        "gas" : 0,
                        "value" : 0
                    },
                    "logs" : "0x1dcc4de8dec75d7aab85b567b6ccd41ad312451b948a7413f0a142fd40d49347",
                    "txbytes" : "0x03f886018080078307a1209400000000000000000000000000000000000010000101c001e1a0010000000000000000000000000000000000000000000000000000000000000080a0b5efe950af07d8edd2e1730aa6e1a00ee3824b9d8e4c1e1a71e3671486d5c484a04d6dd4f87023b7f65251fe42d233a17f5857e7bc9e6b08dfdbda1d62f9e78447"
                }
            ]
        },
        "pre" : {
            "0x0000000000000000000000000000000000001000" : {
                "balance" : "0x00",
                "code" : "0x366000600037600051600055",
                "nonce" : "0x01",
                "storage" : {
                }
            },
            "0xa94f5374fce5edbc8e2a8697c15331677e6ebf0b" : {
                "balance" : "0x3767e1",
                "code" : "0x",
                "nonce" : "0x00",
                "storage" : {
                }
            }
        },
        "transaction" : {
            "accessLists" : [
                [
                ]
            ],
            "blobVersionedHashes" : [
                "0x0100000000000000000000000000000000000000000000000000000000000000"
            ],
            "data" : [
                "0x01"
            ],
            "gasLimit" : [
                "0x07a120"
            ],
            "maxFeePerBlobGas" : "0x01",
            "maxFeePerGas" : "0x07",
            "maxPriorityFeePerGas" : "0x00",
            "nonce" : "0x00",
            "secretKey" : "0x45a915e4d060149eb4365960e6a7a45f334393093061116b197e3240065ff2d8",
            "sender" : "0xa94f5374fce5edbc8e2a8697c15331677e6ebf0b",
            "to" : "0x0000000000000000000000000000000000001000",
            "value" : [
                "0x01"
            ]
        }
    },
    "src/GeneralStateTestsFiller/Pyspecs/cancun/eip4844_blobs/test_blob_txs.py::test_blob_tx_attribute_calldata_opcodes[fork_Cancun-state_test-tx_gas_500000-single_byte-opcode_CALLDATALOAD]" : {
        "_info" : {
            "comment" : "`execution-spec-tests` generated test",
            "description" : "Test function documentation:\n\n    Test calldata related opcodes to verify their behavior is not affected by blobs:\n\n    - CALLDATALOAD\n    - CALLDATASIZE\n    - CALLDATACOPY",
            "filling-rpc-server" : "evm version 1.14.12-unstable-65e5ca7d-20241004",
            "filling-tool-version" : "retesteth-0.3.2-legacy+commit.be61b546.Linux.g++",
            "filling-transition-tool" : "evm version 1.14.12-unstable-65e5ca7d-20241004",
            "generatedTestHash" : "accdf7b6456975acdde030f4efe9c1d8441f30b5f299a0dd285615b9f1e5ff10",
            "hash" : "0x148ae51e0ca127868676b1d9d6afbb6118f8a0e1c189972ea32273847a134765",
            "lllcversion" : "Version: 0.5.14-develop.2024.11.5+commit.b2b86751.mod.Linux.g++",
            "solidity" : "Version: 0.8.24+commit.e11b9ed9.Linux.g++",
            "source" : "src/GeneralStateTestsFiller/Pyspecs/cancun/eip4844_blobs/test_blob_txs.py",
            "sourceHash" : "b4fd7ee5ea7b85dd3c709298b39c76968743e96f74aeb05df14ed2876ae53d9f",
            "url" : "https://github.com/ethereum/execution-spec-tests/blob/f89d09ba99a3dc680dd9410f0b8a7f8d8fc36714/tests/tmp/tmptest_c493badb_1b5c_468b_a731_d86750ed6063/test_blob_txs.py#L1347"
        },
        "env" : {
            "currentBaseFee" : "0x07",
            "currentCoinbase" : "0x2adc25665018aa1fe0e6bc666dac8fc2697ff9ba",
            "currentDifficulty" : "0x00",
            "currentExcessBlobGas" : "0x0e0000",
            "currentGasLimit" : "0x016345785d8a0000",
            "currentNumber" : "0x01",
            "currentRandom" : "0x0000000000000000000000000000000000000000000000000000000000000000",
            "currentTimestamp" : "0x03e8"
        },
        "post" : {
            "Cancun" : [
                {
                    "hash" : "0x7ea0bd747250e061f305823fdd7ac111bbbcdb0cb68eaec8b99b460a35b730ba",
                    "indexes" : {
                        "data" : 0,
                        "gas" : 0,
                        "value" : 0
                    },
                    "logs" : "0x1dcc4de8dec75d7aab85b567b6ccd41ad312451b948a7413f0a142fd40d49347",
                    "txbytes" : "0x03f886018080078307a1209400000000000000000000000000000000000010000101c001e1a0010000000000000000000000000000000000000000000000000000000000000080a0b5efe950af07d8edd2e1730aa6e1a00ee3824b9d8e4c1e1a71e3671486d5c484a04d6dd4f87023b7f65251fe42d233a17f5857e7bc9e6b08dfdbda1d62f9e78447"
                }
            ]
        },
        "pre" : {
            "0x0000000000000000000000000000000000001000" : {
                "balance" : "0x00",
                "code" : "0x600035600055",
                "nonce" : "0x01",
                "storage" : {
                }
            },
            "0xa94f5374fce5edbc8e2a8697c15331677e6ebf0b" : {
                "balance" : "0x3767e1",
                "code" : "0x",
                "nonce" : "0x00",
                "storage" : {
                }
            }
        },
        "transaction" : {
            "accessLists" : [
                [
                ]
            ],
            "blobVersionedHashes" : [
                "0x0100000000000000000000000000000000000000000000000000000000000000"
            ],
            "data" : [
                "0x01"
            ],
            "gasLimit" : [
                "0x07a120"
            ],
            "maxFeePerBlobGas" : "0x01",
            "maxFeePerGas" : "0x07",
            "maxPriorityFeePerGas" : "0x00",
            "nonce" : "0x00",
            "secretKey" : "0x45a915e4d060149eb4365960e6a7a45f334393093061116b197e3240065ff2d8",
            "sender" : "0xa94f5374fce5edbc8e2a8697c15331677e6ebf0b",
            "to" : "0x0000000000000000000000000000000000001000",
            "value" : [
                "0x01"
            ]
        }
    },
    "src/GeneralStateTestsFiller/Pyspecs/cancun/eip4844_blobs/test_blob_txs.py::test_blob_tx_attribute_calldata_opcodes[fork_Cancun-state_test-tx_gas_500000-single_byte-opcode_CALLDATASIZE]" : {
        "_info" : {
            "comment" : "`execution-spec-tests` generated test",
            "description" : "Test function documentation:\n\n    Test calldata related opcodes to verify their behavior is not affected by blobs:\n\n    - CALLDATALOAD\n    - CALLDATASIZE\n    - CALLDATACOPY",
            "filling-rpc-server" : "evm version 1.14.12-unstable-65e5ca7d-20241004",
            "filling-tool-version" : "retesteth-0.3.2-legacy+commit.be61b546.Linux.g++",
            "filling-transition-tool" : "evm version 1.14.12-unstable-65e5ca7d-20241004",
            "generatedTestHash" : "07aeaf11b116f19c97615a39746dfc0abadfb57d98201fc72fbd96fed709cc46",
            "hash" : "0xf6efda409cbfd2bf13638633e3d404907a4625636255581f8966357f663a2587",
            "lllcversion" : "Version: 0.5.14-develop.2024.11.5+commit.b2b86751.mod.Linux.g++",
            "solidity" : "Version: 0.8.24+commit.e11b9ed9.Linux.g++",
            "source" : "src/GeneralStateTestsFiller/Pyspecs/cancun/eip4844_blobs/test_blob_txs.py",
            "sourceHash" : "b4fd7ee5ea7b85dd3c709298b39c76968743e96f74aeb05df14ed2876ae53d9f",
            "url" : "https://github.com/ethereum/execution-spec-tests/blob/f89d09ba99a3dc680dd9410f0b8a7f8d8fc36714/tests/tmp/tmptest_c493badb_1b5c_468b_a731_d86750ed6063/test_blob_txs.py#L1347"
        },
        "env" : {
            "currentBaseFee" : "0x07",
            "currentCoinbase" : "0x2adc25665018aa1fe0e6bc666dac8fc2697ff9ba",
            "currentDifficulty" : "0x00",
            "currentExcessBlobGas" : "0x0e0000",
            "currentGasLimit" : "0x016345785d8a0000",
            "currentNumber" : "0x01",
            "currentRandom" : "0x0000000000000000000000000000000000000000000000000000000000000000",
            "currentTimestamp" : "0x03e8"
        },
        "post" : {
            "Cancun" : [
                {
                    "hash" : "0x0c8597f26db77706193ec1fe7f4594a0b705f424a7bf514f5bd048727c506e1c",
                    "indexes" : {
                        "data" : 0,
                        "gas" : 0,
                        "value" : 0
                    },
                    "logs" : "0x1dcc4de8dec75d7aab85b567b6ccd41ad312451b948a7413f0a142fd40d49347",
                    "txbytes" : "0x03f886018080078307a1209400000000000000000000000000000000000010000101c001e1a0010000000000000000000000000000000000000000000000000000000000000080a0b5efe950af07d8edd2e1730aa6e1a00ee3824b9d8e4c1e1a71e3671486d5c484a04d6dd4f87023b7f65251fe42d233a17f5857e7bc9e6b08dfdbda1d62f9e78447"
                }
            ]
        },
        "pre" : {
            "0x0000000000000000000000000000000000001000" : {
                "balance" : "0x00",
                "code" : "0x36600055",
                "nonce" : "0x01",
                "storage" : {
                }
            },
            "0xa94f5374fce5edbc8e2a8697c15331677e6ebf0b" : {
                "balance" : "0x3767e1",
                "code" : "0x",
                "nonce" : "0x00",
                "storage" : {
                }
            }
        },
        "transaction" : {
            "accessLists" : [
                [
                ]
            ],
            "blobVersionedHashes" : [
                "0x0100000000000000000000000000000000000000000000000000000000000000"
            ],
            "data" : [
                "0x01"
            ],
            "gasLimit" : [
                "0x07a120"
            ],
            "maxFeePerBlobGas" : "0x01",
            "maxFeePerGas" : "0x07",
            "maxPriorityFeePerGas" : "0x00",
            "nonce" : "0x00",
            "secretKey" : "0x45a915e4d060149eb4365960e6a7a45f334393093061116b197e3240065ff2d8",
            "sender" : "0xa94f5374fce5edbc8e2a8697c15331677e6ebf0b",
            "to" : "0x0000000000000000000000000000000000001000",
            "value" : [
                "0x01"
            ]
        }
    },
    "src/GeneralStateTestsFiller/Pyspecs/cancun/eip4844_blobs/test_blob_txs.py::test_blob_tx_attribute_calldata_opcodes[fork_Cancun-state_test-tx_gas_500000-word-opcode_CALLDATACOPY]" : {
        "_info" : {
            "comment" : "`execution-spec-tests` generated test",
            "description" : "Test function documentation:\n\n    Test calldata related opcodes to verify their behavior is not affected by blobs:\n\n    - CALLDATALOAD\n    - CALLDATASIZE\n    - CALLDATACOPY",
            "filling-rpc-server" : "evm version 1.14.12-unstable-65e5ca7d-20241004",
            "filling-tool-version" : "retesteth-0.3.2-legacy+commit.be61b546.Linux.g++",
            "filling-transition-tool" : "evm version 1.14.12-unstable-65e5ca7d-20241004",
            "generatedTestHash" : "1f2b078fab60087d45b2a7a9ad368dd84bb46492b51d6b331348e38729417345",
            "hash" : "0xc14df8b0258e746e407b50a86934864f1e3c12d9688ea242c903077c1d80ce64",
            "lllcversion" : "Version: 0.5.14-develop.2024.11.5+commit.b2b86751.mod.Linux.g++",
            "solidity" : "Version: 0.8.24+commit.e11b9ed9.Linux.g++",
            "source" : "src/GeneralStateTestsFiller/Pyspecs/cancun/eip4844_blobs/test_blob_txs.py",
            "sourceHash" : "b4fd7ee5ea7b85dd3c709298b39c76968743e96f74aeb05df14ed2876ae53d9f",
            "url" : "https://github.com/ethereum/execution-spec-tests/blob/f89d09ba99a3dc680dd9410f0b8a7f8d8fc36714/tests/tmp/tmptest_c493badb_1b5c_468b_a731_d86750ed6063/test_blob_txs.py#L1347"
        },
        "env" : {
            "currentBaseFee" : "0x07",
            "currentCoinbase" : "0x2adc25665018aa1fe0e6bc666dac8fc2697ff9ba",
            "currentDifficulty" : "0x00",
            "currentExcessBlobGas" : "0x0e0000",
            "currentGasLimit" : "0x016345785d8a0000",
            "currentNumber" : "0x01",
            "currentRandom" : "0x0000000000000000000000000000000000000000000000000000000000000000",
            "currentTimestamp" : "0x03e8"
        },
        "post" : {
            "Cancun" : [
                {
                    "hash" : "0xfff0e281215b2bfd09b3d5872686576322da68b1ae414bc605c417206a552474",
                    "indexes" : {
                        "data" : 0,
                        "gas" : 0,
                        "value" : 0
                    },
                    "logs" : "0x1dcc4de8dec75d7aab85b567b6ccd41ad312451b948a7413f0a142fd40d49347",
                    "txbytes" : "0x03f8a6018080078307a12094000000000000000000000000000000000000100001a00001000100010001000100010001000100010001000100010001000100010001c001e1a0010000000000000000000000000000000000000000000000000000000000000001a048a5c03a1116867028d61bf8bce61afaec2dd9b4fa59707d745d265dd53e5532a048fda052f173226929a2ba6c0fbadc3bc9749fc91abb1efb2d101010e286fa78"
                }
            ]
        },
        "pre" : {
            "0x0000000000000000000000000000000000001000" : {
                "balance" : "0x00",
                "code" : "0x366000600037600051600055",
                "nonce" : "0x01",
                "storage" : {
                }
            },
            "0xa94f5374fce5edbc8e2a8697c15331677e6ebf0b" : {
                "balance" : "0x3767e1",
                "code" : "0x",
                "nonce" : "0x00",
                "storage" : {
                }
            }
        },
        "transaction" : {
            "accessLists" : [
                [
                ]
            ],
            "blobVersionedHashes" : [
                "0x0100000000000000000000000000000000000000000000000000000000000000"
            ],
            "data" : [
                "0x0001000100010001000100010001000100010001000100010001000100010001"
            ],
            "gasLimit" : [
                "0x07a120"
            ],
            "maxFeePerBlobGas" : "0x01",
            "maxFeePerGas" : "0x07",
            "maxPriorityFeePerGas" : "0x00",
            "nonce" : "0x00",
            "secretKey" : "0x45a915e4d060149eb4365960e6a7a45f334393093061116b197e3240065ff2d8",
            "sender" : "0xa94f5374fce5edbc8e2a8697c15331677e6ebf0b",
            "to" : "0x0000000000000000000000000000000000001000",
            "value" : [
                "0x01"
            ]
        }
    },
    "src/GeneralStateTestsFiller/Pyspecs/cancun/eip4844_blobs/test_blob_txs.py::test_blob_tx_attribute_calldata_opcodes[fork_Cancun-state_test-tx_gas_500000-word-opcode_CALLDATALOAD]" : {
        "_info" : {
            "comment" : "`execution-spec-tests` generated test",
            "description" : "Test function documentation:\n\n    Test calldata related opcodes to verify their behavior is not affected by blobs:\n\n    - CALLDATALOAD\n    - CALLDATASIZE\n    - CALLDATACOPY",
            "filling-rpc-server" : "evm version 1.14.12-unstable-65e5ca7d-20241004",
            "filling-tool-version" : "retesteth-0.3.2-legacy+commit.be61b546.Linux.g++",
            "filling-transition-tool" : "evm version 1.14.12-unstable-65e5ca7d-20241004",
            "generatedTestHash" : "59ae07e808088d547e264833ee6cc9c987ce13aa3c36d169de5770747e5e5eed",
            "hash" : "0x406c49653d5b16fd84e33160706afd99b8e61ecde5e379ea3851b16f485fbc5f",
            "lllcversion" : "Version: 0.5.14-develop.2024.11.5+commit.b2b86751.mod.Linux.g++",
            "solidity" : "Version: 0.8.24+commit.e11b9ed9.Linux.g++",
            "source" : "src/GeneralStateTestsFiller/Pyspecs/cancun/eip4844_blobs/test_blob_txs.py",
            "sourceHash" : "b4fd7ee5ea7b85dd3c709298b39c76968743e96f74aeb05df14ed2876ae53d9f",
            "url" : "https://github.com/ethereum/execution-spec-tests/blob/f89d09ba99a3dc680dd9410f0b8a7f8d8fc36714/tests/tmp/tmptest_c493badb_1b5c_468b_a731_d86750ed6063/test_blob_txs.py#L1347"
        },
        "env" : {
            "currentBaseFee" : "0x07",
            "currentCoinbase" : "0x2adc25665018aa1fe0e6bc666dac8fc2697ff9ba",
            "currentDifficulty" : "0x00",
            "currentExcessBlobGas" : "0x0e0000",
            "currentGasLimit" : "0x016345785d8a0000",
            "currentNumber" : "0x01",
            "currentRandom" : "0x0000000000000000000000000000000000000000000000000000000000000000",
            "currentTimestamp" : "0x03e8"
        },
        "post" : {
            "Cancun" : [
                {
                    "hash" : "0x1ba838b89fe10638c4e338253df842519c5203b079223231c7e2d0cc9151da83",
                    "indexes" : {
                        "data" : 0,
                        "gas" : 0,
                        "value" : 0
                    },
                    "logs" : "0x1dcc4de8dec75d7aab85b567b6ccd41ad312451b948a7413f0a142fd40d49347",
                    "txbytes" : "0x03f8a6018080078307a12094000000000000000000000000000000000000100001a00001000100010001000100010001000100010001000100010001000100010001c001e1a0010000000000000000000000000000000000000000000000000000000000000001a048a5c03a1116867028d61bf8bce61afaec2dd9b4fa59707d745d265dd53e5532a048fda052f173226929a2ba6c0fbadc3bc9749fc91abb1efb2d101010e286fa78"
                }
            ]
        },
        "pre" : {
            "0x0000000000000000000000000000000000001000" : {
                "balance" : "0x00",
                "code" : "0x600035600055",
                "nonce" : "0x01",
                "storage" : {
                }
            },
            "0xa94f5374fce5edbc8e2a8697c15331677e6ebf0b" : {
                "balance" : "0x3767e1",
                "code" : "0x",
                "nonce" : "0x00",
                "storage" : {
                }
            }
        },
        "transaction" : {
            "accessLists" : [
                [
                ]
            ],
            "blobVersionedHashes" : [
                "0x0100000000000000000000000000000000000000000000000000000000000000"
            ],
            "data" : [
                "0x0001000100010001000100010001000100010001000100010001000100010001"
            ],
            "gasLimit" : [
                "0x07a120"
            ],
            "maxFeePerBlobGas" : "0x01",
            "maxFeePerGas" : "0x07",
            "maxPriorityFeePerGas" : "0x00",
            "nonce" : "0x00",
            "secretKey" : "0x45a915e4d060149eb4365960e6a7a45f334393093061116b197e3240065ff2d8",
            "sender" : "0xa94f5374fce5edbc8e2a8697c15331677e6ebf0b",
            "to" : "0x0000000000000000000000000000000000001000",
            "value" : [
                "0x01"
            ]
        }
    },
    "src/GeneralStateTestsFiller/Pyspecs/cancun/eip4844_blobs/test_blob_txs.py::test_blob_tx_attribute_calldata_opcodes[fork_Cancun-state_test-tx_gas_500000-word-opcode_CALLDATASIZE]" : {
        "_info" : {
            "comment" : "`execution-spec-tests` generated test",
            "description" : "Test function documentation:\n\n    Test calldata related opcodes to verify their behavior is not affected by blobs:\n\n    - CALLDATALOAD\n    - CALLDATASIZE\n    - CALLDATACOPY",
            "filling-rpc-server" : "evm version 1.14.12-unstable-65e5ca7d-20241004",
            "filling-tool-version" : "retesteth-0.3.2-legacy+commit.be61b546.Linux.g++",
            "filling-transition-tool" : "evm version 1.14.12-unstable-65e5ca7d-20241004",
            "generatedTestHash" : "8699a0abc447be028c0dfbca23d769e4b4331ce71ec16b8005c6fed0dfc53cf6",
            "hash" : "0xfec2cde55d0da0d1a346ea5a0fbaa825fe1489a84d9c7c5c34ecc09ee3d27b73",
            "lllcversion" : "Version: 0.5.14-develop.2024.11.5+commit.b2b86751.mod.Linux.g++",
            "solidity" : "Version: 0.8.24+commit.e11b9ed9.Linux.g++",
            "source" : "src/GeneralStateTestsFiller/Pyspecs/cancun/eip4844_blobs/test_blob_txs.py",
            "sourceHash" : "b4fd7ee5ea7b85dd3c709298b39c76968743e96f74aeb05df14ed2876ae53d9f",
            "url" : "https://github.com/ethereum/execution-spec-tests/blob/f89d09ba99a3dc680dd9410f0b8a7f8d8fc36714/tests/tmp/tmptest_c493badb_1b5c_468b_a731_d86750ed6063/test_blob_txs.py#L1347"
        },
        "env" : {
            "currentBaseFee" : "0x07",
            "currentCoinbase" : "0x2adc25665018aa1fe0e6bc666dac8fc2697ff9ba",
            "currentDifficulty" : "0x00",
            "currentExcessBlobGas" : "0x0e0000",
            "currentGasLimit" : "0x016345785d8a0000",
            "currentNumber" : "0x01",
            "currentRandom" : "0x0000000000000000000000000000000000000000000000000000000000000000",
            "currentTimestamp" : "0x03e8"
        },
        "post" : {
            "Cancun" : [
                {
                    "hash" : "0x9dd79630818e7e51ffc61b009db0eca040bf7ce3802c02124ce72d3006623c83",
                    "indexes" : {
                        "data" : 0,
                        "gas" : 0,
                        "value" : 0
                    },
                    "logs" : "0x1dcc4de8dec75d7aab85b567b6ccd41ad312451b948a7413f0a142fd40d49347",
                    "txbytes" : "0x03f8a6018080078307a12094000000000000000000000000000000000000100001a00001000100010001000100010001000100010001000100010001000100010001c001e1a0010000000000000000000000000000000000000000000000000000000000000001a048a5c03a1116867028d61bf8bce61afaec2dd9b4fa59707d745d265dd53e5532a048fda052f173226929a2ba6c0fbadc3bc9749fc91abb1efb2d101010e286fa78"
                }
            ]
        },
        "pre" : {
            "0x0000000000000000000000000000000000001000" : {
                "balance" : "0x00",
                "code" : "0x36600055",
                "nonce" : "0x01",
                "storage" : {
                }
            },
            "0xa94f5374fce5edbc8e2a8697c15331677e6ebf0b" : {
                "balance" : "0x3767e1",
                "code" : "0x",
                "nonce" : "0x00",
                "storage" : {
                }
            }
        },
        "transaction" : {
            "accessLists" : [
                [
                ]
            ],
            "blobVersionedHashes" : [
                "0x0100000000000000000000000000000000000000000000000000000000000000"
            ],
            "data" : [
                "0x0001000100010001000100010001000100010001000100010001000100010001"
            ],
            "gasLimit" : [
                "0x07a120"
            ],
            "maxFeePerBlobGas" : "0x01",
            "maxFeePerGas" : "0x07",
            "maxPriorityFeePerGas" : "0x00",
            "nonce" : "0x00",
            "secretKey" : "0x45a915e4d060149eb4365960e6a7a45f334393093061116b197e3240065ff2d8",
            "sender" : "0xa94f5374fce5edbc8e2a8697c15331677e6ebf0b",
            "to" : "0x0000000000000000000000000000000000001000",
            "value" : [
                "0x01"
            ]
        }
    }
}