{
    "src/GeneralStateTestsFiller/Pyspecs/cancun/eip4844_blobs/test_blob_txs.py::test_blob_tx_attribute_gasprice_opcode[fork_Cancun-state_test-tx_gas_500000-opcode_GASPRICE-tx_max_fee_per_gas_100-tx_max_fee_per_blob_gas_1-tx_max_priority_fee_per_gas_0]" : {
        "_info" : {
            "comment" : "`execution-spec-tests` generated test",
            "description" : "Test function documentation:\n\n    Test GASPRICE opcode to sanity check that the blob gas fee does not affect\n    its calculation:\n\n    - No priority fee\n    - Priority fee below data fee\n    - Priority fee above data fee",
            "filling-rpc-server" : "evm version 1.14.12-unstable-65e5ca7d-20241004",
            "filling-tool-version" : "retesteth-0.3.2-legacy+commit.be61b546.Linux.g++",
            "filling-transition-tool" : "evm version 1.14.12-unstable-65e5ca7d-20241004",
            "generatedTestHash" : "71b507e5a30811ab1b49e47308dc56e1bd8d317e5555109354672c1695eae2f4",
            "hash" : "0xba3d2ef306581bf421832fd2264987a735cdd0ac6aa7089fc4bc8966ff32190f",
            "lllcversion" : "Version: 0.5.14-develop.2024.11.5+commit.b2b86751.mod.Linux.g++",
            "solidity" : "Version: 0.8.24+commit.e11b9ed9.Linux.g++",
            "source" : "src/GeneralStateTestsFiller/Pyspecs/cancun/eip4844_blobs/test_blob_txs.py",
            "sourceHash" : "b4fd7ee5ea7b85dd3c709298b39c76968743e96f74aeb05df14ed2876ae53d9f",
            "url" : "https://github.com/ethereum/execution-spec-tests/blob/f89d09ba99a3dc680dd9410f0b8a7f8d8fc36714/tests/tmp/tmptest_c493badb_1b5c_468b_a731_d86750ed6063/test_blob_txs.py#L1417"
        },
        "env" : {
            "currentBaseFee" : "0x07",
            "currentCoinbase" : "0x2adc25665018aa1fe0e6bc666dac8fc2697ff9ba",
            "currentDifficulty" : "0x00",
            "currentExcessBlobGas" : "0x0e0000",
            "currentGasLimit" : "0x016345785d8a0000",
            "currentNumber" : "0x01",
            "currentRandom" : "0x0000000000000000000000000000000000000000000000000000000000000000",
            "currentTimestamp" : "0x03e8"
        },
        "post" : {
            "Cancun" : [
                {
                    "hash" : "0xe945fbb6749fb3d92d4a2f28ca9e408654e723b2519fd0ed196e4a177d5cf1ed",
                    "indexes" : {
                        "data" : 0,
                        "gas" : 0,
                        "value" : 0
                    },
                    "logs" : "0x1dcc4de8dec75d7aab85b567b6ccd41ad312451b948a7413f0a142fd40d49347",
                    "txbytes" : "0x03f886018080648307a1209400000000000000000000000000000000000010000180c001e1a0010000000000000000000000000000000000000000000000000000000000000001a01b115378bb9110dfe43b793d1ab294871cbe61353c5919875baf05ce80a24673a0467045b9f673e18ed5c7034faed60dd26537727fed42e584c8f7c8266a7ad525"
                }
            ]
        },
        "pre" : {
            "0x0000000000000000000000000000000000001000" : {
                "balance" : "0x00",
                "code" : "0x3a600055",
                "nonce" : "0x01",
                "storage" : {
                }
            },
            "0xa94f5374fce5edbc8e2a8697c15331677e6ebf0b" : {
                "balance" : "0x02fcf081",
                "code" : "0x",
                "nonce" : "0x00",
                "storage" : {
                }
            }
        },
        "transaction" : {
            "accessLists" : [
                [
                ]
            ],
            "blobVersionedHashes" : [
                "0x0100000000000000000000000000000000000000000000000000000000000000"
            ],
            "data" : [
                "0x"
            ],
            "gasLimit" : [
                "0x07a120"
            ],
            "maxFeePerBlobGas" : "0x01",
            "maxFeePerGas" : "0x64",
            "maxPriorityFeePerGas" : "0x00",
            "nonce" : "0x00",
            "secretKey" : "0x45a915e4d060149eb4365960e6a7a45f334393093061116b197e3240065ff2d8",
            "sender" : "0xa94f5374fce5edbc8e2a8697c15331677e6ebf0b",
            "to" : "0x0000000000000000000000000000000000001000",
            "value" : [
                "0x01"
            ]
        }
    },
    "src/GeneralStateTestsFiller/Pyspecs/cancun/eip4844_blobs/test_blob_txs.py::test_blob_tx_attribute_gasprice_opcode[fork_Cancun-state_test-tx_gas_500000-opcode_GASPRICE-tx_max_fee_per_gas_100-tx_max_fee_per_blob_gas_1-tx_max_priority_fee_per_gas_2]" : {
        "_info" : {
            "comment" : "`execution-spec-tests` generated test",
            "description" : "Test function documentation:\n\n    Test GASPRICE opcode to sanity check that the blob gas fee does not affect\n    its calculation:\n\n    - No priority fee\n    - Priority fee below data fee\n    - Priority fee above data fee",
            "filling-rpc-server" : "evm version 1.14.12-unstable-65e5ca7d-20241004",
            "filling-tool-version" : "retesteth-0.3.2-legacy+commit.be61b546.Linux.g++",
            "filling-transition-tool" : "evm version 1.14.12-unstable-65e5ca7d-20241004",
            "generatedTestHash" : "76c64c1ef7f157125a073f4c431a03b9353f529b9b99b3e8ff4e25bc7cadb06e",
            "hash" : "0x18ee38113f88e1703a85cfe85249a62ff840968d6d6c00f94f86688c12181dc2",
            "lllcversion" : "Version: 0.5.14-develop.2024.11.5+commit.b2b86751.mod.Linux.g++",
            "solidity" : "Version: 0.8.24+commit.e11b9ed9.Linux.g++",
            "source" : "src/GeneralStateTestsFiller/Pyspecs/cancun/eip4844_blobs/test_blob_txs.py",
            "sourceHash" : "b4fd7ee5ea7b85dd3c709298b39c76968743e96f74aeb05df14ed2876ae53d9f",
            "url" : "https://github.com/ethereum/execution-spec-tests/blob/f89d09ba99a3dc680dd9410f0b8a7f8d8fc36714/tests/tmp/tmptest_c493badb_1b5c_468b_a731_d86750ed6063/test_blob_txs.py#L1417"
        },
        "env" : {
            "currentBaseFee" : "0x07",
            "currentCoinbase" : "0x2adc25665018aa1fe0e6bc666dac8fc2697ff9ba",
            "currentDifficulty" : "0x00",
            "currentExcessBlobGas" : "0x0e0000",
            "currentGasLimit" : "0x016345785d8a0000",
            "currentNumber" : "0x01",
            "currentRandom" : "0x0000000000000000000000000000000000000000000000000000000000000000",
            "currentTimestamp" : "0x03e8"
        },
        "post" : {
            "Cancun" : [
                {
                    "hash" : "0x37613804c4cda81f68639bd98143105db4157e9c3c4892260e027695fa407dd1",
                    "indexes" : {
                        "data" : 0,
                        "gas" : 0,
                        "value" : 0
                    },
                    "logs" : "0x1dcc4de8dec75d7aab85b567b6ccd41ad312451b948a7413f0a142fd40d49347",
                    "txbytes" : "0x03f886018002648307a1209400000000000000000000000000000000000010000180c001e1a0010000000000000000000000000000000000000000000000000000000000000080a06e3dbe9f326ae4a3d6c3dcd494b98febdab0f61e9dfa5de0d10e36321bd9c8f8a0567701baf0eb5fcf781f37e37715af959450f7e1b07cedb75a2c733a73630bb6"
                }
            ]
        },
        "pre" : {
            "0x0000000000000000000000000000000000001000" : {
                "balance" : "0x00",
                "code" : "0x3a600055",
                "nonce" : "0x01",
                "storage" : {
                }
            },
            "0xa94f5374fce5edbc8e2a8697c15331677e6ebf0b" : {
                "balance" : "0x02fcf081",
                "code" : "0x",
                "nonce" : "0x00",
                "storage" : {
                }
            }
        },
        "transaction" : {
            "accessLists" : [
                [
                ]
            ],
            "blobVersionedHashes" : [
                "0x0100000000000000000000000000000000000000000000000000000000000000"
            ],
            "data" : [
                "0x"
            ],
            "gasLimit" : [
                "0x07a120"
            ],
            "maxFeePerBlobGas" : "0x01",
            "maxFeePerGas" : "0x64",
            "maxPriorityFeePerGas" : "0x02",
            "nonce" : "0x00",
            "secretKey" : "0x45a915e4d060149eb4365960e6a7a45f334393093061116b197e3240065ff2d8",
            "sender" : "0xa94f5374fce5edbc8e2a8697c15331677e6ebf0b",
            "to" : "0x0000000000000000000000000000000000001000",
            "value" : [
                "0x01"
            ]
        }
    },
    "src/GeneralStateTestsFiller/Pyspecs/cancun/eip4844_blobs/test_blob_txs.py::test_blob_tx_attribute_gasprice_opcode[fork_Cancun-state_test-tx_gas_500000-opcode_GASPRICE-tx_max_fee_per_gas_100-tx_max_fee_per_blob_gas_3-tx_max_priority_fee_per_gas_0]" : {
        "_info" : {
            "comment" : "`execution-spec-tests` generated test",
            "description" : "Test function documentation:\n\n    Test GASPRICE opcode to sanity check that the blob gas fee does not affect\n    its calculation:\n\n    - No priority fee\n    - Priority fee below data fee\n    - Priority fee above data fee",
            "filling-rpc-server" : "evm version 1.14.12-unstable-65e5ca7d-20241004",
            "filling-tool-version" : "retesteth-0.3.2-legacy+commit.be61b546.Linux.g++",
            "filling-transition-tool" : "evm version 1.14.12-unstable-65e5ca7d-20241004",
            "generatedTestHash" : "23fffc2b2d8b63fd64be0e0a658e985d502e0774e8723c3aaa6b8891dde69bda",
            "hash" : "0x98dc857cd0e3ca1688a7f808f894c5f4b16a3a9d66e24c9078a0a731d1bceb94",
            "lllcversion" : "Version: 0.5.14-develop.2024.11.5+commit.b2b86751.mod.Linux.g++",
            "solidity" : "Version: 0.8.24+commit.e11b9ed9.Linux.g++",
            "source" : "src/GeneralStateTestsFiller/Pyspecs/cancun/eip4844_blobs/test_blob_txs.py",
            "sourceHash" : "b4fd7ee5ea7b85dd3c709298b39c76968743e96f74aeb05df14ed2876ae53d9f",
            "url" : "https://github.com/ethereum/execution-spec-tests/blob/f89d09ba99a3dc680dd9410f0b8a7f8d8fc36714/tests/tmp/tmptest_c493badb_1b5c_468b_a731_d86750ed6063/test_blob_txs.py#L1417"
        },
        "env" : {
            "currentBaseFee" : "0x07",
            "currentCoinbase" : "0x2adc25665018aa1fe0e6bc666dac8fc2697ff9ba",
            "currentDifficulty" : "0x00",
            "currentExcessBlobGas" : "0x0e0000",
            "currentGasLimit" : "0x016345785d8a0000",
            "currentNumber" : "0x01",
            "currentRandom" : "0x0000000000000000000000000000000000000000000000000000000000000000",
            "currentTimestamp" : "0x03e8"
        },
        "post" : {
            "Cancun" : [
                {
                    "hash" : "0x6e6109e1a495518765fc98004c9e66cc6dcd3edf5d00349bb03c6593fb47b099",
                    "indexes" : {
                        "data" : 0,
                        "gas" : 0,
                        "value" : 0
                    },
                    "logs" : "0x1dcc4de8dec75d7aab85b567b6ccd41ad312451b948a7413f0a142fd40d49347",
                    "txbytes" : "0x03f886018080648307a1209400000000000000000000000000000000000010000180c003e1a0010000000000000000000000000000000000000000000000000000000000000001a0fed9d2c9778ae4d088b097b1c9c8bcf3cac90c92bf0ff0e15369ff854ec7a142a03dcc1ee432d1ebef46b299ab284daaaf494f41b30f330a10b7754f0433e3ddbb"
                }
            ]
        },
        "pre" : {
            "0x0000000000000000000000000000000000001000" : {
                "balance" : "0x00",
                "code" : "0x3a600055",
                "nonce" : "0x01",
                "storage" : {
                }
            },
            "0xa94f5374fce5edbc8e2a8697c15331677e6ebf0b" : {
                "balance" : "0x0300f081",
                "code" : "0x",
                "nonce" : "0x00",
                "storage" : {
                }
            }
        },
        "transaction" : {
            "accessLists" : [
                [
                ]
            ],
            "blobVersionedHashes" : [
                "0x0100000000000000000000000000000000000000000000000000000000000000"
            ],
            "data" : [
                "0x"
            ],
            "gasLimit" : [
                "0x07a120"
            ],
            "maxFeePerBlobGas" : "0x03",
            "maxFeePerGas" : "0x64",
            "maxPriorityFeePerGas" : "0x00",
            "nonce" : "0x00",
            "secretKey" : "0x45a915e4d060149eb4365960e6a7a45f334393093061116b197e3240065ff2d8",
            "sender" : "0xa94f5374fce5edbc8e2a8697c15331677e6ebf0b",
            "to" : "0x0000000000000000000000000000000000001000",
            "value" : [
                "0x01"
            ]
        }
    },
    "src/GeneralStateTestsFiller/Pyspecs/cancun/eip4844_blobs/test_blob_txs.py::test_blob_tx_attribute_gasprice_opcode[fork_Cancun-state_test-tx_gas_500000-opcode_GASPRICE-tx_max_fee_per_gas_100-tx_max_fee_per_blob_gas_3-tx_max_priority_fee_per_gas_2]" : {
        "_info" : {
            "comment" : "`execution-spec-tests` generated test",
            "description" : "Test function documentation:\n\n    Test GASPRICE opcode to sanity check that the blob gas fee does not affect\n    its calculation:\n\n    - No priority fee\n    - Priority fee below data fee\n    - Priority fee above data fee",
            "filling-rpc-server" : "evm version 1.14.12-unstable-65e5ca7d-20241004",
            "filling-tool-version" : "retesteth-0.3.2-legacy+commit.be61b546.Linux.g++",
            "filling-transition-tool" : "evm version 1.14.12-unstable-65e5ca7d-20241004",
            "generatedTestHash" : "f9d7b8402873424bf8e28b6f3022936577cb15c33295f07b5460273f87981193",
            "hash" : "0xbde95d33683736abae3e4249d9d28563c30fb0d971bf19d3ffccbf1d9be72f59",
            "lllcversion" : "Version: 0.5.14-develop.2024.11.5+commit.b2b86751.mod.Linux.g++",
            "solidity" : "Version: 0.8.24+commit.e11b9ed9.Linux.g++",
            "source" : "src/GeneralStateTestsFiller/Pyspecs/cancun/eip4844_blobs/test_blob_txs.py",
            "sourceHash" : "b4fd7ee5ea7b85dd3c709298b39c76968743e96f74aeb05df14ed2876ae53d9f",
            "url" : "https://github.com/ethereum/execution-spec-tests/blob/f89d09ba99a3dc680dd9410f0b8a7f8d8fc36714/tests/tmp/tmptest_c493badb_1b5c_468b_a731_d86750ed6063/test_blob_txs.py#L1417"
        },
        "env" : {
            "currentBaseFee" : "0x07",
            "currentCoinbase" : "0x2adc25665018aa1fe0e6bc666dac8fc2697ff9ba",
            "currentDifficulty" : "0x00",
            "currentExcessBlobGas" : "0x0e0000",
            "currentGasLimit" : "0x016345785d8a0000",
            "currentNumber" : "0x01",
            "currentRandom" : "0x0000000000000000000000000000000000000000000000000000000000000000",
            "currentTimestamp" : "0x03e8"
        },
        "post" : {
            "Cancun" : [
                {
                    "hash" : "0x9930a6b0e209a3c51419edca39cfcf059f9df9361132e096e21b22b6ca22ce04",
                    "indexes" : {
                        "data" : 0,
                        "gas" : 0,
                        "value" : 0
                    },
                    "logs" : "0x1dcc4de8dec75d7aab85b567b6ccd41ad312451b948a7413f0a142fd40d49347",
                    "txbytes" : "0x03f886018002648307a1209400000000000000000000000000000000000010000180c003e1a0010000000000000000000000000000000000000000000000000000000000000080a097ff93cbba63c07ac04f421a8b28154bac307573929ae3e3371d386fe8596db4a06de7894aefa73a78005007d8eb9481aac521bc9d7e849cd55ab53f45a2697ed2"
                }
            ]
        },
        "pre" : {
            "0x0000000000000000000000000000000000001000" : {
                "balance" : "0x00",
                "code" : "0x3a600055",
                "nonce" : "0x01",
                "storage" : {
                }
            },
            "0xa94f5374fce5edbc8e2a8697c15331677e6ebf0b" : {
                "balance" : "0x0300f081",
                "code" : "0x",
                "nonce" : "0x00",
                "storage" : {
                }
            }
        },
        "transaction" : {
            "accessLists" : [
                [
                ]
            ],
            "blobVersionedHashes" : [
                "0x0100000000000000000000000000000000000000000000000000000000000000"
            ],
            "data" : [
                "0x"
            ],
            "gasLimit" : [
                "0x07a120"
            ],
            "maxFeePerBlobGas" : "0x03",
            "maxFeePerGas" : "0x64",
            "maxPriorityFeePerGas" : "0x02",
            "nonce" : "0x00",
            "secretKey" : "0x45a915e4d060149eb4365960e6a7a45f334393093061116b197e3240065ff2d8",
            "sender" : "0xa94f5374fce5edbc8e2a8697c15331677e6ebf0b",
            "to" : "0x0000000000000000000000000000000000001000",
            "value" : [
                "0x01"
            ]
        }
    }
}