{
    "src/GeneralStateTestsFiller/Pyspecs/cancun/eip4844_blobs/test_point_evaluation_precompile.py::test_precompile_before_fork[fork_ShanghaiToCancunAtTime15k-state_test----correct_proof]" : {
        "_info" : {
            "comment" : "`execution-spec-tests` generated test",
            "description" : "Test function documentation:\n\n    Test calling the Point Evaluation Precompile before the appropriate fork.",
            "filling-rpc-server" : "evm version 1.14.12-unstable-65e5ca7d-20241004",
            "filling-tool-version" : "retesteth-0.3.2-legacy+commit.be61b546.Linux.g++",
            "filling-transition-tool" : "evm version 1.14.12-unstable-65e5ca7d-20241004",
            "generatedTestHash" : "6a31435da72d61f1b516ab97de391626905f468fc7ce465fff5790a707760916",
            "hash" : "0x156526262949d9cd4ae5f86e4a8c058a370e2d21ec17cf941c74895edce8dd6a",
            "lllcversion" : "Version: 0.5.14-develop.2024.11.5+commit.b2b86751.mod.Linux.g++",
            "solidity" : "Version: 0.8.24+commit.e11b9ed9.Linux.g++",
            "source" : "src/GeneralStateTestsFiller/Pyspecs/cancun/eip4844_blobs/test_point_evaluation_precompile.py",
            "sourceHash" : "29747897f0758e7134b65dc838de410f747496f7bba61d0333e4fb0a8c093051",
            "url" : "https://github.com/ethereum/execution-spec-tests/blob/f89d09ba99a3dc680dd9410f0b8a7f8d8fc36714/tests/tmp/tmptest_9619cea1_eeba_4d24_b7fb_acdf03e6b726/test_point_evaluation_precompile.py#L598"
        },
        "env" : {
            "currentBaseFee" : "0x07",
            "currentCoinbase" : "0x2adc25665018aa1fe0e6bc666dac8fc2697ff9ba",
            "currentDifficulty" : "0x00",
            "currentGasLimit" : "0x016345785d8a0000",
            "currentNumber" : "0x01",
            "currentRandom" : "0x0000000000000000000000000000000000000000000000000000000000000000",
            "currentTimestamp" : "0x1d4c"
        },
        "post" : {
            "Shanghai" : [
                {
                    "hash" : "0x056409158da92cfc22301fc7b45ec4998fec8eac600f6308c710f8b9f9c6c7f2",
                    "indexes" : {
                        "data" : 0,
                        "gas" : 0,
                        "value" : 0
                    },
                    "logs" : "0x1dcc4de8dec75d7aab85b567b6ccd41ad312451b948a7413f0a142fd40d49347",
                    "txbytes" : "0xf90121800a834c4b4094000000000000000000000000000000000000100080b8c0010657f37554c781402a22917dee2f75def7ab966d7b770905398eba3c444014623ce31cf9759a5c8daf3a357992f9f3dd7f9339d8998bc8e68373e54f00b75e0000000000000000000000000000000000000000000000000000000000000000c00000000000000000000000000000000000000000000000000000000000000000000000000000000000000000000000c0000000000000000000000000000000000000000000000000000000000000000000000000000000000000000000000025a0614ac66bd3ffb6b6aeca9e6309c4dfc6a776e88ffece9bfd68381015049b87f3a04da4c1f25e65364cd2a64d0105128a34e2e73dcc6c37706da0eebf41f4328d44"
                }
            ]
        },
        "pre" : {
            "0x0000000000000000000000000000000000001000" : {
                "balance" : "0x01",
                "code" : "0x366000600037600060003660006001600a5af14355",
                "nonce" : "0x01",
                "storage" : {
                }
            },
            "0xa94f5374fce5edbc8e2a8697c15331677e6ebf0b" : {
                "balance" : "0x3635c9adc5dea00000",
                "code" : "0x",
                "nonce" : "0x00",
                "storage" : {
                }
            }
        },
        "transaction" : {
            "data" : [
                "0x010657f37554c781402a22917dee2f75def7ab966d7b770905398eba3c444014623ce31cf9759a5c8daf3a357992f9f3dd7f9339d8998bc8e68373e54f00b75e0000000000000000000000000000000000000000000000000000000000000000c00000000000000000000000000000000000000000000000000000000000000000000000000000000000000000000000c00000000000000000000000000000000000000000000000000000000000000000000000000000000000000000000000"
            ],
            "gasLimit" : [
                "0x4c4b40"
            ],
            "gasPrice" : "0x0a",
            "nonce" : "0x00",
            "secretKey" : "0x45a915e4d060149eb4365960e6a7a45f334393093061116b197e3240065ff2d8",
            "sender" : "0xa94f5374fce5edbc8e2a8697c15331677e6ebf0b",
            "to" : "0x0000000000000000000000000000000000001000",
            "value" : [
                "0x00"
            ]
        }
    }
}