{
    "tests/cancun/eip4844_blobs/test_blobhash_opcode.py::test_blobhash_multiple_txs_in_block[fork_Cancun-blockchain_test_hive]": {
        "network": "Cancun",
        "genesisBlockHeader": {
            "parentHash": "0x0000000000000000000000000000000000000000000000000000000000000000",
            "uncleHash": "0x1dcc4de8dec75d7aab85b567b6ccd41ad312451b948a7413f0a142fd40d49347",
            "coinbase": "0x0000000000000000000000000000000000000000",
            "stateRoot": "0x5b441b7e99fc1b4fde3b23c40da43d7853df6a2fb2ce1270c845c5d615784a0c",
            "transactionsTrie": "0x56e81f171bcc55a6ff8345e692c0f86e5b48e01b996cadc001622fb5e363b421",
            "receiptTrie": "0x56e81f171bcc55a6ff8345e692c0f86e5b48e01b996cadc001622fb5e363b421",
            "bloom": "0x00000000000000000000000000000000000000000000000000000000000000000000000000000000000000000000000000000000000000000000000000000000000000000000000000000000000000000000000000000000000000000000000000000000000000000000000000000000000000000000000000000000000000000000000000000000000000000000000000000000000000000000000000000000000000000000000000000000000000000000000000000000000000000000000000000000000000000000000000000000000000000000000000000000000000000000000000000000000000000000000000000000000000000000000000000000",
            "difficulty": "0x00",
            "number": "0x00",
            "gasLimit": "0x016345785d8a0000",
            "gasUsed": "0x00",
            "timestamp": "0x00",
            "extraData": "0x00",
            "mixHash": "0x0000000000000000000000000000000000000000000000000000000000000000",
            "nonce": "0x0000000000000000",
            "baseFeePerGas": "0x07",
            "withdrawalsRoot": "0x56e81f171bcc55a6ff8345e692c0f86e5b48e01b996cadc001622fb5e363b421",
            "blobGasUsed": "0x00",
            "excessBlobGas": "0x00",
            "parentBeaconBlockRoot": "0x0000000000000000000000000000000000000000000000000000000000000000",
            "hash": "0x0c46174de5fb4b1ee8040583f9bcace862f04ca91941bcfc11d6507c27afbf3f"
        },
        "pre": {
            "0x000f3df6d732807ef1319fb7b8bb8522d0beac02": {
                "nonce": "0x01",
                "balance": "0x00",
                "code": "0x3373fffffffffffffffffffffffffffffffffffffffe14604d57602036146024575f5ffd5b5f35801560495762001fff810690815414603c575f5ffd5b62001fff01545f5260205ff35b5f5ffd5b62001fff42064281555f359062001fff015500",
                "storage": {}
            },
            "0xa94f5374fce5edbc8e2a8697c15331677e6ebf0b": {
                "nonce": "0x00",
                "balance": "0x021e19e0c9bab2400000",
                "code": "0x",
                "storage": {}
            },
            "0x0000000000000000000000000000000000001000": {
                "nonce": "0x00",
                "balance": "0x00",
                "code": "0x600049600055600149600155600249600255600349600355600449600455600549600555",
                "storage": {}
            },
            "0x0000000000000000000000000000000000002000": {
                "nonce": "0x00",
                "balance": "0x00",
                "code": "0x600049600055600149600155600249600255600349600355600449600455600549600555",
                "storage": {}
            },
            "0x0000000000000000000000000000000000003000": {
                "nonce": "0x00",
                "balance": "0x00",
                "code": "0x600049600055600149600155600249600255600349600355600449600455600549600555",
                "storage": {}
            },
            "0x0000000000000000000000000000000000004000": {
                "nonce": "0x00",
                "balance": "0x00",
                "code": "0x600049600055600149600155600249600255600349600355600449600455600549600555",
                "storage": {}
            }
        },
        "postState": {
            "0x0000000000000000000000000000000000001000": {
                "nonce": "0x00",
                "balance": "0x00",
                "code": "0x600049600055600149600155600249600255600349600355600449600455600549600555",
                "storage": {}
            },
            "0x0000000000000000000000000000000000002000": {
                "nonce": "0x00",
                "balance": "0x00",
                "code": "0x600049600055600149600155600249600255600349600355600449600455600549600555",
                "storage": {
                    "0x00": "0x01b8c5b09810b5fc07355d3da42e2c3a3e200c1d9a678491b7e8e256fc50cc4f",
                    "0x01": "0x015b4c8cc4f86aa2d2cf9e9ce97fca704a11a6c20f6b1d6c00a6e15f6d60a6df",
                    "0x02": "0x01878f80eaf10be1a6f618e6f8c071b10a6c14d9b89a3bf2a3f3cf2db6c5681d",
                    "0x03": "0x014eb72b108d562c639faeb6f8c6f366a28b0381c7d30431117ec8c7bb89f834",
                    "0x04": "0x01a9b2a6c3f3f0675b768d49b5f5dc5b5d988f88d55766247ba9e40b125f16bb",
                    "0x05": "0x01a4d4cde4aa01e57fb2c880d1d9c778c33bdf85e48ef4c4d4b4de51abccf4ed"
                }
            },
            "0x0000000000000000000000000000000000003000": {
                "nonce": "0x00",
                "balance": "0x00",
                "code": "0x600049600055600149600155600249600255600349600355600449600455600549600555",
                "storage": {}
            },
            "0x0000000000000000000000000000000000004000": {
                "nonce": "0x00",
                "balance": "0x00",
                "code": "0x600049600055600149600155600249600255600349600355600449600455600549600555",
                "storage": {
                    "0x00": "0x01b8c5b09810b5fc07355d3da42e2c3a3e200c1d9a678491b7e8e256fc50cc4f",
                    "0x01": "0x015b4c8cc4f86aa2d2cf9e9ce97fca704a11a6c20f6b1d6c00a6e15f6d60a6df",
                    "0x02": "0x01878f80eaf10be1a6f618e6f8c071b10a6c14d9b89a3bf2a3f3cf2db6c5681d",
                    "0x03": "0x014eb72b108d562c639faeb6f8c6f366a28b0381c7d30431117ec8c7bb89f834",
                    "0x04": "0x01a9b2a6c3f3f0675b768d49b5f5dc5b5d988f88d55766247ba9e40b125f16bb",
                    "0x05": "0x01a4d4cde4aa01e57fb2c880d1d9c778c33bdf85e48ef4c4d4b4de51abccf4ed"
                }
            },
            "0x000f3df6d732807ef1319fb7b8bb8522d0beac02": {
                "nonce": "0x01",
                "balance": "0x00",
                "code": "0x3373fffffffffffffffffffffffffffffffffffffffe14604d57602036146024575f5ffd5b5f35801560495762001fff810690815414603c575f5ffd5b62001fff01545f5260205ff35b5f5ffd5b62001fff42064281555f359062001fff015500",
                "storage": {
                    "0x0c": "0x0c",
                    "0x18": "0x18",
                    "0x24": "0x24"
                }
            },
            "0x2adc25665018aa1fe0e6bc666dac8fc2697ff9ba": {
                "nonce": "0x00",
                "balance": "0x1a2410",
                "code": "0x",
                "storage": {}
            },
            "0xa94f5374fce5edbc8e2a8697c15331677e6ebf0b": {
                "nonce": "0x06",
                "balance": "0x021e19e0c9bab1c4dd20",
                "code": "0x",
                "storage": {}
            }
        },
        "engineNewPayloads": [
            {
                "executionPayload": {
                    "parentHash": "0x0c46174de5fb4b1ee8040583f9bcace862f04ca91941bcfc11d6507c27afbf3f",
                    "feeRecipient": "0x2adc25665018aa1fe0e6bc666dac8fc2697ff9ba",
                    "stateRoot": "0x9b571def723cc49aaaf7707dd5c802ece9906f0133b9fa9bcc1a633c32300149",
                    "receiptsRoot": "0xf44b62ca500455002c17e676410100f1a6df14862de0691766cb2a9ed3c59dc8",
                    "logsBloom": "0x00000000000000000000000000000000000000000000000000000000000000000000000000000000000000000000000000000000000000000000000000000000000000000000000000000000000000000000000000000000000000000000000000000000000000000000000000000000000000000000000000000000000000000000000000000000000000000000000000000000000000000000000000000000000000000000000000000000000000000000000000000000000000000000000000000000000000000000000000000000000000000000000000000000000000000000000000000000000000000000000000000000000000000000000000000000",
                    "blockNumber": "0x1",
                    "gasLimit": "0x16345785d8a0000",
                    "gasUsed": "0x2f8a8",
                    "timestamp": "0xc",
                    "extraData": "0x",
                    "prevRandao": "0x0000000000000000000000000000000000000000000000000000000000000000",
                    "baseFeePerGas": "0x7",
                    "blobGasUsed": "0xc0000",
                    "excessBlobGas": "0x0",
                    "blockHash": "0x3e4490ef0253bc18cb16326cbfeb82fae67b3c2ab89c3c583fc581efcec4ae45",
                    "transactions": [
                        "0x03f9014c01800a0a832dc6c094000000000000000000000000000000000000100080a00000000000000000000000000000000000000000000000000000000000000000c00af8c6a001b8c5b09810b5fc07355d3da42e2c3a3e200c1d9a678491b7e8e256fc50cc4fa0015b4c8cc4f86aa2d2cf9e9ce97fca704a11a6c20f6b1d6c00a6e15f6d60a6dfa001878f80eaf10be1a6f618e6f8c071b10a6c14d9b89a3bf2a3f3cf2db6c5681da0014eb72b108d562c639faeb6f8c6f366a28b0381c7d30431117ec8c7bb89f834a001a9b2a6c3f3f0675b768d49b5f5dc5b5d988f88d55766247ba9e40b125f16bba001a4d4cde4aa01e57fb2c880d1d9c778c33bdf85e48ef4c4d4b4de51abccf4ed01a0addbf957e470db7f67029390725b753662dd6c3161d47946caecc30101d8ab59a06b2457115cbf105990dae3ed644f2731cecc343c385cc1592ad20bed8e8c5c95",
                        "0x02f88301010a0a832dc6c094000000000000000000000000000000000000100080a00000000000000000000000000000000000000000000000000000000000000000c080a0d19824850ecde2812e7e7ee821e3a558320630a685f2760cdb03023680e2a79aa00d7617ef9986f99d1f9edb4bb5af5b051a13acd634cc6a1cbe3a8ea4ba456c72"
                    ],
                    "withdrawals": []
                },
                "version": "3",
                "expectedBlobVersionedHashes": [
                    "0x01b8c5b09810b5fc07355d3da42e2c3a3e200c1d9a678491b7e8e256fc50cc4f",
                    "0x015b4c8cc4f86aa2d2cf9e9ce97fca704a11a6c20f6b1d6c00a6e15f6d60a6df",
                    "0x01878f80eaf10be1a6f618e6f8c071b10a6c14d9b89a3bf2a3f3cf2db6c5681d",
                    "0x014eb72b108d562c639faeb6f8c6f366a28b0381c7d30431117ec8c7bb89f834",
                    "0x01a9b2a6c3f3f0675b768d49b5f5dc5b5d988f88d55766247ba9e40b125f16bb",
                    "0x01a4d4cde4aa01e57fb2c880d1d9c778c33bdf85e48ef4c4d4b4de51abccf4ed"
                ],
                "parentBeaconBlockRoot": "0x0000000000000000000000000000000000000000000000000000000000000000"
            },
            {
                "executionPayload": {
                    "parentHash": "0x3e4490ef0253bc18cb16326cbfeb82fae67b3c2ab89c3c583fc581efcec4ae45",
                    "feeRecipient": "0x2adc25665018aa1fe0e6bc666dac8fc2697ff9ba",
                    "stateRoot": "0xd5127fc7a32d2cb7e7b341a7cf6f899c279d2434eb1484a824f99888535fc102",
                    "receiptsRoot": "0xda5ac010087a7cb6e374f2cda2f2c54242b12da3fc28ef70fffbdce90d262adf",
                    "logsBloom": "0x00000000000000000000000000000000000000000000000000000000000000000000000000000000000000000000000000000000000000000000000000000000000000000000000000000000000000000000000000000000000000000000000000000000000000000000000000000000000000000000000000000000000000000000000000000000000000000000000000000000000000000000000000000000000000000000000000000000000000000000000000000000000000000000000000000000000000000000000000000000000000000000000000000000000000000000000000000000000000000000000000000000000000000000000000000000",
                    "blockNumber": "0x2",
                    "gasLimit": "0x16345785d8a0000",
                    "gasUsed": "0x2df04",
                    "timestamp": "0x18",
                    "extraData": "0x",
                    "prevRandao": "0x0000000000000000000000000000000000000000000000000000000000000000",
                    "baseFeePerGas": "0x7",
                    "blobGasUsed": "0xc0000",
                    "excessBlobGas": "0x60000",
                    "blockHash": "0xcc4289376e2da3d3abd3e1e04b942f24120d5e7f42d10b0a8935fc0017d5b99e",
                    "transactions": [
                        "0x02f88301020a0a832dc6c094000000000000000000000000000000000000200080a00000000000000000000000000000000000000000000000000000000000000000c001a04bd548ac269f0b3d84b2579736a68c7f6077b33fd73430d3d1781babc932d1e6a0799479bbd39baafdbf9f628214f8b162c3bbe5cea066189ea4784f755a1c2bbc",
                        "0x03f9014c01030a0a832dc6c094000000000000000000000000000000000000200080a00000000000000000000000000000000000000000000000000000000000000000c00af8c6a001b8c5b09810b5fc07355d3da42e2c3a3e200c1d9a678491b7e8e256fc50cc4fa0015b4c8cc4f86aa2d2cf9e9ce97fca704a11a6c20f6b1d6c00a6e15f6d60a6dfa001878f80eaf10be1a6f618e6f8c071b10a6c14d9b89a3bf2a3f3cf2db6c5681da0014eb72b108d562c639faeb6f8c6f366a28b0381c7d30431117ec8c7bb89f834a001a9b2a6c3f3f0675b768d49b5f5dc5b5d988f88d55766247ba9e40b125f16bba001a4d4cde4aa01e57fb2c880d1d9c778c33bdf85e48ef4c4d4b4de51abccf4ed80a040b79d3d52f5d9cac0017ff6bdcf236f52b9e7b34113e3106be8caf04310f358a01f609055a97cc5d4a68e26501244914a8593d773b0d6afdedd08fb8b33993732"
                    ],
                    "withdrawals": []
                },
                "version": "3",
                "expectedBlobVersionedHashes": [
                    "0x01b8c5b09810b5fc07355d3da42e2c3a3e200c1d9a678491b7e8e256fc50cc4f",
                    "0x015b4c8cc4f86aa2d2cf9e9ce97fca704a11a6c20f6b1d6c00a6e15f6d60a6df",
                    "0x01878f80eaf10be1a6f618e6f8c071b10a6c14d9b89a3bf2a3f3cf2db6c5681d",
                    "0x014eb72b108d562c639faeb6f8c6f366a28b0381c7d30431117ec8c7bb89f834",
                    "0x01a9b2a6c3f3f0675b768d49b5f5dc5b5d988f88d55766247ba9e40b125f16bb",
                    "0x01a4d4cde4aa01e57fb2c880d1d9c778c33bdf85e48ef4c4d4b4de51abccf4ed"
                ],
                "parentBeaconBlockRoot": "0x0000000000000000000000000000000000000000000000000000000000000000"
            },
            {
                "executionPayload": {
                    "parentHash": "0xcc4289376e2da3d3abd3e1e04b942f24120d5e7f42d10b0a8935fc0017d5b99e",
                    "feeRecipient": "0x2adc25665018aa1fe0e6bc666dac8fc2697ff9ba",
                    "stateRoot": "0xdc84dce1dd81fe894e1f5ec80a0a6a02f3d24390ebd7cd9a52e02eb233590b1c",
                    "receiptsRoot": "0xda5ac010087a7cb6e374f2cda2f2c54242b12da3fc28ef70fffbdce90d262adf",
                    "logsBloom": "0x00000000000000000000000000000000000000000000000000000000000000000000000000000000000000000000000000000000000000000000000000000000000000000000000000000000000000000000000000000000000000000000000000000000000000000000000000000000000000000000000000000000000000000000000000000000000000000000000000000000000000000000000000000000000000000000000000000000000000000000000000000000000000000000000000000000000000000000000000000000000000000000000000000000000000000000000000000000000000000000000000000000000000000000000000000000",
                    "blockNumber": "0x3",
                    "gasLimit": "0x16345785d8a0000",
                    "gasUsed": "0x2df04",
                    "timestamp": "0x24",
                    "extraData": "0x",
                    "prevRandao": "0x0000000000000000000000000000000000000000000000000000000000000000",
                    "baseFeePerGas": "0x7",
                    "blobGasUsed": "0xc0000",
                    "excessBlobGas": "0xc0000",
                    "blockHash": "0x61a2378bd5a5d3852d7630b3466f1daba349abf64892223ed63ddb9eaf98f820",
                    "transactions": [
                        "0x02f88301040a0a832dc6c094000000000000000000000000000000000000300080a00000000000000000000000000000000000000000000000000000000000000000c001a088dbb977c2056b0fdb0c1e4ff8afdbca073a548fe538a023c273b4899232a48ba07946d10ac6fdf21c5ae8288d3c2c36f877c84f1595a2ef780094820b8e1aa704",
                        "0x03f9014c01050a0a832dc6c094000000000000000000000000000000000000400080a00000000000000000000000000000000000000000000000000000000000000000c00af8c6a001b8c5b09810b5fc07355d3da42e2c3a3e200c1d9a678491b7e8e256fc50cc4fa0015b4c8cc4f86aa2d2cf9e9ce97fca704a11a6c20f6b1d6c00a6e15f6d60a6dfa001878f80eaf10be1a6f618e6f8c071b10a6c14d9b89a3bf2a3f3cf2db6c5681da0014eb72b108d562c639faeb6f8c6f366a28b0381c7d30431117ec8c7bb89f834a001a9b2a6c3f3f0675b768d49b5f5dc5b5d988f88d55766247ba9e40b125f16bba001a4d4cde4aa01e57fb2c880d1d9c778c33bdf85e48ef4c4d4b4de51abccf4ed01a051d7576af22640c52967373a36f22038b091841da7719d73571afad9e4539331a04257c14fbca9291f92ff588a94334ab1c040bd819951dad5488224b1e8346edc"
                    ],
                    "withdrawals": []
                },
                "version": "3",
                "expectedBlobVersionedHashes": [
                    "0x01b8c5b09810b5fc07355d3da42e2c3a3e200c1d9a678491b7e8e256fc50cc4f",
                    "0x015b4c8cc4f86aa2d2cf9e9ce97fca704a11a6c20f6b1d6c00a6e15f6d60a6df",
                    "0x01878f80eaf10be1a6f618e6f8c071b10a6c14d9b89a3bf2a3f3cf2db6c5681d",
                    "0x014eb72b108d562c639faeb6f8c6f366a28b0381c7d30431117ec8c7bb89f834",
                    "0x01a9b2a6c3f3f0675b768d49b5f5dc5b5d988f88d55766247ba9e40b125f16bb",
                    "0x01a4d4cde4aa01e57fb2c880d1d9c778c33bdf85e48ef4c4d4b4de51abccf4ed"
                ],
                "parentBeaconBlockRoot": "0x0000000000000000000000000000000000000000000000000000000000000000"
            }
        ],
        "engineFcuVersion": "3",
        "_info": {
            "hash": "0xa4dcafe9a6ed1e7b916c19faa1dec3e0290b258d52a1ac6b43a1cde26d88342d",
            "comment": "`execution-spec-tests` generated test",
            "filling-transition-tool": "evm version 1.14.4-unstable-44a50c9f-20240510",
            "reference-spec": "https://github.com/ethereum/EIPs/blob/master/EIPS/eip-4844.md",
            "reference-spec-version": "f0eb6a364aaf5ccb43516fa2c269a54fb881ecfd"
        }
    }
}