{
    "tests/cancun/eip1153_tstore/test_tstorage_create_contexts.py::TestTransientStorageInContractCreation::test_contract_creation[fork_Cancun-state_test-only_constructor_code-create]": {
        "env": {
            "currentCoinbase": "0x2adc25665018aa1fe0e6bc666dac8fc2697ff9ba",
            "currentGasLimit": "0x016345785d8a0000",
            "currentNumber": "0x01",
            "currentTimestamp": "0x03e8",
            "currentRandom": "0x0000000000000000000000000000000000000000000000000000000000000000",
            "currentDifficulty": "0x00",
            "currentBaseFee": "0x07",
            "currentExcessBlobGas": "0x00"
        },
        "pre": {
            "0xa94f5374fce5edbc8e2a8697c15331677e6ebf0b": {
                "nonce": "0x00",
                "balance": "0x5af3107a4000",
                "code": "0x",
                "storage": {}
            },
            "0x0000000000000000000000000000000000001000": {
                "nonce": "0x01",
                "balance": "0x00",
                "code": "0x61010060005d61020060015d61030060025d3660006000373660006000f060006000600060006000735bafcc0c93ecd8022925d7fd89da1c6250850e195af160045560005c60005560015c60015560025c600255",
                "storage": {}
            }
        },
        "transaction": {
            "nonce": "0x00",
            "gasPrice": "0x0a",
            "gasLimit": [
                "0xe8d4a51000"
            ],
            "to": "0x0000000000000000000000000000000000001000",
            "value": [
                "0x00"
            ],
            "data": [
                "0x60005c600055600160005d60005c600155610000600081601c8239f3"
            ],
            "sender": "0xa94f5374fce5edbc8e2a8697c15331677e6ebf0b",
            "secretKey": "0x45a915e4d060149eb4365960e6a7a45f334393093061116b197e3240065ff2d8"
        },
        "post": {
            "Cancun": [
                {
                    "hash": "0x6a052080d164926a7e0a08a6ad73fb0269ccffeffbf22a7488c5d312d05788b2",
                    "logs": "0x1dcc4de8dec75d7aab85b567b6ccd41ad312451b948a7413f0a142fd40d49347",
                    "txbytes": "0xf87e800a85e8d4a51000940000000000000000000000000000000000001000809c60005c600055600160005d60005c600155610000600081601c8239f325a0b6bc7052836a870a0dc9dd823392d7579353b1ab736712c373f7f9c38a477b66a07eeafa9ea86dfb962688b105fa9840f76c7ba270e8296e89d992a968d08190a4",
                    "indexes": {
                        "data": 0,
                        "gas": 0,
                        "value": 0
                    }
                }
            ]
        },
        "_info": {
            "hash": "0xb92af6bc1c2a842e9b1391bb96fcf25b3566835edc6fe2450da1049312b6d42e",
            "comment": "`execution-spec-tests` generated test",
            "filling-transition-tool": "evm version 1.13.14-stable",
            "reference-spec": "https://github.com/ethereum/EIPs/blob/master/EIPS/eip-1153.md",
            "reference-spec-version": "6f0be621c76a05a7b3aaf0e9297afd425c26e9d0"
        }
    },
    "tests/cancun/eip1153_tstore/test_tstorage_create_contexts.py::TestTransientStorageInContractCreation::test_contract_creation[fork_Cancun-state_test-only_constructor_code-create2]": {
        "env": {
            "currentCoinbase": "0x2adc25665018aa1fe0e6bc666dac8fc2697ff9ba",
            "currentGasLimit": "0x016345785d8a0000",
            "currentNumber": "0x01",
            "currentTimestamp": "0x03e8",
            "currentRandom": "0x0000000000000000000000000000000000000000000000000000000000000000",
            "currentDifficulty": "0x00",
            "currentBaseFee": "0x07",
            "currentExcessBlobGas": "0x00"
        },
        "pre": {
            "0xa94f5374fce5edbc8e2a8697c15331677e6ebf0b": {
                "nonce": "0x00",
                "balance": "0x5af3107a4000",
                "code": "0x",
                "storage": {}
            },
            "0x0000000000000000000000000000000000001000": {
                "nonce": "0x01",
                "balance": "0x00",
                "code": "0x61010060005d61020060015d61030060025d36600060003763deadbeef3660006000f5600060006000600060007354bd6a94f5b1f0540e538a0b47c561e3c39716bc5af160045560005c60005560015c60015560025c600255",
                "storage": {}
            }
        },
        "transaction": {
            "nonce": "0x00",
            "gasPrice": "0x0a",
            "gasLimit": [
                "0xe8d4a51000"
            ],
            "to": "0x0000000000000000000000000000000000001000",
            "value": [
                "0x00"
            ],
            "data": [
                "0x60005c600055600160005d60005c600155610000600081601c8239f3"
            ],
            "sender": "0xa94f5374fce5edbc8e2a8697c15331677e6ebf0b",
            "secretKey": "0x45a915e4d060149eb4365960e6a7a45f334393093061116b197e3240065ff2d8"
        },
        "post": {
            "Cancun": [
                {
                    "hash": "0x1f35ab758c68020ab74a9d6ea30ac353c947636a0c8bb9d490cb10de64693cfd",
                    "logs": "0x1dcc4de8dec75d7aab85b567b6ccd41ad312451b948a7413f0a142fd40d49347",
                    "txbytes": "0xf87e800a85e8d4a51000940000000000000000000000000000000000001000809c60005c600055600160005d60005c600155610000600081601c8239f325a0b6bc7052836a870a0dc9dd823392d7579353b1ab736712c373f7f9c38a477b66a07eeafa9ea86dfb962688b105fa9840f76c7ba270e8296e89d992a968d08190a4",
                    "indexes": {
                        "data": 0,
                        "gas": 0,
                        "value": 0
                    }
                }
            ]
        },
        "_info": {
            "hash": "0x363f413e40d8576d5f84b21ab2d03ce43d3911706fd50a408d6c0cd8d2a6a7b0",
            "comment": "`execution-spec-tests` generated test",
            "filling-transition-tool": "evm version 1.13.14-stable",
            "reference-spec": "https://github.com/ethereum/EIPs/blob/master/EIPS/eip-1153.md",
            "reference-spec-version": "6f0be621c76a05a7b3aaf0e9297afd425c26e9d0"
        }
    },
    "tests/cancun/eip1153_tstore/test_tstorage_create_contexts.py::TestTransientStorageInContractCreation::test_contract_creation[fork_Cancun-state_test-in_constructor_and_deployed_code-create]": {
        "env": {
            "currentCoinbase": "0x2adc25665018aa1fe0e6bc666dac8fc2697ff9ba",
            "currentGasLimit": "0x016345785d8a0000",
            "currentNumber": "0x01",
            "currentTimestamp": "0x03e8",
            "currentRandom": "0x0000000000000000000000000000000000000000000000000000000000000000",
            "currentDifficulty": "0x00",
            "currentBaseFee": "0x07",
            "currentExcessBlobGas": "0x00"
        },
        "pre": {
            "0xa94f5374fce5edbc8e2a8697c15331677e6ebf0b": {
                "nonce": "0x00",
                "balance": "0x5af3107a4000",
                "code": "0x",
                "storage": {}
            },
            "0x0000000000000000000000000000000000001000": {
                "nonce": "0x01",
                "balance": "0x00",
                "code": "0x61010060005d61020060015d61030060025d3660006000373660006000f060006000600060006000735bafcc0c93ecd8022925d7fd89da1c6250850e195af160045560005c60005560015c60015560025c600255",
                "storage": {}
            }
        },
        "transaction": {
            "nonce": "0x00",
            "gasPrice": "0x0a",
            "gasLimit": [
                "0xe8d4a51000"
            ],
            "to": "0x0000000000000000000000000000000000001000",
            "value": [
                "0x00"
            ],
            "data": [
                "0x60005c60005561001160008160118239f360005c600155600160015d60015c600255"
            ],
            "sender": "0xa94f5374fce5edbc8e2a8697c15331677e6ebf0b",
            "secretKey": "0x45a915e4d060149eb4365960e6a7a45f334393093061116b197e3240065ff2d8"
        },
        "post": {
            "Cancun": [
                {
                    "hash": "0xb70eab8716d1259569dc543fe06e25fbaa08ffab3dc13a3a5e16b78d86391192",
                    "logs": "0x1dcc4de8dec75d7aab85b567b6ccd41ad312451b948a7413f0a142fd40d49347",
                    "txbytes": "0xf884800a85e8d4a5100094000000000000000000000000000000000000100080a260005c60005561001160008160118239f360005c600155600160015d60015c60025525a008ed06c0157a8751027f5a54e36447a0317b9054fe8faacc0e65a5605cb05a84a071c9d0e57c8d1f90a0141d2493f3ef2cd4f7a422a7b70cb57928b72b59156833",
                    "indexes": {
                        "data": 0,
                        "gas": 0,
                        "value": 0
                    }
                }
            ]
        },
        "_info": {
            "hash": "0x6f35687174e579719acf5a14b83ff40820999a8a023c356eb47f7e1dccfa4972",
            "comment": "`execution-spec-tests` generated test",
            "filling-transition-tool": "evm version 1.13.14-stable",
            "reference-spec": "https://github.com/ethereum/EIPs/blob/master/EIPS/eip-1153.md",
            "reference-spec-version": "6f0be621c76a05a7b3aaf0e9297afd425c26e9d0"
        }
    },
    "tests/cancun/eip1153_tstore/test_tstorage_create_contexts.py::TestTransientStorageInContractCreation::test_contract_creation[fork_Cancun-state_test-in_constructor_and_deployed_code-create2]": {
        "env": {
            "currentCoinbase": "0x2adc25665018aa1fe0e6bc666dac8fc2697ff9ba",
            "currentGasLimit": "0x016345785d8a0000",
            "currentNumber": "0x01",
            "currentTimestamp": "0x03e8",
            "currentRandom": "0x0000000000000000000000000000000000000000000000000000000000000000",
            "currentDifficulty": "0x00",
            "currentBaseFee": "0x07",
            "currentExcessBlobGas": "0x00"
        },
        "pre": {
            "0xa94f5374fce5edbc8e2a8697c15331677e6ebf0b": {
                "nonce": "0x00",
                "balance": "0x5af3107a4000",
                "code": "0x",
                "storage": {}
            },
            "0x0000000000000000000000000000000000001000": {
                "nonce": "0x01",
                "balance": "0x00",
                "code": "0x61010060005d61020060015d61030060025d36600060003763deadbeef3660006000f56000600060006000600073a877d924ab9856c2c2f55a2be0b624f7407b74cc5af160045560005c60005560015c60015560025c600255",
                "storage": {}
            }
        },
        "transaction": {
            "nonce": "0x00",
            "gasPrice": "0x0a",
            "gasLimit": [
                "0xe8d4a51000"
            ],
            "to": "0x0000000000000000000000000000000000001000",
            "value": [
                "0x00"
            ],
            "data": [
                "0x60005c60005561001160008160118239f360005c600155600160015d60015c600255"
            ],
            "sender": "0xa94f5374fce5edbc8e2a8697c15331677e6ebf0b",
            "secretKey": "0x45a915e4d060149eb4365960e6a7a45f334393093061116b197e3240065ff2d8"
        },
        "post": {
            "Cancun": [
                {
                    "hash": "0x6c7488ff00ddea2dd0d392bfe589c0380320546781c26dabeb00a4fe60fd7fec",
                    "logs": "0x1dcc4de8dec75d7aab85b567b6ccd41ad312451b948a7413f0a142fd40d49347",
                    "txbytes": "0xf884800a85e8d4a5100094000000000000000000000000000000000000100080a260005c60005561001160008160118239f360005c600155600160015d60015c60025525a008ed06c0157a8751027f5a54e36447a0317b9054fe8faacc0e65a5605cb05a84a071c9d0e57c8d1f90a0141d2493f3ef2cd4f7a422a7b70cb57928b72b59156833",
                    "indexes": {
                        "data": 0,
                        "gas": 0,
                        "value": 0
                    }
                }
            ]
        },
        "_info": {
            "hash": "0xc915be9fc0554efdeb3b03af757701c66b177715408f9c00e430d22a3676202a",
            "comment": "`execution-spec-tests` generated test",
            "filling-transition-tool": "evm version 1.13.14-stable",
            "reference-spec": "https://github.com/ethereum/EIPs/blob/master/EIPS/eip-1153.md",
            "reference-spec-version": "6f0be621c76a05a7b3aaf0e9297afd425c26e9d0"
        }
    },
    "tests/cancun/eip1153_tstore/test_tstorage_create_contexts.py::TestTransientStorageInContractCreation::test_contract_creation[fork_Cancun-state_test-across_constructor_and_deployed_code_v0-create]": {
        "env": {
            "currentCoinbase": "0x2adc25665018aa1fe0e6bc666dac8fc2697ff9ba",
            "currentGasLimit": "0x016345785d8a0000",
            "currentNumber": "0x01",
            "currentTimestamp": "0x03e8",
            "currentRandom": "0x0000000000000000000000000000000000000000000000000000000000000000",
            "currentDifficulty": "0x00",
            "currentBaseFee": "0x07",
            "currentExcessBlobGas": "0x00"
        },
        "pre": {
            "0xa94f5374fce5edbc8e2a8697c15331677e6ebf0b": {
                "nonce": "0x00",
                "balance": "0x5af3107a4000",
                "code": "0x",
                "storage": {}
            },
            "0x0000000000000000000000000000000000001000": {
                "nonce": "0x01",
                "balance": "0x00",
                "code": "0x61010060005d61020060015d61030060025d3660006000373660006000f060006000600060006000735bafcc0c93ecd8022925d7fd89da1c6250850e195af160045560005c60005560015c60015560025c600255",
                "storage": {}
            }
        },
        "transaction": {
            "nonce": "0x00",
            "gasPrice": "0x0a",
            "gasLimit": [
                "0xe8d4a51000"
            ],
            "to": "0x0000000000000000000000000000000000001000",
            "value": [
                "0x00"
            ],
            "data": [
                "0x600160015d61001760008160108239f360005c60005560015c600155600160025d60025c600255"
            ],
            "sender": "0xa94f5374fce5edbc8e2a8697c15331677e6ebf0b",
            "secretKey": "0x45a915e4d060149eb4365960e6a7a45f334393093061116b197e3240065ff2d8"
        },
        "post": {
            "Cancun": [
                {
                    "hash": "0xa24a2f9699cf287c7afa79f3a45f409a65feeedc61f7a1ec5de8cc52e3fc3f6e",
                    "logs": "0x1dcc4de8dec75d7aab85b567b6ccd41ad312451b948a7413f0a142fd40d49347",
                    "txbytes": "0xf889800a85e8d4a5100094000000000000000000000000000000000000100080a7600160015d61001760008160108239f360005c60005560015c600155600160025d60025c60025526a08506abb4642a6058de23d2a3313c4519ef3d1335cf0f3e3105fe17cec451ed7ba0409c4b17efba7a8ddf502930708e53c7a081886b45e815db859442e61af1f579",
                    "indexes": {
                        "data": 0,
                        "gas": 0,
                        "value": 0
                    }
                }
            ]
        },
        "_info": {
            "hash": "0x3645f1650defba204b8b51ae6f75d6a7bdb8e320c8270521517592b3f1fa4264",
            "comment": "`execution-spec-tests` generated test",
            "filling-transition-tool": "evm version 1.13.14-stable",
            "reference-spec": "https://github.com/ethereum/EIPs/blob/master/EIPS/eip-1153.md",
            "reference-spec-version": "6f0be621c76a05a7b3aaf0e9297afd425c26e9d0"
        }
    },
    "tests/cancun/eip1153_tstore/test_tstorage_create_contexts.py::TestTransientStorageInContractCreation::test_contract_creation[fork_Cancun-state_test-across_constructor_and_deployed_code_v0-create2]": {
        "env": {
            "currentCoinbase": "0x2adc25665018aa1fe0e6bc666dac8fc2697ff9ba",
            "currentGasLimit": "0x016345785d8a0000",
            "currentNumber": "0x01",
            "currentTimestamp": "0x03e8",
            "currentRandom": "0x0000000000000000000000000000000000000000000000000000000000000000",
            "currentDifficulty": "0x00",
            "currentBaseFee": "0x07",
            "currentExcessBlobGas": "0x00"
        },
        "pre": {
            "0xa94f5374fce5edbc8e2a8697c15331677e6ebf0b": {
                "nonce": "0x00",
                "balance": "0x5af3107a4000",
                "code": "0x",
                "storage": {}
            },
            "0x0000000000000000000000000000000000001000": {
                "nonce": "0x01",
                "balance": "0x00",
                "code": "0x61010060005d61020060015d61030060025d36600060003763deadbeef3660006000f560006000600060006000734c2d49af200ddce2d74781cd55646dfa4917f4125af160045560005c60005560015c60015560025c600255",
                "storage": {}
            }
        },
        "transaction": {
            "nonce": "0x00",
            "gasPrice": "0x0a",
            "gasLimit": [
                "0xe8d4a51000"
            ],
            "to": "0x0000000000000000000000000000000000001000",
            "value": [
                "0x00"
            ],
            "data": [
                "0x600160015d61001760008160108239f360005c60005560015c600155600160025d60025c600255"
            ],
            "sender": "0xa94f5374fce5edbc8e2a8697c15331677e6ebf0b",
            "secretKey": "0x45a915e4d060149eb4365960e6a7a45f334393093061116b197e3240065ff2d8"
        },
        "post": {
            "Cancun": [
                {
                    "hash": "0x0ff2c6786962ea2809fce9cedc77ef34958bca48ae31bea6696c2bff16bc5e27",
                    "logs": "0x1dcc4de8dec75d7aab85b567b6ccd41ad312451b948a7413f0a142fd40d49347",
                    "txbytes": "0xf889800a85e8d4a5100094000000000000000000000000000000000000100080a7600160015d61001760008160108239f360005c60005560015c600155600160025d60025c60025526a08506abb4642a6058de23d2a3313c4519ef3d1335cf0f3e3105fe17cec451ed7ba0409c4b17efba7a8ddf502930708e53c7a081886b45e815db859442e61af1f579",
                    "indexes": {
                        "data": 0,
                        "gas": 0,
                        "value": 0
                    }
                }
            ]
        },
        "_info": {
            "hash": "0xe40cb62d8dde9d942aae680ec355612ad389c348eb5dd5fca628a41a3a9f98a1",
            "comment": "`execution-spec-tests` generated test",
            "filling-transition-tool": "evm version 1.13.14-stable",
            "reference-spec": "https://github.com/ethereum/EIPs/blob/master/EIPS/eip-1153.md",
            "reference-spec-version": "6f0be621c76a05a7b3aaf0e9297afd425c26e9d0"
        }
    },
    "tests/cancun/eip1153_tstore/test_tstorage_create_contexts.py::TestTransientStorageInContractCreation::test_contract_creation[fork_Cancun-state_test-across_constructor_and_deployed_code_v1-create]": {
        "env": {
            "currentCoinbase": "0x2adc25665018aa1fe0e6bc666dac8fc2697ff9ba",
            "currentGasLimit": "0x016345785d8a0000",
            "currentNumber": "0x01",
            "currentTimestamp": "0x03e8",
            "currentRandom": "0x0000000000000000000000000000000000000000000000000000000000000000",
            "currentDifficulty": "0x00",
            "currentBaseFee": "0x07",
            "currentExcessBlobGas": "0x00"
        },
        "pre": {
            "0xa94f5374fce5edbc8e2a8697c15331677e6ebf0b": {
                "nonce": "0x00",
                "balance": "0x5af3107a4000",
                "code": "0x",
                "storage": {}
            },
            "0x0000000000000000000000000000000000001000": {
                "nonce": "0x01",
                "balance": "0x00",
                "code": "0x61010060005d61020060015d61030060025d3660006000373660006000f060006000600060006000735bafcc0c93ecd8022925d7fd89da1c6250850e195af160045560005c60005560015c60015560025c600255",
                "storage": {}
            }
        },
        "transaction": {
            "nonce": "0x00",
            "gasPrice": "0x0a",
            "gasLimit": [
                "0xe8d4a51000"
            ],
            "to": "0x0000000000000000000000000000000000001000",
            "value": [
                "0x00"
            ],
            "data": [
                "0x60005c600055600160015d60015c600155610017600081601c8239f360005c60025560015c600355600160025d60025c600455"
            ],
            "sender": "0xa94f5374fce5edbc8e2a8697c15331677e6ebf0b",
            "secretKey": "0x45a915e4d060149eb4365960e6a7a45f334393093061116b197e3240065ff2d8"
        },
        "post": {
            "Cancun": [
                {
                    "hash": "0x681fe8727da494778cf9b2f77ef05d5a656bb538a1b5fe4911a9132260f8f2b8",
                    "logs": "0x1dcc4de8dec75d7aab85b567b6ccd41ad312451b948a7413f0a142fd40d49347",
                    "txbytes": "0xf895800a85e8d4a5100094000000000000000000000000000000000000100080b360005c600055600160015d60015c600155610017600081601c8239f360005c60025560015c600355600160025d60025c60045526a04faa378a92a7fc5a4189caf6c619719158d8ae692cc139533f5bfc506f2ff7d3a008f4e1facbffc4c57b5662084a8733de9a92e09e545c9b1cdfd909b783eb6137",
                    "indexes": {
                        "data": 0,
                        "gas": 0,
                        "value": 0
                    }
                }
            ]
        },
        "_info": {
            "hash": "0x05032f83727bc7901f1f18f07aa2f1178956b9da8224d3938f1f98edf1e27636",
            "comment": "`execution-spec-tests` generated test",
            "filling-transition-tool": "evm version 1.13.14-stable",
            "reference-spec": "https://github.com/ethereum/EIPs/blob/master/EIPS/eip-1153.md",
            "reference-spec-version": "6f0be621c76a05a7b3aaf0e9297afd425c26e9d0"
        }
    },
    "tests/cancun/eip1153_tstore/test_tstorage_create_contexts.py::TestTransientStorageInContractCreation::test_contract_creation[fork_Cancun-state_test-across_constructor_and_deployed_code_v1-create2]": {
        "env": {
            "currentCoinbase": "0x2adc25665018aa1fe0e6bc666dac8fc2697ff9ba",
            "currentGasLimit": "0x016345785d8a0000",
            "currentNumber": "0x01",
            "currentTimestamp": "0x03e8",
            "currentRandom": "0x0000000000000000000000000000000000000000000000000000000000000000",
            "currentDifficulty": "0x00",
            "currentBaseFee": "0x07",
            "currentExcessBlobGas": "0x00"
        },
        "pre": {
            "0xa94f5374fce5edbc8e2a8697c15331677e6ebf0b": {
                "nonce": "0x00",
                "balance": "0x5af3107a4000",
                "code": "0x",
                "storage": {}
            },
            "0x0000000000000000000000000000000000001000": {
                "nonce": "0x01",
                "balance": "0x00",
                "code": "0x61010060005d61020060015d61030060025d36600060003763deadbeef3660006000f560006000600060006000738997fdcdaca4713f1314c1216daa5ba237989b325af160045560005c60005560015c60015560025c600255",
                "storage": {}
            }
        },
        "transaction": {
            "nonce": "0x00",
            "gasPrice": "0x0a",
            "gasLimit": [
                "0xe8d4a51000"
            ],
            "to": "0x0000000000000000000000000000000000001000",
            "value": [
                "0x00"
            ],
            "data": [
                "0x60005c600055600160015d60015c600155610017600081601c8239f360005c60025560015c600355600160025d60025c600455"
            ],
            "sender": "0xa94f5374fce5edbc8e2a8697c15331677e6ebf0b",
            "secretKey": "0x45a915e4d060149eb4365960e6a7a45f334393093061116b197e3240065ff2d8"
        },
        "post": {
            "Cancun": [
                {
                    "hash": "0x10999ead054a507d38292805c9b35992c631327e329a72d31588a21d7103dc2d",
                    "logs": "0x1dcc4de8dec75d7aab85b567b6ccd41ad312451b948a7413f0a142fd40d49347",
                    "txbytes": "0xf895800a85e8d4a5100094000000000000000000000000000000000000100080b360005c600055600160015d60015c600155610017600081601c8239f360005c60025560015c600355600160025d60025c60045526a04faa378a92a7fc5a4189caf6c619719158d8ae692cc139533f5bfc506f2ff7d3a008f4e1facbffc4c57b5662084a8733de9a92e09e545c9b1cdfd909b783eb6137",
                    "indexes": {
                        "data": 0,
                        "gas": 0,
                        "value": 0
                    }
                }
            ]
        },
        "_info": {
            "hash": "0xb78388dc8c123f436908297b06531b9c6f7f4a3b3a56cd6943c9ca2ae9a783e2",
            "comment": "`execution-spec-tests` generated test",
            "filling-transition-tool": "evm version 1.13.14-stable",
            "reference-spec": "https://github.com/ethereum/EIPs/blob/master/EIPS/eip-1153.md",
            "reference-spec-version": "6f0be621c76a05a7b3aaf0e9297afd425c26e9d0"
        }
    },
    "tests/cancun/eip1153_tstore/test_tstorage_create_contexts.py::TestTransientStorageInContractCreation::test_contract_creation[fork_Cancun-state_test-no_constructor_code-create]": {
        "env": {
            "currentCoinbase": "0x2adc25665018aa1fe0e6bc666dac8fc2697ff9ba",
            "currentGasLimit": "0x016345785d8a0000",
            "currentNumber": "0x01",
            "currentTimestamp": "0x03e8",
            "currentRandom": "0x0000000000000000000000000000000000000000000000000000000000000000",
            "currentDifficulty": "0x00",
            "currentBaseFee": "0x07",
            "currentExcessBlobGas": "0x00"
        },
        "pre": {
            "0xa94f5374fce5edbc8e2a8697c15331677e6ebf0b": {
                "nonce": "0x00",
                "balance": "0x5af3107a4000",
                "code": "0x",
                "storage": {}
            },
            "0x0000000000000000000000000000000000001000": {
                "nonce": "0x01",
                "balance": "0x00",
                "code": "0x61010060005d61020060015d61030060025d3660006000373660006000f060006000600060006000735bafcc0c93ecd8022925d7fd89da1c6250850e195af160045560005c60005560015c60015560025c600255",
                "storage": {}
            }
        },
        "transaction": {
            "nonce": "0x00",
            "gasPrice": "0x0a",
            "gasLimit": [
                "0xe8d4a51000"
            ],
            "to": "0x0000000000000000000000000000000000001000",
            "value": [
                "0x00"
            ],
            "data": [
                "0x610011600081600b8239f360005c600055600160005d60005c600155"
            ],
            "sender": "0xa94f5374fce5edbc8e2a8697c15331677e6ebf0b",
            "secretKey": "0x45a915e4d060149eb4365960e6a7a45f334393093061116b197e3240065ff2d8"
        },
        "post": {
            "Cancun": [
                {
                    "hash": "0x1bc751cc5e50d054c622cbf55efed023924437fc882f5806cdb69d945500481e",
                    "logs": "0x1dcc4de8dec75d7aab85b567b6ccd41ad312451b948a7413f0a142fd40d49347",
                    "txbytes": "0xf87e800a85e8d4a51000940000000000000000000000000000000000001000809c610011600081600b8239f360005c600055600160005d60005c60015525a0191e81881da8be4ad528d5ab272cba0df4e99385061ad1cf49fe2eeeacfa1ad1a00c2ce2f3fea6fc91981ecd17d5576242115264cf11bf935c821ee555bb08f0a8",
                    "indexes": {
                        "data": 0,
                        "gas": 0,
                        "value": 0
                    }
                }
            ]
        },
        "_info": {
            "hash": "0x919d460a4c9c210f3f3a72ae5a311b9ec20a854cc6fbb04a7cb759a15b92f57d",
            "comment": "`execution-spec-tests` generated test",
            "filling-transition-tool": "evm version 1.13.14-stable",
            "reference-spec": "https://github.com/ethereum/EIPs/blob/master/EIPS/eip-1153.md",
            "reference-spec-version": "6f0be621c76a05a7b3aaf0e9297afd425c26e9d0"
        }
    },
    "tests/cancun/eip1153_tstore/test_tstorage_create_contexts.py::TestTransientStorageInContractCreation::test_contract_creation[fork_Cancun-state_test-no_constructor_code-create2]": {
        "env": {
            "currentCoinbase": "0x2adc25665018aa1fe0e6bc666dac8fc2697ff9ba",
            "currentGasLimit": "0x016345785d8a0000",
            "currentNumber": "0x01",
            "currentTimestamp": "0x03e8",
            "currentRandom": "0x0000000000000000000000000000000000000000000000000000000000000000",
            "currentDifficulty": "0x00",
            "currentBaseFee": "0x07",
            "currentExcessBlobGas": "0x00"
        },
        "pre": {
            "0xa94f5374fce5edbc8e2a8697c15331677e6ebf0b": {
                "nonce": "0x00",
                "balance": "0x5af3107a4000",
                "code": "0x",
                "storage": {}
            },
            "0x0000000000000000000000000000000000001000": {
                "nonce": "0x01",
                "balance": "0x00",
                "code": "0x61010060005d61020060015d61030060025d36600060003763deadbeef3660006000f5600060006000600060007321f217c0008fdc8b01d290034e6e5803cd6b0cae5af160045560005c60005560015c60015560025c600255",
                "storage": {}
            }
        },
        "transaction": {
            "nonce": "0x00",
            "gasPrice": "0x0a",
            "gasLimit": [
                "0xe8d4a51000"
            ],
            "to": "0x0000000000000000000000000000000000001000",
            "value": [
                "0x00"
            ],
            "data": [
                "0x610011600081600b8239f360005c600055600160005d60005c600155"
            ],
            "sender": "0xa94f5374fce5edbc8e2a8697c15331677e6ebf0b",
            "secretKey": "0x45a915e4d060149eb4365960e6a7a45f334393093061116b197e3240065ff2d8"
        },
        "post": {
            "Cancun": [
                {
                    "hash": "0xe6ba2ae3bf9b98da98384da58bee1997f29f74c37f353813db5ab506597ef770",
                    "logs": "0x1dcc4de8dec75d7aab85b567b6ccd41ad312451b948a7413f0a142fd40d49347",
                    "txbytes": "0xf87e800a85e8d4a51000940000000000000000000000000000000000001000809c610011600081600b8239f360005c600055600160005d60005c60015525a0191e81881da8be4ad528d5ab272cba0df4e99385061ad1cf49fe2eeeacfa1ad1a00c2ce2f3fea6fc91981ecd17d5576242115264cf11bf935c821ee555bb08f0a8",
                    "indexes": {
                        "data": 0,
                        "gas": 0,
                        "value": 0
                    }
                }
            ]
        },
        "_info": {
            "hash": "0x33028e11f6be8622c95917b9ca0722a66e8446635cf1af42ae9f1d373bfe1ed8",
            "comment": "`execution-spec-tests` generated test",
            "filling-transition-tool": "evm version 1.13.14-stable",
            "reference-spec": "https://github.com/ethereum/EIPs/blob/master/EIPS/eip-1153.md",
            "reference-spec-version": "6f0be621c76a05a7b3aaf0e9297afd425c26e9d0"
        }
    }
}