{
    "tests/cancun/eip4788_beacon_root/test_beacon_root_contract.py::test_no_beacon_root_contract_at_transition[fork_ShanghaiToCancunAtTime15k-blockchain_test-timestamp_15000]": {
        "network": "ShanghaiToCancunAtTime15k",
        "genesisBlockHeader": {
            "parentHash": "0x0000000000000000000000000000000000000000000000000000000000000000",
            "uncleHash": "0x1dcc4de8dec75d7aab85b567b6ccd41ad312451b948a7413f0a142fd40d49347",
            "coinbase": "0x0000000000000000000000000000000000000000",
            "stateRoot": "0x371b38b44a90319688259f9e21a3a314461907d0d34b461202c011593946ac7f",
            "transactionsTrie": "0x56e81f171bcc55a6ff8345e692c0f86e5b48e01b996cadc001622fb5e363b421",
            "receiptTrie": "0x56e81f171bcc55a6ff8345e692c0f86e5b48e01b996cadc001622fb5e363b421",
            "bloom": "0x00000000000000000000000000000000000000000000000000000000000000000000000000000000000000000000000000000000000000000000000000000000000000000000000000000000000000000000000000000000000000000000000000000000000000000000000000000000000000000000000000000000000000000000000000000000000000000000000000000000000000000000000000000000000000000000000000000000000000000000000000000000000000000000000000000000000000000000000000000000000000000000000000000000000000000000000000000000000000000000000000000000000000000000000000000000",
            "difficulty": "0x00",
            "number": "0x00",
            "gasLimit": "0x016345785d8a0000",
            "gasUsed": "0x00",
            "timestamp": "0x00",
            "extraData": "0x00",
            "mixHash": "0x0000000000000000000000000000000000000000000000000000000000000000",
            "nonce": "0x0000000000000000",
            "baseFeePerGas": "0x07",
            "withdrawalsRoot": "0x56e81f171bcc55a6ff8345e692c0f86e5b48e01b996cadc001622fb5e363b421",
            "hash": "0x14c098eca65ab4eb6f171a10c5ad6bde00b5a6bcbfce34ecebd5307770536c77"
        },
        "pre": {
            "0xa94f5374fce5edbc8e2a8697c15331677e6ebf0b": {
                "nonce": "0x00",
                "balance": "0x010000000000",
                "code": "0x",
                "storage": {}
            },
            "0x0000000000000000000000000000000000001000": {
                "nonce": "0x00",
                "balance": "0x010000000000",
                "code": "0x366000602037602060003660206000720f3df6d732807ef1319fb7b8bb8522d0beac02620186a0f16000556000516001553d6002553d600060003e600051600355",
                "storage": {}
            }
        },
        "postState": {
            "0x0000000000000000000000000000000000001000": {
                "nonce": "0x00",
                "balance": "0x010000000000",
                "code": "0x366000602037602060003660206000720f3df6d732807ef1319fb7b8bb8522d0beac02620186a0f16000556000516001553d6002553d600060003e600051600355",
                "storage": {
                    "0x00": "0x01"
                }
            },
            "0x000f3df6d732807ef1319fb7b8bb8522d0beac02": {
                "nonce": "0x00",
                "balance": "0x3b9aca00",
                "code": "0x",
                "storage": {}
            },
            "0xa94f5374fce5edbc8e2a8697c15331677e6ebf0b": {
                "nonce": "0x01",
                "balance": "0xfffffa63a9",
                "code": "0x",
                "storage": {}
            },
            "0xfffffffffffffffffffffffffffffffffffffffe": {
                "nonce": "0x00",
                "balance": "0x3b9aca00",
                "code": "0x",
                "storage": {}
            }
        },
        "genesisRLP": "0xf9021df90217a00000000000000000000000000000000000000000000000000000000000000000a01dcc4de8dec75d7aab85b567b6ccd41ad312451b948a7413f0a142fd40d49347940000000000000000000000000000000000000000a0371b38b44a90319688259f9e21a3a314461907d0d34b461202c011593946ac7fa056e81f171bcc55a6ff8345e692c0f86e5b48e01b996cadc001622fb5e363b421a056e81f171bcc55a6ff8345e692c0f86e5b48e01b996cadc001622fb5e363b421b9010000000000000000000000000000000000000000000000000000000000000000000000000000000000000000000000000000000000000000000000000000000000000000000000000000000000000000000000000000000000000000000000000000000000000000000000000000000000000000000000000000000000000000000000000000000000000000000000000000000000000000000000000000000000000000000000000000000000000000000000000000000000000000000000000000000000000000000000000000000000000000000000000000000000000000000000000000000000000000000000000000000000000000000000000000000000808088016345785d8a0000808000a0000000000000000000000000000000000000000000000000000000000000000088000000000000000007a056e81f171bcc55a6ff8345e692c0f86e5b48e01b996cadc001622fb5e363b421c0c0c0",
        "blocks": [
            {
                "blockHeader": {
                    "parentHash": "0x14c098eca65ab4eb6f171a10c5ad6bde00b5a6bcbfce34ecebd5307770536c77",
                    "uncleHash": "0x1dcc4de8dec75d7aab85b567b6ccd41ad312451b948a7413f0a142fd40d49347",
                    "coinbase": "0x2adc25665018aa1fe0e6bc666dac8fc2697ff9ba",
                    "stateRoot": "0xf842f763d7fe2a2b90f489aae52af08d4a7d51c72eccdf7864fdf9e642cd731c",
                    "transactionsTrie": "0x1124cb5edf02a0f283d7be8fa1a2906916fadfb7991412d233399433624c4910",
                    "receiptTrie": "0x037c6a35920271e48744434ea58c2e865d703f151d7bfea7a823cfc9b4232bbb",
                    "bloom": "0x00000000000000000000000000000000000000000000000000000000000000000000000000000000000000000000000000000000000000000000000000000000000000000000000000000000000000000000000000000000000000000000000000000000000000000000000000000000000000000000000000000000000000000000000000000000000000000000000000000000000000000000000000000000000000000000000000000000000000000000000000000000000000000000000000000000000000000000000000000000000000000000000000000000000000000000000000000000000000000000000000000000000000000000000000000000",
                    "difficulty": "0x00",
                    "number": "0x01",
                    "gasLimit": "0x016345785d8a0000",
                    "gasUsed": "0xcd31",
                    "timestamp": "0x3a98",
                    "extraData": "0x",
                    "mixHash": "0x0000000000000000000000000000000000000000000000000000000000000000",
                    "nonce": "0x0000000000000000",
                    "baseFeePerGas": "0x07",
                    "withdrawalsRoot": "0x2aef4d3e6939af0b4bf4c0e7572a214eb7db9ba52937e1e82ad6c64b52d2e8bb",
                    "blobGasUsed": "0x00",
                    "excessBlobGas": "0x00",
                    "parentBeaconBlockRoot": "0x6c31fc15422ebad28aaf9089c306702f67540b53c7eea8b7d2941044b027100f",
                    "hash": "0xfae9d36ed7daffe46e5e8b164608e29e6c6a892aa0ddcdc261d7330f5d2eb208"
                },
                "transactions": [
                    {
                        "type": "0x02",
                        "chainId": "0x01",
                        "nonce": "0x00",
                        "maxPriorityFeePerGas": "0x00",
                        "maxFeePerGas": "0x07",
                        "gasLimit": "0x0f4240",
                        "to": "0x0000000000000000000000000000000000001000",
                        "value": "0x00",
                        "data": "0x0000000000000000000000000000000000000000000000000000000000003a98",
                        "accessList": [],
                        "v": "0x00",
                        "r": "0x35a9aa16fe32dff96fddf1494ea4ad97520df717a9dc57949a3adffe8c2bbed6",
                        "s": "0x163da6b9f4800e493c5b7ed7d81dcc93fdd7f656fa5e183eab7a41427a01f45e",
                        "sender": "0xa94f5374fce5edbc8e2a8697c15331677e6ebf0b"
                    }
                ],
                "uncleHeaders": [],
                "withdrawals": [
                    {
                        "index": "0x00",
                        "validatorIndex": "0x00",
                        "address": "0x000f3df6d732807ef1319fb7b8bb8522d0beac02",
                        "amount": "0x01"
                    },
                    {
                        "index": "0x01",
                        "validatorIndex": "0x01",
                        "address": "0xfffffffffffffffffffffffffffffffffffffffe",
                        "amount": "0x01"
                    }
                ],
                "rlp": "0xf902fff9023ea014c098eca65ab4eb6f171a10c5ad6bde00b5a6bcbfce34ecebd5307770536c77a01dcc4de8dec75d7aab85b567b6ccd41ad312451b948a7413f0a142fd40d49347942adc25665018aa1fe0e6bc666dac8fc2697ff9baa0f842f763d7fe2a2b90f489aae52af08d4a7d51c72eccdf7864fdf9e642cd731ca01124cb5edf02a0f283d7be8fa1a2906916fadfb7991412d233399433624c4910a0037c6a35920271e48744434ea58c2e865d703f151d7bfea7a823cfc9b4232bbbb9010000000000000000000000000000000000000000000000000000000000000000000000000000000000000000000000000000000000000000000000000000000000000000000000000000000000000000000000000000000000000000000000000000000000000000000000000000000000000000000000000000000000000000000000000000000000000000000000000000000000000000000000000000000000000000000000000000000000000000000000000000000000000000000000000000000000000000000000000000000000000000000000000000000000000000000000000000000000000000000000000000000000000000000000000000000000800188016345785d8a000082cd31823a9880a0000000000000000000000000000000000000000000000000000000000000000088000000000000000007a02aef4d3e6939af0b4bf4c0e7572a214eb7db9ba52937e1e82ad6c64b52d2e8bb8080a06c31fc15422ebad28aaf9089c306702f67540b53c7eea8b7d2941044b027100ff888b88602f88301808007830f424094000000000000000000000000000000000000100080a00000000000000000000000000000000000000000000000000000000000003a98c080a035a9aa16fe32dff96fddf1494ea4ad97520df717a9dc57949a3adffe8c2bbed6a0163da6b9f4800e493c5b7ed7d81dcc93fdd7f656fa5e183eab7a41427a01f45ec0f2d8808094000f3df6d732807ef1319fb7b8bb8522d0beac0201d8010194fffffffffffffffffffffffffffffffffffffffe01",
                "blocknumber": "1"
            }
        ],
        "lastblockhash": "0xfae9d36ed7daffe46e5e8b164608e29e6c6a892aa0ddcdc261d7330f5d2eb208",
        "sealEngine": "NoProof",
        "_info": {
            "hash": "0xd878c66ed2d6c49a2bd328f63156f27c1cabb3b711a9abce986c73764566995c",
            "comment": "`execution-spec-tests` generated test",
            "filling-transition-tool": "evm version 1.13.14-stable",
            "reference-spec": "https://github.com/ethereum/EIPs/blob/master/EIPS/eip-4788.md",
            "reference-spec-version": "e7608fe8ac8a60934ca874f5aab7d5c1f4ff7782"
        }
    }
}