{
    "tests/cancun/eip4788_beacon_root/test_beacon_root_contract.py::test_no_beacon_root_contract_at_transition[fork_ShanghaiToCancunAtTime15k-blockchain_test_hive-timestamp_15000]": {
        "network": "ShanghaiToCancunAtTime15k",
        "genesisBlockHeader": {
            "parentHash": "0x0000000000000000000000000000000000000000000000000000000000000000",
            "uncleHash": "0x1dcc4de8dec75d7aab85b567b6ccd41ad312451b948a7413f0a142fd40d49347",
            "coinbase": "0x0000000000000000000000000000000000000000",
            "stateRoot": "0x371b38b44a90319688259f9e21a3a314461907d0d34b461202c011593946ac7f",
            "transactionsTrie": "0x56e81f171bcc55a6ff8345e692c0f86e5b48e01b996cadc001622fb5e363b421",
            "receiptTrie": "0x56e81f171bcc55a6ff8345e692c0f86e5b48e01b996cadc001622fb5e363b421",
            "bloom": "0x00000000000000000000000000000000000000000000000000000000000000000000000000000000000000000000000000000000000000000000000000000000000000000000000000000000000000000000000000000000000000000000000000000000000000000000000000000000000000000000000000000000000000000000000000000000000000000000000000000000000000000000000000000000000000000000000000000000000000000000000000000000000000000000000000000000000000000000000000000000000000000000000000000000000000000000000000000000000000000000000000000000000000000000000000000000",
            "difficulty": "0x00",
            "number": "0x00",
            "gasLimit": "0x016345785d8a0000",
            "gasUsed": "0x00",
            "timestamp": "0x00",
            "extraData": "0x00",
            "mixHash": "0x0000000000000000000000000000000000000000000000000000000000000000",
            "nonce": "0x0000000000000000",
            "baseFeePerGas": "0x07",
            "withdrawalsRoot": "0x56e81f171bcc55a6ff8345e692c0f86e5b48e01b996cadc001622fb5e363b421",
            "hash": "0x14c098eca65ab4eb6f171a10c5ad6bde00b5a6bcbfce34ecebd5307770536c77"
        },
        "pre": {
            "0xa94f5374fce5edbc8e2a8697c15331677e6ebf0b": {
                "nonce": "0x00",
                "balance": "0x010000000000",
                "code": "0x",
                "storage": {}
            },
            "0x0000000000000000000000000000000000001000": {
                "nonce": "0x00",
                "balance": "0x010000000000",
                "code": "0x366000602037602060003660206000720f3df6d732807ef1319fb7b8bb8522d0beac02620186a0f16000556000516001553d6002553d600060003e600051600355",
                "storage": {}
            }
        },
        "postState": {
            "0x0000000000000000000000000000000000001000": {
                "nonce": "0x00",
                "balance": "0x010000000000",
                "code": "0x366000602037602060003660206000720f3df6d732807ef1319fb7b8bb8522d0beac02620186a0f16000556000516001553d6002553d600060003e600051600355",
                "storage": {
                    "0x00": "0x01"
                }
            },
            "0x000f3df6d732807ef1319fb7b8bb8522d0beac02": {
                "nonce": "0x00",
                "balance": "0x3b9aca00",
                "code": "0x",
                "storage": {}
            },
            "0xa94f5374fce5edbc8e2a8697c15331677e6ebf0b": {
                "nonce": "0x01",
                "balance": "0xfffffa63a9",
                "code": "0x",
                "storage": {}
            },
            "0xfffffffffffffffffffffffffffffffffffffffe": {
                "nonce": "0x00",
                "balance": "0x3b9aca00",
                "code": "0x",
                "storage": {}
            }
        },
        "engineNewPayloads": [
            {
                "executionPayload": {
                    "parentHash": "0x14c098eca65ab4eb6f171a10c5ad6bde00b5a6bcbfce34ecebd5307770536c77",
                    "feeRecipient": "0x2adc25665018aa1fe0e6bc666dac8fc2697ff9ba",
                    "stateRoot": "0xf842f763d7fe2a2b90f489aae52af08d4a7d51c72eccdf7864fdf9e642cd731c",
                    "receiptsRoot": "0x037c6a35920271e48744434ea58c2e865d703f151d7bfea7a823cfc9b4232bbb",
                    "logsBloom": "0x00000000000000000000000000000000000000000000000000000000000000000000000000000000000000000000000000000000000000000000000000000000000000000000000000000000000000000000000000000000000000000000000000000000000000000000000000000000000000000000000000000000000000000000000000000000000000000000000000000000000000000000000000000000000000000000000000000000000000000000000000000000000000000000000000000000000000000000000000000000000000000000000000000000000000000000000000000000000000000000000000000000000000000000000000000000",
                    "blockNumber": "0x1",
                    "gasLimit": "0x16345785d8a0000",
                    "gasUsed": "0xcd31",
                    "timestamp": "0x3a98",
                    "extraData": "0x",
                    "prevRandao": "0x0000000000000000000000000000000000000000000000000000000000000000",
                    "baseFeePerGas": "0x7",
                    "blobGasUsed": "0x0",
                    "excessBlobGas": "0x0",
                    "blockHash": "0xfae9d36ed7daffe46e5e8b164608e29e6c6a892aa0ddcdc261d7330f5d2eb208",
                    "transactions": [
                        "0x02f88301808007830f424094000000000000000000000000000000000000100080a00000000000000000000000000000000000000000000000000000000000003a98c080a035a9aa16fe32dff96fddf1494ea4ad97520df717a9dc57949a3adffe8c2bbed6a0163da6b9f4800e493c5b7ed7d81dcc93fdd7f656fa5e183eab7a41427a01f45e"
                    ],
                    "withdrawals": [
                        {
                            "index": "0x0",
                            "validatorIndex": "0x0",
                            "address": "0x000f3df6d732807ef1319fb7b8bb8522d0beac02",
                            "amount": "0x1"
                        },
                        {
                            "index": "0x1",
                            "validatorIndex": "0x1",
                            "address": "0xfffffffffffffffffffffffffffffffffffffffe",
                            "amount": "0x1"
                        }
                    ]
                },
                "version": "3",
                "expectedBlobVersionedHashes": [],
                "parentBeaconBlockRoot": "0x6c31fc15422ebad28aaf9089c306702f67540b53c7eea8b7d2941044b027100f"
            }
        ],
        "engineFcuVersion": "3",
        "_info": {
            "hash": "0x845bacbf1b4b8140d52f290ed0223492b39f2818e99fdaf83657c9e487afff9b",
            "comment": "`execution-spec-tests` generated test",
            "filling-transition-tool": "evm version 1.14.4-unstable-44a50c9f-20240510",
            "reference-spec": "https://github.com/ethereum/EIPs/blob/master/EIPS/eip-4788.md",
            "reference-spec-version": "e7608fe8ac8a60934ca874f5aab7d5c1f4ff7782"
        }
    }
}