{
    "tests/paris/security/test_selfdestruct_balance_bug.py::test_tx_selfdestruct_balance_bug[fork_Paris-blockchain_test_hive]": {
        "network": "Paris",
        "genesisBlockHeader": {
            "parentHash": "0x0000000000000000000000000000000000000000000000000000000000000000",
            "uncleHash": "0x1dcc4de8dec75d7aab85b567b6ccd41ad312451b948a7413f0a142fd40d49347",
            "coinbase": "0x0000000000000000000000000000000000000000",
            "stateRoot": "0x6a25755ef4ab6363a1476d1c706ce0962900e8177afe7b9dd9974966ef3f3ed5",
            "transactionsTrie": "0x56e81f171bcc55a6ff8345e692c0f86e5b48e01b996cadc001622fb5e363b421",
            "receiptTrie": "0x56e81f171bcc55a6ff8345e692c0f86e5b48e01b996cadc001622fb5e363b421",
            "bloom": "0x00000000000000000000000000000000000000000000000000000000000000000000000000000000000000000000000000000000000000000000000000000000000000000000000000000000000000000000000000000000000000000000000000000000000000000000000000000000000000000000000000000000000000000000000000000000000000000000000000000000000000000000000000000000000000000000000000000000000000000000000000000000000000000000000000000000000000000000000000000000000000000000000000000000000000000000000000000000000000000000000000000000000000000000000000000000",
            "difficulty": "0x00",
            "number": "0x00",
            "gasLimit": "0x016345785d8a0000",
            "gasUsed": "0x00",
            "timestamp": "0x00",
            "extraData": "0x00",
            "mixHash": "0x0000000000000000000000000000000000000000000000000000000000000000",
            "nonce": "0x0000000000000000",
            "baseFeePerGas": "0x07",
            "hash": "0x0072487cc0d0e5b14e36bfc82c71a61c50b9b18e44439ac053801b96c42d46df"
        },
        "pre": {
            "0xa94f5374fce5edbc8e2a8697c15331677e6ebf0b": {
                "nonce": "0x00",
                "balance": "0x3b9aca00",
                "code": "0x",
                "storage": {}
            },
            "0x00000000000000000000000000000000000000cc": {
                "nonce": "0x01",
                "balance": "0x3b9aca00",
                "code": "0x60aa3b6000600060aa3c60aa3b60006003f06000600060006000600073864bbda5c698ac34b47a9ea3bd4228802cc5ce3b620186a0f162ca1101556000600060006000600173864bbda5c698ac34b47a9ea3bd4228802cc5ce3b620186a0f1",
                "storage": {}
            },
            "0x000000000000000000000000000000000000ba11": {
                "nonce": "0x00",
                "balance": "0x00",
                "code": "0x73864bbda5c698ac34b47a9ea3bd4228802cc5ce3b31620ba1aa55",
                "storage": {}
            },
            "0x000000000000000000000000000000000000ba12": {
                "nonce": "0x00",
                "balance": "0x00",
                "code": "0x73864bbda5c698ac34b47a9ea3bd4228802cc5ce3b31620ba1aa55",
                "storage": {}
            },
            "0x00000000000000000000000000000000000000aa": {
                "nonce": "0x00",
                "balance": "0x00",
                "code": "0x61001c600081600b8239f334600014601857346001146010575b005b47600055600e565b60aaff",
                "storage": {}
            }
        },
        "postState": {
            "0x00000000000000000000000000000000000000aa": {
                "nonce": "0x00",
                "balance": "0x03",
                "code": "0x61001c600081600b8239f334600014601857346001146010575b005b47600055600e565b60aaff",
                "storage": {}
            },
            "0x00000000000000000000000000000000000000cc": {
                "nonce": "0x02",
                "balance": "0x3b9ac9fc",
                "code": "0x60aa3b6000600060aa3c60aa3b60006003f06000600060006000600073864bbda5c698ac34b47a9ea3bd4228802cc5ce3b620186a0f162ca1101556000600060006000600173864bbda5c698ac34b47a9ea3bd4228802cc5ce3b620186a0f1",
                "storage": {
                    "0xca1101": "0x01"
                }
            },
            "0x000000000000000000000000000000000000ba11": {
                "nonce": "0x00",
                "balance": "0x00",
                "code": "0x73864bbda5c698ac34b47a9ea3bd4228802cc5ce3b31620ba1aa55",
                "storage": {}
            },
            "0x000000000000000000000000000000000000ba12": {
                "nonce": "0x00",
                "balance": "0x00",
                "code": "0x73864bbda5c698ac34b47a9ea3bd4228802cc5ce3b31620ba1aa55",
                "storage": {
                    "0x0ba1aa": "0x05"
                }
            },
            "0x2adc25665018aa1fe0e6bc666dac8fc2697ff9ba": {
                "nonce": "0x00",
                "balance": "0x099f4e",
                "code": "0x",
                "storage": {}
            },
            "0x864bbda5c698ac34b47a9ea3bd4228802cc5ce3b": {
                "nonce": "0x00",
                "balance": "0x05",
                "code": "0x",
                "storage": {}
            },
            "0xa94f5374fce5edbc8e2a8697c15331677e6ebf0b": {
                "nonce": "0x04",
                "balance": "0x3b7ab6f7",
                "code": "0x",
                "storage": {}
            }
        },
        "engineNewPayloads": [
            {
                "executionPayload": {
                    "parentHash": "0x0072487cc0d0e5b14e36bfc82c71a61c50b9b18e44439ac053801b96c42d46df",
                    "feeRecipient": "0x2adc25665018aa1fe0e6bc666dac8fc2697ff9ba",
                    "stateRoot": "0x784b5bf4cdac3b738a2e84c5c05697b8feb6c0a2f8764dfa02391914ff0e1d4e",
                    "receiptsRoot": "0x2dfd10b10e18070686b373aabc036eb2b4872c3658542a235681fddf8c23b6e4",
                    "logsBloom": "0x00000000000000000000000000000000000000000000000000000000000000000000000000000000000000000000000000000000000000000000000000000000000000000000000000000000000000000000000000000000000000000000000000000000000000000000000000000000000000000000000000000000000000000000000000000000000000000000000000000000000000000000000000000000000000000000000000000000000000000000000000000000000000000000000000000000000000000000000000000000000000000000000000000000000000000000000000000000000000000000000000000000000000000000000000000000",
                    "blockNumber": "0x1",
                    "gasLimit": "0x16345785d8a0000",
                    "gasUsed": "0x3351a",
                    "timestamp": "0xc",
                    "extraData": "0x",
                    "prevRandao": "0x0000000000000000000000000000000000000000000000000000000000000000",
                    "baseFeePerGas": "0x7",
                    "blockHash": "0x9cada6370f1c39d6e40e53e57ac967904f65de75dac01500417f700f8d03c34c",
                    "transactions": [
                        "0xf860800a830f42409400000000000000000000000000000000000000cc808026a0ccba01db2304343a85970166cada3a975f30075a600d3686102ae6d07b5a8295a0417b652184cdc19ba7cf787d7fa0658b7222616b4962aec60a29a41d26b22f72",
                        "0xf860010a830186a094000000000000000000000000000000000000ba11808025a08388daba93f7822d3182dab304cc4edc82072c35374944f93a650c033169488aa012cc16a5c3327aade9b3215c9de2f844704be1683398e6f419674186531a6353",
                        "0xf860020a830186a094864bbda5c698ac34b47a9ea3bd4228802cc5ce3b058026a0c23895b8eef67d060fa6365e97fd3edfae9a42d1e004dd143ddb8c60d1c4d016a0555733cc482d7b453b61ef44ad12b6e007a0bd11b4647e86bd5a1ce63cf6e022",
                        "0xf860030a830186a094000000000000000000000000000000000000ba12808026a089fa4e48f8f7c161bd227c6e116bb33a84633f478496f0f10a1cb634dbd16c7da006191b9b2fd038d0abdc937351f90fd08bc54e8acb31f7d5bf0b3327d12067d7"
                    ]
                },
                "version": "1"
            }
        ],
        "engineFcuVersion": "1",
        "_info": {
            "hash": "0xdb5c5f48b08fd638ad60796b44c4bb7e4b3b4d2fb02b838ce489aa2e6d600b5e",
            "comment": "`execution-spec-tests` generated test",
            "filling-transition-tool": "evm version 1.14.1-unstable-d6e91e2e-20240507"
        }
    },
    "tests/paris/security/test_selfdestruct_balance_bug.py::test_tx_selfdestruct_balance_bug[fork_Shanghai-blockchain_test_hive]": {
        "network": "Shanghai",
        "genesisBlockHeader": {
            "parentHash": "0x0000000000000000000000000000000000000000000000000000000000000000",
            "uncleHash": "0x1dcc4de8dec75d7aab85b567b6ccd41ad312451b948a7413f0a142fd40d49347",
            "coinbase": "0x0000000000000000000000000000000000000000",
            "stateRoot": "0x6a25755ef4ab6363a1476d1c706ce0962900e8177afe7b9dd9974966ef3f3ed5",
            "transactionsTrie": "0x56e81f171bcc55a6ff8345e692c0f86e5b48e01b996cadc001622fb5e363b421",
            "receiptTrie": "0x56e81f171bcc55a6ff8345e692c0f86e5b48e01b996cadc001622fb5e363b421",
            "bloom": "0x00000000000000000000000000000000000000000000000000000000000000000000000000000000000000000000000000000000000000000000000000000000000000000000000000000000000000000000000000000000000000000000000000000000000000000000000000000000000000000000000000000000000000000000000000000000000000000000000000000000000000000000000000000000000000000000000000000000000000000000000000000000000000000000000000000000000000000000000000000000000000000000000000000000000000000000000000000000000000000000000000000000000000000000000000000000",
            "difficulty": "0x00",
            "number": "0x00",
            "gasLimit": "0x016345785d8a0000",
            "gasUsed": "0x00",
            "timestamp": "0x00",
            "extraData": "0x00",
            "mixHash": "0x0000000000000000000000000000000000000000000000000000000000000000",
            "nonce": "0x0000000000000000",
            "baseFeePerGas": "0x07",
            "withdrawalsRoot": "0x56e81f171bcc55a6ff8345e692c0f86e5b48e01b996cadc001622fb5e363b421",
            "hash": "0xa35684782f8f2b5c19bfd3d903155e28b4b41e0616bff9cd47e8736832c26e99"
        },
        "pre": {
            "0xa94f5374fce5edbc8e2a8697c15331677e6ebf0b": {
                "nonce": "0x00",
                "balance": "0x3b9aca00",
                "code": "0x",
                "storage": {}
            },
            "0x00000000000000000000000000000000000000cc": {
                "nonce": "0x01",
                "balance": "0x3b9aca00",
                "code": "0x60aa3b6000600060aa3c60aa3b60006003f06000600060006000600073864bbda5c698ac34b47a9ea3bd4228802cc5ce3b620186a0f162ca1101556000600060006000600173864bbda5c698ac34b47a9ea3bd4228802cc5ce3b620186a0f1",
                "storage": {}
            },
            "0x000000000000000000000000000000000000ba11": {
                "nonce": "0x00",
                "balance": "0x00",
                "code": "0x73864bbda5c698ac34b47a9ea3bd4228802cc5ce3b31620ba1aa55",
                "storage": {}
            },
            "0x000000000000000000000000000000000000ba12": {
                "nonce": "0x00",
                "balance": "0x00",
                "code": "0x73864bbda5c698ac34b47a9ea3bd4228802cc5ce3b31620ba1aa55",
                "storage": {}
            },
            "0x00000000000000000000000000000000000000aa": {
                "nonce": "0x00",
                "balance": "0x00",
                "code": "0x61001c600081600b8239f334600014601857346001146010575b005b47600055600e565b60aaff",
                "storage": {}
            }
        },
        "postState": {
            "0x00000000000000000000000000000000000000aa": {
                "nonce": "0x00",
                "balance": "0x03",
                "code": "0x61001c600081600b8239f334600014601857346001146010575b005b47600055600e565b60aaff",
                "storage": {}
            },
            "0x00000000000000000000000000000000000000cc": {
                "nonce": "0x02",
                "balance": "0x3b9ac9fc",
                "code": "0x60aa3b6000600060aa3c60aa3b60006003f06000600060006000600073864bbda5c698ac34b47a9ea3bd4228802cc5ce3b620186a0f162ca1101556000600060006000600173864bbda5c698ac34b47a9ea3bd4228802cc5ce3b620186a0f1",
                "storage": {
                    "0xca1101": "0x01"
                }
            },
            "0x000000000000000000000000000000000000ba11": {
                "nonce": "0x00",
                "balance": "0x00",
                "code": "0x73864bbda5c698ac34b47a9ea3bd4228802cc5ce3b31620ba1aa55",
                "storage": {}
            },
            "0x000000000000000000000000000000000000ba12": {
                "nonce": "0x00",
                "balance": "0x00",
                "code": "0x73864bbda5c698ac34b47a9ea3bd4228802cc5ce3b31620ba1aa55",
                "storage": {
                    "0x0ba1aa": "0x05"
                }
            },
            "0x2adc25665018aa1fe0e6bc666dac8fc2697ff9ba": {
                "nonce": "0x00",
                "balance": "0x099f5a",
                "code": "0x",
                "storage": {}
            },
            "0x864bbda5c698ac34b47a9ea3bd4228802cc5ce3b": {
                "nonce": "0x00",
                "balance": "0x05",
                "code": "0x",
                "storage": {}
            },
            "0xa94f5374fce5edbc8e2a8697c15331677e6ebf0b": {
                "nonce": "0x04",
                "balance": "0x3b7ab6cf",
                "code": "0x",
                "storage": {}
            }
        },
        "engineNewPayloads": [
            {
                "executionPayload": {
                    "parentHash": "0xa35684782f8f2b5c19bfd3d903155e28b4b41e0616bff9cd47e8736832c26e99",
                    "feeRecipient": "0x2adc25665018aa1fe0e6bc666dac8fc2697ff9ba",
                    "stateRoot": "0x6d99468b3cbbf53354f96d99490526cae87be96dd0356abda3abd70d5a0012ce",
                    "receiptsRoot": "0xfd5d74b750276cfcf3e738ec8e4b838e7d5cf8ef0f567e6ba7030af4a4cff130",
                    "logsBloom": "0x00000000000000000000000000000000000000000000000000000000000000000000000000000000000000000000000000000000000000000000000000000000000000000000000000000000000000000000000000000000000000000000000000000000000000000000000000000000000000000000000000000000000000000000000000000000000000000000000000000000000000000000000000000000000000000000000000000000000000000000000000000000000000000000000000000000000000000000000000000000000000000000000000000000000000000000000000000000000000000000000000000000000000000000000000000000",
                    "blockNumber": "0x1",
                    "gasLimit": "0x16345785d8a0000",
                    "gasUsed": "0x3351e",
                    "timestamp": "0xc",
                    "extraData": "0x",
                    "prevRandao": "0x0000000000000000000000000000000000000000000000000000000000000000",
                    "baseFeePerGas": "0x7",
                    "blockHash": "0xe8f86f237690ec4a5a2fe437b0780abd3ef86265e3a6fce1c3047a8af6befb5d",
                    "transactions": [
                        "0xf860800a830f42409400000000000000000000000000000000000000cc808026a0ccba01db2304343a85970166cada3a975f30075a600d3686102ae6d07b5a8295a0417b652184cdc19ba7cf787d7fa0658b7222616b4962aec60a29a41d26b22f72",
                        "0xf860010a830186a094000000000000000000000000000000000000ba11808025a08388daba93f7822d3182dab304cc4edc82072c35374944f93a650c033169488aa012cc16a5c3327aade9b3215c9de2f844704be1683398e6f419674186531a6353",
                        "0xf860020a830186a094864bbda5c698ac34b47a9ea3bd4228802cc5ce3b058026a0c23895b8eef67d060fa6365e97fd3edfae9a42d1e004dd143ddb8c60d1c4d016a0555733cc482d7b453b61ef44ad12b6e007a0bd11b4647e86bd5a1ce63cf6e022",
                        "0xf860030a830186a094000000000000000000000000000000000000ba12808026a089fa4e48f8f7c161bd227c6e116bb33a84633f478496f0f10a1cb634dbd16c7da006191b9b2fd038d0abdc937351f90fd08bc54e8acb31f7d5bf0b3327d12067d7"
                    ],
                    "withdrawals": []
                },
                "version": "2"
            }
        ],
        "engineFcuVersion": "2",
        "_info": {
            "hash": "0xff0aba78b7ae93912bcff1b96b1225c18f7dc97ace71da53c8f0dfe5d1bf1599",
            "comment": "`execution-spec-tests` generated test",
            "filling-transition-tool": "evm version 1.14.1-unstable-d6e91e2e-20240507"
        }
    },
    "tests/paris/security/test_selfdestruct_balance_bug.py::test_tx_selfdestruct_balance_bug[fork_Cancun-blockchain_test_hive]": {
        "network": "Cancun",
        "genesisBlockHeader": {
            "parentHash": "0x0000000000000000000000000000000000000000000000000000000000000000",
            "uncleHash": "0x1dcc4de8dec75d7aab85b567b6ccd41ad312451b948a7413f0a142fd40d49347",
            "coinbase": "0x0000000000000000000000000000000000000000",
            "stateRoot": "0xfd47f280027e1fa6684511e8c24de936760313e5daed2eebfb291660fad65046",
            "transactionsTrie": "0x56e81f171bcc55a6ff8345e692c0f86e5b48e01b996cadc001622fb5e363b421",
            "receiptTrie": "0x56e81f171bcc55a6ff8345e692c0f86e5b48e01b996cadc001622fb5e363b421",
            "bloom": "0x00000000000000000000000000000000000000000000000000000000000000000000000000000000000000000000000000000000000000000000000000000000000000000000000000000000000000000000000000000000000000000000000000000000000000000000000000000000000000000000000000000000000000000000000000000000000000000000000000000000000000000000000000000000000000000000000000000000000000000000000000000000000000000000000000000000000000000000000000000000000000000000000000000000000000000000000000000000000000000000000000000000000000000000000000000000",
            "difficulty": "0x00",
            "number": "0x00",
            "gasLimit": "0x016345785d8a0000",
            "gasUsed": "0x00",
            "timestamp": "0x00",
            "extraData": "0x00",
            "mixHash": "0x0000000000000000000000000000000000000000000000000000000000000000",
            "nonce": "0x0000000000000000",
            "baseFeePerGas": "0x07",
            "withdrawalsRoot": "0x56e81f171bcc55a6ff8345e692c0f86e5b48e01b996cadc001622fb5e363b421",
            "blobGasUsed": "0x00",
            "excessBlobGas": "0x00",
            "parentBeaconBlockRoot": "0x0000000000000000000000000000000000000000000000000000000000000000",
            "hash": "0xe688e6d12fc852db06a7f4f7af3767bf1a626c79e6e437b0bab03dc918f4e797"
        },
        "pre": {
            "0x000f3df6d732807ef1319fb7b8bb8522d0beac02": {
                "nonce": "0x01",
                "balance": "0x00",
                "code": "0x3373fffffffffffffffffffffffffffffffffffffffe14604d57602036146024575f5ffd5b5f35801560495762001fff810690815414603c575f5ffd5b62001fff01545f5260205ff35b5f5ffd5b62001fff42064281555f359062001fff015500",
                "storage": {}
            },
            "0xa94f5374fce5edbc8e2a8697c15331677e6ebf0b": {
                "nonce": "0x00",
                "balance": "0x3b9aca00",
                "code": "0x",
                "storage": {}
            },
            "0x00000000000000000000000000000000000000cc": {
                "nonce": "0x01",
                "balance": "0x3b9aca00",
                "code": "0x60aa3b6000600060aa3c60aa3b60006003f06000600060006000600073864bbda5c698ac34b47a9ea3bd4228802cc5ce3b620186a0f162ca1101556000600060006000600173864bbda5c698ac34b47a9ea3bd4228802cc5ce3b620186a0f1",
                "storage": {}
            },
            "0x000000000000000000000000000000000000ba11": {
                "nonce": "0x00",
                "balance": "0x00",
                "code": "0x73864bbda5c698ac34b47a9ea3bd4228802cc5ce3b31620ba1aa55",
                "storage": {}
            },
            "0x000000000000000000000000000000000000ba12": {
                "nonce": "0x00",
                "balance": "0x00",
                "code": "0x73864bbda5c698ac34b47a9ea3bd4228802cc5ce3b31620ba1aa55",
                "storage": {}
            },
            "0x00000000000000000000000000000000000000aa": {
                "nonce": "0x00",
                "balance": "0x00",
                "code": "0x61001c600081600b8239f334600014601857346001146010575b005b47600055600e565b60aaff",
                "storage": {}
            }
        },
        "postState": {
            "0x00000000000000000000000000000000000000aa": {
                "nonce": "0x00",
                "balance": "0x03",
                "code": "0x61001c600081600b8239f334600014601857346001146010575b005b47600055600e565b60aaff",
                "storage": {}
            },
            "0x00000000000000000000000000000000000000cc": {
                "nonce": "0x02",
                "balance": "0x3b9ac9fc",
                "code": "0x60aa3b6000600060aa3c60aa3b60006003f06000600060006000600073864bbda5c698ac34b47a9ea3bd4228802cc5ce3b620186a0f162ca1101556000600060006000600173864bbda5c698ac34b47a9ea3bd4228802cc5ce3b620186a0f1",
                "storage": {
                    "0xca1101": "0x01"
                }
            },
            "0x000000000000000000000000000000000000ba11": {
                "nonce": "0x00",
                "balance": "0x00",
                "code": "0x73864bbda5c698ac34b47a9ea3bd4228802cc5ce3b31620ba1aa55",
                "storage": {}
            },
            "0x000000000000000000000000000000000000ba12": {
                "nonce": "0x00",
                "balance": "0x00",
                "code": "0x73864bbda5c698ac34b47a9ea3bd4228802cc5ce3b31620ba1aa55",
                "storage": {
                    "0x0ba1aa": "0x05"
                }
            },
            "0x000f3df6d732807ef1319fb7b8bb8522d0beac02": {
                "nonce": "0x01",
                "balance": "0x00",
                "code": "0x3373fffffffffffffffffffffffffffffffffffffffe14604d57602036146024575f5ffd5b5f35801560495762001fff810690815414603c575f5ffd5b62001fff01545f5260205ff35b5f5ffd5b62001fff42064281555f359062001fff015500",
                "storage": {
                    "0x0c": "0x0c"
                }
            },
            "0x2adc25665018aa1fe0e6bc666dac8fc2697ff9ba": {
                "nonce": "0x00",
                "balance": "0x099f5a",
                "code": "0x",
                "storage": {}
            },
            "0x864bbda5c698ac34b47a9ea3bd4228802cc5ce3b": {
                "nonce": "0x00",
                "balance": "0x05",
                "code": "0x",
                "storage": {}
            },
            "0xa94f5374fce5edbc8e2a8697c15331677e6ebf0b": {
                "nonce": "0x04",
                "balance": "0x3b7ab6cf",
                "code": "0x",
                "storage": {}
            }
        },
        "engineNewPayloads": [
            {
                "executionPayload": {
                    "parentHash": "0xe688e6d12fc852db06a7f4f7af3767bf1a626c79e6e437b0bab03dc918f4e797",
                    "feeRecipient": "0x2adc25665018aa1fe0e6bc666dac8fc2697ff9ba",
                    "stateRoot": "0x3e5ee7ad6bbe319281032f3e9603fb243e9b8c5b14004951e1cc171671f5d1c7",
                    "receiptsRoot": "0xfd5d74b750276cfcf3e738ec8e4b838e7d5cf8ef0f567e6ba7030af4a4cff130",
                    "logsBloom": "0x00000000000000000000000000000000000000000000000000000000000000000000000000000000000000000000000000000000000000000000000000000000000000000000000000000000000000000000000000000000000000000000000000000000000000000000000000000000000000000000000000000000000000000000000000000000000000000000000000000000000000000000000000000000000000000000000000000000000000000000000000000000000000000000000000000000000000000000000000000000000000000000000000000000000000000000000000000000000000000000000000000000000000000000000000000000",
                    "blockNumber": "0x1",
                    "gasLimit": "0x16345785d8a0000",
                    "gasUsed": "0x3351e",
                    "timestamp": "0xc",
                    "extraData": "0x",
                    "prevRandao": "0x0000000000000000000000000000000000000000000000000000000000000000",
                    "baseFeePerGas": "0x7",
                    "blobGasUsed": "0x0",
                    "excessBlobGas": "0x0",
                    "blockHash": "0xf58d46574b181db26750f6a6b0fbf8b9886074c6c5eca2de3f6b5b4f69516119",
                    "transactions": [
                        "0xf860800a830f42409400000000000000000000000000000000000000cc808026a0ccba01db2304343a85970166cada3a975f30075a600d3686102ae6d07b5a8295a0417b652184cdc19ba7cf787d7fa0658b7222616b4962aec60a29a41d26b22f72",
                        "0xf860010a830186a094000000000000000000000000000000000000ba11808025a08388daba93f7822d3182dab304cc4edc82072c35374944f93a650c033169488aa012cc16a5c3327aade9b3215c9de2f844704be1683398e6f419674186531a6353",
                        "0xf860020a830186a094864bbda5c698ac34b47a9ea3bd4228802cc5ce3b058026a0c23895b8eef67d060fa6365e97fd3edfae9a42d1e004dd143ddb8c60d1c4d016a0555733cc482d7b453b61ef44ad12b6e007a0bd11b4647e86bd5a1ce63cf6e022",
                        "0xf860030a830186a094000000000000000000000000000000000000ba12808026a089fa4e48f8f7c161bd227c6e116bb33a84633f478496f0f10a1cb634dbd16c7da006191b9b2fd038d0abdc937351f90fd08bc54e8acb31f7d5bf0b3327d12067d7"
                    ],
                    "withdrawals": []
                },
                "version": "3",
                "expectedBlobVersionedHashes": [],
                "parentBeaconBlockRoot": "0x0000000000000000000000000000000000000000000000000000000000000000"
            }
        ],
        "engineFcuVersion": "3",
        "_info": {
            "hash": "0x9d812ea914665bc91c2d14b591f558164eed9ea73d95614fd3150601cb2e487e",
            "comment": "`execution-spec-tests` generated test",
            "filling-transition-tool": "evm version 1.14.1-unstable-d6e91e2e-20240507"
        }
    }
}