{
    "tests/cancun/eip4844_blobs/test_point_evaluation_precompile.py::test_point_evaluation_precompile_during_fork[fork_ShanghaiToCancunAtTime15k-blockchain_test_hive-correct_proof]": {
        "network": "ShanghaiToCancunAtTime15k",
        "genesisBlockHeader": {
            "parentHash": "0x0000000000000000000000000000000000000000000000000000000000000000",
            "uncleHash": "0x1dcc4de8dec75d7aab85b567b6ccd41ad312451b948a7413f0a142fd40d49347",
            "coinbase": "0x0000000000000000000000000000000000000000",
            "stateRoot": "0x5c2d87f1f9a823b16fcbd6f9ff4acc8da86c4eea22f4074779de65f1e4e96a3f",
            "transactionsTrie": "0x56e81f171bcc55a6ff8345e692c0f86e5b48e01b996cadc001622fb5e363b421",
            "receiptTrie": "0x56e81f171bcc55a6ff8345e692c0f86e5b48e01b996cadc001622fb5e363b421",
            "bloom": "0x00000000000000000000000000000000000000000000000000000000000000000000000000000000000000000000000000000000000000000000000000000000000000000000000000000000000000000000000000000000000000000000000000000000000000000000000000000000000000000000000000000000000000000000000000000000000000000000000000000000000000000000000000000000000000000000000000000000000000000000000000000000000000000000000000000000000000000000000000000000000000000000000000000000000000000000000000000000000000000000000000000000000000000000000000000000",
            "difficulty": "0x00",
            "number": "0x00",
            "gasLimit": "0x016345785d8a0000",
            "gasUsed": "0x00",
            "timestamp": "0x00",
            "extraData": "0x00",
            "mixHash": "0x0000000000000000000000000000000000000000000000000000000000000000",
            "nonce": "0x0000000000000000",
            "baseFeePerGas": "0x07",
            "withdrawalsRoot": "0x56e81f171bcc55a6ff8345e692c0f86e5b48e01b996cadc001622fb5e363b421",
            "hash": "0xf6782bb7f26ea79d39f3820c4c3c5e64cb6dcb6c9799cd1695863852d7d04289"
        },
        "pre": {
            "0x000f3df6d732807ef1319fb7b8bb8522d0beac02": {
                "nonce": "0x01",
                "balance": "0x00",
                "code": "0x3373fffffffffffffffffffffffffffffffffffffffe14604d57602036146024575f5ffd5b5f35801560495762001fff810690815414603c575f5ffd5b62001fff01545f5260205ff35b5f5ffd5b62001fff42064281555f359062001fff015500",
                "storage": {}
            },
            "0xa94f5374fce5edbc8e2a8697c15331677e6ebf0b": {
                "nonce": "0x00",
                "balance": "0x01000000000000000000",
                "code": "0x",
                "storage": {}
            },
            "0x0000000000000000000000000000000000001000": {
                "nonce": "0x00",
                "balance": "0x01000000000000000000",
                "code": "0x60006000600060006001600a5af14355",
                "storage": {}
            }
        },
        "postState": {
            "0x000000000000000000000000000000000000000a": {
                "nonce": "0x00",
                "balance": "0x0f",
                "code": "0x",
                "storage": {}
            },
            "0x0000000000000000000000000000000000001000": {
                "nonce": "0x00",
                "balance": "0xfffffffffffffffff1",
                "code": "0x60006000600060006001600a5af14355",
                "storage": {
                    "0x01": "0x01",
                    "0x02": "0x01",
                    "0x03": "0x01",
                    "0x04": "0x01",
                    "0x05": "0x01",
                    "0x06": "0x01",
                    "0x07": "0x01",
                    "0x08": "0x01",
                    "0x09": "0x01",
                    "0x0a": "0x01",
                    "0x0b": "0x01",
                    "0x0c": "0x01",
                    "0x0d": "0x01",
                    "0x0e": "0x01",
                    "0x0f": "0x01"
                }
            },
            "0x000f3df6d732807ef1319fb7b8bb8522d0beac02": {
                "nonce": "0x01",
                "balance": "0x00",
                "code": "0x3373fffffffffffffffffffffffffffffffffffffffe14604d57602036146024575f5ffd5b5f35801560495762001fff810690815414603c575f5ffd5b62001fff01545f5260205ff35b5f5ffd5b62001fff42064281555f359062001fff015500",
                "storage": {
                    "0x1a99": "0x3a98"
                }
            },
            "0xa94f5374fce5edbc8e2a8697c15331677e6ebf0b": {
                "nonce": "0x10",
                "balance": "0xffffffffffff3d6e06",
                "code": "0x",
                "storage": {}
            }
        },
        "engineNewPayloads": [
            {
                "executionPayload": {
                    "parentHash": "0xf6782bb7f26ea79d39f3820c4c3c5e64cb6dcb6c9799cd1695863852d7d04289",
                    "feeRecipient": "0x2adc25665018aa1fe0e6bc666dac8fc2697ff9ba",
                    "stateRoot": "0xad952088943b0d71ae2ef2a4425c4f1c758f150d4cb38a70e5b8b7f9acf32327",
                    "receiptsRoot": "0x7c53f1e5660a78e8903fa3b72eef59be0af3f82a34437b7578b44130829a8558",
                    "logsBloom": "0x00000000000000000000000000000000000000000000000000000000000000000000000000000000000000000000000000000000000000000000000000000000000000000000000000000000000000000000000000000000000000000000000000000000000000000000000000000000000000000000000000000000000000000000000000000000000000000000000000000000000000000000000000000000000000000000000000000000000000000000000000000000000000000000000000000000000000000000000000000000000000000000000000000000000000000000000000000000000000000000000000000000000000000000000000000000",
                    "blockNumber": "0x1",
                    "gasLimit": "0x16345785d8a0000",
                    "gasUsed": "0x1347a",
                    "timestamp": "0x3e7",
                    "extraData": "0x",
                    "prevRandao": "0x0000000000000000000000000000000000000000000000000000000000000000",
                    "baseFeePerGas": "0x7",
                    "blockHash": "0x18d7ee195a704b9a59e888a5377aa7eeb042f2dc578b91c119a6c87fcce10e0d",
                    "transactions": [
                        "0x02f9012401808007830f424094000000000000000000000000000000000000100080b8c0010657f37554c781402a22917dee2f75def7ab966d7b770905398eba3c444014623ce31cf9759a5c8daf3a357992f9f3dd7f9339d8998bc8e68373e54f00b75e0000000000000000000000000000000000000000000000000000000000000000c00000000000000000000000000000000000000000000000000000000000000000000000000000000000000000000000c00000000000000000000000000000000000000000000000000000000000000000000000000000000000000000000000c001a0387d679262ecaa202b540f8bf515e00eaee7134d81f5d389ce92e633ec90d8afa04d48f7a0d02f7ea2cc65a7ce8d8288c37cd836d15b830891c0735aa6773a0216"
                    ],
                    "withdrawals": []
                },
                "version": "2"
            },
            {
                "executionPayload": {
                    "parentHash": "0x18d7ee195a704b9a59e888a5377aa7eeb042f2dc578b91c119a6c87fcce10e0d",
                    "feeRecipient": "0x2adc25665018aa1fe0e6bc666dac8fc2697ff9ba",
                    "stateRoot": "0xb85215f602f45541ad874738d725fc5a0526a2f525c53ee4368f5b321a2f3b90",
                    "receiptsRoot": "0x402817802db95465009f3e8fafdff010ad32c34deece9e608113ba22cd5140c1",
                    "logsBloom": "0x00000000000000000000000000000000000000000000000000000000000000000000000000000000000000000000000000000000000000000000000000000000000000000000000000000000000000000000000000000000000000000000000000000000000000000000000000000000000000000000000000000000000000000000000000000000000000000000000000000000000000000000000000000000000000000000000000000000000000000000000000000000000000000000000000000000000000000000000000000000000000000000000000000000000000000000000000000000000000000000000000000000000000000000000000000000",
                    "blockNumber": "0x2",
                    "gasLimit": "0x16345785d8a0000",
                    "gasUsed": "0xd2d2",
                    "timestamp": "0x7cf",
                    "extraData": "0x",
                    "prevRandao": "0x0000000000000000000000000000000000000000000000000000000000000000",
                    "baseFeePerGas": "0x7",
                    "blockHash": "0x58ddd60d686d5442c149c3e3dc1c8e66d345faa0f06c2e342abdce70b97f8b16",
                    "transactions": [
                        "0x02f9012401018007830f424094000000000000000000000000000000000000100080b8c0010657f37554c781402a22917dee2f75def7ab966d7b770905398eba3c444014623ce31cf9759a5c8daf3a357992f9f3dd7f9339d8998bc8e68373e54f00b75e0000000000000000000000000000000000000000000000000000000000000000c00000000000000000000000000000000000000000000000000000000000000000000000000000000000000000000000c00000000000000000000000000000000000000000000000000000000000000000000000000000000000000000000000c001a0ceff1f71474c060451e4933440a2c8452875865fa9c610e2cec3e05f333833afa07e5502bd96e6bc80b2d30523db6122d88c5498aef252d0a7bee0f062ab0c3cb8"
                    ],
                    "withdrawals": []
                },
                "version": "2"
            },
            {
                "executionPayload": {
                    "parentHash": "0x58ddd60d686d5442c149c3e3dc1c8e66d345faa0f06c2e342abdce70b97f8b16",
                    "feeRecipient": "0x2adc25665018aa1fe0e6bc666dac8fc2697ff9ba",
                    "stateRoot": "0xb591e0128b3767733524cafedf1f945889f49d39407a6c8e6a2fe4f881f95c19",
                    "receiptsRoot": "0x402817802db95465009f3e8fafdff010ad32c34deece9e608113ba22cd5140c1",
                    "logsBloom": "0x00000000000000000000000000000000000000000000000000000000000000000000000000000000000000000000000000000000000000000000000000000000000000000000000000000000000000000000000000000000000000000000000000000000000000000000000000000000000000000000000000000000000000000000000000000000000000000000000000000000000000000000000000000000000000000000000000000000000000000000000000000000000000000000000000000000000000000000000000000000000000000000000000000000000000000000000000000000000000000000000000000000000000000000000000000000",
                    "blockNumber": "0x3",
                    "gasLimit": "0x16345785d8a0000",
                    "gasUsed": "0xd2d2",
                    "timestamp": "0xbb7",
                    "extraData": "0x",
                    "prevRandao": "0x0000000000000000000000000000000000000000000000000000000000000000",
                    "baseFeePerGas": "0x7",
                    "blockHash": "0x70624f4091ed4f8e1c3c4a407ac21036cf66083e5bd5f5391983b2488849bdc4",
                    "transactions": [
                        "0x02f9012401028007830f424094000000000000000000000000000000000000100080b8c0010657f37554c781402a22917dee2f75def7ab966d7b770905398eba3c444014623ce31cf9759a5c8daf3a357992f9f3dd7f9339d8998bc8e68373e54f00b75e0000000000000000000000000000000000000000000000000000000000000000c00000000000000000000000000000000000000000000000000000000000000000000000000000000000000000000000c00000000000000000000000000000000000000000000000000000000000000000000000000000000000000000000000c001a094ae77338fb4a99ff2d2c8fa6f82f3b76ba591fec5106044b0c8b5565fafb806a06ac08cd051e6484ae0f05d4905bce7fe27fccfd26cbbf953afb179e465476ee8"
                    ],
                    "withdrawals": []
                },
                "version": "2"
            },
            {
                "executionPayload": {
                    "parentHash": "0x70624f4091ed4f8e1c3c4a407ac21036cf66083e5bd5f5391983b2488849bdc4",
                    "feeRecipient": "0x2adc25665018aa1fe0e6bc666dac8fc2697ff9ba",
                    "stateRoot": "0x826654cce19b7047f24bbec82e2552ffa5f2a4409db5108c429779b3b7d958f5",
                    "receiptsRoot": "0x402817802db95465009f3e8fafdff010ad32c34deece9e608113ba22cd5140c1",
                    "logsBloom": "0x00000000000000000000000000000000000000000000000000000000000000000000000000000000000000000000000000000000000000000000000000000000000000000000000000000000000000000000000000000000000000000000000000000000000000000000000000000000000000000000000000000000000000000000000000000000000000000000000000000000000000000000000000000000000000000000000000000000000000000000000000000000000000000000000000000000000000000000000000000000000000000000000000000000000000000000000000000000000000000000000000000000000000000000000000000000",
                    "blockNumber": "0x4",
                    "gasLimit": "0x16345785d8a0000",
                    "gasUsed": "0xd2d2",
                    "timestamp": "0xf9f",
                    "extraData": "0x",
                    "prevRandao": "0x0000000000000000000000000000000000000000000000000000000000000000",
                    "baseFeePerGas": "0x7",
                    "blockHash": "0xae88ed55ed63d8eb09674969dc67ebcf2217a35a879de0bcbcce1ba4b7c88f88",
                    "transactions": [
                        "0x02f9012401038007830f424094000000000000000000000000000000000000100080b8c0010657f37554c781402a22917dee2f75def7ab966d7b770905398eba3c444014623ce31cf9759a5c8daf3a357992f9f3dd7f9339d8998bc8e68373e54f00b75e0000000000000000000000000000000000000000000000000000000000000000c00000000000000000000000000000000000000000000000000000000000000000000000000000000000000000000000c00000000000000000000000000000000000000000000000000000000000000000000000000000000000000000000000c001a04563623064a09c16ae43596878d7060eaf47c9bc43954aa7287e8098552f976aa0483cb7dc2abf84ffce17d8faa4be9372dcd0c83b2f7a19133f63673bb8bbeb00"
                    ],
                    "withdrawals": []
                },
                "version": "2"
            },
            {
                "executionPayload": {
                    "parentHash": "0xae88ed55ed63d8eb09674969dc67ebcf2217a35a879de0bcbcce1ba4b7c88f88",
                    "feeRecipient": "0x2adc25665018aa1fe0e6bc666dac8fc2697ff9ba",
                    "stateRoot": "0x013bba46155f22641f8f11d0a7a96287de567d3edb1e8625eec6cb97d01fccb3",
                    "receiptsRoot": "0x402817802db95465009f3e8fafdff010ad32c34deece9e608113ba22cd5140c1",
                    "logsBloom": "0x00000000000000000000000000000000000000000000000000000000000000000000000000000000000000000000000000000000000000000000000000000000000000000000000000000000000000000000000000000000000000000000000000000000000000000000000000000000000000000000000000000000000000000000000000000000000000000000000000000000000000000000000000000000000000000000000000000000000000000000000000000000000000000000000000000000000000000000000000000000000000000000000000000000000000000000000000000000000000000000000000000000000000000000000000000000",
                    "blockNumber": "0x5",
                    "gasLimit": "0x16345785d8a0000",
                    "gasUsed": "0xd2d2",
                    "timestamp": "0x1387",
                    "extraData": "0x",
                    "prevRandao": "0x0000000000000000000000000000000000000000000000000000000000000000",
                    "baseFeePerGas": "0x7",
                    "blockHash": "0x1ed05dc38b5fb6fc1f1995e0137338ad40502cb5d41f8c491d763a22c682ff12",
                    "transactions": [
                        "0x02f9012401048007830f424094000000000000000000000000000000000000100080b8c0010657f37554c781402a22917dee2f75def7ab966d7b770905398eba3c444014623ce31cf9759a5c8daf3a357992f9f3dd7f9339d8998bc8e68373e54f00b75e0000000000000000000000000000000000000000000000000000000000000000c00000000000000000000000000000000000000000000000000000000000000000000000000000000000000000000000c00000000000000000000000000000000000000000000000000000000000000000000000000000000000000000000000c001a0c8f7b05b0772469c2a9b28495295d2e1306e5f7a78f93aabd470ae191a1055dfa05a8ea0d8db653f8ec1f70d8def05f098b35a860d27ab740af6b6d2ab44908aff"
                    ],
                    "withdrawals": []
                },
                "version": "2"
            },
            {
                "executionPayload": {
                    "parentHash": "0x1ed05dc38b5fb6fc1f1995e0137338ad40502cb5d41f8c491d763a22c682ff12",
                    "feeRecipient": "0x2adc25665018aa1fe0e6bc666dac8fc2697ff9ba",
                    "stateRoot": "0x218cd4dd4fb7e4438a56525dcb0c8e8eee4e387d092488ac26a4ad96359743cb",
                    "receiptsRoot": "0x402817802db95465009f3e8fafdff010ad32c34deece9e608113ba22cd5140c1",
                    "logsBloom": "0x00000000000000000000000000000000000000000000000000000000000000000000000000000000000000000000000000000000000000000000000000000000000000000000000000000000000000000000000000000000000000000000000000000000000000000000000000000000000000000000000000000000000000000000000000000000000000000000000000000000000000000000000000000000000000000000000000000000000000000000000000000000000000000000000000000000000000000000000000000000000000000000000000000000000000000000000000000000000000000000000000000000000000000000000000000000",
                    "blockNumber": "0x6",
                    "gasLimit": "0x16345785d8a0000",
                    "gasUsed": "0xd2d2",
                    "timestamp": "0x176f",
                    "extraData": "0x",
                    "prevRandao": "0x0000000000000000000000000000000000000000000000000000000000000000",
                    "baseFeePerGas": "0x7",
                    "blockHash": "0x63f4e7bf9ab5cbe0e5bdf03af1dc945477be54245b4c76b0e7119589d50491cb",
                    "transactions": [
                        "0x02f9012401058007830f424094000000000000000000000000000000000000100080b8c0010657f37554c781402a22917dee2f75def7ab966d7b770905398eba3c444014623ce31cf9759a5c8daf3a357992f9f3dd7f9339d8998bc8e68373e54f00b75e0000000000000000000000000000000000000000000000000000000000000000c00000000000000000000000000000000000000000000000000000000000000000000000000000000000000000000000c00000000000000000000000000000000000000000000000000000000000000000000000000000000000000000000000c001a0dcd6741a8fb725564c08b3d22c455719b77c2371ebfa297db90ad2bd09e4f4bba03aa038e2221b828cee7a8b5936b0b1c54ce69bd5e6bd3d6c7cd867d60477c719"
                    ],
                    "withdrawals": []
                },
                "version": "2"
            },
            {
                "executionPayload": {
                    "parentHash": "0x63f4e7bf9ab5cbe0e5bdf03af1dc945477be54245b4c76b0e7119589d50491cb",
                    "feeRecipient": "0x2adc25665018aa1fe0e6bc666dac8fc2697ff9ba",
                    "stateRoot": "0xfeea55cd373c5d375a47a7526a9d42695a91cc8a571425a663622ecc9db174f3",
                    "receiptsRoot": "0x402817802db95465009f3e8fafdff010ad32c34deece9e608113ba22cd5140c1",
                    "logsBloom": "0x00000000000000000000000000000000000000000000000000000000000000000000000000000000000000000000000000000000000000000000000000000000000000000000000000000000000000000000000000000000000000000000000000000000000000000000000000000000000000000000000000000000000000000000000000000000000000000000000000000000000000000000000000000000000000000000000000000000000000000000000000000000000000000000000000000000000000000000000000000000000000000000000000000000000000000000000000000000000000000000000000000000000000000000000000000000",
                    "blockNumber": "0x7",
                    "gasLimit": "0x16345785d8a0000",
                    "gasUsed": "0xd2d2",
                    "timestamp": "0x1b57",
                    "extraData": "0x",
                    "prevRandao": "0x0000000000000000000000000000000000000000000000000000000000000000",
                    "baseFeePerGas": "0x7",
                    "blockHash": "0xd52122fbbc20a70f31607899668d16034d8982ca6a0edf9046949bcdc79b39ca",
                    "transactions": [
                        "0x02f9012401068007830f424094000000000000000000000000000000000000100080b8c0010657f37554c781402a22917dee2f75def7ab966d7b770905398eba3c444014623ce31cf9759a5c8daf3a357992f9f3dd7f9339d8998bc8e68373e54f00b75e0000000000000000000000000000000000000000000000000000000000000000c00000000000000000000000000000000000000000000000000000000000000000000000000000000000000000000000c00000000000000000000000000000000000000000000000000000000000000000000000000000000000000000000000c001a07b124da56ed15ed8ecdb2fedc5a9b032a9963bf06ff8d3bbfb1c73d426c29647a045d8e852326c9a52c21f9d146673786a11fdd8187743e38e1a9b95a6953e8061"
                    ],
                    "withdrawals": []
                },
                "version": "2"
            },
            {
                "executionPayload": {
                    "parentHash": "0xd52122fbbc20a70f31607899668d16034d8982ca6a0edf9046949bcdc79b39ca",
                    "feeRecipient": "0x2adc25665018aa1fe0e6bc666dac8fc2697ff9ba",
                    "stateRoot": "0xee96530d93839107a243fa39485b970edb8d47cdbedcc8305fcd9dacee2d8baf",
                    "receiptsRoot": "0x402817802db95465009f3e8fafdff010ad32c34deece9e608113ba22cd5140c1",
                    "logsBloom": "0x00000000000000000000000000000000000000000000000000000000000000000000000000000000000000000000000000000000000000000000000000000000000000000000000000000000000000000000000000000000000000000000000000000000000000000000000000000000000000000000000000000000000000000000000000000000000000000000000000000000000000000000000000000000000000000000000000000000000000000000000000000000000000000000000000000000000000000000000000000000000000000000000000000000000000000000000000000000000000000000000000000000000000000000000000000000",
                    "blockNumber": "0x8",
                    "gasLimit": "0x16345785d8a0000",
                    "gasUsed": "0xd2d2",
                    "timestamp": "0x1f3f",
                    "extraData": "0x",
                    "prevRandao": "0x0000000000000000000000000000000000000000000000000000000000000000",
                    "baseFeePerGas": "0x7",
                    "blockHash": "0x289fddc20c7f3b5a010cfbd8f20b54d9207aa7d182e84b4d7f044724f47471f1",
                    "transactions": [
                        "0x02f9012401078007830f424094000000000000000000000000000000000000100080b8c0010657f37554c781402a22917dee2f75def7ab966d7b770905398eba3c444014623ce31cf9759a5c8daf3a357992f9f3dd7f9339d8998bc8e68373e54f00b75e0000000000000000000000000000000000000000000000000000000000000000c00000000000000000000000000000000000000000000000000000000000000000000000000000000000000000000000c00000000000000000000000000000000000000000000000000000000000000000000000000000000000000000000000c080a0faa26c66a9fd2b4bc40669200d2d6f1237ac66a6b67248aec897d600552605c3a001a2d2c70108b0d7fd2a00ba9e41916a43e0dd8df6c64e66fda4be8d86c786ec"
                    ],
                    "withdrawals": []
                },
                "version": "2"
            },
            {
                "executionPayload": {
                    "parentHash": "0x289fddc20c7f3b5a010cfbd8f20b54d9207aa7d182e84b4d7f044724f47471f1",
                    "feeRecipient": "0x2adc25665018aa1fe0e6bc666dac8fc2697ff9ba",
                    "stateRoot": "0xef4cbd174fe1e67d7dc347428ffedb4e8e6efd0a22b6dce423f56dcb50b271d3",
                    "receiptsRoot": "0x402817802db95465009f3e8fafdff010ad32c34deece9e608113ba22cd5140c1",
                    "logsBloom": "0x00000000000000000000000000000000000000000000000000000000000000000000000000000000000000000000000000000000000000000000000000000000000000000000000000000000000000000000000000000000000000000000000000000000000000000000000000000000000000000000000000000000000000000000000000000000000000000000000000000000000000000000000000000000000000000000000000000000000000000000000000000000000000000000000000000000000000000000000000000000000000000000000000000000000000000000000000000000000000000000000000000000000000000000000000000000",
                    "blockNumber": "0x9",
                    "gasLimit": "0x16345785d8a0000",
                    "gasUsed": "0xd2d2",
                    "timestamp": "0x2327",
                    "extraData": "0x",
                    "prevRandao": "0x0000000000000000000000000000000000000000000000000000000000000000",
                    "baseFeePerGas": "0x7",
                    "blockHash": "0xfb41e68867e1ece71ab7d5d6f8c6d5601c74d2a8889ae1523397696e3f1af0f7",
                    "transactions": [
                        "0x02f9012401088007830f424094000000000000000000000000000000000000100080b8c0010657f37554c781402a22917dee2f75def7ab966d7b770905398eba3c444014623ce31cf9759a5c8daf3a357992f9f3dd7f9339d8998bc8e68373e54f00b75e0000000000000000000000000000000000000000000000000000000000000000c00000000000000000000000000000000000000000000000000000000000000000000000000000000000000000000000c00000000000000000000000000000000000000000000000000000000000000000000000000000000000000000000000c080a0c011c49b29e499b506bed2376b21b794fcff5016710c2301ebc4e4dcc36372b1a045d96a6594c9bb347900592b543a9f33f48dd484c09826afc06faf1e68a77ba2"
                    ],
                    "withdrawals": []
                },
                "version": "2"
            },
            {
                "executionPayload": {
                    "parentHash": "0xfb41e68867e1ece71ab7d5d6f8c6d5601c74d2a8889ae1523397696e3f1af0f7",
                    "feeRecipient": "0x2adc25665018aa1fe0e6bc666dac8fc2697ff9ba",
                    "stateRoot": "0xd1ba30337c3591f0525a97d9c64ccb43d92caf273686c068f9f1c9ac0c98e07b",
                    "receiptsRoot": "0x402817802db95465009f3e8fafdff010ad32c34deece9e608113ba22cd5140c1",
                    "logsBloom": "0x00000000000000000000000000000000000000000000000000000000000000000000000000000000000000000000000000000000000000000000000000000000000000000000000000000000000000000000000000000000000000000000000000000000000000000000000000000000000000000000000000000000000000000000000000000000000000000000000000000000000000000000000000000000000000000000000000000000000000000000000000000000000000000000000000000000000000000000000000000000000000000000000000000000000000000000000000000000000000000000000000000000000000000000000000000000",
                    "blockNumber": "0xa",
                    "gasLimit": "0x16345785d8a0000",
                    "gasUsed": "0xd2d2",
                    "timestamp": "0x270f",
                    "extraData": "0x",
                    "prevRandao": "0x0000000000000000000000000000000000000000000000000000000000000000",
                    "baseFeePerGas": "0x7",
                    "blockHash": "0x0ca3400ef622d4bd94ef0dfdb545e2a8e7188bf32d571b419ca2d78e4ab2d00e",
                    "transactions": [
                        "0x02f9012401098007830f424094000000000000000000000000000000000000100080b8c0010657f37554c781402a22917dee2f75def7ab966d7b770905398eba3c444014623ce31cf9759a5c8daf3a357992f9f3dd7f9339d8998bc8e68373e54f00b75e0000000000000000000000000000000000000000000000000000000000000000c00000000000000000000000000000000000000000000000000000000000000000000000000000000000000000000000c00000000000000000000000000000000000000000000000000000000000000000000000000000000000000000000000c080a009acf3e4d42ccfec6b3fa0df8333d448a94f3adf5db4aa69b88a0f6c7d11e18da06867e7d2b1bf03d4d5017d2daa6b0739f20de706aac1e48f3501d951ef300e65"
                    ],
                    "withdrawals": []
                },
                "version": "2"
            },
            {
                "executionPayload": {
                    "parentHash": "0x0ca3400ef622d4bd94ef0dfdb545e2a8e7188bf32d571b419ca2d78e4ab2d00e",
                    "feeRecipient": "0x2adc25665018aa1fe0e6bc666dac8fc2697ff9ba",
                    "stateRoot": "0xa2128d744437bb1af58c4f3334f84c434f45a5fe206bb9b63afafbdecb646bab",
                    "receiptsRoot": "0x402817802db95465009f3e8fafdff010ad32c34deece9e608113ba22cd5140c1",
                    "logsBloom": "0x00000000000000000000000000000000000000000000000000000000000000000000000000000000000000000000000000000000000000000000000000000000000000000000000000000000000000000000000000000000000000000000000000000000000000000000000000000000000000000000000000000000000000000000000000000000000000000000000000000000000000000000000000000000000000000000000000000000000000000000000000000000000000000000000000000000000000000000000000000000000000000000000000000000000000000000000000000000000000000000000000000000000000000000000000000000",
                    "blockNumber": "0xb",
                    "gasLimit": "0x16345785d8a0000",
                    "gasUsed": "0xd2d2",
                    "timestamp": "0x2af7",
                    "extraData": "0x",
                    "prevRandao": "0x0000000000000000000000000000000000000000000000000000000000000000",
                    "baseFeePerGas": "0x7",
                    "blockHash": "0x72b0dbf057ab85a64ac7f5569e0f271fb631f9ba6f2016c1e8e75995fc8c8f9b",
                    "transactions": [
                        "0x02f90124010a8007830f424094000000000000000000000000000000000000100080b8c0010657f37554c781402a22917dee2f75def7ab966d7b770905398eba3c444014623ce31cf9759a5c8daf3a357992f9f3dd7f9339d8998bc8e68373e54f00b75e0000000000000000000000000000000000000000000000000000000000000000c00000000000000000000000000000000000000000000000000000000000000000000000000000000000000000000000c00000000000000000000000000000000000000000000000000000000000000000000000000000000000000000000000c001a00c32f96abe926dce6f3687ad8a94bbb99e4337d5b44347e038e3a408bc2ebbe8a054170f5998817fab97daaf4d3ef97826b72378bf4eb82db4821991ac5490a485"
                    ],
                    "withdrawals": []
                },
                "version": "2"
            },
            {
                "executionPayload": {
                    "parentHash": "0x72b0dbf057ab85a64ac7f5569e0f271fb631f9ba6f2016c1e8e75995fc8c8f9b",
                    "feeRecipient": "0x2adc25665018aa1fe0e6bc666dac8fc2697ff9ba",
                    "stateRoot": "0xa497277b328b689e6949e41228a29100e0bb2a7617953cf45cd6e361bff1a657",
                    "receiptsRoot": "0x402817802db95465009f3e8fafdff010ad32c34deece9e608113ba22cd5140c1",
                    "logsBloom": "0x00000000000000000000000000000000000000000000000000000000000000000000000000000000000000000000000000000000000000000000000000000000000000000000000000000000000000000000000000000000000000000000000000000000000000000000000000000000000000000000000000000000000000000000000000000000000000000000000000000000000000000000000000000000000000000000000000000000000000000000000000000000000000000000000000000000000000000000000000000000000000000000000000000000000000000000000000000000000000000000000000000000000000000000000000000000",
                    "blockNumber": "0xc",
                    "gasLimit": "0x16345785d8a0000",
                    "gasUsed": "0xd2d2",
                    "timestamp": "0x2edf",
                    "extraData": "0x",
                    "prevRandao": "0x0000000000000000000000000000000000000000000000000000000000000000",
                    "baseFeePerGas": "0x7",
                    "blockHash": "0xd7bca9daff9f34d63b2c39a941c45141fac12a80619b3763ebc049682fd7d357",
                    "transactions": [
                        "0x02f90124010b8007830f424094000000000000000000000000000000000000100080b8c0010657f37554c781402a22917dee2f75def7ab966d7b770905398eba3c444014623ce31cf9759a5c8daf3a357992f9f3dd7f9339d8998bc8e68373e54f00b75e0000000000000000000000000000000000000000000000000000000000000000c00000000000000000000000000000000000000000000000000000000000000000000000000000000000000000000000c00000000000000000000000000000000000000000000000000000000000000000000000000000000000000000000000c080a07d3b84d52872e7f2a0d887fbc6d4b8075d5d3c044a6c3cf16eccb95c9e3236fea053867d118e15fbdc506114e321c13a0f9c6d62bff32a8f5382130575b0538bfd"
                    ],
                    "withdrawals": []
                },
                "version": "2"
            },
            {
                "executionPayload": {
                    "parentHash": "0xd7bca9daff9f34d63b2c39a941c45141fac12a80619b3763ebc049682fd7d357",
                    "feeRecipient": "0x2adc25665018aa1fe0e6bc666dac8fc2697ff9ba",
                    "stateRoot": "0x332bd997657e24a2f06d2fc9578c55a3f1be405e8faf59767ab22306f495da8d",
                    "receiptsRoot": "0x402817802db95465009f3e8fafdff010ad32c34deece9e608113ba22cd5140c1",
                    "logsBloom": "0x00000000000000000000000000000000000000000000000000000000000000000000000000000000000000000000000000000000000000000000000000000000000000000000000000000000000000000000000000000000000000000000000000000000000000000000000000000000000000000000000000000000000000000000000000000000000000000000000000000000000000000000000000000000000000000000000000000000000000000000000000000000000000000000000000000000000000000000000000000000000000000000000000000000000000000000000000000000000000000000000000000000000000000000000000000000",
                    "blockNumber": "0xd",
                    "gasLimit": "0x16345785d8a0000",
                    "gasUsed": "0xd2d2",
                    "timestamp": "0x32c7",
                    "extraData": "0x",
                    "prevRandao": "0x0000000000000000000000000000000000000000000000000000000000000000",
                    "baseFeePerGas": "0x7",
                    "blockHash": "0xb00e57c92c80974e89f3973773a3d8491a8d62591e3f31b9cc2953af4a4b1cfd",
                    "transactions": [
                        "0x02f90123010c8007830f424094000000000000000000000000000000000000100080b8c0010657f37554c781402a22917dee2f75def7ab966d7b770905398eba3c444014623ce31cf9759a5c8daf3a357992f9f3dd7f9339d8998bc8e68373e54f00b75e0000000000000000000000000000000000000000000000000000000000000000c00000000000000000000000000000000000000000000000000000000000000000000000000000000000000000000000c00000000000000000000000000000000000000000000000000000000000000000000000000000000000000000000000c080a0718d0cb35581c792ccc223ede83a9e762e4f7bc75ff3bfeb8686df3351ea91f29f301036ff40e88657f8a45879d81d638d86954c5acd27d2f8067cb8e1fb3727"
                    ],
                    "withdrawals": []
                },
                "version": "2"
            },
            {
                "executionPayload": {
                    "parentHash": "0xb00e57c92c80974e89f3973773a3d8491a8d62591e3f31b9cc2953af4a4b1cfd",
                    "feeRecipient": "0x2adc25665018aa1fe0e6bc666dac8fc2697ff9ba",
                    "stateRoot": "0xdf835e8edc9f7aeb3ca4ef636de0142bf71f8716047868b82e4c6b639225533f",
                    "receiptsRoot": "0x402817802db95465009f3e8fafdff010ad32c34deece9e608113ba22cd5140c1",
                    "logsBloom": "0x00000000000000000000000000000000000000000000000000000000000000000000000000000000000000000000000000000000000000000000000000000000000000000000000000000000000000000000000000000000000000000000000000000000000000000000000000000000000000000000000000000000000000000000000000000000000000000000000000000000000000000000000000000000000000000000000000000000000000000000000000000000000000000000000000000000000000000000000000000000000000000000000000000000000000000000000000000000000000000000000000000000000000000000000000000000",
                    "blockNumber": "0xe",
                    "gasLimit": "0x16345785d8a0000",
                    "gasUsed": "0xd2d2",
                    "timestamp": "0x36af",
                    "extraData": "0x",
                    "prevRandao": "0x0000000000000000000000000000000000000000000000000000000000000000",
                    "baseFeePerGas": "0x7",
                    "blockHash": "0x2695d4bb45398730bb601f6c62eacf276e5a6e0bea05c7990a909757a855a59c",
                    "transactions": [
                        "0x02f90124010d8007830f424094000000000000000000000000000000000000100080b8c0010657f37554c781402a22917dee2f75def7ab966d7b770905398eba3c444014623ce31cf9759a5c8daf3a357992f9f3dd7f9339d8998bc8e68373e54f00b75e0000000000000000000000000000000000000000000000000000000000000000c00000000000000000000000000000000000000000000000000000000000000000000000000000000000000000000000c00000000000000000000000000000000000000000000000000000000000000000000000000000000000000000000000c080a0dece3b931734448edb2f281b61adef2ac8a766f731d4b80c100ec36eb8068636a06b3283e67bb53b4d10483096320458aff5b71270b6beb7eb904828d1802490fa"
                    ],
                    "withdrawals": []
                },
                "version": "2"
            },
            {
                "executionPayload": {
                    "parentHash": "0x2695d4bb45398730bb601f6c62eacf276e5a6e0bea05c7990a909757a855a59c",
                    "feeRecipient": "0x2adc25665018aa1fe0e6bc666dac8fc2697ff9ba",
                    "stateRoot": "0xbc78014ebbe57ffd48bcc6d86540dac035be067631350a0885ce3f9301e41678",
                    "receiptsRoot": "0x402817802db95465009f3e8fafdff010ad32c34deece9e608113ba22cd5140c1",
                    "logsBloom": "0x00000000000000000000000000000000000000000000000000000000000000000000000000000000000000000000000000000000000000000000000000000000000000000000000000000000000000000000000000000000000000000000000000000000000000000000000000000000000000000000000000000000000000000000000000000000000000000000000000000000000000000000000000000000000000000000000000000000000000000000000000000000000000000000000000000000000000000000000000000000000000000000000000000000000000000000000000000000000000000000000000000000000000000000000000000000",
                    "blockNumber": "0xf",
                    "gasLimit": "0x16345785d8a0000",
                    "gasUsed": "0xd2d2",
                    "timestamp": "0x3a97",
                    "extraData": "0x",
                    "prevRandao": "0x0000000000000000000000000000000000000000000000000000000000000000",
                    "baseFeePerGas": "0x7",
                    "blockHash": "0x267d1b23d9a342a0fa4f3c73bd1b8ab348d8e943520025453ff7a56af12095f3",
                    "transactions": [
                        "0x02f90124010e8007830f424094000000000000000000000000000000000000100080b8c0010657f37554c781402a22917dee2f75def7ab966d7b770905398eba3c444014623ce31cf9759a5c8daf3a357992f9f3dd7f9339d8998bc8e68373e54f00b75e0000000000000000000000000000000000000000000000000000000000000000c00000000000000000000000000000000000000000000000000000000000000000000000000000000000000000000000c00000000000000000000000000000000000000000000000000000000000000000000000000000000000000000000000c080a0f18664d21245da126202ca49cb7e12ecc9078b4d4b40068e97a81f2cfc23ce77a032014dd7ba235ceb9fef583d2aa84f7d371c5ed9bd0535ed5cdfea3afc72b818"
                    ],
                    "withdrawals": []
                },
                "version": "2"
            },
            {
                "executionPayload": {
                    "parentHash": "0x267d1b23d9a342a0fa4f3c73bd1b8ab348d8e943520025453ff7a56af12095f3",
                    "feeRecipient": "0x2adc25665018aa1fe0e6bc666dac8fc2697ff9ba",
                    "stateRoot": "0x856601c39a7bba36955f32bca3abd771b7465a90ae509b81fd120d94e2b830c9",
                    "receiptsRoot": "0x21661973d509bbc413db6f28606e103b5569fdb83e38a3264b7de66ee3dd0111",
                    "logsBloom": "0x00000000000000000000000000000000000000000000000000000000000000000000000000000000000000000000000000000000000000000000000000000000000000000000000000000000000000000000000000000000000000000000000000000000000000000000000000000000000000000000000000000000000000000000000000000000000000000000000000000000000000000000000000000000000000000000000000000000000000000000000000000000000000000000000000000000000000000000000000000000000000000000000000000000000000000000000000000000000000000000000000000000000000000000000000000000",
                    "blockNumber": "0x10",
                    "gasLimit": "0x16345785d8a0000",
                    "gasUsed": "0xf0fc0",
                    "timestamp": "0x3a98",
                    "extraData": "0x",
                    "prevRandao": "0x0000000000000000000000000000000000000000000000000000000000000000",
                    "baseFeePerGas": "0x7",
                    "blobGasUsed": "0x0",
                    "excessBlobGas": "0x0",
                    "blockHash": "0xd004bac9056567616e0f06b4d451e1cdfc2727fdcebb70179b808792974d9518",
                    "transactions": [
                        "0x02f90124010f8007830f424094000000000000000000000000000000000000100080b8c0010657f37554c781402a22917dee2f75def7ab966d7b770905398eba3c444014623ce31cf9759a5c8daf3a357992f9f3dd7f9339d8998bc8e68373e54f00b75e0000000000000000000000000000000000000000000000000000000000000000c00000000000000000000000000000000000000000000000000000000000000000000000000000000000000000000000c00000000000000000000000000000000000000000000000000000000000000000000000000000000000000000000000c001a0d018fba58f37967496f5b8de3409693d0301032c609e8b8d5009caaff79b2c2da0075acdfeb5c7a0f290c9d330af9088ae1ca18c203fe99a10308e530163ec9020"
                    ],
                    "withdrawals": []
                },
                "version": "3",
                "expectedBlobVersionedHashes": [],
                "parentBeaconBlockRoot": "0x0000000000000000000000000000000000000000000000000000000000000000"
            }
        ],
        "engineFcuVersion": "3",
        "_info": {
            "hash": "0x2d6e87e36884da7969d21a74a32c017b1914ba462f7afd7f3028cc15ccf1b92c",
            "comment": "`execution-spec-tests` generated test",
            "filling-transition-tool": "evm version 1.14.4-unstable-44a50c9f-20240510",
            "reference-spec": "https://github.com/ethereum/EIPs/blob/master/EIPS/eip-4844.md",
            "reference-spec-version": "f0eb6a364aaf5ccb43516fa2c269a54fb881ecfd"
        }
    }
}