{
    "tests/cancun/eip4844_blobs/test_point_evaluation_precompile.py::test_point_evaluation_precompile_during_fork[fork_ShanghaiToCancunAtTime15k-blockchain_test_hive-correct_proof]": {
        "network": "ShanghaiToCancunAtTime15k",
        "genesisBlockHeader": {
            "parentHash": "0x0000000000000000000000000000000000000000000000000000000000000000",
            "uncleHash": "0x1dcc4de8dec75d7aab85b567b6ccd41ad312451b948a7413f0a142fd40d49347",
            "coinbase": "0x0000000000000000000000000000000000000000",
            "stateRoot": "0x1837a6b16203f5d15c216ed0c68bc86de74c008f6e90a72663173845b4a5da6e",
            "transactionsTrie": "0x56e81f171bcc55a6ff8345e692c0f86e5b48e01b996cadc001622fb5e363b421",
            "receiptTrie": "0x56e81f171bcc55a6ff8345e692c0f86e5b48e01b996cadc001622fb5e363b421",
            "bloom": "0x00000000000000000000000000000000000000000000000000000000000000000000000000000000000000000000000000000000000000000000000000000000000000000000000000000000000000000000000000000000000000000000000000000000000000000000000000000000000000000000000000000000000000000000000000000000000000000000000000000000000000000000000000000000000000000000000000000000000000000000000000000000000000000000000000000000000000000000000000000000000000000000000000000000000000000000000000000000000000000000000000000000000000000000000000000000",
            "difficulty": "0x00",
            "number": "0x00",
            "gasLimit": "0x016345785d8a0000",
            "gasUsed": "0x00",
            "timestamp": "0x00",
            "extraData": "0x00",
            "mixHash": "0x0000000000000000000000000000000000000000000000000000000000000000",
            "nonce": "0x0000000000000000",
            "baseFeePerGas": "0x07",
            "withdrawalsRoot": "0x56e81f171bcc55a6ff8345e692c0f86e5b48e01b996cadc001622fb5e363b421",
            "hash": "0x4882bdfcbf75f9375f28ad612b37b3a7db5af5dd4021bc282c43b13fbb82724c"
        },
        "pre": {
            "0x000f3df6d732807ef1319fb7b8bb8522d0beac02": {
                "nonce": "0x01",
                "balance": "0x00",
                "code": "0x3373fffffffffffffffffffffffffffffffffffffffe14604d57602036146024575f5ffd5b5f35801560495762001fff810690815414603c575f5ffd5b62001fff01545f5260205ff35b5f5ffd5b62001fff42064281555f359062001fff015500",
                "storage": {}
            },
            "0xa94f5374fce5edbc8e2a8697c15331677e6ebf0b": {
                "nonce": "0x00",
                "balance": "0x01000000000000000000",
                "code": "0x",
                "storage": {}
            },
            "0x0000000000000000000000000000000000000100": {
                "nonce": "0x00",
                "balance": "0x01000000000000000000",
                "code": "0x60006000600060006001600a5af14355",
                "storage": {}
            }
        },
        "postState": {
            "0x000000000000000000000000000000000000000a": {
                "nonce": "0x00",
                "balance": "0x0f",
                "code": "0x",
                "storage": {}
            },
            "0x0000000000000000000000000000000000000100": {
                "nonce": "0x00",
                "balance": "0xfffffffffffffffff1",
                "code": "0x60006000600060006001600a5af14355",
                "storage": {
                    "0x01": "0x01",
                    "0x02": "0x01",
                    "0x03": "0x01",
                    "0x04": "0x01",
                    "0x05": "0x01",
                    "0x06": "0x01",
                    "0x07": "0x01",
                    "0x08": "0x01",
                    "0x09": "0x01",
                    "0x0a": "0x01",
                    "0x0b": "0x01",
                    "0x0c": "0x01",
                    "0x0d": "0x01",
                    "0x0e": "0x01",
                    "0x0f": "0x01"
                }
            },
            "0x000f3df6d732807ef1319fb7b8bb8522d0beac02": {
                "nonce": "0x01",
                "balance": "0x00",
                "code": "0x3373fffffffffffffffffffffffffffffffffffffffe14604d57602036146024575f5ffd5b5f35801560495762001fff810690815414603c575f5ffd5b62001fff01545f5260205ff35b5f5ffd5b62001fff42064281555f359062001fff015500",
                "storage": {
                    "0x1a99": "0x3a98"
                }
            },
            "0xa94f5374fce5edbc8e2a8697c15331677e6ebf0b": {
                "nonce": "0x10",
                "balance": "0xffffffffffff3d6e06",
                "code": "0x",
                "storage": {}
            }
        },
        "engineNewPayloads": [
            {
                "executionPayload": {
                    "parentHash": "0x4882bdfcbf75f9375f28ad612b37b3a7db5af5dd4021bc282c43b13fbb82724c",
                    "feeRecipient": "0x2adc25665018aa1fe0e6bc666dac8fc2697ff9ba",
                    "stateRoot": "0xd481fd3da9b1b53fc81962a288bc733e758f2aa6d978193af039b52f24e48f06",
                    "receiptsRoot": "0x7c53f1e5660a78e8903fa3b72eef59be0af3f82a34437b7578b44130829a8558",
                    "logsBloom": "0x00000000000000000000000000000000000000000000000000000000000000000000000000000000000000000000000000000000000000000000000000000000000000000000000000000000000000000000000000000000000000000000000000000000000000000000000000000000000000000000000000000000000000000000000000000000000000000000000000000000000000000000000000000000000000000000000000000000000000000000000000000000000000000000000000000000000000000000000000000000000000000000000000000000000000000000000000000000000000000000000000000000000000000000000000000000",
                    "blockNumber": "0x1",
                    "gasLimit": "0x16345785d8a0000",
                    "gasUsed": "0x1347a",
                    "timestamp": "0x3e7",
                    "extraData": "0x",
                    "prevRandao": "0x0000000000000000000000000000000000000000000000000000000000000000",
                    "baseFeePerGas": "0x7",
                    "blockHash": "0xeb2acb30b2e9381379344f1669d301f969cd2ec51d7cec4957c52deac8d3561b",
                    "transactions": [
                        "0x02f9012401808007830f424094000000000000000000000000000000000000010080b8c0010657f37554c781402a22917dee2f75def7ab966d7b770905398eba3c444014623ce31cf9759a5c8daf3a357992f9f3dd7f9339d8998bc8e68373e54f00b75e0000000000000000000000000000000000000000000000000000000000000000c00000000000000000000000000000000000000000000000000000000000000000000000000000000000000000000000c00000000000000000000000000000000000000000000000000000000000000000000000000000000000000000000000c080a08d077aadf82e765319b8d2b96c508b41843c34cbb3b571712f46149c339362e1a04d25bce6b340faf6fe4e55cc935c0374f33faa248a998ca9e9d0aa607ca0fcaa"
                    ],
                    "withdrawals": []
                },
                "version": "2"
            },
            {
                "executionPayload": {
                    "parentHash": "0xeb2acb30b2e9381379344f1669d301f969cd2ec51d7cec4957c52deac8d3561b",
                    "feeRecipient": "0x2adc25665018aa1fe0e6bc666dac8fc2697ff9ba",
                    "stateRoot": "0x45d79a96fa78929b103735d8486619d643b4d12de67804c95de4b3e7476fb5a7",
                    "receiptsRoot": "0x402817802db95465009f3e8fafdff010ad32c34deece9e608113ba22cd5140c1",
                    "logsBloom": "0x00000000000000000000000000000000000000000000000000000000000000000000000000000000000000000000000000000000000000000000000000000000000000000000000000000000000000000000000000000000000000000000000000000000000000000000000000000000000000000000000000000000000000000000000000000000000000000000000000000000000000000000000000000000000000000000000000000000000000000000000000000000000000000000000000000000000000000000000000000000000000000000000000000000000000000000000000000000000000000000000000000000000000000000000000000000",
                    "blockNumber": "0x2",
                    "gasLimit": "0x16345785d8a0000",
                    "gasUsed": "0xd2d2",
                    "timestamp": "0x7cf",
                    "extraData": "0x",
                    "prevRandao": "0x0000000000000000000000000000000000000000000000000000000000000000",
                    "baseFeePerGas": "0x7",
                    "blockHash": "0x22f4021b58b8bcd4e626430031c9c1e15401f6503e27ed723652c6c1f992f3a6",
                    "transactions": [
                        "0x02f9012401018007830f424094000000000000000000000000000000000000010080b8c0010657f37554c781402a22917dee2f75def7ab966d7b770905398eba3c444014623ce31cf9759a5c8daf3a357992f9f3dd7f9339d8998bc8e68373e54f00b75e0000000000000000000000000000000000000000000000000000000000000000c00000000000000000000000000000000000000000000000000000000000000000000000000000000000000000000000c00000000000000000000000000000000000000000000000000000000000000000000000000000000000000000000000c001a02255be5c5eccb51527c6a213357d6f7b480ec4e15d553b8eb1524a6efa2519b3a01cb7c8285d672eb298fb143fa53d10b209c1548e1b322c3b64d427c445c67910"
                    ],
                    "withdrawals": []
                },
                "version": "2"
            },
            {
                "executionPayload": {
                    "parentHash": "0x22f4021b58b8bcd4e626430031c9c1e15401f6503e27ed723652c6c1f992f3a6",
                    "feeRecipient": "0x2adc25665018aa1fe0e6bc666dac8fc2697ff9ba",
                    "stateRoot": "0xc825a5c692503c5474bf8e324e9059d756cb4472b82af162a79668c6128930f6",
                    "receiptsRoot": "0x402817802db95465009f3e8fafdff010ad32c34deece9e608113ba22cd5140c1",
                    "logsBloom": "0x00000000000000000000000000000000000000000000000000000000000000000000000000000000000000000000000000000000000000000000000000000000000000000000000000000000000000000000000000000000000000000000000000000000000000000000000000000000000000000000000000000000000000000000000000000000000000000000000000000000000000000000000000000000000000000000000000000000000000000000000000000000000000000000000000000000000000000000000000000000000000000000000000000000000000000000000000000000000000000000000000000000000000000000000000000000",
                    "blockNumber": "0x3",
                    "gasLimit": "0x16345785d8a0000",
                    "gasUsed": "0xd2d2",
                    "timestamp": "0xbb7",
                    "extraData": "0x",
                    "prevRandao": "0x0000000000000000000000000000000000000000000000000000000000000000",
                    "baseFeePerGas": "0x7",
                    "blockHash": "0xb1773c98ec05de2960287d42da74c5b43cecb27c99fa094fdc9676348c6e0b44",
                    "transactions": [
                        "0x02f9012401028007830f424094000000000000000000000000000000000000010080b8c0010657f37554c781402a22917dee2f75def7ab966d7b770905398eba3c444014623ce31cf9759a5c8daf3a357992f9f3dd7f9339d8998bc8e68373e54f00b75e0000000000000000000000000000000000000000000000000000000000000000c00000000000000000000000000000000000000000000000000000000000000000000000000000000000000000000000c00000000000000000000000000000000000000000000000000000000000000000000000000000000000000000000000c080a01d153928a4a2442d9dbd65dd20faf19f2ea2abe14a9761c0354fcc4c1b43d086a01a10a731c05a5cc200fcce5e87bd2645d17f18c1c7aca1ca8df91764b7a5d738"
                    ],
                    "withdrawals": []
                },
                "version": "2"
            },
            {
                "executionPayload": {
                    "parentHash": "0xb1773c98ec05de2960287d42da74c5b43cecb27c99fa094fdc9676348c6e0b44",
                    "feeRecipient": "0x2adc25665018aa1fe0e6bc666dac8fc2697ff9ba",
                    "stateRoot": "0x421cf065b70678cdbb3e2f3688d58ea4ba8e53d89383b583ba82429b97083fde",
                    "receiptsRoot": "0x402817802db95465009f3e8fafdff010ad32c34deece9e608113ba22cd5140c1",
                    "logsBloom": "0x00000000000000000000000000000000000000000000000000000000000000000000000000000000000000000000000000000000000000000000000000000000000000000000000000000000000000000000000000000000000000000000000000000000000000000000000000000000000000000000000000000000000000000000000000000000000000000000000000000000000000000000000000000000000000000000000000000000000000000000000000000000000000000000000000000000000000000000000000000000000000000000000000000000000000000000000000000000000000000000000000000000000000000000000000000000",
                    "blockNumber": "0x4",
                    "gasLimit": "0x16345785d8a0000",
                    "gasUsed": "0xd2d2",
                    "timestamp": "0xf9f",
                    "extraData": "0x",
                    "prevRandao": "0x0000000000000000000000000000000000000000000000000000000000000000",
                    "baseFeePerGas": "0x7",
                    "blockHash": "0xb2c1edcaa260794f122b29a259f8d8e3e74e47e807445b1ce4f248c7276b71da",
                    "transactions": [
                        "0x02f9012401038007830f424094000000000000000000000000000000000000010080b8c0010657f37554c781402a22917dee2f75def7ab966d7b770905398eba3c444014623ce31cf9759a5c8daf3a357992f9f3dd7f9339d8998bc8e68373e54f00b75e0000000000000000000000000000000000000000000000000000000000000000c00000000000000000000000000000000000000000000000000000000000000000000000000000000000000000000000c00000000000000000000000000000000000000000000000000000000000000000000000000000000000000000000000c080a01856b0e16524c337f33f4fbd45c95a5a56c8b57eecf24bb43798cee27e3abbb1a001502631c289f3ca430af87a715f4b7713af303b58f0e7ec553014dbd7d82526"
                    ],
                    "withdrawals": []
                },
                "version": "2"
            },
            {
                "executionPayload": {
                    "parentHash": "0xb2c1edcaa260794f122b29a259f8d8e3e74e47e807445b1ce4f248c7276b71da",
                    "feeRecipient": "0x2adc25665018aa1fe0e6bc666dac8fc2697ff9ba",
                    "stateRoot": "0x76e8498f03e82a9b4c80a1a5d22ddbb33d044f490698d07b25f044accd45a301",
                    "receiptsRoot": "0x402817802db95465009f3e8fafdff010ad32c34deece9e608113ba22cd5140c1",
                    "logsBloom": "0x00000000000000000000000000000000000000000000000000000000000000000000000000000000000000000000000000000000000000000000000000000000000000000000000000000000000000000000000000000000000000000000000000000000000000000000000000000000000000000000000000000000000000000000000000000000000000000000000000000000000000000000000000000000000000000000000000000000000000000000000000000000000000000000000000000000000000000000000000000000000000000000000000000000000000000000000000000000000000000000000000000000000000000000000000000000",
                    "blockNumber": "0x5",
                    "gasLimit": "0x16345785d8a0000",
                    "gasUsed": "0xd2d2",
                    "timestamp": "0x1387",
                    "extraData": "0x",
                    "prevRandao": "0x0000000000000000000000000000000000000000000000000000000000000000",
                    "baseFeePerGas": "0x7",
                    "blockHash": "0xead49c85a10669306a52ffd6d2f4a2fc8f238db1acc3b4a9059f6cd294ec876d",
                    "transactions": [
                        "0x02f9012401048007830f424094000000000000000000000000000000000000010080b8c0010657f37554c781402a22917dee2f75def7ab966d7b770905398eba3c444014623ce31cf9759a5c8daf3a357992f9f3dd7f9339d8998bc8e68373e54f00b75e0000000000000000000000000000000000000000000000000000000000000000c00000000000000000000000000000000000000000000000000000000000000000000000000000000000000000000000c00000000000000000000000000000000000000000000000000000000000000000000000000000000000000000000000c001a01e9e2af346507603b29dfca2cb4fad1ba090386e3fb41b3826680427af7efa63a056357586c8ca4087590f9b30bb63ff5a9f0d6e636e601b58189f317c8b0a923f"
                    ],
                    "withdrawals": []
                },
                "version": "2"
            },
            {
                "executionPayload": {
                    "parentHash": "0xead49c85a10669306a52ffd6d2f4a2fc8f238db1acc3b4a9059f6cd294ec876d",
                    "feeRecipient": "0x2adc25665018aa1fe0e6bc666dac8fc2697ff9ba",
                    "stateRoot": "0x9c73061995b4fe48995a84f1fc68abef9db3fcc3fb7f981311491698e527dade",
                    "receiptsRoot": "0x402817802db95465009f3e8fafdff010ad32c34deece9e608113ba22cd5140c1",
                    "logsBloom": "0x00000000000000000000000000000000000000000000000000000000000000000000000000000000000000000000000000000000000000000000000000000000000000000000000000000000000000000000000000000000000000000000000000000000000000000000000000000000000000000000000000000000000000000000000000000000000000000000000000000000000000000000000000000000000000000000000000000000000000000000000000000000000000000000000000000000000000000000000000000000000000000000000000000000000000000000000000000000000000000000000000000000000000000000000000000000",
                    "blockNumber": "0x6",
                    "gasLimit": "0x16345785d8a0000",
                    "gasUsed": "0xd2d2",
                    "timestamp": "0x176f",
                    "extraData": "0x",
                    "prevRandao": "0x0000000000000000000000000000000000000000000000000000000000000000",
                    "baseFeePerGas": "0x7",
                    "blockHash": "0x84cccedcb35f9397979306e5e1cfb2ca0257bbc0fbfb8dc2ff8fb54d84689b1a",
                    "transactions": [
                        "0x02f9012401058007830f424094000000000000000000000000000000000000010080b8c0010657f37554c781402a22917dee2f75def7ab966d7b770905398eba3c444014623ce31cf9759a5c8daf3a357992f9f3dd7f9339d8998bc8e68373e54f00b75e0000000000000000000000000000000000000000000000000000000000000000c00000000000000000000000000000000000000000000000000000000000000000000000000000000000000000000000c00000000000000000000000000000000000000000000000000000000000000000000000000000000000000000000000c001a05166cdab7aa11b8c321fc36e9ebd875d68e541560ec1098cb306716848ba9cbda04453c1b3ad9430dd08a5e19f834968abeb788aefb247bbe222de954e7c85b38b"
                    ],
                    "withdrawals": []
                },
                "version": "2"
            },
            {
                "executionPayload": {
                    "parentHash": "0x84cccedcb35f9397979306e5e1cfb2ca0257bbc0fbfb8dc2ff8fb54d84689b1a",
                    "feeRecipient": "0x2adc25665018aa1fe0e6bc666dac8fc2697ff9ba",
                    "stateRoot": "0xe299fc09b9a2b59ccc9a9cadf2a5eeaa5cf6e07fff27e3efb33eebe2da51f5ce",
                    "receiptsRoot": "0x402817802db95465009f3e8fafdff010ad32c34deece9e608113ba22cd5140c1",
                    "logsBloom": "0x00000000000000000000000000000000000000000000000000000000000000000000000000000000000000000000000000000000000000000000000000000000000000000000000000000000000000000000000000000000000000000000000000000000000000000000000000000000000000000000000000000000000000000000000000000000000000000000000000000000000000000000000000000000000000000000000000000000000000000000000000000000000000000000000000000000000000000000000000000000000000000000000000000000000000000000000000000000000000000000000000000000000000000000000000000000",
                    "blockNumber": "0x7",
                    "gasLimit": "0x16345785d8a0000",
                    "gasUsed": "0xd2d2",
                    "timestamp": "0x1b57",
                    "extraData": "0x",
                    "prevRandao": "0x0000000000000000000000000000000000000000000000000000000000000000",
                    "baseFeePerGas": "0x7",
                    "blockHash": "0x888b1693c0df1b95ebd7ec98137d66e5360fa03e90ee7d393ce0f68a566b8644",
                    "transactions": [
                        "0x02f9012401068007830f424094000000000000000000000000000000000000010080b8c0010657f37554c781402a22917dee2f75def7ab966d7b770905398eba3c444014623ce31cf9759a5c8daf3a357992f9f3dd7f9339d8998bc8e68373e54f00b75e0000000000000000000000000000000000000000000000000000000000000000c00000000000000000000000000000000000000000000000000000000000000000000000000000000000000000000000c00000000000000000000000000000000000000000000000000000000000000000000000000000000000000000000000c001a0e92810ef87b2d922beab50dfb8156f7fe2e51705378472753609d16495c38a72a01e0b234e746f791694d0bc59c21dec2ca2fc8d28720e265e1bef839b52e64fd1"
                    ],
                    "withdrawals": []
                },
                "version": "2"
            },
            {
                "executionPayload": {
                    "parentHash": "0x888b1693c0df1b95ebd7ec98137d66e5360fa03e90ee7d393ce0f68a566b8644",
                    "feeRecipient": "0x2adc25665018aa1fe0e6bc666dac8fc2697ff9ba",
                    "stateRoot": "0x006a3e5ce2ce23c176060de75470ce8d434a9678618b26b15340d613f73455c9",
                    "receiptsRoot": "0x402817802db95465009f3e8fafdff010ad32c34deece9e608113ba22cd5140c1",
                    "logsBloom": "0x00000000000000000000000000000000000000000000000000000000000000000000000000000000000000000000000000000000000000000000000000000000000000000000000000000000000000000000000000000000000000000000000000000000000000000000000000000000000000000000000000000000000000000000000000000000000000000000000000000000000000000000000000000000000000000000000000000000000000000000000000000000000000000000000000000000000000000000000000000000000000000000000000000000000000000000000000000000000000000000000000000000000000000000000000000000",
                    "blockNumber": "0x8",
                    "gasLimit": "0x16345785d8a0000",
                    "gasUsed": "0xd2d2",
                    "timestamp": "0x1f3f",
                    "extraData": "0x",
                    "prevRandao": "0x0000000000000000000000000000000000000000000000000000000000000000",
                    "baseFeePerGas": "0x7",
                    "blockHash": "0x15e97dfc4b864a8d4bbb33f5deca6d4f9efa949424f80cc8e698f80f0ed1001d",
                    "transactions": [
                        "0x02f9012401078007830f424094000000000000000000000000000000000000010080b8c0010657f37554c781402a22917dee2f75def7ab966d7b770905398eba3c444014623ce31cf9759a5c8daf3a357992f9f3dd7f9339d8998bc8e68373e54f00b75e0000000000000000000000000000000000000000000000000000000000000000c00000000000000000000000000000000000000000000000000000000000000000000000000000000000000000000000c00000000000000000000000000000000000000000000000000000000000000000000000000000000000000000000000c001a0e78f7e5011540370e32c2d776e925b83fde5fdd2732cfe7211875d62c11835e2a062e8449e8d29d8febd7ce7522af98e3b9e8c1940311ec9cc5a601936088ca5d6"
                    ],
                    "withdrawals": []
                },
                "version": "2"
            },
            {
                "executionPayload": {
                    "parentHash": "0x15e97dfc4b864a8d4bbb33f5deca6d4f9efa949424f80cc8e698f80f0ed1001d",
                    "feeRecipient": "0x2adc25665018aa1fe0e6bc666dac8fc2697ff9ba",
                    "stateRoot": "0xb82f349e35f174a9f11e6b73b7967cd67a20a512d65059163f360138a155044a",
                    "receiptsRoot": "0x402817802db95465009f3e8fafdff010ad32c34deece9e608113ba22cd5140c1",
                    "logsBloom": "0x00000000000000000000000000000000000000000000000000000000000000000000000000000000000000000000000000000000000000000000000000000000000000000000000000000000000000000000000000000000000000000000000000000000000000000000000000000000000000000000000000000000000000000000000000000000000000000000000000000000000000000000000000000000000000000000000000000000000000000000000000000000000000000000000000000000000000000000000000000000000000000000000000000000000000000000000000000000000000000000000000000000000000000000000000000000",
                    "blockNumber": "0x9",
                    "gasLimit": "0x16345785d8a0000",
                    "gasUsed": "0xd2d2",
                    "timestamp": "0x2327",
                    "extraData": "0x",
                    "prevRandao": "0x0000000000000000000000000000000000000000000000000000000000000000",
                    "baseFeePerGas": "0x7",
                    "blockHash": "0xbcc95be5eaeb4aae0f3453a7e0b4ddc25a293a0feb6464c2e2d6381f0dc78652",
                    "transactions": [
                        "0x02f9012401088007830f424094000000000000000000000000000000000000010080b8c0010657f37554c781402a22917dee2f75def7ab966d7b770905398eba3c444014623ce31cf9759a5c8daf3a357992f9f3dd7f9339d8998bc8e68373e54f00b75e0000000000000000000000000000000000000000000000000000000000000000c00000000000000000000000000000000000000000000000000000000000000000000000000000000000000000000000c00000000000000000000000000000000000000000000000000000000000000000000000000000000000000000000000c080a06c3ed72575f9de73c447f719c389ad98b31476f6be5473b8bab6a116b7d0ff7fa036962bbc9b2d34c7ea06e0358cd007a260658bac66a5b3855d75f180b17ea6ff"
                    ],
                    "withdrawals": []
                },
                "version": "2"
            },
            {
                "executionPayload": {
                    "parentHash": "0xbcc95be5eaeb4aae0f3453a7e0b4ddc25a293a0feb6464c2e2d6381f0dc78652",
                    "feeRecipient": "0x2adc25665018aa1fe0e6bc666dac8fc2697ff9ba",
                    "stateRoot": "0xebde02452144ddb74f1d74e657d014c6ab802c4b9a65833aaedee43062bf226c",
                    "receiptsRoot": "0x402817802db95465009f3e8fafdff010ad32c34deece9e608113ba22cd5140c1",
                    "logsBloom": "0x00000000000000000000000000000000000000000000000000000000000000000000000000000000000000000000000000000000000000000000000000000000000000000000000000000000000000000000000000000000000000000000000000000000000000000000000000000000000000000000000000000000000000000000000000000000000000000000000000000000000000000000000000000000000000000000000000000000000000000000000000000000000000000000000000000000000000000000000000000000000000000000000000000000000000000000000000000000000000000000000000000000000000000000000000000000",
                    "blockNumber": "0xa",
                    "gasLimit": "0x16345785d8a0000",
                    "gasUsed": "0xd2d2",
                    "timestamp": "0x270f",
                    "extraData": "0x",
                    "prevRandao": "0x0000000000000000000000000000000000000000000000000000000000000000",
                    "baseFeePerGas": "0x7",
                    "blockHash": "0x24de9a4e60516b2251570d325b5b47566519963ff95f2f067316c0c4b6f15624",
                    "transactions": [
                        "0x02f9012401098007830f424094000000000000000000000000000000000000010080b8c0010657f37554c781402a22917dee2f75def7ab966d7b770905398eba3c444014623ce31cf9759a5c8daf3a357992f9f3dd7f9339d8998bc8e68373e54f00b75e0000000000000000000000000000000000000000000000000000000000000000c00000000000000000000000000000000000000000000000000000000000000000000000000000000000000000000000c00000000000000000000000000000000000000000000000000000000000000000000000000000000000000000000000c080a0e8e17448df52de5d034a381052b4f886847004a37ce8dc660081e214a7a16773a058dde277185e93f224caf513675909034f82ad56e7843cdb48b8289bfa121510"
                    ],
                    "withdrawals": []
                },
                "version": "2"
            },
            {
                "executionPayload": {
                    "parentHash": "0x24de9a4e60516b2251570d325b5b47566519963ff95f2f067316c0c4b6f15624",
                    "feeRecipient": "0x2adc25665018aa1fe0e6bc666dac8fc2697ff9ba",
                    "stateRoot": "0x6a28d8f4fe7d95be18951780d2db5cd898c90a94a791c3b7630bf1c4ccd50d62",
                    "receiptsRoot": "0x402817802db95465009f3e8fafdff010ad32c34deece9e608113ba22cd5140c1",
                    "logsBloom": "0x00000000000000000000000000000000000000000000000000000000000000000000000000000000000000000000000000000000000000000000000000000000000000000000000000000000000000000000000000000000000000000000000000000000000000000000000000000000000000000000000000000000000000000000000000000000000000000000000000000000000000000000000000000000000000000000000000000000000000000000000000000000000000000000000000000000000000000000000000000000000000000000000000000000000000000000000000000000000000000000000000000000000000000000000000000000",
                    "blockNumber": "0xb",
                    "gasLimit": "0x16345785d8a0000",
                    "gasUsed": "0xd2d2",
                    "timestamp": "0x2af7",
                    "extraData": "0x",
                    "prevRandao": "0x0000000000000000000000000000000000000000000000000000000000000000",
                    "baseFeePerGas": "0x7",
                    "blockHash": "0x103c30e18ff6fd5ea5d7f27c0366728e6676042ebafb672bd70b15ab6baa22a9",
                    "transactions": [
                        "0x02f90124010a8007830f424094000000000000000000000000000000000000010080b8c0010657f37554c781402a22917dee2f75def7ab966d7b770905398eba3c444014623ce31cf9759a5c8daf3a357992f9f3dd7f9339d8998bc8e68373e54f00b75e0000000000000000000000000000000000000000000000000000000000000000c00000000000000000000000000000000000000000000000000000000000000000000000000000000000000000000000c00000000000000000000000000000000000000000000000000000000000000000000000000000000000000000000000c080a026a4455edb7339ce937389e359802d049d5d2e63387e78e0794016852b0c975da01fc711a656fd9609bb0d34eadf465ea2b6f475a4e3b060356661c0006b8fb37c"
                    ],
                    "withdrawals": []
                },
                "version": "2"
            },
            {
                "executionPayload": {
                    "parentHash": "0x103c30e18ff6fd5ea5d7f27c0366728e6676042ebafb672bd70b15ab6baa22a9",
                    "feeRecipient": "0x2adc25665018aa1fe0e6bc666dac8fc2697ff9ba",
                    "stateRoot": "0xdd4200c807726b664aab38c301a560dc14c684f2845e7608a84b2718edb64409",
                    "receiptsRoot": "0x402817802db95465009f3e8fafdff010ad32c34deece9e608113ba22cd5140c1",
                    "logsBloom": "0x00000000000000000000000000000000000000000000000000000000000000000000000000000000000000000000000000000000000000000000000000000000000000000000000000000000000000000000000000000000000000000000000000000000000000000000000000000000000000000000000000000000000000000000000000000000000000000000000000000000000000000000000000000000000000000000000000000000000000000000000000000000000000000000000000000000000000000000000000000000000000000000000000000000000000000000000000000000000000000000000000000000000000000000000000000000",
                    "blockNumber": "0xc",
                    "gasLimit": "0x16345785d8a0000",
                    "gasUsed": "0xd2d2",
                    "timestamp": "0x2edf",
                    "extraData": "0x",
                    "prevRandao": "0x0000000000000000000000000000000000000000000000000000000000000000",
                    "baseFeePerGas": "0x7",
                    "blockHash": "0x835605e586944384858f8cb3e9bdc4aacf5793aa1db6556d7e31a5595e27c780",
                    "transactions": [
                        "0x02f90124010b8007830f424094000000000000000000000000000000000000010080b8c0010657f37554c781402a22917dee2f75def7ab966d7b770905398eba3c444014623ce31cf9759a5c8daf3a357992f9f3dd7f9339d8998bc8e68373e54f00b75e0000000000000000000000000000000000000000000000000000000000000000c00000000000000000000000000000000000000000000000000000000000000000000000000000000000000000000000c00000000000000000000000000000000000000000000000000000000000000000000000000000000000000000000000c080a07c230f4fcb84a42f56c548db9d33ff56afb0ca76a26824a8e9f05900695687efa056baf103b1ad765c145f4766d2ec4f4fbb9ba8472530d3d61d93bff9fe1276c2"
                    ],
                    "withdrawals": []
                },
                "version": "2"
            },
            {
                "executionPayload": {
                    "parentHash": "0x835605e586944384858f8cb3e9bdc4aacf5793aa1db6556d7e31a5595e27c780",
                    "feeRecipient": "0x2adc25665018aa1fe0e6bc666dac8fc2697ff9ba",
                    "stateRoot": "0x98ad79a84326ad0d843d12d5984f3f7afd28a8e64a248dbb9d001d380ee89daa",
                    "receiptsRoot": "0x402817802db95465009f3e8fafdff010ad32c34deece9e608113ba22cd5140c1",
                    "logsBloom": "0x00000000000000000000000000000000000000000000000000000000000000000000000000000000000000000000000000000000000000000000000000000000000000000000000000000000000000000000000000000000000000000000000000000000000000000000000000000000000000000000000000000000000000000000000000000000000000000000000000000000000000000000000000000000000000000000000000000000000000000000000000000000000000000000000000000000000000000000000000000000000000000000000000000000000000000000000000000000000000000000000000000000000000000000000000000000",
                    "blockNumber": "0xd",
                    "gasLimit": "0x16345785d8a0000",
                    "gasUsed": "0xd2d2",
                    "timestamp": "0x32c7",
                    "extraData": "0x",
                    "prevRandao": "0x0000000000000000000000000000000000000000000000000000000000000000",
                    "baseFeePerGas": "0x7",
                    "blockHash": "0x8eae9a67e67b5bf339a510b67ebe7779384a8fc142d8bcb68a198473b792073f",
                    "transactions": [
                        "0x02f90124010c8007830f424094000000000000000000000000000000000000010080b8c0010657f37554c781402a22917dee2f75def7ab966d7b770905398eba3c444014623ce31cf9759a5c8daf3a357992f9f3dd7f9339d8998bc8e68373e54f00b75e0000000000000000000000000000000000000000000000000000000000000000c00000000000000000000000000000000000000000000000000000000000000000000000000000000000000000000000c00000000000000000000000000000000000000000000000000000000000000000000000000000000000000000000000c080a0d9e30d6d728e16337757fb7bd2c92a006f10b4f965d00827c64d92866141f1aaa077a6960054fe2790f4f56e0a54524a3b31f2aa625f11b7a51feb445617b152f6"
                    ],
                    "withdrawals": []
                },
                "version": "2"
            },
            {
                "executionPayload": {
                    "parentHash": "0x8eae9a67e67b5bf339a510b67ebe7779384a8fc142d8bcb68a198473b792073f",
                    "feeRecipient": "0x2adc25665018aa1fe0e6bc666dac8fc2697ff9ba",
                    "stateRoot": "0x0280874be036aedc79c53a76cfe72c2aecd04bd562dbb085a02c5fee778371a4",
                    "receiptsRoot": "0x402817802db95465009f3e8fafdff010ad32c34deece9e608113ba22cd5140c1",
                    "logsBloom": "0x00000000000000000000000000000000000000000000000000000000000000000000000000000000000000000000000000000000000000000000000000000000000000000000000000000000000000000000000000000000000000000000000000000000000000000000000000000000000000000000000000000000000000000000000000000000000000000000000000000000000000000000000000000000000000000000000000000000000000000000000000000000000000000000000000000000000000000000000000000000000000000000000000000000000000000000000000000000000000000000000000000000000000000000000000000000",
                    "blockNumber": "0xe",
                    "gasLimit": "0x16345785d8a0000",
                    "gasUsed": "0xd2d2",
                    "timestamp": "0x36af",
                    "extraData": "0x",
                    "prevRandao": "0x0000000000000000000000000000000000000000000000000000000000000000",
                    "baseFeePerGas": "0x7",
                    "blockHash": "0xcf6b260b1e981e9a3eeae5f372bb11d976376d554903376c967009ce2c1080ac",
                    "transactions": [
                        "0x02f90124010d8007830f424094000000000000000000000000000000000000010080b8c0010657f37554c781402a22917dee2f75def7ab966d7b770905398eba3c444014623ce31cf9759a5c8daf3a357992f9f3dd7f9339d8998bc8e68373e54f00b75e0000000000000000000000000000000000000000000000000000000000000000c00000000000000000000000000000000000000000000000000000000000000000000000000000000000000000000000c00000000000000000000000000000000000000000000000000000000000000000000000000000000000000000000000c080a0d8f088a3be314e9a0d258dd01907e8497b3f286b737e4186cd498d78a6fd87e9a015822e41cab687291b82acd30642836670e2c834f8568ffb90743865c9372707"
                    ],
                    "withdrawals": []
                },
                "version": "2"
            },
            {
                "executionPayload": {
                    "parentHash": "0xcf6b260b1e981e9a3eeae5f372bb11d976376d554903376c967009ce2c1080ac",
                    "feeRecipient": "0x2adc25665018aa1fe0e6bc666dac8fc2697ff9ba",
                    "stateRoot": "0x4fbcfe9f5eb28d91ad9bddc7d1e5179536e7139b30e3f07f45c50543f938f526",
                    "receiptsRoot": "0x402817802db95465009f3e8fafdff010ad32c34deece9e608113ba22cd5140c1",
                    "logsBloom": "0x00000000000000000000000000000000000000000000000000000000000000000000000000000000000000000000000000000000000000000000000000000000000000000000000000000000000000000000000000000000000000000000000000000000000000000000000000000000000000000000000000000000000000000000000000000000000000000000000000000000000000000000000000000000000000000000000000000000000000000000000000000000000000000000000000000000000000000000000000000000000000000000000000000000000000000000000000000000000000000000000000000000000000000000000000000000",
                    "blockNumber": "0xf",
                    "gasLimit": "0x16345785d8a0000",
                    "gasUsed": "0xd2d2",
                    "timestamp": "0x3a97",
                    "extraData": "0x",
                    "prevRandao": "0x0000000000000000000000000000000000000000000000000000000000000000",
                    "baseFeePerGas": "0x7",
                    "blockHash": "0x454ee2e59507807f0d5424325d2e46251fe356448e27a3c78dd181c166b3cb69",
                    "transactions": [
                        "0x02f90124010e8007830f424094000000000000000000000000000000000000010080b8c0010657f37554c781402a22917dee2f75def7ab966d7b770905398eba3c444014623ce31cf9759a5c8daf3a357992f9f3dd7f9339d8998bc8e68373e54f00b75e0000000000000000000000000000000000000000000000000000000000000000c00000000000000000000000000000000000000000000000000000000000000000000000000000000000000000000000c00000000000000000000000000000000000000000000000000000000000000000000000000000000000000000000000c080a0db968386378605ccbc61cf0901cb9a8341077323cd5e69920806349269b529dfa052a7399814a7dc5869cf5699418811b600949b0f158c54faae9fd9a2d7dcb5a3"
                    ],
                    "withdrawals": []
                },
                "version": "2"
            },
            {
                "executionPayload": {
                    "parentHash": "0x454ee2e59507807f0d5424325d2e46251fe356448e27a3c78dd181c166b3cb69",
                    "feeRecipient": "0x2adc25665018aa1fe0e6bc666dac8fc2697ff9ba",
                    "stateRoot": "0x24a3c563f14a71400b33060c029ad3b57d2878ee1a9913341d751c32449efc24",
                    "receiptsRoot": "0x21661973d509bbc413db6f28606e103b5569fdb83e38a3264b7de66ee3dd0111",
                    "logsBloom": "0x00000000000000000000000000000000000000000000000000000000000000000000000000000000000000000000000000000000000000000000000000000000000000000000000000000000000000000000000000000000000000000000000000000000000000000000000000000000000000000000000000000000000000000000000000000000000000000000000000000000000000000000000000000000000000000000000000000000000000000000000000000000000000000000000000000000000000000000000000000000000000000000000000000000000000000000000000000000000000000000000000000000000000000000000000000000",
                    "blockNumber": "0x10",
                    "gasLimit": "0x16345785d8a0000",
                    "gasUsed": "0xf0fc0",
                    "timestamp": "0x3a98",
                    "extraData": "0x",
                    "prevRandao": "0x0000000000000000000000000000000000000000000000000000000000000000",
                    "baseFeePerGas": "0x7",
                    "blobGasUsed": "0x0",
                    "excessBlobGas": "0x0",
                    "blockHash": "0x66721893f01c4d9790450ec7c6309650de0f1344d02139865f9824581f9be768",
                    "transactions": [
                        "0x02f90124010f8007830f424094000000000000000000000000000000000000010080b8c0010657f37554c781402a22917dee2f75def7ab966d7b770905398eba3c444014623ce31cf9759a5c8daf3a357992f9f3dd7f9339d8998bc8e68373e54f00b75e0000000000000000000000000000000000000000000000000000000000000000c00000000000000000000000000000000000000000000000000000000000000000000000000000000000000000000000c00000000000000000000000000000000000000000000000000000000000000000000000000000000000000000000000c001a0abe11f1309894c99bb80b5a6b6e6a339566c0f772d28d9a4ae9e4687fb74cca5a023fd240d9cb407472302ab835f9f8cfe454389d86128f141c4c90792d9d41ecc"
                    ],
                    "withdrawals": []
                },
                "version": "3",
                "expectedBlobVersionedHashes": [],
                "parentBeaconBlockRoot": "0x0000000000000000000000000000000000000000000000000000000000000000"
            }
        ],
        "engineFcuVersion": "3",
        "_info": {
            "hash": "0xdbe20ad118432858d82656344ab54eb9d2be19e2a7bcbce28341763524e132bb",
            "comment": "`execution-spec-tests` generated test",
            "filling-transition-tool": "evm version 1.14.1-unstable-d6e91e2e-20240507",
            "reference-spec": "https://github.com/ethereum/EIPs/blob/master/EIPS/eip-4844.md",
            "reference-spec-version": "f0eb6a364aaf5ccb43516fa2c269a54fb881ecfd"
        }
    }
}