{
    "tests/cancun/eip4844_blobs/test_excess_blob_gas.py::test_invalid_static_excess_blob_gas_from_zero_on_blobs_above_target[fork_Cancun-blockchain_test_hive-new_blobs_1-parent_excess_blobs_0-parent_blobs_4-header_excess_blob_gas_0]": {
        "network": "Cancun",
        "genesisBlockHeader": {
            "parentHash": "0x0000000000000000000000000000000000000000000000000000000000000000",
            "uncleHash": "0x1dcc4de8dec75d7aab85b567b6ccd41ad312451b948a7413f0a142fd40d49347",
            "coinbase": "0x0000000000000000000000000000000000000000",
            "stateRoot": "0x9de0a09139dcac23955e94ad33133f18e6c1ad77efe49af87ad85d5cfb3e2c45",
            "transactionsTrie": "0x56e81f171bcc55a6ff8345e692c0f86e5b48e01b996cadc001622fb5e363b421",
            "receiptTrie": "0x56e81f171bcc55a6ff8345e692c0f86e5b48e01b996cadc001622fb5e363b421",
            "bloom": "0x00000000000000000000000000000000000000000000000000000000000000000000000000000000000000000000000000000000000000000000000000000000000000000000000000000000000000000000000000000000000000000000000000000000000000000000000000000000000000000000000000000000000000000000000000000000000000000000000000000000000000000000000000000000000000000000000000000000000000000000000000000000000000000000000000000000000000000000000000000000000000000000000000000000000000000000000000000000000000000000000000000000000000000000000000000000",
            "difficulty": "0x00",
            "number": "0x00",
            "gasLimit": "0x016345785d8a0000",
            "gasUsed": "0x00",
            "timestamp": "0x00",
            "extraData": "0x00",
            "mixHash": "0x0000000000000000000000000000000000000000000000000000000000000000",
            "nonce": "0x0000000000000000",
            "baseFeePerGas": "0x07",
            "withdrawalsRoot": "0x56e81f171bcc55a6ff8345e692c0f86e5b48e01b996cadc001622fb5e363b421",
            "blobGasUsed": "0x00",
            "excessBlobGas": "0x060000",
            "parentBeaconBlockRoot": "0x0000000000000000000000000000000000000000000000000000000000000000",
            "hash": "0x1ba4c3926d101d3a67afa9114817033f44c24673fab707e2b1442011c6c7ad5a"
        },
        "pre": {
            "0x000f3df6d732807ef1319fb7b8bb8522d0beac02": {
                "nonce": "0x01",
                "balance": "0x00",
                "code": "0x3373fffffffffffffffffffffffffffffffffffffffe14604d57602036146024575f5ffd5b5f35801560495762001fff810690815414603c575f5ffd5b62001fff01545f5260205ff35b5f5ffd5b62001fff42064281555f359062001fff015500",
                "storage": {}
            },
            "0xa94f5374fce5edbc8e2a8697c15331677e6ebf0b": {
                "nonce": "0x00",
                "balance": "0x06ce79",
                "code": "0x",
                "storage": {}
            },
            "0x8a0a19589531694250d570040a0c4b74576919b8": {
                "nonce": "0x00",
                "balance": "0x1d6329f1c35ca4bfabb9f5610000000000",
                "code": "0x",
                "storage": {}
            },
            "0x0000000000000000000000000000000000001000": {
                "nonce": "0x00",
                "balance": "0x00",
                "code": "0x4a600055",
                "storage": {}
            }
        },
        "postState": {
            "0x0000000000000000000000000000000000001000": {
                "nonce": "0x00",
                "balance": "0x00",
                "code": "0x4a600055",
                "storage": {}
            },
            "0x0000000000000000000000000000000000002000": {
                "nonce": "0x00",
                "balance": "0x01",
                "code": "0x",
                "storage": {}
            },
            "0x000f3df6d732807ef1319fb7b8bb8522d0beac02": {
                "nonce": "0x01",
                "balance": "0x00",
                "code": "0x3373fffffffffffffffffffffffffffffffffffffffe14604d57602036146024575f5ffd5b5f35801560495762001fff810690815414603c575f5ffd5b62001fff01545f5260205ff35b5f5ffd5b62001fff42064281555f359062001fff015500",
                "storage": {
                    "0x0c": "0x0c"
                }
            },
            "0x8a0a19589531694250d570040a0c4b74576919b8": {
                "nonce": "0x01",
                "balance": "0x1d6329f1c35ca4bfabb9f560fffff5c1c7",
                "code": "0x",
                "storage": {}
            },
            "0xa94f5374fce5edbc8e2a8697c15331677e6ebf0b": {
                "nonce": "0x00",
                "balance": "0x06ce79",
                "code": "0x",
                "storage": {}
            }
        },
        "engineNewPayloads": [
            {
                "executionPayload": {
                    "parentHash": "0x1ba4c3926d101d3a67afa9114817033f44c24673fab707e2b1442011c6c7ad5a",
                    "feeRecipient": "0x2adc25665018aa1fe0e6bc666dac8fc2697ff9ba",
                    "stateRoot": "0xe201891b910843fb60473dd738297db124c2e045ee794812a1c1574694398607",
                    "receiptsRoot": "0xeaa8c40899a61ae59615cf9985f5e2194f8fd2b57d273be63bde6733e89b12ab",
                    "logsBloom": "0x00000000000000000000000000000000000000000000000000000000000000000000000000000000000000000000000000000000000000000000000000000000000000000000000000000000000000000000000000000000000000000000000000000000000000000000000000000000000000000000000000000000000000000000000000000000000000000000000000000000000000000000000000000000000000000000000000000000000000000000000000000000000000000000000000000000000000000000000000000000000000000000000000000000000000000000000000000000000000000000000000000000000000000000000000000000",
                    "blockNumber": "0x1",
                    "gasLimit": "0x16345785d8a0000",
                    "gasUsed": "0x5208",
                    "timestamp": "0xc",
                    "extraData": "0x",
                    "prevRandao": "0x0000000000000000000000000000000000000000000000000000000000000000",
                    "baseFeePerGas": "0x7",
                    "blobGasUsed": "0x80000",
                    "excessBlobGas": "0x0",
                    "blockHash": "0x6ac4853ef46e0a0679f81ae47a66e34241a2f6f0651da1a022e05b59be649ffa",
                    "transactions": [
                        "0x03f8e9018080078252089400000000000000000000000000000000000020000180c001f884a00100000000000000000000000000000000000000000000000000000000000000a00100000000000000000000000000000000000000000000000000000000000001a00100000000000000000000000000000000000000000000000000000000000002a0010000000000000000000000000000000000000000000000000000000000000380a078ce46227329d693f50907ab7a7c63ba1452f6c546b6d97e8a483e52f5276f68a07ca9d5f970ccc43923ded3ed7885725ce1ae6725946a2703c8b2699523c552a7"
                    ],
                    "withdrawals": []
                },
                "version": "3",
                "expectedBlobVersionedHashes": [
                    "0x0100000000000000000000000000000000000000000000000000000000000000",
                    "0x0100000000000000000000000000000000000000000000000000000000000001",
                    "0x0100000000000000000000000000000000000000000000000000000000000002",
                    "0x0100000000000000000000000000000000000000000000000000000000000003"
                ],
                "parentBeaconBlockRoot": "0x0000000000000000000000000000000000000000000000000000000000000000"
            },
            {
                "executionPayload": {
                    "parentHash": "0x6ac4853ef46e0a0679f81ae47a66e34241a2f6f0651da1a022e05b59be649ffa",
                    "feeRecipient": "0x2adc25665018aa1fe0e6bc666dac8fc2697ff9ba",
                    "stateRoot": "0x7b941feebcaff73353c8a81a4c673f0eb828215df96c4d9981c5973ba07c7eb8",
                    "receiptsRoot": "0xc117ad0158b04d4277c8a0d1b440360bf3f011ad7caccf8740df472c96e8f5cc",
                    "logsBloom": "0x00000000000000000000000000000000000000000000000000000000000000000000000000000000000000000000000000000000000000000000000000000000000000000000000000000000000000000000000000000000000000000000000000000000000000000000000000000000000000000000000000000000000000000000000000000000000000000000000000000000000000000000000000000000000000000000000000000000000000000000000000000000000000000000000000000000000000000000000000000000000000000000000000000000000000000000000000000000000000000000000000000000000000000000000000000000",
                    "blockNumber": "0x2",
                    "gasLimit": "0x16345785d8a0000",
                    "gasUsed": "0xa861",
                    "timestamp": "0x18",
                    "extraData": "0x",
                    "prevRandao": "0x0000000000000000000000000000000000000000000000000000000000000000",
                    "baseFeePerGas": "0x7",
                    "blobGasUsed": "0x20000",
                    "excessBlobGas": "0x0",
                    "blockHash": "0x6e3b6d8ea5bf51b0a9aebedfc8e72350d4b3566a6e7e85532728498c197db63d",
                    "transactions": [
                        "0x03f8850180800782afc89400000000000000000000000000000000000010000180c001e1a0010000000000000000000000000000000000000000000000000000000000000080a06ff08afceffbb09752c2b60468a6fbb8c4bb3a50a64437be7d7ece0652c7c352a066723e98695c972accb9e39207a0959a4f9b5a42a22bb7f26678bbc6f0671933"
                    ],
                    "withdrawals": []
                },
                "version": "3",
                "expectedBlobVersionedHashes": [
                    "0x0100000000000000000000000000000000000000000000000000000000000000"
                ],
                "parentBeaconBlockRoot": "0x0000000000000000000000000000000000000000000000000000000000000000",
                "validationError": "BlockException.INCORRECT_EXCESS_BLOB_GAS"
            }
        ],
        "engineFcuVersion": "3",
        "_info": {
            "hash": "0x36b8c5a6eef9f47a01255b800efc93b17a9efbd56d0b622a765e3627a11b21bb",
            "comment": "`execution-spec-tests` generated test",
            "filling-transition-tool": "evm version 1.14.4-unstable-44a50c9f-20240510",
            "reference-spec": "https://github.com/ethereum/EIPs/blob/master/EIPS/eip-4844.md",
            "reference-spec-version": "f0eb6a364aaf5ccb43516fa2c269a54fb881ecfd"
        }
    },
    "tests/cancun/eip4844_blobs/test_excess_blob_gas.py::test_invalid_static_excess_blob_gas_from_zero_on_blobs_above_target[fork_Cancun-blockchain_test_hive-new_blobs_1-parent_excess_blobs_0-parent_blobs_5-header_excess_blob_gas_0]": {
        "network": "Cancun",
        "genesisBlockHeader": {
            "parentHash": "0x0000000000000000000000000000000000000000000000000000000000000000",
            "uncleHash": "0x1dcc4de8dec75d7aab85b567b6ccd41ad312451b948a7413f0a142fd40d49347",
            "coinbase": "0x0000000000000000000000000000000000000000",
            "stateRoot": "0x9de0a09139dcac23955e94ad33133f18e6c1ad77efe49af87ad85d5cfb3e2c45",
            "transactionsTrie": "0x56e81f171bcc55a6ff8345e692c0f86e5b48e01b996cadc001622fb5e363b421",
            "receiptTrie": "0x56e81f171bcc55a6ff8345e692c0f86e5b48e01b996cadc001622fb5e363b421",
            "bloom": "0x00000000000000000000000000000000000000000000000000000000000000000000000000000000000000000000000000000000000000000000000000000000000000000000000000000000000000000000000000000000000000000000000000000000000000000000000000000000000000000000000000000000000000000000000000000000000000000000000000000000000000000000000000000000000000000000000000000000000000000000000000000000000000000000000000000000000000000000000000000000000000000000000000000000000000000000000000000000000000000000000000000000000000000000000000000000",
            "difficulty": "0x00",
            "number": "0x00",
            "gasLimit": "0x016345785d8a0000",
            "gasUsed": "0x00",
            "timestamp": "0x00",
            "extraData": "0x00",
            "mixHash": "0x0000000000000000000000000000000000000000000000000000000000000000",
            "nonce": "0x0000000000000000",
            "baseFeePerGas": "0x07",
            "withdrawalsRoot": "0x56e81f171bcc55a6ff8345e692c0f86e5b48e01b996cadc001622fb5e363b421",
            "blobGasUsed": "0x00",
            "excessBlobGas": "0x060000",
            "parentBeaconBlockRoot": "0x0000000000000000000000000000000000000000000000000000000000000000",
            "hash": "0x1ba4c3926d101d3a67afa9114817033f44c24673fab707e2b1442011c6c7ad5a"
        },
        "pre": {
            "0x000f3df6d732807ef1319fb7b8bb8522d0beac02": {
                "nonce": "0x01",
                "balance": "0x00",
                "code": "0x3373fffffffffffffffffffffffffffffffffffffffe14604d57602036146024575f5ffd5b5f35801560495762001fff810690815414603c575f5ffd5b62001fff01545f5260205ff35b5f5ffd5b62001fff42064281555f359062001fff015500",
                "storage": {}
            },
            "0xa94f5374fce5edbc8e2a8697c15331677e6ebf0b": {
                "nonce": "0x00",
                "balance": "0x06ce79",
                "code": "0x",
                "storage": {}
            },
            "0x8a0a19589531694250d570040a0c4b74576919b8": {
                "nonce": "0x00",
                "balance": "0x1d6329f1c35ca4bfabb9f5610000000000",
                "code": "0x",
                "storage": {}
            },
            "0x0000000000000000000000000000000000001000": {
                "nonce": "0x00",
                "balance": "0x00",
                "code": "0x4a600055",
                "storage": {}
            }
        },
        "postState": {
            "0x0000000000000000000000000000000000001000": {
                "nonce": "0x00",
                "balance": "0x00",
                "code": "0x4a600055",
                "storage": {}
            },
            "0x0000000000000000000000000000000000002000": {
                "nonce": "0x00",
                "balance": "0x01",
                "code": "0x",
                "storage": {}
            },
            "0x000f3df6d732807ef1319fb7b8bb8522d0beac02": {
                "nonce": "0x01",
                "balance": "0x00",
                "code": "0x3373fffffffffffffffffffffffffffffffffffffffe14604d57602036146024575f5ffd5b5f35801560495762001fff810690815414603c575f5ffd5b62001fff01545f5260205ff35b5f5ffd5b62001fff42064281555f359062001fff015500",
                "storage": {
                    "0x0c": "0x0c"
                }
            },
            "0x8a0a19589531694250d570040a0c4b74576919b8": {
                "nonce": "0x01",
                "balance": "0x1d6329f1c35ca4bfabb9f560fffff3c1c7",
                "code": "0x",
                "storage": {}
            },
            "0xa94f5374fce5edbc8e2a8697c15331677e6ebf0b": {
                "nonce": "0x00",
                "balance": "0x06ce79",
                "code": "0x",
                "storage": {}
            }
        },
        "engineNewPayloads": [
            {
                "executionPayload": {
                    "parentHash": "0x1ba4c3926d101d3a67afa9114817033f44c24673fab707e2b1442011c6c7ad5a",
                    "feeRecipient": "0x2adc25665018aa1fe0e6bc666dac8fc2697ff9ba",
                    "stateRoot": "0xcb8ee8c87728a03a4a614b3c5099ed36bcc40f8faf7ffd1f391dc244156f2a7e",
                    "receiptsRoot": "0xeaa8c40899a61ae59615cf9985f5e2194f8fd2b57d273be63bde6733e89b12ab",
                    "logsBloom": "0x00000000000000000000000000000000000000000000000000000000000000000000000000000000000000000000000000000000000000000000000000000000000000000000000000000000000000000000000000000000000000000000000000000000000000000000000000000000000000000000000000000000000000000000000000000000000000000000000000000000000000000000000000000000000000000000000000000000000000000000000000000000000000000000000000000000000000000000000000000000000000000000000000000000000000000000000000000000000000000000000000000000000000000000000000000000",
                    "blockNumber": "0x1",
                    "gasLimit": "0x16345785d8a0000",
                    "gasUsed": "0x5208",
                    "timestamp": "0xc",
                    "extraData": "0x",
                    "prevRandao": "0x0000000000000000000000000000000000000000000000000000000000000000",
                    "baseFeePerGas": "0x7",
                    "blobGasUsed": "0xa0000",
                    "excessBlobGas": "0x0",
                    "blockHash": "0xbaaec6edd5d6e7a27443c9e30e9e43ca33ddfef210301db210b6f9333b39761b",
                    "transactions": [
                        "0x03f9010a018080078252089400000000000000000000000000000000000020000180c001f8a5a00100000000000000000000000000000000000000000000000000000000000000a00100000000000000000000000000000000000000000000000000000000000001a00100000000000000000000000000000000000000000000000000000000000002a00100000000000000000000000000000000000000000000000000000000000003a0010000000000000000000000000000000000000000000000000000000000000401a0bcbdbc7685abc0e83734abc52be3a6347607eee1f0b950a29f177147241444d6a07b9e5e43bb631a46559f2dcbba1e9082118801f13f4c43e2828e3cb8e8e1e515"
                    ],
                    "withdrawals": []
                },
                "version": "3",
                "expectedBlobVersionedHashes": [
                    "0x0100000000000000000000000000000000000000000000000000000000000000",
                    "0x0100000000000000000000000000000000000000000000000000000000000001",
                    "0x0100000000000000000000000000000000000000000000000000000000000002",
                    "0x0100000000000000000000000000000000000000000000000000000000000003",
                    "0x0100000000000000000000000000000000000000000000000000000000000004"
                ],
                "parentBeaconBlockRoot": "0x0000000000000000000000000000000000000000000000000000000000000000"
            },
            {
                "executionPayload": {
                    "parentHash": "0xbaaec6edd5d6e7a27443c9e30e9e43ca33ddfef210301db210b6f9333b39761b",
                    "feeRecipient": "0x2adc25665018aa1fe0e6bc666dac8fc2697ff9ba",
                    "stateRoot": "0xab7eb8628a96bd3b2530630cee7a278648bd7000a1e9bffe9f168bd04204389c",
                    "receiptsRoot": "0xc117ad0158b04d4277c8a0d1b440360bf3f011ad7caccf8740df472c96e8f5cc",
                    "logsBloom": "0x00000000000000000000000000000000000000000000000000000000000000000000000000000000000000000000000000000000000000000000000000000000000000000000000000000000000000000000000000000000000000000000000000000000000000000000000000000000000000000000000000000000000000000000000000000000000000000000000000000000000000000000000000000000000000000000000000000000000000000000000000000000000000000000000000000000000000000000000000000000000000000000000000000000000000000000000000000000000000000000000000000000000000000000000000000000",
                    "blockNumber": "0x2",
                    "gasLimit": "0x16345785d8a0000",
                    "gasUsed": "0xa861",
                    "timestamp": "0x18",
                    "extraData": "0x",
                    "prevRandao": "0x0000000000000000000000000000000000000000000000000000000000000000",
                    "baseFeePerGas": "0x7",
                    "blobGasUsed": "0x20000",
                    "excessBlobGas": "0x0",
                    "blockHash": "0x6781da36ae10a61e2aa0a8e7bf54ef0c129deacbbaa4c8fccdfd46d4518955cd",
                    "transactions": [
                        "0x03f8850180800782afc89400000000000000000000000000000000000010000180c001e1a0010000000000000000000000000000000000000000000000000000000000000080a06ff08afceffbb09752c2b60468a6fbb8c4bb3a50a64437be7d7ece0652c7c352a066723e98695c972accb9e39207a0959a4f9b5a42a22bb7f26678bbc6f0671933"
                    ],
                    "withdrawals": []
                },
                "version": "3",
                "expectedBlobVersionedHashes": [
                    "0x0100000000000000000000000000000000000000000000000000000000000000"
                ],
                "parentBeaconBlockRoot": "0x0000000000000000000000000000000000000000000000000000000000000000",
                "validationError": "BlockException.INCORRECT_EXCESS_BLOB_GAS"
            }
        ],
        "engineFcuVersion": "3",
        "_info": {
            "hash": "0xe3dc0f8b9962a14918757616f5690da3b18e00809c8a5ef05a82c48f9d015700",
            "comment": "`execution-spec-tests` generated test",
            "filling-transition-tool": "evm version 1.14.4-unstable-44a50c9f-20240510",
            "reference-spec": "https://github.com/ethereum/EIPs/blob/master/EIPS/eip-4844.md",
            "reference-spec-version": "f0eb6a364aaf5ccb43516fa2c269a54fb881ecfd"
        }
    },
    "tests/cancun/eip4844_blobs/test_excess_blob_gas.py::test_invalid_static_excess_blob_gas_from_zero_on_blobs_above_target[fork_Cancun-blockchain_test_hive-new_blobs_1-parent_excess_blobs_0-parent_blobs_6-header_excess_blob_gas_0]": {
        "network": "Cancun",
        "genesisBlockHeader": {
            "parentHash": "0x0000000000000000000000000000000000000000000000000000000000000000",
            "uncleHash": "0x1dcc4de8dec75d7aab85b567b6ccd41ad312451b948a7413f0a142fd40d49347",
            "coinbase": "0x0000000000000000000000000000000000000000",
            "stateRoot": "0x9de0a09139dcac23955e94ad33133f18e6c1ad77efe49af87ad85d5cfb3e2c45",
            "transactionsTrie": "0x56e81f171bcc55a6ff8345e692c0f86e5b48e01b996cadc001622fb5e363b421",
            "receiptTrie": "0x56e81f171bcc55a6ff8345e692c0f86e5b48e01b996cadc001622fb5e363b421",
            "bloom": "0x00000000000000000000000000000000000000000000000000000000000000000000000000000000000000000000000000000000000000000000000000000000000000000000000000000000000000000000000000000000000000000000000000000000000000000000000000000000000000000000000000000000000000000000000000000000000000000000000000000000000000000000000000000000000000000000000000000000000000000000000000000000000000000000000000000000000000000000000000000000000000000000000000000000000000000000000000000000000000000000000000000000000000000000000000000000",
            "difficulty": "0x00",
            "number": "0x00",
            "gasLimit": "0x016345785d8a0000",
            "gasUsed": "0x00",
            "timestamp": "0x00",
            "extraData": "0x00",
            "mixHash": "0x0000000000000000000000000000000000000000000000000000000000000000",
            "nonce": "0x0000000000000000",
            "baseFeePerGas": "0x07",
            "withdrawalsRoot": "0x56e81f171bcc55a6ff8345e692c0f86e5b48e01b996cadc001622fb5e363b421",
            "blobGasUsed": "0x00",
            "excessBlobGas": "0x060000",
            "parentBeaconBlockRoot": "0x0000000000000000000000000000000000000000000000000000000000000000",
            "hash": "0x1ba4c3926d101d3a67afa9114817033f44c24673fab707e2b1442011c6c7ad5a"
        },
        "pre": {
            "0x000f3df6d732807ef1319fb7b8bb8522d0beac02": {
                "nonce": "0x01",
                "balance": "0x00",
                "code": "0x3373fffffffffffffffffffffffffffffffffffffffe14604d57602036146024575f5ffd5b5f35801560495762001fff810690815414603c575f5ffd5b62001fff01545f5260205ff35b5f5ffd5b62001fff42064281555f359062001fff015500",
                "storage": {}
            },
            "0xa94f5374fce5edbc8e2a8697c15331677e6ebf0b": {
                "nonce": "0x00",
                "balance": "0x06ce79",
                "code": "0x",
                "storage": {}
            },
            "0x8a0a19589531694250d570040a0c4b74576919b8": {
                "nonce": "0x00",
                "balance": "0x1d6329f1c35ca4bfabb9f5610000000000",
                "code": "0x",
                "storage": {}
            },
            "0x0000000000000000000000000000000000001000": {
                "nonce": "0x00",
                "balance": "0x00",
                "code": "0x4a600055",
                "storage": {}
            }
        },
        "postState": {
            "0x0000000000000000000000000000000000001000": {
                "nonce": "0x00",
                "balance": "0x00",
                "code": "0x4a600055",
                "storage": {}
            },
            "0x0000000000000000000000000000000000002000": {
                "nonce": "0x00",
                "balance": "0x01",
                "code": "0x",
                "storage": {}
            },
            "0x000f3df6d732807ef1319fb7b8bb8522d0beac02": {
                "nonce": "0x01",
                "balance": "0x00",
                "code": "0x3373fffffffffffffffffffffffffffffffffffffffe14604d57602036146024575f5ffd5b5f35801560495762001fff810690815414603c575f5ffd5b62001fff01545f5260205ff35b5f5ffd5b62001fff42064281555f359062001fff015500",
                "storage": {
                    "0x0c": "0x0c"
                }
            },
            "0x8a0a19589531694250d570040a0c4b74576919b8": {
                "nonce": "0x01",
                "balance": "0x1d6329f1c35ca4bfabb9f560fffff1c1c7",
                "code": "0x",
                "storage": {}
            },
            "0xa94f5374fce5edbc8e2a8697c15331677e6ebf0b": {
                "nonce": "0x00",
                "balance": "0x06ce79",
                "code": "0x",
                "storage": {}
            }
        },
        "engineNewPayloads": [
            {
                "executionPayload": {
                    "parentHash": "0x1ba4c3926d101d3a67afa9114817033f44c24673fab707e2b1442011c6c7ad5a",
                    "feeRecipient": "0x2adc25665018aa1fe0e6bc666dac8fc2697ff9ba",
                    "stateRoot": "0xe87dd2fb6e644811133864e9f25b72a79d1a88f94093419e23d8d3a8c689cfd1",
                    "receiptsRoot": "0xeaa8c40899a61ae59615cf9985f5e2194f8fd2b57d273be63bde6733e89b12ab",
                    "logsBloom": "0x00000000000000000000000000000000000000000000000000000000000000000000000000000000000000000000000000000000000000000000000000000000000000000000000000000000000000000000000000000000000000000000000000000000000000000000000000000000000000000000000000000000000000000000000000000000000000000000000000000000000000000000000000000000000000000000000000000000000000000000000000000000000000000000000000000000000000000000000000000000000000000000000000000000000000000000000000000000000000000000000000000000000000000000000000000000",
                    "blockNumber": "0x1",
                    "gasLimit": "0x16345785d8a0000",
                    "gasUsed": "0x5208",
                    "timestamp": "0xc",
                    "extraData": "0x",
                    "prevRandao": "0x0000000000000000000000000000000000000000000000000000000000000000",
                    "baseFeePerGas": "0x7",
                    "blobGasUsed": "0xc0000",
                    "excessBlobGas": "0x0",
                    "blockHash": "0x060b78d6d40886f729568a72915a0966259467feae1b6a03ae5fd17861562be6",
                    "transactions": [
                        "0x03f9012b018080078252089400000000000000000000000000000000000020000180c001f8c6a00100000000000000000000000000000000000000000000000000000000000000a00100000000000000000000000000000000000000000000000000000000000001a00100000000000000000000000000000000000000000000000000000000000002a00100000000000000000000000000000000000000000000000000000000000003a00100000000000000000000000000000000000000000000000000000000000004a0010000000000000000000000000000000000000000000000000000000000000501a0eaf0876ca40d363d5dd4a955522683849771071545acf8c6905b9a14ed848bd8a02c3f1de3ad7c7d4301f4665eba5502c6c8632d0f3e1cf3b88fe3ef99abdf4174"
                    ],
                    "withdrawals": []
                },
                "version": "3",
                "expectedBlobVersionedHashes": [
                    "0x0100000000000000000000000000000000000000000000000000000000000000",
                    "0x0100000000000000000000000000000000000000000000000000000000000001",
                    "0x0100000000000000000000000000000000000000000000000000000000000002",
                    "0x0100000000000000000000000000000000000000000000000000000000000003",
                    "0x0100000000000000000000000000000000000000000000000000000000000004",
                    "0x0100000000000000000000000000000000000000000000000000000000000005"
                ],
                "parentBeaconBlockRoot": "0x0000000000000000000000000000000000000000000000000000000000000000"
            },
            {
                "executionPayload": {
                    "parentHash": "0x060b78d6d40886f729568a72915a0966259467feae1b6a03ae5fd17861562be6",
                    "feeRecipient": "0x2adc25665018aa1fe0e6bc666dac8fc2697ff9ba",
                    "stateRoot": "0x86b3030db450cb917fa032e2c9dff22aa3118097cb87ddf3646cfb9de66b8a66",
                    "receiptsRoot": "0xc117ad0158b04d4277c8a0d1b440360bf3f011ad7caccf8740df472c96e8f5cc",
                    "logsBloom": "0x00000000000000000000000000000000000000000000000000000000000000000000000000000000000000000000000000000000000000000000000000000000000000000000000000000000000000000000000000000000000000000000000000000000000000000000000000000000000000000000000000000000000000000000000000000000000000000000000000000000000000000000000000000000000000000000000000000000000000000000000000000000000000000000000000000000000000000000000000000000000000000000000000000000000000000000000000000000000000000000000000000000000000000000000000000000",
                    "blockNumber": "0x2",
                    "gasLimit": "0x16345785d8a0000",
                    "gasUsed": "0xa861",
                    "timestamp": "0x18",
                    "extraData": "0x",
                    "prevRandao": "0x0000000000000000000000000000000000000000000000000000000000000000",
                    "baseFeePerGas": "0x7",
                    "blobGasUsed": "0x20000",
                    "excessBlobGas": "0x0",
                    "blockHash": "0x1038c220a61bfd502326f6e1422526a62899e0901d2d5907c2288a63be3370c2",
                    "transactions": [
                        "0x03f8850180800782afc89400000000000000000000000000000000000010000180c001e1a0010000000000000000000000000000000000000000000000000000000000000080a06ff08afceffbb09752c2b60468a6fbb8c4bb3a50a64437be7d7ece0652c7c352a066723e98695c972accb9e39207a0959a4f9b5a42a22bb7f26678bbc6f0671933"
                    ],
                    "withdrawals": []
                },
                "version": "3",
                "expectedBlobVersionedHashes": [
                    "0x0100000000000000000000000000000000000000000000000000000000000000"
                ],
                "parentBeaconBlockRoot": "0x0000000000000000000000000000000000000000000000000000000000000000",
                "validationError": "BlockException.INCORRECT_EXCESS_BLOB_GAS"
            }
        ],
        "engineFcuVersion": "3",
        "_info": {
            "hash": "0x651b6c25c418eeb902c5f22db6061beda41d543e6d923aab1188ec28cd9e1ef3",
            "comment": "`execution-spec-tests` generated test",
            "filling-transition-tool": "evm version 1.14.4-unstable-44a50c9f-20240510",
            "reference-spec": "https://github.com/ethereum/EIPs/blob/master/EIPS/eip-4844.md",
            "reference-spec-version": "f0eb6a364aaf5ccb43516fa2c269a54fb881ecfd"
        }
    }
}