{
    "src/GeneralStateTestsFiller/Pyspecs/frontier/opcodes/test_call_and_callcode_gas_calculation.py::test_value_transfer_gas_calculation[fork_London-state_test-callee_opcode_CALL-caller_gas_limit_36619-is_sufficient_gas_False]" : {
        "_info" : {
            "comment" : "`execution-spec-tests` generated test",
            "description" : "Test function documentation:\n\n    Tests the nested CALL/CALLCODE opcode gas consumption with a positive value transfer.",
            "filling-rpc-server" : "evm version 1.14.12-unstable-65e5ca7d-20241004",
            "filling-tool-version" : "retesteth-0.3.2-legacy+commit.be61b546.Linux.g++",
            "filling-transition-tool" : "evm version 1.14.12-unstable-65e5ca7d-20241004",
            "generatedTestHash" : "6fca8f8855cccda82c4b0028e2ca51fa12012a328ddf00a175899603cf254a37",
            "hash" : "0x1ec6f4b311a95966607b0ba33a8cbf1bc7b02c277b07bb984f2455cf039f3e7e",
            "lllcversion" : "Version: 0.5.14-develop.2024.11.5+commit.b2b86751.mod.Linux.g++",
            "solidity" : "Version: 0.8.24+commit.e11b9ed9.Linux.g++",
            "source" : "src/GeneralStateTestsFiller/Pyspecs/frontier/opcodes/test_call_and_callcode_gas_calculation.py",
            "sourceHash" : "8164fbe5ea8d77106ff02675fb0f912fcff012fc7bd27578d4fe90b557a52e2d",
            "url" : "https://github.com/ethereum/execution-spec-tests/blob/f89d09ba99a3dc680dd9410f0b8a7f8d8fc36714/tests/tmp/tmptest_8938ac56_e757_4111_8b0e_1e7bd393fa20/test_call_and_callcode_gas_calculation.py#L142"
        },
        "env" : {
            "currentBaseFee" : "0x07",
            "currentCoinbase" : "0x2adc25665018aa1fe0e6bc666dac8fc2697ff9ba",
            "currentDifficulty" : "0x020000",
            "currentGasLimit" : "0x016345785d8a0000",
            "currentNumber" : "0x01",
            "currentTimestamp" : "0x03e8"
        },
        "post" : {
            "London" : [
                {
                    "hash" : "0xfe172ee422b0f207522ca38e717946cbd97debdc86c14012b2c19673b38abf56",
                    "indexes" : {
                        "data" : 0,
                        "gas" : 0,
                        "value" : 0
                    },
                    "logs" : "0x1dcc4de8dec75d7aab85b567b6ccd41ad312451b948a7413f0a142fd40d49347",
                    "txbytes" : "0xf86080078307a120940000000000000000000000000000000000001100018026a0ecc9874339d435625195c859cc00c3774467e76dd19e1b4b3b1e1a95194cc5eba060121ebb9db52f6a1fcb4a6ca6a93d2c396b0afb467ee34a9856228ef9fb71ed"
                }
            ]
        },
        "pre" : {
            "0x0000000000000000000000000000000000001000" : {
                "balance" : "0x03",
                "code" : "0x6000600060006000600173feffffffffffffffffffffffffffffffffffffff5af1",
                "nonce" : "0x01",
                "storage" : {
                }
            },
            "0x0000000000000000000000000000000000001100" : {
                "balance" : "0x03",
                "code" : "0x60006000600060006000611000618f0bf1600055",
                "nonce" : "0x01",
                "storage" : {
                }
            },
            "0xa94f5374fce5edbc8e2a8697c15331677e6ebf0b" : {
                "balance" : "0x0ba1a9ce",
                "code" : "0x",
                "nonce" : "0x00",
                "storage" : {
                }
            }
        },
        "transaction" : {
            "data" : [
                "0x"
            ],
            "gasLimit" : [
                "0x07a120"
            ],
            "gasPrice" : "0x07",
            "nonce" : "0x00",
            "secretKey" : "0x45a915e4d060149eb4365960e6a7a45f334393093061116b197e3240065ff2d8",
            "sender" : "0xa94f5374fce5edbc8e2a8697c15331677e6ebf0b",
            "to" : "0x0000000000000000000000000000000000001100",
            "value" : [
                "0x01"
            ]
        }
    },
    "src/GeneralStateTestsFiller/Pyspecs/frontier/opcodes/test_call_and_callcode_gas_calculation.py::test_value_transfer_gas_calculation[fork_London-state_test-callee_opcode_CALL-caller_gas_limit_36620-is_sufficient_gas_True]" : {
        "_info" : {
            "comment" : "`execution-spec-tests` generated test",
            "description" : "Test function documentation:\n\n    Tests the nested CALL/CALLCODE opcode gas consumption with a positive value transfer.",
            "filling-rpc-server" : "evm version 1.14.12-unstable-65e5ca7d-20241004",
            "filling-tool-version" : "retesteth-0.3.2-legacy+commit.be61b546.Linux.g++",
            "filling-transition-tool" : "evm version 1.14.12-unstable-65e5ca7d-20241004",
            "generatedTestHash" : "42f5d2f956a07fe33ce82aa66ef1345b7e3bce6c1748b2b2ab07ffd07817afe0",
            "hash" : "0x41a80fce51d56f8edc24b2200354c8af2132dba3f8c5f1f3c4026c97d187aa94",
            "lllcversion" : "Version: 0.5.14-develop.2024.11.5+commit.b2b86751.mod.Linux.g++",
            "solidity" : "Version: 0.8.24+commit.e11b9ed9.Linux.g++",
            "source" : "src/GeneralStateTestsFiller/Pyspecs/frontier/opcodes/test_call_and_callcode_gas_calculation.py",
            "sourceHash" : "8164fbe5ea8d77106ff02675fb0f912fcff012fc7bd27578d4fe90b557a52e2d",
            "url" : "https://github.com/ethereum/execution-spec-tests/blob/f89d09ba99a3dc680dd9410f0b8a7f8d8fc36714/tests/tmp/tmptest_8938ac56_e757_4111_8b0e_1e7bd393fa20/test_call_and_callcode_gas_calculation.py#L142"
        },
        "env" : {
            "currentBaseFee" : "0x07",
            "currentCoinbase" : "0x2adc25665018aa1fe0e6bc666dac8fc2697ff9ba",
            "currentDifficulty" : "0x020000",
            "currentGasLimit" : "0x016345785d8a0000",
            "currentNumber" : "0x01",
            "currentTimestamp" : "0x03e8"
        },
        "post" : {
            "London" : [
                {
                    "hash" : "0x96ea32ec89435ce99df9f0f42f6165c5967ca6a54eb5626c275be1777ecf8fec",
                    "indexes" : {
                        "data" : 0,
                        "gas" : 0,
                        "value" : 0
                    },
                    "logs" : "0x1dcc4de8dec75d7aab85b567b6ccd41ad312451b948a7413f0a142fd40d49347",
                    "txbytes" : "0xf86080078307a120940000000000000000000000000000000000001100018026a0ecc9874339d435625195c859cc00c3774467e76dd19e1b4b3b1e1a95194cc5eba060121ebb9db52f6a1fcb4a6ca6a93d2c396b0afb467ee34a9856228ef9fb71ed"
                }
            ]
        },
        "pre" : {
            "0x0000000000000000000000000000000000001000" : {
                "balance" : "0x03",
                "code" : "0x6000600060006000600173feffffffffffffffffffffffffffffffffffffff5af1",
                "nonce" : "0x01",
                "storage" : {
                }
            },
            "0x0000000000000000000000000000000000001100" : {
                "balance" : "0x03",
                "code" : "0x60006000600060006000611000618f0cf1600055",
                "nonce" : "0x01",
                "storage" : {
                }
            },
            "0xa94f5374fce5edbc8e2a8697c15331677e6ebf0b" : {
                "balance" : "0x0ba1a9ce",
                "code" : "0x",
                "nonce" : "0x00",
                "storage" : {
                }
            }
        },
        "transaction" : {
            "data" : [
                "0x"
            ],
            "gasLimit" : [
                "0x07a120"
            ],
            "gasPrice" : "0x07",
            "nonce" : "0x00",
            "secretKey" : "0x45a915e4d060149eb4365960e6a7a45f334393093061116b197e3240065ff2d8",
            "sender" : "0xa94f5374fce5edbc8e2a8697c15331677e6ebf0b",
            "to" : "0x0000000000000000000000000000000000001100",
            "value" : [
                "0x01"
            ]
        }
    },
    "src/GeneralStateTestsFiller/Pyspecs/frontier/opcodes/test_call_and_callcode_gas_calculation.py::test_value_transfer_gas_calculation[fork_London-state_test-callee_opcode_CALLCODE-caller_gas_limit_11619-is_sufficient_gas_False]" : {
        "_info" : {
            "comment" : "`execution-spec-tests` generated test",
            "description" : "Test function documentation:\n\n    Tests the nested CALL/CALLCODE opcode gas consumption with a positive value transfer.",
            "filling-rpc-server" : "evm version 1.14.12-unstable-65e5ca7d-20241004",
            "filling-tool-version" : "retesteth-0.3.2-legacy+commit.be61b546.Linux.g++",
            "filling-transition-tool" : "evm version 1.14.12-unstable-65e5ca7d-20241004",
            "generatedTestHash" : "5fc39f5e5ba6836bf88141924f7609aaad041e0a59ecaad539bf4ec1c63132e2",
            "hash" : "0x4ee5fe18bd51c95f994e0ec3544a264e2da459e60314ed161bfe85757ad1caa4",
            "lllcversion" : "Version: 0.5.14-develop.2024.11.5+commit.b2b86751.mod.Linux.g++",
            "solidity" : "Version: 0.8.24+commit.e11b9ed9.Linux.g++",
            "source" : "src/GeneralStateTestsFiller/Pyspecs/frontier/opcodes/test_call_and_callcode_gas_calculation.py",
            "sourceHash" : "8164fbe5ea8d77106ff02675fb0f912fcff012fc7bd27578d4fe90b557a52e2d",
            "url" : "https://github.com/ethereum/execution-spec-tests/blob/f89d09ba99a3dc680dd9410f0b8a7f8d8fc36714/tests/tmp/tmptest_8938ac56_e757_4111_8b0e_1e7bd393fa20/test_call_and_callcode_gas_calculation.py#L142"
        },
        "env" : {
            "currentBaseFee" : "0x07",
            "currentCoinbase" : "0x2adc25665018aa1fe0e6bc666dac8fc2697ff9ba",
            "currentDifficulty" : "0x020000",
            "currentGasLimit" : "0x016345785d8a0000",
            "currentNumber" : "0x01",
            "currentTimestamp" : "0x03e8"
        },
        "post" : {
            "London" : [
                {
                    "hash" : "0x91497ab3d9b64e062cc0a3fd1e191100567b5e7ff0f276a87fd0b9c65cd42af7",
                    "indexes" : {
                        "data" : 0,
                        "gas" : 0,
                        "value" : 0
                    },
                    "logs" : "0x1dcc4de8dec75d7aab85b567b6ccd41ad312451b948a7413f0a142fd40d49347",
                    "txbytes" : "0xf86080078307a120940000000000000000000000000000000000001100018026a0ecc9874339d435625195c859cc00c3774467e76dd19e1b4b3b1e1a95194cc5eba060121ebb9db52f6a1fcb4a6ca6a93d2c396b0afb467ee34a9856228ef9fb71ed"
                }
            ]
        },
        "pre" : {
            "0x0000000000000000000000000000000000001000" : {
                "balance" : "0x03",
                "code" : "0x6000600060006000600173feffffffffffffffffffffffffffffffffffffff5af2",
                "nonce" : "0x01",
                "storage" : {
                }
            },
            "0x0000000000000000000000000000000000001100" : {
                "balance" : "0x03",
                "code" : "0x60006000600060006000611000612d63f1600055",
                "nonce" : "0x01",
                "storage" : {
                }
            },
            "0xa94f5374fce5edbc8e2a8697c15331677e6ebf0b" : {
                "balance" : "0x0ba1a9ce",
                "code" : "0x",
                "nonce" : "0x00",
                "storage" : {
                }
            }
        },
        "transaction" : {
            "data" : [
                "0x"
            ],
            "gasLimit" : [
                "0x07a120"
            ],
            "gasPrice" : "0x07",
            "nonce" : "0x00",
            "secretKey" : "0x45a915e4d060149eb4365960e6a7a45f334393093061116b197e3240065ff2d8",
            "sender" : "0xa94f5374fce5edbc8e2a8697c15331677e6ebf0b",
            "to" : "0x0000000000000000000000000000000000001100",
            "value" : [
                "0x01"
            ]
        }
    },
    "src/GeneralStateTestsFiller/Pyspecs/frontier/opcodes/test_call_and_callcode_gas_calculation.py::test_value_transfer_gas_calculation[fork_London-state_test-callee_opcode_CALLCODE-caller_gas_limit_11620-is_sufficient_gas_True]" : {
        "_info" : {
            "comment" : "`execution-spec-tests` generated test",
            "description" : "Test function documentation:\n\n    Tests the nested CALL/CALLCODE opcode gas consumption with a positive value transfer.",
            "filling-rpc-server" : "evm version 1.14.12-unstable-65e5ca7d-20241004",
            "filling-tool-version" : "retesteth-0.3.2-legacy+commit.be61b546.Linux.g++",
            "filling-transition-tool" : "evm version 1.14.12-unstable-65e5ca7d-20241004",
            "generatedTestHash" : "d021a8e43492bb0c8dfe57ee31ded25ab3a24d98d5aedc77876b60adb3bd3219",
            "hash" : "0xb5582f74dd1217734e3e408e1191645f74c2b59e4bbfc2f9c556c9d84dd46c98",
            "lllcversion" : "Version: 0.5.14-develop.2024.11.5+commit.b2b86751.mod.Linux.g++",
            "solidity" : "Version: 0.8.24+commit.e11b9ed9.Linux.g++",
            "source" : "src/GeneralStateTestsFiller/Pyspecs/frontier/opcodes/test_call_and_callcode_gas_calculation.py",
            "sourceHash" : "8164fbe5ea8d77106ff02675fb0f912fcff012fc7bd27578d4fe90b557a52e2d",
            "url" : "https://github.com/ethereum/execution-spec-tests/blob/f89d09ba99a3dc680dd9410f0b8a7f8d8fc36714/tests/tmp/tmptest_8938ac56_e757_4111_8b0e_1e7bd393fa20/test_call_and_callcode_gas_calculation.py#L142"
        },
        "env" : {
            "currentBaseFee" : "0x07",
            "currentCoinbase" : "0x2adc25665018aa1fe0e6bc666dac8fc2697ff9ba",
            "currentDifficulty" : "0x020000",
            "currentGasLimit" : "0x016345785d8a0000",
            "currentNumber" : "0x01",
            "currentTimestamp" : "0x03e8"
        },
        "post" : {
            "London" : [
                {
                    "hash" : "0x503297910f55fbdf52ebc951caa4b8d5d0b98b2363715f715369a68fb020fdc8",
                    "indexes" : {
                        "data" : 0,
                        "gas" : 0,
                        "value" : 0
                    },
                    "logs" : "0x1dcc4de8dec75d7aab85b567b6ccd41ad312451b948a7413f0a142fd40d49347",
                    "txbytes" : "0xf86080078307a120940000000000000000000000000000000000001100018026a0ecc9874339d435625195c859cc00c3774467e76dd19e1b4b3b1e1a95194cc5eba060121ebb9db52f6a1fcb4a6ca6a93d2c396b0afb467ee34a9856228ef9fb71ed"
                }
            ]
        },
        "pre" : {
            "0x0000000000000000000000000000000000001000" : {
                "balance" : "0x03",
                "code" : "0x6000600060006000600173feffffffffffffffffffffffffffffffffffffff5af2",
                "nonce" : "0x01",
                "storage" : {
                }
            },
            "0x0000000000000000000000000000000000001100" : {
                "balance" : "0x03",
                "code" : "0x60006000600060006000611000612d64f1600055",
                "nonce" : "0x01",
                "storage" : {
                }
            },
            "0xa94f5374fce5edbc8e2a8697c15331677e6ebf0b" : {
                "balance" : "0x0ba1a9ce",
                "code" : "0x",
                "nonce" : "0x00",
                "storage" : {
                }
            }
        },
        "transaction" : {
            "data" : [
                "0x"
            ],
            "gasLimit" : [
                "0x07a120"
            ],
            "gasPrice" : "0x07",
            "nonce" : "0x00",
            "secretKey" : "0x45a915e4d060149eb4365960e6a7a45f334393093061116b197e3240065ff2d8",
            "sender" : "0xa94f5374fce5edbc8e2a8697c15331677e6ebf0b",
            "to" : "0x0000000000000000000000000000000000001100",
            "value" : [
                "0x01"
            ]
        }
    },
    "src/GeneralStateTestsFiller/Pyspecs/frontier/opcodes/test_call_and_callcode_gas_calculation.py::test_value_transfer_gas_calculation[fork_Paris-state_test-callee_opcode_CALL-caller_gas_limit_36619-is_sufficient_gas_False]" : {
        "_info" : {
            "comment" : "`execution-spec-tests` generated test",
            "description" : "Test function documentation:\n\n    Tests the nested CALL/CALLCODE opcode gas consumption with a positive value transfer.",
            "filling-rpc-server" : "evm version 1.14.12-unstable-65e5ca7d-20241004",
            "filling-tool-version" : "retesteth-0.3.2-legacy+commit.be61b546.Linux.g++",
            "filling-transition-tool" : "evm version 1.14.12-unstable-65e5ca7d-20241004",
            "generatedTestHash" : "7934bcd076f975f0bc9dba4a275a311eb90cd9b6524b016fc09ead540f9b6a2e",
            "hash" : "0xe313cb2db4b5fa10b08d6a61d0ec4967e291e9ed0fc5f6eac4788385532725b0",
            "lllcversion" : "Version: 0.5.14-develop.2024.11.5+commit.b2b86751.mod.Linux.g++",
            "solidity" : "Version: 0.8.24+commit.e11b9ed9.Linux.g++",
            "source" : "src/GeneralStateTestsFiller/Pyspecs/frontier/opcodes/test_call_and_callcode_gas_calculation.py",
            "sourceHash" : "8164fbe5ea8d77106ff02675fb0f912fcff012fc7bd27578d4fe90b557a52e2d",
            "url" : "https://github.com/ethereum/execution-spec-tests/blob/f89d09ba99a3dc680dd9410f0b8a7f8d8fc36714/tests/tmp/tmptest_8938ac56_e757_4111_8b0e_1e7bd393fa20/test_call_and_callcode_gas_calculation.py#L142"
        },
        "env" : {
            "currentBaseFee" : "0x07",
            "currentCoinbase" : "0x2adc25665018aa1fe0e6bc666dac8fc2697ff9ba",
            "currentDifficulty" : "0x00",
            "currentGasLimit" : "0x016345785d8a0000",
            "currentNumber" : "0x01",
            "currentRandom" : "0x0000000000000000000000000000000000000000000000000000000000000000",
            "currentTimestamp" : "0x03e8"
        },
        "post" : {
            "Paris" : [
                {
                    "hash" : "0xfe172ee422b0f207522ca38e717946cbd97debdc86c14012b2c19673b38abf56",
                    "indexes" : {
                        "data" : 0,
                        "gas" : 0,
                        "value" : 0
                    },
                    "logs" : "0x1dcc4de8dec75d7aab85b567b6ccd41ad312451b948a7413f0a142fd40d49347",
                    "txbytes" : "0xf86080078307a120940000000000000000000000000000000000001100018026a0ecc9874339d435625195c859cc00c3774467e76dd19e1b4b3b1e1a95194cc5eba060121ebb9db52f6a1fcb4a6ca6a93d2c396b0afb467ee34a9856228ef9fb71ed"
                }
            ]
        },
        "pre" : {
            "0x0000000000000000000000000000000000001000" : {
                "balance" : "0x03",
                "code" : "0x6000600060006000600173feffffffffffffffffffffffffffffffffffffff5af1",
                "nonce" : "0x01",
                "storage" : {
                }
            },
            "0x0000000000000000000000000000000000001100" : {
                "balance" : "0x03",
                "code" : "0x60006000600060006000611000618f0bf1600055",
                "nonce" : "0x01",
                "storage" : {
                }
            },
            "0xa94f5374fce5edbc8e2a8697c15331677e6ebf0b" : {
                "balance" : "0x0ba1a9ce",
                "code" : "0x",
                "nonce" : "0x00",
                "storage" : {
                }
            }
        },
        "transaction" : {
            "data" : [
                "0x"
            ],
            "gasLimit" : [
                "0x07a120"
            ],
            "gasPrice" : "0x07",
            "nonce" : "0x00",
            "secretKey" : "0x45a915e4d060149eb4365960e6a7a45f334393093061116b197e3240065ff2d8",
            "sender" : "0xa94f5374fce5edbc8e2a8697c15331677e6ebf0b",
            "to" : "0x0000000000000000000000000000000000001100",
            "value" : [
                "0x01"
            ]
        }
    },
    "src/GeneralStateTestsFiller/Pyspecs/frontier/opcodes/test_call_and_callcode_gas_calculation.py::test_value_transfer_gas_calculation[fork_Paris-state_test-callee_opcode_CALL-caller_gas_limit_36620-is_sufficient_gas_True]" : {
        "_info" : {
            "comment" : "`execution-spec-tests` generated test",
            "description" : "Test function documentation:\n\n    Tests the nested CALL/CALLCODE opcode gas consumption with a positive value transfer.",
            "filling-rpc-server" : "evm version 1.14.12-unstable-65e5ca7d-20241004",
            "filling-tool-version" : "retesteth-0.3.2-legacy+commit.be61b546.Linux.g++",
            "filling-transition-tool" : "evm version 1.14.12-unstable-65e5ca7d-20241004",
            "generatedTestHash" : "29b7468cd32e853c8a50edb3093cec1f94e290669cd6c95efe91b562905f9785",
            "hash" : "0x553a13536c69b8fd93a1c2fce4f28932c754602cd3fba568989d90b6140d7769",
            "lllcversion" : "Version: 0.5.14-develop.2024.11.5+commit.b2b86751.mod.Linux.g++",
            "solidity" : "Version: 0.8.24+commit.e11b9ed9.Linux.g++",
            "source" : "src/GeneralStateTestsFiller/Pyspecs/frontier/opcodes/test_call_and_callcode_gas_calculation.py",
            "sourceHash" : "8164fbe5ea8d77106ff02675fb0f912fcff012fc7bd27578d4fe90b557a52e2d",
            "url" : "https://github.com/ethereum/execution-spec-tests/blob/f89d09ba99a3dc680dd9410f0b8a7f8d8fc36714/tests/tmp/tmptest_8938ac56_e757_4111_8b0e_1e7bd393fa20/test_call_and_callcode_gas_calculation.py#L142"
        },
        "env" : {
            "currentBaseFee" : "0x07",
            "currentCoinbase" : "0x2adc25665018aa1fe0e6bc666dac8fc2697ff9ba",
            "currentDifficulty" : "0x00",
            "currentGasLimit" : "0x016345785d8a0000",
            "currentNumber" : "0x01",
            "currentRandom" : "0x0000000000000000000000000000000000000000000000000000000000000000",
            "currentTimestamp" : "0x03e8"
        },
        "post" : {
            "Paris" : [
                {
                    "hash" : "0x96ea32ec89435ce99df9f0f42f6165c5967ca6a54eb5626c275be1777ecf8fec",
                    "indexes" : {
                        "data" : 0,
                        "gas" : 0,
                        "value" : 0
                    },
                    "logs" : "0x1dcc4de8dec75d7aab85b567b6ccd41ad312451b948a7413f0a142fd40d49347",
                    "txbytes" : "0xf86080078307a120940000000000000000000000000000000000001100018026a0ecc9874339d435625195c859cc00c3774467e76dd19e1b4b3b1e1a95194cc5eba060121ebb9db52f6a1fcb4a6ca6a93d2c396b0afb467ee34a9856228ef9fb71ed"
                }
            ]
        },
        "pre" : {
            "0x0000000000000000000000000000000000001000" : {
                "balance" : "0x03",
                "code" : "0x6000600060006000600173feffffffffffffffffffffffffffffffffffffff5af1",
                "nonce" : "0x01",
                "storage" : {
                }
            },
            "0x0000000000000000000000000000000000001100" : {
                "balance" : "0x03",
                "code" : "0x60006000600060006000611000618f0cf1600055",
                "nonce" : "0x01",
                "storage" : {
                }
            },
            "0xa94f5374fce5edbc8e2a8697c15331677e6ebf0b" : {
                "balance" : "0x0ba1a9ce",
                "code" : "0x",
                "nonce" : "0x00",
                "storage" : {
                }
            }
        },
        "transaction" : {
            "data" : [
                "0x"
            ],
            "gasLimit" : [
                "0x07a120"
            ],
            "gasPrice" : "0x07",
            "nonce" : "0x00",
            "secretKey" : "0x45a915e4d060149eb4365960e6a7a45f334393093061116b197e3240065ff2d8",
            "sender" : "0xa94f5374fce5edbc8e2a8697c15331677e6ebf0b",
            "to" : "0x0000000000000000000000000000000000001100",
            "value" : [
                "0x01"
            ]
        }
    },
    "src/GeneralStateTestsFiller/Pyspecs/frontier/opcodes/test_call_and_callcode_gas_calculation.py::test_value_transfer_gas_calculation[fork_Paris-state_test-callee_opcode_CALLCODE-caller_gas_limit_11619-is_sufficient_gas_False]" : {
        "_info" : {
            "comment" : "`execution-spec-tests` generated test",
            "description" : "Test function documentation:\n\n    Tests the nested CALL/CALLCODE opcode gas consumption with a positive value transfer.",
            "filling-rpc-server" : "evm version 1.14.12-unstable-65e5ca7d-20241004",
            "filling-tool-version" : "retesteth-0.3.2-legacy+commit.be61b546.Linux.g++",
            "filling-transition-tool" : "evm version 1.14.12-unstable-65e5ca7d-20241004",
            "generatedTestHash" : "de1eb78466426146d2c54913be9e6e93378e40dbcb2d978499075ea426af28da",
            "hash" : "0x5af1ece29aefb595f456c6bc484bef08480caf32bfd18c09e1e24665c166e185",
            "lllcversion" : "Version: 0.5.14-develop.2024.11.5+commit.b2b86751.mod.Linux.g++",
            "solidity" : "Version: 0.8.24+commit.e11b9ed9.Linux.g++",
            "source" : "src/GeneralStateTestsFiller/Pyspecs/frontier/opcodes/test_call_and_callcode_gas_calculation.py",
            "sourceHash" : "8164fbe5ea8d77106ff02675fb0f912fcff012fc7bd27578d4fe90b557a52e2d",
            "url" : "https://github.com/ethereum/execution-spec-tests/blob/f89d09ba99a3dc680dd9410f0b8a7f8d8fc36714/tests/tmp/tmptest_8938ac56_e757_4111_8b0e_1e7bd393fa20/test_call_and_callcode_gas_calculation.py#L142"
        },
        "env" : {
            "currentBaseFee" : "0x07",
            "currentCoinbase" : "0x2adc25665018aa1fe0e6bc666dac8fc2697ff9ba",
            "currentDifficulty" : "0x00",
            "currentGasLimit" : "0x016345785d8a0000",
            "currentNumber" : "0x01",
            "currentRandom" : "0x0000000000000000000000000000000000000000000000000000000000000000",
            "currentTimestamp" : "0x03e8"
        },
        "post" : {
            "Paris" : [
                {
                    "hash" : "0x91497ab3d9b64e062cc0a3fd1e191100567b5e7ff0f276a87fd0b9c65cd42af7",
                    "indexes" : {
                        "data" : 0,
                        "gas" : 0,
                        "value" : 0
                    },
                    "logs" : "0x1dcc4de8dec75d7aab85b567b6ccd41ad312451b948a7413f0a142fd40d49347",
                    "txbytes" : "0xf86080078307a120940000000000000000000000000000000000001100018026a0ecc9874339d435625195c859cc00c3774467e76dd19e1b4b3b1e1a95194cc5eba060121ebb9db52f6a1fcb4a6ca6a93d2c396b0afb467ee34a9856228ef9fb71ed"
                }
            ]
        },
        "pre" : {
            "0x0000000000000000000000000000000000001000" : {
                "balance" : "0x03",
                "code" : "0x6000600060006000600173feffffffffffffffffffffffffffffffffffffff5af2",
                "nonce" : "0x01",
                "storage" : {
                }
            },
            "0x0000000000000000000000000000000000001100" : {
                "balance" : "0x03",
                "code" : "0x60006000600060006000611000612d63f1600055",
                "nonce" : "0x01",
                "storage" : {
                }
            },
            "0xa94f5374fce5edbc8e2a8697c15331677e6ebf0b" : {
                "balance" : "0x0ba1a9ce",
                "code" : "0x",
                "nonce" : "0x00",
                "storage" : {
                }
            }
        },
        "transaction" : {
            "data" : [
                "0x"
            ],
            "gasLimit" : [
                "0x07a120"
            ],
            "gasPrice" : "0x07",
            "nonce" : "0x00",
            "secretKey" : "0x45a915e4d060149eb4365960e6a7a45f334393093061116b197e3240065ff2d8",
            "sender" : "0xa94f5374fce5edbc8e2a8697c15331677e6ebf0b",
            "to" : "0x0000000000000000000000000000000000001100",
            "value" : [
                "0x01"
            ]
        }
    },
    "src/GeneralStateTestsFiller/Pyspecs/frontier/opcodes/test_call_and_callcode_gas_calculation.py::test_value_transfer_gas_calculation[fork_Paris-state_test-callee_opcode_CALLCODE-caller_gas_limit_11620-is_sufficient_gas_True]" : {
        "_info" : {
            "comment" : "`execution-spec-tests` generated test",
            "description" : "Test function documentation:\n\n    Tests the nested CALL/CALLCODE opcode gas consumption with a positive value transfer.",
            "filling-rpc-server" : "evm version 1.14.12-unstable-65e5ca7d-20241004",
            "filling-tool-version" : "retesteth-0.3.2-legacy+commit.be61b546.Linux.g++",
            "filling-transition-tool" : "evm version 1.14.12-unstable-65e5ca7d-20241004",
            "generatedTestHash" : "e8c2e2f1448492749548cf6b2aa58692716283f548cef81131c9f4a0ae5736b2",
            "hash" : "0xfb95ef4fdd6804fab7cbe6073238af43cdc9661bc5e92a487dc912acf7e0bb4c",
            "lllcversion" : "Version: 0.5.14-develop.2024.11.5+commit.b2b86751.mod.Linux.g++",
            "solidity" : "Version: 0.8.24+commit.e11b9ed9.Linux.g++",
            "source" : "src/GeneralStateTestsFiller/Pyspecs/frontier/opcodes/test_call_and_callcode_gas_calculation.py",
            "sourceHash" : "8164fbe5ea8d77106ff02675fb0f912fcff012fc7bd27578d4fe90b557a52e2d",
            "url" : "https://github.com/ethereum/execution-spec-tests/blob/f89d09ba99a3dc680dd9410f0b8a7f8d8fc36714/tests/tmp/tmptest_8938ac56_e757_4111_8b0e_1e7bd393fa20/test_call_and_callcode_gas_calculation.py#L142"
        },
        "env" : {
            "currentBaseFee" : "0x07",
            "currentCoinbase" : "0x2adc25665018aa1fe0e6bc666dac8fc2697ff9ba",
            "currentDifficulty" : "0x00",
            "currentGasLimit" : "0x016345785d8a0000",
            "currentNumber" : "0x01",
            "currentRandom" : "0x0000000000000000000000000000000000000000000000000000000000000000",
            "currentTimestamp" : "0x03e8"
        },
        "post" : {
            "Paris" : [
                {
                    "hash" : "0x503297910f55fbdf52ebc951caa4b8d5d0b98b2363715f715369a68fb020fdc8",
                    "indexes" : {
                        "data" : 0,
                        "gas" : 0,
                        "value" : 0
                    },
                    "logs" : "0x1dcc4de8dec75d7aab85b567b6ccd41ad312451b948a7413f0a142fd40d49347",
                    "txbytes" : "0xf86080078307a120940000000000000000000000000000000000001100018026a0ecc9874339d435625195c859cc00c3774467e76dd19e1b4b3b1e1a95194cc5eba060121ebb9db52f6a1fcb4a6ca6a93d2c396b0afb467ee34a9856228ef9fb71ed"
                }
            ]
        },
        "pre" : {
            "0x0000000000000000000000000000000000001000" : {
                "balance" : "0x03",
                "code" : "0x6000600060006000600173feffffffffffffffffffffffffffffffffffffff5af2",
                "nonce" : "0x01",
                "storage" : {
                }
            },
            "0x0000000000000000000000000000000000001100" : {
                "balance" : "0x03",
                "code" : "0x60006000600060006000611000612d64f1600055",
                "nonce" : "0x01",
                "storage" : {
                }
            },
            "0xa94f5374fce5edbc8e2a8697c15331677e6ebf0b" : {
                "balance" : "0x0ba1a9ce",
                "code" : "0x",
                "nonce" : "0x00",
                "storage" : {
                }
            }
        },
        "transaction" : {
            "data" : [
                "0x"
            ],
            "gasLimit" : [
                "0x07a120"
            ],
            "gasPrice" : "0x07",
            "nonce" : "0x00",
            "secretKey" : "0x45a915e4d060149eb4365960e6a7a45f334393093061116b197e3240065ff2d8",
            "sender" : "0xa94f5374fce5edbc8e2a8697c15331677e6ebf0b",
            "to" : "0x0000000000000000000000000000000000001100",
            "value" : [
                "0x01"
            ]
        }
    },
    "src/GeneralStateTestsFiller/Pyspecs/frontier/opcodes/test_call_and_callcode_gas_calculation.py::test_value_transfer_gas_calculation[fork_Shanghai-state_test-callee_opcode_CALL-caller_gas_limit_36619-is_sufficient_gas_False]" : {
        "_info" : {
            "comment" : "`execution-spec-tests` generated test",
            "description" : "Test function documentation:\n\n    Tests the nested CALL/CALLCODE opcode gas consumption with a positive value transfer.",
            "filling-rpc-server" : "evm version 1.14.12-unstable-65e5ca7d-20241004",
            "filling-tool-version" : "retesteth-0.3.2-legacy+commit.be61b546.Linux.g++",
            "filling-transition-tool" : "evm version 1.14.12-unstable-65e5ca7d-20241004",
            "generatedTestHash" : "053a7bf3f9b38bfff119c4ce6b4a4f018c363325a954ff65eafd5edff85b1b9c",
            "hash" : "0xe5d3c08c89c911f9cf4935b74e48711b02cbfaac4edf5638fee6cbb474129e48",
            "lllcversion" : "Version: 0.5.14-develop.2024.11.5+commit.b2b86751.mod.Linux.g++",
            "solidity" : "Version: 0.8.24+commit.e11b9ed9.Linux.g++",
            "source" : "src/GeneralStateTestsFiller/Pyspecs/frontier/opcodes/test_call_and_callcode_gas_calculation.py",
            "sourceHash" : "8164fbe5ea8d77106ff02675fb0f912fcff012fc7bd27578d4fe90b557a52e2d",
            "url" : "https://github.com/ethereum/execution-spec-tests/blob/f89d09ba99a3dc680dd9410f0b8a7f8d8fc36714/tests/tmp/tmptest_8938ac56_e757_4111_8b0e_1e7bd393fa20/test_call_and_callcode_gas_calculation.py#L142"
        },
        "env" : {
            "currentBaseFee" : "0x07",
            "currentCoinbase" : "0x2adc25665018aa1fe0e6bc666dac8fc2697ff9ba",
            "currentDifficulty" : "0x00",
            "currentGasLimit" : "0x016345785d8a0000",
            "currentNumber" : "0x01",
            "currentRandom" : "0x0000000000000000000000000000000000000000000000000000000000000000",
            "currentTimestamp" : "0x03e8"
        },
        "post" : {
            "Shanghai" : [
                {
                    "hash" : "0xfe172ee422b0f207522ca38e717946cbd97debdc86c14012b2c19673b38abf56",
                    "indexes" : {
                        "data" : 0,
                        "gas" : 0,
                        "value" : 0
                    },
                    "logs" : "0x1dcc4de8dec75d7aab85b567b6ccd41ad312451b948a7413f0a142fd40d49347",
                    "txbytes" : "0xf86080078307a120940000000000000000000000000000000000001100018026a0ecc9874339d435625195c859cc00c3774467e76dd19e1b4b3b1e1a95194cc5eba060121ebb9db52f6a1fcb4a6ca6a93d2c396b0afb467ee34a9856228ef9fb71ed"
                }
            ]
        },
        "pre" : {
            "0x0000000000000000000000000000000000001000" : {
                "balance" : "0x03",
                "code" : "0x6000600060006000600173feffffffffffffffffffffffffffffffffffffff5af1",
                "nonce" : "0x01",
                "storage" : {
                }
            },
            "0x0000000000000000000000000000000000001100" : {
                "balance" : "0x03",
                "code" : "0x60006000600060006000611000618f0bf1600055",
                "nonce" : "0x01",
                "storage" : {
                }
            },
            "0xa94f5374fce5edbc8e2a8697c15331677e6ebf0b" : {
                "balance" : "0x0ba1a9ce",
                "code" : "0x",
                "nonce" : "0x00",
                "storage" : {
                }
            }
        },
        "transaction" : {
            "data" : [
                "0x"
            ],
            "gasLimit" : [
                "0x07a120"
            ],
            "gasPrice" : "0x07",
            "nonce" : "0x00",
            "secretKey" : "0x45a915e4d060149eb4365960e6a7a45f334393093061116b197e3240065ff2d8",
            "sender" : "0xa94f5374fce5edbc8e2a8697c15331677e6ebf0b",
            "to" : "0x0000000000000000000000000000000000001100",
            "value" : [
                "0x01"
            ]
        }
    },
    "src/GeneralStateTestsFiller/Pyspecs/frontier/opcodes/test_call_and_callcode_gas_calculation.py::test_value_transfer_gas_calculation[fork_Shanghai-state_test-callee_opcode_CALL-caller_gas_limit_36620-is_sufficient_gas_True]" : {
        "_info" : {
            "comment" : "`execution-spec-tests` generated test",
            "description" : "Test function documentation:\n\n    Tests the nested CALL/CALLCODE opcode gas consumption with a positive value transfer.",
            "filling-rpc-server" : "evm version 1.14.12-unstable-65e5ca7d-20241004",
            "filling-tool-version" : "retesteth-0.3.2-legacy+commit.be61b546.Linux.g++",
            "filling-transition-tool" : "evm version 1.14.12-unstable-65e5ca7d-20241004",
            "generatedTestHash" : "fc3ec63bea15c13bf6ed5e14628b8fbdf06c83832f3c932f0fb7971a72025b2c",
            "hash" : "0xa8753fcda1864db7d5121e22c9615f1a1d97d81151a9d1820bd1f1a034a4ff6b",
            "lllcversion" : "Version: 0.5.14-develop.2024.11.5+commit.b2b86751.mod.Linux.g++",
            "solidity" : "Version: 0.8.24+commit.e11b9ed9.Linux.g++",
            "source" : "src/GeneralStateTestsFiller/Pyspecs/frontier/opcodes/test_call_and_callcode_gas_calculation.py",
            "sourceHash" : "8164fbe5ea8d77106ff02675fb0f912fcff012fc7bd27578d4fe90b557a52e2d",
            "url" : "https://github.com/ethereum/execution-spec-tests/blob/f89d09ba99a3dc680dd9410f0b8a7f8d8fc36714/tests/tmp/tmptest_8938ac56_e757_4111_8b0e_1e7bd393fa20/test_call_and_callcode_gas_calculation.py#L142"
        },
        "env" : {
            "currentBaseFee" : "0x07",
            "currentCoinbase" : "0x2adc25665018aa1fe0e6bc666dac8fc2697ff9ba",
            "currentDifficulty" : "0x00",
            "currentGasLimit" : "0x016345785d8a0000",
            "currentNumber" : "0x01",
            "currentRandom" : "0x0000000000000000000000000000000000000000000000000000000000000000",
            "currentTimestamp" : "0x03e8"
        },
        "post" : {
            "Shanghai" : [
                {
                    "hash" : "0x96ea32ec89435ce99df9f0f42f6165c5967ca6a54eb5626c275be1777ecf8fec",
                    "indexes" : {
                        "data" : 0,
                        "gas" : 0,
                        "value" : 0
                    },
                    "logs" : "0x1dcc4de8dec75d7aab85b567b6ccd41ad312451b948a7413f0a142fd40d49347",
                    "txbytes" : "0xf86080078307a120940000000000000000000000000000000000001100018026a0ecc9874339d435625195c859cc00c3774467e76dd19e1b4b3b1e1a95194cc5eba060121ebb9db52f6a1fcb4a6ca6a93d2c396b0afb467ee34a9856228ef9fb71ed"
                }
            ]
        },
        "pre" : {
            "0x0000000000000000000000000000000000001000" : {
                "balance" : "0x03",
                "code" : "0x6000600060006000600173feffffffffffffffffffffffffffffffffffffff5af1",
                "nonce" : "0x01",
                "storage" : {
                }
            },
            "0x0000000000000000000000000000000000001100" : {
                "balance" : "0x03",
                "code" : "0x60006000600060006000611000618f0cf1600055",
                "nonce" : "0x01",
                "storage" : {
                }
            },
            "0xa94f5374fce5edbc8e2a8697c15331677e6ebf0b" : {
                "balance" : "0x0ba1a9ce",
                "code" : "0x",
                "nonce" : "0x00",
                "storage" : {
                }
            }
        },
        "transaction" : {
            "data" : [
                "0x"
            ],
            "gasLimit" : [
                "0x07a120"
            ],
            "gasPrice" : "0x07",
            "nonce" : "0x00",
            "secretKey" : "0x45a915e4d060149eb4365960e6a7a45f334393093061116b197e3240065ff2d8",
            "sender" : "0xa94f5374fce5edbc8e2a8697c15331677e6ebf0b",
            "to" : "0x0000000000000000000000000000000000001100",
            "value" : [
                "0x01"
            ]
        }
    },
    "src/GeneralStateTestsFiller/Pyspecs/frontier/opcodes/test_call_and_callcode_gas_calculation.py::test_value_transfer_gas_calculation[fork_Shanghai-state_test-callee_opcode_CALLCODE-caller_gas_limit_11619-is_sufficient_gas_False]" : {
        "_info" : {
            "comment" : "`execution-spec-tests` generated test",
            "description" : "Test function documentation:\n\n    Tests the nested CALL/CALLCODE opcode gas consumption with a positive value transfer.",
            "filling-rpc-server" : "evm version 1.14.12-unstable-65e5ca7d-20241004",
            "filling-tool-version" : "retesteth-0.3.2-legacy+commit.be61b546.Linux.g++",
            "filling-transition-tool" : "evm version 1.14.12-unstable-65e5ca7d-20241004",
            "generatedTestHash" : "186391a3fe26253549bddea301dee024646279e4adaa62f0170d0a813e2df0cd",
            "hash" : "0xc4535e96f404d8db2723319011504cf0253bd93a6702ec684493c8a0dd5faab5",
            "lllcversion" : "Version: 0.5.14-develop.2024.11.5+commit.b2b86751.mod.Linux.g++",
            "solidity" : "Version: 0.8.24+commit.e11b9ed9.Linux.g++",
            "source" : "src/GeneralStateTestsFiller/Pyspecs/frontier/opcodes/test_call_and_callcode_gas_calculation.py",
            "sourceHash" : "8164fbe5ea8d77106ff02675fb0f912fcff012fc7bd27578d4fe90b557a52e2d",
            "url" : "https://github.com/ethereum/execution-spec-tests/blob/f89d09ba99a3dc680dd9410f0b8a7f8d8fc36714/tests/tmp/tmptest_8938ac56_e757_4111_8b0e_1e7bd393fa20/test_call_and_callcode_gas_calculation.py#L142"
        },
        "env" : {
            "currentBaseFee" : "0x07",
            "currentCoinbase" : "0x2adc25665018aa1fe0e6bc666dac8fc2697ff9ba",
            "currentDifficulty" : "0x00",
            "currentGasLimit" : "0x016345785d8a0000",
            "currentNumber" : "0x01",
            "currentRandom" : "0x0000000000000000000000000000000000000000000000000000000000000000",
            "currentTimestamp" : "0x03e8"
        },
        "post" : {
            "Shanghai" : [
                {
                    "hash" : "0x91497ab3d9b64e062cc0a3fd1e191100567b5e7ff0f276a87fd0b9c65cd42af7",
                    "indexes" : {
                        "data" : 0,
                        "gas" : 0,
                        "value" : 0
                    },
                    "logs" : "0x1dcc4de8dec75d7aab85b567b6ccd41ad312451b948a7413f0a142fd40d49347",
                    "txbytes" : "0xf86080078307a120940000000000000000000000000000000000001100018026a0ecc9874339d435625195c859cc00c3774467e76dd19e1b4b3b1e1a95194cc5eba060121ebb9db52f6a1fcb4a6ca6a93d2c396b0afb467ee34a9856228ef9fb71ed"
                }
            ]
        },
        "pre" : {
            "0x0000000000000000000000000000000000001000" : {
                "balance" : "0x03",
                "code" : "0x6000600060006000600173feffffffffffffffffffffffffffffffffffffff5af2",
                "nonce" : "0x01",
                "storage" : {
                }
            },
            "0x0000000000000000000000000000000000001100" : {
                "balance" : "0x03",
                "code" : "0x60006000600060006000611000612d63f1600055",
                "nonce" : "0x01",
                "storage" : {
                }
            },
            "0xa94f5374fce5edbc8e2a8697c15331677e6ebf0b" : {
                "balance" : "0x0ba1a9ce",
                "code" : "0x",
                "nonce" : "0x00",
                "storage" : {
                }
            }
        },
        "transaction" : {
            "data" : [
                "0x"
            ],
            "gasLimit" : [
                "0x07a120"
            ],
            "gasPrice" : "0x07",
            "nonce" : "0x00",
            "secretKey" : "0x45a915e4d060149eb4365960e6a7a45f334393093061116b197e3240065ff2d8",
            "sender" : "0xa94f5374fce5edbc8e2a8697c15331677e6ebf0b",
            "to" : "0x0000000000000000000000000000000000001100",
            "value" : [
                "0x01"
            ]
        }
    },
    "src/GeneralStateTestsFiller/Pyspecs/frontier/opcodes/test_call_and_callcode_gas_calculation.py::test_value_transfer_gas_calculation[fork_Shanghai-state_test-callee_opcode_CALLCODE-caller_gas_limit_11620-is_sufficient_gas_True]" : {
        "_info" : {
            "comment" : "`execution-spec-tests` generated test",
            "description" : "Test function documentation:\n\n    Tests the nested CALL/CALLCODE opcode gas consumption with a positive value transfer.",
            "filling-rpc-server" : "evm version 1.14.12-unstable-65e5ca7d-20241004",
            "filling-tool-version" : "retesteth-0.3.2-legacy+commit.be61b546.Linux.g++",
            "filling-transition-tool" : "evm version 1.14.12-unstable-65e5ca7d-20241004",
            "generatedTestHash" : "8c7fd415e5ff1f462e601085c56ce95d09760ccafd744cb134b8f99b87708d51",
            "hash" : "0x0b80ec15a301308d1123a4cd938ed3d610fcd8f382e77e9dd40a19f581705111",
            "lllcversion" : "Version: 0.5.14-develop.2024.11.5+commit.b2b86751.mod.Linux.g++",
            "solidity" : "Version: 0.8.24+commit.e11b9ed9.Linux.g++",
            "source" : "src/GeneralStateTestsFiller/Pyspecs/frontier/opcodes/test_call_and_callcode_gas_calculation.py",
            "sourceHash" : "8164fbe5ea8d77106ff02675fb0f912fcff012fc7bd27578d4fe90b557a52e2d",
            "url" : "https://github.com/ethereum/execution-spec-tests/blob/f89d09ba99a3dc680dd9410f0b8a7f8d8fc36714/tests/tmp/tmptest_8938ac56_e757_4111_8b0e_1e7bd393fa20/test_call_and_callcode_gas_calculation.py#L142"
        },
        "env" : {
            "currentBaseFee" : "0x07",
            "currentCoinbase" : "0x2adc25665018aa1fe0e6bc666dac8fc2697ff9ba",
            "currentDifficulty" : "0x00",
            "currentGasLimit" : "0x016345785d8a0000",
            "currentNumber" : "0x01",
            "currentRandom" : "0x0000000000000000000000000000000000000000000000000000000000000000",
            "currentTimestamp" : "0x03e8"
        },
        "post" : {
            "Shanghai" : [
                {
                    "hash" : "0x503297910f55fbdf52ebc951caa4b8d5d0b98b2363715f715369a68fb020fdc8",
                    "indexes" : {
                        "data" : 0,
                        "gas" : 0,
                        "value" : 0
                    },
                    "logs" : "0x1dcc4de8dec75d7aab85b567b6ccd41ad312451b948a7413f0a142fd40d49347",
                    "txbytes" : "0xf86080078307a120940000000000000000000000000000000000001100018026a0ecc9874339d435625195c859cc00c3774467e76dd19e1b4b3b1e1a95194cc5eba060121ebb9db52f6a1fcb4a6ca6a93d2c396b0afb467ee34a9856228ef9fb71ed"
                }
            ]
        },
        "pre" : {
            "0x0000000000000000000000000000000000001000" : {
                "balance" : "0x03",
                "code" : "0x6000600060006000600173feffffffffffffffffffffffffffffffffffffff5af2",
                "nonce" : "0x01",
                "storage" : {
                }
            },
            "0x0000000000000000000000000000000000001100" : {
                "balance" : "0x03",
                "code" : "0x60006000600060006000611000612d64f1600055",
                "nonce" : "0x01",
                "storage" : {
                }
            },
            "0xa94f5374fce5edbc8e2a8697c15331677e6ebf0b" : {
                "balance" : "0x0ba1a9ce",
                "code" : "0x",
                "nonce" : "0x00",
                "storage" : {
                }
            }
        },
        "transaction" : {
            "data" : [
                "0x"
            ],
            "gasLimit" : [
                "0x07a120"
            ],
            "gasPrice" : "0x07",
            "nonce" : "0x00",
            "secretKey" : "0x45a915e4d060149eb4365960e6a7a45f334393093061116b197e3240065ff2d8",
            "sender" : "0xa94f5374fce5edbc8e2a8697c15331677e6ebf0b",
            "to" : "0x0000000000000000000000000000000000001100",
            "value" : [
                "0x01"
            ]
        }
    }
}