{
    "tests/cancun/eip4844_blobs/test_blob_txs.py::test_blob_type_tx_pre_fork[fork_ShanghaiToCancunAtTime15k-state_test-no_blob_tx]": {
        "env": {
            "currentCoinbase": "0x2adc25665018aa1fe0e6bc666dac8fc2697ff9ba",
            "currentGasLimit": "0x016345785d8a0000",
            "currentNumber": "0x01",
            "currentTimestamp": "0x03e8",
            "currentRandom": "0x0000000000000000000000000000000000000000000000000000000000000000",
            "currentDifficulty": "0x00",
            "currentBaseFee": "0x07"
        },
        "pre": {
            "0xa94f5374fce5edbc8e2a8697c15331677e6ebf0b": {
                "nonce": "0x00",
                "balance": "0x023e39",
                "code": "0x",
                "storage": {}
            }
        },
        "transaction": {
            "nonce": "0x00",
            "maxPriorityFeePerGas": "0x00",
            "maxFeePerGas": "0x07",
            "gasLimit": [
                "0x5208"
            ],
            "to": "0x0000000000000000000000000000000000001000",
            "value": [
                "0x01"
            ],
            "data": [
                "0x"
            ],
            "accessLists": [
                []
            ],
            "maxFeePerBlobGas": "0x01",
            "blobVersionedHashes": [],
            "sender": "0xa94f5374fce5edbc8e2a8697c15331677e6ebf0b",
            "secretKey": "0x45a915e4d060149eb4365960e6a7a45f334393093061116b197e3240065ff2d8"
        },
        "post": {
            "Shanghai": [
                {
                    "hash": "0x51f41d6ab2123b8c2bef303127d48c31e5b8ccee1bfde9f853f443fe9711c3fa",
                    "logs": "0x1dcc4de8dec75d7aab85b567b6ccd41ad312451b948a7413f0a142fd40d49347",
                    "txbytes": "0x03f864018080078252089400000000000000000000000000000000000010000180c001c080a0d352777a50ec15e7d008e514708806dab1e8fc6173f477240dccc1b654381db5a07011e58981082f75caf92cc36d315509df904cf15852815c5727556ea0279207",
                    "indexes": {
                        "data": 0,
                        "gas": 0,
                        "value": 0
                    },
                    "expectException": "TransactionException.TYPE_3_TX_PRE_FORK|TransactionException.TYPE_3_TX_ZERO_BLOBS"
                }
            ]
        },
        "_info": {
            "hash": "0x80e16b53eb798fc29362a50d1882f0f5aa19663f92d152a40b4c09575cc6bf60",
            "comment": "`execution-spec-tests` generated test",
            "filling-transition-tool": "evm version 1.13.14-stable",
            "reference-spec": "https://github.com/ethereum/EIPs/blob/master/EIPS/eip-4844.md",
            "reference-spec-version": "f0eb6a364aaf5ccb43516fa2c269a54fb881ecfd"
        }
    },
    "tests/cancun/eip4844_blobs/test_blob_txs.py::test_blob_type_tx_pre_fork[fork_ShanghaiToCancunAtTime15k-state_test-one_blob_tx]": {
        "env": {
            "currentCoinbase": "0x2adc25665018aa1fe0e6bc666dac8fc2697ff9ba",
            "currentGasLimit": "0x016345785d8a0000",
            "currentNumber": "0x01",
            "currentTimestamp": "0x03e8",
            "currentRandom": "0x0000000000000000000000000000000000000000000000000000000000000000",
            "currentDifficulty": "0x00",
            "currentBaseFee": "0x07"
        },
        "pre": {
            "0xa94f5374fce5edbc8e2a8697c15331677e6ebf0b": {
                "nonce": "0x00",
                "balance": "0x043e39",
                "code": "0x",
                "storage": {}
            }
        },
        "transaction": {
            "nonce": "0x00",
            "maxPriorityFeePerGas": "0x00",
            "maxFeePerGas": "0x07",
            "gasLimit": [
                "0x5208"
            ],
            "to": "0x0000000000000000000000000000000000001000",
            "value": [
                "0x01"
            ],
            "data": [
                "0x"
            ],
            "accessLists": [
                []
            ],
            "maxFeePerBlobGas": "0x01",
            "blobVersionedHashes": [
                "0x0100000000000000000000000000000000000000000000000000000000000000"
            ],
            "sender": "0xa94f5374fce5edbc8e2a8697c15331677e6ebf0b",
            "secretKey": "0x45a915e4d060149eb4365960e6a7a45f334393093061116b197e3240065ff2d8"
        },
        "post": {
            "Shanghai": [
                {
                    "hash": "0x60801982e5816ed2f91320cea42769e76120d71d863d48bf8ec4d905455ae9cd",
                    "logs": "0x1dcc4de8dec75d7aab85b567b6ccd41ad312451b948a7413f0a142fd40d49347",
                    "txbytes": "0x03f885018080078252089400000000000000000000000000000000000010000180c001e1a0010000000000000000000000000000000000000000000000000000000000000001a01c23fec1f89564eacfd814d768b59613e4fa7bb724df98a9689fa0ec68c9b69fa008629b4628dade7d7a4334a806c35788d7989b86b5eb17b7d80ae3f7532d3864",
                    "indexes": {
                        "data": 0,
                        "gas": 0,
                        "value": 0
                    },
                    "expectException": "TransactionException.TYPE_3_TX_PRE_FORK"
                }
            ]
        },
        "_info": {
            "hash": "0xc5e4924496b85086b0ab13b7a0fdbc739256093daa7a6c8c7126384f681443bb",
            "comment": "`execution-spec-tests` generated test",
            "filling-transition-tool": "evm version 1.13.14-stable",
            "reference-spec": "https://github.com/ethereum/EIPs/blob/master/EIPS/eip-4844.md",
            "reference-spec-version": "f0eb6a364aaf5ccb43516fa2c269a54fb881ecfd"
        }
    }
}