{
    "src/GeneralStateTestsFiller/Pyspecs/cancun/eip7516_blobgasfee/test_blobgasfee_opcode.py::test_blobbasefee_before_fork[fork_ShanghaiToCancunAtTime15k-state_test-]" : {
        "_info" : {
            "comment" : "`execution-spec-tests` generated test",
            "description" : "Test function documentation:\n\n    Tests that the BLOBBASEFEE opcode results on exception when called before the fork.",
            "filling-rpc-server" : "evm version 1.14.12-unstable-65e5ca7d-20241004",
            "filling-tool-version" : "retesteth-0.3.2-legacy+commit.be61b546.Linux.g++",
            "filling-transition-tool" : "evm version 1.14.12-unstable-65e5ca7d-20241004",
            "generatedTestHash" : "52a3d6a89dede27dcca63f15f4590d7056bf766987ee627dc0343ff551e4447d",
            "hash" : "0x169d9eb486eca5b47ab8e983df4e0c56d219ee1b05aeda1c3b1f71fe1c324ab5",
            "lllcversion" : "Version: 0.5.14-develop.2024.11.5+commit.b2b86751.mod.Linux.g++",
            "solidity" : "Version: 0.8.24+commit.e11b9ed9.Linux.g++",
            "source" : "src/GeneralStateTestsFiller/Pyspecs/cancun/eip7516_blobgasfee/test_blobgasfee_opcode.py",
            "sourceHash" : "f60eee08ba4756195cfc9e2f59918a52378f8e18bc400afc16b791e58a83fd88",
            "url" : "https://github.com/ethereum/execution-spec-tests/blob/f89d09ba99a3dc680dd9410f0b8a7f8d8fc36714/tests/tmp/tmptest_e9a2a4ae_03a3_4910_8dd6_d950a5586ace/test_blobgasfee_opcode.py#L163"
        },
        "env" : {
            "currentBaseFee" : "0x07",
            "currentCoinbase" : "0x2adc25665018aa1fe0e6bc666dac8fc2697ff9ba",
            "currentDifficulty" : "0x00",
            "currentGasLimit" : "0x016345785d8a0000",
            "currentNumber" : "0x01",
            "currentRandom" : "0x0000000000000000000000000000000000000000000000000000000000000000",
            "currentTimestamp" : "0x1d4c"
        },
        "post" : {
            "Shanghai" : [
                {
                    "hash" : "0x65cf38ad84b8b9a8d8864a490a01bebce14b98bde2c3b7f3676554bb44550eb6",
                    "indexes" : {
                        "data" : 0,
                        "gas" : 0,
                        "value" : 0
                    },
                    "logs" : "0x1dcc4de8dec75d7aab85b567b6ccd41ad312451b948a7413f0a142fd40d49347",
                    "txbytes" : "0xf860800a830f4240940000000000000000000000000000000000001100808025a0ae470d7da8404176546d3a7697b2e3ae957efde6c03d33075dcf9c70bd5f6685a038c93673ba928426221e7e315a75dd0be0e2ea74b5a0a91d7482dbfdb339b362"
                }
            ]
        },
        "pre" : {
            "0x0000000000000000000000000000000000001000" : {
                "balance" : "0x00",
                "code" : "0x4a00",
                "nonce" : "0x01",
                "storage" : {
                }
            },
            "0x0000000000000000000000000000000000001100" : {
                "balance" : "0x00",
                "code" : "0x6000600060006000600061100061fffff14355",
                "nonce" : "0x01",
                "storage" : {
                }
            },
            "0xa94f5374fce5edbc8e2a8697c15331677e6ebf0b" : {
                "balance" : "0x3635c9adc5dea00000",
                "code" : "0x",
                "nonce" : "0x00",
                "storage" : {
                }
            }
        },
        "transaction" : {
            "data" : [
                "0x"
            ],
            "gasLimit" : [
                "0x0f4240"
            ],
            "gasPrice" : "0x0a",
            "nonce" : "0x00",
            "secretKey" : "0x45a915e4d060149eb4365960e6a7a45f334393093061116b197e3240065ff2d8",
            "sender" : "0xa94f5374fce5edbc8e2a8697c15331677e6ebf0b",
            "to" : "0x0000000000000000000000000000000000001100",
            "value" : [
                "0x00"
            ]
        }
    }
}