{
    "tests/cancun/eip4844_blobs/test_blob_txs.py::test_invalid_tx_blob_count[fork_Cancun-blockchain_test-too_few_blobs]": {
        "network": "Cancun",
        "genesisBlockHeader": {
            "parentHash": "0x0000000000000000000000000000000000000000000000000000000000000000",
            "uncleHash": "0x1dcc4de8dec75d7aab85b567b6ccd41ad312451b948a7413f0a142fd40d49347",
            "coinbase": "0x0000000000000000000000000000000000000000",
            "stateRoot": "0x0b9d1a267a43c569ccd0ff306f8e9056d6c75389839d4402bb616de8d0af901e",
            "transactionsTrie": "0x56e81f171bcc55a6ff8345e692c0f86e5b48e01b996cadc001622fb5e363b421",
            "receiptTrie": "0x56e81f171bcc55a6ff8345e692c0f86e5b48e01b996cadc001622fb5e363b421",
            "bloom": "0x00000000000000000000000000000000000000000000000000000000000000000000000000000000000000000000000000000000000000000000000000000000000000000000000000000000000000000000000000000000000000000000000000000000000000000000000000000000000000000000000000000000000000000000000000000000000000000000000000000000000000000000000000000000000000000000000000000000000000000000000000000000000000000000000000000000000000000000000000000000000000000000000000000000000000000000000000000000000000000000000000000000000000000000000000000000",
            "difficulty": "0x00",
            "number": "0x00",
            "gasLimit": "0x016345785d8a0000",
            "gasUsed": "0x00",
            "timestamp": "0x00",
            "extraData": "0x00",
            "mixHash": "0x0000000000000000000000000000000000000000000000000000000000000000",
            "nonce": "0x0000000000000000",
            "baseFeePerGas": "0x07",
            "withdrawalsRoot": "0x56e81f171bcc55a6ff8345e692c0f86e5b48e01b996cadc001622fb5e363b421",
            "blobGasUsed": "0x00",
            "excessBlobGas": "0x140000",
            "parentBeaconBlockRoot": "0x0000000000000000000000000000000000000000000000000000000000000000",
            "hash": "0x327e49c7a3ac30c7308a1c318a074d926ad6e4ef6885c58664bde91baea04fc4"
        },
        "pre": {
            "0x000f3df6d732807ef1319fb7b8bb8522d0beac02": {
                "nonce": "0x01",
                "balance": "0x00",
                "code": "0x3373fffffffffffffffffffffffffffffffffffffffe14604d57602036146024575f5ffd5b5f35801560495762001fff810690815414603c575f5ffd5b62001fff01545f5260205ff35b5f5ffd5b62001fff42064281555f359062001fff015500",
                "storage": {}
            },
            "0xa94f5374fce5edbc8e2a8697c15331677e6ebf0b": {
                "nonce": "0x00",
                "balance": "0x023e39",
                "code": "0x",
                "storage": {}
            }
        },
        "postState": {
            "0x000f3df6d732807ef1319fb7b8bb8522d0beac02": {
                "nonce": "0x01",
                "balance": "0x00",
                "code": "0x3373fffffffffffffffffffffffffffffffffffffffe14604d57602036146024575f5ffd5b5f35801560495762001fff810690815414603c575f5ffd5b62001fff01545f5260205ff35b5f5ffd5b62001fff42064281555f359062001fff015500",
                "storage": {}
            },
            "0xa94f5374fce5edbc8e2a8697c15331677e6ebf0b": {
                "nonce": "0x00",
                "balance": "0x023e39",
                "code": "0x",
                "storage": {}
            }
        },
        "genesisRLP": "0xf90243f9023da00000000000000000000000000000000000000000000000000000000000000000a01dcc4de8dec75d7aab85b567b6ccd41ad312451b948a7413f0a142fd40d49347940000000000000000000000000000000000000000a00b9d1a267a43c569ccd0ff306f8e9056d6c75389839d4402bb616de8d0af901ea056e81f171bcc55a6ff8345e692c0f86e5b48e01b996cadc001622fb5e363b421a056e81f171bcc55a6ff8345e692c0f86e5b48e01b996cadc001622fb5e363b421b9010000000000000000000000000000000000000000000000000000000000000000000000000000000000000000000000000000000000000000000000000000000000000000000000000000000000000000000000000000000000000000000000000000000000000000000000000000000000000000000000000000000000000000000000000000000000000000000000000000000000000000000000000000000000000000000000000000000000000000000000000000000000000000000000000000000000000000000000000000000000000000000000000000000000000000000000000000000000000000000000000000000000000000000000000000000000808088016345785d8a0000808000a0000000000000000000000000000000000000000000000000000000000000000088000000000000000007a056e81f171bcc55a6ff8345e692c0f86e5b48e01b996cadc001622fb5e363b4218083140000a00000000000000000000000000000000000000000000000000000000000000000c0c0c0",
        "blocks": [
            {
                "rlp": "0xf902aff9023fa0327e49c7a3ac30c7308a1c318a074d926ad6e4ef6885c58664bde91baea04fc4a01dcc4de8dec75d7aab85b567b6ccd41ad312451b948a7413f0a142fd40d49347942adc25665018aa1fe0e6bc666dac8fc2697ff9baa0f708e2d81ea9dc7ba9eb5bb224a9476e3a40521194dfb4784e2b86318bd2f8bfa041caf6487c3a6d698110371a53ba50c5c4bfc97752b060a0faf884d633024924a056e81f171bcc55a6ff8345e692c0f86e5b48e01b996cadc001622fb5e363b421b9010000000000000000000000000000000000000000000000000000000000000000000000000000000000000000000000000000000000000000000000000000000000000000000000000000000000000000000000000000000000000000000000000000000000000000000000000000000000000000000000000000000000000000000000000000000000000000000000000000000000000000000000000000000000000000000000000000000000000000000000000000000000000000000000000000000000000000000000000000000000000000000000000000000000000000000000000000000000000000000000000000000000000000000000000000000000800188016345785d8a0000808203e800a0000000000000000000000000000000000000000000000000000000000000000088000000000000000007a056e81f171bcc55a6ff8345e692c0f86e5b48e01b996cadc001622fb5e363b42180830e0000a00000000000000000000000000000000000000000000000000000000000000000f869b86703f864018080078252089400000000000000000000000000000000000010000180c001c080a0d352777a50ec15e7d008e514708806dab1e8fc6173f477240dccc1b654381db5a07011e58981082f75caf92cc36d315509df904cf15852815c5727556ea0279207c0c0",
                "expectException": "TransactionException.TYPE_3_TX_ZERO_BLOBS",
                "rlp_decoded": {
                    "blockHeader": {
                        "parentHash": "0x327e49c7a3ac30c7308a1c318a074d926ad6e4ef6885c58664bde91baea04fc4",
                        "uncleHash": "0x1dcc4de8dec75d7aab85b567b6ccd41ad312451b948a7413f0a142fd40d49347",
                        "coinbase": "0x2adc25665018aa1fe0e6bc666dac8fc2697ff9ba",
                        "stateRoot": "0xf708e2d81ea9dc7ba9eb5bb224a9476e3a40521194dfb4784e2b86318bd2f8bf",
                        "transactionsTrie": "0x41caf6487c3a6d698110371a53ba50c5c4bfc97752b060a0faf884d633024924",
                        "receiptTrie": "0x56e81f171bcc55a6ff8345e692c0f86e5b48e01b996cadc001622fb5e363b421",
                        "bloom": "0x00000000000000000000000000000000000000000000000000000000000000000000000000000000000000000000000000000000000000000000000000000000000000000000000000000000000000000000000000000000000000000000000000000000000000000000000000000000000000000000000000000000000000000000000000000000000000000000000000000000000000000000000000000000000000000000000000000000000000000000000000000000000000000000000000000000000000000000000000000000000000000000000000000000000000000000000000000000000000000000000000000000000000000000000000000000",
                        "difficulty": "0x00",
                        "number": "0x01",
                        "gasLimit": "0x016345785d8a0000",
                        "gasUsed": "0x00",
                        "timestamp": "0x03e8",
                        "extraData": "0x00",
                        "mixHash": "0x0000000000000000000000000000000000000000000000000000000000000000",
                        "nonce": "0x0000000000000000",
                        "baseFeePerGas": "0x07",
                        "withdrawalsRoot": "0x56e81f171bcc55a6ff8345e692c0f86e5b48e01b996cadc001622fb5e363b421",
                        "blobGasUsed": "0x00",
                        "excessBlobGas": "0x0e0000",
                        "parentBeaconBlockRoot": "0x0000000000000000000000000000000000000000000000000000000000000000",
                        "hash": "0xa1f570607c58f577e226766d29bd2d62ecf354994c031e9363065405b73c63e5"
                    },
                    "transactions": [
                        {
                            "type": "0x03",
                            "chainId": "0x01",
                            "nonce": "0x00",
                            "maxPriorityFeePerGas": "0x00",
                            "maxFeePerGas": "0x07",
                            "gasLimit": "0x5208",
                            "to": "0x0000000000000000000000000000000000001000",
                            "value": "0x01",
                            "data": "0x",
                            "accessList": [],
                            "maxFeePerBlobGas": "0x01",
                            "blobVersionedHashes": [],
                            "v": "0x00",
                            "r": "0xd352777a50ec15e7d008e514708806dab1e8fc6173f477240dccc1b654381db5",
                            "s": "0x7011e58981082f75caf92cc36d315509df904cf15852815c5727556ea0279207",
                            "sender": "0xa94f5374fce5edbc8e2a8697c15331677e6ebf0b"
                        }
                    ],
                    "uncleHeaders": [],
                    "withdrawals": [],
                    "blocknumber": "1"
                }
            }
        ],
        "lastblockhash": "0x327e49c7a3ac30c7308a1c318a074d926ad6e4ef6885c58664bde91baea04fc4",
        "sealEngine": "NoProof",
        "_info": {
            "hash": "0xb983c86b2923c55d37f7f4ac2018019ffa03652a8f2ea02d79ffce736e38a375",
            "comment": "`execution-spec-tests` generated test",
            "filling-transition-tool": "evm version 1.14.4-unstable-44a50c9f-20240510",
            "reference-spec": "https://github.com/ethereum/EIPs/blob/master/EIPS/eip-4844.md",
            "reference-spec-version": "f0eb6a364aaf5ccb43516fa2c269a54fb881ecfd"
        }
    },
    "tests/cancun/eip4844_blobs/test_blob_txs.py::test_invalid_tx_blob_count[fork_Cancun-blockchain_test-too_many_blobs]": {
        "network": "Cancun",
        "genesisBlockHeader": {
            "parentHash": "0x0000000000000000000000000000000000000000000000000000000000000000",
            "uncleHash": "0x1dcc4de8dec75d7aab85b567b6ccd41ad312451b948a7413f0a142fd40d49347",
            "coinbase": "0x0000000000000000000000000000000000000000",
            "stateRoot": "0xecf02fbedb948d7cae0d9587417e228f925038e7f2bf720e438c662b72982d75",
            "transactionsTrie": "0x56e81f171bcc55a6ff8345e692c0f86e5b48e01b996cadc001622fb5e363b421",
            "receiptTrie": "0x56e81f171bcc55a6ff8345e692c0f86e5b48e01b996cadc001622fb5e363b421",
            "bloom": "0x00000000000000000000000000000000000000000000000000000000000000000000000000000000000000000000000000000000000000000000000000000000000000000000000000000000000000000000000000000000000000000000000000000000000000000000000000000000000000000000000000000000000000000000000000000000000000000000000000000000000000000000000000000000000000000000000000000000000000000000000000000000000000000000000000000000000000000000000000000000000000000000000000000000000000000000000000000000000000000000000000000000000000000000000000000000",
            "difficulty": "0x00",
            "number": "0x00",
            "gasLimit": "0x016345785d8a0000",
            "gasUsed": "0x00",
            "timestamp": "0x00",
            "extraData": "0x00",
            "mixHash": "0x0000000000000000000000000000000000000000000000000000000000000000",
            "nonce": "0x0000000000000000",
            "baseFeePerGas": "0x07",
            "withdrawalsRoot": "0x56e81f171bcc55a6ff8345e692c0f86e5b48e01b996cadc001622fb5e363b421",
            "blobGasUsed": "0x00",
            "excessBlobGas": "0x140000",
            "parentBeaconBlockRoot": "0x0000000000000000000000000000000000000000000000000000000000000000",
            "hash": "0x9c823f5a5fff3d59eae97c2a49a6a32d7cdf474478e97fcd6fedb97e058052d3"
        },
        "pre": {
            "0x000f3df6d732807ef1319fb7b8bb8522d0beac02": {
                "nonce": "0x01",
                "balance": "0x00",
                "code": "0x3373fffffffffffffffffffffffffffffffffffffffe14604d57602036146024575f5ffd5b5f35801560495762001fff810690815414603c575f5ffd5b62001fff01545f5260205ff35b5f5ffd5b62001fff42064281555f359062001fff015500",
                "storage": {}
            },
            "0xa94f5374fce5edbc8e2a8697c15331677e6ebf0b": {
                "nonce": "0x00",
                "balance": "0x103e39",
                "code": "0x",
                "storage": {}
            }
        },
        "postState": {
            "0x000f3df6d732807ef1319fb7b8bb8522d0beac02": {
                "nonce": "0x01",
                "balance": "0x00",
                "code": "0x3373fffffffffffffffffffffffffffffffffffffffe14604d57602036146024575f5ffd5b5f35801560495762001fff810690815414603c575f5ffd5b62001fff01545f5260205ff35b5f5ffd5b62001fff42064281555f359062001fff015500",
                "storage": {}
            },
            "0xa94f5374fce5edbc8e2a8697c15331677e6ebf0b": {
                "nonce": "0x00",
                "balance": "0x103e39",
                "code": "0x",
                "storage": {}
            }
        },
        "genesisRLP": "0xf90243f9023da00000000000000000000000000000000000000000000000000000000000000000a01dcc4de8dec75d7aab85b567b6ccd41ad312451b948a7413f0a142fd40d49347940000000000000000000000000000000000000000a0ecf02fbedb948d7cae0d9587417e228f925038e7f2bf720e438c662b72982d75a056e81f171bcc55a6ff8345e692c0f86e5b48e01b996cadc001622fb5e363b421a056e81f171bcc55a6ff8345e692c0f86e5b48e01b996cadc001622fb5e363b421b9010000000000000000000000000000000000000000000000000000000000000000000000000000000000000000000000000000000000000000000000000000000000000000000000000000000000000000000000000000000000000000000000000000000000000000000000000000000000000000000000000000000000000000000000000000000000000000000000000000000000000000000000000000000000000000000000000000000000000000000000000000000000000000000000000000000000000000000000000000000000000000000000000000000000000000000000000000000000000000000000000000000000000000000000000000000000808088016345785d8a0000808000a0000000000000000000000000000000000000000000000000000000000000000088000000000000000007a056e81f171bcc55a6ff8345e692c0f86e5b48e01b996cadc001622fb5e363b4218083140000a00000000000000000000000000000000000000000000000000000000000000000c0c0c0",
        "blocks": [
            {
                "rlp": "0xf9039df90242a09c823f5a5fff3d59eae97c2a49a6a32d7cdf474478e97fcd6fedb97e058052d3a01dcc4de8dec75d7aab85b567b6ccd41ad312451b948a7413f0a142fd40d49347942adc25665018aa1fe0e6bc666dac8fc2697ff9baa0ecf0818fee9f6dfa3e82e58c3a8597f555c8c6c01b1af5417ebc17c6ba73e8b1a09a92d375ec3a7e804ef5de2343264a62cefadec7abf556fae99b7359176bc24aa056e81f171bcc55a6ff8345e692c0f86e5b48e01b996cadc001622fb5e363b421b9010000000000000000000000000000000000000000000000000000000000000000000000000000000000000000000000000000000000000000000000000000000000000000000000000000000000000000000000000000000000000000000000000000000000000000000000000000000000000000000000000000000000000000000000000000000000000000000000000000000000000000000000000000000000000000000000000000000000000000000000000000000000000000000000000000000000000000000000000000000000000000000000000000000000000000000000000000000000000000000000000000000000000000000000000000000000800188016345785d8a0000808203e800a0000000000000000000000000000000000000000000000000000000000000000088000000000000000007a056e81f171bcc55a6ff8345e692c0f86e5b48e01b996cadc001622fb5e363b421830e0000830e0000a00000000000000000000000000000000000000000000000000000000000000000f90153b9015003f9014c018080078252089400000000000000000000000000000000000010000180c001f8e7a00100000000000000000000000000000000000000000000000000000000000000a00100000000000000000000000000000000000000000000000000000000000001a00100000000000000000000000000000000000000000000000000000000000002a00100000000000000000000000000000000000000000000000000000000000003a00100000000000000000000000000000000000000000000000000000000000004a00100000000000000000000000000000000000000000000000000000000000005a0010000000000000000000000000000000000000000000000000000000000000680a0e88a04011eaa68c65168771602ccd2d4ef7ab673e7ed6de61704e9fa0aa230caa01c9e650e983d3ee48c3276dbbdc77396493012e6d857ed131f6b946bb09f2090c0c0",
                "expectException": "TransactionException.TYPE_3_TX_BLOB_COUNT_EXCEEDED",
                "rlp_decoded": {
                    "blockHeader": {
                        "parentHash": "0x9c823f5a5fff3d59eae97c2a49a6a32d7cdf474478e97fcd6fedb97e058052d3",
                        "uncleHash": "0x1dcc4de8dec75d7aab85b567b6ccd41ad312451b948a7413f0a142fd40d49347",
                        "coinbase": "0x2adc25665018aa1fe0e6bc666dac8fc2697ff9ba",
                        "stateRoot": "0xecf0818fee9f6dfa3e82e58c3a8597f555c8c6c01b1af5417ebc17c6ba73e8b1",
                        "transactionsTrie": "0x9a92d375ec3a7e804ef5de2343264a62cefadec7abf556fae99b7359176bc24a",
                        "receiptTrie": "0x56e81f171bcc55a6ff8345e692c0f86e5b48e01b996cadc001622fb5e363b421",
                        "bloom": "0x00000000000000000000000000000000000000000000000000000000000000000000000000000000000000000000000000000000000000000000000000000000000000000000000000000000000000000000000000000000000000000000000000000000000000000000000000000000000000000000000000000000000000000000000000000000000000000000000000000000000000000000000000000000000000000000000000000000000000000000000000000000000000000000000000000000000000000000000000000000000000000000000000000000000000000000000000000000000000000000000000000000000000000000000000000000",
                        "difficulty": "0x00",
                        "number": "0x01",
                        "gasLimit": "0x016345785d8a0000",
                        "gasUsed": "0x00",
                        "timestamp": "0x03e8",
                        "extraData": "0x00",
                        "mixHash": "0x0000000000000000000000000000000000000000000000000000000000000000",
                        "nonce": "0x0000000000000000",
                        "baseFeePerGas": "0x07",
                        "withdrawalsRoot": "0x56e81f171bcc55a6ff8345e692c0f86e5b48e01b996cadc001622fb5e363b421",
                        "blobGasUsed": "0x0e0000",
                        "excessBlobGas": "0x0e0000",
                        "parentBeaconBlockRoot": "0x0000000000000000000000000000000000000000000000000000000000000000",
                        "hash": "0x47a9191dcd8f9183406b5ec1e597622cfd0a2578993db890747e8de162d1c089"
                    },
                    "transactions": [
                        {
                            "type": "0x03",
                            "chainId": "0x01",
                            "nonce": "0x00",
                            "maxPriorityFeePerGas": "0x00",
                            "maxFeePerGas": "0x07",
                            "gasLimit": "0x5208",
                            "to": "0x0000000000000000000000000000000000001000",
                            "value": "0x01",
                            "data": "0x",
                            "accessList": [],
                            "maxFeePerBlobGas": "0x01",
                            "blobVersionedHashes": [
                                "0x0100000000000000000000000000000000000000000000000000000000000000",
                                "0x0100000000000000000000000000000000000000000000000000000000000001",
                                "0x0100000000000000000000000000000000000000000000000000000000000002",
                                "0x0100000000000000000000000000000000000000000000000000000000000003",
                                "0x0100000000000000000000000000000000000000000000000000000000000004",
                                "0x0100000000000000000000000000000000000000000000000000000000000005",
                                "0x0100000000000000000000000000000000000000000000000000000000000006"
                            ],
                            "v": "0x00",
                            "r": "0xe88a04011eaa68c65168771602ccd2d4ef7ab673e7ed6de61704e9fa0aa230ca",
                            "s": "0x1c9e650e983d3ee48c3276dbbdc77396493012e6d857ed131f6b946bb09f2090",
                            "sender": "0xa94f5374fce5edbc8e2a8697c15331677e6ebf0b"
                        }
                    ],
                    "uncleHeaders": [],
                    "withdrawals": [],
                    "blocknumber": "1"
                }
            }
        ],
        "lastblockhash": "0x9c823f5a5fff3d59eae97c2a49a6a32d7cdf474478e97fcd6fedb97e058052d3",
        "sealEngine": "NoProof",
        "_info": {
            "hash": "0x137b272b27b285c32d6e935bafd28bbffe5179554de78724bf0f3c3b0f189e86",
            "comment": "`execution-spec-tests` generated test",
            "filling-transition-tool": "evm version 1.14.4-unstable-44a50c9f-20240510",
            "reference-spec": "https://github.com/ethereum/EIPs/blob/master/EIPS/eip-4844.md",
            "reference-spec-version": "f0eb6a364aaf5ccb43516fa2c269a54fb881ecfd"
        }
    }
}