{
    "tests/cancun/eip4844_blobs/test_blob_txs.py::test_invalid_blob_hash_versioning_multiple_txs[fork_Cancun-blockchain_test--single_blob]": {
        "network": "Cancun",
        "genesisBlockHeader": {
            "parentHash": "0x0000000000000000000000000000000000000000000000000000000000000000",
            "uncleHash": "0x1dcc4de8dec75d7aab85b567b6ccd41ad312451b948a7413f0a142fd40d49347",
            "coinbase": "0x0000000000000000000000000000000000000000",
            "stateRoot": "0x82f50cde5f2aab972d5370e69056feaef8557e601dd3bfa1b84ee9505c1ff98a",
            "transactionsTrie": "0x56e81f171bcc55a6ff8345e692c0f86e5b48e01b996cadc001622fb5e363b421",
            "receiptTrie": "0x56e81f171bcc55a6ff8345e692c0f86e5b48e01b996cadc001622fb5e363b421",
            "bloom": "0x00000000000000000000000000000000000000000000000000000000000000000000000000000000000000000000000000000000000000000000000000000000000000000000000000000000000000000000000000000000000000000000000000000000000000000000000000000000000000000000000000000000000000000000000000000000000000000000000000000000000000000000000000000000000000000000000000000000000000000000000000000000000000000000000000000000000000000000000000000000000000000000000000000000000000000000000000000000000000000000000000000000000000000000000000000000",
            "difficulty": "0x00",
            "number": "0x00",
            "gasLimit": "0x016345785d8a0000",
            "gasUsed": "0x00",
            "timestamp": "0x00",
            "extraData": "0x00",
            "mixHash": "0x0000000000000000000000000000000000000000000000000000000000000000",
            "nonce": "0x0000000000000000",
            "baseFeePerGas": "0x07",
            "withdrawalsRoot": "0x56e81f171bcc55a6ff8345e692c0f86e5b48e01b996cadc001622fb5e363b421",
            "blobGasUsed": "0x00",
            "excessBlobGas": "0x140000",
            "parentBeaconBlockRoot": "0x0000000000000000000000000000000000000000000000000000000000000000",
            "hash": "0x25fbef7ac7a23074b8d4d1c57b0b24aa6cf149fdf725342252a60a14fe558565"
        },
        "pre": {
            "0x000f3df6d732807ef1319fb7b8bb8522d0beac02": {
                "nonce": "0x01",
                "balance": "0x00",
                "code": "0x3373fffffffffffffffffffffffffffffffffffffffe14604d57602036146024575f5ffd5b5f35801560495762001fff810690815414603c575f5ffd5b62001fff01545f5260205ff35b5f5ffd5b62001fff42064281555f359062001fff015500",
                "storage": {}
            },
            "0xa94f5374fce5edbc8e2a8697c15331677e6ebf0b": {
                "nonce": "0x00",
                "balance": "0x087c72",
                "code": "0x",
                "storage": {}
            }
        },
        "postState": {
            "0x000f3df6d732807ef1319fb7b8bb8522d0beac02": {
                "nonce": "0x01",
                "balance": "0x00",
                "code": "0x3373fffffffffffffffffffffffffffffffffffffffe14604d57602036146024575f5ffd5b5f35801560495762001fff810690815414603c575f5ffd5b62001fff01545f5260205ff35b5f5ffd5b62001fff42064281555f359062001fff015500",
                "storage": {}
            },
            "0xa94f5374fce5edbc8e2a8697c15331677e6ebf0b": {
                "nonce": "0x00",
                "balance": "0x087c72",
                "code": "0x",
                "storage": {}
            }
        },
        "genesisRLP": "0xf90243f9023da00000000000000000000000000000000000000000000000000000000000000000a01dcc4de8dec75d7aab85b567b6ccd41ad312451b948a7413f0a142fd40d49347940000000000000000000000000000000000000000a082f50cde5f2aab972d5370e69056feaef8557e601dd3bfa1b84ee9505c1ff98aa056e81f171bcc55a6ff8345e692c0f86e5b48e01b996cadc001622fb5e363b421a056e81f171bcc55a6ff8345e692c0f86e5b48e01b996cadc001622fb5e363b421b9010000000000000000000000000000000000000000000000000000000000000000000000000000000000000000000000000000000000000000000000000000000000000000000000000000000000000000000000000000000000000000000000000000000000000000000000000000000000000000000000000000000000000000000000000000000000000000000000000000000000000000000000000000000000000000000000000000000000000000000000000000000000000000000000000000000000000000000000000000000000000000000000000000000000000000000000000000000000000000000000000000000000000000000000000000000000808088016345785d8a0000808000a0000000000000000000000000000000000000000000000000000000000000000088000000000000000007a056e81f171bcc55a6ff8345e692c0f86e5b48e01b996cadc001622fb5e363b4218083140000a00000000000000000000000000000000000000000000000000000000000000000c0c0c0",
        "blocks": [
            {
                "rlp": "0xf9035ef90242a025fbef7ac7a23074b8d4d1c57b0b24aa6cf149fdf725342252a60a14fe558565a01dcc4de8dec75d7aab85b567b6ccd41ad312451b948a7413f0a142fd40d49347942adc25665018aa1fe0e6bc666dac8fc2697ff9baa003abf5d54f0ef75452cfbe101e18f76d549a794efdb0bd5e5e82eee9ec0ad582a0dbf6aab5e847a3eaa6f526a81d5719257d3aa8bde98b8f1bf1146ead9e75f043a0eaa8c40899a61ae59615cf9985f5e2194f8fd2b57d273be63bde6733e89b12abb9010000000000000000000000000000000000000000000000000000000000000000000000000000000000000000000000000000000000000000000000000000000000000000000000000000000000000000000000000000000000000000000000000000000000000000000000000000000000000000000000000000000000000000000000000000000000000000000000000000000000000000000000000000000000000000000000000000000000000000000000000000000000000000000000000000000000000000000000000000000000000000000000000000000000000000000000000000000000000000000000000000000000000000000000000000000000800188016345785d8a00008252080c80a0000000000000000000000000000000000000000000000000000000000000000088000000000000000007a056e81f171bcc55a6ff8345e692c0f86e5b48e01b996cadc001622fb5e363b42183040000830e0000a00000000000000000000000000000000000000000000000000000000000000000f90114b88803f885018080078252089400000000000000000000000000000000000010000180c001e1a0010000000000000000000000000000000000000000000000000000000000000180a00fbd9c16d8b52f5ff55c47132b0a4febebf11907777354360087e63a3aebde70a07f45acac1498d6c6869cc7e2c13eb696e337355c31c5d156b2772d798f12bf13b88803f885010180078252089400000000000000000000000000000000000010000180c001e1a0000000000000000000000000000000000000000000000000000000000000000201a02cc19db595f068fa94e352ea5058b6a9378ba9598f369bf7b3d3f16f8d8de0ada04f70f5bfc4268958021e5be1a290abe3de5cfc76e7fb287e55d3ac021f7655f2c0c0",
                "expectException": "TransactionException.TYPE_3_TX_INVALID_BLOB_VERSIONED_HASH",
                "rlp_decoded": {
                    "blockHeader": {
                        "parentHash": "0x25fbef7ac7a23074b8d4d1c57b0b24aa6cf149fdf725342252a60a14fe558565",
                        "uncleHash": "0x1dcc4de8dec75d7aab85b567b6ccd41ad312451b948a7413f0a142fd40d49347",
                        "coinbase": "0x2adc25665018aa1fe0e6bc666dac8fc2697ff9ba",
                        "stateRoot": "0x03abf5d54f0ef75452cfbe101e18f76d549a794efdb0bd5e5e82eee9ec0ad582",
                        "transactionsTrie": "0xdbf6aab5e847a3eaa6f526a81d5719257d3aa8bde98b8f1bf1146ead9e75f043",
                        "receiptTrie": "0xeaa8c40899a61ae59615cf9985f5e2194f8fd2b57d273be63bde6733e89b12ab",
                        "bloom": "0x00000000000000000000000000000000000000000000000000000000000000000000000000000000000000000000000000000000000000000000000000000000000000000000000000000000000000000000000000000000000000000000000000000000000000000000000000000000000000000000000000000000000000000000000000000000000000000000000000000000000000000000000000000000000000000000000000000000000000000000000000000000000000000000000000000000000000000000000000000000000000000000000000000000000000000000000000000000000000000000000000000000000000000000000000000000",
                        "difficulty": "0x00",
                        "number": "0x01",
                        "gasLimit": "0x016345785d8a0000",
                        "gasUsed": "0x5208",
                        "timestamp": "0x0c",
                        "extraData": "0x",
                        "mixHash": "0x0000000000000000000000000000000000000000000000000000000000000000",
                        "nonce": "0x0000000000000000",
                        "baseFeePerGas": "0x07",
                        "withdrawalsRoot": "0x56e81f171bcc55a6ff8345e692c0f86e5b48e01b996cadc001622fb5e363b421",
                        "blobGasUsed": "0x040000",
                        "excessBlobGas": "0x0e0000",
                        "parentBeaconBlockRoot": "0x0000000000000000000000000000000000000000000000000000000000000000",
                        "hash": "0x33ec6c36934903e2756f5946d3139915e4d07defc6e50523fb7e6ca26ee946a9"
                    },
                    "transactions": [
                        {
                            "type": "0x03",
                            "chainId": "0x01",
                            "nonce": "0x00",
                            "maxPriorityFeePerGas": "0x00",
                            "maxFeePerGas": "0x07",
                            "gasLimit": "0x5208",
                            "to": "0x0000000000000000000000000000000000001000",
                            "value": "0x01",
                            "data": "0x",
                            "accessList": [],
                            "maxFeePerBlobGas": "0x01",
                            "blobVersionedHashes": [
                                "0x0100000000000000000000000000000000000000000000000000000000000001"
                            ],
                            "v": "0x00",
                            "r": "0x0fbd9c16d8b52f5ff55c47132b0a4febebf11907777354360087e63a3aebde70",
                            "s": "0x7f45acac1498d6c6869cc7e2c13eb696e337355c31c5d156b2772d798f12bf13",
                            "sender": "0xa94f5374fce5edbc8e2a8697c15331677e6ebf0b"
                        },
                        {
                            "type": "0x03",
                            "chainId": "0x01",
                            "nonce": "0x01",
                            "maxPriorityFeePerGas": "0x00",
                            "maxFeePerGas": "0x07",
                            "gasLimit": "0x5208",
                            "to": "0x0000000000000000000000000000000000001000",
                            "value": "0x01",
                            "data": "0x",
                            "accessList": [],
                            "maxFeePerBlobGas": "0x01",
                            "blobVersionedHashes": [
                                "0x0000000000000000000000000000000000000000000000000000000000000002"
                            ],
                            "v": "0x01",
                            "r": "0x2cc19db595f068fa94e352ea5058b6a9378ba9598f369bf7b3d3f16f8d8de0ad",
                            "s": "0x4f70f5bfc4268958021e5be1a290abe3de5cfc76e7fb287e55d3ac021f7655f2",
                            "sender": "0xa94f5374fce5edbc8e2a8697c15331677e6ebf0b"
                        }
                    ],
                    "uncleHeaders": [],
                    "withdrawals": [],
                    "blocknumber": "1"
                }
            }
        ],
        "lastblockhash": "0x25fbef7ac7a23074b8d4d1c57b0b24aa6cf149fdf725342252a60a14fe558565",
        "sealEngine": "NoProof",
        "_info": {
            "hash": "0x4695e4c4129f03512029638eaf3da12a1c22821c6d89b31243d9d43f6cd7777b",
            "comment": "`execution-spec-tests` generated test",
            "filling-transition-tool": "evm version 1.14.4-unstable-44a50c9f-20240510",
            "reference-spec": "https://github.com/ethereum/EIPs/blob/master/EIPS/eip-4844.md",
            "reference-spec-version": "f0eb6a364aaf5ccb43516fa2c269a54fb881ecfd"
        }
    },
    "tests/cancun/eip4844_blobs/test_blob_txs.py::test_invalid_blob_hash_versioning_multiple_txs[fork_Cancun-blockchain_test--multiple_blobs]": {
        "network": "Cancun",
        "genesisBlockHeader": {
            "parentHash": "0x0000000000000000000000000000000000000000000000000000000000000000",
            "uncleHash": "0x1dcc4de8dec75d7aab85b567b6ccd41ad312451b948a7413f0a142fd40d49347",
            "coinbase": "0x0000000000000000000000000000000000000000",
            "stateRoot": "0xbc3c2ee7952e2d04c31de55221cc1ea2a6f339a648fc4527e2b19411394dd4c0",
            "transactionsTrie": "0x56e81f171bcc55a6ff8345e692c0f86e5b48e01b996cadc001622fb5e363b421",
            "receiptTrie": "0x56e81f171bcc55a6ff8345e692c0f86e5b48e01b996cadc001622fb5e363b421",
            "bloom": "0x00000000000000000000000000000000000000000000000000000000000000000000000000000000000000000000000000000000000000000000000000000000000000000000000000000000000000000000000000000000000000000000000000000000000000000000000000000000000000000000000000000000000000000000000000000000000000000000000000000000000000000000000000000000000000000000000000000000000000000000000000000000000000000000000000000000000000000000000000000000000000000000000000000000000000000000000000000000000000000000000000000000000000000000000000000000",
            "difficulty": "0x00",
            "number": "0x00",
            "gasLimit": "0x016345785d8a0000",
            "gasUsed": "0x00",
            "timestamp": "0x00",
            "extraData": "0x00",
            "mixHash": "0x0000000000000000000000000000000000000000000000000000000000000000",
            "nonce": "0x0000000000000000",
            "baseFeePerGas": "0x07",
            "withdrawalsRoot": "0x56e81f171bcc55a6ff8345e692c0f86e5b48e01b996cadc001622fb5e363b421",
            "blobGasUsed": "0x00",
            "excessBlobGas": "0x140000",
            "parentBeaconBlockRoot": "0x0000000000000000000000000000000000000000000000000000000000000000",
            "hash": "0xd40b69628f61ffb9b6bf30b87fc776ef6464b83812b60f6fd362dc3df5ea5f31"
        },
        "pre": {
            "0x000f3df6d732807ef1319fb7b8bb8522d0beac02": {
                "nonce": "0x01",
                "balance": "0x00",
                "code": "0x3373fffffffffffffffffffffffffffffffffffffffe14604d57602036146024575f5ffd5b5f35801560495762001fff810690815414603c575f5ffd5b62001fff01545f5260205ff35b5f5ffd5b62001fff42064281555f359062001fff015500",
                "storage": {}
            },
            "0xa94f5374fce5edbc8e2a8697c15331677e6ebf0b": {
                "nonce": "0x00",
                "balance": "0x0a7c72",
                "code": "0x",
                "storage": {}
            }
        },
        "postState": {
            "0x000f3df6d732807ef1319fb7b8bb8522d0beac02": {
                "nonce": "0x01",
                "balance": "0x00",
                "code": "0x3373fffffffffffffffffffffffffffffffffffffffe14604d57602036146024575f5ffd5b5f35801560495762001fff810690815414603c575f5ffd5b62001fff01545f5260205ff35b5f5ffd5b62001fff42064281555f359062001fff015500",
                "storage": {}
            },
            "0xa94f5374fce5edbc8e2a8697c15331677e6ebf0b": {
                "nonce": "0x00",
                "balance": "0x0a7c72",
                "code": "0x",
                "storage": {}
            }
        },
        "genesisRLP": "0xf90243f9023da00000000000000000000000000000000000000000000000000000000000000000a01dcc4de8dec75d7aab85b567b6ccd41ad312451b948a7413f0a142fd40d49347940000000000000000000000000000000000000000a0bc3c2ee7952e2d04c31de55221cc1ea2a6f339a648fc4527e2b19411394dd4c0a056e81f171bcc55a6ff8345e692c0f86e5b48e01b996cadc001622fb5e363b421a056e81f171bcc55a6ff8345e692c0f86e5b48e01b996cadc001622fb5e363b421b9010000000000000000000000000000000000000000000000000000000000000000000000000000000000000000000000000000000000000000000000000000000000000000000000000000000000000000000000000000000000000000000000000000000000000000000000000000000000000000000000000000000000000000000000000000000000000000000000000000000000000000000000000000000000000000000000000000000000000000000000000000000000000000000000000000000000000000000000000000000000000000000000000000000000000000000000000000000000000000000000000000000000000000000000000000000000808088016345785d8a0000808000a0000000000000000000000000000000000000000000000000000000000000000088000000000000000007a056e81f171bcc55a6ff8345e692c0f86e5b48e01b996cadc001622fb5e363b4218083140000a00000000000000000000000000000000000000000000000000000000000000000c0c0c0",
        "blocks": [
            {
                "rlp": "0xf90380f90242a0d40b69628f61ffb9b6bf30b87fc776ef6464b83812b60f6fd362dc3df5ea5f31a01dcc4de8dec75d7aab85b567b6ccd41ad312451b948a7413f0a142fd40d49347942adc25665018aa1fe0e6bc666dac8fc2697ff9baa0692a2ab8eaba6ca6d90eb6c42acfb7cf9115295f0b5b423c36791fbc53f64b4fa067bdad86c837a80f1b1d12b3703712839d4ebcdff05efb3b1293b924a9a724c6a0eaa8c40899a61ae59615cf9985f5e2194f8fd2b57d273be63bde6733e89b12abb9010000000000000000000000000000000000000000000000000000000000000000000000000000000000000000000000000000000000000000000000000000000000000000000000000000000000000000000000000000000000000000000000000000000000000000000000000000000000000000000000000000000000000000000000000000000000000000000000000000000000000000000000000000000000000000000000000000000000000000000000000000000000000000000000000000000000000000000000000000000000000000000000000000000000000000000000000000000000000000000000000000000000000000000000000000000000800188016345785d8a00008252080c80a0000000000000000000000000000000000000000000000000000000000000000088000000000000000007a056e81f171bcc55a6ff8345e692c0f86e5b48e01b996cadc001622fb5e363b42183060000830e0000a00000000000000000000000000000000000000000000000000000000000000000f90136b88803f885018080078252089400000000000000000000000000000000000010000180c001e1a0010000000000000000000000000000000000000000000000000000000000000180a00fbd9c16d8b52f5ff55c47132b0a4febebf11907777354360087e63a3aebde70a07f45acac1498d6c6869cc7e2c13eb696e337355c31c5d156b2772d798f12bf13b8aa03f8a7010180078252089400000000000000000000000000000000000010000180c001f842a00000000000000000000000000000000000000000000000000000000000000001a0000000000000000000000000000000000000000000000000000000000000000280a017be82d0fd710b36026780b0e6c979a36d7da414281b21408099d2889b05c854a05e2436189c8a5bb018fae41d13dbecdc022ea6fdef54eeaed3a227b803e68f8bc0c0",
                "expectException": "TransactionException.TYPE_3_TX_INVALID_BLOB_VERSIONED_HASH",
                "rlp_decoded": {
                    "blockHeader": {
                        "parentHash": "0xd40b69628f61ffb9b6bf30b87fc776ef6464b83812b60f6fd362dc3df5ea5f31",
                        "uncleHash": "0x1dcc4de8dec75d7aab85b567b6ccd41ad312451b948a7413f0a142fd40d49347",
                        "coinbase": "0x2adc25665018aa1fe0e6bc666dac8fc2697ff9ba",
                        "stateRoot": "0x692a2ab8eaba6ca6d90eb6c42acfb7cf9115295f0b5b423c36791fbc53f64b4f",
                        "transactionsTrie": "0x67bdad86c837a80f1b1d12b3703712839d4ebcdff05efb3b1293b924a9a724c6",
                        "receiptTrie": "0xeaa8c40899a61ae59615cf9985f5e2194f8fd2b57d273be63bde6733e89b12ab",
                        "bloom": "0x00000000000000000000000000000000000000000000000000000000000000000000000000000000000000000000000000000000000000000000000000000000000000000000000000000000000000000000000000000000000000000000000000000000000000000000000000000000000000000000000000000000000000000000000000000000000000000000000000000000000000000000000000000000000000000000000000000000000000000000000000000000000000000000000000000000000000000000000000000000000000000000000000000000000000000000000000000000000000000000000000000000000000000000000000000000",
                        "difficulty": "0x00",
                        "number": "0x01",
                        "gasLimit": "0x016345785d8a0000",
                        "gasUsed": "0x5208",
                        "timestamp": "0x0c",
                        "extraData": "0x",
                        "mixHash": "0x0000000000000000000000000000000000000000000000000000000000000000",
                        "nonce": "0x0000000000000000",
                        "baseFeePerGas": "0x07",
                        "withdrawalsRoot": "0x56e81f171bcc55a6ff8345e692c0f86e5b48e01b996cadc001622fb5e363b421",
                        "blobGasUsed": "0x060000",
                        "excessBlobGas": "0x0e0000",
                        "parentBeaconBlockRoot": "0x0000000000000000000000000000000000000000000000000000000000000000",
                        "hash": "0xda54ef5f2724f7d53a614d147cfbc404f51f0a4ae4e0d49ccfe00967d4f875d5"
                    },
                    "transactions": [
                        {
                            "type": "0x03",
                            "chainId": "0x01",
                            "nonce": "0x00",
                            "maxPriorityFeePerGas": "0x00",
                            "maxFeePerGas": "0x07",
                            "gasLimit": "0x5208",
                            "to": "0x0000000000000000000000000000000000001000",
                            "value": "0x01",
                            "data": "0x",
                            "accessList": [],
                            "maxFeePerBlobGas": "0x01",
                            "blobVersionedHashes": [
                                "0x0100000000000000000000000000000000000000000000000000000000000001"
                            ],
                            "v": "0x00",
                            "r": "0x0fbd9c16d8b52f5ff55c47132b0a4febebf11907777354360087e63a3aebde70",
                            "s": "0x7f45acac1498d6c6869cc7e2c13eb696e337355c31c5d156b2772d798f12bf13",
                            "sender": "0xa94f5374fce5edbc8e2a8697c15331677e6ebf0b"
                        },
                        {
                            "type": "0x03",
                            "chainId": "0x01",
                            "nonce": "0x01",
                            "maxPriorityFeePerGas": "0x00",
                            "maxFeePerGas": "0x07",
                            "gasLimit": "0x5208",
                            "to": "0x0000000000000000000000000000000000001000",
                            "value": "0x01",
                            "data": "0x",
                            "accessList": [],
                            "maxFeePerBlobGas": "0x01",
                            "blobVersionedHashes": [
                                "0x0000000000000000000000000000000000000000000000000000000000000001",
                                "0x0000000000000000000000000000000000000000000000000000000000000002"
                            ],
                            "v": "0x00",
                            "r": "0x17be82d0fd710b36026780b0e6c979a36d7da414281b21408099d2889b05c854",
                            "s": "0x5e2436189c8a5bb018fae41d13dbecdc022ea6fdef54eeaed3a227b803e68f8b",
                            "sender": "0xa94f5374fce5edbc8e2a8697c15331677e6ebf0b"
                        }
                    ],
                    "uncleHeaders": [],
                    "withdrawals": [],
                    "blocknumber": "1"
                }
            }
        ],
        "lastblockhash": "0xd40b69628f61ffb9b6bf30b87fc776ef6464b83812b60f6fd362dc3df5ea5f31",
        "sealEngine": "NoProof",
        "_info": {
            "hash": "0xe28fbc9e41b5729ddb6d58905a14e10d517fc8377e372d918054482a9859652f",
            "comment": "`execution-spec-tests` generated test",
            "filling-transition-tool": "evm version 1.14.4-unstable-44a50c9f-20240510",
            "reference-spec": "https://github.com/ethereum/EIPs/blob/master/EIPS/eip-4844.md",
            "reference-spec-version": "f0eb6a364aaf5ccb43516fa2c269a54fb881ecfd"
        }
    },
    "tests/cancun/eip4844_blobs/test_blob_txs.py::test_invalid_blob_hash_versioning_multiple_txs[fork_Cancun-blockchain_test--multiple_blobs_single_bad_hash_1]": {
        "network": "Cancun",
        "genesisBlockHeader": {
            "parentHash": "0x0000000000000000000000000000000000000000000000000000000000000000",
            "uncleHash": "0x1dcc4de8dec75d7aab85b567b6ccd41ad312451b948a7413f0a142fd40d49347",
            "coinbase": "0x0000000000000000000000000000000000000000",
            "stateRoot": "0xbc3c2ee7952e2d04c31de55221cc1ea2a6f339a648fc4527e2b19411394dd4c0",
            "transactionsTrie": "0x56e81f171bcc55a6ff8345e692c0f86e5b48e01b996cadc001622fb5e363b421",
            "receiptTrie": "0x56e81f171bcc55a6ff8345e692c0f86e5b48e01b996cadc001622fb5e363b421",
            "bloom": "0x00000000000000000000000000000000000000000000000000000000000000000000000000000000000000000000000000000000000000000000000000000000000000000000000000000000000000000000000000000000000000000000000000000000000000000000000000000000000000000000000000000000000000000000000000000000000000000000000000000000000000000000000000000000000000000000000000000000000000000000000000000000000000000000000000000000000000000000000000000000000000000000000000000000000000000000000000000000000000000000000000000000000000000000000000000000",
            "difficulty": "0x00",
            "number": "0x00",
            "gasLimit": "0x016345785d8a0000",
            "gasUsed": "0x00",
            "timestamp": "0x00",
            "extraData": "0x00",
            "mixHash": "0x0000000000000000000000000000000000000000000000000000000000000000",
            "nonce": "0x0000000000000000",
            "baseFeePerGas": "0x07",
            "withdrawalsRoot": "0x56e81f171bcc55a6ff8345e692c0f86e5b48e01b996cadc001622fb5e363b421",
            "blobGasUsed": "0x00",
            "excessBlobGas": "0x140000",
            "parentBeaconBlockRoot": "0x0000000000000000000000000000000000000000000000000000000000000000",
            "hash": "0xd40b69628f61ffb9b6bf30b87fc776ef6464b83812b60f6fd362dc3df5ea5f31"
        },
        "pre": {
            "0x000f3df6d732807ef1319fb7b8bb8522d0beac02": {
                "nonce": "0x01",
                "balance": "0x00",
                "code": "0x3373fffffffffffffffffffffffffffffffffffffffe14604d57602036146024575f5ffd5b5f35801560495762001fff810690815414603c575f5ffd5b62001fff01545f5260205ff35b5f5ffd5b62001fff42064281555f359062001fff015500",
                "storage": {}
            },
            "0xa94f5374fce5edbc8e2a8697c15331677e6ebf0b": {
                "nonce": "0x00",
                "balance": "0x0a7c72",
                "code": "0x",
                "storage": {}
            }
        },
        "postState": {
            "0x000f3df6d732807ef1319fb7b8bb8522d0beac02": {
                "nonce": "0x01",
                "balance": "0x00",
                "code": "0x3373fffffffffffffffffffffffffffffffffffffffe14604d57602036146024575f5ffd5b5f35801560495762001fff810690815414603c575f5ffd5b62001fff01545f5260205ff35b5f5ffd5b62001fff42064281555f359062001fff015500",
                "storage": {}
            },
            "0xa94f5374fce5edbc8e2a8697c15331677e6ebf0b": {
                "nonce": "0x00",
                "balance": "0x0a7c72",
                "code": "0x",
                "storage": {}
            }
        },
        "genesisRLP": "0xf90243f9023da00000000000000000000000000000000000000000000000000000000000000000a01dcc4de8dec75d7aab85b567b6ccd41ad312451b948a7413f0a142fd40d49347940000000000000000000000000000000000000000a0bc3c2ee7952e2d04c31de55221cc1ea2a6f339a648fc4527e2b19411394dd4c0a056e81f171bcc55a6ff8345e692c0f86e5b48e01b996cadc001622fb5e363b421a056e81f171bcc55a6ff8345e692c0f86e5b48e01b996cadc001622fb5e363b421b9010000000000000000000000000000000000000000000000000000000000000000000000000000000000000000000000000000000000000000000000000000000000000000000000000000000000000000000000000000000000000000000000000000000000000000000000000000000000000000000000000000000000000000000000000000000000000000000000000000000000000000000000000000000000000000000000000000000000000000000000000000000000000000000000000000000000000000000000000000000000000000000000000000000000000000000000000000000000000000000000000000000000000000000000000000000000808088016345785d8a0000808000a0000000000000000000000000000000000000000000000000000000000000000088000000000000000007a056e81f171bcc55a6ff8345e692c0f86e5b48e01b996cadc001622fb5e363b4218083140000a00000000000000000000000000000000000000000000000000000000000000000c0c0c0",
        "blocks": [
            {
                "rlp": "0xf90380f90242a0d40b69628f61ffb9b6bf30b87fc776ef6464b83812b60f6fd362dc3df5ea5f31a01dcc4de8dec75d7aab85b567b6ccd41ad312451b948a7413f0a142fd40d49347942adc25665018aa1fe0e6bc666dac8fc2697ff9baa0692a2ab8eaba6ca6d90eb6c42acfb7cf9115295f0b5b423c36791fbc53f64b4fa077e38569925d39225716f0fcc1bb3723730ef3a2c4c08d20e45e8395d6405856a0eaa8c40899a61ae59615cf9985f5e2194f8fd2b57d273be63bde6733e89b12abb9010000000000000000000000000000000000000000000000000000000000000000000000000000000000000000000000000000000000000000000000000000000000000000000000000000000000000000000000000000000000000000000000000000000000000000000000000000000000000000000000000000000000000000000000000000000000000000000000000000000000000000000000000000000000000000000000000000000000000000000000000000000000000000000000000000000000000000000000000000000000000000000000000000000000000000000000000000000000000000000000000000000000000000000000000000000000800188016345785d8a00008252080c80a0000000000000000000000000000000000000000000000000000000000000000088000000000000000007a056e81f171bcc55a6ff8345e692c0f86e5b48e01b996cadc001622fb5e363b42183060000830e0000a00000000000000000000000000000000000000000000000000000000000000000f90136b88803f885018080078252089400000000000000000000000000000000000010000180c001e1a0010000000000000000000000000000000000000000000000000000000000000180a00fbd9c16d8b52f5ff55c47132b0a4febebf11907777354360087e63a3aebde70a07f45acac1498d6c6869cc7e2c13eb696e337355c31c5d156b2772d798f12bf13b8aa03f8a7010180078252089400000000000000000000000000000000000010000180c001f842a00000000000000000000000000000000000000000000000000000000000000002a0010000000000000000000000000000000000000000000000000000000000000380a0dc4d3786591a13d48a0e865e4cdbf1f35ae275d8c0645ea6f60771059d64bc8ca014fb9a2a20d3be12c4fd9ffdda1b5d152095b0bed24accccd3da20bd0e0319ddc0c0",
                "expectException": "TransactionException.TYPE_3_TX_INVALID_BLOB_VERSIONED_HASH",
                "rlp_decoded": {
                    "blockHeader": {
                        "parentHash": "0xd40b69628f61ffb9b6bf30b87fc776ef6464b83812b60f6fd362dc3df5ea5f31",
                        "uncleHash": "0x1dcc4de8dec75d7aab85b567b6ccd41ad312451b948a7413f0a142fd40d49347",
                        "coinbase": "0x2adc25665018aa1fe0e6bc666dac8fc2697ff9ba",
                        "stateRoot": "0x692a2ab8eaba6ca6d90eb6c42acfb7cf9115295f0b5b423c36791fbc53f64b4f",
                        "transactionsTrie": "0x77e38569925d39225716f0fcc1bb3723730ef3a2c4c08d20e45e8395d6405856",
                        "receiptTrie": "0xeaa8c40899a61ae59615cf9985f5e2194f8fd2b57d273be63bde6733e89b12ab",
                        "bloom": "0x00000000000000000000000000000000000000000000000000000000000000000000000000000000000000000000000000000000000000000000000000000000000000000000000000000000000000000000000000000000000000000000000000000000000000000000000000000000000000000000000000000000000000000000000000000000000000000000000000000000000000000000000000000000000000000000000000000000000000000000000000000000000000000000000000000000000000000000000000000000000000000000000000000000000000000000000000000000000000000000000000000000000000000000000000000000",
                        "difficulty": "0x00",
                        "number": "0x01",
                        "gasLimit": "0x016345785d8a0000",
                        "gasUsed": "0x5208",
                        "timestamp": "0x0c",
                        "extraData": "0x",
                        "mixHash": "0x0000000000000000000000000000000000000000000000000000000000000000",
                        "nonce": "0x0000000000000000",
                        "baseFeePerGas": "0x07",
                        "withdrawalsRoot": "0x56e81f171bcc55a6ff8345e692c0f86e5b48e01b996cadc001622fb5e363b421",
                        "blobGasUsed": "0x060000",
                        "excessBlobGas": "0x0e0000",
                        "parentBeaconBlockRoot": "0x0000000000000000000000000000000000000000000000000000000000000000",
                        "hash": "0x59fa554fd301f39097e1e0ba381dd117d384b20caa844db586099ff11054afc0"
                    },
                    "transactions": [
                        {
                            "type": "0x03",
                            "chainId": "0x01",
                            "nonce": "0x00",
                            "maxPriorityFeePerGas": "0x00",
                            "maxFeePerGas": "0x07",
                            "gasLimit": "0x5208",
                            "to": "0x0000000000000000000000000000000000001000",
                            "value": "0x01",
                            "data": "0x",
                            "accessList": [],
                            "maxFeePerBlobGas": "0x01",
                            "blobVersionedHashes": [
                                "0x0100000000000000000000000000000000000000000000000000000000000001"
                            ],
                            "v": "0x00",
                            "r": "0x0fbd9c16d8b52f5ff55c47132b0a4febebf11907777354360087e63a3aebde70",
                            "s": "0x7f45acac1498d6c6869cc7e2c13eb696e337355c31c5d156b2772d798f12bf13",
                            "sender": "0xa94f5374fce5edbc8e2a8697c15331677e6ebf0b"
                        },
                        {
                            "type": "0x03",
                            "chainId": "0x01",
                            "nonce": "0x01",
                            "maxPriorityFeePerGas": "0x00",
                            "maxFeePerGas": "0x07",
                            "gasLimit": "0x5208",
                            "to": "0x0000000000000000000000000000000000001000",
                            "value": "0x01",
                            "data": "0x",
                            "accessList": [],
                            "maxFeePerBlobGas": "0x01",
                            "blobVersionedHashes": [
                                "0x0000000000000000000000000000000000000000000000000000000000000002",
                                "0x0100000000000000000000000000000000000000000000000000000000000003"
                            ],
                            "v": "0x00",
                            "r": "0xdc4d3786591a13d48a0e865e4cdbf1f35ae275d8c0645ea6f60771059d64bc8c",
                            "s": "0x14fb9a2a20d3be12c4fd9ffdda1b5d152095b0bed24accccd3da20bd0e0319dd",
                            "sender": "0xa94f5374fce5edbc8e2a8697c15331677e6ebf0b"
                        }
                    ],
                    "uncleHeaders": [],
                    "withdrawals": [],
                    "blocknumber": "1"
                }
            }
        ],
        "lastblockhash": "0xd40b69628f61ffb9b6bf30b87fc776ef6464b83812b60f6fd362dc3df5ea5f31",
        "sealEngine": "NoProof",
        "_info": {
            "hash": "0x3a7c069f44f87a4da83587c17b05b2f758bef57ffcbb3dbd92ffb75a17b9401c",
            "comment": "`execution-spec-tests` generated test",
            "filling-transition-tool": "evm version 1.14.4-unstable-44a50c9f-20240510",
            "reference-spec": "https://github.com/ethereum/EIPs/blob/master/EIPS/eip-4844.md",
            "reference-spec-version": "f0eb6a364aaf5ccb43516fa2c269a54fb881ecfd"
        }
    },
    "tests/cancun/eip4844_blobs/test_blob_txs.py::test_invalid_blob_hash_versioning_multiple_txs[fork_Cancun-blockchain_test--multiple_blobs_single_bad_hash_2]": {
        "network": "Cancun",
        "genesisBlockHeader": {
            "parentHash": "0x0000000000000000000000000000000000000000000000000000000000000000",
            "uncleHash": "0x1dcc4de8dec75d7aab85b567b6ccd41ad312451b948a7413f0a142fd40d49347",
            "coinbase": "0x0000000000000000000000000000000000000000",
            "stateRoot": "0x4921aa9e0c218328161dfc3fddac975ac7a689fef2a9d6ef2661e23de857e439",
            "transactionsTrie": "0x56e81f171bcc55a6ff8345e692c0f86e5b48e01b996cadc001622fb5e363b421",
            "receiptTrie": "0x56e81f171bcc55a6ff8345e692c0f86e5b48e01b996cadc001622fb5e363b421",
            "bloom": "0x00000000000000000000000000000000000000000000000000000000000000000000000000000000000000000000000000000000000000000000000000000000000000000000000000000000000000000000000000000000000000000000000000000000000000000000000000000000000000000000000000000000000000000000000000000000000000000000000000000000000000000000000000000000000000000000000000000000000000000000000000000000000000000000000000000000000000000000000000000000000000000000000000000000000000000000000000000000000000000000000000000000000000000000000000000000",
            "difficulty": "0x00",
            "number": "0x00",
            "gasLimit": "0x016345785d8a0000",
            "gasUsed": "0x00",
            "timestamp": "0x00",
            "extraData": "0x00",
            "mixHash": "0x0000000000000000000000000000000000000000000000000000000000000000",
            "nonce": "0x0000000000000000",
            "baseFeePerGas": "0x07",
            "withdrawalsRoot": "0x56e81f171bcc55a6ff8345e692c0f86e5b48e01b996cadc001622fb5e363b421",
            "blobGasUsed": "0x00",
            "excessBlobGas": "0x140000",
            "parentBeaconBlockRoot": "0x0000000000000000000000000000000000000000000000000000000000000000",
            "hash": "0x7947be75a3d6599ffe386405f119685e2625a10c27cbdd913a8f3a8ecc34d643"
        },
        "pre": {
            "0x000f3df6d732807ef1319fb7b8bb8522d0beac02": {
                "nonce": "0x01",
                "balance": "0x00",
                "code": "0x3373fffffffffffffffffffffffffffffffffffffffe14604d57602036146024575f5ffd5b5f35801560495762001fff810690815414603c575f5ffd5b62001fff01545f5260205ff35b5f5ffd5b62001fff42064281555f359062001fff015500",
                "storage": {}
            },
            "0xa94f5374fce5edbc8e2a8697c15331677e6ebf0b": {
                "nonce": "0x00",
                "balance": "0x0cbaab",
                "code": "0x",
                "storage": {}
            }
        },
        "postState": {
            "0x000f3df6d732807ef1319fb7b8bb8522d0beac02": {
                "nonce": "0x01",
                "balance": "0x00",
                "code": "0x3373fffffffffffffffffffffffffffffffffffffffe14604d57602036146024575f5ffd5b5f35801560495762001fff810690815414603c575f5ffd5b62001fff01545f5260205ff35b5f5ffd5b62001fff42064281555f359062001fff015500",
                "storage": {}
            },
            "0xa94f5374fce5edbc8e2a8697c15331677e6ebf0b": {
                "nonce": "0x00",
                "balance": "0x0cbaab",
                "code": "0x",
                "storage": {}
            }
        },
        "genesisRLP": "0xf90243f9023da00000000000000000000000000000000000000000000000000000000000000000a01dcc4de8dec75d7aab85b567b6ccd41ad312451b948a7413f0a142fd40d49347940000000000000000000000000000000000000000a04921aa9e0c218328161dfc3fddac975ac7a689fef2a9d6ef2661e23de857e439a056e81f171bcc55a6ff8345e692c0f86e5b48e01b996cadc001622fb5e363b421a056e81f171bcc55a6ff8345e692c0f86e5b48e01b996cadc001622fb5e363b421b9010000000000000000000000000000000000000000000000000000000000000000000000000000000000000000000000000000000000000000000000000000000000000000000000000000000000000000000000000000000000000000000000000000000000000000000000000000000000000000000000000000000000000000000000000000000000000000000000000000000000000000000000000000000000000000000000000000000000000000000000000000000000000000000000000000000000000000000000000000000000000000000000000000000000000000000000000000000000000000000000000000000000000000000000000000000000808088016345785d8a0000808000a0000000000000000000000000000000000000000000000000000000000000000088000000000000000007a056e81f171bcc55a6ff8345e692c0f86e5b48e01b996cadc001622fb5e363b4218083140000a00000000000000000000000000000000000000000000000000000000000000000c0c0c0",
        "blocks": [
            {
                "rlp": "0xf903e8f90242a07947be75a3d6599ffe386405f119685e2625a10c27cbdd913a8f3a8ecc34d643a01dcc4de8dec75d7aab85b567b6ccd41ad312451b948a7413f0a142fd40d49347942adc25665018aa1fe0e6bc666dac8fc2697ff9baa09f590a565a65a1101afd09da2ee7b780371aaa1c6d9b53f6c7246c8a85ecd6eea0d637aa943c4477076b87bbfadf4c23c4545a661614bc1e24fcacdee8c00d7be1a010457e39b8c68ced2071538b4c7034fe68f9c666187fd6b2d6ddcc21149f0d10b9010000000000000000000000000000000000000000000000000000000000000000000000000000000000000000000000000000000000000000000000000000000000000000000000000000000000000000000000000000000000000000000000000000000000000000000000000000000000000000000000000000000000000000000000000000000000000000000000000000000000000000000000000000000000000000000000000000000000000000000000000000000000000000000000000000000000000000000000000000000000000000000000000000000000000000000000000000000000000000000000000000000000000000000000000000000000800188016345785d8a000082a4100c80a0000000000000000000000000000000000000000000000000000000000000000088000000000000000007a056e81f171bcc55a6ff8345e692c0f86e5b48e01b996cadc001622fb5e363b42183060000830e0000a00000000000000000000000000000000000000000000000000000000000000000f9019eb88803f885018080078252089400000000000000000000000000000000000010000180c001e1a0010000000000000000000000000000000000000000000000000000000000000180a00fbd9c16d8b52f5ff55c47132b0a4febebf11907777354360087e63a3aebde70a07f45acac1498d6c6869cc7e2c13eb696e337355c31c5d156b2772d798f12bf13b88803f885010180078252089400000000000000000000000000000000000010000180c001e1a0010000000000000000000000000000000000000000000000000000000000000201a02f7eb03cd3cf7e7c026c7303e450f142210772e19c7f38413fa294231ef37a0ea0044588279d7f98644cee215934169fbf7e103b873b89a2bd4cd571404974e03eb88803f885010280078252089400000000000000000000000000000000000010000180c001e1a0000000000000000000000000000000000000000000000000000000000000000301a0f518087748ce44a48be0671f45af71d623f3a466d5f2ff3e0c63d4f1b0af5223a03e242ecae0b0103f4eab3c8de9e40be50cb4b5ee5f110c1498e7feeda24b5d9cc0c0",
                "expectException": "TransactionException.TYPE_3_TX_INVALID_BLOB_VERSIONED_HASH",
                "rlp_decoded": {
                    "blockHeader": {
                        "parentHash": "0x7947be75a3d6599ffe386405f119685e2625a10c27cbdd913a8f3a8ecc34d643",
                        "uncleHash": "0x1dcc4de8dec75d7aab85b567b6ccd41ad312451b948a7413f0a142fd40d49347",
                        "coinbase": "0x2adc25665018aa1fe0e6bc666dac8fc2697ff9ba",
                        "stateRoot": "0x9f590a565a65a1101afd09da2ee7b780371aaa1c6d9b53f6c7246c8a85ecd6ee",
                        "transactionsTrie": "0xd637aa943c4477076b87bbfadf4c23c4545a661614bc1e24fcacdee8c00d7be1",
                        "receiptTrie": "0x10457e39b8c68ced2071538b4c7034fe68f9c666187fd6b2d6ddcc21149f0d10",
                        "bloom": "0x00000000000000000000000000000000000000000000000000000000000000000000000000000000000000000000000000000000000000000000000000000000000000000000000000000000000000000000000000000000000000000000000000000000000000000000000000000000000000000000000000000000000000000000000000000000000000000000000000000000000000000000000000000000000000000000000000000000000000000000000000000000000000000000000000000000000000000000000000000000000000000000000000000000000000000000000000000000000000000000000000000000000000000000000000000000",
                        "difficulty": "0x00",
                        "number": "0x01",
                        "gasLimit": "0x016345785d8a0000",
                        "gasUsed": "0xa410",
                        "timestamp": "0x0c",
                        "extraData": "0x",
                        "mixHash": "0x0000000000000000000000000000000000000000000000000000000000000000",
                        "nonce": "0x0000000000000000",
                        "baseFeePerGas": "0x07",
                        "withdrawalsRoot": "0x56e81f171bcc55a6ff8345e692c0f86e5b48e01b996cadc001622fb5e363b421",
                        "blobGasUsed": "0x060000",
                        "excessBlobGas": "0x0e0000",
                        "parentBeaconBlockRoot": "0x0000000000000000000000000000000000000000000000000000000000000000",
                        "hash": "0x5cda9641418361de7f54e667b4c2a21c79149b1b4218e3cfae8581e042d25206"
                    },
                    "transactions": [
                        {
                            "type": "0x03",
                            "chainId": "0x01",
                            "nonce": "0x00",
                            "maxPriorityFeePerGas": "0x00",
                            "maxFeePerGas": "0x07",
                            "gasLimit": "0x5208",
                            "to": "0x0000000000000000000000000000000000001000",
                            "value": "0x01",
                            "data": "0x",
                            "accessList": [],
                            "maxFeePerBlobGas": "0x01",
                            "blobVersionedHashes": [
                                "0x0100000000000000000000000000000000000000000000000000000000000001"
                            ],
                            "v": "0x00",
                            "r": "0x0fbd9c16d8b52f5ff55c47132b0a4febebf11907777354360087e63a3aebde70",
                            "s": "0x7f45acac1498d6c6869cc7e2c13eb696e337355c31c5d156b2772d798f12bf13",
                            "sender": "0xa94f5374fce5edbc8e2a8697c15331677e6ebf0b"
                        },
                        {
                            "type": "0x03",
                            "chainId": "0x01",
                            "nonce": "0x01",
                            "maxPriorityFeePerGas": "0x00",
                            "maxFeePerGas": "0x07",
                            "gasLimit": "0x5208",
                            "to": "0x0000000000000000000000000000000000001000",
                            "value": "0x01",
                            "data": "0x",
                            "accessList": [],
                            "maxFeePerBlobGas": "0x01",
                            "blobVersionedHashes": [
                                "0x0100000000000000000000000000000000000000000000000000000000000002"
                            ],
                            "v": "0x01",
                            "r": "0x2f7eb03cd3cf7e7c026c7303e450f142210772e19c7f38413fa294231ef37a0e",
                            "s": "0x044588279d7f98644cee215934169fbf7e103b873b89a2bd4cd571404974e03e",
                            "sender": "0xa94f5374fce5edbc8e2a8697c15331677e6ebf0b"
                        },
                        {
                            "type": "0x03",
                            "chainId": "0x01",
                            "nonce": "0x02",
                            "maxPriorityFeePerGas": "0x00",
                            "maxFeePerGas": "0x07",
                            "gasLimit": "0x5208",
                            "to": "0x0000000000000000000000000000000000001000",
                            "value": "0x01",
                            "data": "0x",
                            "accessList": [],
                            "maxFeePerBlobGas": "0x01",
                            "blobVersionedHashes": [
                                "0x0000000000000000000000000000000000000000000000000000000000000003"
                            ],
                            "v": "0x01",
                            "r": "0xf518087748ce44a48be0671f45af71d623f3a466d5f2ff3e0c63d4f1b0af5223",
                            "s": "0x3e242ecae0b0103f4eab3c8de9e40be50cb4b5ee5f110c1498e7feeda24b5d9c",
                            "sender": "0xa94f5374fce5edbc8e2a8697c15331677e6ebf0b"
                        }
                    ],
                    "uncleHeaders": [],
                    "withdrawals": [],
                    "blocknumber": "1"
                }
            }
        ],
        "lastblockhash": "0x7947be75a3d6599ffe386405f119685e2625a10c27cbdd913a8f3a8ecc34d643",
        "sealEngine": "NoProof",
        "_info": {
            "hash": "0x888a2e278a5a5536638a498d55c5b23527b8a2b4d1d41a36256c3a5d5a110f3a",
            "comment": "`execution-spec-tests` generated test",
            "filling-transition-tool": "evm version 1.14.4-unstable-44a50c9f-20240510",
            "reference-spec": "https://github.com/ethereum/EIPs/blob/master/EIPS/eip-4844.md",
            "reference-spec-version": "f0eb6a364aaf5ccb43516fa2c269a54fb881ecfd"
        }
    }
}