{
    "tests/constantinople/create2/test_recreate.py::test_recreate[fork_Paris-blockchain_test_hive-recreate_on_separate_block_True]": {
        "network": "Paris",
        "genesisBlockHeader": {
            "parentHash": "0x0000000000000000000000000000000000000000000000000000000000000000",
            "uncleHash": "0x1dcc4de8dec75d7aab85b567b6ccd41ad312451b948a7413f0a142fd40d49347",
            "coinbase": "0x0000000000000000000000000000000000000000",
            "stateRoot": "0xd3aaaad71952fa00dead76ff3a8b6a17e5138eacb1883d22f7443685e874e993",
            "transactionsTrie": "0x56e81f171bcc55a6ff8345e692c0f86e5b48e01b996cadc001622fb5e363b421",
            "receiptTrie": "0x56e81f171bcc55a6ff8345e692c0f86e5b48e01b996cadc001622fb5e363b421",
            "bloom": "0x00000000000000000000000000000000000000000000000000000000000000000000000000000000000000000000000000000000000000000000000000000000000000000000000000000000000000000000000000000000000000000000000000000000000000000000000000000000000000000000000000000000000000000000000000000000000000000000000000000000000000000000000000000000000000000000000000000000000000000000000000000000000000000000000000000000000000000000000000000000000000000000000000000000000000000000000000000000000000000000000000000000000000000000000000000000",
            "difficulty": "0x00",
            "number": "0x00",
            "gasLimit": "0x016345785d8a0000",
            "gasUsed": "0x00",
            "timestamp": "0x00",
            "extraData": "0x00",
            "mixHash": "0x0000000000000000000000000000000000000000000000000000000000000000",
            "nonce": "0x0000000000000000",
            "baseFeePerGas": "0x07",
            "hash": "0x5f793e9fe0e4e8fb343890505d24fdb5952a3eedccb2a7c55573b5ecaf023a4e"
        },
        "pre": {
            "0xa94f5374fce5edbc8e2a8697c15331677e6ebf0b": {
                "nonce": "0x00",
                "balance": "0x3635c9adc5dea00000",
                "code": "0x",
                "storage": {}
            },
            "0x0000000000000000000000000000000000000100": {
                "nonce": "0x01",
                "balance": "0x00",
                "code": "0x36600060003760003660006000f5",
                "storage": {}
            }
        },
        "postState": {
            "0x0000000000000000000000000000000000000000": {
                "nonce": "0x00",
                "balance": "0x01",
                "code": "0x",
                "storage": {}
            },
            "0x0000000000000000000000000000000000000100": {
                "nonce": "0x03",
                "balance": "0x00",
                "code": "0x36600060003760003660006000f5",
                "storage": {}
            },
            "0x094d7693e2df8734f73fb63a23cb1e76d4aa66f9": {
                "nonce": "0x01",
                "balance": "0x01",
                "code": "0x34600014600c5734600055005b6000ff",
                "storage": {}
            },
            "0x2adc25665018aa1fe0e6bc666dac8fc2697ff9ba": {
                "nonce": "0x00",
                "balance": "0x0a92e1",
                "code": "0x",
                "storage": {}
            },
            "0xa94f5374fce5edbc8e2a8697c15331677e6ebf0b": {
                "nonce": "0x05",
                "balance": "0x3635c9adc5de7cc110",
                "code": "0x",
                "storage": {}
            }
        },
        "engineNewPayloads": [
            {
                "executionPayload": {
                    "parentHash": "0x5f793e9fe0e4e8fb343890505d24fdb5952a3eedccb2a7c55573b5ecaf023a4e",
                    "feeRecipient": "0x2adc25665018aa1fe0e6bc666dac8fc2697ff9ba",
                    "stateRoot": "0x605dfbbaaf234176cb3bc23dd7866212d2b21ace23b44c50277e954f03f678de",
                    "receiptsRoot": "0xff54271061ca2dfedc89a7da56880675d25f63ed847ccf4ef24ddf2d7b83ce2e",
                    "logsBloom": "0x00000000000000000000000000000000000000000000000000000000000000000000000000000000000000000000000000000000000000000000000000000000000000000000000000000000000000000000000000000000000000000000000000000000000000000000000000000000000000000000000000000000000000000000000000000000000000000000000000000000000000000000000000000000000000000000000000000000000000000000000000000000000000000000000000000000000000000000000000000000000000000000000000000000000000000000000000000000000000000000000000000000000000000000000000000000",
                    "blockNumber": "0x1",
                    "gasLimit": "0x16345785d8a0000",
                    "gasUsed": "0x185a0",
                    "timestamp": "0xc",
                    "extraData": "0x",
                    "prevRandao": "0x0000000000000000000000000000000000000000000000000000000000000000",
                    "baseFeePerGas": "0x7",
                    "blockHash": "0xaeb9981509ceaf07d97dbfacbd3857c8e2e53ea62cfe1cbafa17e44274e2e4a4",
                    "transactions": [
                        "0xf87c800a8405f5e100940000000000000000000000000000000000000100809b610010600081600b8239f334600014600c5734600055005b6000ff25a03a8aa83f6fca79b756c71c095ae5ae76f5795768198f2c91a28d352efadee739a03f17f22aa5c6a195f0c338f27c56e6cfd947b7a02073e5e022c07187996d6b63",
                        "0xf861010a8405f5e10094094d7693e2df8734f73fb63a23cb1e76d4aa66f9018025a0a21ecd5931edd112637c018af9fd4a6176d2cacd97824ec68d01d6f794471d51a05a4a56928811ea462547055307699c911bec20e6025f99ea1fe4ad5b7ef74b16"
                    ]
                },
                "version": "1"
            },
            {
                "executionPayload": {
                    "parentHash": "0xaeb9981509ceaf07d97dbfacbd3857c8e2e53ea62cfe1cbafa17e44274e2e4a4",
                    "feeRecipient": "0x2adc25665018aa1fe0e6bc666dac8fc2697ff9ba",
                    "stateRoot": "0x6618444367402e70ffe9f16b532bbaf97124505833f1a0d2868ab8c2c84192af",
                    "receiptsRoot": "0x8ada53349c2f06feac9ba1bbf6e85148742f3987eab93629728c42127e3a7240",
                    "logsBloom": "0x00000000000000000000000000000000000000000000000000000000000000000000000000000000000000000000000000000000000000000000000000000000000000000000000000000000000000000000000000000000000000000000000000000000000000000000000000000000000000000000000000000000000000000000000000000000000000000000000000000000000000000000000000000000000000000000000000000000000000000000000000000000000000000000000000000000000000000000000000000000000000000000000000000000000000000000000000000000000000000000000000000000000000000000000000000000",
                    "blockNumber": "0x2",
                    "gasLimit": "0x16345785d8a0000",
                    "gasUsed": "0x12381",
                    "timestamp": "0x18",
                    "extraData": "0x",
                    "prevRandao": "0x0000000000000000000000000000000000000000000000000000000000000000",
                    "baseFeePerGas": "0x7",
                    "blockHash": "0x21df7e90350ec4e20c55acaabf7466e869f50ec41d11f9b7c26f7fa3865f4c2e",
                    "transactions": [
                        "0xf861020a8405f5e10094094d7693e2df8734f73fb63a23cb1e76d4aa66f9808026a0b5bf38423c05cde0c5678bd63cec7da71628674ccd976ac2c63c69d1b8c53a76a010e6d65c329ae2389ebbeeae0dd5ba5da5e50be210bad51064ed4473ad211073",
                        "0xf861030a8405f5e10094094d7693e2df8734f73fb63a23cb1e76d4aa66f9018025a0124ad9b3fbd2ca37982fbd57a2af9dcc50c6dd30a5a7df7abb15c006f5ec3599a00b59833f91d9f0e315b23932d30093fc5ec01fef0f3a9447204bb21001c1cf0f"
                    ]
                },
                "version": "1"
            },
            {
                "executionPayload": {
                    "parentHash": "0x21df7e90350ec4e20c55acaabf7466e869f50ec41d11f9b7c26f7fa3865f4c2e",
                    "feeRecipient": "0x2adc25665018aa1fe0e6bc666dac8fc2697ff9ba",
                    "stateRoot": "0x65bdd96f3f4c1c98881941332f7d37131f60a80ecb7abd9878541a0b91cc8fb6",
                    "receiptsRoot": "0xa25697b6c6412e06e702b34fcf67b47212e93bfcec18a5970eca0ea593b0f020",
                    "logsBloom": "0x00000000000000000000000000000000000000000000000000000000000000000000000000000000000000000000000000000000000000000000000000000000000000000000000000000000000000000000000000000000000000000000000000000000000000000000000000000000000000000000000000000000000000000000000000000000000000000000000000000000000000000000000000000000000000000000000000000000000000000000000000000000000000000000000000000000000000000000000000000000000000000000000000000000000000000000000000000000000000000000000000000000000000000000000000000000",
                    "blockNumber": "0x3",
                    "gasLimit": "0x16345785d8a0000",
                    "gasUsed": "0xdd2a",
                    "timestamp": "0x24",
                    "extraData": "0x",
                    "prevRandao": "0x0000000000000000000000000000000000000000000000000000000000000000",
                    "baseFeePerGas": "0x7",
                    "blockHash": "0xed492e4b31cbfa2f25a018af7fed04e628c72799deed44bdad94fd170c069439",
                    "transactions": [
                        "0xf87c040a8405f5e100940000000000000000000000000000000000000100809b610010600081600b8239f334600014600c5734600055005b6000ff25a032db91cd8c4153086b25052f727aa357271c91eee555367e64a1e0bb5b622dcfa0534f2170a7c70f8ab39c01f549c2abce158e1be6e9ca1052b5c4ac3f35e0972b"
                    ]
                },
                "version": "1"
            }
        ],
        "engineFcuVersion": "1",
        "_info": {
            "hash": "0x639cd925f58a7c63d6bb279a76bba4eb257212d6609bdce6995356bcaa4c0823",
            "comment": "`execution-spec-tests` generated test",
            "filling-transition-tool": "evm version 1.14.1-unstable-d6e91e2e-20240507"
        }
    },
    "tests/constantinople/create2/test_recreate.py::test_recreate[fork_Paris-blockchain_test_hive-recreate_on_separate_block_False]": {
        "network": "Paris",
        "genesisBlockHeader": {
            "parentHash": "0x0000000000000000000000000000000000000000000000000000000000000000",
            "uncleHash": "0x1dcc4de8dec75d7aab85b567b6ccd41ad312451b948a7413f0a142fd40d49347",
            "coinbase": "0x0000000000000000000000000000000000000000",
            "stateRoot": "0xd3aaaad71952fa00dead76ff3a8b6a17e5138eacb1883d22f7443685e874e993",
            "transactionsTrie": "0x56e81f171bcc55a6ff8345e692c0f86e5b48e01b996cadc001622fb5e363b421",
            "receiptTrie": "0x56e81f171bcc55a6ff8345e692c0f86e5b48e01b996cadc001622fb5e363b421",
            "bloom": "0x00000000000000000000000000000000000000000000000000000000000000000000000000000000000000000000000000000000000000000000000000000000000000000000000000000000000000000000000000000000000000000000000000000000000000000000000000000000000000000000000000000000000000000000000000000000000000000000000000000000000000000000000000000000000000000000000000000000000000000000000000000000000000000000000000000000000000000000000000000000000000000000000000000000000000000000000000000000000000000000000000000000000000000000000000000000",
            "difficulty": "0x00",
            "number": "0x00",
            "gasLimit": "0x016345785d8a0000",
            "gasUsed": "0x00",
            "timestamp": "0x00",
            "extraData": "0x00",
            "mixHash": "0x0000000000000000000000000000000000000000000000000000000000000000",
            "nonce": "0x0000000000000000",
            "baseFeePerGas": "0x07",
            "hash": "0x5f793e9fe0e4e8fb343890505d24fdb5952a3eedccb2a7c55573b5ecaf023a4e"
        },
        "pre": {
            "0xa94f5374fce5edbc8e2a8697c15331677e6ebf0b": {
                "nonce": "0x00",
                "balance": "0x3635c9adc5dea00000",
                "code": "0x",
                "storage": {}
            },
            "0x0000000000000000000000000000000000000100": {
                "nonce": "0x01",
                "balance": "0x00",
                "code": "0x36600060003760003660006000f5",
                "storage": {}
            }
        },
        "postState": {
            "0x0000000000000000000000000000000000000000": {
                "nonce": "0x00",
                "balance": "0x01",
                "code": "0x",
                "storage": {}
            },
            "0x0000000000000000000000000000000000000100": {
                "nonce": "0x03",
                "balance": "0x00",
                "code": "0x36600060003760003660006000f5",
                "storage": {}
            },
            "0x094d7693e2df8734f73fb63a23cb1e76d4aa66f9": {
                "nonce": "0x01",
                "balance": "0x01",
                "code": "0x34600014600c5734600055005b6000ff",
                "storage": {}
            },
            "0x2adc25665018aa1fe0e6bc666dac8fc2697ff9ba": {
                "nonce": "0x00",
                "balance": "0x0a92e1",
                "code": "0x",
                "storage": {}
            },
            "0xa94f5374fce5edbc8e2a8697c15331677e6ebf0b": {
                "nonce": "0x05",
                "balance": "0x3635c9adc5de7cc110",
                "code": "0x",
                "storage": {}
            }
        },
        "engineNewPayloads": [
            {
                "executionPayload": {
                    "parentHash": "0x5f793e9fe0e4e8fb343890505d24fdb5952a3eedccb2a7c55573b5ecaf023a4e",
                    "feeRecipient": "0x2adc25665018aa1fe0e6bc666dac8fc2697ff9ba",
                    "stateRoot": "0x605dfbbaaf234176cb3bc23dd7866212d2b21ace23b44c50277e954f03f678de",
                    "receiptsRoot": "0xff54271061ca2dfedc89a7da56880675d25f63ed847ccf4ef24ddf2d7b83ce2e",
                    "logsBloom": "0x00000000000000000000000000000000000000000000000000000000000000000000000000000000000000000000000000000000000000000000000000000000000000000000000000000000000000000000000000000000000000000000000000000000000000000000000000000000000000000000000000000000000000000000000000000000000000000000000000000000000000000000000000000000000000000000000000000000000000000000000000000000000000000000000000000000000000000000000000000000000000000000000000000000000000000000000000000000000000000000000000000000000000000000000000000000",
                    "blockNumber": "0x1",
                    "gasLimit": "0x16345785d8a0000",
                    "gasUsed": "0x185a0",
                    "timestamp": "0xc",
                    "extraData": "0x",
                    "prevRandao": "0x0000000000000000000000000000000000000000000000000000000000000000",
                    "baseFeePerGas": "0x7",
                    "blockHash": "0xaeb9981509ceaf07d97dbfacbd3857c8e2e53ea62cfe1cbafa17e44274e2e4a4",
                    "transactions": [
                        "0xf87c800a8405f5e100940000000000000000000000000000000000000100809b610010600081600b8239f334600014600c5734600055005b6000ff25a03a8aa83f6fca79b756c71c095ae5ae76f5795768198f2c91a28d352efadee739a03f17f22aa5c6a195f0c338f27c56e6cfd947b7a02073e5e022c07187996d6b63",
                        "0xf861010a8405f5e10094094d7693e2df8734f73fb63a23cb1e76d4aa66f9018025a0a21ecd5931edd112637c018af9fd4a6176d2cacd97824ec68d01d6f794471d51a05a4a56928811ea462547055307699c911bec20e6025f99ea1fe4ad5b7ef74b16"
                    ]
                },
                "version": "1"
            },
            {
                "executionPayload": {
                    "parentHash": "0xaeb9981509ceaf07d97dbfacbd3857c8e2e53ea62cfe1cbafa17e44274e2e4a4",
                    "feeRecipient": "0x2adc25665018aa1fe0e6bc666dac8fc2697ff9ba",
                    "stateRoot": "0x65bdd96f3f4c1c98881941332f7d37131f60a80ecb7abd9878541a0b91cc8fb6",
                    "receiptsRoot": "0xb9f37c456281f08dd49ae5141bdf5ec52a05ac1647473f4790988dfc03451788",
                    "logsBloom": "0x00000000000000000000000000000000000000000000000000000000000000000000000000000000000000000000000000000000000000000000000000000000000000000000000000000000000000000000000000000000000000000000000000000000000000000000000000000000000000000000000000000000000000000000000000000000000000000000000000000000000000000000000000000000000000000000000000000000000000000000000000000000000000000000000000000000000000000000000000000000000000000000000000000000000000000000000000000000000000000000000000000000000000000000000000000000",
                    "blockNumber": "0x2",
                    "gasLimit": "0x16345785d8a0000",
                    "gasUsed": "0x200ab",
                    "timestamp": "0x18",
                    "extraData": "0x",
                    "prevRandao": "0x0000000000000000000000000000000000000000000000000000000000000000",
                    "baseFeePerGas": "0x7",
                    "blockHash": "0xcd1e34413b5a2110d1e36db124b02af64d45b2cb24af3795d513987be1adf4f8",
                    "transactions": [
                        "0xf861020a8405f5e10094094d7693e2df8734f73fb63a23cb1e76d4aa66f9808026a0b5bf38423c05cde0c5678bd63cec7da71628674ccd976ac2c63c69d1b8c53a76a010e6d65c329ae2389ebbeeae0dd5ba5da5e50be210bad51064ed4473ad211073",
                        "0xf861030a8405f5e10094094d7693e2df8734f73fb63a23cb1e76d4aa66f9018025a0124ad9b3fbd2ca37982fbd57a2af9dcc50c6dd30a5a7df7abb15c006f5ec3599a00b59833f91d9f0e315b23932d30093fc5ec01fef0f3a9447204bb21001c1cf0f",
                        "0xf87c040a8405f5e100940000000000000000000000000000000000000100809b610010600081600b8239f334600014600c5734600055005b6000ff25a032db91cd8c4153086b25052f727aa357271c91eee555367e64a1e0bb5b622dcfa0534f2170a7c70f8ab39c01f549c2abce158e1be6e9ca1052b5c4ac3f35e0972b"
                    ]
                },
                "version": "1"
            }
        ],
        "engineFcuVersion": "1",
        "_info": {
            "hash": "0xeef48abd1fab0921b3260416993b3bc686a46cb52e4181ba4d514461042d9972",
            "comment": "`execution-spec-tests` generated test",
            "filling-transition-tool": "evm version 1.14.1-unstable-d6e91e2e-20240507"
        }
    },
    "tests/constantinople/create2/test_recreate.py::test_recreate[fork_Shanghai-blockchain_test_hive-recreate_on_separate_block_True]": {
        "network": "Shanghai",
        "genesisBlockHeader": {
            "parentHash": "0x0000000000000000000000000000000000000000000000000000000000000000",
            "uncleHash": "0x1dcc4de8dec75d7aab85b567b6ccd41ad312451b948a7413f0a142fd40d49347",
            "coinbase": "0x0000000000000000000000000000000000000000",
            "stateRoot": "0xd3aaaad71952fa00dead76ff3a8b6a17e5138eacb1883d22f7443685e874e993",
            "transactionsTrie": "0x56e81f171bcc55a6ff8345e692c0f86e5b48e01b996cadc001622fb5e363b421",
            "receiptTrie": "0x56e81f171bcc55a6ff8345e692c0f86e5b48e01b996cadc001622fb5e363b421",
            "bloom": "0x00000000000000000000000000000000000000000000000000000000000000000000000000000000000000000000000000000000000000000000000000000000000000000000000000000000000000000000000000000000000000000000000000000000000000000000000000000000000000000000000000000000000000000000000000000000000000000000000000000000000000000000000000000000000000000000000000000000000000000000000000000000000000000000000000000000000000000000000000000000000000000000000000000000000000000000000000000000000000000000000000000000000000000000000000000000",
            "difficulty": "0x00",
            "number": "0x00",
            "gasLimit": "0x016345785d8a0000",
            "gasUsed": "0x00",
            "timestamp": "0x00",
            "extraData": "0x00",
            "mixHash": "0x0000000000000000000000000000000000000000000000000000000000000000",
            "nonce": "0x0000000000000000",
            "baseFeePerGas": "0x07",
            "withdrawalsRoot": "0x56e81f171bcc55a6ff8345e692c0f86e5b48e01b996cadc001622fb5e363b421",
            "hash": "0xa7b04dcb57229dd07dccef6c8d2564addbf55be0f5f4d739bf00196ed68b71fa"
        },
        "pre": {
            "0xa94f5374fce5edbc8e2a8697c15331677e6ebf0b": {
                "nonce": "0x00",
                "balance": "0x3635c9adc5dea00000",
                "code": "0x",
                "storage": {}
            },
            "0x0000000000000000000000000000000000000100": {
                "nonce": "0x01",
                "balance": "0x00",
                "code": "0x36600060003760003660006000f5",
                "storage": {}
            }
        },
        "postState": {
            "0x0000000000000000000000000000000000000000": {
                "nonce": "0x00",
                "balance": "0x01",
                "code": "0x",
                "storage": {}
            },
            "0x0000000000000000000000000000000000000100": {
                "nonce": "0x03",
                "balance": "0x00",
                "code": "0x36600060003760003660006000f5",
                "storage": {}
            },
            "0x14545bc7eaea3a5337b3452975dce21e4fdc25e3": {
                "nonce": "0x01",
                "balance": "0x01",
                "code": "0x345f14600a57345f55005b5fff",
                "storage": {}
            },
            "0x2adc25665018aa1fe0e6bc666dac8fc2697ff9ba": {
                "nonce": "0x00",
                "balance": "0x0a8489",
                "code": "0x",
                "storage": {}
            },
            "0xa94f5374fce5edbc8e2a8697c15331677e6ebf0b": {
                "nonce": "0x05",
                "balance": "0x3635c9adc5de7cf0e0",
                "code": "0x",
                "storage": {}
            }
        },
        "engineNewPayloads": [
            {
                "executionPayload": {
                    "parentHash": "0xa7b04dcb57229dd07dccef6c8d2564addbf55be0f5f4d739bf00196ed68b71fa",
                    "feeRecipient": "0x2adc25665018aa1fe0e6bc666dac8fc2697ff9ba",
                    "stateRoot": "0xee2eac8906869aeeaa5a246b81c0e830d686343f02a8c263a34a53b93a795ba9",
                    "receiptsRoot": "0x4be80ebc17b2c605611cb4f6e488b6e83190ad796f75004c6080b9965917eef7",
                    "logsBloom": "0x00000000000000000000000000000000000000000000000000000000000000000000000000000000000000000000000000000000000000000000000000000000000000000000000000000000000000000000000000000000000000000000000000000000000000000000000000000000000000000000000000000000000000000000000000000000000000000000000000000000000000000000000000000000000000000000000000000000000000000000000000000000000000000000000000000000000000000000000000000000000000000000000000000000000000000000000000000000000000000000000000000000000000000000000000000000",
                    "blockNumber": "0x1",
                    "gasLimit": "0x16345785d8a0000",
                    "gasUsed": "0x1833c",
                    "timestamp": "0xc",
                    "extraData": "0x",
                    "prevRandao": "0x0000000000000000000000000000000000000000000000000000000000000000",
                    "baseFeePerGas": "0x7",
                    "blockHash": "0xa5b0242dec47f71b58c9339fd538ca4864bc121ff41a4cf40788d96b022f67f4",
                    "transactions": [
                        "0xf879800a8405f5e100940000000000000000000000000000000000000100809861000d600081600b8239f3345f14600a57345f55005b5fff25a09822abbd3dd15e01ed73d974df13ab544095f8f05a66a44729d4242cdf8c864ea018bc47cc41aafcb0c251f3343691cbb2a3c4135e0cc51529468cdeb31084af0e",
                        "0xf861010a8405f5e1009414545bc7eaea3a5337b3452975dce21e4fdc25e3018026a061f64ea00c4a9736f0cb0f999e77460b24590897187052638f1c4cea03d066faa0726874b4f9b4abdabcf912471b217f14427bad74058006c3d3515a7bb36ecfaf"
                    ],
                    "withdrawals": []
                },
                "version": "2"
            },
            {
                "executionPayload": {
                    "parentHash": "0xa5b0242dec47f71b58c9339fd538ca4864bc121ff41a4cf40788d96b022f67f4",
                    "feeRecipient": "0x2adc25665018aa1fe0e6bc666dac8fc2697ff9ba",
                    "stateRoot": "0x5cd03e8078d1cd2e55ae4e139cb70834e0fc190bea2d7e3077159605777785c8",
                    "receiptsRoot": "0xf1b9f601d9c86472b4af98d2e9a5a5e7b4261eb3f20d18006fcede6e4bbfac76",
                    "logsBloom": "0x00000000000000000000000000000000000000000000000000000000000000000000000000000000000000000000000000000000000000000000000000000000000000000000000000000000000000000000000000000000000000000000000000000000000000000000000000000000000000000000000000000000000000000000000000000000000000000000000000000000000000000000000000000000000000000000000000000000000000000000000000000000000000000000000000000000000000000000000000000000000000000000000000000000000000000000000000000000000000000000000000000000000000000000000000000000",
                    "blockNumber": "0x2",
                    "gasLimit": "0x16345785d8a0000",
                    "gasUsed": "0x1237f",
                    "timestamp": "0x18",
                    "extraData": "0x",
                    "prevRandao": "0x0000000000000000000000000000000000000000000000000000000000000000",
                    "baseFeePerGas": "0x7",
                    "blockHash": "0x55e029547b59972a7ba0822eaedaa499b94587db1a4bdfe5663b7360a82cf784",
                    "transactions": [
                        "0xf861020a8405f5e1009414545bc7eaea3a5337b3452975dce21e4fdc25e3808025a02c03ad79c3194dccbd60bae1594eefe5ed83825dd53b5945a9470abf9ab034f2a062e12e8ae38fba2e9d4916a44f647510582c719a364783155a18ced2cb400aa3",
                        "0xf861030a8405f5e1009414545bc7eaea3a5337b3452975dce21e4fdc25e3018026a00c513c882b2d463f8f1887037d160e3607553c3ffdb323327b2d90d8265fe2b3a04614762beee9815ee8372617c69d72c59d0a5452eb0e53a7eac0eae11c472ba6"
                    ],
                    "withdrawals": []
                },
                "version": "2"
            },
            {
                "executionPayload": {
                    "parentHash": "0x55e029547b59972a7ba0822eaedaa499b94587db1a4bdfe5663b7360a82cf784",
                    "feeRecipient": "0x2adc25665018aa1fe0e6bc666dac8fc2697ff9ba",
                    "stateRoot": "0x683dc1d8cbbfa30c280c5392af6f4f225ca3ad26b3b2e74e9a655bdd2b55020f",
                    "receiptsRoot": "0x96570531f04b6941b8846ba05b005030407bb810ff5062169d08ea6dbefaba92",
                    "logsBloom": "0x00000000000000000000000000000000000000000000000000000000000000000000000000000000000000000000000000000000000000000000000000000000000000000000000000000000000000000000000000000000000000000000000000000000000000000000000000000000000000000000000000000000000000000000000000000000000000000000000000000000000000000000000000000000000000000000000000000000000000000000000000000000000000000000000000000000000000000000000000000000000000000000000000000000000000000000000000000000000000000000000000000000000000000000000000000000",
                    "blockNumber": "0x3",
                    "gasLimit": "0x16345785d8a0000",
                    "gasUsed": "0xdac8",
                    "timestamp": "0x24",
                    "extraData": "0x",
                    "prevRandao": "0x0000000000000000000000000000000000000000000000000000000000000000",
                    "baseFeePerGas": "0x7",
                    "blockHash": "0xa86a06bd555fd88ec2728b3afca04489fe0d08f505fe78185da51506a8c4345b",
                    "transactions": [
                        "0xf879040a8405f5e100940000000000000000000000000000000000000100809861000d600081600b8239f3345f14600a57345f55005b5fff25a0ec7d2a14e73ac2a51b1f5e6930590dcc6047e14456ffa1439797cf6bbc8f3913a0440412b6fe7758634f741fb78530656b91a1aa3cb32daf9f4b7f8104a38fd0ff"
                    ],
                    "withdrawals": []
                },
                "version": "2"
            }
        ],
        "engineFcuVersion": "2",
        "_info": {
            "hash": "0xd5f0aaa36e5f2cd93be08ab17492fcba708d2f0f07c5269b49bd098d36b483fb",
            "comment": "`execution-spec-tests` generated test",
            "filling-transition-tool": "evm version 1.14.1-unstable-d6e91e2e-20240507"
        }
    },
    "tests/constantinople/create2/test_recreate.py::test_recreate[fork_Shanghai-blockchain_test_hive-recreate_on_separate_block_False]": {
        "network": "Shanghai",
        "genesisBlockHeader": {
            "parentHash": "0x0000000000000000000000000000000000000000000000000000000000000000",
            "uncleHash": "0x1dcc4de8dec75d7aab85b567b6ccd41ad312451b948a7413f0a142fd40d49347",
            "coinbase": "0x0000000000000000000000000000000000000000",
            "stateRoot": "0xd3aaaad71952fa00dead76ff3a8b6a17e5138eacb1883d22f7443685e874e993",
            "transactionsTrie": "0x56e81f171bcc55a6ff8345e692c0f86e5b48e01b996cadc001622fb5e363b421",
            "receiptTrie": "0x56e81f171bcc55a6ff8345e692c0f86e5b48e01b996cadc001622fb5e363b421",
            "bloom": "0x00000000000000000000000000000000000000000000000000000000000000000000000000000000000000000000000000000000000000000000000000000000000000000000000000000000000000000000000000000000000000000000000000000000000000000000000000000000000000000000000000000000000000000000000000000000000000000000000000000000000000000000000000000000000000000000000000000000000000000000000000000000000000000000000000000000000000000000000000000000000000000000000000000000000000000000000000000000000000000000000000000000000000000000000000000000",
            "difficulty": "0x00",
            "number": "0x00",
            "gasLimit": "0x016345785d8a0000",
            "gasUsed": "0x00",
            "timestamp": "0x00",
            "extraData": "0x00",
            "mixHash": "0x0000000000000000000000000000000000000000000000000000000000000000",
            "nonce": "0x0000000000000000",
            "baseFeePerGas": "0x07",
            "withdrawalsRoot": "0x56e81f171bcc55a6ff8345e692c0f86e5b48e01b996cadc001622fb5e363b421",
            "hash": "0xa7b04dcb57229dd07dccef6c8d2564addbf55be0f5f4d739bf00196ed68b71fa"
        },
        "pre": {
            "0xa94f5374fce5edbc8e2a8697c15331677e6ebf0b": {
                "nonce": "0x00",
                "balance": "0x3635c9adc5dea00000",
                "code": "0x",
                "storage": {}
            },
            "0x0000000000000000000000000000000000000100": {
                "nonce": "0x01",
                "balance": "0x00",
                "code": "0x36600060003760003660006000f5",
                "storage": {}
            }
        },
        "postState": {
            "0x0000000000000000000000000000000000000000": {
                "nonce": "0x00",
                "balance": "0x01",
                "code": "0x",
                "storage": {}
            },
            "0x0000000000000000000000000000000000000100": {
                "nonce": "0x03",
                "balance": "0x00",
                "code": "0x36600060003760003660006000f5",
                "storage": {}
            },
            "0x14545bc7eaea3a5337b3452975dce21e4fdc25e3": {
                "nonce": "0x01",
                "balance": "0x01",
                "code": "0x345f14600a57345f55005b5fff",
                "storage": {}
            },
            "0x2adc25665018aa1fe0e6bc666dac8fc2697ff9ba": {
                "nonce": "0x00",
                "balance": "0x0a8489",
                "code": "0x",
                "storage": {}
            },
            "0xa94f5374fce5edbc8e2a8697c15331677e6ebf0b": {
                "nonce": "0x05",
                "balance": "0x3635c9adc5de7cf0e0",
                "code": "0x",
                "storage": {}
            }
        },
        "engineNewPayloads": [
            {
                "executionPayload": {
                    "parentHash": "0xa7b04dcb57229dd07dccef6c8d2564addbf55be0f5f4d739bf00196ed68b71fa",
                    "feeRecipient": "0x2adc25665018aa1fe0e6bc666dac8fc2697ff9ba",
                    "stateRoot": "0xee2eac8906869aeeaa5a246b81c0e830d686343f02a8c263a34a53b93a795ba9",
                    "receiptsRoot": "0x4be80ebc17b2c605611cb4f6e488b6e83190ad796f75004c6080b9965917eef7",
                    "logsBloom": "0x00000000000000000000000000000000000000000000000000000000000000000000000000000000000000000000000000000000000000000000000000000000000000000000000000000000000000000000000000000000000000000000000000000000000000000000000000000000000000000000000000000000000000000000000000000000000000000000000000000000000000000000000000000000000000000000000000000000000000000000000000000000000000000000000000000000000000000000000000000000000000000000000000000000000000000000000000000000000000000000000000000000000000000000000000000000",
                    "blockNumber": "0x1",
                    "gasLimit": "0x16345785d8a0000",
                    "gasUsed": "0x1833c",
                    "timestamp": "0xc",
                    "extraData": "0x",
                    "prevRandao": "0x0000000000000000000000000000000000000000000000000000000000000000",
                    "baseFeePerGas": "0x7",
                    "blockHash": "0xa5b0242dec47f71b58c9339fd538ca4864bc121ff41a4cf40788d96b022f67f4",
                    "transactions": [
                        "0xf879800a8405f5e100940000000000000000000000000000000000000100809861000d600081600b8239f3345f14600a57345f55005b5fff25a09822abbd3dd15e01ed73d974df13ab544095f8f05a66a44729d4242cdf8c864ea018bc47cc41aafcb0c251f3343691cbb2a3c4135e0cc51529468cdeb31084af0e",
                        "0xf861010a8405f5e1009414545bc7eaea3a5337b3452975dce21e4fdc25e3018026a061f64ea00c4a9736f0cb0f999e77460b24590897187052638f1c4cea03d066faa0726874b4f9b4abdabcf912471b217f14427bad74058006c3d3515a7bb36ecfaf"
                    ],
                    "withdrawals": []
                },
                "version": "2"
            },
            {
                "executionPayload": {
                    "parentHash": "0xa5b0242dec47f71b58c9339fd538ca4864bc121ff41a4cf40788d96b022f67f4",
                    "feeRecipient": "0x2adc25665018aa1fe0e6bc666dac8fc2697ff9ba",
                    "stateRoot": "0x683dc1d8cbbfa30c280c5392af6f4f225ca3ad26b3b2e74e9a655bdd2b55020f",
                    "receiptsRoot": "0xbfc7c6158a8b8645a3da04ad53f389e344076997986f67046402b055f9b584d7",
                    "logsBloom": "0x00000000000000000000000000000000000000000000000000000000000000000000000000000000000000000000000000000000000000000000000000000000000000000000000000000000000000000000000000000000000000000000000000000000000000000000000000000000000000000000000000000000000000000000000000000000000000000000000000000000000000000000000000000000000000000000000000000000000000000000000000000000000000000000000000000000000000000000000000000000000000000000000000000000000000000000000000000000000000000000000000000000000000000000000000000000",
                    "blockNumber": "0x2",
                    "gasLimit": "0x16345785d8a0000",
                    "gasUsed": "0x1fe47",
                    "timestamp": "0x18",
                    "extraData": "0x",
                    "prevRandao": "0x0000000000000000000000000000000000000000000000000000000000000000",
                    "baseFeePerGas": "0x7",
                    "blockHash": "0x9ec7339f0e10738777539a6e06b7ccbb60959f8dd27beb3a28319972fcd116fb",
                    "transactions": [
                        "0xf861020a8405f5e1009414545bc7eaea3a5337b3452975dce21e4fdc25e3808025a02c03ad79c3194dccbd60bae1594eefe5ed83825dd53b5945a9470abf9ab034f2a062e12e8ae38fba2e9d4916a44f647510582c719a364783155a18ced2cb400aa3",
                        "0xf861030a8405f5e1009414545bc7eaea3a5337b3452975dce21e4fdc25e3018026a00c513c882b2d463f8f1887037d160e3607553c3ffdb323327b2d90d8265fe2b3a04614762beee9815ee8372617c69d72c59d0a5452eb0e53a7eac0eae11c472ba6",
                        "0xf879040a8405f5e100940000000000000000000000000000000000000100809861000d600081600b8239f3345f14600a57345f55005b5fff25a0ec7d2a14e73ac2a51b1f5e6930590dcc6047e14456ffa1439797cf6bbc8f3913a0440412b6fe7758634f741fb78530656b91a1aa3cb32daf9f4b7f8104a38fd0ff"
                    ],
                    "withdrawals": []
                },
                "version": "2"
            }
        ],
        "engineFcuVersion": "2",
        "_info": {
            "hash": "0x8844507eefcceea4ee1d9025ccdcee60855dd501bfef6edbc4e16a5eda4e32c4",
            "comment": "`execution-spec-tests` generated test",
            "filling-transition-tool": "evm version 1.14.1-unstable-d6e91e2e-20240507"
        }
    }
}